{
  "contractName": "CoveyStaking",
  "abi": [
    {
      "anonymous": false,
      "inputs": [
        {
          "indexed": true,
          "internalType": "address",
          "name": "_adr",
          "type": "address"
        },
        {
          "indexed": false,
          "internalType": "uint256",
          "name": "amountLost",
          "type": "uint256"
        }
      ],
      "name": "Bankrupt",
      "type": "event"
    },
    {
      "anonymous": false,
      "inputs": [
        {
          "indexed": true,
          "internalType": "address",
          "name": "_adr",
          "type": "address"
        }
      ],
      "name": "CancelledUnstake",
      "type": "event"
    },
    {
      "anonymous": false,
      "inputs": [
        {
          "indexed": false,
          "internalType": "uint8",
          "name": "version",
          "type": "uint8"
        }
      ],
      "name": "Initialized",
      "type": "event"
    },
    {
      "anonymous": false,
      "inputs": [
        {
          "indexed": true,
          "internalType": "bytes32",
          "name": "role",
          "type": "bytes32"
        },
        {
          "indexed": true,
          "internalType": "bytes32",
          "name": "previousAdminRole",
          "type": "bytes32"
        },
        {
          "indexed": true,
          "internalType": "bytes32",
          "name": "newAdminRole",
          "type": "bytes32"
        }
      ],
      "name": "RoleAdminChanged",
      "type": "event"
    },
    {
      "anonymous": false,
      "inputs": [
        {
          "indexed": true,
          "internalType": "bytes32",
          "name": "role",
          "type": "bytes32"
        },
        {
          "indexed": true,
          "internalType": "address",
          "name": "account",
          "type": "address"
        },
        {
          "indexed": true,
          "internalType": "address",
          "name": "sender",
          "type": "address"
        }
      ],
      "name": "RoleGranted",
      "type": "event"
    },
    {
      "anonymous": false,
      "inputs": [
        {
          "indexed": true,
          "internalType": "bytes32",
          "name": "role",
          "type": "bytes32"
        },
        {
          "indexed": true,
          "internalType": "address",
          "name": "account",
          "type": "address"
        },
        {
          "indexed": true,
          "internalType": "address",
          "name": "sender",
          "type": "address"
        }
      ],
      "name": "RoleRevoked",
      "type": "event"
    },
    {
      "anonymous": false,
      "inputs": [
        {
          "indexed": true,
          "internalType": "address",
          "name": "_adr",
          "type": "address"
        },
        {
          "indexed": false,
          "internalType": "uint256",
          "name": "amountDispensed",
          "type": "uint256"
        }
      ],
      "name": "StakeDispensed",
      "type": "event"
    },
    {
      "anonymous": false,
      "inputs": [
        {
          "indexed": true,
          "internalType": "address",
          "name": "_adr",
          "type": "address"
        },
        {
          "indexed": false,
          "internalType": "uint256",
          "name": "amount",
          "type": "uint256"
        }
      ],
      "name": "Staked",
      "type": "event"
    },
    {
      "anonymous": false,
      "inputs": [
        {
          "indexed": true,
          "internalType": "address",
          "name": "_adr",
          "type": "address"
        },
        {
          "indexed": false,
          "internalType": "uint256",
          "name": "amount",
          "type": "uint256"
        }
      ],
      "name": "TotalStaked",
      "type": "event"
    },
    {
      "anonymous": false,
      "inputs": [
        {
          "indexed": true,
          "internalType": "address",
          "name": "_adr",
          "type": "address"
        },
        {
          "indexed": false,
          "internalType": "uint256",
          "name": "amount",
          "type": "uint256"
        }
      ],
      "name": "TotalUnstaked",
      "type": "event"
    },
    {
      "anonymous": false,
      "inputs": [
        {
          "indexed": true,
          "internalType": "address",
          "name": "_adr",
          "type": "address"
        },
        {
          "indexed": false,
          "internalType": "uint256",
          "name": "amount",
          "type": "uint256"
        }
      ],
      "name": "Unstaked",
      "type": "event"
    },
    {
      "inputs": [],
      "name": "DEFAULT_ADMIN_ROLE",
      "outputs": [
        {
          "internalType": "bytes32",
          "name": "",
          "type": "bytes32"
        }
      ],
      "stateMutability": "view",
      "type": "function"
    },
    {
      "inputs": [],
      "name": "STAKE_DISPENSER",
      "outputs": [
        {
          "internalType": "bytes32",
          "name": "",
          "type": "bytes32"
        }
      ],
      "stateMutability": "view",
      "type": "function"
    },
    {
      "inputs": [
        {
          "internalType": "bytes32",
          "name": "role",
          "type": "bytes32"
        }
      ],
      "name": "getRoleAdmin",
      "outputs": [
        {
          "internalType": "bytes32",
          "name": "",
          "type": "bytes32"
        }
      ],
      "stateMutability": "view",
      "type": "function"
    },
    {
      "inputs": [
        {
          "internalType": "bytes32",
          "name": "role",
          "type": "bytes32"
        },
        {
          "internalType": "address",
          "name": "account",
          "type": "address"
        }
      ],
      "name": "grantRole",
      "outputs": [],
      "stateMutability": "nonpayable",
      "type": "function"
    },
    {
      "inputs": [
        {
          "internalType": "bytes32",
          "name": "role",
          "type": "bytes32"
        },
        {
          "internalType": "address",
          "name": "account",
          "type": "address"
        }
      ],
      "name": "hasRole",
      "outputs": [
        {
          "internalType": "bool",
          "name": "",
          "type": "bool"
        }
      ],
      "stateMutability": "view",
      "type": "function"
    },
    {
      "inputs": [
        {
          "internalType": "bytes32",
          "name": "role",
          "type": "bytes32"
        },
        {
          "internalType": "address",
          "name": "account",
          "type": "address"
        }
      ],
      "name": "renounceRole",
      "outputs": [],
      "stateMutability": "nonpayable",
      "type": "function"
    },
    {
      "inputs": [
        {
          "internalType": "bytes32",
          "name": "role",
          "type": "bytes32"
        },
        {
          "internalType": "address",
          "name": "account",
          "type": "address"
        }
      ],
      "name": "revokeRole",
      "outputs": [],
      "stateMutability": "nonpayable",
      "type": "function"
    },
    {
      "inputs": [
        {
          "internalType": "uint256",
          "name": "",
          "type": "uint256"
        }
      ],
      "name": "stakers",
      "outputs": [
        {
          "internalType": "address",
          "name": "",
          "type": "address"
        }
      ],
      "stateMutability": "view",
      "type": "function"
    },
    {
      "inputs": [],
      "name": "stakingToken",
      "outputs": [
        {
          "internalType": "contract IERC20",
          "name": "",
          "type": "address"
        }
      ],
      "stateMutability": "view",
      "type": "function"
    },
    {
      "inputs": [
        {
          "internalType": "bytes4",
          "name": "interfaceId",
          "type": "bytes4"
        }
      ],
      "name": "supportsInterface",
      "outputs": [
        {
          "internalType": "bool",
          "name": "",
          "type": "bool"
        }
      ],
      "stateMutability": "view",
      "type": "function"
    },
    {
      "inputs": [
        {
          "internalType": "contract IERC20",
          "name": "_stakingToken",
          "type": "address"
        }
      ],
      "name": "initialize",
      "outputs": [],
      "stateMutability": "nonpayable",
      "type": "function"
    },
    {
      "inputs": [
        {
          "internalType": "uint256",
          "name": "amount",
          "type": "uint256"
        }
      ],
      "name": "stake",
      "outputs": [],
      "stateMutability": "nonpayable",
      "type": "function"
    },
    {
      "inputs": [
        {
          "internalType": "uint256",
          "name": "amount",
          "type": "uint256"
        }
      ],
      "name": "unstake",
      "outputs": [],
      "stateMutability": "nonpayable",
      "type": "function"
    },
    {
      "inputs": [],
      "name": "cancelUnstake",
      "outputs": [],
      "stateMutability": "nonpayable",
      "type": "function"
    },
    {
      "inputs": [
        {
          "internalType": "address",
          "name": "_adr",
          "type": "address"
        }
      ],
      "name": "getTotalStaked",
      "outputs": [
        {
          "internalType": "uint256",
          "name": "",
          "type": "uint256"
        }
      ],
      "stateMutability": "view",
      "type": "function"
    },
    {
      "inputs": [
        {
          "internalType": "address",
          "name": "_adr",
          "type": "address"
        }
      ],
      "name": "getTotalUnstaked",
      "outputs": [
        {
          "internalType": "uint256",
          "name": "",
          "type": "uint256"
        }
      ],
      "stateMutability": "view",
      "type": "function"
    },
    {
      "inputs": [
        {
          "internalType": "address",
          "name": "bankruptciesReceiver",
          "type": "address"
        },
        {
          "internalType": "address[]",
          "name": "bankruptAddresses",
          "type": "address[]"
        }
      ],
      "name": "dispenseStakes",
      "outputs": [],
      "stateMutability": "nonpayable",
      "type": "function"
    },
    {
      "inputs": [
        {
          "internalType": "address",
          "name": "staker",
          "type": "address"
        }
      ],
      "name": "getNetStaked",
      "outputs": [
        {
          "internalType": "uint256",
          "name": "",
          "type": "uint256"
        }
      ],
      "stateMutability": "view",
      "type": "function"
    },
    {
      "inputs": [],
      "name": "getAllNetStaked",
      "outputs": [
        {
          "components": [
            {
              "internalType": "address",
              "name": "staker",
              "type": "address"
            },
            {
              "internalType": "uint256",
              "name": "stakedAmount",
              "type": "uint256"
            }
          ],
          "internalType": "struct CoveyStaking.StakeInfo[]",
          "name": "",
          "type": "tuple[]"
        }
      ],
      "stateMutability": "view",
      "type": "function"
    },
    {
      "inputs": [
        {
          "internalType": "address",
          "name": "_addr",
          "type": "address"
        }
      ],
      "name": "delegateDispenser",
      "outputs": [],
      "stateMutability": "nonpayable",
      "type": "function"
    },
    {
      "inputs": [
        {
          "internalType": "address",
          "name": "_addr",
          "type": "address"
        }
      ],
      "name": "revokeDispenser",
      "outputs": [],
      "stateMutability": "nonpayable",
      "type": "function"
    }
  ],
  "bytecode": "0x608060405234801561001057600080fd5b506132d9806100206000396000f3fe608060405234801561001057600080fd5b50600436106101375760003560e01c8063a217fddf116100b8578063dd2a8b111161007c578063dd2a8b111461030e578063ded2e7da1461033e578063e14cf1e41461036e578063e15e38bb1461038c578063ea6451e7146103aa578063fd5e6dd1146103da57610137565b8063a217fddf14610280578063a694fc3a1461029e578063bee193be146102ba578063c4d66de8146102d6578063d547741f146102f257610137565b80634ab17969116100ff5780634ab17969146101f05780636620f595146101fa57806372f702f314610216578063866c1f5f1461023457806391d148541461025057610137565b806301ffc9a71461013c578063248a9ca31461016c5780632e17de781461019c5780632f2ff15d146101b857806336568abe146101d4575b600080fd5b610156600480360381019061015191906123d4565b61040a565b604051610163919061241c565b60405180910390f35b6101866004803603810190610181919061246d565b610484565b60405161019391906124a9565b60405180910390f35b6101b660048036038101906101b191906124fa565b6104a4565b005b6101d260048036038101906101cd9190612585565b610733565b005b6101ee60048036038101906101e99190612585565b61075c565b005b6101f86107df565b005b610214600480360381019061020f91906125c5565b6108e9565b005b61021e610970565b60405161022b9190612651565b60405180910390f35b61024e600480360381019061024991906125c5565b610996565b005b61026a60048036038101906102659190612585565b610a1d565b604051610277919061241c565b60405180910390f35b610288610a88565b60405161029591906124a9565b60405180910390f35b6102b860048036038101906102b391906124fa565b610a8f565b005b6102d460048036038101906102cf91906126d1565b610e17565b005b6102f060048036038101906102eb919061276f565b61190d565b005b61030c60048036038101906103079190612585565b611a29565b005b610328600480360381019061032391906125c5565b611a52565b60405161033591906127ab565b60405180910390f35b610358600480360381019061035391906125c5565b611a9b565b60405161036591906127ab565b60405180910390f35b610376611b9d565b60405161038391906128c2565b60405180910390f35b610394611c98565b6040516103a191906124a9565b60405180910390f35b6103c460048036038101906103bf91906125c5565b611cbc565b6040516103d191906127ab565b60405180910390f35b6103f460048036038101906103ef91906124fa565b611d05565b60405161040191906128f3565b60405180910390f35b60007f7965db0b000000000000000000000000000000000000000000000000000000007bffffffffffffffffffffffffffffffffffffffffffffffffffffffff1916827bffffffffffffffffffffffffffffffffffffffffffffffffffffffff1916148061047d575061047c82611d44565b5b9050919050565b600060016000838152602001908152602001600020600101549050919050565b6000600460003373ffffffffffffffffffffffffffffffffffffffff1673ffffffffffffffffffffffffffffffffffffffff168152602001908152602001600020541415610527576040517f08c379a000000000000000000000000000000000000000000000000000000000815260040161051e9061296b565b60405180910390fd5b600081600560003373ffffffffffffffffffffffffffffffffffffffff1673ffffffffffffffffffffffffffffffffffffffff1681526020019081526020016000205461057491906129ba565b600460003373ffffffffffffffffffffffffffffffffffffffff1673ffffffffffffffffffffffffffffffffffffffff168152602001908152602001600020546105be9190612a10565b10156105ff576040517f08c379a00000000000000000000000000000000000000000000000000000000081526004016105f690612ab6565b60405180910390fd5b80600560003373ffffffffffffffffffffffffffffffffffffffff1673ffffffffffffffffffffffffffffffffffffffff168152602001908152602001600020600082825461064e91906129ba565b925050819055503373ffffffffffffffffffffffffffffffffffffffff167f0f5bb82176feb1b5e747e28471aa92156a04d9f3ab9f45f28e2d704232b93f758260405161069b91906127ab565b60405180910390a23373ffffffffffffffffffffffffffffffffffffffff167f45a61950ae80a9a1d9a6c03683ce65096a7db8ca520632bed3072f40963c8804600560003373ffffffffffffffffffffffffffffffffffffffff1673ffffffffffffffffffffffffffffffffffffffff1681526020019081526020016000205460405161072891906127ab565b60405180910390a250565b61073c82610484565b61074d81610748611dae565b611db6565b6107578383611e53565b505050565b610764611dae565b73ffffffffffffffffffffffffffffffffffffffff168173ffffffffffffffffffffffffffffffffffffffff16146107d1576040517f08c379a00000000000000000000000000000000000000000000000000000000081526004016107c890612b48565b60405180910390fd5b6107db8282611f33565b5050565b6000600560003373ffffffffffffffffffffffffffffffffffffffff1673ffffffffffffffffffffffffffffffffffffffff1681526020019081526020016000205411610861576040517f08c379a000000000000000000000000000000000000000000000000000000000815260040161085890612bb4565b60405180910390fd5b600560003373ffffffffffffffffffffffffffffffffffffffff1673ffffffffffffffffffffffffffffffffffffffff168152602001908152602001600020600090553373ffffffffffffffffffffffffffffffffffffffff167f450cc0f663f8ded0053aeca240ef53a2f4b93c5c3aa067e8e45155e823ceaa7a60405160405180910390a2565b600360009054906101000a900473ffffffffffffffffffffffffffffffffffffffff1673ffffffffffffffffffffffffffffffffffffffff163373ffffffffffffffffffffffffffffffffffffffff161461094357600080fd5b61096d7f3ce72fac846f3d6667cfc7665d915020539f7bb54925b82c5fec5505f02a575f82610733565b50565b600260009054906101000a900473ffffffffffffffffffffffffffffffffffffffff1681565b600360009054906101000a900473ffffffffffffffffffffffffffffffffffffffff1673ffffffffffffffffffffffffffffffffffffffff163373ffffffffffffffffffffffffffffffffffffffff16146109f057600080fd5b610a1a7f3ce72fac846f3d6667cfc7665d915020539f7bb54925b82c5fec5505f02a575f82611a29565b50565b60006001600084815260200190815260200160002060000160008373ffffffffffffffffffffffffffffffffffffffff1673ffffffffffffffffffffffffffffffffffffffff16815260200190815260200160002060009054906101000a900460ff16905092915050565b6000801b81565b600073ffffffffffffffffffffffffffffffffffffffff163373ffffffffffffffffffffffffffffffffffffffff161415610aff576040517f08c379a0000000000000000000000000000000000000000000000000000000008152600401610af690612c20565b60405180910390fd5b600260009054906101000a900473ffffffffffffffffffffffffffffffffffffffff1673ffffffffffffffffffffffffffffffffffffffff166370a08231336040518263ffffffff1660e01b8152600401610b5a91906128f3565b602060405180830381865afa158015610b77573d6000803e3d6000fd5b505050506040513d601f19601f82011682018060405250810190610b9b9190612c55565b811115610bdd576040517f08c379a0000000000000000000000000000000000000000000000000000000008152600401610bd490612cf4565b60405180910390fd5b600260009054906101000a900473ffffffffffffffffffffffffffffffffffffffff1673ffffffffffffffffffffffffffffffffffffffff166323b872dd3330846040518463ffffffff1660e01b8152600401610c3c93929190612d14565b6020604051808303816000875af1158015610c5b573d6000803e3d6000fd5b505050506040513d601f19601f82011682018060405250810190610c7f9190612d77565b5080600460003373ffffffffffffffffffffffffffffffffffffffff1673ffffffffffffffffffffffffffffffffffffffff1681526020019081526020016000206000828254610ccf91906129ba565b925050819055506006339080600181540180825580915050600190039060005260206000200160009091909190916101000a81548173ffffffffffffffffffffffffffffffffffffffff021916908373ffffffffffffffffffffffffffffffffffffffff1602179055503373ffffffffffffffffffffffffffffffffffffffff167f9e71bc8eea02a63969f509818f2dafb9254532904319f9dbda79b67bd34a5f3d82604051610d7f91906127ab565b60405180910390a23373ffffffffffffffffffffffffffffffffffffffff167f62be4aaebfea1375247e22afe02276e2d8d1b765bff167beda8066a0012c7b5f600460003373ffffffffffffffffffffffffffffffffffffffff1673ffffffffffffffffffffffffffffffffffffffff16815260200190815260200160002054604051610e0c91906127ab565b60405180910390a250565b600360009054906101000a900473ffffffffffffffffffffffffffffffffffffffff1673ffffffffffffffffffffffffffffffffffffffff163373ffffffffffffffffffffffffffffffffffffffff161480610e995750610e987f3ce72fac846f3d6667cfc7665d915020539f7bb54925b82c5fec5505f02a575f33610a1d565b5b610ed8576040517f08c379a0000000000000000000000000000000000000000000000000000000008152600401610ecf90612e16565b60405180910390fd5b60005b600680549050811015611907576000805b84849050811015610fa85760068381548110610f0b57610f0a612e36565b5b9060005260206000200160009054906101000a900473ffffffffffffffffffffffffffffffffffffffff1673ffffffffffffffffffffffffffffffffffffffff16858583818110610f5f57610f5e612e36565b5b9050602002016020810190610f7491906125c5565b73ffffffffffffffffffffffffffffffffffffffff161415610f9557600191505b8080610fa090612e65565b915050610eec565b5060011515811515141561132557600260009054906101000a900473ffffffffffffffffffffffffffffffffffffffff1673ffffffffffffffffffffffffffffffffffffffff1663a9059cbb86600460006006878154811061100d5761100c612e36565b5b9060005260206000200160009054906101000a900473ffffffffffffffffffffffffffffffffffffffff1673ffffffffffffffffffffffffffffffffffffffff1673ffffffffffffffffffffffffffffffffffffffff168152602001908152602001600020546040518363ffffffff1660e01b8152600401611090929190612eae565b6020604051808303816000875af11580156110af573d6000803e3d6000fd5b505050506040513d601f19601f820116820180604052508101906110d39190612d77565b50600682815481106110e8576110e7612e36565b5b9060005260206000200160009054906101000a900473ffffffffffffffffffffffffffffffffffffffff1673ffffffffffffffffffffffffffffffffffffffff167f7fe451685bab7a17da665cc038b4635412b8d788bb692963f88e35eba15ae175600460006006868154811061116257611161612e36565b5b9060005260206000200160009054906101000a900473ffffffffffffffffffffffffffffffffffffffff1673ffffffffffffffffffffffffffffffffffffffff1673ffffffffffffffffffffffffffffffffffffffff168152602001908152602001600020546040516111d591906127ab565b60405180910390a260056000600684815481106111f5576111f4612e36565b5b9060005260206000200160009054906101000a900473ffffffffffffffffffffffffffffffffffffffff1673ffffffffffffffffffffffffffffffffffffffff1673ffffffffffffffffffffffffffffffffffffffff16815260200190815260200160002060009055600460006006848154811061127657611275612e36565b5b9060005260206000200160009054906101000a900473ffffffffffffffffffffffffffffffffffffffff1673ffffffffffffffffffffffffffffffffffffffff1673ffffffffffffffffffffffffffffffffffffffff16815260200190815260200160002060009055600682815481106112f3576112f2612e36565b5b9060005260206000200160006101000a81549073ffffffffffffffffffffffffffffffffffffffff02191690556118f3565b6000600560006006858154811061133f5761133e612e36565b5b9060005260206000200160009054906101000a900473ffffffffffffffffffffffffffffffffffffffff1673ffffffffffffffffffffffffffffffffffffffff1673ffffffffffffffffffffffffffffffffffffffff168152602001908152602001600020541180156113b6575060001515811515145b156118f257600260009054906101000a900473ffffffffffffffffffffffffffffffffffffffff1673ffffffffffffffffffffffffffffffffffffffff1663a9059cbb6006848154811061140d5761140c612e36565b5b9060005260206000200160009054906101000a900473ffffffffffffffffffffffffffffffffffffffff1660056000600687815481106114505761144f612e36565b5b9060005260206000200160009054906101000a900473ffffffffffffffffffffffffffffffffffffffff1673ffffffffffffffffffffffffffffffffffffffff1673ffffffffffffffffffffffffffffffffffffffff168152602001908152602001600020546040518363ffffffff1660e01b81526004016114d3929190612eae565b6020604051808303816000875af11580156114f2573d6000803e3d6000fd5b505050506040513d601f19601f820116820180604052508101906115169190612d77565b506006828154811061152b5761152a612e36565b5b9060005260206000200160009054906101000a900473ffffffffffffffffffffffffffffffffffffffff1673ffffffffffffffffffffffffffffffffffffffff167f9b4c90d41aa819dadecbb2e126e6dc2e01be4402acc99ec60248131a3f59576c60056000600686815481106115a5576115a4612e36565b5b9060005260206000200160009054906101000a900473ffffffffffffffffffffffffffffffffffffffff1673ffffffffffffffffffffffffffffffffffffffff1673ffffffffffffffffffffffffffffffffffffffff1681526020019081526020016000205460405161161891906127ab565b60405180910390a2600560006006848154811061163857611637612e36565b5b9060005260206000200160009054906101000a900473ffffffffffffffffffffffffffffffffffffffff1673ffffffffffffffffffffffffffffffffffffffff1673ffffffffffffffffffffffffffffffffffffffff1681526020019081526020016000205460046000600685815481106116b6576116b5612e36565b5b9060005260206000200160009054906101000a900473ffffffffffffffffffffffffffffffffffffffff1673ffffffffffffffffffffffffffffffffffffffff1673ffffffffffffffffffffffffffffffffffffffff168152602001908152602001600020546117269190612a10565b600460006006858154811061173e5761173d612e36565b5b9060005260206000200160009054906101000a900473ffffffffffffffffffffffffffffffffffffffff1673ffffffffffffffffffffffffffffffffffffffff1673ffffffffffffffffffffffffffffffffffffffff16815260200190815260200160002081905550600060056000600685815481106117c1576117c0612e36565b5b9060005260206000200160009054906101000a900473ffffffffffffffffffffffffffffffffffffffff1673ffffffffffffffffffffffffffffffffffffffff1673ffffffffffffffffffffffffffffffffffffffff168152602001908152602001600020819055506000600460006006858154811061184457611843612e36565b5b9060005260206000200160009054906101000a900473ffffffffffffffffffffffffffffffffffffffff1673ffffffffffffffffffffffffffffffffffffffff1673ffffffffffffffffffffffffffffffffffffffff16815260200190815260200160002054116118f157600682815481106118c3576118c2612e36565b5b9060005260206000200160006101000a81549073ffffffffffffffffffffffffffffffffffffffff02191690555b5b5b5080806118ff90612e65565b915050610edb565b50505050565b60006119196001612015565b9050801561193d576001600060016101000a81548160ff0219169083151502179055505b33600360006101000a81548173ffffffffffffffffffffffffffffffffffffffff021916908373ffffffffffffffffffffffffffffffffffffffff16021790555081600260006101000a81548173ffffffffffffffffffffffffffffffffffffffff021916908373ffffffffffffffffffffffffffffffffffffffff1602179055506119cc6000801b33612105565b8015611a255760008060016101000a81548160ff0219169083151502179055507f7f26b83ff96e1f2b6a682f133852f6798a09c465da95921460cefb38474024986001604051611a1c9190612f1f565b60405180910390a15b5050565b611a3282610484565b611a4381611a3e611dae565b611db6565b611a4d8383611f33565b505050565b6000600460008373ffffffffffffffffffffffffffffffffffffffff1673ffffffffffffffffffffffffffffffffffffffff168152602001908152602001600020549050919050565b60008073ffffffffffffffffffffffffffffffffffffffff168273ffffffffffffffffffffffffffffffffffffffff161415611b0c576040517f08c379a0000000000000000000000000000000000000000000000000000000008152600401611b0390612c20565b60405180910390fd5b600560008373ffffffffffffffffffffffffffffffffffffffff1673ffffffffffffffffffffffffffffffffffffffff16815260200190815260200160002054600460008473ffffffffffffffffffffffffffffffffffffffff1673ffffffffffffffffffffffffffffffffffffffff16815260200190815260200160002054611b969190612a10565b9050919050565b60608060005b600680549050811015611c9057604051806040016040528060068381548110611bcf57611bce612e36565b5b9060005260206000200160009054906101000a900473ffffffffffffffffffffffffffffffffffffffff1673ffffffffffffffffffffffffffffffffffffffff168152602001611c5c60068481548110611c2c57611c2b612e36565b5b9060005260206000200160009054906101000a900473ffffffffffffffffffffffffffffffffffffffff16611a9b565b815250828281518110611c7257611c71612e36565b5b60200260200101819052508080611c8890612e65565b915050611ba3565b508091505090565b7f3ce72fac846f3d6667cfc7665d915020539f7bb54925b82c5fec5505f02a575f81565b6000600560008373ffffffffffffffffffffffffffffffffffffffff1673ffffffffffffffffffffffffffffffffffffffff168152602001908152602001600020549050919050565b60068181548110611d1557600080fd5b906000526020600020016000915054906101000a900473ffffffffffffffffffffffffffffffffffffffff1681565b60007f01ffc9a7000000000000000000000000000000000000000000000000000000007bffffffffffffffffffffffffffffffffffffffffffffffffffffffff1916827bffffffffffffffffffffffffffffffffffffffffffffffffffffffff1916149050919050565b600033905090565b611dc08282610a1d565b611e4f57611de58173ffffffffffffffffffffffffffffffffffffffff166014612113565b611df38360001c6020612113565b604051602001611e0492919061304c565b6040516020818303038152906040526040517f08c379a0000000000000000000000000000000000000000000000000000000008152600401611e4691906130d0565b60405180910390fd5b5050565b611e5d8282610a1d565b611f2f57600180600084815260200190815260200160002060000160008373ffffffffffffffffffffffffffffffffffffffff1673ffffffffffffffffffffffffffffffffffffffff16815260200190815260200160002060006101000a81548160ff021916908315150217905550611ed4611dae565b73ffffffffffffffffffffffffffffffffffffffff168173ffffffffffffffffffffffffffffffffffffffff16837f2f8788117e7eff1d82e926ec794901d17c78024a50270940304540a733656f0d60405160405180910390a45b5050565b611f3d8282610a1d565b156120115760006001600084815260200190815260200160002060000160008373ffffffffffffffffffffffffffffffffffffffff1673ffffffffffffffffffffffffffffffffffffffff16815260200190815260200160002060006101000a81548160ff021916908315150217905550611fb6611dae565b73ffffffffffffffffffffffffffffffffffffffff168173ffffffffffffffffffffffffffffffffffffffff16837ff6391f5c32d9c69d2a47ea670b442974b53935d1edc7fd64eb21e047a839171b60405160405180910390a45b5050565b60008060019054906101000a900460ff161561208c5760018260ff1614801561204457506120423061234f565b155b612083576040517f08c379a000000000000000000000000000000000000000000000000000000000815260040161207a90613164565b60405180910390fd5b60009050612100565b8160ff1660008054906101000a900460ff1660ff16106120e1576040517f08c379a00000000000000000000000000000000000000000000000000000000081526004016120d890613164565b60405180910390fd5b816000806101000a81548160ff021916908360ff160217905550600190505b919050565b61210f8282611e53565b5050565b6060600060028360026121269190613184565b61213091906129ba565b67ffffffffffffffff811115612149576121486131de565b5b6040519080825280601f01601f19166020018201604052801561217b5781602001600182028036833780820191505090505b5090507f3000000000000000000000000000000000000000000000000000000000000000816000815181106121b3576121b2612e36565b5b60200101907effffffffffffffffffffffffffffffffffffffffffffffffffffffffffffff1916908160001a9053507f78000000000000000000000000000000000000000000000000000000000000008160018151811061221757612216612e36565b5b60200101907effffffffffffffffffffffffffffffffffffffffffffffffffffffffffffff1916908160001a905350600060018460026122579190613184565b61226191906129ba565b90505b6001811115612301577f3031323334353637383961626364656600000000000000000000000000000000600f8616601081106122a3576122a2612e36565b5b1a60f81b8282815181106122ba576122b9612e36565b5b60200101907effffffffffffffffffffffffffffffffffffffffffffffffffffffffffffff1916908160001a905350600485901c9450806122fa9061320d565b9050612264565b5060008414612345576040517f08c379a000000000000000000000000000000000000000000000000000000000815260040161233c90613283565b60405180910390fd5b8091505092915050565b6000808273ffffffffffffffffffffffffffffffffffffffff163b119050919050565b600080fd5b600080fd5b60007fffffffff0000000000000000000000000000000000000000000000000000000082169050919050565b6123b18161237c565b81146123bc57600080fd5b50565b6000813590506123ce816123a8565b92915050565b6000602082840312156123ea576123e9612372565b5b60006123f8848285016123bf565b91505092915050565b60008115159050919050565b61241681612401565b82525050565b6000602082019050612431600083018461240d565b92915050565b6000819050919050565b61244a81612437565b811461245557600080fd5b50565b60008135905061246781612441565b92915050565b60006020828403121561248357612482612372565b5b600061249184828501612458565b91505092915050565b6124a381612437565b82525050565b60006020820190506124be600083018461249a565b92915050565b6000819050919050565b6124d7816124c4565b81146124e257600080fd5b50565b6000813590506124f4816124ce565b92915050565b6000602082840312156125105761250f612372565b5b600061251e848285016124e5565b91505092915050565b600073ffffffffffffffffffffffffffffffffffffffff82169050919050565b600061255282612527565b9050919050565b61256281612547565b811461256d57600080fd5b50565b60008135905061257f81612559565b92915050565b6000806040838503121561259c5761259b612372565b5b60006125aa85828601612458565b92505060206125bb85828601612570565b9150509250929050565b6000602082840312156125db576125da612372565b5b60006125e984828501612570565b91505092915050565b6000819050919050565b600061261761261261260d84612527565b6125f2565b612527565b9050919050565b6000612629826125fc565b9050919050565b600061263b8261261e565b9050919050565b61264b81612630565b82525050565b60006020820190506126666000830184612642565b92915050565b600080fd5b600080fd5b600080fd5b60008083601f8401126126915761269061266c565b5b8235905067ffffffffffffffff8111156126ae576126ad612671565b5b6020830191508360208202830111156126ca576126c9612676565b5b9250929050565b6000806000604084860312156126ea576126e9612372565b5b60006126f886828701612570565b935050602084013567ffffffffffffffff81111561271957612718612377565b5b6127258682870161267b565b92509250509250925092565b600061273c82612547565b9050919050565b61274c81612731565b811461275757600080fd5b50565b60008135905061276981612743565b92915050565b60006020828403121561278557612784612372565b5b60006127938482850161275a565b91505092915050565b6127a5816124c4565b82525050565b60006020820190506127c0600083018461279c565b92915050565b600081519050919050565b600082825260208201905092915050565b6000819050602082019050919050565b6127fb81612547565b82525050565b61280a816124c4565b82525050565b60408201600082015161282660008501826127f2565b5060208201516128396020850182612801565b50505050565b600061284b8383612810565b60408301905092915050565b6000602082019050919050565b600061286f826127c6565b61287981856127d1565b9350612884836127e2565b8060005b838110156128b557815161289c888261283f565b97506128a783612857565b925050600181019050612888565b5085935050505092915050565b600060208201905081810360008301526128dc8184612864565b905092915050565b6128ed81612547565b82525050565b600060208201905061290860008301846128e4565b92915050565b600082825260208201905092915050565b7f486173206e6f74207374616b6564000000000000000000000000000000000000600082015250565b6000612955600e8361290e565b91506129608261291f565b602082019050919050565b6000602082019050818103600083015261298481612948565b9050919050565b7f4e487b7100000000000000000000000000000000000000000000000000000000600052601160045260246000fd5b60006129c5826124c4565b91506129d0836124c4565b9250827fffffffffffffffffffffffffffffffffffffffffffffffffffffffffffffffff03821115612a0557612a0461298b565b5b828201905092915050565b6000612a1b826124c4565b9150612a26836124c4565b925082821015612a3957612a3861298b565b5b828203905092915050565b7f43616e6e6f7420756e7374616b65206d6f7265207468616e20746f74616c207360008201527f74616b656420616d6f756e740000000000000000000000000000000000000000602082015250565b6000612aa0602c8361290e565b9150612aab82612a44565b604082019050919050565b60006020820190508181036000830152612acf81612a93565b9050919050565b7f416363657373436f6e74726f6c3a2063616e206f6e6c792072656e6f756e636560008201527f20726f6c657320666f722073656c660000000000000000000000000000000000602082015250565b6000612b32602f8361290e565b9150612b3d82612ad6565b604082019050919050565b60006020820190508181036000830152612b6181612b25565b9050919050565b7f4e6f20756e7374616b6520746f2063616e63656c000000000000000000000000600082015250565b6000612b9e60148361290e565b9150612ba982612b68565b602082019050919050565b60006020820190508181036000830152612bcd81612b91565b9050919050565b7f53656e6465722069732030206164647265737300000000000000000000000000600082015250565b6000612c0a60138361290e565b9150612c1582612bd4565b602082019050919050565b60006020820190508181036000830152612c3981612bfd565b9050919050565b600081519050612c4f816124ce565b92915050565b600060208284031215612c6b57612c6a612372565b5b6000612c7984828501612c40565b91505092915050565b7f416d6f756e74206578636565647320617661696c61626c65204356592062616c60008201527f616e636500000000000000000000000000000000000000000000000000000000602082015250565b6000612cde60248361290e565b9150612ce982612c82565b604082019050919050565b60006020820190508181036000830152612d0d81612cd1565b9050919050565b6000606082019050612d2960008301866128e4565b612d3660208301856128e4565b612d43604083018461279c565b949350505050565b612d5481612401565b8114612d5f57600080fd5b50565b600081519050612d7181612d4b565b92915050565b600060208284031215612d8d57612d8c612372565b5b6000612d9b84828501612d62565b91505092915050565b7f5265717569726573206f776e6572206f722064697370656e73657220746f206360008201527f616c6c0000000000000000000000000000000000000000000000000000000000602082015250565b6000612e0060238361290e565b9150612e0b82612da4565b604082019050919050565b60006020820190508181036000830152612e2f81612df3565b9050919050565b7f4e487b7100000000000000000000000000000000000000000000000000000000600052603260045260246000fd5b6000612e70826124c4565b91507fffffffffffffffffffffffffffffffffffffffffffffffffffffffffffffffff821415612ea357612ea261298b565b5b600182019050919050565b6000604082019050612ec360008301856128e4565b612ed0602083018461279c565b9392505050565b6000819050919050565b600060ff82169050919050565b6000612f09612f04612eff84612ed7565b6125f2565b612ee1565b9050919050565b612f1981612eee565b82525050565b6000602082019050612f346000830184612f10565b92915050565b600081905092915050565b7f416363657373436f6e74726f6c3a206163636f756e7420000000000000000000600082015250565b6000612f7b601783612f3a565b9150612f8682612f45565b601782019050919050565b600081519050919050565b60005b83811015612fba578082015181840152602081019050612f9f565b83811115612fc9576000848401525b50505050565b6000612fda82612f91565b612fe48185612f3a565b9350612ff4818560208601612f9c565b80840191505092915050565b7f206973206d697373696e6720726f6c6520000000000000000000000000000000600082015250565b6000613036601183612f3a565b915061304182613000565b601182019050919050565b600061305782612f6e565b91506130638285612fcf565b915061306e82613029565b915061307a8284612fcf565b91508190509392505050565b6000601f19601f8301169050919050565b60006130a282612f91565b6130ac818561290e565b93506130bc818560208601612f9c565b6130c581613086565b840191505092915050565b600060208201905081810360008301526130ea8184613097565b905092915050565b7f496e697469616c697a61626c653a20636f6e747261637420697320616c72656160008201527f647920696e697469616c697a6564000000000000000000000000000000000000602082015250565b600061314e602e8361290e565b9150613159826130f2565b604082019050919050565b6000602082019050818103600083015261317d81613141565b9050919050565b600061318f826124c4565b915061319a836124c4565b9250817fffffffffffffffffffffffffffffffffffffffffffffffffffffffffffffffff04831182151516156131d3576131d261298b565b5b828202905092915050565b7f4e487b7100000000000000000000000000000000000000000000000000000000600052604160045260246000fd5b6000613218826124c4565b9150600082141561322c5761322b61298b565b5b600182039050919050565b7f537472696e67733a20686578206c656e67746820696e73756666696369656e74600082015250565b600061326d60208361290e565b915061327882613237565b602082019050919050565b6000602082019050818103600083015261329c81613260565b905091905056fea26469706673582212204ec0a795bd9fe1fd694646c72a0089bce70b2b9407c7a6352349747ee9ef6a0364736f6c634300080b0033",
  "immutableReferences": {},
  "source": "// contracts/CoveyStaking.sol\r\n// SPDX-License-Identifier: MIT\r\npragma solidity ^0.8.9;\r\n\r\nimport \"@openzeppelin/contracts/access/Ownable.sol\";\r\nimport '@openzeppelin/contracts-upgradeable/proxy/utils/Initializable.sol';\r\nimport '@openzeppelin/contracts/token/ERC20/IERC20.sol';\r\nimport \"@openzeppelin/contracts/access/AccessControl.sol\";\r\n\r\n\r\ncontract CoveyStaking is Initializable, AccessControl {\r\n  IERC20 public stakingToken;\r\n\r\n  struct StakeInfo {\r\n      address staker;\r\n      uint stakedAmount;\r\n  }\r\n\r\n  address owner;\r\n\r\n\r\n  mapping(address => uint) private _stakedAmounts;\r\n\r\n  mapping(address => uint) private _unstakedAmounts;\r\n\r\n  address[] public stakers;\r\n\r\n  bytes32 public constant STAKE_DISPENSER = keccak256(\"STAKE_DISPENSER\");\r\n\r\n  event Staked(address indexed _adr, uint amount);\r\n  \r\n  event Unstaked(address indexed _adr, uint amount);\r\n\r\n  event TotalStaked(address indexed _adr, uint amount);\r\n  \r\n  event TotalUnstaked(address indexed _adr, uint amount);\r\n\r\n  event CancelledUnstake(address indexed _adr);\r\n\r\n  event Bankrupt(address indexed _adr, uint amountLost);\r\n\r\n  event StakeDispensed(address indexed _adr, uint amountDispensed);\r\n\r\n  modifier onlyOwner {\r\n      require(msg.sender == owner);\r\n      _;\r\n  }\r\n\r\n  modifier onlyOwnerOrDispenser {\r\n    require(msg.sender == owner || hasRole(STAKE_DISPENSER, msg.sender), \"Requires owner or dispenser to call\");\r\n    _;\r\n  }\r\n\r\n  function initialize(IERC20 _stakingToken) public initializer {\r\n        owner = msg.sender;\r\n        stakingToken = _stakingToken;\r\n        _setupRole(DEFAULT_ADMIN_ROLE, msg.sender);\r\n    }\r\n\r\n   \r\n\r\n  function stake(uint amount) public {\r\n      require(msg.sender != address(0), \"Sender is 0 address\");\r\n      require(amount <= stakingToken.balanceOf(msg.sender), \"Amount exceeds available CVY balance\");\r\n\r\n      stakingToken.transferFrom(msg.sender, address(this), amount);\r\n      _stakedAmounts[msg.sender] +=  amount;\r\n      stakers.push(msg.sender);\r\n      emit Staked(msg.sender, amount);\r\n      emit TotalStaked(msg.sender, _stakedAmounts[msg.sender]);\r\n  }\r\n\r\n  function unstake(uint amount) public {\r\n      require(_stakedAmounts[msg.sender] != 0, \"Has not staked\");\r\n      require(_stakedAmounts[msg.sender] - (_unstakedAmounts[msg.sender] + amount) >= 0, \"Cannot unstake more than total staked amount\");\r\n      _unstakedAmounts[msg.sender] += amount;\r\n      emit Unstaked(msg.sender, amount);\r\n      emit TotalUnstaked(msg.sender, _unstakedAmounts[msg.sender]);\r\n  }\r\n\r\n  function cancelUnstake() public {\r\n      require(_unstakedAmounts[msg.sender] > 0, \"No unstake to cancel\");\r\n      delete _unstakedAmounts[msg.sender];\r\n      emit CancelledUnstake(msg.sender);\r\n  }\r\n\r\n  function getTotalStaked(address _adr) public view returns(uint) {\r\n      return _stakedAmounts[_adr];\r\n  }\r\n\r\n  function getTotalUnstaked(address _adr) public view returns(uint) {\r\n      return _unstakedAmounts[_adr];\r\n  }\r\n\r\n  function dispenseStakes(address bankruptciesReceiver, address[] calldata bankruptAddresses) public onlyOwnerOrDispenser {\r\n      for(uint i = 0; i < stakers.length; i++) {\r\n          bool isBankrupt = false;\r\n          for(uint j = 0; j < bankruptAddresses.length; j++) {\r\n                if(bankruptAddresses[j] == stakers[i]) {\r\n                    isBankrupt = true;\r\n                }\r\n            }\r\n\r\n          if(isBankrupt == true) {\r\n              stakingToken.transfer(bankruptciesReceiver, _stakedAmounts[stakers[i]]);\r\n              emit Bankrupt(stakers[i], _stakedAmounts[stakers[i]]);\r\n              delete _unstakedAmounts[stakers[i]];\r\n              delete _stakedAmounts[stakers[i]];\r\n              delete stakers[i]; \r\n          } else if( _unstakedAmounts[stakers[i]] > 0 && isBankrupt == false) {\r\n              stakingToken.transfer(stakers[i], _unstakedAmounts[stakers[i]]);\r\n              emit StakeDispensed(stakers[i], _unstakedAmounts[stakers[i]]);\r\n              _stakedAmounts[stakers[i]] = _stakedAmounts[stakers[i]] - _unstakedAmounts[stakers[i]];\r\n              _unstakedAmounts[stakers[i]] = 0;\r\n\r\n              if(_stakedAmounts[stakers[i]] <= 0) {\r\n                  delete stakers[i];\r\n              }\r\n          }\r\n      }\r\n  }\r\n\r\n  function getNetStaked(address staker) public view returns (uint) {\r\n      require(staker != address(0), \"Sender is 0 address\");\r\n      \r\n      return _stakedAmounts[staker] - _unstakedAmounts[staker];\r\n  }\r\n\r\n  function getAllNetStaked() public view returns (StakeInfo[] memory) {\r\n      StakeInfo[] memory stakeInformation;\r\n\r\n      for(uint i = 0; i < stakers.length; i++) {\r\n          stakeInformation[i] = StakeInfo({\r\n              staker: stakers[i],\r\n              stakedAmount: getNetStaked(stakers[i])\r\n          });\r\n      }\r\n\r\n      return stakeInformation;\r\n  }\r\n\r\n  function delegateDispenser(address _addr) public onlyOwner {\r\n    grantRole(STAKE_DISPENSER, _addr);\r\n  }\r\n\r\n  function revokeDispenser(address _addr) public onlyOwner {\r\n    revokeRole(STAKE_DISPENSER, _addr);\r\n  }\r\n}",
  "sourcePath": "C:\\Users\\jcara\\Documents\\repos\\smart-contract-token\\contracts\\CoveyStaking.sol",
  "compiler": {
    "name": "solc",
    "version": "0.8.11+commit.d7f03943.Emscripten.clang"
  },
  "schemaVersion": "3.4.8",
  "updatedAt": "2022-08-10T19:24:10.238Z",
  "devdoc": {
    "kind": "dev",
    "methods": {
      "getRoleAdmin(bytes32)": {
        "details": "Returns the admin role that controls `role`. See {grantRole} and {revokeRole}. To change a role's admin, use {_setRoleAdmin}."
      },
      "grantRole(bytes32,address)": {
        "details": "Grants `role` to `account`. If `account` had not been already granted `role`, emits a {RoleGranted} event. Requirements: - the caller must have ``role``'s admin role."
      },
      "hasRole(bytes32,address)": {
        "details": "Returns `true` if `account` has been granted `role`."
      },
      "renounceRole(bytes32,address)": {
        "details": "Revokes `role` from the calling account. Roles are often managed via {grantRole} and {revokeRole}: this function's purpose is to provide a mechanism for accounts to lose their privileges if they are compromised (such as when a trusted device is misplaced). If the calling account had been revoked `role`, emits a {RoleRevoked} event. Requirements: - the caller must be `account`."
      },
      "revokeRole(bytes32,address)": {
        "details": "Revokes `role` from `account`. If `account` had been granted `role`, emits a {RoleRevoked} event. Requirements: - the caller must have ``role``'s admin role."
      },
      "supportsInterface(bytes4)": {
        "details": "See {IERC165-supportsInterface}."
      }
    },
    "version": 1
  },
  "userdoc": {
    "kind": "user",
    "methods": {},
    "version": 1
  }
}