{
  "contractName": "CoveyToken",
  "abi": [
    {
      "inputs": [
        {
          "internalType": "uint256",
          "name": "initialSupply",
          "type": "uint256"
        },
        {
          "internalType": "address[]",
          "name": "defaultOperators",
          "type": "address[]"
        }
      ],
      "stateMutability": "nonpayable",
      "type": "constructor"
    },
    {
      "anonymous": false,
      "inputs": [
        {
          "indexed": true,
          "internalType": "address",
          "name": "owner",
          "type": "address"
        },
        {
          "indexed": true,
          "internalType": "address",
          "name": "spender",
          "type": "address"
        },
        {
          "indexed": false,
          "internalType": "uint256",
          "name": "value",
          "type": "uint256"
        }
      ],
      "name": "Approval",
      "type": "event"
    },
    {
      "anonymous": false,
      "inputs": [
        {
          "indexed": true,
          "internalType": "address",
          "name": "operator",
          "type": "address"
        },
        {
          "indexed": true,
          "internalType": "address",
          "name": "tokenHolder",
          "type": "address"
        }
      ],
      "name": "AuthorizedOperator",
      "type": "event"
    },
    {
      "anonymous": false,
      "inputs": [
        {
          "indexed": true,
          "internalType": "address",
          "name": "operator",
          "type": "address"
        },
        {
          "indexed": true,
          "internalType": "address",
          "name": "from",
          "type": "address"
        },
        {
          "indexed": false,
          "internalType": "uint256",
          "name": "amount",
          "type": "uint256"
        },
        {
          "indexed": false,
          "internalType": "bytes",
          "name": "data",
          "type": "bytes"
        },
        {
          "indexed": false,
          "internalType": "bytes",
          "name": "operatorData",
          "type": "bytes"
        }
      ],
      "name": "Burned",
      "type": "event"
    },
    {
      "anonymous": false,
      "inputs": [
        {
          "indexed": true,
          "internalType": "address",
          "name": "operator",
          "type": "address"
        },
        {
          "indexed": true,
          "internalType": "address",
          "name": "to",
          "type": "address"
        },
        {
          "indexed": false,
          "internalType": "uint256",
          "name": "amount",
          "type": "uint256"
        },
        {
          "indexed": false,
          "internalType": "bytes",
          "name": "data",
          "type": "bytes"
        },
        {
          "indexed": false,
          "internalType": "bytes",
          "name": "operatorData",
          "type": "bytes"
        }
      ],
      "name": "Minted",
      "type": "event"
    },
    {
      "anonymous": false,
      "inputs": [
        {
          "indexed": true,
          "internalType": "address",
          "name": "previousOwner",
          "type": "address"
        },
        {
          "indexed": true,
          "internalType": "address",
          "name": "newOwner",
          "type": "address"
        }
      ],
      "name": "OwnershipTransferred",
      "type": "event"
    },
    {
      "anonymous": false,
      "inputs": [
        {
          "indexed": true,
          "internalType": "address",
          "name": "operator",
          "type": "address"
        },
        {
          "indexed": true,
          "internalType": "address",
          "name": "tokenHolder",
          "type": "address"
        }
      ],
      "name": "RevokedOperator",
      "type": "event"
    },
    {
      "anonymous": false,
      "inputs": [
        {
          "indexed": true,
          "internalType": "address",
          "name": "operator",
          "type": "address"
        },
        {
          "indexed": true,
          "internalType": "address",
          "name": "from",
          "type": "address"
        },
        {
          "indexed": true,
          "internalType": "address",
          "name": "to",
          "type": "address"
        },
        {
          "indexed": false,
          "internalType": "uint256",
          "name": "amount",
          "type": "uint256"
        },
        {
          "indexed": false,
          "internalType": "bytes",
          "name": "data",
          "type": "bytes"
        },
        {
          "indexed": false,
          "internalType": "bytes",
          "name": "operatorData",
          "type": "bytes"
        }
      ],
      "name": "Sent",
      "type": "event"
    },
    {
      "anonymous": false,
      "inputs": [
        {
          "indexed": true,
          "internalType": "address",
          "name": "from",
          "type": "address"
        },
        {
          "indexed": true,
          "internalType": "address",
          "name": "to",
          "type": "address"
        },
        {
          "indexed": false,
          "internalType": "uint256",
          "name": "value",
          "type": "uint256"
        }
      ],
      "name": "Transfer",
      "type": "event"
    },
    {
      "inputs": [
        {
          "internalType": "address",
          "name": "holder",
          "type": "address"
        },
        {
          "internalType": "address",
          "name": "spender",
          "type": "address"
        }
      ],
      "name": "allowance",
      "outputs": [
        {
          "internalType": "uint256",
          "name": "",
          "type": "uint256"
        }
      ],
      "stateMutability": "view",
      "type": "function",
      "constant": true
    },
    {
      "inputs": [
        {
          "internalType": "address",
          "name": "spender",
          "type": "address"
        },
        {
          "internalType": "uint256",
          "name": "value",
          "type": "uint256"
        }
      ],
      "name": "approve",
      "outputs": [
        {
          "internalType": "bool",
          "name": "",
          "type": "bool"
        }
      ],
      "stateMutability": "nonpayable",
      "type": "function"
    },
    {
      "inputs": [
        {
          "internalType": "address",
          "name": "operator",
          "type": "address"
        }
      ],
      "name": "authorizeOperator",
      "outputs": [],
      "stateMutability": "nonpayable",
      "type": "function"
    },
    {
      "inputs": [
        {
          "internalType": "address",
          "name": "tokenHolder",
          "type": "address"
        }
      ],
      "name": "balanceOf",
      "outputs": [
        {
          "internalType": "uint256",
          "name": "",
          "type": "uint256"
        }
      ],
      "stateMutability": "view",
      "type": "function",
      "constant": true
    },
    {
      "inputs": [
        {
          "internalType": "uint256",
          "name": "amount",
          "type": "uint256"
        },
        {
          "internalType": "bytes",
          "name": "data",
          "type": "bytes"
        }
      ],
      "name": "burn",
      "outputs": [],
      "stateMutability": "nonpayable",
      "type": "function"
    },
    {
      "inputs": [],
      "name": "decimals",
      "outputs": [
        {
          "internalType": "uint8",
          "name": "",
          "type": "uint8"
        }
      ],
      "stateMutability": "pure",
      "type": "function",
      "constant": true
    },
    {
      "inputs": [],
      "name": "defaultOperators",
      "outputs": [
        {
          "internalType": "address[]",
          "name": "",
          "type": "address[]"
        }
      ],
      "stateMutability": "view",
      "type": "function",
      "constant": true
    },
    {
      "inputs": [],
      "name": "granularity",
      "outputs": [
        {
          "internalType": "uint256",
          "name": "",
          "type": "uint256"
        }
      ],
      "stateMutability": "view",
      "type": "function",
      "constant": true
    },
    {
      "inputs": [
        {
          "internalType": "address",
          "name": "operator",
          "type": "address"
        },
        {
          "internalType": "address",
          "name": "tokenHolder",
          "type": "address"
        }
      ],
      "name": "isOperatorFor",
      "outputs": [
        {
          "internalType": "bool",
          "name": "",
          "type": "bool"
        }
      ],
      "stateMutability": "view",
      "type": "function",
      "constant": true
    },
    {
      "inputs": [],
      "name": "name",
      "outputs": [
        {
          "internalType": "string",
          "name": "",
          "type": "string"
        }
      ],
      "stateMutability": "view",
      "type": "function",
      "constant": true
    },
    {
      "inputs": [
        {
          "internalType": "address",
          "name": "account",
          "type": "address"
        },
        {
          "internalType": "uint256",
          "name": "amount",
          "type": "uint256"
        },
        {
          "internalType": "bytes",
          "name": "data",
          "type": "bytes"
        },
        {
          "internalType": "bytes",
          "name": "operatorData",
          "type": "bytes"
        }
      ],
      "name": "operatorBurn",
      "outputs": [],
      "stateMutability": "nonpayable",
      "type": "function"
    },
    {
      "inputs": [
        {
          "internalType": "address",
          "name": "sender",
          "type": "address"
        },
        {
          "internalType": "address",
          "name": "recipient",
          "type": "address"
        },
        {
          "internalType": "uint256",
          "name": "amount",
          "type": "uint256"
        },
        {
          "internalType": "bytes",
          "name": "data",
          "type": "bytes"
        },
        {
          "internalType": "bytes",
          "name": "operatorData",
          "type": "bytes"
        }
      ],
      "name": "operatorSend",
      "outputs": [],
      "stateMutability": "nonpayable",
      "type": "function"
    },
    {
      "inputs": [],
      "name": "owner",
      "outputs": [
        {
          "internalType": "address",
          "name": "",
          "type": "address"
        }
      ],
      "stateMutability": "view",
      "type": "function",
      "constant": true
    },
    {
      "inputs": [],
      "name": "renounceOwnership",
      "outputs": [],
      "stateMutability": "nonpayable",
      "type": "function"
    },
    {
      "inputs": [
        {
          "internalType": "address",
          "name": "operator",
          "type": "address"
        }
      ],
      "name": "revokeOperator",
      "outputs": [],
      "stateMutability": "nonpayable",
      "type": "function"
    },
    {
      "inputs": [
        {
          "internalType": "address",
          "name": "recipient",
          "type": "address"
        },
        {
          "internalType": "uint256",
          "name": "amount",
          "type": "uint256"
        },
        {
          "internalType": "bytes",
          "name": "data",
          "type": "bytes"
        }
      ],
      "name": "send",
      "outputs": [],
      "stateMutability": "nonpayable",
      "type": "function"
    },
    {
      "inputs": [],
      "name": "symbol",
      "outputs": [
        {
          "internalType": "string",
          "name": "",
          "type": "string"
        }
      ],
      "stateMutability": "view",
      "type": "function",
      "constant": true
    },
    {
      "inputs": [],
      "name": "totalSupply",
      "outputs": [
        {
          "internalType": "uint256",
          "name": "",
          "type": "uint256"
        }
      ],
      "stateMutability": "view",
      "type": "function",
      "constant": true
    },
    {
      "inputs": [
        {
          "internalType": "address",
          "name": "recipient",
          "type": "address"
        },
        {
          "internalType": "uint256",
          "name": "amount",
          "type": "uint256"
        }
      ],
      "name": "transfer",
      "outputs": [
        {
          "internalType": "bool",
          "name": "",
          "type": "bool"
        }
      ],
      "stateMutability": "nonpayable",
      "type": "function"
    },
    {
      "inputs": [
        {
          "internalType": "address",
          "name": "holder",
          "type": "address"
        },
        {
          "internalType": "address",
          "name": "recipient",
          "type": "address"
        },
        {
          "internalType": "uint256",
          "name": "amount",
          "type": "uint256"
        }
      ],
      "name": "transferFrom",
      "outputs": [
        {
          "internalType": "bool",
          "name": "",
          "type": "bool"
        }
      ],
      "stateMutability": "nonpayable",
      "type": "function"
    },
    {
      "inputs": [
        {
          "internalType": "address",
          "name": "newOwner",
          "type": "address"
        }
      ],
      "name": "transferOwnership",
      "outputs": [],
      "stateMutability": "nonpayable",
      "type": "function"
    },
    {
      "inputs": [
        {
          "internalType": "address[]",
          "name": "recipients",
          "type": "address[]"
        },
        {
          "internalType": "uint256[]",
          "name": "amounts",
          "type": "uint256[]"
        }
      ],
      "name": "airdrop",
      "outputs": [],
      "stateMutability": "nonpayable",
      "type": "function"
    }
  ],
  "bytecode": "0x60806040523480156200001157600080fd5b50604051620046de380380620046de833981810160405281019062000037919062000b9d565b6040518060400160405280600581526020017f436f7665790000000000000000000000000000000000000000000000000000008152506040518060400160405280600381526020017f4356590000000000000000000000000000000000000000000000000000000000815250828260029080519060200190620000bc92919062000835565b508160039080519060200190620000d592919062000835565b508060049080519060200190620000ee929190620008c6565b5060005b8151811015620001875760016005600084848151811062000118576200011762000c03565b5b602002602001015173ffffffffffffffffffffffffffffffffffffffff1673ffffffffffffffffffffffffffffffffffffffff16815260200190815260200160002060006101000a81548160ff02191690831515021790555080806200017e9062000c61565b915050620000f2565b50731820a4b7618bde71dce8cdc73aab6c95905fad2473ffffffffffffffffffffffffffffffffffffffff166329965a1d307fac7fbab5f54a3ca8194167523c6753bfeb96a445279294b6125b68cce2177054306040518463ffffffff1660e01b8152600401620001fb9392919062000cdb565b600060405180830381600087803b1580156200021657600080fd5b505af11580156200022b573d6000803e3d6000fd5b50505050731820a4b7618bde71dce8cdc73aab6c95905fad2473ffffffffffffffffffffffffffffffffffffffff166329965a1d307faea199e31a596269b42cdafd93407f14436db6e4cad65417994c2eb37381e05a306040518463ffffffff1660e01b8152600401620002a29392919062000cdb565b600060405180830381600087803b158015620002bd57600080fd5b505af1158015620002d2573d6000803e3d6000fd5b50505050505050620002f9620002ed6200033360201b60201c565b6200033b60201b60201c565b6200032b338360405180602001604052806000815250604051806020016040528060008152506200040160201b60201c565b505062001101565b600033905090565b6000600960009054906101000a900473ffffffffffffffffffffffffffffffffffffffff16905081600960006101000a81548173ffffffffffffffffffffffffffffffffffffffff021916908373ffffffffffffffffffffffffffffffffffffffff1602179055508173ffffffffffffffffffffffffffffffffffffffff168173ffffffffffffffffffffffffffffffffffffffff167f8be0079c531659141344cd1fd0a4f28419497f9722a3daafe3b4186f6b6457e060405160405180910390a35050565b620004178484848460016200041d60201b60201c565b50505050565b600073ffffffffffffffffffffffffffffffffffffffff168573ffffffffffffffffffffffffffffffffffffffff16141562000490576040517f08c379a0000000000000000000000000000000000000000000000000000000008152600401620004879062000d79565b60405180910390fd5b6000620004a26200033360201b60201c565b9050620004b981600088886200061e60201b60201c565b8460016000828254620004cd919062000d9b565b92505081905550846000808873ffffffffffffffffffffffffffffffffffffffff1673ffffffffffffffffffffffffffffffffffffffff168152602001908152602001600020600082825462000524919062000d9b565b925050819055506200054381600088888888886200062460201b60201c565b8573ffffffffffffffffffffffffffffffffffffffff168173ffffffffffffffffffffffffffffffffffffffff167f2fe5be0146f74c5bce36c0b80911af6c7d86ff27e89d5cfa61fc681327954e5d878787604051620005a69392919062000e9c565b60405180910390a38573ffffffffffffffffffffffffffffffffffffffff16600073ffffffffffffffffffffffffffffffffffffffff167fddf252ad1be2c89b69c2b068fc378daa952ba7f163c4a11628f55a4df523b3ef876040516200060e919062000ee7565b60405180910390a3505050505050565b50505050565b6000731820a4b7618bde71dce8cdc73aab6c95905fad2473ffffffffffffffffffffffffffffffffffffffff1663aabbb8ca877fb281fc8c12954d22544db45de3159a39272895b169a852b314f9cc762e44c53b6040518363ffffffff1660e01b81526004016200069792919062000f04565b602060405180830381865afa158015620006b5573d6000803e3d6000fd5b505050506040513d601f19601f82011682018060405250810190620006db919062000f31565b9050600073ffffffffffffffffffffffffffffffffffffffff168173ffffffffffffffffffffffffffffffffffffffff161462000790578073ffffffffffffffffffffffffffffffffffffffff166223de298989898989896040518763ffffffff1660e01b8152600401620007569695949392919062000f63565b600060405180830381600087803b1580156200077157600080fd5b505af115801562000786573d6000803e3d6000fd5b5050505062000808565b81156200080757620007c38673ffffffffffffffffffffffffffffffffffffffff166200081260201b620013dd1760201c565b1562000806576040517f08c379a0000000000000000000000000000000000000000000000000000000008152600401620007fd906200107a565b60405180910390fd5b5b5b5050505050505050565b6000808273ffffffffffffffffffffffffffffffffffffffff163b119050919050565b8280546200084390620010cb565b90600052602060002090601f016020900481019282620008675760008555620008b3565b82601f106200088257805160ff1916838001178555620008b3565b82800160010185558215620008b3579182015b82811115620008b257825182559160200191906001019062000895565b5b509050620008c2919062000955565b5090565b82805482825590600052602060002090810192821562000942579160200282015b82811115620009415782518260006101000a81548173ffffffffffffffffffffffffffffffffffffffff021916908373ffffffffffffffffffffffffffffffffffffffff16021790555091602001919060010190620008e7565b5b50905062000951919062000955565b5090565b5b808211156200097057600081600090555060010162000956565b5090565b6000604051905090565b600080fd5b600080fd5b6000819050919050565b6200099d8162000988565b8114620009a957600080fd5b50565b600081519050620009bd8162000992565b92915050565b600080fd5b6000601f19601f8301169050919050565b7f4e487b7100000000000000000000000000000000000000000000000000000000600052604160045260246000fd5b62000a1382620009c8565b810181811067ffffffffffffffff8211171562000a355762000a34620009d9565b5b80604052505050565b600062000a4a62000974565b905062000a58828262000a08565b919050565b600067ffffffffffffffff82111562000a7b5762000a7a620009d9565b5b602082029050602081019050919050565b600080fd5b600073ffffffffffffffffffffffffffffffffffffffff82169050919050565b600062000abe8262000a91565b9050919050565b62000ad08162000ab1565b811462000adc57600080fd5b50565b60008151905062000af08162000ac5565b92915050565b600062000b0d62000b078462000a5d565b62000a3e565b9050808382526020820190506020840283018581111562000b335762000b3262000a8c565b5b835b8181101562000b60578062000b4b888262000adf565b84526020840193505060208101905062000b35565b5050509392505050565b600082601f83011262000b825762000b81620009c3565b5b815162000b9484826020860162000af6565b91505092915050565b6000806040838503121562000bb75762000bb66200097e565b5b600062000bc785828601620009ac565b925050602083015167ffffffffffffffff81111562000beb5762000bea62000983565b5b62000bf98582860162000b6a565b9150509250929050565b7f4e487b7100000000000000000000000000000000000000000000000000000000600052603260045260246000fd5b7f4e487b7100000000000000000000000000000000000000000000000000000000600052601160045260246000fd5b600062000c6e8262000988565b91507fffffffffffffffffffffffffffffffffffffffffffffffffffffffffffffffff82141562000ca45762000ca362000c32565b5b600182019050919050565b62000cba8162000ab1565b82525050565b6000819050919050565b62000cd58162000cc0565b82525050565b600060608201905062000cf2600083018662000caf565b62000d01602083018562000cca565b62000d10604083018462000caf565b949350505050565b600082825260208201905092915050565b7f4552433737373a206d696e7420746f20746865207a65726f2061646472657373600082015250565b600062000d6160208362000d18565b915062000d6e8262000d29565b602082019050919050565b6000602082019050818103600083015262000d948162000d52565b9050919050565b600062000da88262000988565b915062000db58362000988565b9250827fffffffffffffffffffffffffffffffffffffffffffffffffffffffffffffffff0382111562000ded5762000dec62000c32565b5b828201905092915050565b62000e038162000988565b82525050565b600081519050919050565b600082825260208201905092915050565b60005b8381101562000e4557808201518184015260208101905062000e28565b8381111562000e55576000848401525b50505050565b600062000e688262000e09565b62000e74818562000e14565b935062000e8681856020860162000e25565b62000e9181620009c8565b840191505092915050565b600060608201905062000eb3600083018662000df8565b818103602083015262000ec7818562000e5b565b9050818103604083015262000edd818462000e5b565b9050949350505050565b600060208201905062000efe600083018462000df8565b92915050565b600060408201905062000f1b600083018562000caf565b62000f2a602083018462000cca565b9392505050565b60006020828403121562000f4a5762000f496200097e565b5b600062000f5a8482850162000adf565b91505092915050565b600060c08201905062000f7a600083018962000caf565b62000f89602083018862000caf565b62000f98604083018762000caf565b62000fa7606083018662000df8565b818103608083015262000fbb818562000e5b565b905081810360a083015262000fd1818462000e5b565b9050979650505050505050565b7f4552433737373a20746f6b656e20726563697069656e7420636f6e747261637460008201527f20686173206e6f20696d706c656d656e74657220666f7220455243373737546f60208201527f6b656e73526563697069656e7400000000000000000000000000000000000000604082015250565b600062001062604d8362000d18565b91506200106f8262000fde565b606082019050919050565b60006020820190508181036000830152620010958162001053565b9050919050565b7f4e487b7100000000000000000000000000000000000000000000000000000000600052602260045260246000fd5b60006002820490506001821680620010e457607f821691505b60208210811415620010fb57620010fa6200109c565b5b50919050565b6135cd80620011116000396000f3fe608060405234801561001057600080fd5b50600436106101425760003560e01c80638da5cb5b116100b8578063d95b63711161007c578063d95b637114610353578063dd62ed3e14610383578063f2fde38b146103b3578063fad8b32a146103cf578063fc673c4f146103eb578063fe9d93031461040757610142565b80638da5cb5b146102af578063959b8c3f146102cd57806395d89b41146102e95780639bd9bbc614610307578063a9059cbb1461032357610142565b8063313ce5671161010a578063313ce56714610201578063556f0dc71461021f57806362ad1b831461023d578063672434821461025957806370a0823114610275578063715018a6146102a557610142565b806306e485381461014757806306fdde0314610165578063095ea7b31461018357806318160ddd146101b357806323b872dd146101d1575b600080fd5b61014f610423565b60405161015c91906120e1565b60405180910390f35b61016d6104b1565b60405161017a919061219c565b60405180910390f35b61019d60048036038101906101989190612234565b610543565b6040516101aa919061228f565b60405180910390f35b6101bb610566565b6040516101c891906122b9565b60405180910390f35b6101eb60048036038101906101e691906122d4565b610570565b6040516101f8919061228f565b60405180910390f35b6102096106fa565b6040516102169190612343565b60405180910390f35b610227610703565b60405161023491906122b9565b60405180910390f35b61025760048036038101906102529190612493565b61070c565b005b610273600480360381019061026e91906126d1565b610772565b005b61028f600480360381019061028a9190612749565b61089f565b60405161029c91906122b9565b60405180910390f35b6102ad6108e7565b005b6102b761096f565b6040516102c49190612785565b60405180910390f35b6102e760048036038101906102e29190612749565b610999565b005b6102f1610bfa565b6040516102fe919061219c565b60405180910390f35b610321600480360381019061031c91906127a0565b610c8c565b005b61033d60048036038101906103389190612234565b610cb6565b60405161034a919061228f565b60405180910390f35b61036d6004803603810190610368919061280f565b610dc4565b60405161037a919061228f565b60405180910390f35b61039d6004803603810190610398919061280f565b610f75565b6040516103aa91906122b9565b60405180910390f35b6103cd60048036038101906103c89190612749565b610ffc565b005b6103e960048036038101906103e49190612749565b6110f4565b005b6104056004803603810190610400919061284f565b611355565b005b610421600480360381019061041c91906128ee565b6113b7565b005b606060048054806020026020016040519081016040528092919081815260200182805480156104a757602002820191906000526020600020905b8160009054906101000a900473ffffffffffffffffffffffffffffffffffffffff1673ffffffffffffffffffffffffffffffffffffffff168152602001906001019080831161045d575b5050505050905090565b6060600280546104c090612979565b80601f01602080910402602001604051908101604052809291908181526020018280546104ec90612979565b80156105395780601f1061050e57610100808354040283529160200191610539565b820191906000526020600020905b81548152906001019060200180831161051c57829003601f168201915b5050505050905090565b60008061054e611400565b905061055b818585611408565b600191505092915050565b6000600154905090565b60008073ffffffffffffffffffffffffffffffffffffffff168373ffffffffffffffffffffffffffffffffffffffff1614156105e1576040517f08c379a00000000000000000000000000000000000000000000000000000000081526004016105d890612a1d565b60405180910390fd5b600073ffffffffffffffffffffffffffffffffffffffff168473ffffffffffffffffffffffffffffffffffffffff161415610651576040517f08c379a000000000000000000000000000000000000000000000000000000000815260040161064890612aaf565b60405180910390fd5b600061065b611400565b90506106898186868660405180602001604052806000815250604051806020016040528060008152506115d3565b61069485828561173a565b6106c08186868660405180602001604052806000815250604051806020016040528060008152506117c6565b6106ee81868686604051806020016040528060008152506040518060200160405280600081525060006119e0565b60019150509392505050565b60006012905090565b60006001905090565b61071d610717611400565b86610dc4565b61075c576040517f08c379a000000000000000000000000000000000000000000000000000000000815260040161075390612b41565b60405180910390fd5b61076b85858585856001611bb2565b5050505050565b61077a611400565b73ffffffffffffffffffffffffffffffffffffffff1661079861096f565b73ffffffffffffffffffffffffffffffffffffffff16146107ee576040517f08c379a00000000000000000000000000000000000000000000000000000000081526004016107e590612bad565b60405180910390fd5b60005b825181101561089a576000670de0b6b3a764000083838151811061081857610817612bcd565b5b602002602001015161082a9190612c2b565b905061088684838151811061084257610841612bcd565b5b6020026020010151826040518060400160405280600d81526020017f436f7665792041697264726f7000000000000000000000000000000000000000815250610c8c565b50808061089290612c85565b9150506107f1565b505050565b60008060008373ffffffffffffffffffffffffffffffffffffffff1673ffffffffffffffffffffffffffffffffffffffff168152602001908152602001600020549050919050565b6108ef611400565b73ffffffffffffffffffffffffffffffffffffffff1661090d61096f565b73ffffffffffffffffffffffffffffffffffffffff1614610963576040517f08c379a000000000000000000000000000000000000000000000000000000000815260040161095a90612bad565b60405180910390fd5b61096d6000611cd2565b565b6000600960009054906101000a900473ffffffffffffffffffffffffffffffffffffffff16905090565b8073ffffffffffffffffffffffffffffffffffffffff166109b8611400565b73ffffffffffffffffffffffffffffffffffffffff161415610a0f576040517f08c379a0000000000000000000000000000000000000000000000000000000008152600401610a0690612d40565b60405180910390fd5b600560008273ffffffffffffffffffffffffffffffffffffffff1673ffffffffffffffffffffffffffffffffffffffff16815260200190815260200160002060009054906101000a900460ff1615610af95760076000610a6d611400565b73ffffffffffffffffffffffffffffffffffffffff1673ffffffffffffffffffffffffffffffffffffffff16815260200190815260200160002060008273ffffffffffffffffffffffffffffffffffffffff1673ffffffffffffffffffffffffffffffffffffffff16815260200190815260200160002060006101000a81549060ff0219169055610b96565b600160066000610b07611400565b73ffffffffffffffffffffffffffffffffffffffff1673ffffffffffffffffffffffffffffffffffffffff16815260200190815260200160002060008373ffffffffffffffffffffffffffffffffffffffff1673ffffffffffffffffffffffffffffffffffffffff16815260200190815260200160002060006101000a81548160ff0219169083151502179055505b610b9e611400565b73ffffffffffffffffffffffffffffffffffffffff168173ffffffffffffffffffffffffffffffffffffffff167ff4caeb2d6ca8932a215a353d0703c326ec2d81fc68170f320eb2ab49e9df61f960405160405180910390a350565b606060038054610c0990612979565b80601f0160208091040260200160405190810160405280929190818152602001828054610c3590612979565b8015610c825780601f10610c5757610100808354040283529160200191610c82565b820191906000526020600020905b815481529060010190602001808311610c6557829003601f168201915b5050505050905090565b610cb1610c97611400565b848484604051806020016040528060008152506001611bb2565b505050565b60008073ffffffffffffffffffffffffffffffffffffffff168373ffffffffffffffffffffffffffffffffffffffff161415610d27576040517f08c379a0000000000000000000000000000000000000000000000000000000008152600401610d1e90612a1d565b60405180910390fd5b6000610d31611400565b9050610d5f8182868660405180602001604052806000815250604051806020016040528060008152506115d3565b610d8b8182868660405180602001604052806000815250604051806020016040528060008152506117c6565b610db981828686604051806020016040528060008152506040518060200160405280600081525060006119e0565b600191505092915050565b60008173ffffffffffffffffffffffffffffffffffffffff168373ffffffffffffffffffffffffffffffffffffffff161480610edc5750600560008473ffffffffffffffffffffffffffffffffffffffff1673ffffffffffffffffffffffffffffffffffffffff16815260200190815260200160002060009054906101000a900460ff168015610edb5750600760008373ffffffffffffffffffffffffffffffffffffffff1673ffffffffffffffffffffffffffffffffffffffff16815260200190815260200160002060008473ffffffffffffffffffffffffffffffffffffffff1673ffffffffffffffffffffffffffffffffffffffff16815260200190815260200160002060009054906101000a900460ff16155b5b80610f6d5750600660008373ffffffffffffffffffffffffffffffffffffffff1673ffffffffffffffffffffffffffffffffffffffff16815260200190815260200160002060008473ffffffffffffffffffffffffffffffffffffffff1673ffffffffffffffffffffffffffffffffffffffff16815260200190815260200160002060009054906101000a900460ff165b905092915050565b6000600860008473ffffffffffffffffffffffffffffffffffffffff1673ffffffffffffffffffffffffffffffffffffffff16815260200190815260200160002060008373ffffffffffffffffffffffffffffffffffffffff1673ffffffffffffffffffffffffffffffffffffffff16815260200190815260200160002054905092915050565b611004611400565b73ffffffffffffffffffffffffffffffffffffffff1661102261096f565b73ffffffffffffffffffffffffffffffffffffffff1614611078576040517f08c379a000000000000000000000000000000000000000000000000000000000815260040161106f90612bad565b60405180910390fd5b600073ffffffffffffffffffffffffffffffffffffffff168173ffffffffffffffffffffffffffffffffffffffff1614156110e8576040517f08c379a00000000000000000000000000000000000000000000000000000000081526004016110df90612dd2565b60405180910390fd5b6110f181611cd2565b50565b6110fc611400565b73ffffffffffffffffffffffffffffffffffffffff168173ffffffffffffffffffffffffffffffffffffffff16141561116a576040517f08c379a000000000000000000000000000000000000000000000000000000000815260040161116190612e64565b60405180910390fd5b600560008273ffffffffffffffffffffffffffffffffffffffff1673ffffffffffffffffffffffffffffffffffffffff16815260200190815260200160002060009054906101000a900460ff161561125d576001600760006111ca611400565b73ffffffffffffffffffffffffffffffffffffffff1673ffffffffffffffffffffffffffffffffffffffff16815260200190815260200160002060008373ffffffffffffffffffffffffffffffffffffffff1673ffffffffffffffffffffffffffffffffffffffff16815260200190815260200160002060006101000a81548160ff0219169083151502179055506112f1565b60066000611269611400565b73ffffffffffffffffffffffffffffffffffffffff1673ffffffffffffffffffffffffffffffffffffffff16815260200190815260200160002060008273ffffffffffffffffffffffffffffffffffffffff1673ffffffffffffffffffffffffffffffffffffffff16815260200190815260200160002060006101000a81549060ff02191690555b6112f9611400565b73ffffffffffffffffffffffffffffffffffffffff168173ffffffffffffffffffffffffffffffffffffffff167f50546e66e5f44d728365dc3908c63bc5cfeeab470722c1677e3073a6ac294aa160405160405180910390a350565b611366611360611400565b85610dc4565b6113a5576040517f08c379a000000000000000000000000000000000000000000000000000000000815260040161139c90612b41565b60405180910390fd5b6113b184848484611d98565b50505050565b6113d96113c2611400565b838360405180602001604052806000815250611d98565b5050565b6000808273ffffffffffffffffffffffffffffffffffffffff163b119050919050565b600033905090565b600073ffffffffffffffffffffffffffffffffffffffff168373ffffffffffffffffffffffffffffffffffffffff161415611478576040517f08c379a000000000000000000000000000000000000000000000000000000000815260040161146f90612ef6565b60405180910390fd5b600073ffffffffffffffffffffffffffffffffffffffff168273ffffffffffffffffffffffffffffffffffffffff1614156114e8576040517f08c379a00000000000000000000000000000000000000000000000000000000081526004016114df90612f88565b60405180910390fd5b80600860008573ffffffffffffffffffffffffffffffffffffffff1673ffffffffffffffffffffffffffffffffffffffff16815260200190815260200160002060008473ffffffffffffffffffffffffffffffffffffffff1673ffffffffffffffffffffffffffffffffffffffff168152602001908152602001600020819055508173ffffffffffffffffffffffffffffffffffffffff168373ffffffffffffffffffffffffffffffffffffffff167f8c5be1e5ebec7d5bd14f71427d1e84f3dd0314c0f7b2291e5b200ac8c7c3b925836040516115c691906122b9565b60405180910390a3505050565b6000731820a4b7618bde71dce8cdc73aab6c95905fad2473ffffffffffffffffffffffffffffffffffffffff1663aabbb8ca877f29ddb589b1fb5fc7cf394961c1adf5f8c6454761adf795e67fe149f658abe8956040518363ffffffff1660e01b8152600401611644929190612fc1565b602060405180830381865afa158015611661573d6000803e3d6000fd5b505050506040513d601f19601f820116820180604052508101906116859190612fff565b9050600073ffffffffffffffffffffffffffffffffffffffff168173ffffffffffffffffffffffffffffffffffffffff1614611731578073ffffffffffffffffffffffffffffffffffffffff166375ab97828888888888886040518763ffffffff1660e01b81526004016116fe96959493929190613081565b600060405180830381600087803b15801561171857600080fd5b505af115801561172c573d6000803e3d6000fd5b505050505b50505050505050565b60006117468484610f75565b90507fffffffffffffffffffffffffffffffffffffffffffffffffffffffffffffffff81146117c057818110156117b2576040517f08c379a00000000000000000000000000000000000000000000000000000000081526004016117a99061313c565b60405180910390fd5b6117bf8484848403611408565b5b50505050565b6117d286868686611feb565b60008060008773ffffffffffffffffffffffffffffffffffffffff1673ffffffffffffffffffffffffffffffffffffffff16815260200190815260200160002054905083811015611858576040517f08c379a000000000000000000000000000000000000000000000000000000000815260040161184f906131ce565b60405180910390fd5b8381036000808873ffffffffffffffffffffffffffffffffffffffff1673ffffffffffffffffffffffffffffffffffffffff16815260200190815260200160002081905550836000808773ffffffffffffffffffffffffffffffffffffffff1673ffffffffffffffffffffffffffffffffffffffff16815260200190815260200160002060008282546118eb91906131ee565b925050819055508473ffffffffffffffffffffffffffffffffffffffff168673ffffffffffffffffffffffffffffffffffffffff168873ffffffffffffffffffffffffffffffffffffffff167f06b541ddaa720db2b10a4d0cdac39b8d360425fc073085fac19bc8261467798787878760405161196a93929190613244565b60405180910390a48473ffffffffffffffffffffffffffffffffffffffff168673ffffffffffffffffffffffffffffffffffffffff167fddf252ad1be2c89b69c2b068fc378daa952ba7f163c4a11628f55a4df523b3ef866040516119cf91906122b9565b60405180910390a350505050505050565b6000731820a4b7618bde71dce8cdc73aab6c95905fad2473ffffffffffffffffffffffffffffffffffffffff1663aabbb8ca877fb281fc8c12954d22544db45de3159a39272895b169a852b314f9cc762e44c53b6040518363ffffffff1660e01b8152600401611a51929190612fc1565b602060405180830381865afa158015611a6e573d6000803e3d6000fd5b505050506040513d601f19601f82011682018060405250810190611a929190612fff565b9050600073ffffffffffffffffffffffffffffffffffffffff168173ffffffffffffffffffffffffffffffffffffffff1614611b41578073ffffffffffffffffffffffffffffffffffffffff166223de298989898989896040518763ffffffff1660e01b8152600401611b0a96959493929190613081565b600060405180830381600087803b158015611b2457600080fd5b505af1158015611b38573d6000803e3d6000fd5b50505050611ba8565b8115611ba757611b668673ffffffffffffffffffffffffffffffffffffffff166113dd565b15611ba6576040517f08c379a0000000000000000000000000000000000000000000000000000000008152600401611b9d90613321565b60405180910390fd5b5b5b5050505050505050565b600073ffffffffffffffffffffffffffffffffffffffff168673ffffffffffffffffffffffffffffffffffffffff161415611c22576040517f08c379a0000000000000000000000000000000000000000000000000000000008152600401611c19906133b3565b60405180910390fd5b600073ffffffffffffffffffffffffffffffffffffffff168573ffffffffffffffffffffffffffffffffffffffff161415611c92576040517f08c379a0000000000000000000000000000000000000000000000000000000008152600401611c899061341f565b60405180910390fd5b6000611c9c611400565b9050611cac8188888888886115d3565b611cba8188888888886117c6565b611cc9818888888888886119e0565b50505050505050565b6000600960009054906101000a900473ffffffffffffffffffffffffffffffffffffffff16905081600960006101000a81548173ffffffffffffffffffffffffffffffffffffffff021916908373ffffffffffffffffffffffffffffffffffffffff1602179055508173ffffffffffffffffffffffffffffffffffffffff168173ffffffffffffffffffffffffffffffffffffffff167f8be0079c531659141344cd1fd0a4f28419497f9722a3daafe3b4186f6b6457e060405160405180910390a35050565b600073ffffffffffffffffffffffffffffffffffffffff168473ffffffffffffffffffffffffffffffffffffffff161415611e08576040517f08c379a0000000000000000000000000000000000000000000000000000000008152600401611dff906134b1565b60405180910390fd5b6000611e12611400565b9050611e23818660008787876115d3565b611e308186600087611feb565b60008060008773ffffffffffffffffffffffffffffffffffffffff1673ffffffffffffffffffffffffffffffffffffffff16815260200190815260200160002054905084811015611eb6576040517f08c379a0000000000000000000000000000000000000000000000000000000008152600401611ead90613543565b60405180910390fd5b8481036000808873ffffffffffffffffffffffffffffffffffffffff1673ffffffffffffffffffffffffffffffffffffffff168152602001908152602001600020819055508460016000828254611f0d9190613563565b925050819055508573ffffffffffffffffffffffffffffffffffffffff168273ffffffffffffffffffffffffffffffffffffffff167fa78a9be3a7b862d26933ad85fb11d80ef66b8f972d7cbba06621d583943a4098878787604051611f7593929190613244565b60405180910390a3600073ffffffffffffffffffffffffffffffffffffffff168673ffffffffffffffffffffffffffffffffffffffff167fddf252ad1be2c89b69c2b068fc378daa952ba7f163c4a11628f55a4df523b3ef87604051611fdb91906122b9565b60405180910390a3505050505050565b50505050565b600081519050919050565b600082825260208201905092915050565b6000819050602082019050919050565b600073ffffffffffffffffffffffffffffffffffffffff82169050919050565b60006120488261201d565b9050919050565b6120588161203d565b82525050565b600061206a838361204f565b60208301905092915050565b6000602082019050919050565b600061208e82611ff1565b6120988185611ffc565b93506120a38361200d565b8060005b838110156120d45781516120bb888261205e565b97506120c683612076565b9250506001810190506120a7565b5085935050505092915050565b600060208201905081810360008301526120fb8184612083565b905092915050565b600081519050919050565b600082825260208201905092915050565b60005b8381101561213d578082015181840152602081019050612122565b8381111561214c576000848401525b50505050565b6000601f19601f8301169050919050565b600061216e82612103565b612178818561210e565b935061218881856020860161211f565b61219181612152565b840191505092915050565b600060208201905081810360008301526121b68184612163565b905092915050565b6000604051905090565b600080fd5b600080fd5b6121db8161203d565b81146121e657600080fd5b50565b6000813590506121f8816121d2565b92915050565b6000819050919050565b612211816121fe565b811461221c57600080fd5b50565b60008135905061222e81612208565b92915050565b6000806040838503121561224b5761224a6121c8565b5b6000612259858286016121e9565b925050602061226a8582860161221f565b9150509250929050565b60008115159050919050565b61228981612274565b82525050565b60006020820190506122a46000830184612280565b92915050565b6122b3816121fe565b82525050565b60006020820190506122ce60008301846122aa565b92915050565b6000806000606084860312156122ed576122ec6121c8565b5b60006122fb868287016121e9565b935050602061230c868287016121e9565b925050604061231d8682870161221f565b9150509250925092565b600060ff82169050919050565b61233d81612327565b82525050565b60006020820190506123586000830184612334565b92915050565b600080fd5b600080fd5b7f4e487b7100000000000000000000000000000000000000000000000000000000600052604160045260246000fd5b6123a082612152565b810181811067ffffffffffffffff821117156123bf576123be612368565b5b80604052505050565b60006123d26121be565b90506123de8282612397565b919050565b600067ffffffffffffffff8211156123fe576123fd612368565b5b61240782612152565b9050602081019050919050565b82818337600083830152505050565b6000612436612431846123e3565b6123c8565b90508281526020810184848401111561245257612451612363565b5b61245d848285612414565b509392505050565b600082601f83011261247a5761247961235e565b5b813561248a848260208601612423565b91505092915050565b600080600080600060a086880312156124af576124ae6121c8565b5b60006124bd888289016121e9565b95505060206124ce888289016121e9565b94505060406124df8882890161221f565b935050606086013567ffffffffffffffff811115612500576124ff6121cd565b5b61250c88828901612465565b925050608086013567ffffffffffffffff81111561252d5761252c6121cd565b5b61253988828901612465565b9150509295509295909350565b600067ffffffffffffffff82111561256157612560612368565b5b602082029050602081019050919050565b600080fd5b600061258a61258584612546565b6123c8565b905080838252602082019050602084028301858111156125ad576125ac612572565b5b835b818110156125d657806125c288826121e9565b8452602084019350506020810190506125af565b5050509392505050565b600082601f8301126125f5576125f461235e565b5b8135612605848260208601612577565b91505092915050565b600067ffffffffffffffff82111561262957612628612368565b5b602082029050602081019050919050565b600061264d6126488461260e565b6123c8565b905080838252602082019050602084028301858111156126705761266f612572565b5b835b818110156126995780612685888261221f565b845260208401935050602081019050612672565b5050509392505050565b600082601f8301126126b8576126b761235e565b5b81356126c884826020860161263a565b91505092915050565b600080604083850312156126e8576126e76121c8565b5b600083013567ffffffffffffffff811115612706576127056121cd565b5b612712858286016125e0565b925050602083013567ffffffffffffffff811115612733576127326121cd565b5b61273f858286016126a3565b9150509250929050565b60006020828403121561275f5761275e6121c8565b5b600061276d848285016121e9565b91505092915050565b61277f8161203d565b82525050565b600060208201905061279a6000830184612776565b92915050565b6000806000606084860312156127b9576127b86121c8565b5b60006127c7868287016121e9565b93505060206127d88682870161221f565b925050604084013567ffffffffffffffff8111156127f9576127f86121cd565b5b61280586828701612465565b9150509250925092565b60008060408385031215612826576128256121c8565b5b6000612834858286016121e9565b9250506020612845858286016121e9565b9150509250929050565b60008060008060808587031215612869576128686121c8565b5b6000612877878288016121e9565b94505060206128888782880161221f565b935050604085013567ffffffffffffffff8111156128a9576128a86121cd565b5b6128b587828801612465565b925050606085013567ffffffffffffffff8111156128d6576128d56121cd565b5b6128e287828801612465565b91505092959194509250565b60008060408385031215612905576129046121c8565b5b60006129138582860161221f565b925050602083013567ffffffffffffffff811115612934576129336121cd565b5b61294085828601612465565b9150509250929050565b7f4e487b7100000000000000000000000000000000000000000000000000000000600052602260045260246000fd5b6000600282049050600182168061299157607f821691505b602082108114156129a5576129a461294a565b5b50919050565b7f4552433737373a207472616e7366657220746f20746865207a65726f2061646460008201527f7265737300000000000000000000000000000000000000000000000000000000602082015250565b6000612a0760248361210e565b9150612a12826129ab565b604082019050919050565b60006020820190508181036000830152612a36816129fa565b9050919050565b7f4552433737373a207472616e736665722066726f6d20746865207a65726f206160008201527f6464726573730000000000000000000000000000000000000000000000000000602082015250565b6000612a9960268361210e565b9150612aa482612a3d565b604082019050919050565b60006020820190508181036000830152612ac881612a8c565b9050919050565b7f4552433737373a2063616c6c6572206973206e6f7420616e206f70657261746f60008201527f7220666f7220686f6c6465720000000000000000000000000000000000000000602082015250565b6000612b2b602c8361210e565b9150612b3682612acf565b604082019050919050565b60006020820190508181036000830152612b5a81612b1e565b9050919050565b7f4f776e61626c653a2063616c6c6572206973206e6f7420746865206f776e6572600082015250565b6000612b9760208361210e565b9150612ba282612b61565b602082019050919050565b60006020820190508181036000830152612bc681612b8a565b9050919050565b7f4e487b7100000000000000000000000000000000000000000000000000000000600052603260045260246000fd5b7f4e487b7100000000000000000000000000000000000000000000000000000000600052601160045260246000fd5b6000612c36826121fe565b9150612c41836121fe565b9250817fffffffffffffffffffffffffffffffffffffffffffffffffffffffffffffffff0483118215151615612c7a57612c79612bfc565b5b828202905092915050565b6000612c90826121fe565b91507fffffffffffffffffffffffffffffffffffffffffffffffffffffffffffffffff821415612cc357612cc2612bfc565b5b600182019050919050565b7f4552433737373a20617574686f72697a696e672073656c66206173206f70657260008201527f61746f7200000000000000000000000000000000000000000000000000000000602082015250565b6000612d2a60248361210e565b9150612d3582612cce565b604082019050919050565b60006020820190508181036000830152612d5981612d1d565b9050919050565b7f4f776e61626c653a206e6577206f776e657220697320746865207a65726f206160008201527f6464726573730000000000000000000000000000000000000000000000000000602082015250565b6000612dbc60268361210e565b9150612dc782612d60565b604082019050919050565b60006020820190508181036000830152612deb81612daf565b9050919050565b7f4552433737373a207265766f6b696e672073656c66206173206f70657261746f60008201527f7200000000000000000000000000000000000000000000000000000000000000602082015250565b6000612e4e60218361210e565b9150612e5982612df2565b604082019050919050565b60006020820190508181036000830152612e7d81612e41565b9050919050565b7f4552433737373a20617070726f76652066726f6d20746865207a65726f20616460008201527f6472657373000000000000000000000000000000000000000000000000000000602082015250565b6000612ee060258361210e565b9150612eeb82612e84565b604082019050919050565b60006020820190508181036000830152612f0f81612ed3565b9050919050565b7f4552433737373a20617070726f766520746f20746865207a65726f206164647260008201527f6573730000000000000000000000000000000000000000000000000000000000602082015250565b6000612f7260238361210e565b9150612f7d82612f16565b604082019050919050565b60006020820190508181036000830152612fa181612f65565b9050919050565b6000819050919050565b612fbb81612fa8565b82525050565b6000604082019050612fd66000830185612776565b612fe36020830184612fb2565b9392505050565b600081519050612ff9816121d2565b92915050565b600060208284031215613015576130146121c8565b5b600061302384828501612fea565b91505092915050565b600081519050919050565b600082825260208201905092915050565b60006130538261302c565b61305d8185613037565b935061306d81856020860161211f565b61307681612152565b840191505092915050565b600060c0820190506130966000830189612776565b6130a36020830188612776565b6130b06040830187612776565b6130bd60608301866122aa565b81810360808301526130cf8185613048565b905081810360a08301526130e38184613048565b9050979650505050505050565b7f4552433737373a20696e73756666696369656e7420616c6c6f77616e63650000600082015250565b6000613126601e8361210e565b9150613131826130f0565b602082019050919050565b6000602082019050818103600083015261315581613119565b9050919050565b7f4552433737373a207472616e7366657220616d6f756e7420657863656564732060008201527f62616c616e636500000000000000000000000000000000000000000000000000602082015250565b60006131b860278361210e565b91506131c38261315c565b604082019050919050565b600060208201905081810360008301526131e7816131ab565b9050919050565b60006131f9826121fe565b9150613204836121fe565b9250827fffffffffffffffffffffffffffffffffffffffffffffffffffffffffffffffff0382111561323957613238612bfc565b5b828201905092915050565b600060608201905061325960008301866122aa565b818103602083015261326b8185613048565b9050818103604083015261327f8184613048565b9050949350505050565b7f4552433737373a20746f6b656e20726563697069656e7420636f6e747261637460008201527f20686173206e6f20696d706c656d656e74657220666f7220455243373737546f60208201527f6b656e73526563697069656e7400000000000000000000000000000000000000604082015250565b600061330b604d8361210e565b915061331682613289565b606082019050919050565b6000602082019050818103600083015261333a816132fe565b9050919050565b7f4552433737373a2073656e642066726f6d20746865207a65726f20616464726560008201527f7373000000000000000000000000000000000000000000000000000000000000602082015250565b600061339d60228361210e565b91506133a882613341565b604082019050919050565b600060208201905081810360008301526133cc81613390565b9050919050565b7f4552433737373a2073656e6420746f20746865207a65726f2061646472657373600082015250565b600061340960208361210e565b9150613414826133d3565b602082019050919050565b60006020820190508181036000830152613438816133fc565b9050919050565b7f4552433737373a206275726e2066726f6d20746865207a65726f20616464726560008201527f7373000000000000000000000000000000000000000000000000000000000000602082015250565b600061349b60228361210e565b91506134a68261343f565b604082019050919050565b600060208201905081810360008301526134ca8161348e565b9050919050565b7f4552433737373a206275726e20616d6f756e7420657863656564732062616c6160008201527f6e63650000000000000000000000000000000000000000000000000000000000602082015250565b600061352d60238361210e565b9150613538826134d1565b604082019050919050565b6000602082019050818103600083015261355c81613520565b9050919050565b600061356e826121fe565b9150613579836121fe565b92508282101561358c5761358b612bfc565b5b82820390509291505056fea2646970667358221220baf9f741d67c3bb83d0d3b08c679381bbafb33cdf98af5b9008cd52fd51a86d964736f6c634300080b0033",
  "immutableReferences": {},
  "source": "pragma solidity ^0.8.11;\n\nimport \"@openzeppelin/contracts/token/ERC777/ERC777.sol\";\nimport \"@openzeppelin/contracts/access/Ownable.sol\";\n\n\ncontract CoveyToken is ERC777, Ownable {\n\n  constructor (uint initialSupply, address[] memory defaultOperators) ERC777(\"Covey\", \"CVY\", defaultOperators) {\n    _mint(msg.sender, initialSupply, \"\", \"\");\n  }\n\n  modifier _onlyOwnerOrOperators {\n    require(msg.sender == address(this) || msg.sender == owner() || isOperatorFor(msg.sender, address(this)), \"Only owner or operator can call this function\");\n    _;\n  }\n\n  modifier whenDropIsActive() {\n    assert(isActive());\n\n    _;\n  }\n\n  function isActive() view internal returns (bool) {\n    return (\n        balanceOf(owner()) > 0\n    );\n  }\n\n  function airdrop  (address[] memory recipients, uint256[] memory amounts) public onlyOwner {\n    for(uint i = 0; i < recipients.length; i++) {\n      uint256 toSend = amounts[i] * 10**18;\n      send(recipients[i], toSend, \"Covey Airdrop\");\n    }\n  }\n}",
  "sourcePath": "C:\\Users\\jcara\\Documents\\repos\\covey-token\\contracts\\CoveyToken.sol",
  "compiler": {
    "name": "solc",
    "version": "0.8.11+commit.d7f03943.Emscripten.clang"
  },
  "schemaVersion": "3.4.4",
  "updatedAt": "2022-04-21T18:51:14.752Z",
  "networkType": "ethereum",
  "devdoc": {
    "kind": "dev",
    "methods": {
      "allowance(address,address)": {
        "details": "See {IERC20-allowance}. Note that operator and allowance concepts are orthogonal: operators may not have allowance, and accounts with allowance may not be operators themselves."
      },
      "approve(address,uint256)": {
        "details": "See {IERC20-approve}. NOTE: If `value` is the maximum `uint256`, the allowance is not updated on `transferFrom`. This is semantically equivalent to an infinite approval. Note that accounts cannot have allowance issued by their operators."
      },
      "authorizeOperator(address)": {
        "details": "See {IERC777-authorizeOperator}."
      },
      "balanceOf(address)": {
        "details": "Returns the amount of tokens owned by an account (`tokenHolder`)."
      },
      "burn(uint256,bytes)": {
        "details": "See {IERC777-burn}. Also emits a {IERC20-Transfer} event for ERC20 compatibility."
      },
      "decimals()": {
        "details": "See {ERC20-decimals}. Always returns 18, as per the [ERC777 EIP](https://eips.ethereum.org/EIPS/eip-777#backward-compatibility)."
      },
      "defaultOperators()": {
        "details": "See {IERC777-defaultOperators}."
      },
      "granularity()": {
        "details": "See {IERC777-granularity}. This implementation always returns `1`."
      },
      "isOperatorFor(address,address)": {
        "details": "See {IERC777-isOperatorFor}."
      },
      "name()": {
        "details": "See {IERC777-name}."
      },
      "operatorBurn(address,uint256,bytes,bytes)": {
        "details": "See {IERC777-operatorBurn}. Emits {Burned} and {IERC20-Transfer} events."
      },
      "operatorSend(address,address,uint256,bytes,bytes)": {
        "details": "See {IERC777-operatorSend}. Emits {Sent} and {IERC20-Transfer} events."
      },
      "owner()": {
        "details": "Returns the address of the current owner."
      },
      "renounceOwnership()": {
        "details": "Leaves the contract without owner. It will not be possible to call `onlyOwner` functions anymore. Can only be called by the current owner. NOTE: Renouncing ownership will leave the contract without an owner, thereby removing any functionality that is only available to the owner."
      },
      "revokeOperator(address)": {
        "details": "See {IERC777-revokeOperator}."
      },
      "send(address,uint256,bytes)": {
        "details": "See {IERC777-send}. Also emits a {IERC20-Transfer} event for ERC20 compatibility."
      },
      "symbol()": {
        "details": "See {IERC777-symbol}."
      },
      "totalSupply()": {
        "details": "See {IERC777-totalSupply}."
      },
      "transfer(address,uint256)": {
        "details": "See {IERC20-transfer}. Unlike `send`, `recipient` is _not_ required to implement the {IERC777Recipient} interface if it is a contract. Also emits a {Sent} event."
      },
      "transferFrom(address,address,uint256)": {
        "details": "See {IERC20-transferFrom}. NOTE: Does not update the allowance if the current allowance is the maximum `uint256`. Note that operator and allowance concepts are orthogonal: operators cannot call `transferFrom` (unless they have allowance), and accounts with allowance cannot call `operatorSend` (unless they are operators). Emits {Sent}, {IERC20-Transfer} and {IERC20-Approval} events."
      },
      "transferOwnership(address)": {
        "details": "Transfers ownership of the contract to a new account (`newOwner`). Can only be called by the current owner."
      }
    },
    "version": 1
  },
  "userdoc": {
    "kind": "user",
    "methods": {},
    "version": 1
  }
}