{
  "contractName": "CoveyStaking",
  "abi": [
    {
      "anonymous": false,
      "inputs": [
        {
          "indexed": true,
          "internalType": "address",
          "name": "_adr",
          "type": "address"
        },
        {
          "indexed": false,
          "internalType": "uint256",
          "name": "amountLost",
          "type": "uint256"
        }
      ],
      "name": "Bankrupt",
      "type": "event"
    },
    {
      "anonymous": false,
      "inputs": [
        {
          "indexed": true,
          "internalType": "address",
          "name": "_adr",
          "type": "address"
        }
      ],
      "name": "CancelledUnstake",
      "type": "event"
    },
    {
      "anonymous": false,
      "inputs": [
        {
          "indexed": false,
          "internalType": "uint8",
          "name": "version",
          "type": "uint8"
        }
      ],
      "name": "Initialized",
      "type": "event"
    },
    {
      "anonymous": false,
      "inputs": [
        {
          "indexed": true,
          "internalType": "bytes32",
          "name": "role",
          "type": "bytes32"
        },
        {
          "indexed": true,
          "internalType": "bytes32",
          "name": "previousAdminRole",
          "type": "bytes32"
        },
        {
          "indexed": true,
          "internalType": "bytes32",
          "name": "newAdminRole",
          "type": "bytes32"
        }
      ],
      "name": "RoleAdminChanged",
      "type": "event"
    },
    {
      "anonymous": false,
      "inputs": [
        {
          "indexed": true,
          "internalType": "bytes32",
          "name": "role",
          "type": "bytes32"
        },
        {
          "indexed": true,
          "internalType": "address",
          "name": "account",
          "type": "address"
        },
        {
          "indexed": true,
          "internalType": "address",
          "name": "sender",
          "type": "address"
        }
      ],
      "name": "RoleGranted",
      "type": "event"
    },
    {
      "anonymous": false,
      "inputs": [
        {
          "indexed": true,
          "internalType": "bytes32",
          "name": "role",
          "type": "bytes32"
        },
        {
          "indexed": true,
          "internalType": "address",
          "name": "account",
          "type": "address"
        },
        {
          "indexed": true,
          "internalType": "address",
          "name": "sender",
          "type": "address"
        }
      ],
      "name": "RoleRevoked",
      "type": "event"
    },
    {
      "anonymous": false,
      "inputs": [
        {
          "indexed": true,
          "internalType": "address",
          "name": "_adr",
          "type": "address"
        },
        {
          "indexed": false,
          "internalType": "uint256",
          "name": "amountDispensed",
          "type": "uint256"
        }
      ],
      "name": "StakeDispensed",
      "type": "event"
    },
    {
      "anonymous": false,
      "inputs": [
        {
          "indexed": true,
          "internalType": "address",
          "name": "_adr",
          "type": "address"
        },
        {
          "indexed": false,
          "internalType": "uint256",
          "name": "amount",
          "type": "uint256"
        }
      ],
      "name": "Staked",
      "type": "event"
    },
    {
      "anonymous": false,
      "inputs": [
        {
          "indexed": true,
          "internalType": "address",
          "name": "_adr",
          "type": "address"
        },
        {
          "indexed": false,
          "internalType": "uint256",
          "name": "amount",
          "type": "uint256"
        }
      ],
      "name": "TotalStaked",
      "type": "event"
    },
    {
      "anonymous": false,
      "inputs": [
        {
          "indexed": true,
          "internalType": "address",
          "name": "_adr",
          "type": "address"
        },
        {
          "indexed": false,
          "internalType": "uint256",
          "name": "amount",
          "type": "uint256"
        }
      ],
      "name": "TotalUnstaked",
      "type": "event"
    },
    {
      "anonymous": false,
      "inputs": [
        {
          "indexed": true,
          "internalType": "address",
          "name": "_adr",
          "type": "address"
        },
        {
          "indexed": false,
          "internalType": "uint256",
          "name": "amount",
          "type": "uint256"
        }
      ],
      "name": "Unstaked",
      "type": "event"
    },
    {
      "inputs": [],
      "name": "DEFAULT_ADMIN_ROLE",
      "outputs": [
        {
          "internalType": "bytes32",
          "name": "",
          "type": "bytes32"
        }
      ],
      "stateMutability": "view",
      "type": "function",
      "constant": true
    },
    {
      "inputs": [],
      "name": "DISPENSER",
      "outputs": [
        {
          "internalType": "bytes32",
          "name": "",
          "type": "bytes32"
        }
      ],
      "stateMutability": "view",
      "type": "function",
      "constant": true
    },
    {
      "inputs": [
        {
          "internalType": "bytes32",
          "name": "role",
          "type": "bytes32"
        }
      ],
      "name": "getRoleAdmin",
      "outputs": [
        {
          "internalType": "bytes32",
          "name": "",
          "type": "bytes32"
        }
      ],
      "stateMutability": "view",
      "type": "function",
      "constant": true
    },
    {
      "inputs": [
        {
          "internalType": "bytes32",
          "name": "role",
          "type": "bytes32"
        },
        {
          "internalType": "address",
          "name": "account",
          "type": "address"
        }
      ],
      "name": "grantRole",
      "outputs": [],
      "stateMutability": "nonpayable",
      "type": "function"
    },
    {
      "inputs": [
        {
          "internalType": "bytes32",
          "name": "role",
          "type": "bytes32"
        },
        {
          "internalType": "address",
          "name": "account",
          "type": "address"
        }
      ],
      "name": "hasRole",
      "outputs": [
        {
          "internalType": "bool",
          "name": "",
          "type": "bool"
        }
      ],
      "stateMutability": "view",
      "type": "function",
      "constant": true
    },
    {
      "inputs": [
        {
          "internalType": "bytes32",
          "name": "role",
          "type": "bytes32"
        },
        {
          "internalType": "address",
          "name": "account",
          "type": "address"
        }
      ],
      "name": "renounceRole",
      "outputs": [],
      "stateMutability": "nonpayable",
      "type": "function"
    },
    {
      "inputs": [
        {
          "internalType": "bytes32",
          "name": "role",
          "type": "bytes32"
        },
        {
          "internalType": "address",
          "name": "account",
          "type": "address"
        }
      ],
      "name": "revokeRole",
      "outputs": [],
      "stateMutability": "nonpayable",
      "type": "function"
    },
    {
      "inputs": [
        {
          "internalType": "uint256",
          "name": "",
          "type": "uint256"
        }
      ],
      "name": "stakers",
      "outputs": [
        {
          "internalType": "address",
          "name": "",
          "type": "address"
        }
      ],
      "stateMutability": "view",
      "type": "function",
      "constant": true
    },
    {
      "inputs": [],
      "name": "stakingToken",
      "outputs": [
        {
          "internalType": "contract IERC20",
          "name": "",
          "type": "address"
        }
      ],
      "stateMutability": "view",
      "type": "function",
      "constant": true
    },
    {
      "inputs": [
        {
          "internalType": "bytes4",
          "name": "interfaceId",
          "type": "bytes4"
        }
      ],
      "name": "supportsInterface",
      "outputs": [
        {
          "internalType": "bool",
          "name": "",
          "type": "bool"
        }
      ],
      "stateMutability": "view",
      "type": "function",
      "constant": true
    },
    {
      "inputs": [
        {
          "internalType": "contract IERC20",
          "name": "_stakingToken",
          "type": "address"
        }
      ],
      "name": "initialize",
      "outputs": [],
      "stateMutability": "nonpayable",
      "type": "function"
    },
    {
      "inputs": [
        {
          "internalType": "uint256",
          "name": "amount",
          "type": "uint256"
        }
      ],
      "name": "stake",
      "outputs": [],
      "stateMutability": "nonpayable",
      "type": "function"
    },
    {
      "inputs": [
        {
          "internalType": "uint256",
          "name": "amount",
          "type": "uint256"
        }
      ],
      "name": "unstake",
      "outputs": [],
      "stateMutability": "nonpayable",
      "type": "function"
    },
    {
      "inputs": [],
      "name": "cancelUnstake",
      "outputs": [],
      "stateMutability": "nonpayable",
      "type": "function"
    },
    {
      "inputs": [
        {
          "internalType": "address",
          "name": "_adr",
          "type": "address"
        }
      ],
      "name": "getTotalStaked",
      "outputs": [
        {
          "internalType": "uint256",
          "name": "",
          "type": "uint256"
        }
      ],
      "stateMutability": "view",
      "type": "function",
      "constant": true
    },
    {
      "inputs": [
        {
          "internalType": "address",
          "name": "_adr",
          "type": "address"
        }
      ],
      "name": "getTotalUnstaked",
      "outputs": [
        {
          "internalType": "uint256",
          "name": "",
          "type": "uint256"
        }
      ],
      "stateMutability": "view",
      "type": "function",
      "constant": true
    },
    {
      "inputs": [
        {
          "internalType": "address",
          "name": "bankruptciesReceiver",
          "type": "address"
        },
        {
          "internalType": "address[]",
          "name": "bankruptAddresses",
          "type": "address[]"
        }
      ],
      "name": "dispenseStakes",
      "outputs": [],
      "stateMutability": "nonpayable",
      "type": "function"
    },
    {
      "inputs": [
        {
          "internalType": "address",
          "name": "staker",
          "type": "address"
        }
      ],
      "name": "getNetStaked",
      "outputs": [
        {
          "internalType": "uint256",
          "name": "",
          "type": "uint256"
        }
      ],
      "stateMutability": "view",
      "type": "function",
      "constant": true
    },
    {
      "inputs": [],
      "name": "getAllNetStaked",
      "outputs": [
        {
          "components": [
            {
              "internalType": "address",
              "name": "staker",
              "type": "address"
            },
            {
              "internalType": "uint256",
              "name": "stakedAmount",
              "type": "uint256"
            }
          ],
          "internalType": "struct CoveyStaking.StakeInfo[]",
          "name": "",
          "type": "tuple[]"
        }
      ],
      "stateMutability": "view",
      "type": "function",
      "constant": true
    },
    {
      "inputs": [
        {
          "internalType": "address",
          "name": "_addr",
          "type": "address"
        }
      ],
      "name": "delegateDispenser",
      "outputs": [],
      "stateMutability": "nonpayable",
      "type": "function"
    },
    {
      "inputs": [
        {
          "internalType": "address",
          "name": "_addr",
          "type": "address"
        }
      ],
      "name": "revokeDispenser",
      "outputs": [],
      "stateMutability": "nonpayable",
      "type": "function"
    }
  ],
  "bytecode": "0x608060405234801561001057600080fd5b50613315806100206000396000f3fe608060405234801561001057600080fd5b50600436106101375760003560e01c8063a217fddf116100b8578063d547741f1161007c578063d547741f14610310578063dd2a8b111461032c578063ded2e7da1461035c578063e14cf1e41461038c578063ea6451e7146103aa578063fd5e6dd1146103da57610137565b8063a217fddf14610280578063a694fc3a1461029e578063b2d1e58c146102ba578063bee193be146102d8578063c4d66de8146102f457610137565b80634ab17969116100ff5780634ab17969146101f05780636620f595146101fa57806372f702f314610216578063866c1f5f1461023457806391d148541461025057610137565b806301ffc9a71461013c578063248a9ca31461016c5780632e17de781461019c5780632f2ff15d146101b857806336568abe146101d4575b600080fd5b61015660048036038101906101519190612410565b61040a565b6040516101639190612458565b60405180910390f35b610186600480360381019061018191906124a9565b610484565b60405161019391906124e5565b60405180910390f35b6101b660048036038101906101b19190612536565b6104a4565b005b6101d260048036038101906101cd91906125c1565b610733565b005b6101ee60048036038101906101e991906125c1565b61075c565b005b6101f86107df565b005b610214600480360381019061020f9190612601565b6108e9565b005b61021e610970565b60405161022b919061268d565b60405180910390f35b61024e60048036038101906102499190612601565b610996565b005b61026a600480360381019061026591906125c1565b610a1d565b6040516102779190612458565b60405180910390f35b610288610a88565b60405161029591906124e5565b60405180910390f35b6102b860048036038101906102b39190612536565b610a8f565b005b6102c2610e35565b6040516102cf91906124e5565b60405180910390f35b6102f260048036038101906102ed919061270d565b610e59565b005b61030e600480360381019061030991906127ab565b61196d565b005b61032a600480360381019061032591906125c1565b611a89565b005b61034660048036038101906103419190612601565b611ab2565b60405161035391906127e7565b60405180910390f35b61037660048036038101906103719190612601565b611afb565b60405161038391906127e7565b60405180910390f35b610394611bfd565b6040516103a191906128fe565b60405180910390f35b6103c460048036038101906103bf9190612601565b611cf8565b6040516103d191906127e7565b60405180910390f35b6103f460048036038101906103ef9190612536565b611d41565b604051610401919061292f565b60405180910390f35b60007f7965db0b000000000000000000000000000000000000000000000000000000007bffffffffffffffffffffffffffffffffffffffffffffffffffffffff1916827bffffffffffffffffffffffffffffffffffffffffffffffffffffffff1916148061047d575061047c82611d80565b5b9050919050565b600060016000838152602001908152602001600020600101549050919050565b6000600460003373ffffffffffffffffffffffffffffffffffffffff1673ffffffffffffffffffffffffffffffffffffffff168152602001908152602001600020541415610527576040517f08c379a000000000000000000000000000000000000000000000000000000000815260040161051e906129a7565b60405180910390fd5b600081600560003373ffffffffffffffffffffffffffffffffffffffff1673ffffffffffffffffffffffffffffffffffffffff1681526020019081526020016000205461057491906129f6565b600460003373ffffffffffffffffffffffffffffffffffffffff1673ffffffffffffffffffffffffffffffffffffffff168152602001908152602001600020546105be9190612a4c565b10156105ff576040517f08c379a00000000000000000000000000000000000000000000000000000000081526004016105f690612af2565b60405180910390fd5b80600560003373ffffffffffffffffffffffffffffffffffffffff1673ffffffffffffffffffffffffffffffffffffffff168152602001908152602001600020600082825461064e91906129f6565b925050819055503373ffffffffffffffffffffffffffffffffffffffff167f0f5bb82176feb1b5e747e28471aa92156a04d9f3ab9f45f28e2d704232b93f758260405161069b91906127e7565b60405180910390a23373ffffffffffffffffffffffffffffffffffffffff167f45a61950ae80a9a1d9a6c03683ce65096a7db8ca520632bed3072f40963c8804600560003373ffffffffffffffffffffffffffffffffffffffff1673ffffffffffffffffffffffffffffffffffffffff1681526020019081526020016000205460405161072891906127e7565b60405180910390a250565b61073c82610484565b61074d81610748611dea565b611df2565b6107578383611e8f565b505050565b610764611dea565b73ffffffffffffffffffffffffffffffffffffffff168173ffffffffffffffffffffffffffffffffffffffff16146107d1576040517f08c379a00000000000000000000000000000000000000000000000000000000081526004016107c890612b84565b60405180910390fd5b6107db8282611f6f565b5050565b6000600560003373ffffffffffffffffffffffffffffffffffffffff1673ffffffffffffffffffffffffffffffffffffffff1681526020019081526020016000205411610861576040517f08c379a000000000000000000000000000000000000000000000000000000000815260040161085890612bf0565b60405180910390fd5b600560003373ffffffffffffffffffffffffffffffffffffffff1673ffffffffffffffffffffffffffffffffffffffff168152602001908152602001600020600090553373ffffffffffffffffffffffffffffffffffffffff167f450cc0f663f8ded0053aeca240ef53a2f4b93c5c3aa067e8e45155e823ceaa7a60405160405180910390a2565b600360009054906101000a900473ffffffffffffffffffffffffffffffffffffffff1673ffffffffffffffffffffffffffffffffffffffff163373ffffffffffffffffffffffffffffffffffffffff161461094357600080fd5b61096d7f6819d2896fa4833eb5158abc566f5567fa977a468f59c2b18ae25bfe434af5c382610733565b50565b600260009054906101000a900473ffffffffffffffffffffffffffffffffffffffff1681565b600360009054906101000a900473ffffffffffffffffffffffffffffffffffffffff1673ffffffffffffffffffffffffffffffffffffffff163373ffffffffffffffffffffffffffffffffffffffff16146109f057600080fd5b610a1a7f6819d2896fa4833eb5158abc566f5567fa977a468f59c2b18ae25bfe434af5c382611a89565b50565b60006001600084815260200190815260200160002060000160008373ffffffffffffffffffffffffffffffffffffffff1673ffffffffffffffffffffffffffffffffffffffff16815260200190815260200160002060009054906101000a900460ff16905092915050565b6000801b81565b600073ffffffffffffffffffffffffffffffffffffffff163373ffffffffffffffffffffffffffffffffffffffff161415610aff576040517f08c379a0000000000000000000000000000000000000000000000000000000008152600401610af690612c5c565b60405180910390fd5b600260009054906101000a900473ffffffffffffffffffffffffffffffffffffffff1673ffffffffffffffffffffffffffffffffffffffff166370a08231336040518263ffffffff1660e01b8152600401610b5a919061292f565b60206040518083038186803b158015610b7257600080fd5b505afa158015610b86573d6000803e3d6000fd5b505050506040513d601f19601f82011682018060405250810190610baa9190612c91565b811115610bec576040517f08c379a0000000000000000000000000000000000000000000000000000000008152600401610be390612d30565b60405180910390fd5b600260009054906101000a900473ffffffffffffffffffffffffffffffffffffffff1673ffffffffffffffffffffffffffffffffffffffff166323b872dd3330846040518463ffffffff1660e01b8152600401610c4b93929190612d50565b602060405180830381600087803b158015610c6557600080fd5b505af1158015610c79573d6000803e3d6000fd5b505050506040513d601f19601f82011682018060405250810190610c9d9190612db3565b5080600460003373ffffffffffffffffffffffffffffffffffffffff1673ffffffffffffffffffffffffffffffffffffffff1681526020019081526020016000206000828254610ced91906129f6565b925050819055506006339080600181540180825580915050600190039060005260206000200160009091909190916101000a81548173ffffffffffffffffffffffffffffffffffffffff021916908373ffffffffffffffffffffffffffffffffffffffff1602179055503373ffffffffffffffffffffffffffffffffffffffff167f9e71bc8eea02a63969f509818f2dafb9254532904319f9dbda79b67bd34a5f3d82604051610d9d91906127e7565b60405180910390a23373ffffffffffffffffffffffffffffffffffffffff167f62be4aaebfea1375247e22afe02276e2d8d1b765bff167beda8066a0012c7b5f600460003373ffffffffffffffffffffffffffffffffffffffff1673ffffffffffffffffffffffffffffffffffffffff16815260200190815260200160002054604051610e2a91906127e7565b60405180910390a250565b7f6819d2896fa4833eb5158abc566f5567fa977a468f59c2b18ae25bfe434af5c381565b600360009054906101000a900473ffffffffffffffffffffffffffffffffffffffff1673ffffffffffffffffffffffffffffffffffffffff163373ffffffffffffffffffffffffffffffffffffffff161480610edb5750610eda7f6819d2896fa4833eb5158abc566f5567fa977a468f59c2b18ae25bfe434af5c333610a1d565b5b610f1a576040517f08c379a0000000000000000000000000000000000000000000000000000000008152600401610f1190612e52565b60405180910390fd5b60005b600680549050811015611967576000805b84849050811015610fea5760068381548110610f4d57610f4c612e72565b5b9060005260206000200160009054906101000a900473ffffffffffffffffffffffffffffffffffffffff1673ffffffffffffffffffffffffffffffffffffffff16858583818110610fa157610fa0612e72565b5b9050602002016020810190610fb69190612601565b73ffffffffffffffffffffffffffffffffffffffff161415610fd757600191505b8080610fe290612ea1565b915050610f2e565b5060011515811515141561137657600260009054906101000a900473ffffffffffffffffffffffffffffffffffffffff1673ffffffffffffffffffffffffffffffffffffffff1663a9059cbb86600460006006878154811061104f5761104e612e72565b5b9060005260206000200160009054906101000a900473ffffffffffffffffffffffffffffffffffffffff1673ffffffffffffffffffffffffffffffffffffffff1673ffffffffffffffffffffffffffffffffffffffff168152602001908152602001600020546040518363ffffffff1660e01b81526004016110d2929190612eea565b602060405180830381600087803b1580156110ec57600080fd5b505af1158015611100573d6000803e3d6000fd5b505050506040513d601f19601f820116820180604052508101906111249190612db3565b506006828154811061113957611138612e72565b5b9060005260206000200160009054906101000a900473ffffffffffffffffffffffffffffffffffffffff1673ffffffffffffffffffffffffffffffffffffffff167f7fe451685bab7a17da665cc038b4635412b8d788bb692963f88e35eba15ae17560046000600686815481106111b3576111b2612e72565b5b9060005260206000200160009054906101000a900473ffffffffffffffffffffffffffffffffffffffff1673ffffffffffffffffffffffffffffffffffffffff1673ffffffffffffffffffffffffffffffffffffffff1681526020019081526020016000205460405161122691906127e7565b60405180910390a2600560006006848154811061124657611245612e72565b5b9060005260206000200160009054906101000a900473ffffffffffffffffffffffffffffffffffffffff1673ffffffffffffffffffffffffffffffffffffffff1673ffffffffffffffffffffffffffffffffffffffff1681526020019081526020016000206000905560046000600684815481106112c7576112c6612e72565b5b9060005260206000200160009054906101000a900473ffffffffffffffffffffffffffffffffffffffff1673ffffffffffffffffffffffffffffffffffffffff1673ffffffffffffffffffffffffffffffffffffffff168152602001908152602001600020600090556006828154811061134457611343612e72565b5b9060005260206000200160006101000a81549073ffffffffffffffffffffffffffffffffffffffff0219169055611953565b600060056000600685815481106113905761138f612e72565b5b9060005260206000200160009054906101000a900473ffffffffffffffffffffffffffffffffffffffff1673ffffffffffffffffffffffffffffffffffffffff1673ffffffffffffffffffffffffffffffffffffffff16815260200190815260200160002054118015611407575060001515811515145b1561195257600260009054906101000a900473ffffffffffffffffffffffffffffffffffffffff1673ffffffffffffffffffffffffffffffffffffffff1663a9059cbb6006848154811061145e5761145d612e72565b5b9060005260206000200160009054906101000a900473ffffffffffffffffffffffffffffffffffffffff1660056000600687815481106114a1576114a0612e72565b5b9060005260206000200160009054906101000a900473ffffffffffffffffffffffffffffffffffffffff1673ffffffffffffffffffffffffffffffffffffffff1673ffffffffffffffffffffffffffffffffffffffff168152602001908152602001600020546040518363ffffffff1660e01b8152600401611524929190612eea565b602060405180830381600087803b15801561153e57600080fd5b505af1158015611552573d6000803e3d6000fd5b505050506040513d601f19601f820116820180604052508101906115769190612db3565b506006828154811061158b5761158a612e72565b5b9060005260206000200160009054906101000a900473ffffffffffffffffffffffffffffffffffffffff1673ffffffffffffffffffffffffffffffffffffffff167f9b4c90d41aa819dadecbb2e126e6dc2e01be4402acc99ec60248131a3f59576c600560006006868154811061160557611604612e72565b5b9060005260206000200160009054906101000a900473ffffffffffffffffffffffffffffffffffffffff1673ffffffffffffffffffffffffffffffffffffffff1673ffffffffffffffffffffffffffffffffffffffff1681526020019081526020016000205460405161167891906127e7565b60405180910390a2600560006006848154811061169857611697612e72565b5b9060005260206000200160009054906101000a900473ffffffffffffffffffffffffffffffffffffffff1673ffffffffffffffffffffffffffffffffffffffff1673ffffffffffffffffffffffffffffffffffffffff16815260200190815260200160002054600460006006858154811061171657611715612e72565b5b9060005260206000200160009054906101000a900473ffffffffffffffffffffffffffffffffffffffff1673ffffffffffffffffffffffffffffffffffffffff1673ffffffffffffffffffffffffffffffffffffffff168152602001908152602001600020546117869190612a4c565b600460006006858154811061179e5761179d612e72565b5b9060005260206000200160009054906101000a900473ffffffffffffffffffffffffffffffffffffffff1673ffffffffffffffffffffffffffffffffffffffff1673ffffffffffffffffffffffffffffffffffffffff168152602001908152602001600020819055506000600560006006858154811061182157611820612e72565b5b9060005260206000200160009054906101000a900473ffffffffffffffffffffffffffffffffffffffff1673ffffffffffffffffffffffffffffffffffffffff1673ffffffffffffffffffffffffffffffffffffffff16815260200190815260200160002081905550600060046000600685815481106118a4576118a3612e72565b5b9060005260206000200160009054906101000a900473ffffffffffffffffffffffffffffffffffffffff1673ffffffffffffffffffffffffffffffffffffffff1673ffffffffffffffffffffffffffffffffffffffff1681526020019081526020016000205411611951576006828154811061192357611922612e72565b5b9060005260206000200160006101000a81549073ffffffffffffffffffffffffffffffffffffffff02191690555b5b5b50808061195f90612ea1565b915050610f1d565b50505050565b60006119796001612051565b9050801561199d576001600060016101000a81548160ff0219169083151502179055505b33600360006101000a81548173ffffffffffffffffffffffffffffffffffffffff021916908373ffffffffffffffffffffffffffffffffffffffff16021790555081600260006101000a81548173ffffffffffffffffffffffffffffffffffffffff021916908373ffffffffffffffffffffffffffffffffffffffff160217905550611a2c6000801b33612141565b8015611a855760008060016101000a81548160ff0219169083151502179055507f7f26b83ff96e1f2b6a682f133852f6798a09c465da95921460cefb38474024986001604051611a7c9190612f5b565b60405180910390a15b5050565b611a9282610484565b611aa381611a9e611dea565b611df2565b611aad8383611f6f565b505050565b6000600460008373ffffffffffffffffffffffffffffffffffffffff1673ffffffffffffffffffffffffffffffffffffffff168152602001908152602001600020549050919050565b60008073ffffffffffffffffffffffffffffffffffffffff168273ffffffffffffffffffffffffffffffffffffffff161415611b6c576040517f08c379a0000000000000000000000000000000000000000000000000000000008152600401611b6390612c5c565b60405180910390fd5b600560008373ffffffffffffffffffffffffffffffffffffffff1673ffffffffffffffffffffffffffffffffffffffff16815260200190815260200160002054600460008473ffffffffffffffffffffffffffffffffffffffff1673ffffffffffffffffffffffffffffffffffffffff16815260200190815260200160002054611bf69190612a4c565b9050919050565b60608060005b600680549050811015611cf057604051806040016040528060068381548110611c2f57611c2e612e72565b5b9060005260206000200160009054906101000a900473ffffffffffffffffffffffffffffffffffffffff1673ffffffffffffffffffffffffffffffffffffffff168152602001611cbc60068481548110611c8c57611c8b612e72565b5b9060005260206000200160009054906101000a900473ffffffffffffffffffffffffffffffffffffffff16611afb565b815250828281518110611cd257611cd1612e72565b5b60200260200101819052508080611ce890612ea1565b915050611c03565b508091505090565b6000600560008373ffffffffffffffffffffffffffffffffffffffff1673ffffffffffffffffffffffffffffffffffffffff168152602001908152602001600020549050919050565b60068181548110611d5157600080fd5b906000526020600020016000915054906101000a900473ffffffffffffffffffffffffffffffffffffffff1681565b60007f01ffc9a7000000000000000000000000000000000000000000000000000000007bffffffffffffffffffffffffffffffffffffffffffffffffffffffff1916827bffffffffffffffffffffffffffffffffffffffffffffffffffffffff1916149050919050565b600033905090565b611dfc8282610a1d565b611e8b57611e218173ffffffffffffffffffffffffffffffffffffffff16601461214f565b611e2f8360001c602061214f565b604051602001611e40929190613088565b6040516020818303038152906040526040517f08c379a0000000000000000000000000000000000000000000000000000000008152600401611e82919061310c565b60405180910390fd5b5050565b611e998282610a1d565b611f6b57600180600084815260200190815260200160002060000160008373ffffffffffffffffffffffffffffffffffffffff1673ffffffffffffffffffffffffffffffffffffffff16815260200190815260200160002060006101000a81548160ff021916908315150217905550611f10611dea565b73ffffffffffffffffffffffffffffffffffffffff168173ffffffffffffffffffffffffffffffffffffffff16837f2f8788117e7eff1d82e926ec794901d17c78024a50270940304540a733656f0d60405160405180910390a45b5050565b611f798282610a1d565b1561204d5760006001600084815260200190815260200160002060000160008373ffffffffffffffffffffffffffffffffffffffff1673ffffffffffffffffffffffffffffffffffffffff16815260200190815260200160002060006101000a81548160ff021916908315150217905550611ff2611dea565b73ffffffffffffffffffffffffffffffffffffffff168173ffffffffffffffffffffffffffffffffffffffff16837ff6391f5c32d9c69d2a47ea670b442974b53935d1edc7fd64eb21e047a839171b60405160405180910390a45b5050565b60008060019054906101000a900460ff16156120c85760018260ff16148015612080575061207e3061238b565b155b6120bf576040517f08c379a00000000000000000000000000000000000000000000000000000000081526004016120b6906131a0565b60405180910390fd5b6000905061213c565b8160ff1660008054906101000a900460ff1660ff161061211d576040517f08c379a0000000000000000000000000000000000000000000000000000000008152600401612114906131a0565b60405180910390fd5b816000806101000a81548160ff021916908360ff160217905550600190505b919050565b61214b8282611e8f565b5050565b60606000600283600261216291906131c0565b61216c91906129f6565b67ffffffffffffffff8111156121855761218461321a565b5b6040519080825280601f01601f1916602001820160405280156121b75781602001600182028036833780820191505090505b5090507f3000000000000000000000000000000000000000000000000000000000000000816000815181106121ef576121ee612e72565b5b60200101907effffffffffffffffffffffffffffffffffffffffffffffffffffffffffffff1916908160001a9053507f78000000000000000000000000000000000000000000000000000000000000008160018151811061225357612252612e72565b5b60200101907effffffffffffffffffffffffffffffffffffffffffffffffffffffffffffff1916908160001a9053506000600184600261229391906131c0565b61229d91906129f6565b90505b600181111561233d577f3031323334353637383961626364656600000000000000000000000000000000600f8616601081106122df576122de612e72565b5b1a60f81b8282815181106122f6576122f5612e72565b5b60200101907effffffffffffffffffffffffffffffffffffffffffffffffffffffffffffff1916908160001a905350600485901c94508061233690613249565b90506122a0565b5060008414612381576040517f08c379a0000000000000000000000000000000000000000000000000000000008152600401612378906132bf565b60405180910390fd5b8091505092915050565b6000808273ffffffffffffffffffffffffffffffffffffffff163b119050919050565b600080fd5b600080fd5b60007fffffffff0000000000000000000000000000000000000000000000000000000082169050919050565b6123ed816123b8565b81146123f857600080fd5b50565b60008135905061240a816123e4565b92915050565b600060208284031215612426576124256123ae565b5b6000612434848285016123fb565b91505092915050565b60008115159050919050565b6124528161243d565b82525050565b600060208201905061246d6000830184612449565b92915050565b6000819050919050565b61248681612473565b811461249157600080fd5b50565b6000813590506124a38161247d565b92915050565b6000602082840312156124bf576124be6123ae565b5b60006124cd84828501612494565b91505092915050565b6124df81612473565b82525050565b60006020820190506124fa60008301846124d6565b92915050565b6000819050919050565b61251381612500565b811461251e57600080fd5b50565b6000813590506125308161250a565b92915050565b60006020828403121561254c5761254b6123ae565b5b600061255a84828501612521565b91505092915050565b600073ffffffffffffffffffffffffffffffffffffffff82169050919050565b600061258e82612563565b9050919050565b61259e81612583565b81146125a957600080fd5b50565b6000813590506125bb81612595565b92915050565b600080604083850312156125d8576125d76123ae565b5b60006125e685828601612494565b92505060206125f7858286016125ac565b9150509250929050565b600060208284031215612617576126166123ae565b5b6000612625848285016125ac565b91505092915050565b6000819050919050565b600061265361264e61264984612563565b61262e565b612563565b9050919050565b600061266582612638565b9050919050565b60006126778261265a565b9050919050565b6126878161266c565b82525050565b60006020820190506126a2600083018461267e565b92915050565b600080fd5b600080fd5b600080fd5b60008083601f8401126126cd576126cc6126a8565b5b8235905067ffffffffffffffff8111156126ea576126e96126ad565b5b602083019150836020820283011115612706576127056126b2565b5b9250929050565b600080600060408486031215612726576127256123ae565b5b6000612734868287016125ac565b935050602084013567ffffffffffffffff811115612755576127546123b3565b5b612761868287016126b7565b92509250509250925092565b600061277882612583565b9050919050565b6127888161276d565b811461279357600080fd5b50565b6000813590506127a58161277f565b92915050565b6000602082840312156127c1576127c06123ae565b5b60006127cf84828501612796565b91505092915050565b6127e181612500565b82525050565b60006020820190506127fc60008301846127d8565b92915050565b600081519050919050565b600082825260208201905092915050565b6000819050602082019050919050565b61283781612583565b82525050565b61284681612500565b82525050565b604082016000820151612862600085018261282e565b506020820151612875602085018261283d565b50505050565b6000612887838361284c565b60408301905092915050565b6000602082019050919050565b60006128ab82612802565b6128b5818561280d565b93506128c08361281e565b8060005b838110156128f15781516128d8888261287b565b97506128e383612893565b9250506001810190506128c4565b5085935050505092915050565b6000602082019050818103600083015261291881846128a0565b905092915050565b61292981612583565b82525050565b60006020820190506129446000830184612920565b92915050565b600082825260208201905092915050565b7f486173206e6f74207374616b6564000000000000000000000000000000000000600082015250565b6000612991600e8361294a565b915061299c8261295b565b602082019050919050565b600060208201905081810360008301526129c081612984565b9050919050565b7f4e487b7100000000000000000000000000000000000000000000000000000000600052601160045260246000fd5b6000612a0182612500565b9150612a0c83612500565b9250827fffffffffffffffffffffffffffffffffffffffffffffffffffffffffffffffff03821115612a4157612a406129c7565b5b828201905092915050565b6000612a5782612500565b9150612a6283612500565b925082821015612a7557612a746129c7565b5b828203905092915050565b7f43616e6e6f7420756e7374616b65206d6f7265207468616e20746f74616c207360008201527f74616b656420616d6f756e740000000000000000000000000000000000000000602082015250565b6000612adc602c8361294a565b9150612ae782612a80565b604082019050919050565b60006020820190508181036000830152612b0b81612acf565b9050919050565b7f416363657373436f6e74726f6c3a2063616e206f6e6c792072656e6f756e636560008201527f20726f6c657320666f722073656c660000000000000000000000000000000000602082015250565b6000612b6e602f8361294a565b9150612b7982612b12565b604082019050919050565b60006020820190508181036000830152612b9d81612b61565b9050919050565b7f4e6f20756e7374616b6520746f2063616e63656c000000000000000000000000600082015250565b6000612bda60148361294a565b9150612be582612ba4565b602082019050919050565b60006020820190508181036000830152612c0981612bcd565b9050919050565b7f53656e6465722069732030206164647265737300000000000000000000000000600082015250565b6000612c4660138361294a565b9150612c5182612c10565b602082019050919050565b60006020820190508181036000830152612c7581612c39565b9050919050565b600081519050612c8b8161250a565b92915050565b600060208284031215612ca757612ca66123ae565b5b6000612cb584828501612c7c565b91505092915050565b7f416d6f756e74206578636565647320617661696c61626c65204356592062616c60008201527f616e636500000000000000000000000000000000000000000000000000000000602082015250565b6000612d1a60248361294a565b9150612d2582612cbe565b604082019050919050565b60006020820190508181036000830152612d4981612d0d565b9050919050565b6000606082019050612d656000830186612920565b612d726020830185612920565b612d7f60408301846127d8565b949350505050565b612d908161243d565b8114612d9b57600080fd5b50565b600081519050612dad81612d87565b92915050565b600060208284031215612dc957612dc86123ae565b5b6000612dd784828501612d9e565b91505092915050565b7f5265717569726573206f776e6572206f722064697370656e73657220746f206360008201527f616c6c0000000000000000000000000000000000000000000000000000000000602082015250565b6000612e3c60238361294a565b9150612e4782612de0565b604082019050919050565b60006020820190508181036000830152612e6b81612e2f565b9050919050565b7f4e487b7100000000000000000000000000000000000000000000000000000000600052603260045260246000fd5b6000612eac82612500565b91507fffffffffffffffffffffffffffffffffffffffffffffffffffffffffffffffff821415612edf57612ede6129c7565b5b600182019050919050565b6000604082019050612eff6000830185612920565b612f0c60208301846127d8565b9392505050565b6000819050919050565b600060ff82169050919050565b6000612f45612f40612f3b84612f13565b61262e565b612f1d565b9050919050565b612f5581612f2a565b82525050565b6000602082019050612f706000830184612f4c565b92915050565b600081905092915050565b7f416363657373436f6e74726f6c3a206163636f756e7420000000000000000000600082015250565b6000612fb7601783612f76565b9150612fc282612f81565b601782019050919050565b600081519050919050565b60005b83811015612ff6578082015181840152602081019050612fdb565b83811115613005576000848401525b50505050565b600061301682612fcd565b6130208185612f76565b9350613030818560208601612fd8565b80840191505092915050565b7f206973206d697373696e6720726f6c6520000000000000000000000000000000600082015250565b6000613072601183612f76565b915061307d8261303c565b601182019050919050565b600061309382612faa565b915061309f828561300b565b91506130aa82613065565b91506130b6828461300b565b91508190509392505050565b6000601f19601f8301169050919050565b60006130de82612fcd565b6130e8818561294a565b93506130f8818560208601612fd8565b613101816130c2565b840191505092915050565b6000602082019050818103600083015261312681846130d3565b905092915050565b7f496e697469616c697a61626c653a20636f6e747261637420697320616c72656160008201527f647920696e697469616c697a6564000000000000000000000000000000000000602082015250565b600061318a602e8361294a565b91506131958261312e565b604082019050919050565b600060208201905081810360008301526131b98161317d565b9050919050565b60006131cb82612500565b91506131d683612500565b9250817fffffffffffffffffffffffffffffffffffffffffffffffffffffffffffffffff048311821515161561320f5761320e6129c7565b5b828202905092915050565b7f4e487b7100000000000000000000000000000000000000000000000000000000600052604160045260246000fd5b600061325482612500565b91506000821415613268576132676129c7565b5b600182039050919050565b7f537472696e67733a20686578206c656e67746820696e73756666696369656e74600082015250565b60006132a960208361294a565b91506132b482613273565b602082019050919050565b600060208201905081810360008301526132d88161329c565b905091905056fea26469706673582212206353cac47ef8ca560b254c01b16b66179a79d2f6856c01b9c001dd305990afd164736f6c63430008090033",
  "immutableReferences": {},
  "source": "// contracts/CoveyStaking.sol\n// SPDX-License-Identifier: MIT\npragma solidity ^0.8.9;\n\nimport \"@openzeppelin/contracts/access/Ownable.sol\";\nimport '@openzeppelin/contracts-upgradeable/proxy/utils/Initializable.sol';\nimport '@openzeppelin/contracts/token/ERC20/IERC20.sol';\nimport \"@openzeppelin/contracts/access/AccessControl.sol\";\n\n\ncontract CoveyStaking is Initializable, AccessControl {\n    bytes32 public constant DISPENSER = keccak256(\"DISPENSER\");\n    IERC20 public stakingToken;\n    struct StakeInfo {\n      address staker;\n      uint256 stakedAmount;\n    }\n    address owner;\n\n\n    mapping(address => uint256) private _stakedAmounts;\n\n    mapping(address => uint256) private _unstakedAmounts;\n\n    address[] public stakers;\n\n    \n\n    event Staked(address indexed _adr, uint256 amount);\n    \n    event Unstaked(address indexed _adr, uint256 amount);\n\n    event TotalStaked(address indexed _adr, uint256 amount);\n    \n    event TotalUnstaked(address indexed _adr, uint256 amount);\n\n    event CancelledUnstake(address indexed _adr);\n\n    event Bankrupt(address indexed _adr, uint256 amountLost);\n\n    event StakeDispensed(address indexed _adr, uint256 amountDispensed);\n\n    modifier onlyOwner {\n        require(msg.sender == owner);\n        _;\n    }\n\n    modifier onlyOwnerOrDispenser {\n        require(msg.sender == owner || hasRole(DISPENSER, msg.sender), \"Requires owner or dispenser to call\");\n        _;\n    }\n\n    function initialize(IERC20 _stakingToken) public initializer {\n            owner = msg.sender;\n            stakingToken = _stakingToken;\n            _setupRole(DEFAULT_ADMIN_ROLE, msg.sender);\n        }\n\n    \n\n    function stake(uint256 amount) public {\n        require(msg.sender != address(0), \"Sender is 0 address\");\n        require(amount <= stakingToken.balanceOf(msg.sender), \"Amount exceeds available CVY balance\");\n\n        stakingToken.transferFrom(msg.sender, address(this), amount);\n        _stakedAmounts[msg.sender] +=  amount;\n        stakers.push(msg.sender);\n        emit Staked(msg.sender, amount);\n        emit TotalStaked(msg.sender, _stakedAmounts[msg.sender]);\n    }\n\n    function unstake(uint256 amount) public {\n        require(_stakedAmounts[msg.sender] != 0, \"Has not staked\");\n        require(_stakedAmounts[msg.sender] - (_unstakedAmounts[msg.sender] + amount) >= 0, \"Cannot unstake more than total staked amount\");\n        _unstakedAmounts[msg.sender] += amount;\n        emit Unstaked(msg.sender, amount);\n        emit TotalUnstaked(msg.sender, _unstakedAmounts[msg.sender]);\n    }\n\n    function cancelUnstake() public {\n        require(_unstakedAmounts[msg.sender] > 0, \"No unstake to cancel\");\n        delete _unstakedAmounts[msg.sender];\n        emit CancelledUnstake(msg.sender);\n    }\n\n    function getTotalStaked(address _adr) public view returns(uint256) {\n        return _stakedAmounts[_adr];\n    }\n\n    function getTotalUnstaked(address _adr) public view returns(uint256) {\n        return _unstakedAmounts[_adr];\n    }\n\n    function dispenseStakes(address bankruptciesReceiver, address[] calldata bankruptAddresses) public onlyOwnerOrDispenser {\n        for(uint256 i = 0; i < stakers.length; i++) {\n            bool isBankrupt = false;\n            for(uint256 j = 0; j < bankruptAddresses.length; j++) {\n                    if(bankruptAddresses[j] == stakers[i]) {\n                        isBankrupt = true;\n                    }\n                }\n\n            if(isBankrupt == true) {\n                stakingToken.transfer(bankruptciesReceiver, _stakedAmounts[stakers[i]]);\n                emit Bankrupt(stakers[i], _stakedAmounts[stakers[i]]);\n                delete _unstakedAmounts[stakers[i]];\n                delete _stakedAmounts[stakers[i]];\n                delete stakers[i]; \n            } else if( _unstakedAmounts[stakers[i]] > 0 && isBankrupt == false) {\n                stakingToken.transfer(stakers[i], _unstakedAmounts[stakers[i]]);\n                emit StakeDispensed(stakers[i], _unstakedAmounts[stakers[i]]);\n                _stakedAmounts[stakers[i]] = _stakedAmounts[stakers[i]] - _unstakedAmounts[stakers[i]];\n                _unstakedAmounts[stakers[i]] = 0;\n\n                if(_stakedAmounts[stakers[i]] <= 0) {\n                    delete stakers[i];\n                }\n            }\n        }\n    }\n\n    function getNetStaked(address staker) public view returns (uint) {\n        require(staker != address(0), \"Sender is 0 address\");\n        \n        return _stakedAmounts[staker] - _unstakedAmounts[staker];\n    }\n\n    function getAllNetStaked() public view returns (StakeInfo[] memory) {\n        StakeInfo[] memory stakeInformation;\n\n        for(uint256 i = 0; i < stakers.length; i++) {\n            stakeInformation[i] = StakeInfo({\n                staker: stakers[i],\n                stakedAmount: getNetStaked(stakers[i])\n            });\n        }\n\n        return stakeInformation;\n    }\n\n    function delegateDispenser(address _addr) public onlyOwner {\n        grantRole(DISPENSER, _addr);\n    }\n\n    function revokeDispenser(address _addr) public onlyOwner {\n        revokeRole(DISPENSER, _addr);\n    }\n}",
  "sourcePath": "/Users/johncaraballo/Documents/repos/smart-contract-token/contracts/CoveyStaking.sol",
  "compiler": {
    "name": "solc",
    "version": "0.8.9+commit.e5eed63a.Emscripten.clang"
  },
  "schemaVersion": "3.4.7",
  "updatedAt": "2022-08-12T20:10:14.759Z",
  "networkType": "ethereum",
  "devdoc": {
    "kind": "dev",
    "methods": {
      "getRoleAdmin(bytes32)": {
        "details": "Returns the admin role that controls `role`. See {grantRole} and {revokeRole}. To change a role's admin, use {_setRoleAdmin}."
      },
      "grantRole(bytes32,address)": {
        "details": "Grants `role` to `account`. If `account` had not been already granted `role`, emits a {RoleGranted} event. Requirements: - the caller must have ``role``'s admin role."
      },
      "hasRole(bytes32,address)": {
        "details": "Returns `true` if `account` has been granted `role`."
      },
      "renounceRole(bytes32,address)": {
        "details": "Revokes `role` from the calling account. Roles are often managed via {grantRole} and {revokeRole}: this function's purpose is to provide a mechanism for accounts to lose their privileges if they are compromised (such as when a trusted device is misplaced). If the calling account had been revoked `role`, emits a {RoleRevoked} event. Requirements: - the caller must be `account`."
      },
      "revokeRole(bytes32,address)": {
        "details": "Revokes `role` from `account`. If `account` had been granted `role`, emits a {RoleRevoked} event. Requirements: - the caller must have ``role``'s admin role."
      },
      "supportsInterface(bytes4)": {
        "details": "See {IERC165-supportsInterface}."
      }
    },
    "version": 1
  },
  "userdoc": {
    "kind": "user",
    "methods": {},
    "version": 1
  }
}