{
  "contractName": "CoveyStaking",
  "abi": [
    {
      "inputs": [
        {
          "internalType": "address",
          "name": "_stakingToken",
          "type": "address"
        }
      ],
      "stateMutability": "nonpayable",
      "type": "constructor"
    },
    {
      "anonymous": false,
      "inputs": [
        {
          "indexed": true,
          "internalType": "address",
          "name": "previousOwner",
          "type": "address"
        },
        {
          "indexed": true,
          "internalType": "address",
          "name": "newOwner",
          "type": "address"
        }
      ],
      "name": "OwnershipTransferred",
      "type": "event"
    },
    {
      "inputs": [],
      "name": "lastUpdateTime",
      "outputs": [
        {
          "internalType": "uint256",
          "name": "",
          "type": "uint256"
        }
      ],
      "stateMutability": "view",
      "type": "function",
      "constant": true
    },
    {
      "inputs": [],
      "name": "owner",
      "outputs": [
        {
          "internalType": "address",
          "name": "",
          "type": "address"
        }
      ],
      "stateMutability": "view",
      "type": "function",
      "constant": true
    },
    {
      "inputs": [],
      "name": "renounceOwnership",
      "outputs": [],
      "stateMutability": "nonpayable",
      "type": "function"
    },
    {
      "inputs": [],
      "name": "rewardPerTokenStored",
      "outputs": [
        {
          "internalType": "uint256",
          "name": "",
          "type": "uint256"
        }
      ],
      "stateMutability": "view",
      "type": "function",
      "constant": true
    },
    {
      "inputs": [],
      "name": "rewardRate",
      "outputs": [
        {
          "internalType": "uint256",
          "name": "",
          "type": "uint256"
        }
      ],
      "stateMutability": "view",
      "type": "function",
      "constant": true
    },
    {
      "inputs": [
        {
          "internalType": "address",
          "name": "",
          "type": "address"
        }
      ],
      "name": "rewards",
      "outputs": [
        {
          "internalType": "uint256",
          "name": "",
          "type": "uint256"
        }
      ],
      "stateMutability": "view",
      "type": "function",
      "constant": true
    },
    {
      "inputs": [],
      "name": "stakingToken",
      "outputs": [
        {
          "internalType": "contract IERC777",
          "name": "",
          "type": "address"
        }
      ],
      "stateMutability": "view",
      "type": "function",
      "constant": true
    },
    {
      "inputs": [
        {
          "internalType": "address",
          "name": "newOwner",
          "type": "address"
        }
      ],
      "name": "transferOwnership",
      "outputs": [],
      "stateMutability": "nonpayable",
      "type": "function"
    },
    {
      "inputs": [
        {
          "internalType": "address",
          "name": "",
          "type": "address"
        }
      ],
      "name": "userRewardPerTokenPaid",
      "outputs": [
        {
          "internalType": "uint256",
          "name": "",
          "type": "uint256"
        }
      ],
      "stateMutability": "view",
      "type": "function",
      "constant": true
    },
    {
      "inputs": [],
      "name": "rewardPerToken",
      "outputs": [
        {
          "internalType": "uint256",
          "name": "",
          "type": "uint256"
        }
      ],
      "stateMutability": "view",
      "type": "function",
      "constant": true
    },
    {
      "inputs": [
        {
          "internalType": "address",
          "name": "account",
          "type": "address"
        }
      ],
      "name": "earned",
      "outputs": [
        {
          "internalType": "uint256",
          "name": "",
          "type": "uint256"
        }
      ],
      "stateMutability": "view",
      "type": "function",
      "constant": true
    },
    {
      "inputs": [
        {
          "internalType": "uint256",
          "name": "newRate",
          "type": "uint256"
        }
      ],
      "name": "changeRewardRate",
      "outputs": [],
      "stateMutability": "nonpayable",
      "type": "function"
    },
    {
      "inputs": [
        {
          "internalType": "uint256",
          "name": "_amount",
          "type": "uint256"
        }
      ],
      "name": "stake",
      "outputs": [],
      "stateMutability": "nonpayable",
      "type": "function"
    },
    {
      "inputs": [
        {
          "internalType": "uint256",
          "name": "_amount",
          "type": "uint256"
        }
      ],
      "name": "withdraw",
      "outputs": [],
      "stateMutability": "nonpayable",
      "type": "function"
    },
    {
      "inputs": [],
      "name": "getReward",
      "outputs": [],
      "stateMutability": "nonpayable",
      "type": "function"
    }
  ],
  "bytecode": "0x608060405260646002553480156200001657600080fd5b50604051620014343803806200143483398181016040528101906200003c9190620001da565b6200005c62000050620000a460201b60201c565b620000ac60201b60201c565b80600160006101000a81548173ffffffffffffffffffffffffffffffffffffffff021916908373ffffffffffffffffffffffffffffffffffffffff160217905550506200020c565b600033905090565b60008060009054906101000a900473ffffffffffffffffffffffffffffffffffffffff169050816000806101000a81548173ffffffffffffffffffffffffffffffffffffffff021916908373ffffffffffffffffffffffffffffffffffffffff1602179055508173ffffffffffffffffffffffffffffffffffffffff168173ffffffffffffffffffffffffffffffffffffffff167f8be0079c531659141344cd1fd0a4f28419497f9722a3daafe3b4186f6b6457e060405160405180910390a35050565b600080fd5b600073ffffffffffffffffffffffffffffffffffffffff82169050919050565b6000620001a28262000175565b9050919050565b620001b48162000195565b8114620001c057600080fd5b50565b600081519050620001d481620001a9565b92915050565b600060208284031215620001f357620001f262000170565b5b60006200020384828501620001c3565b91505092915050565b611218806200021c6000396000f3fe608060405234801561001057600080fd5b50600436106100f45760003560e01c80637b0a47ee11610097578063c8f33c9111610066578063c8f33c911461024b578063cd3daf9d14610269578063df136d6514610287578063f2fde38b146102a5576100f4565b80637b0a47ee146101c35780638b876347146101e15780638da5cb5b14610211578063a694fc3a1461022f576100f4565b80633d18b912116100d35780633d18b91214610175578063715018a61461017f57806372f702f31461018957806374f237c4146101a7576100f4565b80628cc262146100f95780630700037d146101295780632e1a7d4d14610159575b600080fd5b610113600480360381019061010e9190610d3d565b6102c1565b6040516101209190610d83565b60405180910390f35b610143600480360381019061013e9190610d3d565b6103c3565b6040516101509190610d83565b60405180910390f35b610173600480360381019061016e9190610dca565b6103db565b005b61017d610597565b005b61018761076d565b005b6101916107f5565b60405161019e9190610e56565b60405180910390f35b6101c160048036038101906101bc9190610dca565b61081b565b005b6101cb6108a1565b6040516101d89190610d83565b60405180910390f35b6101fb60048036038101906101f69190610d3d565b6108a7565b6040516102089190610d83565b60405180910390f35b6102196108bf565b6040516102269190610e80565b60405180910390f35b61024960048036038101906102449190610dca565b6108e8565b005b610253610aa6565b6040516102609190610d83565b60405180910390f35b610271610aac565b60405161027e9190610d83565b60405180910390f35b61028f610b10565b60405161029c9190610d83565b60405180910390f35b6102bf60048036038101906102ba9190610d3d565b610b16565b005b6000600660008373ffffffffffffffffffffffffffffffffffffffff1673ffffffffffffffffffffffffffffffffffffffff16815260200190815260200160002054670de0b6b3a7640000600560008573ffffffffffffffffffffffffffffffffffffffff1673ffffffffffffffffffffffffffffffffffffffff16815260200190815260200160002054610354610aac565b61035e9190610eca565b600860008673ffffffffffffffffffffffffffffffffffffffff1673ffffffffffffffffffffffffffffffffffffffff168152602001908152602001600020546103a89190610efe565b6103b29190610f87565b6103bc9190610fb8565b9050919050565b60066020528060005260406000206000915090505481565b336103e4610aac565b600481905550426003819055506103fa816102c1565b600660008373ffffffffffffffffffffffffffffffffffffffff1673ffffffffffffffffffffffffffffffffffffffff16815260200190815260200160002081905550600454600560008373ffffffffffffffffffffffffffffffffffffffff1673ffffffffffffffffffffffffffffffffffffffff1681526020019081526020016000208190555081600760008282546104959190610eca565b9250508190555081600860003373ffffffffffffffffffffffffffffffffffffffff1673ffffffffffffffffffffffffffffffffffffffff16815260200190815260200160002060008282546104eb9190610eca565b92505081905550600160009054906101000a900473ffffffffffffffffffffffffffffffffffffffff1673ffffffffffffffffffffffffffffffffffffffff1663a9059cbb33846040518363ffffffff1660e01b815260040161054f92919061100e565b6020604051808303816000875af115801561056e573d6000803e3d6000fd5b505050506040513d601f19601f82011682018060405250810190610592919061106f565b505050565b336105a0610aac565b600481905550426003819055506105b6816102c1565b600660008373ffffffffffffffffffffffffffffffffffffffff1673ffffffffffffffffffffffffffffffffffffffff16815260200190815260200160002081905550600454600560008373ffffffffffffffffffffffffffffffffffffffff1673ffffffffffffffffffffffffffffffffffffffff168152602001908152602001600020819055506000600660003373ffffffffffffffffffffffffffffffffffffffff1673ffffffffffffffffffffffffffffffffffffffff1681526020019081526020016000205490506000600660003373ffffffffffffffffffffffffffffffffffffffff1673ffffffffffffffffffffffffffffffffffffffff16815260200190815260200160002081905550600160009054906101000a900473ffffffffffffffffffffffffffffffffffffffff1673ffffffffffffffffffffffffffffffffffffffff1663a9059cbb33836040518363ffffffff1660e01b815260040161072592919061100e565b6020604051808303816000875af1158015610744573d6000803e3d6000fd5b505050506040513d601f19601f82011682018060405250810190610768919061106f565b505050565b610775610c0e565b73ffffffffffffffffffffffffffffffffffffffff166107936108bf565b73ffffffffffffffffffffffffffffffffffffffff16146107e9576040517f08c379a00000000000000000000000000000000000000000000000000000000081526004016107e0906110f9565b60405180910390fd5b6107f36000610c16565b565b600160009054906101000a900473ffffffffffffffffffffffffffffffffffffffff1681565b610823610c0e565b73ffffffffffffffffffffffffffffffffffffffff166108416108bf565b73ffffffffffffffffffffffffffffffffffffffff1614610897576040517f08c379a000000000000000000000000000000000000000000000000000000000815260040161088e906110f9565b60405180910390fd5b8060028190555050565b60025481565b60056020528060005260406000206000915090505481565b60008060009054906101000a900473ffffffffffffffffffffffffffffffffffffffff16905090565b336108f1610aac565b60048190555042600381905550610907816102c1565b600660008373ffffffffffffffffffffffffffffffffffffffff1673ffffffffffffffffffffffffffffffffffffffff16815260200190815260200160002081905550600454600560008373ffffffffffffffffffffffffffffffffffffffff1673ffffffffffffffffffffffffffffffffffffffff1681526020019081526020016000208190555081600760008282546109a29190610fb8565b9250508190555081600860003373ffffffffffffffffffffffffffffffffffffffff1673ffffffffffffffffffffffffffffffffffffffff16815260200190815260200160002060008282546109f89190610fb8565b92505081905550600160009054906101000a900473ffffffffffffffffffffffffffffffffffffffff1673ffffffffffffffffffffffffffffffffffffffff166323b872dd3330856040518463ffffffff1660e01b8152600401610a5e93929190611119565b6020604051808303816000875af1158015610a7d573d6000803e3d6000fd5b505050506040513d601f19601f82011682018060405250810190610aa1919061106f565b505050565b60035481565b6000806007541415610ac2576004549050610b0d565b600754670de0b6b3a764000060025460035442610adf9190610eca565b610ae99190610efe565b610af39190610efe565b610afd9190610f87565b600454610b0a9190610fb8565b90505b90565b60045481565b610b1e610c0e565b73ffffffffffffffffffffffffffffffffffffffff16610b3c6108bf565b73ffffffffffffffffffffffffffffffffffffffff1614610b92576040517f08c379a0000000000000000000000000000000000000000000000000000000008152600401610b89906110f9565b60405180910390fd5b600073ffffffffffffffffffffffffffffffffffffffff168173ffffffffffffffffffffffffffffffffffffffff161415610c02576040517f08c379a0000000000000000000000000000000000000000000000000000000008152600401610bf9906111c2565b60405180910390fd5b610c0b81610c16565b50565b600033905090565b60008060009054906101000a900473ffffffffffffffffffffffffffffffffffffffff169050816000806101000a81548173ffffffffffffffffffffffffffffffffffffffff021916908373ffffffffffffffffffffffffffffffffffffffff1602179055508173ffffffffffffffffffffffffffffffffffffffff168173ffffffffffffffffffffffffffffffffffffffff167f8be0079c531659141344cd1fd0a4f28419497f9722a3daafe3b4186f6b6457e060405160405180910390a35050565b600080fd5b600073ffffffffffffffffffffffffffffffffffffffff82169050919050565b6000610d0a82610cdf565b9050919050565b610d1a81610cff565b8114610d2557600080fd5b50565b600081359050610d3781610d11565b92915050565b600060208284031215610d5357610d52610cda565b5b6000610d6184828501610d28565b91505092915050565b6000819050919050565b610d7d81610d6a565b82525050565b6000602082019050610d986000830184610d74565b92915050565b610da781610d6a565b8114610db257600080fd5b50565b600081359050610dc481610d9e565b92915050565b600060208284031215610de057610ddf610cda565b5b6000610dee84828501610db5565b91505092915050565b6000819050919050565b6000610e1c610e17610e1284610cdf565b610df7565b610cdf565b9050919050565b6000610e2e82610e01565b9050919050565b6000610e4082610e23565b9050919050565b610e5081610e35565b82525050565b6000602082019050610e6b6000830184610e47565b92915050565b610e7a81610cff565b82525050565b6000602082019050610e956000830184610e71565b92915050565b7f4e487b7100000000000000000000000000000000000000000000000000000000600052601160045260246000fd5b6000610ed582610d6a565b9150610ee083610d6a565b925082821015610ef357610ef2610e9b565b5b828203905092915050565b6000610f0982610d6a565b9150610f1483610d6a565b9250817fffffffffffffffffffffffffffffffffffffffffffffffffffffffffffffffff0483118215151615610f4d57610f4c610e9b565b5b828202905092915050565b7f4e487b7100000000000000000000000000000000000000000000000000000000600052601260045260246000fd5b6000610f9282610d6a565b9150610f9d83610d6a565b925082610fad57610fac610f58565b5b828204905092915050565b6000610fc382610d6a565b9150610fce83610d6a565b9250827fffffffffffffffffffffffffffffffffffffffffffffffffffffffffffffffff0382111561100357611002610e9b565b5b828201905092915050565b60006040820190506110236000830185610e71565b6110306020830184610d74565b9392505050565b60008115159050919050565b61104c81611037565b811461105757600080fd5b50565b60008151905061106981611043565b92915050565b60006020828403121561108557611084610cda565b5b60006110938482850161105a565b91505092915050565b600082825260208201905092915050565b7f4f776e61626c653a2063616c6c6572206973206e6f7420746865206f776e6572600082015250565b60006110e360208361109c565b91506110ee826110ad565b602082019050919050565b60006020820190508181036000830152611112816110d6565b9050919050565b600060608201905061112e6000830186610e71565b61113b6020830185610e71565b6111486040830184610d74565b949350505050565b7f4f776e61626c653a206e6577206f776e657220697320746865207a65726f206160008201527f6464726573730000000000000000000000000000000000000000000000000000602082015250565b60006111ac60268361109c565b91506111b782611150565b604082019050919050565b600060208201905081810360008301526111db8161119f565b905091905056fea2646970667358221220eb3f432119cac13d9b1d2c0811b3cf0ca9a1ae54bfdd817af389f7fce66f3dd964736f6c634300080b0033",
  "immutableReferences": {},
  "source": "pragma solidity ^0.8.11;\n\nimport \"@openzeppelin/contracts/utils/math/SafeMath.sol\";\nimport \"@openzeppelin/contracts/access/Ownable.sol\";\n\ncontract CoveyStaking is Ownable {\n  IERC777 public stakingToken;\n\n  uint public rewardRate = 100;\n  uint public lastUpdateTime;\n  uint public rewardPerTokenStored;\n\n  mapping(address => uint) public userRewardPerTokenPaid;\n  mapping(address => uint) public rewards;\n\n  uint private _totalSupply;\n  mapping(address => uint) private _balances;\n\n  constructor(address _stakingToken) {\n    stakingToken = IERC777(_stakingToken);\n  }\n  function rewardPerToken() public view returns (uint) {\n    if(_totalSupply == 0) {\n      return rewardPerTokenStored;\n    }\n\n    return\n            rewardPerTokenStored +\n            (((block.timestamp - lastUpdateTime) * rewardRate * 1e18) / _totalSupply);\n  }\n\n   function earned(address account) public view returns (uint) {\n        return\n            ((_balances[account] *\n                (rewardPerToken() - userRewardPerTokenPaid[account])) / 1e18) +\n            rewards[account];\n    }\n\n    modifier updateReward(address account) {\n        rewardPerTokenStored = rewardPerToken();\n        lastUpdateTime = block.timestamp;\n\n        rewards[account] = earned(account);\n        userRewardPerTokenPaid[account] = rewardPerTokenStored;\n        _;\n    }\n\n    /// @notice Change the reward rate for staked tokens\n    /// @dev Change the reward rate for staked tokens\n    /// @param newRate the rate to now reward for tokens staked\n    function changeRewardRate(uint newRate) public onlyOwner {\n        rewardRate = newRate;\n    }\n\n    function stake(uint _amount) external updateReward(msg.sender) {\n        _totalSupply += _amount;\n        _balances[msg.sender] += _amount;\n        stakingToken.transferFrom(msg.sender, address(this), _amount);\n    }\n\n    function withdraw(uint _amount) external updateReward(msg.sender) {\n        _totalSupply -= _amount;\n        _balances[msg.sender] -= _amount;\n        stakingToken.transfer(msg.sender, _amount);\n    }\n\n    function getReward() external updateReward(msg.sender) {\n        uint reward = rewards[msg.sender];\n        rewards[msg.sender] = 0;\n        stakingToken.transfer(msg.sender, reward);\n    }\n}\n\ninterface IERC777 {\n    function totalSupply() external view returns (uint);\n\n    function balanceOf(address account) external view returns (uint);\n\n    function transfer(address recipient, uint amount) external returns (bool);\n\n    function allowance(address owner, address spender) external view returns (uint);\n\n    function approve(address spender, uint amount) external returns (bool);\n\n    function transferFrom(\n        address sender,\n        address recipient,\n        uint amount\n    ) external returns (bool);\n\n    event Transfer(address indexed from, address indexed to, uint value);\n    event Approval(address indexed owner, address indexed spender, uint value);\n}",
  "sourcePath": "C:\\Users\\jcara\\Documents\\repos\\covey-token\\contracts\\CoveyStaking.sol",
  "compiler": {
    "name": "solc",
    "version": "0.8.11+commit.d7f03943.Emscripten.clang"
  },
  "schemaVersion": "3.4.4",
  "updatedAt": "2022-04-22T14:32:08.571Z",
  "networkType": "ethereum",
  "devdoc": {
    "kind": "dev",
    "methods": {
      "changeRewardRate(uint256)": {
        "details": "Change the reward rate for staked tokens",
        "params": {
          "newRate": "the rate to now reward for tokens staked"
        }
      },
      "owner()": {
        "details": "Returns the address of the current owner."
      },
      "renounceOwnership()": {
        "details": "Leaves the contract without owner. It will not be possible to call `onlyOwner` functions anymore. Can only be called by the current owner. NOTE: Renouncing ownership will leave the contract without an owner, thereby removing any functionality that is only available to the owner."
      },
      "transferOwnership(address)": {
        "details": "Transfers ownership of the contract to a new account (`newOwner`). Can only be called by the current owner."
      }
    },
    "version": 1
  },
  "userdoc": {
    "kind": "user",
    "methods": {
      "changeRewardRate(uint256)": {
        "notice": "Change the reward rate for staked tokens"
      }
    },
    "version": 1
  }
}