{
  "contractName": "CoveyStaking",
  "abi": [
    {
      "anonymous": false,
      "inputs": [
        {
          "indexed": true,
          "internalType": "address",
          "name": "_adr",
          "type": "address"
        },
        {
          "indexed": false,
          "internalType": "uint256",
          "name": "amountLost",
          "type": "uint256"
        }
      ],
      "name": "Bankrupt",
      "type": "event"
    },
    {
      "anonymous": false,
      "inputs": [
        {
          "indexed": true,
          "internalType": "address",
          "name": "_adr",
          "type": "address"
        }
      ],
      "name": "CancelledUnstake",
      "type": "event"
    },
    {
      "anonymous": false,
      "inputs": [
        {
          "indexed": false,
          "internalType": "uint8",
          "name": "version",
          "type": "uint8"
        }
      ],
      "name": "Initialized",
      "type": "event"
    },
    {
      "anonymous": false,
      "inputs": [
        {
          "indexed": true,
          "internalType": "address",
          "name": "_adr",
          "type": "address"
        },
        {
          "indexed": false,
          "internalType": "uint256",
          "name": "amountDispensed",
          "type": "uint256"
        }
      ],
      "name": "StakeDispensed",
      "type": "event"
    },
    {
      "anonymous": false,
      "inputs": [
        {
          "indexed": true,
          "internalType": "address",
          "name": "_adr",
          "type": "address"
        },
        {
          "indexed": false,
          "internalType": "uint256",
          "name": "amount",
          "type": "uint256"
        }
      ],
      "name": "Staked",
      "type": "event"
    },
    {
      "anonymous": false,
      "inputs": [
        {
          "indexed": true,
          "internalType": "address",
          "name": "_adr",
          "type": "address"
        },
        {
          "indexed": false,
          "internalType": "uint256",
          "name": "amount",
          "type": "uint256"
        }
      ],
      "name": "TotalStaked",
      "type": "event"
    },
    {
      "anonymous": false,
      "inputs": [
        {
          "indexed": true,
          "internalType": "address",
          "name": "_adr",
          "type": "address"
        },
        {
          "indexed": false,
          "internalType": "uint256",
          "name": "amount",
          "type": "uint256"
        }
      ],
      "name": "TotalUnstaked",
      "type": "event"
    },
    {
      "anonymous": false,
      "inputs": [
        {
          "indexed": true,
          "internalType": "address",
          "name": "_adr",
          "type": "address"
        },
        {
          "indexed": false,
          "internalType": "uint256",
          "name": "amount",
          "type": "uint256"
        }
      ],
      "name": "Unstaked",
      "type": "event"
    },
    {
      "inputs": [
        {
          "internalType": "bytes32",
          "name": "interfaceHash",
          "type": "bytes32"
        },
        {
          "internalType": "address",
          "name": "account",
          "type": "address"
        }
      ],
      "name": "canImplementInterfaceForAddress",
      "outputs": [
        {
          "internalType": "bytes32",
          "name": "",
          "type": "bytes32"
        }
      ],
      "stateMutability": "view",
      "type": "function",
      "constant": true
    },
    {
      "inputs": [],
      "name": "registry",
      "outputs": [
        {
          "internalType": "contract IERC1820Registry",
          "name": "",
          "type": "address"
        }
      ],
      "stateMutability": "view",
      "type": "function",
      "constant": true
    },
    {
      "inputs": [
        {
          "internalType": "uint256",
          "name": "",
          "type": "uint256"
        }
      ],
      "name": "stakers",
      "outputs": [
        {
          "internalType": "address",
          "name": "",
          "type": "address"
        }
      ],
      "stateMutability": "view",
      "type": "function",
      "constant": true
    },
    {
      "inputs": [],
      "name": "stakingToken",
      "outputs": [
        {
          "internalType": "contract IERC777",
          "name": "",
          "type": "address"
        }
      ],
      "stateMutability": "view",
      "type": "function",
      "constant": true
    },
    {
      "inputs": [
        {
          "internalType": "contract IERC777",
          "name": "_stakingToken",
          "type": "address"
        }
      ],
      "name": "initialize",
      "outputs": [],
      "stateMutability": "nonpayable",
      "type": "function"
    },
    {
      "inputs": [
        {
          "internalType": "address",
          "name": "operator",
          "type": "address"
        },
        {
          "internalType": "address",
          "name": "from",
          "type": "address"
        },
        {
          "internalType": "address",
          "name": "to",
          "type": "address"
        },
        {
          "internalType": "uint256",
          "name": "amount",
          "type": "uint256"
        },
        {
          "internalType": "bytes",
          "name": "userData",
          "type": "bytes"
        },
        {
          "internalType": "bytes",
          "name": "operatorData",
          "type": "bytes"
        }
      ],
      "name": "tokensReceived",
      "outputs": [],
      "stateMutability": "nonpayable",
      "type": "function"
    },
    {
      "inputs": [
        {
          "internalType": "address",
          "name": "operator",
          "type": "address"
        },
        {
          "internalType": "address",
          "name": "from",
          "type": "address"
        },
        {
          "internalType": "address",
          "name": "to",
          "type": "address"
        },
        {
          "internalType": "uint256",
          "name": "amount",
          "type": "uint256"
        },
        {
          "internalType": "bytes",
          "name": "userData",
          "type": "bytes"
        },
        {
          "internalType": "bytes",
          "name": "operatorData",
          "type": "bytes"
        }
      ],
      "name": "tokensToSend",
      "outputs": [],
      "stateMutability": "nonpayable",
      "type": "function"
    },
    {
      "inputs": [
        {
          "internalType": "address",
          "name": "account",
          "type": "address"
        }
      ],
      "name": "registerHookForAccount",
      "outputs": [],
      "stateMutability": "nonpayable",
      "type": "function"
    },
    {
      "inputs": [
        {
          "internalType": "uint256",
          "name": "amount",
          "type": "uint256"
        }
      ],
      "name": "stake",
      "outputs": [],
      "stateMutability": "nonpayable",
      "type": "function"
    },
    {
      "inputs": [
        {
          "internalType": "uint256",
          "name": "amount",
          "type": "uint256"
        }
      ],
      "name": "unstake",
      "outputs": [],
      "stateMutability": "nonpayable",
      "type": "function"
    },
    {
      "inputs": [],
      "name": "cancelUnstake",
      "outputs": [],
      "stateMutability": "nonpayable",
      "type": "function"
    },
    {
      "inputs": [
        {
          "internalType": "address",
          "name": "_adr",
          "type": "address"
        }
      ],
      "name": "getTotalStaked",
      "outputs": [
        {
          "internalType": "uint256",
          "name": "",
          "type": "uint256"
        }
      ],
      "stateMutability": "view",
      "type": "function",
      "constant": true
    },
    {
      "inputs": [
        {
          "internalType": "address",
          "name": "_adr",
          "type": "address"
        }
      ],
      "name": "getTotalUnstaked",
      "outputs": [
        {
          "internalType": "uint256",
          "name": "",
          "type": "uint256"
        }
      ],
      "stateMutability": "view",
      "type": "function",
      "constant": true
    },
    {
      "inputs": [
        {
          "internalType": "address[]",
          "name": "bankruptAddresses",
          "type": "address[]"
        }
      ],
      "name": "dispenseStakes",
      "outputs": [],
      "stateMutability": "nonpayable",
      "type": "function"
    }
  ],
  "bytecode": "0x608060405234801561001057600080fd5b50612499806100206000396000f3fe608060405234801561001057600080fd5b50600436106100e95760003560e01c80637b1039991161008c578063c4d66de811610066578063c4d66de81461020c578063dd2a8b1114610228578063ea6451e714610258578063fd5e6dd114610288576100e9565b80637b103999146101b6578063a694fc3a146101d4578063a75036b6146101f0576100e9565b80634ab17969116100c85780634ab179691461015657806372f702f314610160578063739cead91461017e57806375ab97821461019a576100e9565b806223de29146100ee578063249cb3fa1461010a5780632e17de781461013a575b600080fd5b610108600480360381019061010391906119b6565b6102b8565b005b610124600480360381019061011f9190611abb565b6102c2565b6040516101319190611b0a565b60405180910390f35b610154600480360381019061014f9190611b25565b610359565b005b61015e6105e8565b005b6101686106f2565b6040516101759190611bb1565b60405180910390f35b61019860048036038101906101939190611c22565b610718565b005b6101b460048036038101906101af91906119b6565b611076565b005b6101be611080565b6040516101cb9190611c90565b60405180910390f35b6101ee60048036038101906101e99190611b25565b6110a6565b005b61020a60048036038101906102059190611cab565b61141b565b005b61022660048036038101906102219190611d16565b61144b565b005b610242600480360381019061023d9190611cab565b611663565b60405161024f9190611d52565b60405180910390f35b610272600480360381019061026d9190611cab565b6116ac565b60405161027f9190611d52565b60405180910390f35b6102a2600480360381019061029d9190611b25565b6116f5565b6040516102af9190611d7c565b60405180910390f35b5050505050505050565b60006001600084815260200190815260200160002060008373ffffffffffffffffffffffffffffffffffffffff1673ffffffffffffffffffffffffffffffffffffffff16815260200190815260200160002060009054906101000a900460ff1661032f576000801b610351565b7fa2ef4600d742022d532d4747cb3547474667d6f13804902513b2ec01c848f4b45b905092915050565b6000600460003373ffffffffffffffffffffffffffffffffffffffff1673ffffffffffffffffffffffffffffffffffffffff1681526020019081526020016000205414156103dc576040517f08c379a00000000000000000000000000000000000000000000000000000000081526004016103d390611df4565b60405180910390fd5b600081600560003373ffffffffffffffffffffffffffffffffffffffff1673ffffffffffffffffffffffffffffffffffffffff168152602001908152602001600020546104299190611e43565b600460003373ffffffffffffffffffffffffffffffffffffffff1673ffffffffffffffffffffffffffffffffffffffff168152602001908152602001600020546104739190611e99565b10156104b4576040517f08c379a00000000000000000000000000000000000000000000000000000000081526004016104ab90611f3f565b60405180910390fd5b80600560003373ffffffffffffffffffffffffffffffffffffffff1673ffffffffffffffffffffffffffffffffffffffff16815260200190815260200160002060008282546105039190611e43565b925050819055503373ffffffffffffffffffffffffffffffffffffffff167f0f5bb82176feb1b5e747e28471aa92156a04d9f3ab9f45f28e2d704232b93f75826040516105509190611d52565b60405180910390a23373ffffffffffffffffffffffffffffffffffffffff167f45a61950ae80a9a1d9a6c03683ce65096a7db8ca520632bed3072f40963c8804600560003373ffffffffffffffffffffffffffffffffffffffff1673ffffffffffffffffffffffffffffffffffffffff168152602001908152602001600020546040516105dd9190611d52565b60405180910390a250565b6000600560003373ffffffffffffffffffffffffffffffffffffffff1673ffffffffffffffffffffffffffffffffffffffff168152602001908152602001600020541161066a576040517f08c379a000000000000000000000000000000000000000000000000000000000815260040161066190611fab565b60405180910390fd5b600560003373ffffffffffffffffffffffffffffffffffffffff1673ffffffffffffffffffffffffffffffffffffffff168152602001908152602001600020600090553373ffffffffffffffffffffffffffffffffffffffff167f450cc0f663f8ded0053aeca240ef53a2f4b93c5c3aa067e8e45155e823ceaa7a60405160405180910390a2565b600260009054906101000a900473ffffffffffffffffffffffffffffffffffffffff1681565b600360009054906101000a900473ffffffffffffffffffffffffffffffffffffffff1673ffffffffffffffffffffffffffffffffffffffff163373ffffffffffffffffffffffffffffffffffffffff161461077257600080fd5b60005b600680549050811015611071576000805b8484905081101561084257600683815481106107a5576107a4611fcb565b5b9060005260206000200160009054906101000a900473ffffffffffffffffffffffffffffffffffffffff1673ffffffffffffffffffffffffffffffffffffffff168585838181106107f9576107f8611fcb565b5b905060200201602081019061080e9190611cab565b73ffffffffffffffffffffffffffffffffffffffff16141561082f57600191505b808061083a90611ffa565b915050610786565b50600115158115151415610aa1576006828154811061086457610863611fcb565b5b9060005260206000200160009054906101000a900473ffffffffffffffffffffffffffffffffffffffff1673ffffffffffffffffffffffffffffffffffffffff167f7fe451685bab7a17da665cc038b4635412b8d788bb692963f88e35eba15ae17560046000600686815481106108de576108dd611fcb565b5b9060005260206000200160009054906101000a900473ffffffffffffffffffffffffffffffffffffffff1673ffffffffffffffffffffffffffffffffffffffff1673ffffffffffffffffffffffffffffffffffffffff168152602001908152602001600020546040516109519190611d52565b60405180910390a2600560006006848154811061097157610970611fcb565b5b9060005260206000200160009054906101000a900473ffffffffffffffffffffffffffffffffffffffff1673ffffffffffffffffffffffffffffffffffffffff1673ffffffffffffffffffffffffffffffffffffffff1681526020019081526020016000206000905560046000600684815481106109f2576109f1611fcb565b5b9060005260206000200160009054906101000a900473ffffffffffffffffffffffffffffffffffffffff1673ffffffffffffffffffffffffffffffffffffffff1673ffffffffffffffffffffffffffffffffffffffff1681526020019081526020016000206000905560068281548110610a6f57610a6e611fcb565b5b9060005260206000200160006101000a81549073ffffffffffffffffffffffffffffffffffffffff021916905561105d565b60006005600060068581548110610abb57610aba611fcb565b5b9060005260206000200160009054906101000a900473ffffffffffffffffffffffffffffffffffffffff1673ffffffffffffffffffffffffffffffffffffffff1673ffffffffffffffffffffffffffffffffffffffff16815260200190815260200160002054118015610b32575060001515811515145b1561105c57600260009054906101000a900473ffffffffffffffffffffffffffffffffffffffff1673ffffffffffffffffffffffffffffffffffffffff16639bd9bbc660068481548110610b8957610b88611fcb565b5b9060005260206000200160009054906101000a900473ffffffffffffffffffffffffffffffffffffffff166005600060068781548110610bcc57610bcb611fcb565b5b9060005260206000200160009054906101000a900473ffffffffffffffffffffffffffffffffffffffff1673ffffffffffffffffffffffffffffffffffffffff1673ffffffffffffffffffffffffffffffffffffffff168152602001908152602001600020546040518363ffffffff1660e01b8152600401610c4f9291906120a0565b600060405180830381600087803b158015610c6957600080fd5b505af1158015610c7d573d6000803e3d6000fd5b5050505060068281548110610c9557610c94611fcb565b5b9060005260206000200160009054906101000a900473ffffffffffffffffffffffffffffffffffffffff1673ffffffffffffffffffffffffffffffffffffffff167f9b4c90d41aa819dadecbb2e126e6dc2e01be4402acc99ec60248131a3f59576c6005600060068681548110610d0f57610d0e611fcb565b5b9060005260206000200160009054906101000a900473ffffffffffffffffffffffffffffffffffffffff1673ffffffffffffffffffffffffffffffffffffffff1673ffffffffffffffffffffffffffffffffffffffff16815260200190815260200160002054604051610d829190611d52565b60405180910390a26005600060068481548110610da257610da1611fcb565b5b9060005260206000200160009054906101000a900473ffffffffffffffffffffffffffffffffffffffff1673ffffffffffffffffffffffffffffffffffffffff1673ffffffffffffffffffffffffffffffffffffffff168152602001908152602001600020546004600060068581548110610e2057610e1f611fcb565b5b9060005260206000200160009054906101000a900473ffffffffffffffffffffffffffffffffffffffff1673ffffffffffffffffffffffffffffffffffffffff1673ffffffffffffffffffffffffffffffffffffffff16815260200190815260200160002054610e909190611e99565b6004600060068581548110610ea857610ea7611fcb565b5b9060005260206000200160009054906101000a900473ffffffffffffffffffffffffffffffffffffffff1673ffffffffffffffffffffffffffffffffffffffff1673ffffffffffffffffffffffffffffffffffffffff1681526020019081526020016000208190555060006005600060068581548110610f2b57610f2a611fcb565b5b9060005260206000200160009054906101000a900473ffffffffffffffffffffffffffffffffffffffff1673ffffffffffffffffffffffffffffffffffffffff1673ffffffffffffffffffffffffffffffffffffffff1681526020019081526020016000208190555060006004600060068581548110610fae57610fad611fcb565b5b9060005260206000200160009054906101000a900473ffffffffffffffffffffffffffffffffffffffff1673ffffffffffffffffffffffffffffffffffffffff1673ffffffffffffffffffffffffffffffffffffffff168152602001908152602001600020541161105b576006828154811061102d5761102c611fcb565b5b9060005260206000200160006101000a81549073ffffffffffffffffffffffffffffffffffffffff02191690555b5b5b50808061106990611ffa565b915050610775565b505050565b5050505050505050565b600760009054906101000a900473ffffffffffffffffffffffffffffffffffffffff1681565b600073ffffffffffffffffffffffffffffffffffffffff163373ffffffffffffffffffffffffffffffffffffffff161415611116576040517f08c379a000000000000000000000000000000000000000000000000000000000815260040161110d90612128565b60405180910390fd5b600260009054906101000a900473ffffffffffffffffffffffffffffffffffffffff1673ffffffffffffffffffffffffffffffffffffffff1663d95b637130336040518363ffffffff1660e01b8152600401611173929190612148565b602060405180830381865afa158015611190573d6000803e3d6000fd5b505050506040513d601f19601f820116820180604052508101906111b491906121a9565b6111f3576040517f08c379a00000000000000000000000000000000000000000000000000000000081526004016111ea90612248565b60405180910390fd5b600260009054906101000a900473ffffffffffffffffffffffffffffffffffffffff1673ffffffffffffffffffffffffffffffffffffffff166362ad1b833330846040518463ffffffff1660e01b8152600401611252939291906122da565b600060405180830381600087803b15801561126c57600080fd5b505af1158015611280573d6000803e3d6000fd5b5050505080600460003373ffffffffffffffffffffffffffffffffffffffff1673ffffffffffffffffffffffffffffffffffffffff16815260200190815260200160002060008282546112d39190611e43565b925050819055506006339080600181540180825580915050600190039060005260206000200160009091909190916101000a81548173ffffffffffffffffffffffffffffffffffffffff021916908373ffffffffffffffffffffffffffffffffffffffff1602179055503373ffffffffffffffffffffffffffffffffffffffff167f9e71bc8eea02a63969f509818f2dafb9254532904319f9dbda79b67bd34a5f3d826040516113839190611d52565b60405180910390a23373ffffffffffffffffffffffffffffffffffffffff167f62be4aaebfea1375247e22afe02276e2d8d1b765bff167beda8066a0012c7b5f600460003373ffffffffffffffffffffffffffffffffffffffff1673ffffffffffffffffffffffffffffffffffffffff168152602001908152602001600020546040516114109190611d52565b60405180910390a250565b6114487f29ddb589b1fb5fc7cf394961c1adf5f8c6454761adf795e67fe149f658abe89560001b82611734565b50565b600061145760016117a0565b9050801561147b576001600060016101000a81548160ff0219169083151502179055505b33600360006101000a81548173ffffffffffffffffffffffffffffffffffffffff021916908373ffffffffffffffffffffffffffffffffffffffff16021790555081600260006101000a81548173ffffffffffffffffffffffffffffffffffffffff021916908373ffffffffffffffffffffffffffffffffffffffff160217905550731820a4b7618bde71dce8cdc73aab6c95905fad24600760006101000a81548173ffffffffffffffffffffffffffffffffffffffff021916908373ffffffffffffffffffffffffffffffffffffffff160217905550600760009054906101000a900473ffffffffffffffffffffffffffffffffffffffff1673ffffffffffffffffffffffffffffffffffffffff166329965a1d307fb281fc8c12954d22544db45de3159a39272895b169a852b314f9cc762e44c53b60001b306040518463ffffffff1660e01b81526004016115d493929190612337565b600060405180830381600087803b1580156115ee57600080fd5b505af1158015611602573d6000803e3d6000fd5b50505050801561165f5760008060016101000a81548160ff0219169083151502179055507f7f26b83ff96e1f2b6a682f133852f6798a09c465da95921460cefb3847402498600160405161165691906123b6565b60405180910390a15b5050565b6000600460008373ffffffffffffffffffffffffffffffffffffffff1673ffffffffffffffffffffffffffffffffffffffff168152602001908152602001600020549050919050565b6000600560008373ffffffffffffffffffffffffffffffffffffffff1673ffffffffffffffffffffffffffffffffffffffff168152602001908152602001600020549050919050565b6006818154811061170557600080fd5b906000526020600020016000915054906101000a900473ffffffffffffffffffffffffffffffffffffffff1681565b600180600084815260200190815260200160002060008373ffffffffffffffffffffffffffffffffffffffff1673ffffffffffffffffffffffffffffffffffffffff16815260200190815260200160002060006101000a81548160ff0219169083151502179055505050565b60008060019054906101000a900460ff16156118175760018260ff161480156117cf57506117cd30611890565b155b61180e576040517f08c379a000000000000000000000000000000000000000000000000000000000815260040161180590612443565b60405180910390fd5b6000905061188b565b8160ff1660008054906101000a900460ff1660ff161061186c576040517f08c379a000000000000000000000000000000000000000000000000000000000815260040161186390612443565b60405180910390fd5b816000806101000a81548160ff021916908360ff160217905550600190505b919050565b6000808273ffffffffffffffffffffffffffffffffffffffff163b119050919050565b600080fd5b600080fd5b600073ffffffffffffffffffffffffffffffffffffffff82169050919050565b60006118e8826118bd565b9050919050565b6118f8816118dd565b811461190357600080fd5b50565b600081359050611915816118ef565b92915050565b6000819050919050565b61192e8161191b565b811461193957600080fd5b50565b60008135905061194b81611925565b92915050565b600080fd5b600080fd5b600080fd5b60008083601f84011261197657611975611951565b5b8235905067ffffffffffffffff81111561199357611992611956565b5b6020830191508360018202830111156119af576119ae61195b565b5b9250929050565b60008060008060008060008060c0898b0312156119d6576119d56118b3565b5b60006119e48b828c01611906565b98505060206119f58b828c01611906565b9750506040611a068b828c01611906565b9650506060611a178b828c0161193c565b955050608089013567ffffffffffffffff811115611a3857611a376118b8565b5b611a448b828c01611960565b945094505060a089013567ffffffffffffffff811115611a6757611a666118b8565b5b611a738b828c01611960565b92509250509295985092959890939650565b6000819050919050565b611a9881611a85565b8114611aa357600080fd5b50565b600081359050611ab581611a8f565b92915050565b60008060408385031215611ad257611ad16118b3565b5b6000611ae085828601611aa6565b9250506020611af185828601611906565b9150509250929050565b611b0481611a85565b82525050565b6000602082019050611b1f6000830184611afb565b92915050565b600060208284031215611b3b57611b3a6118b3565b5b6000611b498482850161193c565b91505092915050565b6000819050919050565b6000611b77611b72611b6d846118bd565b611b52565b6118bd565b9050919050565b6000611b8982611b5c565b9050919050565b6000611b9b82611b7e565b9050919050565b611bab81611b90565b82525050565b6000602082019050611bc66000830184611ba2565b92915050565b60008083601f840112611be257611be1611951565b5b8235905067ffffffffffffffff811115611bff57611bfe611956565b5b602083019150836020820283011115611c1b57611c1a61195b565b5b9250929050565b60008060208385031215611c3957611c386118b3565b5b600083013567ffffffffffffffff811115611c5757611c566118b8565b5b611c6385828601611bcc565b92509250509250929050565b6000611c7a82611b7e565b9050919050565b611c8a81611c6f565b82525050565b6000602082019050611ca56000830184611c81565b92915050565b600060208284031215611cc157611cc06118b3565b5b6000611ccf84828501611906565b91505092915050565b6000611ce3826118dd565b9050919050565b611cf381611cd8565b8114611cfe57600080fd5b50565b600081359050611d1081611cea565b92915050565b600060208284031215611d2c57611d2b6118b3565b5b6000611d3a84828501611d01565b91505092915050565b611d4c8161191b565b82525050565b6000602082019050611d676000830184611d43565b92915050565b611d76816118dd565b82525050565b6000602082019050611d916000830184611d6d565b92915050565b600082825260208201905092915050565b7f486173206e6f74207374616b6564000000000000000000000000000000000000600082015250565b6000611dde600e83611d97565b9150611de982611da8565b602082019050919050565b60006020820190508181036000830152611e0d81611dd1565b9050919050565b7f4e487b7100000000000000000000000000000000000000000000000000000000600052601160045260246000fd5b6000611e4e8261191b565b9150611e598361191b565b9250827fffffffffffffffffffffffffffffffffffffffffffffffffffffffffffffffff03821115611e8e57611e8d611e14565b5b828201905092915050565b6000611ea48261191b565b9150611eaf8361191b565b925082821015611ec257611ec1611e14565b5b828203905092915050565b7f43616e6e6f7420756e7374616b65206d6f7265207468616e20746f74616c207360008201527f74616b656420616d6f756e740000000000000000000000000000000000000000602082015250565b6000611f29602c83611d97565b9150611f3482611ecd565b604082019050919050565b60006020820190508181036000830152611f5881611f1c565b9050919050565b7f4e6f20756e7374616b6520746f2063616e63656c000000000000000000000000600082015250565b6000611f95601483611d97565b9150611fa082611f5f565b602082019050919050565b60006020820190508181036000830152611fc481611f88565b9050919050565b7f4e487b7100000000000000000000000000000000000000000000000000000000600052603260045260246000fd5b60006120058261191b565b91507fffffffffffffffffffffffffffffffffffffffffffffffffffffffffffffffff82141561203857612037611e14565b5b600182019050919050565b600082825260208201905092915050565b7f5374616b652064697370656e73616c0000000000000000000000000000000000600082015250565b600061208a600f83612043565b915061209582612054565b602082019050919050565b60006060820190506120b56000830185611d6d565b6120c26020830184611d43565b81810360408301526120d38161207d565b90509392505050565b7f53656e6465722069732030206164647265737300000000000000000000000000600082015250565b6000612112601383611d97565b915061211d826120dc565b602082019050919050565b6000602082019050818103600083015261214181612105565b9050919050565b600060408201905061215d6000830185611d6d565b61216a6020830184611d6d565b9392505050565b60008115159050919050565b61218681612171565b811461219157600080fd5b50565b6000815190506121a38161217d565b92915050565b6000602082840312156121bf576121be6118b3565b5b60006121cd84828501612194565b91505092915050565b7f5374616b696e6720636f6e7472616374206973206e6f7420616e206f7065726160008201527f746f7220666f7220746869732061646472657373000000000000000000000000602082015250565b6000612232603483611d97565b915061223d826121d6565b604082019050919050565b6000602082019050818103600083015261226181612225565b9050919050565b7f436f766579205374616b65000000000000000000000000000000000000000000600082015250565b600061229e600b83612043565b91506122a982612268565b602082019050919050565b50565b60006122c4600083612043565b91506122cf826122b4565b600082019050919050565b600060a0820190506122ef6000830186611d6d565b6122fc6020830185611d6d565b6123096040830184611d43565b818103606083015261231a81612291565b9050818103608083015261232d816122b7565b9050949350505050565b600060608201905061234c6000830186611d6d565b6123596020830185611afb565b6123666040830184611d6d565b949350505050565b6000819050919050565b600060ff82169050919050565b60006123a061239b6123968461236e565b611b52565b612378565b9050919050565b6123b081612385565b82525050565b60006020820190506123cb60008301846123a7565b92915050565b7f496e697469616c697a61626c653a20636f6e747261637420697320616c72656160008201527f647920696e697469616c697a6564000000000000000000000000000000000000602082015250565b600061242d602e83611d97565b9150612438826123d1565b604082019050919050565b6000602082019050818103600083015261245c81612420565b905091905056fea2646970667358221220ad2b473e565ead3a0374975468e3d570859ad7e45dd5a4d5ff9d317f264c8c5364736f6c634300080b0033",
  "immutableReferences": {},
  "source": "pragma solidity ^0.8.11;\n\nimport \"@openzeppelin/contracts/utils/math/SafeMath.sol\";\nimport \"@openzeppelin/contracts/access/Ownable.sol\";\nimport \"@openzeppelin/contracts/token/ERC777/IERC777.sol\";\nimport '@openzeppelin/contracts-upgradeable/proxy/utils/Initializable.sol';\nimport \"@openzeppelin/contracts/token/ERC777/IERC777Sender.sol\";\nimport \"@openzeppelin/contracts/token/ERC777/IERC777Recipient.sol\";\nimport \"@openzeppelin/contracts/interfaces/IERC1820Registry.sol\";\nimport \"@openzeppelin/contracts/utils/introspection/ERC1820Implementer.sol\";\n\ncontract CoveyStaking is Initializable, IERC777Recipient, IERC777Sender, ERC1820Implementer  {\n  IERC777 public stakingToken;\n\n  address owner;\n\n\n  mapping(address => uint) private _stakedAmounts;\n\n  mapping(address => uint) private _unstakedAmounts;\n\n  address[] public stakers;\n\n  IERC1820Registry public registry;\n    \n    // keccak256('ERC777TokensRecipient')\n    bytes32 constant private TOKENS_RECIPIENT_INTERFACE_HASH\n        = 0xb281fc8c12954d22544db45de3159a39272895b169a852b314f9cc762e44c53b;\n\n\n   // keccak256(\"ERC777TokensSender\")\n    bytes32 constant private TOKENS_SENDER_INTERFACE_HASH =\n        0x29ddb589b1fb5fc7cf394961c1adf5f8c6454761adf795e67fe149f658abe895;\n\n  event Staked(address indexed _adr, uint amount);\n  \n  event Unstaked(address indexed _adr, uint amount);\n\n  event TotalStaked(address indexed _adr, uint amount);\n  \n  event TotalUnstaked(address indexed _adr, uint amount);\n\n  event CancelledUnstake(address indexed _adr);\n\n  event Bankrupt(address indexed _adr, uint amountLost);\n\n  event StakeDispensed(address indexed _adr, uint amountDispensed);\n\n  modifier onlyOwner {\n      require(msg.sender == owner);\n      _;\n  }\n\n  function initialize(IERC777 _stakingToken) public initializer {\n        owner = msg.sender;\n        stakingToken = _stakingToken;\n\n        registry = IERC1820Registry(0x1820a4B7618BdE71Dce8cdc73aAB6C95905faD24);\n\n        registry.setInterfaceImplementer(\n            address(this),\n            TOKENS_RECIPIENT_INTERFACE_HASH,\n            address(this)\n        );\n    }\n\n   function tokensReceived(\n        address operator,\n        address from,\n        address to,\n        uint256 amount,\n        bytes calldata userData,\n        bytes calldata operatorData\n    ) external {\n\n    }\n\n    function tokensToSend(\n        address operator,\n        address from,\n        address to,\n        uint256 amount,\n        bytes calldata userData,\n        bytes calldata operatorData\n    ) external {}\n\n    function registerHookForAccount(address account) public {\n        _registerInterfaceForAddress(\n            TOKENS_SENDER_INTERFACE_HASH,\n            account\n        );\n    }\n\n  function stake(uint amount) public {\n      require(msg.sender != address(0), \"Sender is 0 address\");\n      require(stakingToken.isOperatorFor(address(this), msg.sender), \"Staking contract is not an operator for this address\");\n\n      stakingToken.operatorSend(msg.sender, address(this), amount, \"Covey Stake\", \"\");\n      _stakedAmounts[msg.sender] +=  amount;\n      stakers.push(msg.sender);\n      emit Staked(msg.sender, amount);\n      emit TotalStaked(msg.sender, _stakedAmounts[msg.sender]);\n  }\n\n  function unstake(uint amount) public {\n      require(_stakedAmounts[msg.sender] != 0, \"Has not staked\");\n      require(_stakedAmounts[msg.sender] - (_unstakedAmounts[msg.sender] + amount) >= 0, \"Cannot unstake more than total staked amount\");\n      _unstakedAmounts[msg.sender] += amount;\n      emit Unstaked(msg.sender, amount);\n      emit TotalUnstaked(msg.sender, _unstakedAmounts[msg.sender]);\n  }\n\n  function cancelUnstake() public {\n      require(_unstakedAmounts[msg.sender] > 0, \"No unstake to cancel\");\n      delete _unstakedAmounts[msg.sender];\n      emit CancelledUnstake(msg.sender);\n  }\n\n  function getTotalStaked(address _adr) public view returns(uint) {\n      return _stakedAmounts[_adr];\n  }\n\n  function getTotalUnstaked(address _adr) public view returns(uint) {\n      return _unstakedAmounts[_adr];\n  }\n\n  function dispenseStakes(address[] calldata bankruptAddresses) public onlyOwner {\n      for(uint i = 0; i < stakers.length; i++) {\n          bool isBankrupt = false;\n          for(uint j = 0; j < bankruptAddresses.length; j++) {\n                if(bankruptAddresses[j] == stakers[i]) {\n                    isBankrupt = true;\n                }\n            }\n\n          if(isBankrupt == true) {\n              emit Bankrupt(stakers[i], _stakedAmounts[stakers[i]]);\n              delete _unstakedAmounts[stakers[i]];\n              delete _stakedAmounts[stakers[i]];\n              delete stakers[i]; \n          } else if( _unstakedAmounts[stakers[i]] > 0 && isBankrupt == false) {\n              stakingToken.send(stakers[i], _unstakedAmounts[stakers[i]], \"Stake dispensal\");\n              emit StakeDispensed(stakers[i], _unstakedAmounts[stakers[i]]);\n              _stakedAmounts[stakers[i]] = _stakedAmounts[stakers[i]] - _unstakedAmounts[stakers[i]];\n              _unstakedAmounts[stakers[i]] = 0;\n\n              if(_stakedAmounts[stakers[i]] <= 0) {\n                  delete stakers[i];\n              }\n          }\n      }\n  }\n\n\n}",
  "sourcePath": "C:\\Users\\jcara\\Documents\\repos\\covey-token\\contracts\\CoveyStaking.sol",
  "compiler": {
    "name": "solc",
    "version": "0.8.11+commit.d7f03943.Emscripten.clang"
  },
  "schemaVersion": "3.4.4",
  "updatedAt": "2022-05-27T13:30:03.657Z",
  "networkType": "ethereum",
  "devdoc": {
    "kind": "dev",
    "methods": {
      "canImplementInterfaceForAddress(bytes32,address)": {
        "details": "See {IERC1820Implementer-canImplementInterfaceForAddress}."
      },
      "tokensReceived(address,address,address,uint256,bytes,bytes)": {
        "details": "Called by an {IERC777} token contract whenever tokens are being moved or created into a registered account (`to`). The type of operation is conveyed by `from` being the zero address or not. This call occurs _after_ the token contract's state is updated, so {IERC777-balanceOf}, etc., can be used to query the post-operation state. This function may revert to prevent the operation from being executed."
      },
      "tokensToSend(address,address,address,uint256,bytes,bytes)": {
        "details": "Called by an {IERC777} token contract whenever a registered holder's (`from`) tokens are about to be moved or destroyed. The type of operation is conveyed by `to` being the zero address or not. This call occurs _before_ the token contract's state is updated, so {IERC777-balanceOf}, etc., can be used to query the pre-operation state. This function may revert to prevent the operation from being executed."
      }
    },
    "version": 1
  },
  "userdoc": {
    "kind": "user",
    "methods": {},
    "version": 1
  }
}