{
  "contractName": "CoveyStaking",
  "abi": [
    {
      "anonymous": false,
      "inputs": [
        {
          "indexed": true,
          "internalType": "address",
          "name": "_adr",
          "type": "address"
        },
        {
          "indexed": false,
          "internalType": "uint256",
          "name": "amountLost",
          "type": "uint256"
        }
      ],
      "name": "Bankrupt",
      "type": "event"
    },
    {
      "anonymous": false,
      "inputs": [
        {
          "indexed": true,
          "internalType": "address",
          "name": "_adr",
          "type": "address"
        }
      ],
      "name": "CancelledUnstake",
      "type": "event"
    },
    {
      "anonymous": false,
      "inputs": [
        {
          "indexed": false,
          "internalType": "uint8",
          "name": "version",
          "type": "uint8"
        }
      ],
      "name": "Initialized",
      "type": "event"
    },
    {
      "anonymous": false,
      "inputs": [
        {
          "indexed": true,
          "internalType": "address",
          "name": "_adr",
          "type": "address"
        },
        {
          "indexed": false,
          "internalType": "uint256",
          "name": "amountDispensed",
          "type": "uint256"
        }
      ],
      "name": "StakeDispensed",
      "type": "event"
    },
    {
      "anonymous": false,
      "inputs": [
        {
          "indexed": true,
          "internalType": "address",
          "name": "_adr",
          "type": "address"
        },
        {
          "indexed": false,
          "internalType": "uint256",
          "name": "amount",
          "type": "uint256"
        }
      ],
      "name": "Staked",
      "type": "event"
    },
    {
      "anonymous": false,
      "inputs": [
        {
          "indexed": true,
          "internalType": "address",
          "name": "_adr",
          "type": "address"
        },
        {
          "indexed": false,
          "internalType": "uint256",
          "name": "amount",
          "type": "uint256"
        }
      ],
      "name": "Unstaked",
      "type": "event"
    },
    {
      "inputs": [
        {
          "internalType": "bytes32",
          "name": "interfaceHash",
          "type": "bytes32"
        },
        {
          "internalType": "address",
          "name": "account",
          "type": "address"
        }
      ],
      "name": "canImplementInterfaceForAddress",
      "outputs": [
        {
          "internalType": "bytes32",
          "name": "",
          "type": "bytes32"
        }
      ],
      "stateMutability": "view",
      "type": "function"
    },
    {
      "inputs": [],
      "name": "registry",
      "outputs": [
        {
          "internalType": "contract IERC1820Registry",
          "name": "",
          "type": "address"
        }
      ],
      "stateMutability": "view",
      "type": "function"
    },
    {
      "inputs": [
        {
          "internalType": "uint256",
          "name": "",
          "type": "uint256"
        }
      ],
      "name": "stakers",
      "outputs": [
        {
          "internalType": "address",
          "name": "",
          "type": "address"
        }
      ],
      "stateMutability": "view",
      "type": "function"
    },
    {
      "inputs": [],
      "name": "stakingToken",
      "outputs": [
        {
          "internalType": "contract IERC777",
          "name": "",
          "type": "address"
        }
      ],
      "stateMutability": "view",
      "type": "function"
    },
    {
      "inputs": [
        {
          "internalType": "contract IERC777",
          "name": "_stakingToken",
          "type": "address"
        }
      ],
      "name": "initialize",
      "outputs": [],
      "stateMutability": "nonpayable",
      "type": "function"
    },
    {
      "inputs": [
        {
          "internalType": "address",
          "name": "operator",
          "type": "address"
        },
        {
          "internalType": "address",
          "name": "from",
          "type": "address"
        },
        {
          "internalType": "address",
          "name": "to",
          "type": "address"
        },
        {
          "internalType": "uint256",
          "name": "amount",
          "type": "uint256"
        },
        {
          "internalType": "bytes",
          "name": "userData",
          "type": "bytes"
        },
        {
          "internalType": "bytes",
          "name": "operatorData",
          "type": "bytes"
        }
      ],
      "name": "tokensReceived",
      "outputs": [],
      "stateMutability": "nonpayable",
      "type": "function"
    },
    {
      "inputs": [
        {
          "internalType": "address",
          "name": "operator",
          "type": "address"
        },
        {
          "internalType": "address",
          "name": "from",
          "type": "address"
        },
        {
          "internalType": "address",
          "name": "to",
          "type": "address"
        },
        {
          "internalType": "uint256",
          "name": "amount",
          "type": "uint256"
        },
        {
          "internalType": "bytes",
          "name": "userData",
          "type": "bytes"
        },
        {
          "internalType": "bytes",
          "name": "operatorData",
          "type": "bytes"
        }
      ],
      "name": "tokensToSend",
      "outputs": [],
      "stateMutability": "nonpayable",
      "type": "function"
    },
    {
      "inputs": [
        {
          "internalType": "address",
          "name": "account",
          "type": "address"
        }
      ],
      "name": "registerHookForAccount",
      "outputs": [],
      "stateMutability": "nonpayable",
      "type": "function"
    },
    {
      "inputs": [
        {
          "internalType": "uint256",
          "name": "amount",
          "type": "uint256"
        }
      ],
      "name": "stake",
      "outputs": [],
      "stateMutability": "nonpayable",
      "type": "function"
    },
    {
      "inputs": [
        {
          "internalType": "uint256",
          "name": "amount",
          "type": "uint256"
        }
      ],
      "name": "unstake",
      "outputs": [],
      "stateMutability": "nonpayable",
      "type": "function"
    },
    {
      "inputs": [],
      "name": "cancelUnstake",
      "outputs": [],
      "stateMutability": "nonpayable",
      "type": "function"
    },
    {
      "inputs": [],
      "name": "getTotalStaked",
      "outputs": [
        {
          "internalType": "uint256",
          "name": "",
          "type": "uint256"
        }
      ],
      "stateMutability": "view",
      "type": "function"
    },
    {
      "inputs": [],
      "name": "getTotalUnstaked",
      "outputs": [
        {
          "internalType": "uint256",
          "name": "",
          "type": "uint256"
        }
      ],
      "stateMutability": "view",
      "type": "function"
    },
    {
      "inputs": [
        {
          "internalType": "address[]",
          "name": "bankruptAddresses",
          "type": "address[]"
        }
      ],
      "name": "dispenseStakes",
      "outputs": [],
      "stateMutability": "nonpayable",
      "type": "function"
    }
  ],
  "bytecode": "0x608060405234801561001057600080fd5b506120f5806100206000396000f3fe608060405234801561001057600080fd5b50600436106100e95760003560e01c806375ab97821161008c578063a75036b611610066578063a75036b61461020e578063c4d66de81461022a578063f01a9d9314610246578063fd5e6dd114610264576100e9565b806375ab9782146101b85780637b103999146101d4578063a694fc3a146101f2576100e9565b80632e17de78116100c85780632e17de78146101585780634ab179691461017457806372f702f31461017e578063739cead91461019c576100e9565b806223de29146100ee5780630917e7761461010a578063249cb3fa14610128575b600080fd5b610108600480360381019061010391906116f0565b610294565b005b61011261029e565b60405161011f91906117ce565b60405180910390f35b610142600480360381019061013d919061181f565b6102e5565b60405161014f919061186e565b60405180910390f35b610172600480360381019061016d9190611889565b61037c565b005b61017c61056c565b005b610186610676565b6040516101939190611915565b60405180910390f35b6101b660048036038101906101b19190611a7f565b61069c565b005b6101d260048036038101906101cd91906116f0565b610f95565b005b6101dc610f9f565b6040516101e99190611ae9565b60405180910390f35b61020c60048036038101906102079190611889565b610fc5565b005b61022860048036038101906102239190611b04565b611196565b005b610244600480360381019061023f9190611b6f565b6111c6565b005b61024e6113de565b60405161025b91906117ce565b60405180910390f35b61027e60048036038101906102799190611889565b611425565b60405161028b9190611bab565b60405180910390f35b5050505050505050565b6000600460003373ffffffffffffffffffffffffffffffffffffffff1673ffffffffffffffffffffffffffffffffffffffff16815260200190815260200160002054905090565b60006001600084815260200190815260200160002060008373ffffffffffffffffffffffffffffffffffffffff1673ffffffffffffffffffffffffffffffffffffffff16815260200190815260200160002060009054906101000a900460ff16610352576000801b610374565b7fa2ef4600d742022d532d4747cb3547474667d6f13804902513b2ec01c848f4b45b905092915050565b6000600460003373ffffffffffffffffffffffffffffffffffffffff1673ffffffffffffffffffffffffffffffffffffffff1681526020019081526020016000205414156103ff576040517f08c379a00000000000000000000000000000000000000000000000000000000081526004016103f690611c23565b60405180910390fd5b600081600460003373ffffffffffffffffffffffffffffffffffffffff1673ffffffffffffffffffffffffffffffffffffffff1681526020019081526020016000205461044c9190611c72565b101561048d576040517f08c379a000000000000000000000000000000000000000000000000000000000815260040161048490611d18565b60405180910390fd5b80600560003373ffffffffffffffffffffffffffffffffffffffff1673ffffffffffffffffffffffffffffffffffffffff168152602001908152602001600020546104d89190611d38565b600560003373ffffffffffffffffffffffffffffffffffffffff1673ffffffffffffffffffffffffffffffffffffffff168152602001908152602001600020819055503373ffffffffffffffffffffffffffffffffffffffff167f0f5bb82176feb1b5e747e28471aa92156a04d9f3ab9f45f28e2d704232b93f758260405161056191906117ce565b60405180910390a250565b6000600560003373ffffffffffffffffffffffffffffffffffffffff1673ffffffffffffffffffffffffffffffffffffffff16815260200190815260200160002054116105ee576040517f08c379a00000000000000000000000000000000000000000000000000000000081526004016105e590611dda565b60405180910390fd5b600560003373ffffffffffffffffffffffffffffffffffffffff1673ffffffffffffffffffffffffffffffffffffffff168152602001908152602001600020600090553373ffffffffffffffffffffffffffffffffffffffff167f450cc0f663f8ded0053aeca240ef53a2f4b93c5c3aa067e8e45155e823ceaa7a60405160405180910390a2565b600260009054906101000a900473ffffffffffffffffffffffffffffffffffffffff1681565b600360009054906101000a900473ffffffffffffffffffffffffffffffffffffffff1673ffffffffffffffffffffffffffffffffffffffff163373ffffffffffffffffffffffffffffffffffffffff16146106f657600080fd5b60005b600680549050811015610f91576000805b83518110156107b7576006838154811061072757610726611dfa565b5b9060005260206000200160009054906101000a900473ffffffffffffffffffffffffffffffffffffffff1673ffffffffffffffffffffffffffffffffffffffff1684828151811061077b5761077a611dfa565b5b602002602001015173ffffffffffffffffffffffffffffffffffffffff1614156107a457600191505b80806107af90611e29565b91505061070a565b5080156109d15760056000600684815481106107d6576107d5611dfa565b5b9060005260206000200160009054906101000a900473ffffffffffffffffffffffffffffffffffffffff1673ffffffffffffffffffffffffffffffffffffffff1673ffffffffffffffffffffffffffffffffffffffff16815260200190815260200160002060009055600460006006848154811061085757610856611dfa565b5b9060005260206000200160009054906101000a900473ffffffffffffffffffffffffffffffffffffffff1673ffffffffffffffffffffffffffffffffffffffff1673ffffffffffffffffffffffffffffffffffffffff16815260200190815260200160002060009055600682815481106108d4576108d3611dfa565b5b9060005260206000200160006101000a81549073ffffffffffffffffffffffffffffffffffffffff02191690556006828154811061091557610914611dfa565b5b9060005260206000200160009054906101000a900473ffffffffffffffffffffffffffffffffffffffff1673ffffffffffffffffffffffffffffffffffffffff167f7fe451685bab7a17da665cc038b4635412b8d788bb692963f88e35eba15ae175600460003373ffffffffffffffffffffffffffffffffffffffff1673ffffffffffffffffffffffffffffffffffffffff168152602001908152602001600020546040516109c491906117ce565b60405180910390a2610f7d565b600060056000600685815481106109eb576109ea611dfa565b5b9060005260206000200160009054906101000a900473ffffffffffffffffffffffffffffffffffffffff1673ffffffffffffffffffffffffffffffffffffffff1673ffffffffffffffffffffffffffffffffffffffff168152602001908152602001600020541115610f7c57600260009054906101000a900473ffffffffffffffffffffffffffffffffffffffff1673ffffffffffffffffffffffffffffffffffffffff16639bd9bbc660068481548110610aa957610aa8611dfa565b5b9060005260206000200160009054906101000a900473ffffffffffffffffffffffffffffffffffffffff166005600060068781548110610aec57610aeb611dfa565b5b9060005260206000200160009054906101000a900473ffffffffffffffffffffffffffffffffffffffff1673ffffffffffffffffffffffffffffffffffffffff1673ffffffffffffffffffffffffffffffffffffffff168152602001908152602001600020546040518363ffffffff1660e01b8152600401610b6f929190611ecf565b600060405180830381600087803b158015610b8957600080fd5b505af1158015610b9d573d6000803e3d6000fd5b505050506005600060068481548110610bb957610bb8611dfa565b5b9060005260206000200160009054906101000a900473ffffffffffffffffffffffffffffffffffffffff1673ffffffffffffffffffffffffffffffffffffffff1673ffffffffffffffffffffffffffffffffffffffff168152602001908152602001600020546004600060068581548110610c3757610c36611dfa565b5b9060005260206000200160009054906101000a900473ffffffffffffffffffffffffffffffffffffffff1673ffffffffffffffffffffffffffffffffffffffff1673ffffffffffffffffffffffffffffffffffffffff16815260200190815260200160002054610ca79190611c72565b6004600060068581548110610cbf57610cbe611dfa565b5b9060005260206000200160009054906101000a900473ffffffffffffffffffffffffffffffffffffffff1673ffffffffffffffffffffffffffffffffffffffff1673ffffffffffffffffffffffffffffffffffffffff1681526020019081526020016000208190555060006005600060068581548110610d4257610d41611dfa565b5b9060005260206000200160009054906101000a900473ffffffffffffffffffffffffffffffffffffffff1673ffffffffffffffffffffffffffffffffffffffff1673ffffffffffffffffffffffffffffffffffffffff1681526020019081526020016000208190555060006004600060068581548110610dc557610dc4611dfa565b5b9060005260206000200160009054906101000a900473ffffffffffffffffffffffffffffffffffffffff1673ffffffffffffffffffffffffffffffffffffffff1673ffffffffffffffffffffffffffffffffffffffff1681526020019081526020016000205411610e725760068281548110610e4457610e43611dfa565b5b9060005260206000200160006101000a81549073ffffffffffffffffffffffffffffffffffffffff02191690555b60068281548110610e8657610e85611dfa565b5b9060005260206000200160009054906101000a900473ffffffffffffffffffffffffffffffffffffffff1673ffffffffffffffffffffffffffffffffffffffff167f9b4c90d41aa819dadecbb2e126e6dc2e01be4402acc99ec60248131a3f59576c6005600060068681548110610f0057610eff611dfa565b5b9060005260206000200160009054906101000a900473ffffffffffffffffffffffffffffffffffffffff1673ffffffffffffffffffffffffffffffffffffffff1673ffffffffffffffffffffffffffffffffffffffff16815260200190815260200160002054604051610f7391906117ce565b60405180910390a25b5b508080610f8990611e29565b9150506106f9565b5050565b5050505050505050565b600760009054906101000a900473ffffffffffffffffffffffffffffffffffffffff1681565b600260009054906101000a900473ffffffffffffffffffffffffffffffffffffffff1673ffffffffffffffffffffffffffffffffffffffff16639bd9bbc630836040518363ffffffff1660e01b8152600401611022929190611f57565b600060405180830381600087803b15801561103c57600080fd5b505af1158015611050573d6000803e3d6000fd5b5050505080600460003373ffffffffffffffffffffffffffffffffffffffff1673ffffffffffffffffffffffffffffffffffffffff1681526020019081526020016000205461109f9190611d38565b600460003373ffffffffffffffffffffffffffffffffffffffff1673ffffffffffffffffffffffffffffffffffffffff168152602001908152602001600020819055506006339080600181540180825580915050600190039060005260206000200160009091909190916101000a81548173ffffffffffffffffffffffffffffffffffffffff021916908373ffffffffffffffffffffffffffffffffffffffff1602179055503373ffffffffffffffffffffffffffffffffffffffff167f9e71bc8eea02a63969f509818f2dafb9254532904319f9dbda79b67bd34a5f3d8260405161118b91906117ce565b60405180910390a250565b6111c37f29ddb589b1fb5fc7cf394961c1adf5f8c6454761adf795e67fe149f658abe89560001b82611464565b50565b60006111d260016114d0565b905080156111f6576001600060016101000a81548160ff0219169083151502179055505b33600360006101000a81548173ffffffffffffffffffffffffffffffffffffffff021916908373ffffffffffffffffffffffffffffffffffffffff16021790555081600260006101000a81548173ffffffffffffffffffffffffffffffffffffffff021916908373ffffffffffffffffffffffffffffffffffffffff160217905550731820a4b7618bde71dce8cdc73aab6c95905fad24600760006101000a81548173ffffffffffffffffffffffffffffffffffffffff021916908373ffffffffffffffffffffffffffffffffffffffff160217905550600760009054906101000a900473ffffffffffffffffffffffffffffffffffffffff1673ffffffffffffffffffffffffffffffffffffffff166329965a1d307fb281fc8c12954d22544db45de3159a39272895b169a852b314f9cc762e44c53b60001b306040518463ffffffff1660e01b815260040161134f93929190611f93565b600060405180830381600087803b15801561136957600080fd5b505af115801561137d573d6000803e3d6000fd5b5050505080156113da5760008060016101000a81548160ff0219169083151502179055507f7f26b83ff96e1f2b6a682f133852f6798a09c465da95921460cefb384740249860016040516113d19190612012565b60405180910390a15b5050565b6000600560003373ffffffffffffffffffffffffffffffffffffffff1673ffffffffffffffffffffffffffffffffffffffff16815260200190815260200160002054905090565b6006818154811061143557600080fd5b906000526020600020016000915054906101000a900473ffffffffffffffffffffffffffffffffffffffff1681565b600180600084815260200190815260200160002060008373ffffffffffffffffffffffffffffffffffffffff1673ffffffffffffffffffffffffffffffffffffffff16815260200190815260200160002060006101000a81548160ff0219169083151502179055505050565b60008060019054906101000a900460ff16156115475760018260ff161480156114ff57506114fd306115c0565b155b61153e576040517f08c379a00000000000000000000000000000000000000000000000000000000081526004016115359061209f565b60405180910390fd5b600090506115bb565b8160ff1660008054906101000a900460ff1660ff161061159c576040517f08c379a00000000000000000000000000000000000000000000000000000000081526004016115939061209f565b60405180910390fd5b816000806101000a81548160ff021916908360ff160217905550600190505b919050565b6000808273ffffffffffffffffffffffffffffffffffffffff163b119050919050565b6000604051905090565b600080fd5b600080fd5b600073ffffffffffffffffffffffffffffffffffffffff82169050919050565b6000611622826115f7565b9050919050565b61163281611617565b811461163d57600080fd5b50565b60008135905061164f81611629565b92915050565b6000819050919050565b61166881611655565b811461167357600080fd5b50565b6000813590506116858161165f565b92915050565b600080fd5b600080fd5b600080fd5b60008083601f8401126116b0576116af61168b565b5b8235905067ffffffffffffffff8111156116cd576116cc611690565b5b6020830191508360018202830111156116e9576116e8611695565b5b9250929050565b60008060008060008060008060c0898b0312156117105761170f6115ed565b5b600061171e8b828c01611640565b985050602061172f8b828c01611640565b97505060406117408b828c01611640565b96505060606117518b828c01611676565b955050608089013567ffffffffffffffff811115611772576117716115f2565b5b61177e8b828c0161169a565b945094505060a089013567ffffffffffffffff8111156117a1576117a06115f2565b5b6117ad8b828c0161169a565b92509250509295985092959890939650565b6117c881611655565b82525050565b60006020820190506117e360008301846117bf565b92915050565b6000819050919050565b6117fc816117e9565b811461180757600080fd5b50565b600081359050611819816117f3565b92915050565b60008060408385031215611836576118356115ed565b5b60006118448582860161180a565b925050602061185585828601611640565b9150509250929050565b611868816117e9565b82525050565b6000602082019050611883600083018461185f565b92915050565b60006020828403121561189f5761189e6115ed565b5b60006118ad84828501611676565b91505092915050565b6000819050919050565b60006118db6118d66118d1846115f7565b6118b6565b6115f7565b9050919050565b60006118ed826118c0565b9050919050565b60006118ff826118e2565b9050919050565b61190f816118f4565b82525050565b600060208201905061192a6000830184611906565b92915050565b6000601f19601f8301169050919050565b7f4e487b7100000000000000000000000000000000000000000000000000000000600052604160045260246000fd5b61197982611930565b810181811067ffffffffffffffff8211171561199857611997611941565b5b80604052505050565b60006119ab6115e3565b90506119b78282611970565b919050565b600067ffffffffffffffff8211156119d7576119d6611941565b5b602082029050602081019050919050565b60006119fb6119f6846119bc565b6119a1565b90508083825260208201905060208402830185811115611a1e57611a1d611695565b5b835b81811015611a475780611a338882611640565b845260208401935050602081019050611a20565b5050509392505050565b600082601f830112611a6657611a6561168b565b5b8135611a768482602086016119e8565b91505092915050565b600060208284031215611a9557611a946115ed565b5b600082013567ffffffffffffffff811115611ab357611ab26115f2565b5b611abf84828501611a51565b91505092915050565b6000611ad3826118e2565b9050919050565b611ae381611ac8565b82525050565b6000602082019050611afe6000830184611ada565b92915050565b600060208284031215611b1a57611b196115ed565b5b6000611b2884828501611640565b91505092915050565b6000611b3c82611617565b9050919050565b611b4c81611b31565b8114611b5757600080fd5b50565b600081359050611b6981611b43565b92915050565b600060208284031215611b8557611b846115ed565b5b6000611b9384828501611b5a565b91505092915050565b611ba581611617565b82525050565b6000602082019050611bc06000830184611b9c565b92915050565b600082825260208201905092915050565b7f486173206e6f74207374616b6564000000000000000000000000000000000000600082015250565b6000611c0d600e83611bc6565b9150611c1882611bd7565b602082019050919050565b60006020820190508181036000830152611c3c81611c00565b9050919050565b7f4e487b7100000000000000000000000000000000000000000000000000000000600052601160045260246000fd5b6000611c7d82611655565b9150611c8883611655565b925082821015611c9b57611c9a611c43565b5b828203905092915050565b7f43616e6e6f7420756e7374616b65206d6f7265207468616e20746f74616c207360008201527f74616b656420616d6f756e740000000000000000000000000000000000000000602082015250565b6000611d02602c83611bc6565b9150611d0d82611ca6565b604082019050919050565b60006020820190508181036000830152611d3181611cf5565b9050919050565b6000611d4382611655565b9150611d4e83611655565b9250827fffffffffffffffffffffffffffffffffffffffffffffffffffffffffffffffff03821115611d8357611d82611c43565b5b828201905092915050565b7f4e6f20756e7374616b6520746f2063616e63656c000000000000000000000000600082015250565b6000611dc4601483611bc6565b9150611dcf82611d8e565b602082019050919050565b60006020820190508181036000830152611df381611db7565b9050919050565b7f4e487b7100000000000000000000000000000000000000000000000000000000600052603260045260246000fd5b6000611e3482611655565b91507fffffffffffffffffffffffffffffffffffffffffffffffffffffffffffffffff821415611e6757611e66611c43565b5b600182019050919050565b600082825260208201905092915050565b7f5374616b652064697370656e73616c0000000000000000000000000000000000600082015250565b6000611eb9600f83611e72565b9150611ec482611e83565b602082019050919050565b6000606082019050611ee46000830185611b9c565b611ef160208301846117bf565b8181036040830152611f0281611eac565b90509392505050565b7f436f766579205374616b65000000000000000000000000000000000000000000600082015250565b6000611f41600b83611e72565b9150611f4c82611f0b565b602082019050919050565b6000606082019050611f6c6000830185611b9c565b611f7960208301846117bf565b8181036040830152611f8a81611f34565b90509392505050565b6000606082019050611fa86000830186611b9c565b611fb5602083018561185f565b611fc26040830184611b9c565b949350505050565b6000819050919050565b600060ff82169050919050565b6000611ffc611ff7611ff284611fca565b6118b6565b611fd4565b9050919050565b61200c81611fe1565b82525050565b60006020820190506120276000830184612003565b92915050565b7f496e697469616c697a61626c653a20636f6e747261637420697320616c72656160008201527f647920696e697469616c697a6564000000000000000000000000000000000000602082015250565b6000612089602e83611bc6565b91506120948261202d565b604082019050919050565b600060208201905081810360008301526120b88161207c565b905091905056fea26469706673582212200d6895c1a88452698b21c4899c3b1e83185a4dd56fca45b6792dd07a7c9f79db64736f6c634300080b0033",
  "immutableReferences": {},
  "source": "pragma solidity ^0.8.11;\n\nimport \"@openzeppelin/contracts/utils/math/SafeMath.sol\";\nimport \"@openzeppelin/contracts/access/Ownable.sol\";\nimport \"@openzeppelin/contracts/token/ERC777/IERC777.sol\";\nimport '@openzeppelin/contracts-upgradeable/proxy/utils/Initializable.sol';\nimport \"@openzeppelin/contracts/token/ERC777/IERC777Sender.sol\";\nimport \"@openzeppelin/contracts/token/ERC777/IERC777Recipient.sol\";\nimport \"@openzeppelin/contracts/interfaces/IERC1820Registry.sol\";\nimport \"@openzeppelin/contracts/utils/introspection/ERC1820Implementer.sol\";\n\ncontract CoveyStaking is Initializable, IERC777Recipient, IERC777Sender, ERC1820Implementer  {\n  IERC777 public stakingToken;\n\n  address owner;\n\n\n  mapping(address => uint) private _stakedAmounts;\n\n  mapping(address => uint) private _unstakedAmounts;\n\n\n  address[] public stakers;\n\n  IERC1820Registry public registry;\n    \n    // keccak256('ERC777TokensRecipient')\n    bytes32 constant private TOKENS_RECIPIENT_INTERFACE_HASH\n        = 0xb281fc8c12954d22544db45de3159a39272895b169a852b314f9cc762e44c53b;\n\n\n   // keccak256(\"ERC777TokensSender\")\n    bytes32 constant private TOKENS_SENDER_INTERFACE_HASH =\n        0x29ddb589b1fb5fc7cf394961c1adf5f8c6454761adf795e67fe149f658abe895;\n\n  event Staked(address indexed _adr, uint amount);\n  \n  event Unstaked(address indexed _adr, uint amount);\n\n  event CancelledUnstake(address indexed _adr);\n\n  event Bankrupt(address indexed _adr, uint amountLost);\n\n  event StakeDispensed(address indexed _adr, uint amountDispensed);\n\n  modifier onlyOwner {\n      require(msg.sender == owner);\n      _;\n  }\n\n  function initialize(IERC777 _stakingToken) public initializer {\n        owner = msg.sender;\n        stakingToken = _stakingToken;\n\n        registry = IERC1820Registry(0x1820a4B7618BdE71Dce8cdc73aAB6C95905faD24);\n\n        registry.setInterfaceImplementer(\n            address(this),\n            TOKENS_RECIPIENT_INTERFACE_HASH,\n            address(this)\n        );\n    }\n\n   function tokensReceived(\n        address operator,\n        address from,\n        address to,\n        uint256 amount,\n        bytes calldata userData,\n        bytes calldata operatorData\n    ) external {\n\n    }\n\n    function tokensToSend(\n        address operator,\n        address from,\n        address to,\n        uint256 amount,\n        bytes calldata userData,\n        bytes calldata operatorData\n    ) external {}\n\n    function registerHookForAccount(address account) public {\n        _registerInterfaceForAddress(\n            TOKENS_SENDER_INTERFACE_HASH,\n            account\n        );\n    }\n\n  function stake(uint amount) public {\n      stakingToken.send(address(this), amount, \"Covey Stake\");\n      _stakedAmounts[msg.sender] = _stakedAmounts[msg.sender] + amount;\n      stakers.push(msg.sender);\n      emit Staked(msg.sender, amount);\n  }\n\n  function unstake(uint amount) public {\n      require(_stakedAmounts[msg.sender] != 0, \"Has not staked\");\n      require(_stakedAmounts[msg.sender] - amount >= 0, \"Cannot unstake more than total staked amount\");\n      _unstakedAmounts[msg.sender] = _unstakedAmounts[msg.sender] + amount;\n      emit Unstaked(msg.sender, amount);\n  }\n\n  function cancelUnstake() public {\n      require(_unstakedAmounts[msg.sender] > 0, \"No unstake to cancel\");\n      delete _unstakedAmounts[msg.sender];\n      emit CancelledUnstake(msg.sender);\n  }\n\n  function getTotalStaked() public view returns(uint) {\n      return _stakedAmounts[msg.sender];\n  }\n\n  function getTotalUnstaked() public view returns(uint) {\n      return _unstakedAmounts[msg.sender];\n  }\n\n  function dispenseStakes(address[] memory bankruptAddresses) public onlyOwner {\n      for(uint i = 0; i < stakers.length; i++) {\n          bool isBankrupt = false;\n          for(uint j = 0; j < bankruptAddresses.length; j++) {\n              if(bankruptAddresses[j] == stakers[i]) {\n                  isBankrupt = true;\n              }\n          }\n\n          if(isBankrupt) {\n              delete _unstakedAmounts[stakers[i]];\n              delete _stakedAmounts[stakers[i]];\n              delete stakers[i]; \n              emit Bankrupt(stakers[i], _stakedAmounts[msg.sender]);\n          } else if( _unstakedAmounts[stakers[i]] > 0) {\n              stakingToken.send(stakers[i], _unstakedAmounts[stakers[i]], \"Stake dispensal\");\n              _stakedAmounts[stakers[i]] = _stakedAmounts[stakers[i]] - _unstakedAmounts[stakers[i]];\n              _unstakedAmounts[stakers[i]] = 0;\n\n              if(_stakedAmounts[stakers[i]] <= 0) {\n                  delete stakers[i];\n              }\n              emit StakeDispensed(stakers[i], _unstakedAmounts[stakers[i]]);\n          }\n      }\n  }\n\n\n}",
  "sourcePath": "C:\\Users\\jcara\\Documents\\repos\\covey-token\\contracts\\CoveyStaking.sol",
  "compiler": {
    "name": "solc",
    "version": "0.8.11+commit.d7f03943.Emscripten.clang"
  },
  "schemaVersion": "3.4.4",
  "updatedAt": "2022-05-16T19:52:30.971Z",
  "devdoc": {
    "kind": "dev",
    "methods": {
      "canImplementInterfaceForAddress(bytes32,address)": {
        "details": "See {IERC1820Implementer-canImplementInterfaceForAddress}."
      },
      "tokensReceived(address,address,address,uint256,bytes,bytes)": {
        "details": "Called by an {IERC777} token contract whenever tokens are being moved or created into a registered account (`to`). The type of operation is conveyed by `from` being the zero address or not. This call occurs _after_ the token contract's state is updated, so {IERC777-balanceOf}, etc., can be used to query the post-operation state. This function may revert to prevent the operation from being executed."
      },
      "tokensToSend(address,address,address,uint256,bytes,bytes)": {
        "details": "Called by an {IERC777} token contract whenever a registered holder's (`from`) tokens are about to be moved or destroyed. The type of operation is conveyed by `to` being the zero address or not. This call occurs _before_ the token contract's state is updated, so {IERC777-balanceOf}, etc., can be used to query the pre-operation state. This function may revert to prevent the operation from being executed."
      }
    },
    "version": 1
  },
  "userdoc": {
    "kind": "user",
    "methods": {},
    "version": 1
  }
}