{
  "contractName": "CoveyStaking",
  "abi": [
    {
      "anonymous": false,
      "inputs": [
        {
          "indexed": true,
          "internalType": "address",
          "name": "_adr",
          "type": "address"
        },
        {
          "indexed": false,
          "internalType": "uint256",
          "name": "amountLost",
          "type": "uint256"
        }
      ],
      "name": "Bankrupt",
      "type": "event"
    },
    {
      "anonymous": false,
      "inputs": [
        {
          "indexed": true,
          "internalType": "address",
          "name": "_adr",
          "type": "address"
        }
      ],
      "name": "CancelledUnstake",
      "type": "event"
    },
    {
      "anonymous": false,
      "inputs": [
        {
          "indexed": false,
          "internalType": "uint8",
          "name": "version",
          "type": "uint8"
        }
      ],
      "name": "Initialized",
      "type": "event"
    },
    {
      "anonymous": false,
      "inputs": [
        {
          "indexed": true,
          "internalType": "address",
          "name": "_adr",
          "type": "address"
        },
        {
          "indexed": false,
          "internalType": "uint256",
          "name": "amountDispensed",
          "type": "uint256"
        }
      ],
      "name": "StakeDispensed",
      "type": "event"
    },
    {
      "anonymous": false,
      "inputs": [
        {
          "indexed": true,
          "internalType": "address",
          "name": "_adr",
          "type": "address"
        },
        {
          "indexed": false,
          "internalType": "uint256",
          "name": "amount",
          "type": "uint256"
        }
      ],
      "name": "Staked",
      "type": "event"
    },
    {
      "anonymous": false,
      "inputs": [
        {
          "indexed": true,
          "internalType": "address",
          "name": "_adr",
          "type": "address"
        },
        {
          "indexed": false,
          "internalType": "uint256",
          "name": "amount",
          "type": "uint256"
        }
      ],
      "name": "TotalStaked",
      "type": "event"
    },
    {
      "anonymous": false,
      "inputs": [
        {
          "indexed": true,
          "internalType": "address",
          "name": "_adr",
          "type": "address"
        },
        {
          "indexed": false,
          "internalType": "uint256",
          "name": "amount",
          "type": "uint256"
        }
      ],
      "name": "TotalUnstaked",
      "type": "event"
    },
    {
      "anonymous": false,
      "inputs": [
        {
          "indexed": true,
          "internalType": "address",
          "name": "_adr",
          "type": "address"
        },
        {
          "indexed": false,
          "internalType": "uint256",
          "name": "amount",
          "type": "uint256"
        }
      ],
      "name": "Unstaked",
      "type": "event"
    },
    {
      "inputs": [
        {
          "internalType": "bytes32",
          "name": "interfaceHash",
          "type": "bytes32"
        },
        {
          "internalType": "address",
          "name": "account",
          "type": "address"
        }
      ],
      "name": "canImplementInterfaceForAddress",
      "outputs": [
        {
          "internalType": "bytes32",
          "name": "",
          "type": "bytes32"
        }
      ],
      "stateMutability": "view",
      "type": "function",
      "constant": true
    },
    {
      "inputs": [],
      "name": "registry",
      "outputs": [
        {
          "internalType": "contract IERC1820Registry",
          "name": "",
          "type": "address"
        }
      ],
      "stateMutability": "view",
      "type": "function",
      "constant": true
    },
    {
      "inputs": [
        {
          "internalType": "uint256",
          "name": "",
          "type": "uint256"
        }
      ],
      "name": "stakers",
      "outputs": [
        {
          "internalType": "address",
          "name": "",
          "type": "address"
        }
      ],
      "stateMutability": "view",
      "type": "function",
      "constant": true
    },
    {
      "inputs": [],
      "name": "stakingToken",
      "outputs": [
        {
          "internalType": "contract IERC777",
          "name": "",
          "type": "address"
        }
      ],
      "stateMutability": "view",
      "type": "function",
      "constant": true
    },
    {
      "inputs": [
        {
          "internalType": "contract IERC777",
          "name": "_stakingToken",
          "type": "address"
        }
      ],
      "name": "initialize",
      "outputs": [],
      "stateMutability": "nonpayable",
      "type": "function"
    },
    {
      "inputs": [
        {
          "internalType": "address",
          "name": "operator",
          "type": "address"
        },
        {
          "internalType": "address",
          "name": "from",
          "type": "address"
        },
        {
          "internalType": "address",
          "name": "to",
          "type": "address"
        },
        {
          "internalType": "uint256",
          "name": "amount",
          "type": "uint256"
        },
        {
          "internalType": "bytes",
          "name": "userData",
          "type": "bytes"
        },
        {
          "internalType": "bytes",
          "name": "operatorData",
          "type": "bytes"
        }
      ],
      "name": "tokensReceived",
      "outputs": [],
      "stateMutability": "nonpayable",
      "type": "function"
    },
    {
      "inputs": [
        {
          "internalType": "address",
          "name": "operator",
          "type": "address"
        },
        {
          "internalType": "address",
          "name": "from",
          "type": "address"
        },
        {
          "internalType": "address",
          "name": "to",
          "type": "address"
        },
        {
          "internalType": "uint256",
          "name": "amount",
          "type": "uint256"
        },
        {
          "internalType": "bytes",
          "name": "userData",
          "type": "bytes"
        },
        {
          "internalType": "bytes",
          "name": "operatorData",
          "type": "bytes"
        }
      ],
      "name": "tokensToSend",
      "outputs": [],
      "stateMutability": "nonpayable",
      "type": "function"
    },
    {
      "inputs": [
        {
          "internalType": "address",
          "name": "account",
          "type": "address"
        }
      ],
      "name": "registerHookForAccount",
      "outputs": [],
      "stateMutability": "nonpayable",
      "type": "function"
    },
    {
      "inputs": [
        {
          "internalType": "uint256",
          "name": "amount",
          "type": "uint256"
        }
      ],
      "name": "stake",
      "outputs": [],
      "stateMutability": "nonpayable",
      "type": "function"
    },
    {
      "inputs": [
        {
          "internalType": "uint256",
          "name": "amount",
          "type": "uint256"
        }
      ],
      "name": "unstake",
      "outputs": [],
      "stateMutability": "nonpayable",
      "type": "function"
    },
    {
      "inputs": [],
      "name": "cancelUnstake",
      "outputs": [],
      "stateMutability": "nonpayable",
      "type": "function"
    },
    {
      "inputs": [],
      "name": "getTotalStaked",
      "outputs": [
        {
          "internalType": "uint256",
          "name": "",
          "type": "uint256"
        }
      ],
      "stateMutability": "view",
      "type": "function",
      "constant": true
    },
    {
      "inputs": [],
      "name": "getTotalUnstaked",
      "outputs": [
        {
          "internalType": "uint256",
          "name": "",
          "type": "uint256"
        }
      ],
      "stateMutability": "view",
      "type": "function",
      "constant": true
    },
    {
      "inputs": [
        {
          "internalType": "address[]",
          "name": "bankruptAddresses",
          "type": "address[]"
        }
      ],
      "name": "dispenseStakes",
      "outputs": [],
      "stateMutability": "nonpayable",
      "type": "function"
    }
  ],
  "bytecode": "0x608060405234801561001057600080fd5b50612471806100206000396000f3fe608060405234801561001057600080fd5b50600436106100e95760003560e01c806375ab97821161008c578063a75036b611610066578063a75036b61461020e578063c4d66de81461022a578063f01a9d9314610246578063fd5e6dd114610264576100e9565b806375ab9782146101b85780637b103999146101d4578063a694fc3a146101f2576100e9565b80632e17de78116100c85780632e17de78146101585780634ab179691461017457806372f702f31461017e578063739cead91461019c576100e9565b806223de29146100ee5780630917e7761461010a578063249cb3fa14610128575b600080fd5b6101086004803603810190610103919061198e565b610294565b005b61011261029e565b60405161011f9190611a6c565b60405180910390f35b610142600480360381019061013d9190611abd565b6102e5565b60405161014f9190611b0c565b60405180910390f35b610172600480360381019061016d9190611b27565b61037c565b005b61017c61060b565b005b610186610715565b6040516101939190611bb3565b60405180910390f35b6101b660048036038101906101b19190611c24565b61073b565b005b6101d260048036038101906101cd919061198e565b611099565b005b6101dc6110a3565b6040516101e99190611c92565b60405180910390f35b61020c60048036038101906102079190611b27565b6110c9565b005b61022860048036038101906102239190611cad565b61143e565b005b610244600480360381019061023f9190611d18565b61146e565b005b61024e611686565b60405161025b9190611a6c565b60405180910390f35b61027e60048036038101906102799190611b27565b6116cd565b60405161028b9190611d54565b60405180910390f35b5050505050505050565b6000600460003373ffffffffffffffffffffffffffffffffffffffff1673ffffffffffffffffffffffffffffffffffffffff16815260200190815260200160002054905090565b60006001600084815260200190815260200160002060008373ffffffffffffffffffffffffffffffffffffffff1673ffffffffffffffffffffffffffffffffffffffff16815260200190815260200160002060009054906101000a900460ff16610352576000801b610374565b7fa2ef4600d742022d532d4747cb3547474667d6f13804902513b2ec01c848f4b45b905092915050565b6000600460003373ffffffffffffffffffffffffffffffffffffffff1673ffffffffffffffffffffffffffffffffffffffff1681526020019081526020016000205414156103ff576040517f08c379a00000000000000000000000000000000000000000000000000000000081526004016103f690611dcc565b60405180910390fd5b600081600560003373ffffffffffffffffffffffffffffffffffffffff1673ffffffffffffffffffffffffffffffffffffffff1681526020019081526020016000205461044c9190611e1b565b600460003373ffffffffffffffffffffffffffffffffffffffff1673ffffffffffffffffffffffffffffffffffffffff168152602001908152602001600020546104969190611e71565b10156104d7576040517f08c379a00000000000000000000000000000000000000000000000000000000081526004016104ce90611f17565b60405180910390fd5b80600560003373ffffffffffffffffffffffffffffffffffffffff1673ffffffffffffffffffffffffffffffffffffffff16815260200190815260200160002060008282546105269190611e1b565b925050819055503373ffffffffffffffffffffffffffffffffffffffff167f0f5bb82176feb1b5e747e28471aa92156a04d9f3ab9f45f28e2d704232b93f75826040516105739190611a6c565b60405180910390a23373ffffffffffffffffffffffffffffffffffffffff167f45a61950ae80a9a1d9a6c03683ce65096a7db8ca520632bed3072f40963c8804600560003373ffffffffffffffffffffffffffffffffffffffff1673ffffffffffffffffffffffffffffffffffffffff168152602001908152602001600020546040516106009190611a6c565b60405180910390a250565b6000600560003373ffffffffffffffffffffffffffffffffffffffff1673ffffffffffffffffffffffffffffffffffffffff168152602001908152602001600020541161068d576040517f08c379a000000000000000000000000000000000000000000000000000000000815260040161068490611f83565b60405180910390fd5b600560003373ffffffffffffffffffffffffffffffffffffffff1673ffffffffffffffffffffffffffffffffffffffff168152602001908152602001600020600090553373ffffffffffffffffffffffffffffffffffffffff167f450cc0f663f8ded0053aeca240ef53a2f4b93c5c3aa067e8e45155e823ceaa7a60405160405180910390a2565b600260009054906101000a900473ffffffffffffffffffffffffffffffffffffffff1681565b600360009054906101000a900473ffffffffffffffffffffffffffffffffffffffff1673ffffffffffffffffffffffffffffffffffffffff163373ffffffffffffffffffffffffffffffffffffffff161461079557600080fd5b60005b600680549050811015611094576000805b8484905081101561086557600683815481106107c8576107c7611fa3565b5b9060005260206000200160009054906101000a900473ffffffffffffffffffffffffffffffffffffffff1673ffffffffffffffffffffffffffffffffffffffff1685858381811061081c5761081b611fa3565b5b90506020020160208101906108319190611cad565b73ffffffffffffffffffffffffffffffffffffffff16141561085257600191505b808061085d90611fd2565b9150506107a9565b50600115158115151415610ac4576006828154811061088757610886611fa3565b5b9060005260206000200160009054906101000a900473ffffffffffffffffffffffffffffffffffffffff1673ffffffffffffffffffffffffffffffffffffffff167f7fe451685bab7a17da665cc038b4635412b8d788bb692963f88e35eba15ae175600460006006868154811061090157610900611fa3565b5b9060005260206000200160009054906101000a900473ffffffffffffffffffffffffffffffffffffffff1673ffffffffffffffffffffffffffffffffffffffff1673ffffffffffffffffffffffffffffffffffffffff168152602001908152602001600020546040516109749190611a6c565b60405180910390a2600560006006848154811061099457610993611fa3565b5b9060005260206000200160009054906101000a900473ffffffffffffffffffffffffffffffffffffffff1673ffffffffffffffffffffffffffffffffffffffff1673ffffffffffffffffffffffffffffffffffffffff168152602001908152602001600020600090556004600060068481548110610a1557610a14611fa3565b5b9060005260206000200160009054906101000a900473ffffffffffffffffffffffffffffffffffffffff1673ffffffffffffffffffffffffffffffffffffffff1673ffffffffffffffffffffffffffffffffffffffff1681526020019081526020016000206000905560068281548110610a9257610a91611fa3565b5b9060005260206000200160006101000a81549073ffffffffffffffffffffffffffffffffffffffff0219169055611080565b60006005600060068581548110610ade57610add611fa3565b5b9060005260206000200160009054906101000a900473ffffffffffffffffffffffffffffffffffffffff1673ffffffffffffffffffffffffffffffffffffffff1673ffffffffffffffffffffffffffffffffffffffff16815260200190815260200160002054118015610b55575060001515811515145b1561107f57600260009054906101000a900473ffffffffffffffffffffffffffffffffffffffff1673ffffffffffffffffffffffffffffffffffffffff16639bd9bbc660068481548110610bac57610bab611fa3565b5b9060005260206000200160009054906101000a900473ffffffffffffffffffffffffffffffffffffffff166005600060068781548110610bef57610bee611fa3565b5b9060005260206000200160009054906101000a900473ffffffffffffffffffffffffffffffffffffffff1673ffffffffffffffffffffffffffffffffffffffff1673ffffffffffffffffffffffffffffffffffffffff168152602001908152602001600020546040518363ffffffff1660e01b8152600401610c72929190612078565b600060405180830381600087803b158015610c8c57600080fd5b505af1158015610ca0573d6000803e3d6000fd5b5050505060068281548110610cb857610cb7611fa3565b5b9060005260206000200160009054906101000a900473ffffffffffffffffffffffffffffffffffffffff1673ffffffffffffffffffffffffffffffffffffffff167f9b4c90d41aa819dadecbb2e126e6dc2e01be4402acc99ec60248131a3f59576c6005600060068681548110610d3257610d31611fa3565b5b9060005260206000200160009054906101000a900473ffffffffffffffffffffffffffffffffffffffff1673ffffffffffffffffffffffffffffffffffffffff1673ffffffffffffffffffffffffffffffffffffffff16815260200190815260200160002054604051610da59190611a6c565b60405180910390a26005600060068481548110610dc557610dc4611fa3565b5b9060005260206000200160009054906101000a900473ffffffffffffffffffffffffffffffffffffffff1673ffffffffffffffffffffffffffffffffffffffff1673ffffffffffffffffffffffffffffffffffffffff168152602001908152602001600020546004600060068581548110610e4357610e42611fa3565b5b9060005260206000200160009054906101000a900473ffffffffffffffffffffffffffffffffffffffff1673ffffffffffffffffffffffffffffffffffffffff1673ffffffffffffffffffffffffffffffffffffffff16815260200190815260200160002054610eb39190611e71565b6004600060068581548110610ecb57610eca611fa3565b5b9060005260206000200160009054906101000a900473ffffffffffffffffffffffffffffffffffffffff1673ffffffffffffffffffffffffffffffffffffffff1673ffffffffffffffffffffffffffffffffffffffff1681526020019081526020016000208190555060006005600060068581548110610f4e57610f4d611fa3565b5b9060005260206000200160009054906101000a900473ffffffffffffffffffffffffffffffffffffffff1673ffffffffffffffffffffffffffffffffffffffff1673ffffffffffffffffffffffffffffffffffffffff1681526020019081526020016000208190555060006004600060068581548110610fd157610fd0611fa3565b5b9060005260206000200160009054906101000a900473ffffffffffffffffffffffffffffffffffffffff1673ffffffffffffffffffffffffffffffffffffffff1673ffffffffffffffffffffffffffffffffffffffff168152602001908152602001600020541161107e57600682815481106110505761104f611fa3565b5b9060005260206000200160006101000a81549073ffffffffffffffffffffffffffffffffffffffff02191690555b5b5b50808061108c90611fd2565b915050610798565b505050565b5050505050505050565b600760009054906101000a900473ffffffffffffffffffffffffffffffffffffffff1681565b600073ffffffffffffffffffffffffffffffffffffffff163373ffffffffffffffffffffffffffffffffffffffff161415611139576040517f08c379a000000000000000000000000000000000000000000000000000000000815260040161113090612100565b60405180910390fd5b600260009054906101000a900473ffffffffffffffffffffffffffffffffffffffff1673ffffffffffffffffffffffffffffffffffffffff1663d95b637130336040518363ffffffff1660e01b8152600401611196929190612120565b602060405180830381865afa1580156111b3573d6000803e3d6000fd5b505050506040513d601f19601f820116820180604052508101906111d79190612181565b611216576040517f08c379a000000000000000000000000000000000000000000000000000000000815260040161120d90612220565b60405180910390fd5b600260009054906101000a900473ffffffffffffffffffffffffffffffffffffffff1673ffffffffffffffffffffffffffffffffffffffff166362ad1b833330846040518463ffffffff1660e01b8152600401611275939291906122b2565b600060405180830381600087803b15801561128f57600080fd5b505af11580156112a3573d6000803e3d6000fd5b5050505080600460003373ffffffffffffffffffffffffffffffffffffffff1673ffffffffffffffffffffffffffffffffffffffff16815260200190815260200160002060008282546112f69190611e1b565b925050819055506006339080600181540180825580915050600190039060005260206000200160009091909190916101000a81548173ffffffffffffffffffffffffffffffffffffffff021916908373ffffffffffffffffffffffffffffffffffffffff1602179055503373ffffffffffffffffffffffffffffffffffffffff167f9e71bc8eea02a63969f509818f2dafb9254532904319f9dbda79b67bd34a5f3d826040516113a69190611a6c565b60405180910390a23373ffffffffffffffffffffffffffffffffffffffff167f62be4aaebfea1375247e22afe02276e2d8d1b765bff167beda8066a0012c7b5f600460003373ffffffffffffffffffffffffffffffffffffffff1673ffffffffffffffffffffffffffffffffffffffff168152602001908152602001600020546040516114339190611a6c565b60405180910390a250565b61146b7f29ddb589b1fb5fc7cf394961c1adf5f8c6454761adf795e67fe149f658abe89560001b8261170c565b50565b600061147a6001611778565b9050801561149e576001600060016101000a81548160ff0219169083151502179055505b33600360006101000a81548173ffffffffffffffffffffffffffffffffffffffff021916908373ffffffffffffffffffffffffffffffffffffffff16021790555081600260006101000a81548173ffffffffffffffffffffffffffffffffffffffff021916908373ffffffffffffffffffffffffffffffffffffffff160217905550731820a4b7618bde71dce8cdc73aab6c95905fad24600760006101000a81548173ffffffffffffffffffffffffffffffffffffffff021916908373ffffffffffffffffffffffffffffffffffffffff160217905550600760009054906101000a900473ffffffffffffffffffffffffffffffffffffffff1673ffffffffffffffffffffffffffffffffffffffff166329965a1d307fb281fc8c12954d22544db45de3159a39272895b169a852b314f9cc762e44c53b60001b306040518463ffffffff1660e01b81526004016115f79392919061230f565b600060405180830381600087803b15801561161157600080fd5b505af1158015611625573d6000803e3d6000fd5b5050505080156116825760008060016101000a81548160ff0219169083151502179055507f7f26b83ff96e1f2b6a682f133852f6798a09c465da95921460cefb38474024986001604051611679919061238e565b60405180910390a15b5050565b6000600560003373ffffffffffffffffffffffffffffffffffffffff1673ffffffffffffffffffffffffffffffffffffffff16815260200190815260200160002054905090565b600681815481106116dd57600080fd5b906000526020600020016000915054906101000a900473ffffffffffffffffffffffffffffffffffffffff1681565b600180600084815260200190815260200160002060008373ffffffffffffffffffffffffffffffffffffffff1673ffffffffffffffffffffffffffffffffffffffff16815260200190815260200160002060006101000a81548160ff0219169083151502179055505050565b60008060019054906101000a900460ff16156117ef5760018260ff161480156117a757506117a530611868565b155b6117e6576040517f08c379a00000000000000000000000000000000000000000000000000000000081526004016117dd9061241b565b60405180910390fd5b60009050611863565b8160ff1660008054906101000a900460ff1660ff1610611844576040517f08c379a000000000000000000000000000000000000000000000000000000000815260040161183b9061241b565b60405180910390fd5b816000806101000a81548160ff021916908360ff160217905550600190505b919050565b6000808273ffffffffffffffffffffffffffffffffffffffff163b119050919050565b600080fd5b600080fd5b600073ffffffffffffffffffffffffffffffffffffffff82169050919050565b60006118c082611895565b9050919050565b6118d0816118b5565b81146118db57600080fd5b50565b6000813590506118ed816118c7565b92915050565b6000819050919050565b611906816118f3565b811461191157600080fd5b50565b600081359050611923816118fd565b92915050565b600080fd5b600080fd5b600080fd5b60008083601f84011261194e5761194d611929565b5b8235905067ffffffffffffffff81111561196b5761196a61192e565b5b60208301915083600182028301111561198757611986611933565b5b9250929050565b60008060008060008060008060c0898b0312156119ae576119ad61188b565b5b60006119bc8b828c016118de565b98505060206119cd8b828c016118de565b97505060406119de8b828c016118de565b96505060606119ef8b828c01611914565b955050608089013567ffffffffffffffff811115611a1057611a0f611890565b5b611a1c8b828c01611938565b945094505060a089013567ffffffffffffffff811115611a3f57611a3e611890565b5b611a4b8b828c01611938565b92509250509295985092959890939650565b611a66816118f3565b82525050565b6000602082019050611a816000830184611a5d565b92915050565b6000819050919050565b611a9a81611a87565b8114611aa557600080fd5b50565b600081359050611ab781611a91565b92915050565b60008060408385031215611ad457611ad361188b565b5b6000611ae285828601611aa8565b9250506020611af3858286016118de565b9150509250929050565b611b0681611a87565b82525050565b6000602082019050611b216000830184611afd565b92915050565b600060208284031215611b3d57611b3c61188b565b5b6000611b4b84828501611914565b91505092915050565b6000819050919050565b6000611b79611b74611b6f84611895565b611b54565b611895565b9050919050565b6000611b8b82611b5e565b9050919050565b6000611b9d82611b80565b9050919050565b611bad81611b92565b82525050565b6000602082019050611bc86000830184611ba4565b92915050565b60008083601f840112611be457611be3611929565b5b8235905067ffffffffffffffff811115611c0157611c0061192e565b5b602083019150836020820283011115611c1d57611c1c611933565b5b9250929050565b60008060208385031215611c3b57611c3a61188b565b5b600083013567ffffffffffffffff811115611c5957611c58611890565b5b611c6585828601611bce565b92509250509250929050565b6000611c7c82611b80565b9050919050565b611c8c81611c71565b82525050565b6000602082019050611ca76000830184611c83565b92915050565b600060208284031215611cc357611cc261188b565b5b6000611cd1848285016118de565b91505092915050565b6000611ce5826118b5565b9050919050565b611cf581611cda565b8114611d0057600080fd5b50565b600081359050611d1281611cec565b92915050565b600060208284031215611d2e57611d2d61188b565b5b6000611d3c84828501611d03565b91505092915050565b611d4e816118b5565b82525050565b6000602082019050611d696000830184611d45565b92915050565b600082825260208201905092915050565b7f486173206e6f74207374616b6564000000000000000000000000000000000000600082015250565b6000611db6600e83611d6f565b9150611dc182611d80565b602082019050919050565b60006020820190508181036000830152611de581611da9565b9050919050565b7f4e487b7100000000000000000000000000000000000000000000000000000000600052601160045260246000fd5b6000611e26826118f3565b9150611e31836118f3565b9250827fffffffffffffffffffffffffffffffffffffffffffffffffffffffffffffffff03821115611e6657611e65611dec565b5b828201905092915050565b6000611e7c826118f3565b9150611e87836118f3565b925082821015611e9a57611e99611dec565b5b828203905092915050565b7f43616e6e6f7420756e7374616b65206d6f7265207468616e20746f74616c207360008201527f74616b656420616d6f756e740000000000000000000000000000000000000000602082015250565b6000611f01602c83611d6f565b9150611f0c82611ea5565b604082019050919050565b60006020820190508181036000830152611f3081611ef4565b9050919050565b7f4e6f20756e7374616b6520746f2063616e63656c000000000000000000000000600082015250565b6000611f6d601483611d6f565b9150611f7882611f37565b602082019050919050565b60006020820190508181036000830152611f9c81611f60565b9050919050565b7f4e487b7100000000000000000000000000000000000000000000000000000000600052603260045260246000fd5b6000611fdd826118f3565b91507fffffffffffffffffffffffffffffffffffffffffffffffffffffffffffffffff8214156120105761200f611dec565b5b600182019050919050565b600082825260208201905092915050565b7f5374616b652064697370656e73616c0000000000000000000000000000000000600082015250565b6000612062600f8361201b565b915061206d8261202c565b602082019050919050565b600060608201905061208d6000830185611d45565b61209a6020830184611a5d565b81810360408301526120ab81612055565b90509392505050565b7f53656e6465722069732030206164647265737300000000000000000000000000600082015250565b60006120ea601383611d6f565b91506120f5826120b4565b602082019050919050565b60006020820190508181036000830152612119816120dd565b9050919050565b60006040820190506121356000830185611d45565b6121426020830184611d45565b9392505050565b60008115159050919050565b61215e81612149565b811461216957600080fd5b50565b60008151905061217b81612155565b92915050565b6000602082840312156121975761219661188b565b5b60006121a58482850161216c565b91505092915050565b7f5374616b696e6720636f6e7472616374206973206e6f7420616e206f7065726160008201527f746f7220666f7220746869732061646472657373000000000000000000000000602082015250565b600061220a603483611d6f565b9150612215826121ae565b604082019050919050565b60006020820190508181036000830152612239816121fd565b9050919050565b7f436f766579205374616b65000000000000000000000000000000000000000000600082015250565b6000612276600b8361201b565b915061228182612240565b602082019050919050565b50565b600061229c60008361201b565b91506122a78261228c565b600082019050919050565b600060a0820190506122c76000830186611d45565b6122d46020830185611d45565b6122e16040830184611a5d565b81810360608301526122f281612269565b905081810360808301526123058161228f565b9050949350505050565b60006060820190506123246000830186611d45565b6123316020830185611afd565b61233e6040830184611d45565b949350505050565b6000819050919050565b600060ff82169050919050565b600061237861237361236e84612346565b611b54565b612350565b9050919050565b6123888161235d565b82525050565b60006020820190506123a3600083018461237f565b92915050565b7f496e697469616c697a61626c653a20636f6e747261637420697320616c72656160008201527f647920696e697469616c697a6564000000000000000000000000000000000000602082015250565b6000612405602e83611d6f565b9150612410826123a9565b604082019050919050565b60006020820190508181036000830152612434816123f8565b905091905056fea26469706673582212202666a3479893a44f0fe3a8a0f6dc23740067bccc8a40f68cc41692d4120b366364736f6c634300080b0033",
  "immutableReferences": {},
  "source": "pragma solidity ^0.8.11;\n\nimport \"@openzeppelin/contracts/utils/math/SafeMath.sol\";\nimport \"@openzeppelin/contracts/access/Ownable.sol\";\nimport \"@openzeppelin/contracts/token/ERC777/IERC777.sol\";\nimport '@openzeppelin/contracts-upgradeable/proxy/utils/Initializable.sol';\nimport \"@openzeppelin/contracts/token/ERC777/IERC777Sender.sol\";\nimport \"@openzeppelin/contracts/token/ERC777/IERC777Recipient.sol\";\nimport \"@openzeppelin/contracts/interfaces/IERC1820Registry.sol\";\nimport \"@openzeppelin/contracts/utils/introspection/ERC1820Implementer.sol\";\n\ncontract CoveyStaking is Initializable, IERC777Recipient, IERC777Sender, ERC1820Implementer  {\n  IERC777 public stakingToken;\n\n  address owner;\n\n\n  mapping(address => uint) private _stakedAmounts;\n\n  mapping(address => uint) private _unstakedAmounts;\n\n  address[] public stakers;\n\n  IERC1820Registry public registry;\n    \n    // keccak256('ERC777TokensRecipient')\n    bytes32 constant private TOKENS_RECIPIENT_INTERFACE_HASH\n        = 0xb281fc8c12954d22544db45de3159a39272895b169a852b314f9cc762e44c53b;\n\n\n   // keccak256(\"ERC777TokensSender\")\n    bytes32 constant private TOKENS_SENDER_INTERFACE_HASH =\n        0x29ddb589b1fb5fc7cf394961c1adf5f8c6454761adf795e67fe149f658abe895;\n\n  event Staked(address indexed _adr, uint amount);\n  \n  event Unstaked(address indexed _adr, uint amount);\n\n  event TotalStaked(address indexed _adr, uint amount);\n  \n  event TotalUnstaked(address indexed _adr, uint amount);\n\n  event CancelledUnstake(address indexed _adr);\n\n  event Bankrupt(address indexed _adr, uint amountLost);\n\n  event StakeDispensed(address indexed _adr, uint amountDispensed);\n\n  modifier onlyOwner {\n      require(msg.sender == owner);\n      _;\n  }\n\n  function initialize(IERC777 _stakingToken) public initializer {\n        owner = msg.sender;\n        stakingToken = _stakingToken;\n\n        registry = IERC1820Registry(0x1820a4B7618BdE71Dce8cdc73aAB6C95905faD24);\n\n        registry.setInterfaceImplementer(\n            address(this),\n            TOKENS_RECIPIENT_INTERFACE_HASH,\n            address(this)\n        );\n    }\n\n   function tokensReceived(\n        address operator,\n        address from,\n        address to,\n        uint256 amount,\n        bytes calldata userData,\n        bytes calldata operatorData\n    ) external {\n\n    }\n\n    function tokensToSend(\n        address operator,\n        address from,\n        address to,\n        uint256 amount,\n        bytes calldata userData,\n        bytes calldata operatorData\n    ) external {}\n\n    function registerHookForAccount(address account) public {\n        _registerInterfaceForAddress(\n            TOKENS_SENDER_INTERFACE_HASH,\n            account\n        );\n    }\n\n  function stake(uint amount) public {\n      require(msg.sender != address(0), \"Sender is 0 address\");\n      require(stakingToken.isOperatorFor(address(this), msg.sender), \"Staking contract is not an operator for this address\");\n\n      stakingToken.operatorSend(msg.sender, address(this), amount, \"Covey Stake\", \"\");\n      _stakedAmounts[msg.sender] +=  amount;\n      stakers.push(msg.sender);\n      emit Staked(msg.sender, amount);\n      emit TotalStaked(msg.sender, _stakedAmounts[msg.sender]);\n  }\n\n  function unstake(uint amount) public {\n      require(_stakedAmounts[msg.sender] != 0, \"Has not staked\");\n      require(_stakedAmounts[msg.sender] - (_unstakedAmounts[msg.sender] + amount) >= 0, \"Cannot unstake more than total staked amount\");\n      _unstakedAmounts[msg.sender] += amount;\n      emit Unstaked(msg.sender, amount);\n      emit TotalUnstaked(msg.sender, _unstakedAmounts[msg.sender]);\n  }\n\n  function cancelUnstake() public {\n      require(_unstakedAmounts[msg.sender] > 0, \"No unstake to cancel\");\n      delete _unstakedAmounts[msg.sender];\n      emit CancelledUnstake(msg.sender);\n  }\n\n  function getTotalStaked() public view returns(uint) {\n      return _stakedAmounts[msg.sender];\n  }\n\n  function getTotalUnstaked() public view returns(uint) {\n      return _unstakedAmounts[msg.sender];\n  }\n\n  function dispenseStakes(address[] calldata bankruptAddresses) public onlyOwner {\n      for(uint i = 0; i < stakers.length; i++) {\n          bool isBankrupt = false;\n          for(uint j = 0; j < bankruptAddresses.length; j++) {\n                if(bankruptAddresses[j] == stakers[i]) {\n                    isBankrupt = true;\n                }\n            }\n\n          if(isBankrupt == true) {\n              emit Bankrupt(stakers[i], _stakedAmounts[stakers[i]]);\n              delete _unstakedAmounts[stakers[i]];\n              delete _stakedAmounts[stakers[i]];\n              delete stakers[i]; \n          } else if( _unstakedAmounts[stakers[i]] > 0 && isBankrupt == false) {\n              stakingToken.send(stakers[i], _unstakedAmounts[stakers[i]], \"Stake dispensal\");\n              emit StakeDispensed(stakers[i], _unstakedAmounts[stakers[i]]);\n              _stakedAmounts[stakers[i]] = _stakedAmounts[stakers[i]] - _unstakedAmounts[stakers[i]];\n              _unstakedAmounts[stakers[i]] = 0;\n\n              if(_stakedAmounts[stakers[i]] <= 0) {\n                  delete stakers[i];\n              }\n          }\n      }\n  }\n\n\n}",
  "sourcePath": "C:\\Users\\jcara\\Documents\\repos\\covey-token\\contracts\\CoveyStaking.sol",
  "compiler": {
    "name": "solc",
    "version": "0.8.11+commit.d7f03943.Emscripten.clang"
  },
  "schemaVersion": "3.4.4",
  "updatedAt": "2022-05-25T20:00:40.342Z",
  "networkType": "ethereum",
  "devdoc": {
    "kind": "dev",
    "methods": {
      "canImplementInterfaceForAddress(bytes32,address)": {
        "details": "See {IERC1820Implementer-canImplementInterfaceForAddress}."
      },
      "tokensReceived(address,address,address,uint256,bytes,bytes)": {
        "details": "Called by an {IERC777} token contract whenever tokens are being moved or created into a registered account (`to`). The type of operation is conveyed by `from` being the zero address or not. This call occurs _after_ the token contract's state is updated, so {IERC777-balanceOf}, etc., can be used to query the post-operation state. This function may revert to prevent the operation from being executed."
      },
      "tokensToSend(address,address,address,uint256,bytes,bytes)": {
        "details": "Called by an {IERC777} token contract whenever a registered holder's (`from`) tokens are about to be moved or destroyed. The type of operation is conveyed by `to` being the zero address or not. This call occurs _before_ the token contract's state is updated, so {IERC777-balanceOf}, etc., can be used to query the pre-operation state. This function may revert to prevent the operation from being executed."
      }
    },
    "version": 1
  },
  "userdoc": {
    "kind": "user",
    "methods": {},
    "version": 1
  }
}