{
  "contractName": "CoveyStaking",
  "abi": [
    {
      "anonymous": false,
      "inputs": [
        {
          "indexed": true,
          "internalType": "address",
          "name": "_adr",
          "type": "address"
        },
        {
          "indexed": false,
          "internalType": "uint256",
          "name": "amountLost",
          "type": "uint256"
        }
      ],
      "name": "Bankrupt",
      "type": "event"
    },
    {
      "anonymous": false,
      "inputs": [
        {
          "indexed": true,
          "internalType": "address",
          "name": "_adr",
          "type": "address"
        }
      ],
      "name": "CancelledUnstake",
      "type": "event"
    },
    {
      "anonymous": false,
      "inputs": [
        {
          "indexed": false,
          "internalType": "uint8",
          "name": "version",
          "type": "uint8"
        }
      ],
      "name": "Initialized",
      "type": "event"
    },
    {
      "anonymous": false,
      "inputs": [
        {
          "indexed": true,
          "internalType": "bytes32",
          "name": "role",
          "type": "bytes32"
        },
        {
          "indexed": true,
          "internalType": "bytes32",
          "name": "previousAdminRole",
          "type": "bytes32"
        },
        {
          "indexed": true,
          "internalType": "bytes32",
          "name": "newAdminRole",
          "type": "bytes32"
        }
      ],
      "name": "RoleAdminChanged",
      "type": "event"
    },
    {
      "anonymous": false,
      "inputs": [
        {
          "indexed": true,
          "internalType": "bytes32",
          "name": "role",
          "type": "bytes32"
        },
        {
          "indexed": true,
          "internalType": "address",
          "name": "account",
          "type": "address"
        },
        {
          "indexed": true,
          "internalType": "address",
          "name": "sender",
          "type": "address"
        }
      ],
      "name": "RoleGranted",
      "type": "event"
    },
    {
      "anonymous": false,
      "inputs": [
        {
          "indexed": true,
          "internalType": "bytes32",
          "name": "role",
          "type": "bytes32"
        },
        {
          "indexed": true,
          "internalType": "address",
          "name": "account",
          "type": "address"
        },
        {
          "indexed": true,
          "internalType": "address",
          "name": "sender",
          "type": "address"
        }
      ],
      "name": "RoleRevoked",
      "type": "event"
    },
    {
      "anonymous": false,
      "inputs": [
        {
          "indexed": true,
          "internalType": "address",
          "name": "_adr",
          "type": "address"
        },
        {
          "indexed": false,
          "internalType": "uint256",
          "name": "amountDispensed",
          "type": "uint256"
        }
      ],
      "name": "StakeDispensed",
      "type": "event"
    },
    {
      "anonymous": false,
      "inputs": [
        {
          "indexed": true,
          "internalType": "address",
          "name": "_adr",
          "type": "address"
        },
        {
          "indexed": false,
          "internalType": "uint256",
          "name": "amount",
          "type": "uint256"
        }
      ],
      "name": "Staked",
      "type": "event"
    },
    {
      "anonymous": false,
      "inputs": [
        {
          "indexed": true,
          "internalType": "address",
          "name": "_adr",
          "type": "address"
        },
        {
          "indexed": false,
          "internalType": "uint256",
          "name": "amount",
          "type": "uint256"
        }
      ],
      "name": "TotalStaked",
      "type": "event"
    },
    {
      "anonymous": false,
      "inputs": [
        {
          "indexed": true,
          "internalType": "address",
          "name": "_adr",
          "type": "address"
        },
        {
          "indexed": false,
          "internalType": "uint256",
          "name": "amount",
          "type": "uint256"
        }
      ],
      "name": "TotalUnstaked",
      "type": "event"
    },
    {
      "anonymous": false,
      "inputs": [
        {
          "indexed": true,
          "internalType": "address",
          "name": "_adr",
          "type": "address"
        },
        {
          "indexed": false,
          "internalType": "uint256",
          "name": "amount",
          "type": "uint256"
        }
      ],
      "name": "Unstaked",
      "type": "event"
    },
    {
      "inputs": [],
      "name": "DEFAULT_ADMIN_ROLE",
      "outputs": [
        {
          "internalType": "bytes32",
          "name": "",
          "type": "bytes32"
        }
      ],
      "stateMutability": "view",
      "type": "function"
    },
    {
      "inputs": [],
      "name": "DISPENSER",
      "outputs": [
        {
          "internalType": "bytes32",
          "name": "",
          "type": "bytes32"
        }
      ],
      "stateMutability": "view",
      "type": "function"
    },
    {
      "inputs": [
        {
          "internalType": "bytes32",
          "name": "role",
          "type": "bytes32"
        }
      ],
      "name": "getRoleAdmin",
      "outputs": [
        {
          "internalType": "bytes32",
          "name": "",
          "type": "bytes32"
        }
      ],
      "stateMutability": "view",
      "type": "function"
    },
    {
      "inputs": [
        {
          "internalType": "bytes32",
          "name": "role",
          "type": "bytes32"
        },
        {
          "internalType": "address",
          "name": "account",
          "type": "address"
        }
      ],
      "name": "grantRole",
      "outputs": [],
      "stateMutability": "nonpayable",
      "type": "function"
    },
    {
      "inputs": [
        {
          "internalType": "bytes32",
          "name": "role",
          "type": "bytes32"
        },
        {
          "internalType": "address",
          "name": "account",
          "type": "address"
        }
      ],
      "name": "hasRole",
      "outputs": [
        {
          "internalType": "bool",
          "name": "",
          "type": "bool"
        }
      ],
      "stateMutability": "view",
      "type": "function"
    },
    {
      "inputs": [
        {
          "internalType": "bytes32",
          "name": "role",
          "type": "bytes32"
        },
        {
          "internalType": "address",
          "name": "account",
          "type": "address"
        }
      ],
      "name": "renounceRole",
      "outputs": [],
      "stateMutability": "nonpayable",
      "type": "function"
    },
    {
      "inputs": [
        {
          "internalType": "bytes32",
          "name": "role",
          "type": "bytes32"
        },
        {
          "internalType": "address",
          "name": "account",
          "type": "address"
        }
      ],
      "name": "revokeRole",
      "outputs": [],
      "stateMutability": "nonpayable",
      "type": "function"
    },
    {
      "inputs": [
        {
          "internalType": "uint256",
          "name": "",
          "type": "uint256"
        }
      ],
      "name": "stakers",
      "outputs": [
        {
          "internalType": "address",
          "name": "",
          "type": "address"
        }
      ],
      "stateMutability": "view",
      "type": "function"
    },
    {
      "inputs": [],
      "name": "stakingToken",
      "outputs": [
        {
          "internalType": "contract IERC20",
          "name": "",
          "type": "address"
        }
      ],
      "stateMutability": "view",
      "type": "function"
    },
    {
      "inputs": [
        {
          "internalType": "bytes4",
          "name": "interfaceId",
          "type": "bytes4"
        }
      ],
      "name": "supportsInterface",
      "outputs": [
        {
          "internalType": "bool",
          "name": "",
          "type": "bool"
        }
      ],
      "stateMutability": "view",
      "type": "function"
    },
    {
      "inputs": [
        {
          "internalType": "contract IERC20",
          "name": "_stakingToken",
          "type": "address"
        }
      ],
      "name": "initialize",
      "outputs": [],
      "stateMutability": "nonpayable",
      "type": "function"
    },
    {
      "inputs": [
        {
          "internalType": "uint256",
          "name": "amount",
          "type": "uint256"
        }
      ],
      "name": "stake",
      "outputs": [],
      "stateMutability": "nonpayable",
      "type": "function"
    },
    {
      "inputs": [
        {
          "internalType": "uint256",
          "name": "amount",
          "type": "uint256"
        }
      ],
      "name": "unstake",
      "outputs": [],
      "stateMutability": "nonpayable",
      "type": "function"
    },
    {
      "inputs": [],
      "name": "cancelUnstake",
      "outputs": [],
      "stateMutability": "nonpayable",
      "type": "function"
    },
    {
      "inputs": [
        {
          "internalType": "address",
          "name": "_adr",
          "type": "address"
        }
      ],
      "name": "getTotalStaked",
      "outputs": [
        {
          "internalType": "uint256",
          "name": "",
          "type": "uint256"
        }
      ],
      "stateMutability": "view",
      "type": "function"
    },
    {
      "inputs": [
        {
          "internalType": "address",
          "name": "_adr",
          "type": "address"
        }
      ],
      "name": "getTotalUnstaked",
      "outputs": [
        {
          "internalType": "uint256",
          "name": "",
          "type": "uint256"
        }
      ],
      "stateMutability": "view",
      "type": "function"
    },
    {
      "inputs": [
        {
          "internalType": "address",
          "name": "bankruptciesReceiver",
          "type": "address"
        },
        {
          "internalType": "address[]",
          "name": "bankruptAddresses",
          "type": "address[]"
        }
      ],
      "name": "dispenseStakes",
      "outputs": [],
      "stateMutability": "nonpayable",
      "type": "function"
    },
    {
      "inputs": [
        {
          "internalType": "address",
          "name": "staker",
          "type": "address"
        }
      ],
      "name": "getNetStaked",
      "outputs": [
        {
          "internalType": "uint256",
          "name": "",
          "type": "uint256"
        }
      ],
      "stateMutability": "view",
      "type": "function"
    },
    {
      "inputs": [],
      "name": "getAllNetStaked",
      "outputs": [
        {
          "components": [
            {
              "internalType": "address",
              "name": "staker",
              "type": "address"
            },
            {
              "internalType": "uint256",
              "name": "stakedAmount",
              "type": "uint256"
            }
          ],
          "internalType": "struct CoveyStaking.StakeInfo[]",
          "name": "",
          "type": "tuple[]"
        }
      ],
      "stateMutability": "view",
      "type": "function"
    },
    {
      "inputs": [
        {
          "internalType": "address",
          "name": "_addr",
          "type": "address"
        }
      ],
      "name": "delegateDispenser",
      "outputs": [],
      "stateMutability": "nonpayable",
      "type": "function"
    },
    {
      "inputs": [
        {
          "internalType": "address",
          "name": "_addr",
          "type": "address"
        }
      ],
      "name": "revokeDispenser",
      "outputs": [],
      "stateMutability": "nonpayable",
      "type": "function"
    }
  ],
  "bytecode": "0x608060405234801561001057600080fd5b5061328f806100206000396000f3fe608060405234801561001057600080fd5b50600436106101375760003560e01c8063a217fddf116100b8578063d547741f1161007c578063d547741f14610310578063dd2a8b111461032c578063ded2e7da1461035c578063e14cf1e41461038c578063ea6451e7146103aa578063fd5e6dd1146103da57610137565b8063a217fddf14610280578063a694fc3a1461029e578063b2d1e58c146102ba578063bee193be146102d8578063c4d66de8146102f457610137565b80634ab17969116100ff5780634ab17969146101f05780636620f595146101fa57806372f702f314610216578063866c1f5f1461023457806391d148541461025057610137565b806301ffc9a71461013c578063248a9ca31461016c5780632e17de781461019c5780632f2ff15d146101b857806336568abe146101d4575b600080fd5b610156600480360381019061015191906123cf565b61040a565b6040516101639190612417565b60405180910390f35b61018660048036038101906101819190612468565b610484565b60405161019391906124a4565b60405180910390f35b6101b660048036038101906101b191906124f5565b6104a4565b005b6101d260048036038101906101cd9190612580565b610732565b005b6101ee60048036038101906101e99190612580565b61075b565b005b6101f86107de565b005b610214600480360381019061020f91906125c0565b6108e8565b005b61021e61096f565b60405161022b919061264c565b60405180910390f35b61024e600480360381019061024991906125c0565b610995565b005b61026a60048036038101906102659190612580565b610a1c565b6040516102779190612417565b60405180910390f35b610288610a87565b60405161029591906124a4565b60405180910390f35b6102b860048036038101906102b391906124f5565b610a8e565b005b6102c2610e15565b6040516102cf91906124a4565b60405180910390f35b6102f260048036038101906102ed91906126cc565b610e39565b005b61030e6004803603810190610309919061276a565b61192d565b005b61032a60048036038101906103259190612580565b611a49565b005b610346600480360381019061034191906125c0565b611a72565b60405161035391906127a6565b60405180910390f35b610376600480360381019061037191906125c0565b611abb565b60405161038391906127a6565b60405180910390f35b610394611bbc565b6040516103a191906128bd565b60405180910390f35b6103c460048036038101906103bf91906125c0565b611cb7565b6040516103d191906127a6565b60405180910390f35b6103f460048036038101906103ef91906124f5565b611d00565b60405161040191906128ee565b60405180910390f35b60007f7965db0b000000000000000000000000000000000000000000000000000000007bffffffffffffffffffffffffffffffffffffffffffffffffffffffff1916827bffffffffffffffffffffffffffffffffffffffffffffffffffffffff1916148061047d575061047c82611d3f565b5b9050919050565b600060016000838152602001908152602001600020600101549050919050565b6000600460003373ffffffffffffffffffffffffffffffffffffffff1673ffffffffffffffffffffffffffffffffffffffff1681526020019081526020016000205403610526576040517f08c379a000000000000000000000000000000000000000000000000000000000815260040161051d90612966565b60405180910390fd5b600081600560003373ffffffffffffffffffffffffffffffffffffffff1673ffffffffffffffffffffffffffffffffffffffff1681526020019081526020016000205461057391906129b5565b600460003373ffffffffffffffffffffffffffffffffffffffff1673ffffffffffffffffffffffffffffffffffffffff168152602001908152602001600020546105bd91906129e9565b10156105fe576040517f08c379a00000000000000000000000000000000000000000000000000000000081526004016105f590612a8f565b60405180910390fd5b80600560003373ffffffffffffffffffffffffffffffffffffffff1673ffffffffffffffffffffffffffffffffffffffff168152602001908152602001600020600082825461064d91906129b5565b925050819055503373ffffffffffffffffffffffffffffffffffffffff167f0f5bb82176feb1b5e747e28471aa92156a04d9f3ab9f45f28e2d704232b93f758260405161069a91906127a6565b60405180910390a23373ffffffffffffffffffffffffffffffffffffffff167f45a61950ae80a9a1d9a6c03683ce65096a7db8ca520632bed3072f40963c8804600560003373ffffffffffffffffffffffffffffffffffffffff1673ffffffffffffffffffffffffffffffffffffffff1681526020019081526020016000205460405161072791906127a6565b60405180910390a250565b61073b82610484565b61074c81610747611da9565b611db1565b6107568383611e4e565b505050565b610763611da9565b73ffffffffffffffffffffffffffffffffffffffff168173ffffffffffffffffffffffffffffffffffffffff16146107d0576040517f08c379a00000000000000000000000000000000000000000000000000000000081526004016107c790612b21565b60405180910390fd5b6107da8282611f2e565b5050565b6000600560003373ffffffffffffffffffffffffffffffffffffffff1673ffffffffffffffffffffffffffffffffffffffff1681526020019081526020016000205411610860576040517f08c379a000000000000000000000000000000000000000000000000000000000815260040161085790612b8d565b60405180910390fd5b600560003373ffffffffffffffffffffffffffffffffffffffff1673ffffffffffffffffffffffffffffffffffffffff168152602001908152602001600020600090553373ffffffffffffffffffffffffffffffffffffffff167f450cc0f663f8ded0053aeca240ef53a2f4b93c5c3aa067e8e45155e823ceaa7a60405160405180910390a2565b600360009054906101000a900473ffffffffffffffffffffffffffffffffffffffff1673ffffffffffffffffffffffffffffffffffffffff163373ffffffffffffffffffffffffffffffffffffffff161461094257600080fd5b61096c7f6819d2896fa4833eb5158abc566f5567fa977a468f59c2b18ae25bfe434af5c382610732565b50565b600260009054906101000a900473ffffffffffffffffffffffffffffffffffffffff1681565b600360009054906101000a900473ffffffffffffffffffffffffffffffffffffffff1673ffffffffffffffffffffffffffffffffffffffff163373ffffffffffffffffffffffffffffffffffffffff16146109ef57600080fd5b610a197f6819d2896fa4833eb5158abc566f5567fa977a468f59c2b18ae25bfe434af5c382611a49565b50565b60006001600084815260200190815260200160002060000160008373ffffffffffffffffffffffffffffffffffffffff1673ffffffffffffffffffffffffffffffffffffffff16815260200190815260200160002060009054906101000a900460ff16905092915050565b6000801b81565b600073ffffffffffffffffffffffffffffffffffffffff163373ffffffffffffffffffffffffffffffffffffffff1603610afd576040517f08c379a0000000000000000000000000000000000000000000000000000000008152600401610af490612bf9565b60405180910390fd5b600260009054906101000a900473ffffffffffffffffffffffffffffffffffffffff1673ffffffffffffffffffffffffffffffffffffffff166370a08231336040518263ffffffff1660e01b8152600401610b5891906128ee565b602060405180830381865afa158015610b75573d6000803e3d6000fd5b505050506040513d601f19601f82011682018060405250810190610b999190612c2e565b811115610bdb576040517f08c379a0000000000000000000000000000000000000000000000000000000008152600401610bd290612ccd565b60405180910390fd5b600260009054906101000a900473ffffffffffffffffffffffffffffffffffffffff1673ffffffffffffffffffffffffffffffffffffffff166323b872dd3330846040518463ffffffff1660e01b8152600401610c3a93929190612ced565b6020604051808303816000875af1158015610c59573d6000803e3d6000fd5b505050506040513d601f19601f82011682018060405250810190610c7d9190612d50565b5080600460003373ffffffffffffffffffffffffffffffffffffffff1673ffffffffffffffffffffffffffffffffffffffff1681526020019081526020016000206000828254610ccd91906129b5565b925050819055506006339080600181540180825580915050600190039060005260206000200160009091909190916101000a81548173ffffffffffffffffffffffffffffffffffffffff021916908373ffffffffffffffffffffffffffffffffffffffff1602179055503373ffffffffffffffffffffffffffffffffffffffff167f9e71bc8eea02a63969f509818f2dafb9254532904319f9dbda79b67bd34a5f3d82604051610d7d91906127a6565b60405180910390a23373ffffffffffffffffffffffffffffffffffffffff167f62be4aaebfea1375247e22afe02276e2d8d1b765bff167beda8066a0012c7b5f600460003373ffffffffffffffffffffffffffffffffffffffff1673ffffffffffffffffffffffffffffffffffffffff16815260200190815260200160002054604051610e0a91906127a6565b60405180910390a250565b7f6819d2896fa4833eb5158abc566f5567fa977a468f59c2b18ae25bfe434af5c381565b600360009054906101000a900473ffffffffffffffffffffffffffffffffffffffff1673ffffffffffffffffffffffffffffffffffffffff163373ffffffffffffffffffffffffffffffffffffffff161480610ebb5750610eba7f6819d2896fa4833eb5158abc566f5567fa977a468f59c2b18ae25bfe434af5c333610a1c565b5b610efa576040517f08c379a0000000000000000000000000000000000000000000000000000000008152600401610ef190612def565b60405180910390fd5b60005b600680549050811015611927576000805b84849050811015610fc95760068381548110610f2d57610f2c612e0f565b5b9060005260206000200160009054906101000a900473ffffffffffffffffffffffffffffffffffffffff1673ffffffffffffffffffffffffffffffffffffffff16858583818110610f8157610f80612e0f565b5b9050602002016020810190610f9691906125c0565b73ffffffffffffffffffffffffffffffffffffffff1603610fb657600191505b8080610fc190612e3e565b915050610f0e565b50600115158115150361134557600260009054906101000a900473ffffffffffffffffffffffffffffffffffffffff1673ffffffffffffffffffffffffffffffffffffffff1663a9059cbb86600460006006878154811061102d5761102c612e0f565b5b9060005260206000200160009054906101000a900473ffffffffffffffffffffffffffffffffffffffff1673ffffffffffffffffffffffffffffffffffffffff1673ffffffffffffffffffffffffffffffffffffffff168152602001908152602001600020546040518363ffffffff1660e01b81526004016110b0929190612e86565b6020604051808303816000875af11580156110cf573d6000803e3d6000fd5b505050506040513d601f19601f820116820180604052508101906110f39190612d50565b506006828154811061110857611107612e0f565b5b9060005260206000200160009054906101000a900473ffffffffffffffffffffffffffffffffffffffff1673ffffffffffffffffffffffffffffffffffffffff167f7fe451685bab7a17da665cc038b4635412b8d788bb692963f88e35eba15ae175600460006006868154811061118257611181612e0f565b5b9060005260206000200160009054906101000a900473ffffffffffffffffffffffffffffffffffffffff1673ffffffffffffffffffffffffffffffffffffffff1673ffffffffffffffffffffffffffffffffffffffff168152602001908152602001600020546040516111f591906127a6565b60405180910390a2600560006006848154811061121557611214612e0f565b5b9060005260206000200160009054906101000a900473ffffffffffffffffffffffffffffffffffffffff1673ffffffffffffffffffffffffffffffffffffffff1673ffffffffffffffffffffffffffffffffffffffff16815260200190815260200160002060009055600460006006848154811061129657611295612e0f565b5b9060005260206000200160009054906101000a900473ffffffffffffffffffffffffffffffffffffffff1673ffffffffffffffffffffffffffffffffffffffff1673ffffffffffffffffffffffffffffffffffffffff168152602001908152602001600020600090556006828154811061131357611312612e0f565b5b9060005260206000200160006101000a81549073ffffffffffffffffffffffffffffffffffffffff0219169055611913565b6000600560006006858154811061135f5761135e612e0f565b5b9060005260206000200160009054906101000a900473ffffffffffffffffffffffffffffffffffffffff1673ffffffffffffffffffffffffffffffffffffffff1673ffffffffffffffffffffffffffffffffffffffff168152602001908152602001600020541180156113d6575060001515811515145b1561191257600260009054906101000a900473ffffffffffffffffffffffffffffffffffffffff1673ffffffffffffffffffffffffffffffffffffffff1663a9059cbb6006848154811061142d5761142c612e0f565b5b9060005260206000200160009054906101000a900473ffffffffffffffffffffffffffffffffffffffff1660056000600687815481106114705761146f612e0f565b5b9060005260206000200160009054906101000a900473ffffffffffffffffffffffffffffffffffffffff1673ffffffffffffffffffffffffffffffffffffffff1673ffffffffffffffffffffffffffffffffffffffff168152602001908152602001600020546040518363ffffffff1660e01b81526004016114f3929190612e86565b6020604051808303816000875af1158015611512573d6000803e3d6000fd5b505050506040513d601f19601f820116820180604052508101906115369190612d50565b506006828154811061154b5761154a612e0f565b5b9060005260206000200160009054906101000a900473ffffffffffffffffffffffffffffffffffffffff1673ffffffffffffffffffffffffffffffffffffffff167f9b4c90d41aa819dadecbb2e126e6dc2e01be4402acc99ec60248131a3f59576c60056000600686815481106115c5576115c4612e0f565b5b9060005260206000200160009054906101000a900473ffffffffffffffffffffffffffffffffffffffff1673ffffffffffffffffffffffffffffffffffffffff1673ffffffffffffffffffffffffffffffffffffffff1681526020019081526020016000205460405161163891906127a6565b60405180910390a2600560006006848154811061165857611657612e0f565b5b9060005260206000200160009054906101000a900473ffffffffffffffffffffffffffffffffffffffff1673ffffffffffffffffffffffffffffffffffffffff1673ffffffffffffffffffffffffffffffffffffffff1681526020019081526020016000205460046000600685815481106116d6576116d5612e0f565b5b9060005260206000200160009054906101000a900473ffffffffffffffffffffffffffffffffffffffff1673ffffffffffffffffffffffffffffffffffffffff1673ffffffffffffffffffffffffffffffffffffffff1681526020019081526020016000205461174691906129e9565b600460006006858154811061175e5761175d612e0f565b5b9060005260206000200160009054906101000a900473ffffffffffffffffffffffffffffffffffffffff1673ffffffffffffffffffffffffffffffffffffffff1673ffffffffffffffffffffffffffffffffffffffff16815260200190815260200160002081905550600060056000600685815481106117e1576117e0612e0f565b5b9060005260206000200160009054906101000a900473ffffffffffffffffffffffffffffffffffffffff1673ffffffffffffffffffffffffffffffffffffffff1673ffffffffffffffffffffffffffffffffffffffff168152602001908152602001600020819055506000600460006006858154811061186457611863612e0f565b5b9060005260206000200160009054906101000a900473ffffffffffffffffffffffffffffffffffffffff1673ffffffffffffffffffffffffffffffffffffffff1673ffffffffffffffffffffffffffffffffffffffff168152602001908152602001600020541161191157600682815481106118e3576118e2612e0f565b5b9060005260206000200160006101000a81549073ffffffffffffffffffffffffffffffffffffffff02191690555b5b5b50808061191f90612e3e565b915050610efd565b50505050565b60006119396001612010565b9050801561195d576001600060016101000a81548160ff0219169083151502179055505b33600360006101000a81548173ffffffffffffffffffffffffffffffffffffffff021916908373ffffffffffffffffffffffffffffffffffffffff16021790555081600260006101000a81548173ffffffffffffffffffffffffffffffffffffffff021916908373ffffffffffffffffffffffffffffffffffffffff1602179055506119ec6000801b33612100565b8015611a455760008060016101000a81548160ff0219169083151502179055507f7f26b83ff96e1f2b6a682f133852f6798a09c465da95921460cefb38474024986001604051611a3c9190612ef7565b60405180910390a15b5050565b611a5282610484565b611a6381611a5e611da9565b611db1565b611a6d8383611f2e565b505050565b6000600460008373ffffffffffffffffffffffffffffffffffffffff1673ffffffffffffffffffffffffffffffffffffffff168152602001908152602001600020549050919050565b60008073ffffffffffffffffffffffffffffffffffffffff168273ffffffffffffffffffffffffffffffffffffffff1603611b2b576040517f08c379a0000000000000000000000000000000000000000000000000000000008152600401611b2290612bf9565b60405180910390fd5b600560008373ffffffffffffffffffffffffffffffffffffffff1673ffffffffffffffffffffffffffffffffffffffff16815260200190815260200160002054600460008473ffffffffffffffffffffffffffffffffffffffff1673ffffffffffffffffffffffffffffffffffffffff16815260200190815260200160002054611bb591906129e9565b9050919050565b60608060005b600680549050811015611caf57604051806040016040528060068381548110611bee57611bed612e0f565b5b9060005260206000200160009054906101000a900473ffffffffffffffffffffffffffffffffffffffff1673ffffffffffffffffffffffffffffffffffffffff168152602001611c7b60068481548110611c4b57611c4a612e0f565b5b9060005260206000200160009054906101000a900473ffffffffffffffffffffffffffffffffffffffff16611abb565b815250828281518110611c9157611c90612e0f565b5b60200260200101819052508080611ca790612e3e565b915050611bc2565b508091505090565b6000600560008373ffffffffffffffffffffffffffffffffffffffff1673ffffffffffffffffffffffffffffffffffffffff168152602001908152602001600020549050919050565b60068181548110611d1057600080fd5b906000526020600020016000915054906101000a900473ffffffffffffffffffffffffffffffffffffffff1681565b60007f01ffc9a7000000000000000000000000000000000000000000000000000000007bffffffffffffffffffffffffffffffffffffffffffffffffffffffff1916827bffffffffffffffffffffffffffffffffffffffffffffffffffffffff1916149050919050565b600033905090565b611dbb8282610a1c565b611e4a57611de08173ffffffffffffffffffffffffffffffffffffffff16601461210e565b611dee8360001c602061210e565b604051602001611dff92919061301b565b6040516020818303038152906040526040517f08c379a0000000000000000000000000000000000000000000000000000000008152600401611e41919061309f565b60405180910390fd5b5050565b611e588282610a1c565b611f2a57600180600084815260200190815260200160002060000160008373ffffffffffffffffffffffffffffffffffffffff1673ffffffffffffffffffffffffffffffffffffffff16815260200190815260200160002060006101000a81548160ff021916908315150217905550611ecf611da9565b73ffffffffffffffffffffffffffffffffffffffff168173ffffffffffffffffffffffffffffffffffffffff16837f2f8788117e7eff1d82e926ec794901d17c78024a50270940304540a733656f0d60405160405180910390a45b5050565b611f388282610a1c565b1561200c5760006001600084815260200190815260200160002060000160008373ffffffffffffffffffffffffffffffffffffffff1673ffffffffffffffffffffffffffffffffffffffff16815260200190815260200160002060006101000a81548160ff021916908315150217905550611fb1611da9565b73ffffffffffffffffffffffffffffffffffffffff168173ffffffffffffffffffffffffffffffffffffffff16837ff6391f5c32d9c69d2a47ea670b442974b53935d1edc7fd64eb21e047a839171b60405160405180910390a45b5050565b60008060019054906101000a900460ff16156120875760018260ff1614801561203f575061203d3061234a565b155b61207e576040517f08c379a000000000000000000000000000000000000000000000000000000000815260040161207590613133565b60405180910390fd5b600090506120fb565b8160ff1660008054906101000a900460ff1660ff16106120dc576040517f08c379a00000000000000000000000000000000000000000000000000000000081526004016120d390613133565b60405180910390fd5b816000806101000a81548160ff021916908360ff160217905550600190505b919050565b61210a8282611e4e565b5050565b6060600060028360026121219190613153565b61212b91906129b5565b67ffffffffffffffff81111561214457612143613195565b5b6040519080825280601f01601f1916602001820160405280156121765781602001600182028036833780820191505090505b5090507f3000000000000000000000000000000000000000000000000000000000000000816000815181106121ae576121ad612e0f565b5b60200101907effffffffffffffffffffffffffffffffffffffffffffffffffffffffffffff1916908160001a9053507f78000000000000000000000000000000000000000000000000000000000000008160018151811061221257612211612e0f565b5b60200101907effffffffffffffffffffffffffffffffffffffffffffffffffffffffffffff1916908160001a905350600060018460026122529190613153565b61225c91906129b5565b90505b60018111156122fc577f3031323334353637383961626364656600000000000000000000000000000000600f86166010811061229e5761229d612e0f565b5b1a60f81b8282815181106122b5576122b4612e0f565b5b60200101907effffffffffffffffffffffffffffffffffffffffffffffffffffffffffffff1916908160001a905350600485901c9450806122f5906131c4565b905061225f565b5060008414612340576040517f08c379a000000000000000000000000000000000000000000000000000000000815260040161233790613239565b60405180910390fd5b8091505092915050565b6000808273ffffffffffffffffffffffffffffffffffffffff163b119050919050565b600080fd5b600080fd5b60007fffffffff0000000000000000000000000000000000000000000000000000000082169050919050565b6123ac81612377565b81146123b757600080fd5b50565b6000813590506123c9816123a3565b92915050565b6000602082840312156123e5576123e461236d565b5b60006123f3848285016123ba565b91505092915050565b60008115159050919050565b612411816123fc565b82525050565b600060208201905061242c6000830184612408565b92915050565b6000819050919050565b61244581612432565b811461245057600080fd5b50565b6000813590506124628161243c565b92915050565b60006020828403121561247e5761247d61236d565b5b600061248c84828501612453565b91505092915050565b61249e81612432565b82525050565b60006020820190506124b96000830184612495565b92915050565b6000819050919050565b6124d2816124bf565b81146124dd57600080fd5b50565b6000813590506124ef816124c9565b92915050565b60006020828403121561250b5761250a61236d565b5b6000612519848285016124e0565b91505092915050565b600073ffffffffffffffffffffffffffffffffffffffff82169050919050565b600061254d82612522565b9050919050565b61255d81612542565b811461256857600080fd5b50565b60008135905061257a81612554565b92915050565b600080604083850312156125975761259661236d565b5b60006125a585828601612453565b92505060206125b68582860161256b565b9150509250929050565b6000602082840312156125d6576125d561236d565b5b60006125e48482850161256b565b91505092915050565b6000819050919050565b600061261261260d61260884612522565b6125ed565b612522565b9050919050565b6000612624826125f7565b9050919050565b600061263682612619565b9050919050565b6126468161262b565b82525050565b6000602082019050612661600083018461263d565b92915050565b600080fd5b600080fd5b600080fd5b60008083601f84011261268c5761268b612667565b5b8235905067ffffffffffffffff8111156126a9576126a861266c565b5b6020830191508360208202830111156126c5576126c4612671565b5b9250929050565b6000806000604084860312156126e5576126e461236d565b5b60006126f38682870161256b565b935050602084013567ffffffffffffffff81111561271457612713612372565b5b61272086828701612676565b92509250509250925092565b600061273782612542565b9050919050565b6127478161272c565b811461275257600080fd5b50565b6000813590506127648161273e565b92915050565b6000602082840312156127805761277f61236d565b5b600061278e84828501612755565b91505092915050565b6127a0816124bf565b82525050565b60006020820190506127bb6000830184612797565b92915050565b600081519050919050565b600082825260208201905092915050565b6000819050602082019050919050565b6127f681612542565b82525050565b612805816124bf565b82525050565b60408201600082015161282160008501826127ed565b50602082015161283460208501826127fc565b50505050565b6000612846838361280b565b60408301905092915050565b6000602082019050919050565b600061286a826127c1565b61287481856127cc565b935061287f836127dd565b8060005b838110156128b0578151612897888261283a565b97506128a283612852565b925050600181019050612883565b5085935050505092915050565b600060208201905081810360008301526128d7818461285f565b905092915050565b6128e881612542565b82525050565b600060208201905061290360008301846128df565b92915050565b600082825260208201905092915050565b7f486173206e6f74207374616b6564000000000000000000000000000000000000600082015250565b6000612950600e83612909565b915061295b8261291a565b602082019050919050565b6000602082019050818103600083015261297f81612943565b9050919050565b7f4e487b7100000000000000000000000000000000000000000000000000000000600052601160045260246000fd5b60006129c0826124bf565b91506129cb836124bf565b92508282019050808211156129e3576129e2612986565b5b92915050565b60006129f4826124bf565b91506129ff836124bf565b9250828203905081811115612a1757612a16612986565b5b92915050565b7f43616e6e6f7420756e7374616b65206d6f7265207468616e20746f74616c207360008201527f74616b656420616d6f756e740000000000000000000000000000000000000000602082015250565b6000612a79602c83612909565b9150612a8482612a1d565b604082019050919050565b60006020820190508181036000830152612aa881612a6c565b9050919050565b7f416363657373436f6e74726f6c3a2063616e206f6e6c792072656e6f756e636560008201527f20726f6c657320666f722073656c660000000000000000000000000000000000602082015250565b6000612b0b602f83612909565b9150612b1682612aaf565b604082019050919050565b60006020820190508181036000830152612b3a81612afe565b9050919050565b7f4e6f20756e7374616b6520746f2063616e63656c000000000000000000000000600082015250565b6000612b77601483612909565b9150612b8282612b41565b602082019050919050565b60006020820190508181036000830152612ba681612b6a565b9050919050565b7f53656e6465722069732030206164647265737300000000000000000000000000600082015250565b6000612be3601383612909565b9150612bee82612bad565b602082019050919050565b60006020820190508181036000830152612c1281612bd6565b9050919050565b600081519050612c28816124c9565b92915050565b600060208284031215612c4457612c4361236d565b5b6000612c5284828501612c19565b91505092915050565b7f416d6f756e74206578636565647320617661696c61626c65204356592062616c60008201527f616e636500000000000000000000000000000000000000000000000000000000602082015250565b6000612cb7602483612909565b9150612cc282612c5b565b604082019050919050565b60006020820190508181036000830152612ce681612caa565b9050919050565b6000606082019050612d0260008301866128df565b612d0f60208301856128df565b612d1c6040830184612797565b949350505050565b612d2d816123fc565b8114612d3857600080fd5b50565b600081519050612d4a81612d24565b92915050565b600060208284031215612d6657612d6561236d565b5b6000612d7484828501612d3b565b91505092915050565b7f5265717569726573206f776e6572206f722064697370656e73657220746f206360008201527f616c6c0000000000000000000000000000000000000000000000000000000000602082015250565b6000612dd9602383612909565b9150612de482612d7d565b604082019050919050565b60006020820190508181036000830152612e0881612dcc565b9050919050565b7f4e487b7100000000000000000000000000000000000000000000000000000000600052603260045260246000fd5b6000612e49826124bf565b91507fffffffffffffffffffffffffffffffffffffffffffffffffffffffffffffffff8203612e7b57612e7a612986565b5b600182019050919050565b6000604082019050612e9b60008301856128df565b612ea86020830184612797565b9392505050565b6000819050919050565b600060ff82169050919050565b6000612ee1612edc612ed784612eaf565b6125ed565b612eb9565b9050919050565b612ef181612ec6565b82525050565b6000602082019050612f0c6000830184612ee8565b92915050565b600081905092915050565b7f416363657373436f6e74726f6c3a206163636f756e7420000000000000000000600082015250565b6000612f53601783612f12565b9150612f5e82612f1d565b601782019050919050565b600081519050919050565b60005b83811015612f92578082015181840152602081019050612f77565b60008484015250505050565b6000612fa982612f69565b612fb38185612f12565b9350612fc3818560208601612f74565b80840191505092915050565b7f206973206d697373696e6720726f6c6520000000000000000000000000000000600082015250565b6000613005601183612f12565b915061301082612fcf565b601182019050919050565b600061302682612f46565b91506130328285612f9e565b915061303d82612ff8565b91506130498284612f9e565b91508190509392505050565b6000601f19601f8301169050919050565b600061307182612f69565b61307b8185612909565b935061308b818560208601612f74565b61309481613055565b840191505092915050565b600060208201905081810360008301526130b98184613066565b905092915050565b7f496e697469616c697a61626c653a20636f6e747261637420697320616c72656160008201527f647920696e697469616c697a6564000000000000000000000000000000000000602082015250565b600061311d602e83612909565b9150613128826130c1565b604082019050919050565b6000602082019050818103600083015261314c81613110565b9050919050565b600061315e826124bf565b9150613169836124bf565b9250828202613177816124bf565b9150828204841483151761318e5761318d612986565b5b5092915050565b7f4e487b7100000000000000000000000000000000000000000000000000000000600052604160045260246000fd5b60006131cf826124bf565b9150600082036131e2576131e1612986565b5b600182039050919050565b7f537472696e67733a20686578206c656e67746820696e73756666696369656e74600082015250565b6000613223602083612909565b915061322e826131ed565b602082019050919050565b6000602082019050818103600083015261325281613216565b905091905056fea2646970667358221220d2ba168577cf9ca4be13867c8d81852b9c2e0416dcc74fa0faa201bd2da432d564736f6c63430008110033",
  "immutableReferences": {},
  "source": "// contracts/CoveyStaking.sol\n// SPDX-License-Identifier: MIT\npragma solidity ^0.8.9;\n\nimport \"@openzeppelin/contracts/access/Ownable.sol\";\nimport '@openzeppelin/contracts-upgradeable/proxy/utils/Initializable.sol';\nimport '@openzeppelin/contracts/token/ERC20/IERC20.sol';\nimport \"@openzeppelin/contracts/access/AccessControl.sol\";\n\n\ncontract CoveyStaking is Initializable, AccessControl {\n    bytes32 public constant DISPENSER = keccak256(\"DISPENSER\");\n    IERC20 public stakingToken;\n    struct StakeInfo {\n      address staker;\n      uint256 stakedAmount;\n    }\n    address owner;\n\n\n    mapping(address => uint256) private _stakedAmounts;\n\n    mapping(address => uint256) private _unstakedAmounts;\n\n    address[] public stakers;\n\n    \n\n    event Staked(address indexed _adr, uint256 amount);\n    \n    event Unstaked(address indexed _adr, uint256 amount);\n\n    event TotalStaked(address indexed _adr, uint256 amount);\n    \n    event TotalUnstaked(address indexed _adr, uint256 amount);\n\n    event CancelledUnstake(address indexed _adr);\n\n    event Bankrupt(address indexed _adr, uint256 amountLost);\n\n    event StakeDispensed(address indexed _adr, uint256 amountDispensed);\n\n    modifier onlyOwner {\n        require(msg.sender == owner);\n        _;\n    }\n\n    modifier onlyOwnerOrDispenser {\n        require(msg.sender == owner || hasRole(DISPENSER, msg.sender), \"Requires owner or dispenser to call\");\n        _;\n    }\n\n    function initialize(IERC20 _stakingToken) public initializer {\n            owner = msg.sender;\n            stakingToken = _stakingToken;\n            _setupRole(DEFAULT_ADMIN_ROLE, msg.sender);\n        }\n\n    \n\n    function stake(uint256 amount) public {\n        require(msg.sender != address(0), \"Sender is 0 address\");\n        require(amount <= stakingToken.balanceOf(msg.sender), \"Amount exceeds available CVY balance\");\n\n        stakingToken.transferFrom(msg.sender, address(this), amount);\n        _stakedAmounts[msg.sender] +=  amount;\n        stakers.push(msg.sender);\n        emit Staked(msg.sender, amount);\n        emit TotalStaked(msg.sender, _stakedAmounts[msg.sender]);\n    }\n\n    function unstake(uint256 amount) public {\n        require(_stakedAmounts[msg.sender] != 0, \"Has not staked\");\n        require(_stakedAmounts[msg.sender] - (_unstakedAmounts[msg.sender] + amount) >= 0, \"Cannot unstake more than total staked amount\");\n        _unstakedAmounts[msg.sender] += amount;\n        emit Unstaked(msg.sender, amount);\n        emit TotalUnstaked(msg.sender, _unstakedAmounts[msg.sender]);\n    }\n\n    function cancelUnstake() public {\n        require(_unstakedAmounts[msg.sender] > 0, \"No unstake to cancel\");\n        delete _unstakedAmounts[msg.sender];\n        emit CancelledUnstake(msg.sender);\n    }\n\n    function getTotalStaked(address _adr) public view returns(uint256) {\n        return _stakedAmounts[_adr];\n    }\n\n    function getTotalUnstaked(address _adr) public view returns(uint256) {\n        return _unstakedAmounts[_adr];\n    }\n\n    function dispenseStakes(address bankruptciesReceiver, address[] calldata bankruptAddresses) public onlyOwnerOrDispenser {\n        for(uint256 i = 0; i < stakers.length; i++) {\n            bool isBankrupt = false;\n            for(uint256 j = 0; j < bankruptAddresses.length; j++) {\n                    if(bankruptAddresses[j] == stakers[i]) {\n                        isBankrupt = true;\n                    }\n                }\n\n            if(isBankrupt == true) {\n                stakingToken.transfer(bankruptciesReceiver, _stakedAmounts[stakers[i]]);\n                emit Bankrupt(stakers[i], _stakedAmounts[stakers[i]]);\n                delete _unstakedAmounts[stakers[i]];\n                delete _stakedAmounts[stakers[i]];\n                delete stakers[i]; \n            } else if( _unstakedAmounts[stakers[i]] > 0 && isBankrupt == false) {\n                stakingToken.transfer(stakers[i], _unstakedAmounts[stakers[i]]);\n                emit StakeDispensed(stakers[i], _unstakedAmounts[stakers[i]]);\n                _stakedAmounts[stakers[i]] = _stakedAmounts[stakers[i]] - _unstakedAmounts[stakers[i]];\n                _unstakedAmounts[stakers[i]] = 0;\n\n                if(_stakedAmounts[stakers[i]] <= 0) {\n                    delete stakers[i];\n                }\n            }\n        }\n    }\n\n    function getNetStaked(address staker) public view returns (uint) {\n        require(staker != address(0), \"Sender is 0 address\");\n        \n        return _stakedAmounts[staker] - _unstakedAmounts[staker];\n    }\n\n    function getAllNetStaked() public view returns (StakeInfo[] memory) {\n        StakeInfo[] memory stakeInformation;\n\n        for(uint256 i = 0; i < stakers.length; i++) {\n            stakeInformation[i] = StakeInfo({\n                staker: stakers[i],\n                stakedAmount: getNetStaked(stakers[i])\n            });\n        }\n\n        return stakeInformation;\n    }\n\n    function delegateDispenser(address _addr) public onlyOwner {\n        grantRole(DISPENSER, _addr);\n    }\n\n    function revokeDispenser(address _addr) public onlyOwner {\n        revokeRole(DISPENSER, _addr);\n    }\n}",
  "sourcePath": "/Users/brookerbelcourt/smart-contract-token/contracts/CoveyStaking.sol",
  "compiler": {
    "name": "solc",
    "version": "0.8.17+commit.8df45f5f.Emscripten.clang"
  },
  "schemaVersion": "3.4.10",
  "updatedAt": "2022-09-29T16:15:08.076Z",
  "devdoc": {
    "kind": "dev",
    "methods": {
      "getRoleAdmin(bytes32)": {
        "details": "Returns the admin role that controls `role`. See {grantRole} and {revokeRole}. To change a role's admin, use {_setRoleAdmin}."
      },
      "grantRole(bytes32,address)": {
        "details": "Grants `role` to `account`. If `account` had not been already granted `role`, emits a {RoleGranted} event. Requirements: - the caller must have ``role``'s admin role."
      },
      "hasRole(bytes32,address)": {
        "details": "Returns `true` if `account` has been granted `role`."
      },
      "renounceRole(bytes32,address)": {
        "details": "Revokes `role` from the calling account. Roles are often managed via {grantRole} and {revokeRole}: this function's purpose is to provide a mechanism for accounts to lose their privileges if they are compromised (such as when a trusted device is misplaced). If the calling account had been revoked `role`, emits a {RoleRevoked} event. Requirements: - the caller must be `account`."
      },
      "revokeRole(bytes32,address)": {
        "details": "Revokes `role` from `account`. If `account` had been granted `role`, emits a {RoleRevoked} event. Requirements: - the caller must have ``role``'s admin role."
      },
      "supportsInterface(bytes4)": {
        "details": "See {IERC165-supportsInterface}."
      }
    },
    "version": 1
  },
  "userdoc": {
    "kind": "user",
    "methods": {},
    "version": 1
  }
}