{
  "contractName": "CoveyToken",
  "abi": [
    {
      "inputs": [
        {
          "internalType": "uint256",
          "name": "initialSupply",
          "type": "uint256"
        },
        {
          "internalType": "address[]",
          "name": "defaultOperators",
          "type": "address[]"
        }
      ],
      "stateMutability": "nonpayable",
      "type": "constructor"
    },
    {
      "anonymous": false,
      "inputs": [
        {
          "indexed": true,
          "internalType": "address",
          "name": "owner",
          "type": "address"
        },
        {
          "indexed": true,
          "internalType": "address",
          "name": "spender",
          "type": "address"
        },
        {
          "indexed": false,
          "internalType": "uint256",
          "name": "value",
          "type": "uint256"
        }
      ],
      "name": "Approval",
      "type": "event"
    },
    {
      "anonymous": false,
      "inputs": [
        {
          "indexed": true,
          "internalType": "address",
          "name": "operator",
          "type": "address"
        },
        {
          "indexed": true,
          "internalType": "address",
          "name": "tokenHolder",
          "type": "address"
        }
      ],
      "name": "AuthorizedOperator",
      "type": "event"
    },
    {
      "anonymous": false,
      "inputs": [
        {
          "indexed": true,
          "internalType": "address",
          "name": "operator",
          "type": "address"
        },
        {
          "indexed": true,
          "internalType": "address",
          "name": "from",
          "type": "address"
        },
        {
          "indexed": false,
          "internalType": "uint256",
          "name": "amount",
          "type": "uint256"
        },
        {
          "indexed": false,
          "internalType": "bytes",
          "name": "data",
          "type": "bytes"
        },
        {
          "indexed": false,
          "internalType": "bytes",
          "name": "operatorData",
          "type": "bytes"
        }
      ],
      "name": "Burned",
      "type": "event"
    },
    {
      "anonymous": false,
      "inputs": [
        {
          "indexed": true,
          "internalType": "address",
          "name": "_adr",
          "type": "address"
        },
        {
          "indexed": false,
          "internalType": "uint256",
          "name": "amount",
          "type": "uint256"
        },
        {
          "indexed": true,
          "internalType": "uint256",
          "name": "unlockTime",
          "type": "uint256"
        },
        {
          "indexed": true,
          "internalType": "bytes32",
          "name": "reason",
          "type": "bytes32"
        }
      ],
      "name": "Lock",
      "type": "event"
    },
    {
      "anonymous": false,
      "inputs": [
        {
          "indexed": true,
          "internalType": "address",
          "name": "operator",
          "type": "address"
        },
        {
          "indexed": true,
          "internalType": "address",
          "name": "to",
          "type": "address"
        },
        {
          "indexed": false,
          "internalType": "uint256",
          "name": "amount",
          "type": "uint256"
        },
        {
          "indexed": false,
          "internalType": "bytes",
          "name": "data",
          "type": "bytes"
        },
        {
          "indexed": false,
          "internalType": "bytes",
          "name": "operatorData",
          "type": "bytes"
        }
      ],
      "name": "Minted",
      "type": "event"
    },
    {
      "anonymous": false,
      "inputs": [
        {
          "indexed": true,
          "internalType": "address",
          "name": "previousOwner",
          "type": "address"
        },
        {
          "indexed": true,
          "internalType": "address",
          "name": "newOwner",
          "type": "address"
        }
      ],
      "name": "OwnershipTransferred",
      "type": "event"
    },
    {
      "anonymous": false,
      "inputs": [
        {
          "indexed": true,
          "internalType": "address",
          "name": "operator",
          "type": "address"
        },
        {
          "indexed": true,
          "internalType": "address",
          "name": "tokenHolder",
          "type": "address"
        }
      ],
      "name": "RevokedOperator",
      "type": "event"
    },
    {
      "anonymous": false,
      "inputs": [
        {
          "indexed": true,
          "internalType": "address",
          "name": "operator",
          "type": "address"
        },
        {
          "indexed": true,
          "internalType": "address",
          "name": "from",
          "type": "address"
        },
        {
          "indexed": true,
          "internalType": "address",
          "name": "to",
          "type": "address"
        },
        {
          "indexed": false,
          "internalType": "uint256",
          "name": "amount",
          "type": "uint256"
        },
        {
          "indexed": false,
          "internalType": "bytes",
          "name": "data",
          "type": "bytes"
        },
        {
          "indexed": false,
          "internalType": "bytes",
          "name": "operatorData",
          "type": "bytes"
        }
      ],
      "name": "Sent",
      "type": "event"
    },
    {
      "anonymous": false,
      "inputs": [
        {
          "indexed": true,
          "internalType": "address",
          "name": "from",
          "type": "address"
        },
        {
          "indexed": true,
          "internalType": "address",
          "name": "to",
          "type": "address"
        },
        {
          "indexed": false,
          "internalType": "uint256",
          "name": "value",
          "type": "uint256"
        }
      ],
      "name": "Transfer",
      "type": "event"
    },
    {
      "anonymous": false,
      "inputs": [
        {
          "indexed": true,
          "internalType": "address",
          "name": "_adr",
          "type": "address"
        },
        {
          "indexed": false,
          "internalType": "uint256",
          "name": "amount",
          "type": "uint256"
        }
      ],
      "name": "Unlock",
      "type": "event"
    },
    {
      "inputs": [
        {
          "internalType": "address",
          "name": "holder",
          "type": "address"
        },
        {
          "internalType": "address",
          "name": "spender",
          "type": "address"
        }
      ],
      "name": "allowance",
      "outputs": [
        {
          "internalType": "uint256",
          "name": "",
          "type": "uint256"
        }
      ],
      "stateMutability": "view",
      "type": "function",
      "constant": true
    },
    {
      "inputs": [
        {
          "internalType": "address",
          "name": "spender",
          "type": "address"
        },
        {
          "internalType": "uint256",
          "name": "value",
          "type": "uint256"
        }
      ],
      "name": "approve",
      "outputs": [
        {
          "internalType": "bool",
          "name": "",
          "type": "bool"
        }
      ],
      "stateMutability": "nonpayable",
      "type": "function"
    },
    {
      "inputs": [
        {
          "internalType": "address",
          "name": "operator",
          "type": "address"
        }
      ],
      "name": "authorizeOperator",
      "outputs": [],
      "stateMutability": "nonpayable",
      "type": "function"
    },
    {
      "inputs": [
        {
          "internalType": "address",
          "name": "tokenHolder",
          "type": "address"
        }
      ],
      "name": "balanceOf",
      "outputs": [
        {
          "internalType": "uint256",
          "name": "",
          "type": "uint256"
        }
      ],
      "stateMutability": "view",
      "type": "function",
      "constant": true
    },
    {
      "inputs": [
        {
          "internalType": "uint256",
          "name": "amount",
          "type": "uint256"
        },
        {
          "internalType": "bytes",
          "name": "data",
          "type": "bytes"
        }
      ],
      "name": "burn",
      "outputs": [],
      "stateMutability": "nonpayable",
      "type": "function"
    },
    {
      "inputs": [],
      "name": "decimals",
      "outputs": [
        {
          "internalType": "uint8",
          "name": "",
          "type": "uint8"
        }
      ],
      "stateMutability": "pure",
      "type": "function",
      "constant": true
    },
    {
      "inputs": [],
      "name": "defaultOperators",
      "outputs": [
        {
          "internalType": "address[]",
          "name": "",
          "type": "address[]"
        }
      ],
      "stateMutability": "view",
      "type": "function",
      "constant": true
    },
    {
      "inputs": [],
      "name": "granularity",
      "outputs": [
        {
          "internalType": "uint256",
          "name": "",
          "type": "uint256"
        }
      ],
      "stateMutability": "view",
      "type": "function",
      "constant": true
    },
    {
      "inputs": [
        {
          "internalType": "address",
          "name": "operator",
          "type": "address"
        },
        {
          "internalType": "address",
          "name": "tokenHolder",
          "type": "address"
        }
      ],
      "name": "isOperatorFor",
      "outputs": [
        {
          "internalType": "bool",
          "name": "",
          "type": "bool"
        }
      ],
      "stateMutability": "view",
      "type": "function",
      "constant": true
    },
    {
      "inputs": [],
      "name": "name",
      "outputs": [
        {
          "internalType": "string",
          "name": "",
          "type": "string"
        }
      ],
      "stateMutability": "view",
      "type": "function",
      "constant": true
    },
    {
      "inputs": [
        {
          "internalType": "address",
          "name": "account",
          "type": "address"
        },
        {
          "internalType": "uint256",
          "name": "amount",
          "type": "uint256"
        },
        {
          "internalType": "bytes",
          "name": "data",
          "type": "bytes"
        },
        {
          "internalType": "bytes",
          "name": "operatorData",
          "type": "bytes"
        }
      ],
      "name": "operatorBurn",
      "outputs": [],
      "stateMutability": "nonpayable",
      "type": "function"
    },
    {
      "inputs": [
        {
          "internalType": "address",
          "name": "sender",
          "type": "address"
        },
        {
          "internalType": "address",
          "name": "recipient",
          "type": "address"
        },
        {
          "internalType": "uint256",
          "name": "amount",
          "type": "uint256"
        },
        {
          "internalType": "bytes",
          "name": "data",
          "type": "bytes"
        },
        {
          "internalType": "bytes",
          "name": "operatorData",
          "type": "bytes"
        }
      ],
      "name": "operatorSend",
      "outputs": [],
      "stateMutability": "nonpayable",
      "type": "function"
    },
    {
      "inputs": [],
      "name": "owner",
      "outputs": [
        {
          "internalType": "address",
          "name": "",
          "type": "address"
        }
      ],
      "stateMutability": "view",
      "type": "function",
      "constant": true
    },
    {
      "inputs": [],
      "name": "renounceOwnership",
      "outputs": [],
      "stateMutability": "nonpayable",
      "type": "function"
    },
    {
      "inputs": [
        {
          "internalType": "address",
          "name": "operator",
          "type": "address"
        }
      ],
      "name": "revokeOperator",
      "outputs": [],
      "stateMutability": "nonpayable",
      "type": "function"
    },
    {
      "inputs": [
        {
          "internalType": "address",
          "name": "recipient",
          "type": "address"
        },
        {
          "internalType": "uint256",
          "name": "amount",
          "type": "uint256"
        },
        {
          "internalType": "bytes",
          "name": "data",
          "type": "bytes"
        }
      ],
      "name": "send",
      "outputs": [],
      "stateMutability": "nonpayable",
      "type": "function"
    },
    {
      "inputs": [],
      "name": "symbol",
      "outputs": [
        {
          "internalType": "string",
          "name": "",
          "type": "string"
        }
      ],
      "stateMutability": "view",
      "type": "function",
      "constant": true
    },
    {
      "inputs": [],
      "name": "totalSupply",
      "outputs": [
        {
          "internalType": "uint256",
          "name": "",
          "type": "uint256"
        }
      ],
      "stateMutability": "view",
      "type": "function",
      "constant": true
    },
    {
      "inputs": [
        {
          "internalType": "address",
          "name": "recipient",
          "type": "address"
        },
        {
          "internalType": "uint256",
          "name": "amount",
          "type": "uint256"
        }
      ],
      "name": "transfer",
      "outputs": [
        {
          "internalType": "bool",
          "name": "",
          "type": "bool"
        }
      ],
      "stateMutability": "nonpayable",
      "type": "function"
    },
    {
      "inputs": [
        {
          "internalType": "address",
          "name": "holder",
          "type": "address"
        },
        {
          "internalType": "address",
          "name": "recipient",
          "type": "address"
        },
        {
          "internalType": "uint256",
          "name": "amount",
          "type": "uint256"
        }
      ],
      "name": "transferFrom",
      "outputs": [
        {
          "internalType": "bool",
          "name": "",
          "type": "bool"
        }
      ],
      "stateMutability": "nonpayable",
      "type": "function"
    },
    {
      "inputs": [
        {
          "internalType": "address",
          "name": "newOwner",
          "type": "address"
        }
      ],
      "name": "transferOwnership",
      "outputs": [],
      "stateMutability": "nonpayable",
      "type": "function"
    },
    {
      "inputs": [
        {
          "internalType": "address",
          "name": "account",
          "type": "address"
        },
        {
          "internalType": "uint256",
          "name": "amount",
          "type": "uint256"
        },
        {
          "internalType": "bytes",
          "name": "userData",
          "type": "bytes"
        },
        {
          "internalType": "bytes",
          "name": "operatorData",
          "type": "bytes"
        }
      ],
      "name": "mint",
      "outputs": [],
      "stateMutability": "nonpayable",
      "type": "function"
    },
    {
      "inputs": [
        {
          "internalType": "address",
          "name": "tokenHolder",
          "type": "address"
        }
      ],
      "name": "lockedBalanceOf",
      "outputs": [
        {
          "internalType": "uint256",
          "name": "",
          "type": "uint256"
        }
      ],
      "stateMutability": "view",
      "type": "function",
      "constant": true
    },
    {
      "inputs": [
        {
          "internalType": "address",
          "name": "tokenHolder",
          "type": "address"
        }
      ],
      "name": "unlockedBalancedOf",
      "outputs": [
        {
          "internalType": "uint256",
          "name": "",
          "type": "uint256"
        }
      ],
      "stateMutability": "view",
      "type": "function",
      "constant": true
    },
    {
      "inputs": [
        {
          "internalType": "address",
          "name": "tokenHolder",
          "type": "address"
        }
      ],
      "name": "getLocks",
      "outputs": [
        {
          "components": [
            {
              "internalType": "uint256",
              "name": "amount",
              "type": "uint256"
            },
            {
              "internalType": "uint256",
              "name": "unlockAt",
              "type": "uint256"
            },
            {
              "internalType": "bytes32",
              "name": "reason",
              "type": "bytes32"
            }
          ],
          "internalType": "struct CoveyToken.TokenLock[]",
          "name": "",
          "type": "tuple[]"
        }
      ],
      "stateMutability": "view",
      "type": "function",
      "constant": true
    },
    {
      "inputs": [],
      "name": "maxSupply",
      "outputs": [
        {
          "internalType": "uint256",
          "name": "",
          "type": "uint256"
        }
      ],
      "stateMutability": "view",
      "type": "function",
      "constant": true
    },
    {
      "inputs": [
        {
          "components": [
            {
              "internalType": "address",
              "name": "recipient",
              "type": "address"
            },
            {
              "internalType": "uint256",
              "name": "amount",
              "type": "uint256"
            },
            {
              "internalType": "uint256",
              "name": "lockForSeconds",
              "type": "uint256"
            },
            {
              "internalType": "bytes32",
              "name": "reason",
              "type": "bytes32"
            }
          ],
          "internalType": "struct CoveyToken.Airdrop[]",
          "name": "airdrops",
          "type": "tuple[]"
        }
      ],
      "name": "airdrop",
      "outputs": [],
      "stateMutability": "nonpayable",
      "type": "function"
    },
    {
      "inputs": [
        {
          "internalType": "address",
          "name": "to",
          "type": "address"
        },
        {
          "internalType": "uint256",
          "name": "amount",
          "type": "uint256"
        },
        {
          "internalType": "uint256",
          "name": "timeToLock",
          "type": "uint256"
        },
        {
          "internalType": "bytes32",
          "name": "reason",
          "type": "bytes32"
        }
      ],
      "name": "sendLocked",
      "outputs": [],
      "stateMutability": "nonpayable",
      "type": "function"
    },
    {
      "inputs": [
        {
          "internalType": "address",
          "name": "_adr",
          "type": "address"
        },
        {
          "internalType": "uint256",
          "name": "lockIndex",
          "type": "uint256"
        }
      ],
      "name": "unlock",
      "outputs": [],
      "stateMutability": "nonpayable",
      "type": "function"
    }
  ],
  "bytecode": "0x60806040526b033b2e3c9fd0803ce8000000600b553480156200002157600080fd5b5060405162005f6738038062005f67833981810160405281019062000047919062001131565b6040518060400160405280600581526020017f436f7665790000000000000000000000000000000000000000000000000000008152506040518060400160405280600381526020017f4356590000000000000000000000000000000000000000000000000000000000815250828260029080519060200190620000cc92919062000dc9565b508160039080519060200190620000e592919062000dc9565b508060049080519060200190620000fe92919062000e5a565b5060005b8151811015620001975760016005600084848151811062000128576200012762001197565b5b602002602001015173ffffffffffffffffffffffffffffffffffffffff1673ffffffffffffffffffffffffffffffffffffffff16815260200190815260200160002060006101000a81548160ff02191690831515021790555080806200018e90620011f5565b91505062000102565b50731820a4b7618bde71dce8cdc73aab6c95905fad2473ffffffffffffffffffffffffffffffffffffffff166329965a1d307fac7fbab5f54a3ca8194167523c6753bfeb96a445279294b6125b68cce2177054306040518463ffffffff1660e01b81526004016200020b939291906200126f565b600060405180830381600087803b1580156200022657600080fd5b505af11580156200023b573d6000803e3d6000fd5b50505050731820a4b7618bde71dce8cdc73aab6c95905fad2473ffffffffffffffffffffffffffffffffffffffff166329965a1d307faea199e31a596269b42cdafd93407f14436db6e4cad65417994c2eb37381e05a306040518463ffffffff1660e01b8152600401620002b2939291906200126f565b600060405180830381600087803b158015620002cd57600080fd5b505af1158015620002e2573d6000803e3d6000fd5b5050505050505062000309620002fd6200034360201b60201c565b6200034b60201b60201c565b6200033b338360405180602001604052806000815250604051806020016040528060008152506200041160201b60201c565b505062001768565b600033905090565b6000600960009054906101000a900473ffffffffffffffffffffffffffffffffffffffff16905081600960006101000a81548173ffffffffffffffffffffffffffffffffffffffff021916908373ffffffffffffffffffffffffffffffffffffffff1602179055508173ffffffffffffffffffffffffffffffffffffffff168173ffffffffffffffffffffffffffffffffffffffff167f8be0079c531659141344cd1fd0a4f28419497f9722a3daafe3b4186f6b6457e060405160405180910390a35050565b620004278484848460016200042d60201b60201c565b50505050565b600073ffffffffffffffffffffffffffffffffffffffff168573ffffffffffffffffffffffffffffffffffffffff161415620004a0576040517f08c379a000000000000000000000000000000000000000000000000000000000815260040162000497906200130d565b60405180910390fd5b6000620004b26200034360201b60201c565b9050620004c981600088886200062e60201b60201c565b8460016000828254620004dd91906200132f565b92505081905550846000808873ffffffffffffffffffffffffffffffffffffffff1673ffffffffffffffffffffffffffffffffffffffff16815260200190815260200160002060008282546200053491906200132f565b92505081905550620005538160008888888888620009c560201b60201c565b8573ffffffffffffffffffffffffffffffffffffffff168173ffffffffffffffffffffffffffffffffffffffff167f2fe5be0146f74c5bce36c0b80911af6c7d86ff27e89d5cfa61fc681327954e5d878787604051620005b69392919062001430565b60405180910390a38573ffffffffffffffffffffffffffffffffffffffff16600073ffffffffffffffffffffffffffffffffffffffff167fddf252ad1be2c89b69c2b068fc378daa952ba7f163c4a11628f55a4df523b3ef876040516200061e91906200147b565b60405180910390a3505050505050565b600080600a60008673ffffffffffffffffffffffffffffffffffffffff1673ffffffffffffffffffffffffffffffffffffffff1681526020019081526020016000208054905011156200092c5760005b600a60008673ffffffffffffffffffffffffffffffffffffffff1673ffffffffffffffffffffffffffffffffffffffff168152602001908152602001600020805490508110156200092a576000600a60008773ffffffffffffffffffffffffffffffffffffffff1673ffffffffffffffffffffffffffffffffffffffff16815260200190815260200160002082815481106200071f576200071e62001197565b5b90600052602060002090600302016000015414158015620007a45750600a60008673ffffffffffffffffffffffffffffffffffffffff1673ffffffffffffffffffffffffffffffffffffffff16815260200190815260200160002081815481106200078f576200078e62001197565b5b90600052602060002090600302016001015442105b156200082057600a60008673ffffffffffffffffffffffffffffffffffffffff1673ffffffffffffffffffffffffffffffffffffffff1681526020019081526020016000208181548110620007fe57620007fd62001197565b5b906000526020600020906003020160000154826200081d91906200132f565b91505b600a60008673ffffffffffffffffffffffffffffffffffffffff1673ffffffffffffffffffffffffffffffffffffffff168152602001908152602001600020818154811062000874576200087362001197565b5b90600052602060002090600302016001015442118015620008fb57506000600a60008773ffffffffffffffffffffffffffffffffffffffff1673ffffffffffffffffffffffffffffffffffffffff1681526020019081526020016000208281548110620008e657620008e562001197565b5b90600052602060002090600302016000015414155b15620009145762000913858262000bb360201b60201c565b5b80806200092190620011f5565b9150506200067e565b505b6000811115620009a5576000620009498562000d5860201b60201c565b9050600083826200095b919062001498565b9050828111620009a2576040517f08c379a0000000000000000000000000000000000000000000000000000000008152600401620009999062001549565b60405180910390fd5b50505b620009be8585858562000da060201b62001bf51760201c565b5050505050565b6000731820a4b7618bde71dce8cdc73aab6c95905fad2473ffffffffffffffffffffffffffffffffffffffff1663aabbb8ca877fb281fc8c12954d22544db45de3159a39272895b169a852b314f9cc762e44c53b6040518363ffffffff1660e01b815260040162000a389291906200156b565b602060405180830381865afa15801562000a56573d6000803e3d6000fd5b505050506040513d601f19601f8201168201806040525081019062000a7c919062001598565b9050600073ffffffffffffffffffffffffffffffffffffffff168173ffffffffffffffffffffffffffffffffffffffff161462000b31578073ffffffffffffffffffffffffffffffffffffffff166223de298989898989896040518763ffffffff1660e01b815260040162000af796959493929190620015ca565b600060405180830381600087803b15801562000b1257600080fd5b505af115801562000b27573d6000803e3d6000fd5b5050505062000ba9565b811562000ba85762000b648673ffffffffffffffffffffffffffffffffffffffff1662000da660201b62001bfb1760201c565b1562000ba7576040517f08c379a000000000000000000000000000000000000000000000000000000000815260040162000b9e90620016e1565b60405180910390fd5b5b5b5050505050505050565b6000600a60008473ffffffffffffffffffffffffffffffffffffffff1673ffffffffffffffffffffffffffffffffffffffff168152602001908152602001600020828154811062000c095762000c0862001197565b5b9060005260206000209060030201600001541462000d54578173ffffffffffffffffffffffffffffffffffffffff167f6381d9813cabeb57471b5a7e05078e64845ccdb563146a6911d536f24ce960f1600a60008573ffffffffffffffffffffffffffffffffffffffff1673ffffffffffffffffffffffffffffffffffffffff168152602001908152602001600020838154811062000cad5762000cac62001197565b5b90600052602060002090600302016000015460405162000cce91906200147b565b60405180910390a2600a60008373ffffffffffffffffffffffffffffffffffffffff1673ffffffffffffffffffffffffffffffffffffffff168152602001908152602001600020818154811062000d2a5762000d2962001197565b5b90600052602060002090600302016000808201600090556001820160009055600282016000905550505b5050565b60008060008373ffffffffffffffffffffffffffffffffffffffff1673ffffffffffffffffffffffffffffffffffffffff168152602001908152602001600020549050919050565b50505050565b6000808273ffffffffffffffffffffffffffffffffffffffff163b119050919050565b82805462000dd79062001732565b90600052602060002090601f01602090048101928262000dfb576000855562000e47565b82601f1062000e1657805160ff191683800117855562000e47565b8280016001018555821562000e47579182015b8281111562000e4657825182559160200191906001019062000e29565b5b50905062000e56919062000ee9565b5090565b82805482825590600052602060002090810192821562000ed6579160200282015b8281111562000ed55782518260006101000a81548173ffffffffffffffffffffffffffffffffffffffff021916908373ffffffffffffffffffffffffffffffffffffffff1602179055509160200191906001019062000e7b565b5b50905062000ee5919062000ee9565b5090565b5b8082111562000f0457600081600090555060010162000eea565b5090565b6000604051905090565b600080fd5b600080fd5b6000819050919050565b62000f318162000f1c565b811462000f3d57600080fd5b50565b60008151905062000f518162000f26565b92915050565b600080fd5b6000601f19601f8301169050919050565b7f4e487b7100000000000000000000000000000000000000000000000000000000600052604160045260246000fd5b62000fa78262000f5c565b810181811067ffffffffffffffff8211171562000fc95762000fc862000f6d565b5b80604052505050565b600062000fde62000f08565b905062000fec828262000f9c565b919050565b600067ffffffffffffffff8211156200100f576200100e62000f6d565b5b602082029050602081019050919050565b600080fd5b600073ffffffffffffffffffffffffffffffffffffffff82169050919050565b6000620010528262001025565b9050919050565b620010648162001045565b81146200107057600080fd5b50565b600081519050620010848162001059565b92915050565b6000620010a16200109b8462000ff1565b62000fd2565b90508083825260208201905060208402830185811115620010c757620010c662001020565b5b835b81811015620010f45780620010df888262001073565b845260208401935050602081019050620010c9565b5050509392505050565b600082601f83011262001116576200111562000f57565b5b8151620011288482602086016200108a565b91505092915050565b600080604083850312156200114b576200114a62000f12565b5b60006200115b8582860162000f40565b925050602083015167ffffffffffffffff8111156200117f576200117e62000f17565b5b6200118d85828601620010fe565b9150509250929050565b7f4e487b7100000000000000000000000000000000000000000000000000000000600052603260045260246000fd5b7f4e487b7100000000000000000000000000000000000000000000000000000000600052601160045260246000fd5b6000620012028262000f1c565b91507fffffffffffffffffffffffffffffffffffffffffffffffffffffffffffffffff821415620012385762001237620011c6565b5b600182019050919050565b6200124e8162001045565b82525050565b6000819050919050565b620012698162001254565b82525050565b600060608201905062001286600083018662001243565b6200129560208301856200125e565b620012a4604083018462001243565b949350505050565b600082825260208201905092915050565b7f4552433737373a206d696e7420746f20746865207a65726f2061646472657373600082015250565b6000620012f5602083620012ac565b91506200130282620012bd565b602082019050919050565b600060208201905081810360008301526200132881620012e6565b9050919050565b60006200133c8262000f1c565b9150620013498362000f1c565b9250827fffffffffffffffffffffffffffffffffffffffffffffffffffffffffffffffff03821115620013815762001380620011c6565b5b828201905092915050565b620013978162000f1c565b82525050565b600081519050919050565b600082825260208201905092915050565b60005b83811015620013d9578082015181840152602081019050620013bc565b83811115620013e9576000848401525b50505050565b6000620013fc826200139d565b620014088185620013a8565b93506200141a818560208601620013b9565b620014258162000f5c565b840191505092915050565b60006060820190506200144760008301866200138c565b81810360208301526200145b8185620013ef565b90508181036040830152620014718184620013ef565b9050949350505050565b60006020820190506200149260008301846200138c565b92915050565b6000620014a58262000f1c565b9150620014b28362000f1c565b925082821015620014c857620014c7620011c6565b5b828203905092915050565b7f416d6f756e74206265696e67207472616e73666572726564206578636565647360008201527f20617661696c61626c6520756e6c6f636b65642062616c616e63650000000000602082015250565b600062001531603b83620012ac565b91506200153e82620014d3565b604082019050919050565b60006020820190508181036000830152620015648162001522565b9050919050565b600060408201905062001582600083018562001243565b6200159160208301846200125e565b9392505050565b600060208284031215620015b157620015b062000f12565b5b6000620015c18482850162001073565b91505092915050565b600060c082019050620015e1600083018962001243565b620015f0602083018862001243565b620015ff604083018762001243565b6200160e60608301866200138c565b8181036080830152620016228185620013ef565b905081810360a0830152620016388184620013ef565b9050979650505050505050565b7f4552433737373a20746f6b656e20726563697069656e7420636f6e747261637460008201527f20686173206e6f20696d706c656d656e74657220666f7220455243373737546f60208201527f6b656e73526563697069656e7400000000000000000000000000000000000000604082015250565b6000620016c9604d83620012ac565b9150620016d68262001645565b606082019050919050565b60006020820190508181036000830152620016fc81620016ba565b9050919050565b7f4e487b7100000000000000000000000000000000000000000000000000000000600052602260045260246000fd5b600060028204905060018216806200174b57607f821691505b6020821081141562001762576200176162001703565b5b50919050565b6147ef80620017786000396000f3fe608060405234801561001057600080fd5b50600436106101cf5760003560e01c80637eee288d11610104578063d5abeb01116100a2578063f2fde38b11610071578063f2fde38b14610542578063fad8b32a1461055e578063fc673c4f1461057a578063fe9d930314610596576101cf565b8063d5abeb01146104a8578063d95b6371146104c6578063dcdc7dd0146104f6578063dd62ed3e14610512576101cf565b806395d89b41116100de57806395d89b411461040e5780639bd9bbc61461042c578063a9059cbb14610448578063bcfe39d914610478576101cf565b80637eee288d146103b85780638da5cb5b146103d4578063959b8c3f146103f2576101cf565b806342e625581161017157806362ad1b831161014b57806362ad1b831461033257806370a082311461034e578063715018a61461037e578063719f308914610388576101cf565b806342e62558146102c8578063556f0dc7146102e45780635935573614610302576101cf565b806318160ddd116101ad57806318160ddd1461024057806323b872dd1461025e578063313ce5671461028e57806339f2aa08146102ac576101cf565b806306e48538146101d457806306fdde03146101f2578063095ea7b314610210575b600080fd5b6101dc6105b2565b6040516101e99190612fde565b60405180910390f35b6101fa610640565b6040516102079190613099565b60405180910390f35b61022a60048036038101906102259190613131565b6106d2565b604051610237919061318c565b60405180910390f35b6102486106f5565b60405161025591906131b6565b60405180910390f35b610278600480360381019061027391906131d1565b6106ff565b604051610285919061318c565b60405180910390f35b610296610889565b6040516102a39190613240565b60405180910390f35b6102c660048036038101906102c19190613291565b610892565b005b6102e260048036038101906102dd91906134bd565b610aae565b005b6102ec610c18565b6040516102f991906131b6565b60405180910390f35b61031c60048036038101906103179190613506565b610c21565b60405161032991906131b6565b60405180910390f35b61034c600480360381019061034791906135e8565b610e28565b005b61036860048036038101906103639190613506565b610e8e565b60405161037591906131b6565b60405180910390f35b610386610ed6565b005b6103a2600480360381019061039d9190613506565b610f5e565b6040516103af91906137aa565b60405180910390f35b6103d260048036038101906103cd9190613131565b61101a565b005b6103dc6110a4565b6040516103e991906137db565b60405180910390f35b61040c60048036038101906104079190613506565b6110ce565b005b61041661132f565b6040516104239190613099565b60405180910390f35b610446600480360381019061044191906137f6565b6113c1565b005b610462600480360381019061045d9190613131565b6113eb565b60405161046f919061318c565b60405180910390f35b610492600480360381019061048d9190613506565b6114f9565b60405161049f91906131b6565b60405180910390f35b6104b0611523565b6040516104bd91906131b6565b60405180910390f35b6104e060048036038101906104db9190613865565b61152d565b6040516104ed919061318c565b60405180910390f35b610510600480360381019061050b91906138a5565b6116de565b005b61052c60048036038101906105279190613865565b61178d565b60405161053991906131b6565b60405180910390f35b61055c60048036038101906105579190613506565b611814565b005b61057860048036038101906105739190613506565b61190c565b005b610594600480360381019061058f91906138a5565b611b6d565b005b6105b060048036038101906105ab9190613944565b611bcf565b005b6060600480548060200260200160405190810160405280929190818152602001828054801561063657602002820191906000526020600020905b8160009054906101000a900473ffffffffffffffffffffffffffffffffffffffff1673ffffffffffffffffffffffffffffffffffffffff16815260200190600101908083116105ec575b5050505050905090565b60606002805461064f906139cf565b80601f016020809104026020016040519081016040528092919081815260200182805461067b906139cf565b80156106c85780601f1061069d576101008083540402835291602001916106c8565b820191906000526020600020905b8154815290600101906020018083116106ab57829003601f168201915b5050505050905090565b6000806106dd611c1e565b90506106ea818585611c26565b600191505092915050565b6000600154905090565b60008073ffffffffffffffffffffffffffffffffffffffff168373ffffffffffffffffffffffffffffffffffffffff161415610770576040517f08c379a000000000000000000000000000000000000000000000000000000000815260040161076790613a73565b60405180910390fd5b600073ffffffffffffffffffffffffffffffffffffffff168473ffffffffffffffffffffffffffffffffffffffff1614156107e0576040517f08c379a00000000000000000000000000000000000000000000000000000000081526004016107d790613b05565b60405180910390fd5b60006107ea611c1e565b9050610818818686866040518060200160405280600081525060405180602001604052806000815250611df1565b610823858285611f58565b61084f818686866040518060200160405280600081525060405180602001604052806000815250611fe4565b61087d81868686604051806020016040528060008152506040518060200160405280600081525060006121fe565b60019150509392505050565b60006012905090565b600082116108d5576040517f08c379a00000000000000000000000000000000000000000000000000000000081526004016108cc90613b71565b60405180910390fd5b600073ffffffffffffffffffffffffffffffffffffffff168473ffffffffffffffffffffffffffffffffffffffff161415610945576040517f08c379a000000000000000000000000000000000000000000000000000000000815260040161093c90613bdd565b60405180910390fd5b600082426109539190613c2c565b90506000670de0b6b3a76400008561096b9190613c82565b9050600060405180606001604052808381526020018481526020018581525090506109cc87836040518060400160405280600d81526020017f4c6f636b656420546f6b656e73000000000000000000000000000000000000008152506113c1565b600a60008873ffffffffffffffffffffffffffffffffffffffff1673ffffffffffffffffffffffffffffffffffffffff168152602001908152602001600020819080600181540180825580915050600190039060005260206000209060030201600090919091909150600082015181600001556020820151816001015560408201518160020155505083838873ffffffffffffffffffffffffffffffffffffffff167fccdb465d06770bbe6b6bbc5533b80e897fb448fbaab914dea665090dbaa9f10b85604051610a9d91906131b6565b60405180910390a450505050505050565b60005b8151811015610c14576000670de0b6b3a7640000838381518110610ad857610ad7613cdc565b5b602002602001015160200151610aee9190613c82565b90506000838381518110610b0557610b04613cdc565b5b60200260200101516040015114610ba157610b9c838381518110610b2c57610b2b613cdc565b5b602002602001015160000151848481518110610b4b57610b4a613cdc565b5b602002602001015160200151858581518110610b6a57610b69613cdc565b5b6020026020010151604001517f4c6f636b6564204356592061697264726f700000000000000000000000000000610892565b610c00565b610bff838381518110610bb757610bb6613cdc565b5b602002602001015160000151826040518060400160405280600b81526020017f4356592041697264726f700000000000000000000000000000000000000000008152506113c1565b5b508080610c0c90613d0b565b915050610ab1565b5050565b60006001905090565b600080600090506000600a60008573ffffffffffffffffffffffffffffffffffffffff1673ffffffffffffffffffffffffffffffffffffffff168152602001908152602001600020805490501115610e1f5760005b600a60008573ffffffffffffffffffffffffffffffffffffffff1673ffffffffffffffffffffffffffffffffffffffff16815260200190815260200160002080549050811015610e1d576000600a60008673ffffffffffffffffffffffffffffffffffffffff1673ffffffffffffffffffffffffffffffffffffffff1681526020019081526020016000208281548110610d1357610d12613cdc565b5b90600052602060002090600302016000015414158015610d945750600a60008573ffffffffffffffffffffffffffffffffffffffff1673ffffffffffffffffffffffffffffffffffffffff1681526020019081526020016000208181548110610d7f57610d7e613cdc565b5b90600052602060002090600302016001015442105b15610e0a57600a60008573ffffffffffffffffffffffffffffffffffffffff1673ffffffffffffffffffffffffffffffffffffffff1681526020019081526020016000208181548110610dea57610de9613cdc565b5b90600052602060002090600302016000015482610e079190613c2c565b91505b8080610e1590613d0b565b915050610c76565b505b80915050919050565b610e39610e33611c1e565b8661152d565b610e78576040517f08c379a0000000000000000000000000000000000000000000000000000000008152600401610e6f90613dc6565b60405180910390fd5b610e87858585858560016123d0565b5050505050565b60008060008373ffffffffffffffffffffffffffffffffffffffff1673ffffffffffffffffffffffffffffffffffffffff168152602001908152602001600020549050919050565b610ede611c1e565b73ffffffffffffffffffffffffffffffffffffffff16610efc6110a4565b73ffffffffffffffffffffffffffffffffffffffff1614610f52576040517f08c379a0000000000000000000000000000000000000000000000000000000008152600401610f4990613e32565b60405180910390fd5b610f5c60006124f0565b565b6060600a60008373ffffffffffffffffffffffffffffffffffffffff1673ffffffffffffffffffffffffffffffffffffffff168152602001908152602001600020805480602002602001604051908101604052809291908181526020016000905b8282101561100f5783829060005260206000209060030201604051806060016040529081600082015481526020016001820154815260200160028201548152505081526020019060010190610fbf565b505050509050919050565b611022611c1e565b73ffffffffffffffffffffffffffffffffffffffff166110406110a4565b73ffffffffffffffffffffffffffffffffffffffff1614611096576040517f08c379a000000000000000000000000000000000000000000000000000000000815260040161108d90613e32565b60405180910390fd5b6110a082826125b6565b5050565b6000600960009054906101000a900473ffffffffffffffffffffffffffffffffffffffff16905090565b8073ffffffffffffffffffffffffffffffffffffffff166110ed611c1e565b73ffffffffffffffffffffffffffffffffffffffff161415611144576040517f08c379a000000000000000000000000000000000000000000000000000000000815260040161113b90613ec4565b60405180910390fd5b600560008273ffffffffffffffffffffffffffffffffffffffff1673ffffffffffffffffffffffffffffffffffffffff16815260200190815260200160002060009054906101000a900460ff161561122e57600760006111a2611c1e565b73ffffffffffffffffffffffffffffffffffffffff1673ffffffffffffffffffffffffffffffffffffffff16815260200190815260200160002060008273ffffffffffffffffffffffffffffffffffffffff1673ffffffffffffffffffffffffffffffffffffffff16815260200190815260200160002060006101000a81549060ff02191690556112cb565b60016006600061123c611c1e565b73ffffffffffffffffffffffffffffffffffffffff1673ffffffffffffffffffffffffffffffffffffffff16815260200190815260200160002060008373ffffffffffffffffffffffffffffffffffffffff1673ffffffffffffffffffffffffffffffffffffffff16815260200190815260200160002060006101000a81548160ff0219169083151502179055505b6112d3611c1e565b73ffffffffffffffffffffffffffffffffffffffff168173ffffffffffffffffffffffffffffffffffffffff167ff4caeb2d6ca8932a215a353d0703c326ec2d81fc68170f320eb2ab49e9df61f960405160405180910390a350565b60606003805461133e906139cf565b80601f016020809104026020016040519081016040528092919081815260200182805461136a906139cf565b80156113b75780601f1061138c576101008083540402835291602001916113b7565b820191906000526020600020905b81548152906001019060200180831161139a57829003601f168201915b5050505050905090565b6113e66113cc611c1e565b8484846040518060200160405280600081525060016123d0565b505050565b60008073ffffffffffffffffffffffffffffffffffffffff168373ffffffffffffffffffffffffffffffffffffffff16141561145c576040517f08c379a000000000000000000000000000000000000000000000000000000000815260040161145390613a73565b60405180910390fd5b6000611466611c1e565b9050611494818286866040518060200160405280600081525060405180602001604052806000815250611df1565b6114c0818286866040518060200160405280600081525060405180602001604052806000815250611fe4565b6114ee81828686604051806020016040528060008152506040518060200160405280600081525060006121fe565b600191505092915050565b60008061150583610c21565b90508061151184610e8e565b61151b9190613ee4565b915050919050565b6000600b54905090565b60008173ffffffffffffffffffffffffffffffffffffffff168373ffffffffffffffffffffffffffffffffffffffff1614806116455750600560008473ffffffffffffffffffffffffffffffffffffffff1673ffffffffffffffffffffffffffffffffffffffff16815260200190815260200160002060009054906101000a900460ff1680156116445750600760008373ffffffffffffffffffffffffffffffffffffffff1673ffffffffffffffffffffffffffffffffffffffff16815260200190815260200160002060008473ffffffffffffffffffffffffffffffffffffffff1673ffffffffffffffffffffffffffffffffffffffff16815260200190815260200160002060009054906101000a900460ff16155b5b806116d65750600660008373ffffffffffffffffffffffffffffffffffffffff1673ffffffffffffffffffffffffffffffffffffffff16815260200190815260200160002060008473ffffffffffffffffffffffffffffffffffffffff1673ffffffffffffffffffffffffffffffffffffffff16815260200190815260200160002060009054906101000a900460ff165b905092915050565b6116e6611c1e565b73ffffffffffffffffffffffffffffffffffffffff166117046110a4565b73ffffffffffffffffffffffffffffffffffffffff161461175a576040517f08c379a000000000000000000000000000000000000000000000000000000000815260040161175190613e32565b60405180910390fd5b600b54836117666106f5565b6117709190613c2c565b111561177b57600080fd5b6117878484848461274f565b50505050565b6000600860008473ffffffffffffffffffffffffffffffffffffffff1673ffffffffffffffffffffffffffffffffffffffff16815260200190815260200160002060008373ffffffffffffffffffffffffffffffffffffffff1673ffffffffffffffffffffffffffffffffffffffff16815260200190815260200160002054905092915050565b61181c611c1e565b73ffffffffffffffffffffffffffffffffffffffff1661183a6110a4565b73ffffffffffffffffffffffffffffffffffffffff1614611890576040517f08c379a000000000000000000000000000000000000000000000000000000000815260040161188790613e32565b60405180910390fd5b600073ffffffffffffffffffffffffffffffffffffffff168173ffffffffffffffffffffffffffffffffffffffff161415611900576040517f08c379a00000000000000000000000000000000000000000000000000000000081526004016118f790613f8a565b60405180910390fd5b611909816124f0565b50565b611914611c1e565b73ffffffffffffffffffffffffffffffffffffffff168173ffffffffffffffffffffffffffffffffffffffff161415611982576040517f08c379a00000000000000000000000000000000000000000000000000000000081526004016119799061401c565b60405180910390fd5b600560008273ffffffffffffffffffffffffffffffffffffffff1673ffffffffffffffffffffffffffffffffffffffff16815260200190815260200160002060009054906101000a900460ff1615611a75576001600760006119e2611c1e565b73ffffffffffffffffffffffffffffffffffffffff1673ffffffffffffffffffffffffffffffffffffffff16815260200190815260200160002060008373ffffffffffffffffffffffffffffffffffffffff1673ffffffffffffffffffffffffffffffffffffffff16815260200190815260200160002060006101000a81548160ff021916908315150217905550611b09565b60066000611a81611c1e565b73ffffffffffffffffffffffffffffffffffffffff1673ffffffffffffffffffffffffffffffffffffffff16815260200190815260200160002060008273ffffffffffffffffffffffffffffffffffffffff1673ffffffffffffffffffffffffffffffffffffffff16815260200190815260200160002060006101000a81549060ff02191690555b611b11611c1e565b73ffffffffffffffffffffffffffffffffffffffff168173ffffffffffffffffffffffffffffffffffffffff167f50546e66e5f44d728365dc3908c63bc5cfeeab470722c1677e3073a6ac294aa160405160405180910390a350565b611b7e611b78611c1e565b8561152d565b611bbd576040517f08c379a0000000000000000000000000000000000000000000000000000000008152600401611bb490613dc6565b60405180910390fd5b611bc984848484612763565b50505050565b611bf1611bda611c1e565b838360405180602001604052806000815250612763565b5050565b50505050565b6000808273ffffffffffffffffffffffffffffffffffffffff163b119050919050565b600033905090565b600073ffffffffffffffffffffffffffffffffffffffff168373ffffffffffffffffffffffffffffffffffffffff161415611c96576040517f08c379a0000000000000000000000000000000000000000000000000000000008152600401611c8d906140ae565b60405180910390fd5b600073ffffffffffffffffffffffffffffffffffffffff168273ffffffffffffffffffffffffffffffffffffffff161415611d06576040517f08c379a0000000000000000000000000000000000000000000000000000000008152600401611cfd90614140565b60405180910390fd5b80600860008573ffffffffffffffffffffffffffffffffffffffff1673ffffffffffffffffffffffffffffffffffffffff16815260200190815260200160002060008473ffffffffffffffffffffffffffffffffffffffff1673ffffffffffffffffffffffffffffffffffffffff168152602001908152602001600020819055508173ffffffffffffffffffffffffffffffffffffffff168373ffffffffffffffffffffffffffffffffffffffff167f8c5be1e5ebec7d5bd14f71427d1e84f3dd0314c0f7b2291e5b200ac8c7c3b92583604051611de491906131b6565b60405180910390a3505050565b6000731820a4b7618bde71dce8cdc73aab6c95905fad2473ffffffffffffffffffffffffffffffffffffffff1663aabbb8ca877f29ddb589b1fb5fc7cf394961c1adf5f8c6454761adf795e67fe149f658abe8956040518363ffffffff1660e01b8152600401611e6292919061416f565b602060405180830381865afa158015611e7f573d6000803e3d6000fd5b505050506040513d601f19601f82011682018060405250810190611ea391906141ad565b9050600073ffffffffffffffffffffffffffffffffffffffff168173ffffffffffffffffffffffffffffffffffffffff1614611f4f578073ffffffffffffffffffffffffffffffffffffffff166375ab97828888888888886040518763ffffffff1660e01b8152600401611f1c9695949392919061422f565b600060405180830381600087803b158015611f3657600080fd5b505af1158015611f4a573d6000803e3d6000fd5b505050505b50505050505050565b6000611f64848461178d565b90507fffffffffffffffffffffffffffffffffffffffffffffffffffffffffffffffff8114611fde5781811015611fd0576040517f08c379a0000000000000000000000000000000000000000000000000000000008152600401611fc7906142ea565b60405180910390fd5b611fdd8484848403611c26565b5b50505050565b611ff0868686866129b6565b60008060008773ffffffffffffffffffffffffffffffffffffffff1673ffffffffffffffffffffffffffffffffffffffff16815260200190815260200160002054905083811015612076576040517f08c379a000000000000000000000000000000000000000000000000000000000815260040161206d9061437c565b60405180910390fd5b8381036000808873ffffffffffffffffffffffffffffffffffffffff1673ffffffffffffffffffffffffffffffffffffffff16815260200190815260200160002081905550836000808773ffffffffffffffffffffffffffffffffffffffff1673ffffffffffffffffffffffffffffffffffffffff16815260200190815260200160002060008282546121099190613c2c565b925050819055508473ffffffffffffffffffffffffffffffffffffffff168673ffffffffffffffffffffffffffffffffffffffff168873ffffffffffffffffffffffffffffffffffffffff167f06b541ddaa720db2b10a4d0cdac39b8d360425fc073085fac19bc826146779878787876040516121889392919061439c565b60405180910390a48473ffffffffffffffffffffffffffffffffffffffff168673ffffffffffffffffffffffffffffffffffffffff167fddf252ad1be2c89b69c2b068fc378daa952ba7f163c4a11628f55a4df523b3ef866040516121ed91906131b6565b60405180910390a350505050505050565b6000731820a4b7618bde71dce8cdc73aab6c95905fad2473ffffffffffffffffffffffffffffffffffffffff1663aabbb8ca877fb281fc8c12954d22544db45de3159a39272895b169a852b314f9cc762e44c53b6040518363ffffffff1660e01b815260040161226f92919061416f565b602060405180830381865afa15801561228c573d6000803e3d6000fd5b505050506040513d601f19601f820116820180604052508101906122b091906141ad565b9050600073ffffffffffffffffffffffffffffffffffffffff168173ffffffffffffffffffffffffffffffffffffffff161461235f578073ffffffffffffffffffffffffffffffffffffffff166223de298989898989896040518763ffffffff1660e01b81526004016123289695949392919061422f565b600060405180830381600087803b15801561234257600080fd5b505af1158015612356573d6000803e3d6000fd5b505050506123c6565b81156123c5576123848673ffffffffffffffffffffffffffffffffffffffff16611bfb565b156123c4576040517f08c379a00000000000000000000000000000000000000000000000000000000081526004016123bb90614479565b60405180910390fd5b5b5b5050505050505050565b600073ffffffffffffffffffffffffffffffffffffffff168673ffffffffffffffffffffffffffffffffffffffff161415612440576040517f08c379a00000000000000000000000000000000000000000000000000000000081526004016124379061450b565b60405180910390fd5b600073ffffffffffffffffffffffffffffffffffffffff168573ffffffffffffffffffffffffffffffffffffffff1614156124b0576040517f08c379a00000000000000000000000000000000000000000000000000000000081526004016124a790614577565b60405180910390fd5b60006124ba611c1e565b90506124ca818888888888611df1565b6124d8818888888888611fe4565b6124e7818888888888886121fe565b50505050505050565b6000600960009054906101000a900473ffffffffffffffffffffffffffffffffffffffff16905081600960006101000a81548173ffffffffffffffffffffffffffffffffffffffff021916908373ffffffffffffffffffffffffffffffffffffffff1602179055508173ffffffffffffffffffffffffffffffffffffffff168173ffffffffffffffffffffffffffffffffffffffff167f8be0079c531659141344cd1fd0a4f28419497f9722a3daafe3b4186f6b6457e060405160405180910390a35050565b6000600a60008473ffffffffffffffffffffffffffffffffffffffff1673ffffffffffffffffffffffffffffffffffffffff168152602001908152602001600020828154811061260957612608613cdc565b5b9060005260206000209060030201600001541461274b578173ffffffffffffffffffffffffffffffffffffffff167f6381d9813cabeb57471b5a7e05078e64845ccdb563146a6911d536f24ce960f1600a60008573ffffffffffffffffffffffffffffffffffffffff1673ffffffffffffffffffffffffffffffffffffffff16815260200190815260200160002083815481106126a9576126a8613cdc565b5b9060005260206000209060030201600001546040516126c891906131b6565b60405180910390a2600a60008373ffffffffffffffffffffffffffffffffffffffff1673ffffffffffffffffffffffffffffffffffffffff168152602001908152602001600020818154811061272157612720613cdc565b5b90600052602060002090600302016000808201600090556001820160009055600282016000905550505b5050565b61275d848484846001612d10565b50505050565b600073ffffffffffffffffffffffffffffffffffffffff168473ffffffffffffffffffffffffffffffffffffffff1614156127d3576040517f08c379a00000000000000000000000000000000000000000000000000000000081526004016127ca90614609565b60405180910390fd5b60006127dd611c1e565b90506127ee81866000878787611df1565b6127fb81866000876129b6565b60008060008773ffffffffffffffffffffffffffffffffffffffff1673ffffffffffffffffffffffffffffffffffffffff16815260200190815260200160002054905084811015612881576040517f08c379a00000000000000000000000000000000000000000000000000000000081526004016128789061469b565b60405180910390fd5b8481036000808873ffffffffffffffffffffffffffffffffffffffff1673ffffffffffffffffffffffffffffffffffffffff1681526020019081526020016000208190555084600160008282546128d89190613ee4565b925050819055508573ffffffffffffffffffffffffffffffffffffffff168273ffffffffffffffffffffffffffffffffffffffff167fa78a9be3a7b862d26933ad85fb11d80ef66b8f972d7cbba06621d583943a40988787876040516129409392919061439c565b60405180910390a3600073ffffffffffffffffffffffffffffffffffffffff168673ffffffffffffffffffffffffffffffffffffffff167fddf252ad1be2c89b69c2b068fc378daa952ba7f163c4a11628f55a4df523b3ef876040516129a691906131b6565b60405180910390a3505050505050565b600080600a60008673ffffffffffffffffffffffffffffffffffffffff1673ffffffffffffffffffffffffffffffffffffffff168152602001908152602001600020805490501115612c925760005b600a60008673ffffffffffffffffffffffffffffffffffffffff1673ffffffffffffffffffffffffffffffffffffffff16815260200190815260200160002080549050811015612c90576000600a60008773ffffffffffffffffffffffffffffffffffffffff1673ffffffffffffffffffffffffffffffffffffffff1681526020019081526020016000208281548110612aa257612aa1613cdc565b5b90600052602060002090600302016000015414158015612b235750600a60008673ffffffffffffffffffffffffffffffffffffffff1673ffffffffffffffffffffffffffffffffffffffff1681526020019081526020016000208181548110612b0e57612b0d613cdc565b5b90600052602060002090600302016001015442105b15612b9957600a60008673ffffffffffffffffffffffffffffffffffffffff1673ffffffffffffffffffffffffffffffffffffffff1681526020019081526020016000208181548110612b7957612b78613cdc565b5b90600052602060002090600302016000015482612b969190613c2c565b91505b600a60008673ffffffffffffffffffffffffffffffffffffffff1673ffffffffffffffffffffffffffffffffffffffff1681526020019081526020016000208181548110612bea57612be9613cdc565b5b90600052602060002090600302016001015442118015612c6d57506000600a60008773ffffffffffffffffffffffffffffffffffffffff1673ffffffffffffffffffffffffffffffffffffffff1681526020019081526020016000208281548110612c5857612c57613cdc565b5b90600052602060002090600302016000015414155b15612c7d57612c7c85826125b6565b5b8080612c8890613d0b565b915050612a05565b505b6000811115612cfd576000612ca685610e8e565b905060008382612cb69190613ee4565b9050828111612cfa576040517f08c379a0000000000000000000000000000000000000000000000000000000008152600401612cf19061472d565b60405180910390fd5b50505b612d0985858585611bf5565b5050505050565b600073ffffffffffffffffffffffffffffffffffffffff168573ffffffffffffffffffffffffffffffffffffffff161415612d80576040517f08c379a0000000000000000000000000000000000000000000000000000000008152600401612d7790614799565b60405180910390fd5b6000612d8a611c1e565b9050612d9981600088886129b6565b8460016000828254612dab9190613c2c565b92505081905550846000808873ffffffffffffffffffffffffffffffffffffffff1673ffffffffffffffffffffffffffffffffffffffff1681526020019081526020016000206000828254612e009190613c2c565b92505081905550612e1781600088888888886121fe565b8573ffffffffffffffffffffffffffffffffffffffff168173ffffffffffffffffffffffffffffffffffffffff167f2fe5be0146f74c5bce36c0b80911af6c7d86ff27e89d5cfa61fc681327954e5d878787604051612e789392919061439c565b60405180910390a38573ffffffffffffffffffffffffffffffffffffffff16600073ffffffffffffffffffffffffffffffffffffffff167fddf252ad1be2c89b69c2b068fc378daa952ba7f163c4a11628f55a4df523b3ef87604051612ede91906131b6565b60405180910390a3505050505050565b600081519050919050565b600082825260208201905092915050565b6000819050602082019050919050565b600073ffffffffffffffffffffffffffffffffffffffff82169050919050565b6000612f4582612f1a565b9050919050565b612f5581612f3a565b82525050565b6000612f678383612f4c565b60208301905092915050565b6000602082019050919050565b6000612f8b82612eee565b612f958185612ef9565b9350612fa083612f0a565b8060005b83811015612fd1578151612fb88882612f5b565b9750612fc383612f73565b925050600181019050612fa4565b5085935050505092915050565b60006020820190508181036000830152612ff88184612f80565b905092915050565b600081519050919050565b600082825260208201905092915050565b60005b8381101561303a57808201518184015260208101905061301f565b83811115613049576000848401525b50505050565b6000601f19601f8301169050919050565b600061306b82613000565b613075818561300b565b935061308581856020860161301c565b61308e8161304f565b840191505092915050565b600060208201905081810360008301526130b38184613060565b905092915050565b6000604051905090565b600080fd5b600080fd5b6130d881612f3a565b81146130e357600080fd5b50565b6000813590506130f5816130cf565b92915050565b6000819050919050565b61310e816130fb565b811461311957600080fd5b50565b60008135905061312b81613105565b92915050565b60008060408385031215613148576131476130c5565b5b6000613156858286016130e6565b92505060206131678582860161311c565b9150509250929050565b60008115159050919050565b61318681613171565b82525050565b60006020820190506131a1600083018461317d565b92915050565b6131b0816130fb565b82525050565b60006020820190506131cb60008301846131a7565b92915050565b6000806000606084860312156131ea576131e96130c5565b5b60006131f8868287016130e6565b9350506020613209868287016130e6565b925050604061321a8682870161311c565b9150509250925092565b600060ff82169050919050565b61323a81613224565b82525050565b60006020820190506132556000830184613231565b92915050565b6000819050919050565b61326e8161325b565b811461327957600080fd5b50565b60008135905061328b81613265565b92915050565b600080600080608085870312156132ab576132aa6130c5565b5b60006132b9878288016130e6565b94505060206132ca8782880161311c565b93505060406132db8782880161311c565b92505060606132ec8782880161327c565b91505092959194509250565b600080fd5b7f4e487b7100000000000000000000000000000000000000000000000000000000600052604160045260246000fd5b6133358261304f565b810181811067ffffffffffffffff82111715613354576133536132fd565b5b80604052505050565b60006133676130bb565b9050613373828261332c565b919050565b600067ffffffffffffffff821115613393576133926132fd565b5b602082029050602081019050919050565b600080fd5b600080fd5b6000608082840312156133c4576133c36133a9565b5b6133ce608061335d565b905060006133de848285016130e6565b60008301525060206133f28482850161311c565b60208301525060406134068482850161311c565b604083015250606061341a8482850161327c565b60608301525092915050565b600061343961343484613378565b61335d565b9050808382526020820190506080840283018581111561345c5761345b6133a4565b5b835b81811015613485578061347188826133ae565b84526020840193505060808101905061345e565b5050509392505050565b600082601f8301126134a4576134a36132f8565b5b81356134b4848260208601613426565b91505092915050565b6000602082840312156134d3576134d26130c5565b5b600082013567ffffffffffffffff8111156134f1576134f06130ca565b5b6134fd8482850161348f565b91505092915050565b60006020828403121561351c5761351b6130c5565b5b600061352a848285016130e6565b91505092915050565b600080fd5b600067ffffffffffffffff821115613553576135526132fd565b5b61355c8261304f565b9050602081019050919050565b82818337600083830152505050565b600061358b61358684613538565b61335d565b9050828152602081018484840111156135a7576135a6613533565b5b6135b2848285613569565b509392505050565b600082601f8301126135cf576135ce6132f8565b5b81356135df848260208601613578565b91505092915050565b600080600080600060a08688031215613604576136036130c5565b5b6000613612888289016130e6565b9550506020613623888289016130e6565b94505060406136348882890161311c565b935050606086013567ffffffffffffffff811115613655576136546130ca565b5b613661888289016135ba565b925050608086013567ffffffffffffffff811115613682576136816130ca565b5b61368e888289016135ba565b9150509295509295909350565b600081519050919050565b600082825260208201905092915050565b6000819050602082019050919050565b6136d0816130fb565b82525050565b6136df8161325b565b82525050565b6060820160008201516136fb60008501826136c7565b50602082015161370e60208501826136c7565b50604082015161372160408501826136d6565b50505050565b600061373383836136e5565b60608301905092915050565b6000602082019050919050565b60006137578261369b565b61376181856136a6565b935061376c836136b7565b8060005b8381101561379d5781516137848882613727565b975061378f8361373f565b925050600181019050613770565b5085935050505092915050565b600060208201905081810360008301526137c4818461374c565b905092915050565b6137d581612f3a565b82525050565b60006020820190506137f060008301846137cc565b92915050565b60008060006060848603121561380f5761380e6130c5565b5b600061381d868287016130e6565b935050602061382e8682870161311c565b925050604084013567ffffffffffffffff81111561384f5761384e6130ca565b5b61385b868287016135ba565b9150509250925092565b6000806040838503121561387c5761387b6130c5565b5b600061388a858286016130e6565b925050602061389b858286016130e6565b9150509250929050565b600080600080608085870312156138bf576138be6130c5565b5b60006138cd878288016130e6565b94505060206138de8782880161311c565b935050604085013567ffffffffffffffff8111156138ff576138fe6130ca565b5b61390b878288016135ba565b925050606085013567ffffffffffffffff81111561392c5761392b6130ca565b5b613938878288016135ba565b91505092959194509250565b6000806040838503121561395b5761395a6130c5565b5b60006139698582860161311c565b925050602083013567ffffffffffffffff81111561398a576139896130ca565b5b613996858286016135ba565b9150509250929050565b7f4e487b7100000000000000000000000000000000000000000000000000000000600052602260045260246000fd5b600060028204905060018216806139e757607f821691505b602082108114156139fb576139fa6139a0565b5b50919050565b7f4552433737373a207472616e7366657220746f20746865207a65726f2061646460008201527f7265737300000000000000000000000000000000000000000000000000000000602082015250565b6000613a5d60248361300b565b9150613a6882613a01565b604082019050919050565b60006020820190508181036000830152613a8c81613a50565b9050919050565b7f4552433737373a207472616e736665722066726f6d20746865207a65726f206160008201527f6464726573730000000000000000000000000000000000000000000000000000602082015250565b6000613aef60268361300b565b9150613afa82613a93565b604082019050919050565b60006020820190508181036000830152613b1e81613ae2565b9050919050565b7f54696d6520746f206c6f636b206d757374206265206d6f7265207468616e2030600082015250565b6000613b5b60208361300b565b9150613b6682613b25565b602082019050919050565b60006020820190508181036000830152613b8a81613b4e565b9050919050565b7f7472616e7366657220746f20746865207a65726f206164647265737300000000600082015250565b6000613bc7601c8361300b565b9150613bd282613b91565b602082019050919050565b60006020820190508181036000830152613bf681613bba565b9050919050565b7f4e487b7100000000000000000000000000000000000000000000000000000000600052601160045260246000fd5b6000613c37826130fb565b9150613c42836130fb565b9250827fffffffffffffffffffffffffffffffffffffffffffffffffffffffffffffffff03821115613c7757613c76613bfd565b5b828201905092915050565b6000613c8d826130fb565b9150613c98836130fb565b9250817fffffffffffffffffffffffffffffffffffffffffffffffffffffffffffffffff0483118215151615613cd157613cd0613bfd565b5b828202905092915050565b7f4e487b7100000000000000000000000000000000000000000000000000000000600052603260045260246000fd5b6000613d16826130fb565b91507fffffffffffffffffffffffffffffffffffffffffffffffffffffffffffffffff821415613d4957613d48613bfd565b5b600182019050919050565b7f4552433737373a2063616c6c6572206973206e6f7420616e206f70657261746f60008201527f7220666f7220686f6c6465720000000000000000000000000000000000000000602082015250565b6000613db0602c8361300b565b9150613dbb82613d54565b604082019050919050565b60006020820190508181036000830152613ddf81613da3565b9050919050565b7f4f776e61626c653a2063616c6c6572206973206e6f7420746865206f776e6572600082015250565b6000613e1c60208361300b565b9150613e2782613de6565b602082019050919050565b60006020820190508181036000830152613e4b81613e0f565b9050919050565b7f4552433737373a20617574686f72697a696e672073656c66206173206f70657260008201527f61746f7200000000000000000000000000000000000000000000000000000000602082015250565b6000613eae60248361300b565b9150613eb982613e52565b604082019050919050565b60006020820190508181036000830152613edd81613ea1565b9050919050565b6000613eef826130fb565b9150613efa836130fb565b925082821015613f0d57613f0c613bfd565b5b828203905092915050565b7f4f776e61626c653a206e6577206f776e657220697320746865207a65726f206160008201527f6464726573730000000000000000000000000000000000000000000000000000602082015250565b6000613f7460268361300b565b9150613f7f82613f18565b604082019050919050565b60006020820190508181036000830152613fa381613f67565b9050919050565b7f4552433737373a207265766f6b696e672073656c66206173206f70657261746f60008201527f7200000000000000000000000000000000000000000000000000000000000000602082015250565b600061400660218361300b565b915061401182613faa565b604082019050919050565b6000602082019050818103600083015261403581613ff9565b9050919050565b7f4552433737373a20617070726f76652066726f6d20746865207a65726f20616460008201527f6472657373000000000000000000000000000000000000000000000000000000602082015250565b600061409860258361300b565b91506140a38261403c565b604082019050919050565b600060208201905081810360008301526140c78161408b565b9050919050565b7f4552433737373a20617070726f766520746f20746865207a65726f206164647260008201527f6573730000000000000000000000000000000000000000000000000000000000602082015250565b600061412a60238361300b565b9150614135826140ce565b604082019050919050565b600060208201905081810360008301526141598161411d565b9050919050565b6141698161325b565b82525050565b600060408201905061418460008301856137cc565b6141916020830184614160565b9392505050565b6000815190506141a7816130cf565b92915050565b6000602082840312156141c3576141c26130c5565b5b60006141d184828501614198565b91505092915050565b600081519050919050565b600082825260208201905092915050565b6000614201826141da565b61420b81856141e5565b935061421b81856020860161301c565b6142248161304f565b840191505092915050565b600060c08201905061424460008301896137cc565b61425160208301886137cc565b61425e60408301876137cc565b61426b60608301866131a7565b818103608083015261427d81856141f6565b905081810360a083015261429181846141f6565b9050979650505050505050565b7f4552433737373a20696e73756666696369656e7420616c6c6f77616e63650000600082015250565b60006142d4601e8361300b565b91506142df8261429e565b602082019050919050565b60006020820190508181036000830152614303816142c7565b9050919050565b7f4552433737373a207472616e7366657220616d6f756e7420657863656564732060008201527f62616c616e636500000000000000000000000000000000000000000000000000602082015250565b600061436660278361300b565b91506143718261430a565b604082019050919050565b6000602082019050818103600083015261439581614359565b9050919050565b60006060820190506143b160008301866131a7565b81810360208301526143c381856141f6565b905081810360408301526143d781846141f6565b9050949350505050565b7f4552433737373a20746f6b656e20726563697069656e7420636f6e747261637460008201527f20686173206e6f20696d706c656d656e74657220666f7220455243373737546f60208201527f6b656e73526563697069656e7400000000000000000000000000000000000000604082015250565b6000614463604d8361300b565b915061446e826143e1565b606082019050919050565b6000602082019050818103600083015261449281614456565b9050919050565b7f4552433737373a2073656e642066726f6d20746865207a65726f20616464726560008201527f7373000000000000000000000000000000000000000000000000000000000000602082015250565b60006144f560228361300b565b915061450082614499565b604082019050919050565b60006020820190508181036000830152614524816144e8565b9050919050565b7f4552433737373a2073656e6420746f20746865207a65726f2061646472657373600082015250565b600061456160208361300b565b915061456c8261452b565b602082019050919050565b6000602082019050818103600083015261459081614554565b9050919050565b7f4552433737373a206275726e2066726f6d20746865207a65726f20616464726560008201527f7373000000000000000000000000000000000000000000000000000000000000602082015250565b60006145f360228361300b565b91506145fe82614597565b604082019050919050565b60006020820190508181036000830152614622816145e6565b9050919050565b7f4552433737373a206275726e20616d6f756e7420657863656564732062616c6160008201527f6e63650000000000000000000000000000000000000000000000000000000000602082015250565b600061468560238361300b565b915061469082614629565b604082019050919050565b600060208201905081810360008301526146b481614678565b9050919050565b7f416d6f756e74206265696e67207472616e73666572726564206578636565647360008201527f20617661696c61626c6520756e6c6f636b65642062616c616e63650000000000602082015250565b6000614717603b8361300b565b9150614722826146bb565b604082019050919050565b600060208201905081810360008301526147468161470a565b9050919050565b7f4552433737373a206d696e7420746f20746865207a65726f2061646472657373600082015250565b600061478360208361300b565b915061478e8261474d565b602082019050919050565b600060208201905081810360008301526147b281614776565b905091905056fea2646970667358221220f2591c297dfdede85bf5ddfcbde73ed3a41d2c48b5fe33bfb1ad5b15c105126764736f6c634300080b0033",
  "immutableReferences": {},
  "source": "pragma solidity ^0.8.11;\n\nimport \"@openzeppelin/contracts/token/ERC777/ERC777.sol\";\nimport \"@openzeppelin/contracts/access/Ownable.sol\";\n\n\ncontract CoveyToken is ERC777, Ownable {\n\n  struct TokenLock {\n    uint256 amount;\n    uint unlockAt;\n    bytes32 reason;\n  }\n\n  struct Airdrop {\n    address recipient;\n    uint256 amount;\n    uint  lockForSeconds;\n    bytes32 reason;\n  }\n\n  mapping(address => TokenLock[]) _tokenLocks; \n\n  uint _maxSupply = 1000000000000000000000000000;\n\n  constructor (uint initialSupply, address[] memory defaultOperators) ERC777(\"Covey\", \"CVY\", defaultOperators) {\n    _mint(msg.sender, initialSupply, \"\", \"\");\n  }\n\n\n  event Lock(address indexed _adr, uint256 amount, uint indexed unlockTime, bytes32 indexed reason);\n\n  event Unlock(address indexed _adr, uint256 amount);\n\n  function _beforeTokenTransfer(\n      address operator,\n      address from,\n      address to,\n      uint256 amount\n  ) internal virtual override {\n    uint256 lockedAmount = 0;\n\n    if(_tokenLocks[from].length > 0) {\n      for(uint256 i = 0; i < _tokenLocks[from].length; i++) {\n        if(_tokenLocks[from][i].amount != 0 && block.timestamp < _tokenLocks[from][i].unlockAt) {\n          lockedAmount += _tokenLocks[from][i].amount;\n        }\n        \n        if(block.timestamp > _tokenLocks[from][i].unlockAt && _tokenLocks[from][i].amount != 0) {\n          _unlock(from, i);\n        }\n      }\n    }\n\n    if(lockedAmount > 0) {\n      uint256 currentBalance = balanceOf(from);\n      uint256 balanceAfter = currentBalance - amount;\n\n      require(balanceAfter > lockedAmount, \"Amount being transferred exceeds available unlocked balance\");\n    }\n\n    super._beforeTokenTransfer(operator,from,to,amount);\n  }\n\n  function mint(\n    address account,\n    uint256 amount,\n    bytes memory userData,\n    bytes memory operatorData) public onlyOwner {\n      require(totalSupply() + amount <= _maxSupply);\n      super._mint(account, amount, userData, operatorData);\n  }\n\n  function lockedBalanceOf(address tokenHolder) public view returns(uint256) {\n    uint256 lockedAmount = 0;\n    if(_tokenLocks[tokenHolder].length > 0) {\n      for(uint256 i = 0; i < _tokenLocks[tokenHolder].length; i++) {\n        if(_tokenLocks[tokenHolder][i].amount != 0 && block.timestamp < _tokenLocks[tokenHolder][i].unlockAt) {\n          lockedAmount += _tokenLocks[tokenHolder][i].amount;\n        }  \n      }\n    }\n\n    return lockedAmount;\n  }\n\n  function unlockedBalancedOf(address tokenHolder) public view returns(uint256) {\n    uint256 lockedAmount = lockedBalanceOf(tokenHolder);\n\n    return balanceOf(tokenHolder) - lockedAmount;\n  }\n\n  function getLocks(address tokenHolder) public view returns(TokenLock[] memory) {\n    return _tokenLocks[tokenHolder];\n  }\n\n\n  function maxSupply() public view returns(uint) {\n    return _maxSupply;\n  }\n\n\n  function airdrop(Airdrop[] memory airdrops) public  {\n    for(uint i = 0; i < airdrops.length; i++) {\n      uint256 toSend = airdrops[i].amount * 10**18;\n      if(airdrops[i].lockForSeconds != 0) {\n        sendLocked(airdrops[i].recipient, airdrops[i].amount, airdrops[i].lockForSeconds, \"Locked CVY airdrop\");\n      } else {\n        send(airdrops[i].recipient, toSend, \"CVY Airdrop\");\n      }\n    }\n  }\n\n  function sendLocked(address to, uint256 amount, uint timeToLock, bytes32 reason) public  {\n    require(timeToLock > 0, \"Time to lock must be more than 0\");\n    require(to != address(0), \"transfer to the zero address\");\n\n    uint unlockAt = block.timestamp + timeToLock;\n    uint256 toSend = amount * 10**18;\n    TokenLock memory tokenLock = TokenLock({\n      amount: toSend,\n      unlockAt: unlockAt,\n      reason: reason\n    });\n    send(to,toSend, \"Locked Tokens\");\n    _tokenLocks[to].push(tokenLock);\n    emit Lock(to, toSend, unlockAt, reason);\n  }\n\n  function _unlock(address _adr, uint256 lockIndex) private {\n    if(_tokenLocks[_adr][lockIndex].amount != 0) {\n      emit Unlock(_adr, _tokenLocks[_adr][lockIndex].amount);\n      delete _tokenLocks[_adr][lockIndex];\n    }\n  }\n\n  function unlock(address _adr, uint256 lockIndex) public onlyOwner {\n    _unlock(_adr, lockIndex);\n  }\n}",
  "sourcePath": "C:\\Users\\jcara\\Documents\\repos\\covey-token\\contracts\\CoveyToken.sol",
  "compiler": {
    "name": "solc",
    "version": "0.8.11+commit.d7f03943.Emscripten.clang"
  },
  "schemaVersion": "3.4.4",
  "updatedAt": "2022-05-06T15:17:16.700Z",
  "networkType": "ethereum",
  "devdoc": {
    "kind": "dev",
    "methods": {
      "allowance(address,address)": {
        "details": "See {IERC20-allowance}. Note that operator and allowance concepts are orthogonal: operators may not have allowance, and accounts with allowance may not be operators themselves."
      },
      "approve(address,uint256)": {
        "details": "See {IERC20-approve}. NOTE: If `value` is the maximum `uint256`, the allowance is not updated on `transferFrom`. This is semantically equivalent to an infinite approval. Note that accounts cannot have allowance issued by their operators."
      },
      "authorizeOperator(address)": {
        "details": "See {IERC777-authorizeOperator}."
      },
      "balanceOf(address)": {
        "details": "Returns the amount of tokens owned by an account (`tokenHolder`)."
      },
      "burn(uint256,bytes)": {
        "details": "See {IERC777-burn}. Also emits a {IERC20-Transfer} event for ERC20 compatibility."
      },
      "decimals()": {
        "details": "See {ERC20-decimals}. Always returns 18, as per the [ERC777 EIP](https://eips.ethereum.org/EIPS/eip-777#backward-compatibility)."
      },
      "defaultOperators()": {
        "details": "See {IERC777-defaultOperators}."
      },
      "granularity()": {
        "details": "See {IERC777-granularity}. This implementation always returns `1`."
      },
      "isOperatorFor(address,address)": {
        "details": "See {IERC777-isOperatorFor}."
      },
      "name()": {
        "details": "See {IERC777-name}."
      },
      "operatorBurn(address,uint256,bytes,bytes)": {
        "details": "See {IERC777-operatorBurn}. Emits {Burned} and {IERC20-Transfer} events."
      },
      "operatorSend(address,address,uint256,bytes,bytes)": {
        "details": "See {IERC777-operatorSend}. Emits {Sent} and {IERC20-Transfer} events."
      },
      "owner()": {
        "details": "Returns the address of the current owner."
      },
      "renounceOwnership()": {
        "details": "Leaves the contract without owner. It will not be possible to call `onlyOwner` functions anymore. Can only be called by the current owner. NOTE: Renouncing ownership will leave the contract without an owner, thereby removing any functionality that is only available to the owner."
      },
      "revokeOperator(address)": {
        "details": "See {IERC777-revokeOperator}."
      },
      "send(address,uint256,bytes)": {
        "details": "See {IERC777-send}. Also emits a {IERC20-Transfer} event for ERC20 compatibility."
      },
      "symbol()": {
        "details": "See {IERC777-symbol}."
      },
      "totalSupply()": {
        "details": "See {IERC777-totalSupply}."
      },
      "transfer(address,uint256)": {
        "details": "See {IERC20-transfer}. Unlike `send`, `recipient` is _not_ required to implement the {IERC777Recipient} interface if it is a contract. Also emits a {Sent} event."
      },
      "transferFrom(address,address,uint256)": {
        "details": "See {IERC20-transferFrom}. NOTE: Does not update the allowance if the current allowance is the maximum `uint256`. Note that operator and allowance concepts are orthogonal: operators cannot call `transferFrom` (unless they have allowance), and accounts with allowance cannot call `operatorSend` (unless they are operators). Emits {Sent}, {IERC20-Transfer} and {IERC20-Approval} events."
      },
      "transferOwnership(address)": {
        "details": "Transfers ownership of the contract to a new account (`newOwner`). Can only be called by the current owner."
      }
    },
    "version": 1
  },
  "userdoc": {
    "kind": "user",
    "methods": {},
    "version": 1
  }
}