{
  "contractName": "CoveyStaking",
  "abi": [
    {
      "anonymous": false,
      "inputs": [
        {
          "indexed": true,
          "internalType": "address",
          "name": "_adr",
          "type": "address"
        },
        {
          "indexed": false,
          "internalType": "uint256",
          "name": "amountLost",
          "type": "uint256"
        }
      ],
      "name": "Bankrupt",
      "type": "event"
    },
    {
      "anonymous": false,
      "inputs": [
        {
          "indexed": true,
          "internalType": "address",
          "name": "_adr",
          "type": "address"
        }
      ],
      "name": "CancelledUnstake",
      "type": "event"
    },
    {
      "anonymous": false,
      "inputs": [
        {
          "indexed": false,
          "internalType": "uint8",
          "name": "version",
          "type": "uint8"
        }
      ],
      "name": "Initialized",
      "type": "event"
    },
    {
      "anonymous": false,
      "inputs": [
        {
          "indexed": true,
          "internalType": "address",
          "name": "_adr",
          "type": "address"
        },
        {
          "indexed": false,
          "internalType": "uint256",
          "name": "amountDispensed",
          "type": "uint256"
        }
      ],
      "name": "StakeDispensed",
      "type": "event"
    },
    {
      "anonymous": false,
      "inputs": [
        {
          "indexed": true,
          "internalType": "address",
          "name": "_adr",
          "type": "address"
        },
        {
          "indexed": false,
          "internalType": "uint256",
          "name": "amount",
          "type": "uint256"
        }
      ],
      "name": "Staked",
      "type": "event"
    },
    {
      "anonymous": false,
      "inputs": [
        {
          "indexed": true,
          "internalType": "address",
          "name": "_adr",
          "type": "address"
        },
        {
          "indexed": false,
          "internalType": "uint256",
          "name": "amount",
          "type": "uint256"
        }
      ],
      "name": "TotalStaked",
      "type": "event"
    },
    {
      "anonymous": false,
      "inputs": [
        {
          "indexed": true,
          "internalType": "address",
          "name": "_adr",
          "type": "address"
        },
        {
          "indexed": false,
          "internalType": "uint256",
          "name": "amount",
          "type": "uint256"
        }
      ],
      "name": "TotalUnstaked",
      "type": "event"
    },
    {
      "anonymous": false,
      "inputs": [
        {
          "indexed": true,
          "internalType": "address",
          "name": "_adr",
          "type": "address"
        },
        {
          "indexed": false,
          "internalType": "uint256",
          "name": "amount",
          "type": "uint256"
        }
      ],
      "name": "Unstaked",
      "type": "event"
    },
    {
      "inputs": [
        {
          "internalType": "bytes32",
          "name": "interfaceHash",
          "type": "bytes32"
        },
        {
          "internalType": "address",
          "name": "account",
          "type": "address"
        }
      ],
      "name": "canImplementInterfaceForAddress",
      "outputs": [
        {
          "internalType": "bytes32",
          "name": "",
          "type": "bytes32"
        }
      ],
      "stateMutability": "view",
      "type": "function",
      "constant": true
    },
    {
      "inputs": [],
      "name": "registry",
      "outputs": [
        {
          "internalType": "contract IERC1820Registry",
          "name": "",
          "type": "address"
        }
      ],
      "stateMutability": "view",
      "type": "function",
      "constant": true
    },
    {
      "inputs": [
        {
          "internalType": "uint256",
          "name": "",
          "type": "uint256"
        }
      ],
      "name": "stakers",
      "outputs": [
        {
          "internalType": "address",
          "name": "",
          "type": "address"
        }
      ],
      "stateMutability": "view",
      "type": "function",
      "constant": true
    },
    {
      "inputs": [],
      "name": "stakingToken",
      "outputs": [
        {
          "internalType": "contract IERC777",
          "name": "",
          "type": "address"
        }
      ],
      "stateMutability": "view",
      "type": "function",
      "constant": true
    },
    {
      "inputs": [
        {
          "internalType": "contract IERC777",
          "name": "_stakingToken",
          "type": "address"
        }
      ],
      "name": "initialize",
      "outputs": [],
      "stateMutability": "nonpayable",
      "type": "function"
    },
    {
      "inputs": [
        {
          "internalType": "address",
          "name": "operator",
          "type": "address"
        },
        {
          "internalType": "address",
          "name": "from",
          "type": "address"
        },
        {
          "internalType": "address",
          "name": "to",
          "type": "address"
        },
        {
          "internalType": "uint256",
          "name": "amount",
          "type": "uint256"
        },
        {
          "internalType": "bytes",
          "name": "userData",
          "type": "bytes"
        },
        {
          "internalType": "bytes",
          "name": "operatorData",
          "type": "bytes"
        }
      ],
      "name": "tokensReceived",
      "outputs": [],
      "stateMutability": "nonpayable",
      "type": "function"
    },
    {
      "inputs": [
        {
          "internalType": "address",
          "name": "operator",
          "type": "address"
        },
        {
          "internalType": "address",
          "name": "from",
          "type": "address"
        },
        {
          "internalType": "address",
          "name": "to",
          "type": "address"
        },
        {
          "internalType": "uint256",
          "name": "amount",
          "type": "uint256"
        },
        {
          "internalType": "bytes",
          "name": "userData",
          "type": "bytes"
        },
        {
          "internalType": "bytes",
          "name": "operatorData",
          "type": "bytes"
        }
      ],
      "name": "tokensToSend",
      "outputs": [],
      "stateMutability": "nonpayable",
      "type": "function"
    },
    {
      "inputs": [
        {
          "internalType": "address",
          "name": "account",
          "type": "address"
        }
      ],
      "name": "registerHookForAccount",
      "outputs": [],
      "stateMutability": "nonpayable",
      "type": "function"
    },
    {
      "inputs": [
        {
          "internalType": "uint256",
          "name": "amount",
          "type": "uint256"
        }
      ],
      "name": "stake",
      "outputs": [],
      "stateMutability": "nonpayable",
      "type": "function"
    },
    {
      "inputs": [
        {
          "internalType": "uint256",
          "name": "amount",
          "type": "uint256"
        }
      ],
      "name": "unstake",
      "outputs": [],
      "stateMutability": "nonpayable",
      "type": "function"
    },
    {
      "inputs": [],
      "name": "cancelUnstake",
      "outputs": [],
      "stateMutability": "nonpayable",
      "type": "function"
    },
    {
      "inputs": [
        {
          "internalType": "address",
          "name": "_adr",
          "type": "address"
        }
      ],
      "name": "getTotalStaked",
      "outputs": [
        {
          "internalType": "uint256",
          "name": "",
          "type": "uint256"
        }
      ],
      "stateMutability": "view",
      "type": "function",
      "constant": true
    },
    {
      "inputs": [
        {
          "internalType": "address",
          "name": "_adr",
          "type": "address"
        }
      ],
      "name": "getTotalUnstaked",
      "outputs": [
        {
          "internalType": "uint256",
          "name": "",
          "type": "uint256"
        }
      ],
      "stateMutability": "view",
      "type": "function",
      "constant": true
    },
    {
      "inputs": [
        {
          "internalType": "address[]",
          "name": "bankruptAddresses",
          "type": "address[]"
        }
      ],
      "name": "dispenseStakes",
      "outputs": [],
      "stateMutability": "nonpayable",
      "type": "function"
    },
    {
      "inputs": [
        {
          "internalType": "address",
          "name": "staker",
          "type": "address"
        }
      ],
      "name": "getNetStaked",
      "outputs": [
        {
          "internalType": "uint256",
          "name": "",
          "type": "uint256"
        }
      ],
      "stateMutability": "view",
      "type": "function",
      "constant": true
    },
    {
      "inputs": [],
      "name": "getAllNetStaked",
      "outputs": [
        {
          "components": [
            {
              "internalType": "address",
              "name": "staker",
              "type": "address"
            },
            {
              "internalType": "uint256",
              "name": "stakedAmount",
              "type": "uint256"
            }
          ],
          "internalType": "struct CoveyStaking.StakeInfo[]",
          "name": "",
          "type": "tuple[]"
        }
      ],
      "stateMutability": "view",
      "type": "function",
      "constant": true
    }
  ],
  "bytecode": "0x608060405234801561001057600080fd5b50612818806100206000396000f3fe608060405234801561001057600080fd5b50600436106100ff5760003560e01c8063a694fc3a11610097578063ded2e7da11610066578063ded2e7da1461026e578063e14cf1e41461029e578063ea6451e7146102bc578063fd5e6dd1146102ec576100ff565b8063a694fc3a146101ea578063a75036b614610206578063c4d66de814610222578063dd2a8b111461023e576100ff565b806372f702f3116100d357806372f702f314610176578063739cead91461019457806375ab9782146101b05780637b103999146101cc576100ff565b806223de2914610104578063249cb3fa146101205780632e17de78146101505780634ab179691461016c575b600080fd5b61011e60048036038101906101199190611c17565b61031c565b005b61013a60048036038101906101359190611d1c565b610326565b6040516101479190611d6b565b60405180910390f35b61016a60048036038101906101659190611d86565b6103bd565b005b61017461064c565b005b61017e610756565b60405161018b9190611e12565b60405180910390f35b6101ae60048036038101906101a99190611e83565b61077c565b005b6101ca60048036038101906101c59190611c17565b6110da565b005b6101d46110e4565b6040516101e19190611ef1565b60405180910390f35b61020460048036038101906101ff9190611d86565b61110a565b005b610220600480360381019061021b9190611f0c565b61147f565b005b61023c60048036038101906102379190611f77565b6114af565b005b61025860048036038101906102539190611f0c565b6116c7565b6040516102659190611fb3565b60405180910390f35b61028860048036038101906102839190611f0c565b611710565b6040516102959190611fb3565b60405180910390f35b6102a6611812565b6040516102b391906120ca565b60405180910390f35b6102d660048036038101906102d19190611f0c565b61190d565b6040516102e39190611fb3565b60405180910390f35b61030660048036038101906103019190611d86565b611956565b60405161031391906120fb565b60405180910390f35b5050505050505050565b60006001600084815260200190815260200160002060008373ffffffffffffffffffffffffffffffffffffffff1673ffffffffffffffffffffffffffffffffffffffff16815260200190815260200160002060009054906101000a900460ff16610393576000801b6103b5565b7fa2ef4600d742022d532d4747cb3547474667d6f13804902513b2ec01c848f4b45b905092915050565b6000600460003373ffffffffffffffffffffffffffffffffffffffff1673ffffffffffffffffffffffffffffffffffffffff168152602001908152602001600020541415610440576040517f08c379a000000000000000000000000000000000000000000000000000000000815260040161043790612173565b60405180910390fd5b600081600560003373ffffffffffffffffffffffffffffffffffffffff1673ffffffffffffffffffffffffffffffffffffffff1681526020019081526020016000205461048d91906121c2565b600460003373ffffffffffffffffffffffffffffffffffffffff1673ffffffffffffffffffffffffffffffffffffffff168152602001908152602001600020546104d79190612218565b1015610518576040517f08c379a000000000000000000000000000000000000000000000000000000000815260040161050f906122be565b60405180910390fd5b80600560003373ffffffffffffffffffffffffffffffffffffffff1673ffffffffffffffffffffffffffffffffffffffff168152602001908152602001600020600082825461056791906121c2565b925050819055503373ffffffffffffffffffffffffffffffffffffffff167f0f5bb82176feb1b5e747e28471aa92156a04d9f3ab9f45f28e2d704232b93f75826040516105b49190611fb3565b60405180910390a23373ffffffffffffffffffffffffffffffffffffffff167f45a61950ae80a9a1d9a6c03683ce65096a7db8ca520632bed3072f40963c8804600560003373ffffffffffffffffffffffffffffffffffffffff1673ffffffffffffffffffffffffffffffffffffffff168152602001908152602001600020546040516106419190611fb3565b60405180910390a250565b6000600560003373ffffffffffffffffffffffffffffffffffffffff1673ffffffffffffffffffffffffffffffffffffffff16815260200190815260200160002054116106ce576040517f08c379a00000000000000000000000000000000000000000000000000000000081526004016106c59061232a565b60405180910390fd5b600560003373ffffffffffffffffffffffffffffffffffffffff1673ffffffffffffffffffffffffffffffffffffffff168152602001908152602001600020600090553373ffffffffffffffffffffffffffffffffffffffff167f450cc0f663f8ded0053aeca240ef53a2f4b93c5c3aa067e8e45155e823ceaa7a60405160405180910390a2565b600260009054906101000a900473ffffffffffffffffffffffffffffffffffffffff1681565b600360009054906101000a900473ffffffffffffffffffffffffffffffffffffffff1673ffffffffffffffffffffffffffffffffffffffff163373ffffffffffffffffffffffffffffffffffffffff16146107d657600080fd5b60005b6006805490508110156110d5576000805b848490508110156108a657600683815481106108095761080861234a565b5b9060005260206000200160009054906101000a900473ffffffffffffffffffffffffffffffffffffffff1673ffffffffffffffffffffffffffffffffffffffff1685858381811061085d5761085c61234a565b5b90506020020160208101906108729190611f0c565b73ffffffffffffffffffffffffffffffffffffffff16141561089357600191505b808061089e90612379565b9150506107ea565b50600115158115151415610b0557600682815481106108c8576108c761234a565b5b9060005260206000200160009054906101000a900473ffffffffffffffffffffffffffffffffffffffff1673ffffffffffffffffffffffffffffffffffffffff167f7fe451685bab7a17da665cc038b4635412b8d788bb692963f88e35eba15ae17560046000600686815481106109425761094161234a565b5b9060005260206000200160009054906101000a900473ffffffffffffffffffffffffffffffffffffffff1673ffffffffffffffffffffffffffffffffffffffff1673ffffffffffffffffffffffffffffffffffffffff168152602001908152602001600020546040516109b59190611fb3565b60405180910390a260056000600684815481106109d5576109d461234a565b5b9060005260206000200160009054906101000a900473ffffffffffffffffffffffffffffffffffffffff1673ffffffffffffffffffffffffffffffffffffffff1673ffffffffffffffffffffffffffffffffffffffff168152602001908152602001600020600090556004600060068481548110610a5657610a5561234a565b5b9060005260206000200160009054906101000a900473ffffffffffffffffffffffffffffffffffffffff1673ffffffffffffffffffffffffffffffffffffffff1673ffffffffffffffffffffffffffffffffffffffff1681526020019081526020016000206000905560068281548110610ad357610ad261234a565b5b9060005260206000200160006101000a81549073ffffffffffffffffffffffffffffffffffffffff02191690556110c1565b60006005600060068581548110610b1f57610b1e61234a565b5b9060005260206000200160009054906101000a900473ffffffffffffffffffffffffffffffffffffffff1673ffffffffffffffffffffffffffffffffffffffff1673ffffffffffffffffffffffffffffffffffffffff16815260200190815260200160002054118015610b96575060001515811515145b156110c057600260009054906101000a900473ffffffffffffffffffffffffffffffffffffffff1673ffffffffffffffffffffffffffffffffffffffff16639bd9bbc660068481548110610bed57610bec61234a565b5b9060005260206000200160009054906101000a900473ffffffffffffffffffffffffffffffffffffffff166005600060068781548110610c3057610c2f61234a565b5b9060005260206000200160009054906101000a900473ffffffffffffffffffffffffffffffffffffffff1673ffffffffffffffffffffffffffffffffffffffff1673ffffffffffffffffffffffffffffffffffffffff168152602001908152602001600020546040518363ffffffff1660e01b8152600401610cb392919061241f565b600060405180830381600087803b158015610ccd57600080fd5b505af1158015610ce1573d6000803e3d6000fd5b5050505060068281548110610cf957610cf861234a565b5b9060005260206000200160009054906101000a900473ffffffffffffffffffffffffffffffffffffffff1673ffffffffffffffffffffffffffffffffffffffff167f9b4c90d41aa819dadecbb2e126e6dc2e01be4402acc99ec60248131a3f59576c6005600060068681548110610d7357610d7261234a565b5b9060005260206000200160009054906101000a900473ffffffffffffffffffffffffffffffffffffffff1673ffffffffffffffffffffffffffffffffffffffff1673ffffffffffffffffffffffffffffffffffffffff16815260200190815260200160002054604051610de69190611fb3565b60405180910390a26005600060068481548110610e0657610e0561234a565b5b9060005260206000200160009054906101000a900473ffffffffffffffffffffffffffffffffffffffff1673ffffffffffffffffffffffffffffffffffffffff1673ffffffffffffffffffffffffffffffffffffffff168152602001908152602001600020546004600060068581548110610e8457610e8361234a565b5b9060005260206000200160009054906101000a900473ffffffffffffffffffffffffffffffffffffffff1673ffffffffffffffffffffffffffffffffffffffff1673ffffffffffffffffffffffffffffffffffffffff16815260200190815260200160002054610ef49190612218565b6004600060068581548110610f0c57610f0b61234a565b5b9060005260206000200160009054906101000a900473ffffffffffffffffffffffffffffffffffffffff1673ffffffffffffffffffffffffffffffffffffffff1673ffffffffffffffffffffffffffffffffffffffff1681526020019081526020016000208190555060006005600060068581548110610f8f57610f8e61234a565b5b9060005260206000200160009054906101000a900473ffffffffffffffffffffffffffffffffffffffff1673ffffffffffffffffffffffffffffffffffffffff1673ffffffffffffffffffffffffffffffffffffffff16815260200190815260200160002081905550600060046000600685815481106110125761101161234a565b5b9060005260206000200160009054906101000a900473ffffffffffffffffffffffffffffffffffffffff1673ffffffffffffffffffffffffffffffffffffffff1673ffffffffffffffffffffffffffffffffffffffff16815260200190815260200160002054116110bf57600682815481106110915761109061234a565b5b9060005260206000200160006101000a81549073ffffffffffffffffffffffffffffffffffffffff02191690555b5b5b5080806110cd90612379565b9150506107d9565b505050565b5050505050505050565b600760009054906101000a900473ffffffffffffffffffffffffffffffffffffffff1681565b600073ffffffffffffffffffffffffffffffffffffffff163373ffffffffffffffffffffffffffffffffffffffff16141561117a576040517f08c379a0000000000000000000000000000000000000000000000000000000008152600401611171906124a7565b60405180910390fd5b600260009054906101000a900473ffffffffffffffffffffffffffffffffffffffff1673ffffffffffffffffffffffffffffffffffffffff1663d95b637130336040518363ffffffff1660e01b81526004016111d79291906124c7565b602060405180830381865afa1580156111f4573d6000803e3d6000fd5b505050506040513d601f19601f820116820180604052508101906112189190612528565b611257576040517f08c379a000000000000000000000000000000000000000000000000000000000815260040161124e906125c7565b60405180910390fd5b600260009054906101000a900473ffffffffffffffffffffffffffffffffffffffff1673ffffffffffffffffffffffffffffffffffffffff166362ad1b833330846040518463ffffffff1660e01b81526004016112b693929190612659565b600060405180830381600087803b1580156112d057600080fd5b505af11580156112e4573d6000803e3d6000fd5b5050505080600460003373ffffffffffffffffffffffffffffffffffffffff1673ffffffffffffffffffffffffffffffffffffffff168152602001908152602001600020600082825461133791906121c2565b925050819055506006339080600181540180825580915050600190039060005260206000200160009091909190916101000a81548173ffffffffffffffffffffffffffffffffffffffff021916908373ffffffffffffffffffffffffffffffffffffffff1602179055503373ffffffffffffffffffffffffffffffffffffffff167f9e71bc8eea02a63969f509818f2dafb9254532904319f9dbda79b67bd34a5f3d826040516113e79190611fb3565b60405180910390a23373ffffffffffffffffffffffffffffffffffffffff167f62be4aaebfea1375247e22afe02276e2d8d1b765bff167beda8066a0012c7b5f600460003373ffffffffffffffffffffffffffffffffffffffff1673ffffffffffffffffffffffffffffffffffffffff168152602001908152602001600020546040516114749190611fb3565b60405180910390a250565b6114ac7f29ddb589b1fb5fc7cf394961c1adf5f8c6454761adf795e67fe149f658abe89560001b82611995565b50565b60006114bb6001611a01565b905080156114df576001600060016101000a81548160ff0219169083151502179055505b33600360006101000a81548173ffffffffffffffffffffffffffffffffffffffff021916908373ffffffffffffffffffffffffffffffffffffffff16021790555081600260006101000a81548173ffffffffffffffffffffffffffffffffffffffff021916908373ffffffffffffffffffffffffffffffffffffffff160217905550731820a4b7618bde71dce8cdc73aab6c95905fad24600760006101000a81548173ffffffffffffffffffffffffffffffffffffffff021916908373ffffffffffffffffffffffffffffffffffffffff160217905550600760009054906101000a900473ffffffffffffffffffffffffffffffffffffffff1673ffffffffffffffffffffffffffffffffffffffff166329965a1d307fb281fc8c12954d22544db45de3159a39272895b169a852b314f9cc762e44c53b60001b306040518463ffffffff1660e01b8152600401611638939291906126b6565b600060405180830381600087803b15801561165257600080fd5b505af1158015611666573d6000803e3d6000fd5b5050505080156116c35760008060016101000a81548160ff0219169083151502179055507f7f26b83ff96e1f2b6a682f133852f6798a09c465da95921460cefb384740249860016040516116ba9190612735565b60405180910390a15b5050565b6000600460008373ffffffffffffffffffffffffffffffffffffffff1673ffffffffffffffffffffffffffffffffffffffff168152602001908152602001600020549050919050565b60008073ffffffffffffffffffffffffffffffffffffffff168273ffffffffffffffffffffffffffffffffffffffff161415611781576040517f08c379a0000000000000000000000000000000000000000000000000000000008152600401611778906124a7565b60405180910390fd5b600560008373ffffffffffffffffffffffffffffffffffffffff1673ffffffffffffffffffffffffffffffffffffffff16815260200190815260200160002054600460008473ffffffffffffffffffffffffffffffffffffffff1673ffffffffffffffffffffffffffffffffffffffff1681526020019081526020016000205461180b9190612218565b9050919050565b60608060005b600680549050811015611905576040518060400160405280600683815481106118445761184361234a565b5b9060005260206000200160009054906101000a900473ffffffffffffffffffffffffffffffffffffffff1673ffffffffffffffffffffffffffffffffffffffff1681526020016118d1600684815481106118a1576118a061234a565b5b9060005260206000200160009054906101000a900473ffffffffffffffffffffffffffffffffffffffff16611710565b8152508282815181106118e7576118e661234a565b5b602002602001018190525080806118fd90612379565b915050611818565b508091505090565b6000600560008373ffffffffffffffffffffffffffffffffffffffff1673ffffffffffffffffffffffffffffffffffffffff168152602001908152602001600020549050919050565b6006818154811061196657600080fd5b906000526020600020016000915054906101000a900473ffffffffffffffffffffffffffffffffffffffff1681565b600180600084815260200190815260200160002060008373ffffffffffffffffffffffffffffffffffffffff1673ffffffffffffffffffffffffffffffffffffffff16815260200190815260200160002060006101000a81548160ff0219169083151502179055505050565b60008060019054906101000a900460ff1615611a785760018260ff16148015611a305750611a2e30611af1565b155b611a6f576040517f08c379a0000000000000000000000000000000000000000000000000000000008152600401611a66906127c2565b60405180910390fd5b60009050611aec565b8160ff1660008054906101000a900460ff1660ff1610611acd576040517f08c379a0000000000000000000000000000000000000000000000000000000008152600401611ac4906127c2565b60405180910390fd5b816000806101000a81548160ff021916908360ff160217905550600190505b919050565b6000808273ffffffffffffffffffffffffffffffffffffffff163b119050919050565b600080fd5b600080fd5b600073ffffffffffffffffffffffffffffffffffffffff82169050919050565b6000611b4982611b1e565b9050919050565b611b5981611b3e565b8114611b6457600080fd5b50565b600081359050611b7681611b50565b92915050565b6000819050919050565b611b8f81611b7c565b8114611b9a57600080fd5b50565b600081359050611bac81611b86565b92915050565b600080fd5b600080fd5b600080fd5b60008083601f840112611bd757611bd6611bb2565b5b8235905067ffffffffffffffff811115611bf457611bf3611bb7565b5b602083019150836001820283011115611c1057611c0f611bbc565b5b9250929050565b60008060008060008060008060c0898b031215611c3757611c36611b14565b5b6000611c458b828c01611b67565b9850506020611c568b828c01611b67565b9750506040611c678b828c01611b67565b9650506060611c788b828c01611b9d565b955050608089013567ffffffffffffffff811115611c9957611c98611b19565b5b611ca58b828c01611bc1565b945094505060a089013567ffffffffffffffff811115611cc857611cc7611b19565b5b611cd48b828c01611bc1565b92509250509295985092959890939650565b6000819050919050565b611cf981611ce6565b8114611d0457600080fd5b50565b600081359050611d1681611cf0565b92915050565b60008060408385031215611d3357611d32611b14565b5b6000611d4185828601611d07565b9250506020611d5285828601611b67565b9150509250929050565b611d6581611ce6565b82525050565b6000602082019050611d806000830184611d5c565b92915050565b600060208284031215611d9c57611d9b611b14565b5b6000611daa84828501611b9d565b91505092915050565b6000819050919050565b6000611dd8611dd3611dce84611b1e565b611db3565b611b1e565b9050919050565b6000611dea82611dbd565b9050919050565b6000611dfc82611ddf565b9050919050565b611e0c81611df1565b82525050565b6000602082019050611e276000830184611e03565b92915050565b60008083601f840112611e4357611e42611bb2565b5b8235905067ffffffffffffffff811115611e6057611e5f611bb7565b5b602083019150836020820283011115611e7c57611e7b611bbc565b5b9250929050565b60008060208385031215611e9a57611e99611b14565b5b600083013567ffffffffffffffff811115611eb857611eb7611b19565b5b611ec485828601611e2d565b92509250509250929050565b6000611edb82611ddf565b9050919050565b611eeb81611ed0565b82525050565b6000602082019050611f066000830184611ee2565b92915050565b600060208284031215611f2257611f21611b14565b5b6000611f3084828501611b67565b91505092915050565b6000611f4482611b3e565b9050919050565b611f5481611f39565b8114611f5f57600080fd5b50565b600081359050611f7181611f4b565b92915050565b600060208284031215611f8d57611f8c611b14565b5b6000611f9b84828501611f62565b91505092915050565b611fad81611b7c565b82525050565b6000602082019050611fc86000830184611fa4565b92915050565b600081519050919050565b600082825260208201905092915050565b6000819050602082019050919050565b61200381611b3e565b82525050565b61201281611b7c565b82525050565b60408201600082015161202e6000850182611ffa565b5060208201516120416020850182612009565b50505050565b60006120538383612018565b60408301905092915050565b6000602082019050919050565b600061207782611fce565b6120818185611fd9565b935061208c83611fea565b8060005b838110156120bd5781516120a48882612047565b97506120af8361205f565b925050600181019050612090565b5085935050505092915050565b600060208201905081810360008301526120e4818461206c565b905092915050565b6120f581611b3e565b82525050565b600060208201905061211060008301846120ec565b92915050565b600082825260208201905092915050565b7f486173206e6f74207374616b6564000000000000000000000000000000000000600082015250565b600061215d600e83612116565b915061216882612127565b602082019050919050565b6000602082019050818103600083015261218c81612150565b9050919050565b7f4e487b7100000000000000000000000000000000000000000000000000000000600052601160045260246000fd5b60006121cd82611b7c565b91506121d883611b7c565b9250827fffffffffffffffffffffffffffffffffffffffffffffffffffffffffffffffff0382111561220d5761220c612193565b5b828201905092915050565b600061222382611b7c565b915061222e83611b7c565b92508282101561224157612240612193565b5b828203905092915050565b7f43616e6e6f7420756e7374616b65206d6f7265207468616e20746f74616c207360008201527f74616b656420616d6f756e740000000000000000000000000000000000000000602082015250565b60006122a8602c83612116565b91506122b38261224c565b604082019050919050565b600060208201905081810360008301526122d78161229b565b9050919050565b7f4e6f20756e7374616b6520746f2063616e63656c000000000000000000000000600082015250565b6000612314601483612116565b915061231f826122de565b602082019050919050565b6000602082019050818103600083015261234381612307565b9050919050565b7f4e487b7100000000000000000000000000000000000000000000000000000000600052603260045260246000fd5b600061238482611b7c565b91507fffffffffffffffffffffffffffffffffffffffffffffffffffffffffffffffff8214156123b7576123b6612193565b5b600182019050919050565b600082825260208201905092915050565b7f5374616b652064697370656e73616c0000000000000000000000000000000000600082015250565b6000612409600f836123c2565b9150612414826123d3565b602082019050919050565b600060608201905061243460008301856120ec565b6124416020830184611fa4565b8181036040830152612452816123fc565b90509392505050565b7f53656e6465722069732030206164647265737300000000000000000000000000600082015250565b6000612491601383612116565b915061249c8261245b565b602082019050919050565b600060208201905081810360008301526124c081612484565b9050919050565b60006040820190506124dc60008301856120ec565b6124e960208301846120ec565b9392505050565b60008115159050919050565b612505816124f0565b811461251057600080fd5b50565b600081519050612522816124fc565b92915050565b60006020828403121561253e5761253d611b14565b5b600061254c84828501612513565b91505092915050565b7f5374616b696e6720636f6e7472616374206973206e6f7420616e206f7065726160008201527f746f7220666f7220746869732061646472657373000000000000000000000000602082015250565b60006125b1603483612116565b91506125bc82612555565b604082019050919050565b600060208201905081810360008301526125e0816125a4565b9050919050565b7f436f766579205374616b65000000000000000000000000000000000000000000600082015250565b600061261d600b836123c2565b9150612628826125e7565b602082019050919050565b50565b60006126436000836123c2565b915061264e82612633565b600082019050919050565b600060a08201905061266e60008301866120ec565b61267b60208301856120ec565b6126886040830184611fa4565b818103606083015261269981612610565b905081810360808301526126ac81612636565b9050949350505050565b60006060820190506126cb60008301866120ec565b6126d86020830185611d5c565b6126e560408301846120ec565b949350505050565b6000819050919050565b600060ff82169050919050565b600061271f61271a612715846126ed565b611db3565b6126f7565b9050919050565b61272f81612704565b82525050565b600060208201905061274a6000830184612726565b92915050565b7f496e697469616c697a61626c653a20636f6e747261637420697320616c72656160008201527f647920696e697469616c697a6564000000000000000000000000000000000000602082015250565b60006127ac602e83612116565b91506127b782612750565b604082019050919050565b600060208201905081810360008301526127db8161279f565b905091905056fea26469706673582212202e451bb8118ebf94b92f2a31396552f7b277b91c053bdd9b702c4890d5ef05cc64736f6c634300080b0033",
  "immutableReferences": {},
  "source": "pragma solidity ^0.8.11;\r\n\r\nimport \"@openzeppelin/contracts/utils/math/SafeMath.sol\";\r\nimport \"@openzeppelin/contracts/access/Ownable.sol\";\r\nimport \"@openzeppelin/contracts/token/ERC777/IERC777.sol\";\r\nimport '@openzeppelin/contracts-upgradeable/proxy/utils/Initializable.sol';\r\nimport \"@openzeppelin/contracts/token/ERC777/IERC777Sender.sol\";\r\nimport \"@openzeppelin/contracts/token/ERC777/IERC777Recipient.sol\";\r\nimport \"@openzeppelin/contracts/interfaces/IERC1820Registry.sol\";\r\nimport \"@openzeppelin/contracts/utils/introspection/ERC1820Implementer.sol\";\r\n\r\ncontract CoveyStaking is Initializable, IERC777Recipient, IERC777Sender, ERC1820Implementer  {\r\n  IERC777 public stakingToken;\r\n\r\n  struct StakeInfo {\r\n      address staker;\r\n      uint stakedAmount;\r\n  }\r\n\r\n  address owner;\r\n\r\n\r\n  mapping(address => uint) private _stakedAmounts;\r\n\r\n  mapping(address => uint) private _unstakedAmounts;\r\n\r\n  address[] public stakers;\r\n\r\n  IERC1820Registry public registry;\r\n    \r\n    // keccak256('ERC777TokensRecipient')\r\n    bytes32 constant private TOKENS_RECIPIENT_INTERFACE_HASH\r\n        = 0xb281fc8c12954d22544db45de3159a39272895b169a852b314f9cc762e44c53b;\r\n\r\n\r\n   // keccak256(\"ERC777TokensSender\")\r\n    bytes32 constant private TOKENS_SENDER_INTERFACE_HASH =\r\n        0x29ddb589b1fb5fc7cf394961c1adf5f8c6454761adf795e67fe149f658abe895;\r\n\r\n  event Staked(address indexed _adr, uint amount);\r\n  \r\n  event Unstaked(address indexed _adr, uint amount);\r\n\r\n  event TotalStaked(address indexed _adr, uint amount);\r\n  \r\n  event TotalUnstaked(address indexed _adr, uint amount);\r\n\r\n  event CancelledUnstake(address indexed _adr);\r\n\r\n  event Bankrupt(address indexed _adr, uint amountLost);\r\n\r\n  event StakeDispensed(address indexed _adr, uint amountDispensed);\r\n\r\n  modifier onlyOwner {\r\n      require(msg.sender == owner);\r\n      _;\r\n  }\r\n\r\n  function initialize(IERC777 _stakingToken) public initializer {\r\n        owner = msg.sender;\r\n        stakingToken = _stakingToken;\r\n\r\n        registry = IERC1820Registry(0x1820a4B7618BdE71Dce8cdc73aAB6C95905faD24);\r\n\r\n        registry.setInterfaceImplementer(\r\n            address(this),\r\n            TOKENS_RECIPIENT_INTERFACE_HASH,\r\n            address(this)\r\n        );\r\n    }\r\n\r\n   function tokensReceived(\r\n        address operator,\r\n        address from,\r\n        address to,\r\n        uint256 amount,\r\n        bytes calldata userData,\r\n        bytes calldata operatorData\r\n    ) external {\r\n\r\n    }\r\n\r\n    function tokensToSend(\r\n        address operator,\r\n        address from,\r\n        address to,\r\n        uint256 amount,\r\n        bytes calldata userData,\r\n        bytes calldata operatorData\r\n    ) external {}\r\n\r\n    function registerHookForAccount(address account) public {\r\n        _registerInterfaceForAddress(\r\n            TOKENS_SENDER_INTERFACE_HASH,\r\n            account\r\n        );\r\n    }\r\n\r\n  function stake(uint amount) public {\r\n      require(msg.sender != address(0), \"Sender is 0 address\");\r\n      require(stakingToken.isOperatorFor(address(this), msg.sender), \"Staking contract is not an operator for this address\");\r\n\r\n      stakingToken.operatorSend(msg.sender, address(this), amount, \"Covey Stake\", \"\");\r\n      _stakedAmounts[msg.sender] +=  amount;\r\n      stakers.push(msg.sender);\r\n      emit Staked(msg.sender, amount);\r\n      emit TotalStaked(msg.sender, _stakedAmounts[msg.sender]);\r\n  }\r\n\r\n  function unstake(uint amount) public {\r\n      require(_stakedAmounts[msg.sender] != 0, \"Has not staked\");\r\n      require(_stakedAmounts[msg.sender] - (_unstakedAmounts[msg.sender] + amount) >= 0, \"Cannot unstake more than total staked amount\");\r\n      _unstakedAmounts[msg.sender] += amount;\r\n      emit Unstaked(msg.sender, amount);\r\n      emit TotalUnstaked(msg.sender, _unstakedAmounts[msg.sender]);\r\n  }\r\n\r\n  function cancelUnstake() public {\r\n      require(_unstakedAmounts[msg.sender] > 0, \"No unstake to cancel\");\r\n      delete _unstakedAmounts[msg.sender];\r\n      emit CancelledUnstake(msg.sender);\r\n  }\r\n\r\n  function getTotalStaked(address _adr) public view returns(uint) {\r\n      return _stakedAmounts[_adr];\r\n  }\r\n\r\n  function getTotalUnstaked(address _adr) public view returns(uint) {\r\n      return _unstakedAmounts[_adr];\r\n  }\r\n\r\n  function dispenseStakes(address[] calldata bankruptAddresses) public onlyOwner {\r\n      for(uint i = 0; i < stakers.length; i++) {\r\n          bool isBankrupt = false;\r\n          for(uint j = 0; j < bankruptAddresses.length; j++) {\r\n                if(bankruptAddresses[j] == stakers[i]) {\r\n                    isBankrupt = true;\r\n                }\r\n            }\r\n\r\n          if(isBankrupt == true) {\r\n              emit Bankrupt(stakers[i], _stakedAmounts[stakers[i]]);\r\n              delete _unstakedAmounts[stakers[i]];\r\n              delete _stakedAmounts[stakers[i]];\r\n              delete stakers[i]; \r\n          } else if( _unstakedAmounts[stakers[i]] > 0 && isBankrupt == false) {\r\n              stakingToken.send(stakers[i], _unstakedAmounts[stakers[i]], \"Stake dispensal\");\r\n              emit StakeDispensed(stakers[i], _unstakedAmounts[stakers[i]]);\r\n              _stakedAmounts[stakers[i]] = _stakedAmounts[stakers[i]] - _unstakedAmounts[stakers[i]];\r\n              _unstakedAmounts[stakers[i]] = 0;\r\n\r\n              if(_stakedAmounts[stakers[i]] <= 0) {\r\n                  delete stakers[i];\r\n              }\r\n          }\r\n      }\r\n  }\r\n\r\n  function getNetStaked(address staker) public view returns (uint) {\r\n      require(staker != address(0), \"Sender is 0 address\");\r\n      \r\n      return _stakedAmounts[staker] - _unstakedAmounts[staker];\r\n  }\r\n\r\n  function getAllNetStaked() public view returns (StakeInfo[] memory) {\r\n      StakeInfo[] memory stakeInformation;\r\n\r\n      for(uint i = 0; i < stakers.length; i++) {\r\n          stakeInformation[i] = StakeInfo({\r\n              staker: stakers[i],\r\n              stakedAmount: getNetStaked(stakers[i])\r\n          });\r\n      }\r\n\r\n      return stakeInformation;\r\n  }\r\n}",
  "sourcePath": "c:\\Users\\jcara\\Documents\\repos\\smart-contract-token\\contracts\\CoveyStaking.sol",
  "compiler": {
    "name": "solc",
    "version": "0.8.11+commit.d7f03943.Emscripten.clang"
  },
  "schemaVersion": "3.4.7",
  "updatedAt": "2022-08-03T21:13:46.135Z",
  "networkType": "ethereum",
  "devdoc": {
    "kind": "dev",
    "methods": {
      "canImplementInterfaceForAddress(bytes32,address)": {
        "details": "See {IERC1820Implementer-canImplementInterfaceForAddress}."
      },
      "tokensReceived(address,address,address,uint256,bytes,bytes)": {
        "details": "Called by an {IERC777} token contract whenever tokens are being moved or created into a registered account (`to`). The type of operation is conveyed by `from` being the zero address or not. This call occurs _after_ the token contract's state is updated, so {IERC777-balanceOf}, etc., can be used to query the post-operation state. This function may revert to prevent the operation from being executed."
      },
      "tokensToSend(address,address,address,uint256,bytes,bytes)": {
        "details": "Called by an {IERC777} token contract whenever a registered holder's (`from`) tokens are about to be moved or destroyed. The type of operation is conveyed by `to` being the zero address or not. This call occurs _before_ the token contract's state is updated, so {IERC777-balanceOf}, etc., can be used to query the pre-operation state. This function may revert to prevent the operation from being executed."
      }
    },
    "version": 1
  },
  "userdoc": {
    "kind": "user",
    "methods": {},
    "version": 1
  }
}