{
  "contractName": "CoveyToken",
  "abi": [
    {
      "inputs": [
        {
          "internalType": "uint256",
          "name": "initialSupply",
          "type": "uint256"
        },
        {
          "internalType": "address[]",
          "name": "defaultOperators",
          "type": "address[]"
        }
      ],
      "stateMutability": "nonpayable",
      "type": "constructor"
    },
    {
      "anonymous": false,
      "inputs": [
        {
          "indexed": true,
          "internalType": "address",
          "name": "owner",
          "type": "address"
        },
        {
          "indexed": true,
          "internalType": "address",
          "name": "spender",
          "type": "address"
        },
        {
          "indexed": false,
          "internalType": "uint256",
          "name": "value",
          "type": "uint256"
        }
      ],
      "name": "Approval",
      "type": "event"
    },
    {
      "anonymous": false,
      "inputs": [
        {
          "indexed": true,
          "internalType": "address",
          "name": "operator",
          "type": "address"
        },
        {
          "indexed": true,
          "internalType": "address",
          "name": "tokenHolder",
          "type": "address"
        }
      ],
      "name": "AuthorizedOperator",
      "type": "event"
    },
    {
      "anonymous": false,
      "inputs": [
        {
          "indexed": true,
          "internalType": "address",
          "name": "operator",
          "type": "address"
        },
        {
          "indexed": true,
          "internalType": "address",
          "name": "from",
          "type": "address"
        },
        {
          "indexed": false,
          "internalType": "uint256",
          "name": "amount",
          "type": "uint256"
        },
        {
          "indexed": false,
          "internalType": "bytes",
          "name": "data",
          "type": "bytes"
        },
        {
          "indexed": false,
          "internalType": "bytes",
          "name": "operatorData",
          "type": "bytes"
        }
      ],
      "name": "Burned",
      "type": "event"
    },
    {
      "anonymous": false,
      "inputs": [
        {
          "indexed": false,
          "internalType": "address",
          "name": "to",
          "type": "address"
        },
        {
          "indexed": false,
          "internalType": "uint256",
          "name": "amount",
          "type": "uint256"
        },
        {
          "indexed": false,
          "internalType": "uint256",
          "name": "unlockTime",
          "type": "uint256"
        }
      ],
      "name": "LockedTokensSent",
      "type": "event"
    },
    {
      "anonymous": false,
      "inputs": [
        {
          "indexed": true,
          "internalType": "address",
          "name": "operator",
          "type": "address"
        },
        {
          "indexed": true,
          "internalType": "address",
          "name": "to",
          "type": "address"
        },
        {
          "indexed": false,
          "internalType": "uint256",
          "name": "amount",
          "type": "uint256"
        },
        {
          "indexed": false,
          "internalType": "bytes",
          "name": "data",
          "type": "bytes"
        },
        {
          "indexed": false,
          "internalType": "bytes",
          "name": "operatorData",
          "type": "bytes"
        }
      ],
      "name": "Minted",
      "type": "event"
    },
    {
      "anonymous": false,
      "inputs": [
        {
          "indexed": true,
          "internalType": "address",
          "name": "previousOwner",
          "type": "address"
        },
        {
          "indexed": true,
          "internalType": "address",
          "name": "newOwner",
          "type": "address"
        }
      ],
      "name": "OwnershipTransferred",
      "type": "event"
    },
    {
      "anonymous": false,
      "inputs": [
        {
          "indexed": true,
          "internalType": "address",
          "name": "operator",
          "type": "address"
        },
        {
          "indexed": true,
          "internalType": "address",
          "name": "tokenHolder",
          "type": "address"
        }
      ],
      "name": "RevokedOperator",
      "type": "event"
    },
    {
      "anonymous": false,
      "inputs": [
        {
          "indexed": true,
          "internalType": "address",
          "name": "operator",
          "type": "address"
        },
        {
          "indexed": true,
          "internalType": "address",
          "name": "from",
          "type": "address"
        },
        {
          "indexed": true,
          "internalType": "address",
          "name": "to",
          "type": "address"
        },
        {
          "indexed": false,
          "internalType": "uint256",
          "name": "amount",
          "type": "uint256"
        },
        {
          "indexed": false,
          "internalType": "bytes",
          "name": "data",
          "type": "bytes"
        },
        {
          "indexed": false,
          "internalType": "bytes",
          "name": "operatorData",
          "type": "bytes"
        }
      ],
      "name": "Sent",
      "type": "event"
    },
    {
      "anonymous": false,
      "inputs": [
        {
          "indexed": false,
          "internalType": "address",
          "name": "to",
          "type": "address"
        },
        {
          "indexed": false,
          "internalType": "uint256",
          "name": "amount",
          "type": "uint256"
        }
      ],
      "name": "TokensReleased",
      "type": "event"
    },
    {
      "anonymous": false,
      "inputs": [
        {
          "indexed": true,
          "internalType": "address",
          "name": "from",
          "type": "address"
        },
        {
          "indexed": true,
          "internalType": "address",
          "name": "to",
          "type": "address"
        },
        {
          "indexed": false,
          "internalType": "uint256",
          "name": "value",
          "type": "uint256"
        }
      ],
      "name": "Transfer",
      "type": "event"
    },
    {
      "inputs": [
        {
          "internalType": "address",
          "name": "holder",
          "type": "address"
        },
        {
          "internalType": "address",
          "name": "spender",
          "type": "address"
        }
      ],
      "name": "allowance",
      "outputs": [
        {
          "internalType": "uint256",
          "name": "",
          "type": "uint256"
        }
      ],
      "stateMutability": "view",
      "type": "function",
      "constant": true
    },
    {
      "inputs": [
        {
          "internalType": "address",
          "name": "spender",
          "type": "address"
        },
        {
          "internalType": "uint256",
          "name": "value",
          "type": "uint256"
        }
      ],
      "name": "approve",
      "outputs": [
        {
          "internalType": "bool",
          "name": "",
          "type": "bool"
        }
      ],
      "stateMutability": "nonpayable",
      "type": "function"
    },
    {
      "inputs": [
        {
          "internalType": "address",
          "name": "operator",
          "type": "address"
        }
      ],
      "name": "authorizeOperator",
      "outputs": [],
      "stateMutability": "nonpayable",
      "type": "function"
    },
    {
      "inputs": [
        {
          "internalType": "address",
          "name": "tokenHolder",
          "type": "address"
        }
      ],
      "name": "balanceOf",
      "outputs": [
        {
          "internalType": "uint256",
          "name": "",
          "type": "uint256"
        }
      ],
      "stateMutability": "view",
      "type": "function",
      "constant": true
    },
    {
      "inputs": [
        {
          "internalType": "uint256",
          "name": "amount",
          "type": "uint256"
        },
        {
          "internalType": "bytes",
          "name": "data",
          "type": "bytes"
        }
      ],
      "name": "burn",
      "outputs": [],
      "stateMutability": "nonpayable",
      "type": "function"
    },
    {
      "inputs": [],
      "name": "decimals",
      "outputs": [
        {
          "internalType": "uint8",
          "name": "",
          "type": "uint8"
        }
      ],
      "stateMutability": "pure",
      "type": "function",
      "constant": true
    },
    {
      "inputs": [],
      "name": "defaultOperators",
      "outputs": [
        {
          "internalType": "address[]",
          "name": "",
          "type": "address[]"
        }
      ],
      "stateMutability": "view",
      "type": "function",
      "constant": true
    },
    {
      "inputs": [],
      "name": "granularity",
      "outputs": [
        {
          "internalType": "uint256",
          "name": "",
          "type": "uint256"
        }
      ],
      "stateMutability": "view",
      "type": "function",
      "constant": true
    },
    {
      "inputs": [
        {
          "internalType": "address",
          "name": "operator",
          "type": "address"
        },
        {
          "internalType": "address",
          "name": "tokenHolder",
          "type": "address"
        }
      ],
      "name": "isOperatorFor",
      "outputs": [
        {
          "internalType": "bool",
          "name": "",
          "type": "bool"
        }
      ],
      "stateMutability": "view",
      "type": "function",
      "constant": true
    },
    {
      "inputs": [],
      "name": "name",
      "outputs": [
        {
          "internalType": "string",
          "name": "",
          "type": "string"
        }
      ],
      "stateMutability": "view",
      "type": "function",
      "constant": true
    },
    {
      "inputs": [
        {
          "internalType": "address",
          "name": "account",
          "type": "address"
        },
        {
          "internalType": "uint256",
          "name": "amount",
          "type": "uint256"
        },
        {
          "internalType": "bytes",
          "name": "data",
          "type": "bytes"
        },
        {
          "internalType": "bytes",
          "name": "operatorData",
          "type": "bytes"
        }
      ],
      "name": "operatorBurn",
      "outputs": [],
      "stateMutability": "nonpayable",
      "type": "function"
    },
    {
      "inputs": [
        {
          "internalType": "address",
          "name": "sender",
          "type": "address"
        },
        {
          "internalType": "address",
          "name": "recipient",
          "type": "address"
        },
        {
          "internalType": "uint256",
          "name": "amount",
          "type": "uint256"
        },
        {
          "internalType": "bytes",
          "name": "data",
          "type": "bytes"
        },
        {
          "internalType": "bytes",
          "name": "operatorData",
          "type": "bytes"
        }
      ],
      "name": "operatorSend",
      "outputs": [],
      "stateMutability": "nonpayable",
      "type": "function"
    },
    {
      "inputs": [],
      "name": "owner",
      "outputs": [
        {
          "internalType": "address",
          "name": "",
          "type": "address"
        }
      ],
      "stateMutability": "view",
      "type": "function",
      "constant": true
    },
    {
      "inputs": [],
      "name": "renounceOwnership",
      "outputs": [],
      "stateMutability": "nonpayable",
      "type": "function"
    },
    {
      "inputs": [
        {
          "internalType": "address",
          "name": "operator",
          "type": "address"
        }
      ],
      "name": "revokeOperator",
      "outputs": [],
      "stateMutability": "nonpayable",
      "type": "function"
    },
    {
      "inputs": [],
      "name": "symbol",
      "outputs": [
        {
          "internalType": "string",
          "name": "",
          "type": "string"
        }
      ],
      "stateMutability": "view",
      "type": "function",
      "constant": true
    },
    {
      "inputs": [],
      "name": "totalSupply",
      "outputs": [
        {
          "internalType": "uint256",
          "name": "",
          "type": "uint256"
        }
      ],
      "stateMutability": "view",
      "type": "function",
      "constant": true
    },
    {
      "inputs": [
        {
          "internalType": "address",
          "name": "holder",
          "type": "address"
        },
        {
          "internalType": "address",
          "name": "recipient",
          "type": "address"
        },
        {
          "internalType": "uint256",
          "name": "amount",
          "type": "uint256"
        }
      ],
      "name": "transferFrom",
      "outputs": [
        {
          "internalType": "bool",
          "name": "",
          "type": "bool"
        }
      ],
      "stateMutability": "nonpayable",
      "type": "function"
    },
    {
      "inputs": [
        {
          "internalType": "address",
          "name": "newOwner",
          "type": "address"
        }
      ],
      "name": "transferOwnership",
      "outputs": [],
      "stateMutability": "nonpayable",
      "type": "function"
    },
    {
      "inputs": [
        {
          "internalType": "address",
          "name": "recipient",
          "type": "address"
        },
        {
          "internalType": "uint256",
          "name": "amount",
          "type": "uint256"
        }
      ],
      "name": "transfer",
      "outputs": [
        {
          "internalType": "bool",
          "name": "",
          "type": "bool"
        }
      ],
      "stateMutability": "nonpayable",
      "type": "function"
    },
    {
      "inputs": [
        {
          "internalType": "address",
          "name": "recipient",
          "type": "address"
        },
        {
          "internalType": "uint256",
          "name": "amount",
          "type": "uint256"
        },
        {
          "internalType": "bytes",
          "name": "data",
          "type": "bytes"
        }
      ],
      "name": "send",
      "outputs": [],
      "stateMutability": "nonpayable",
      "type": "function"
    },
    {
      "inputs": [
        {
          "internalType": "address[]",
          "name": "recipients",
          "type": "address[]"
        },
        {
          "internalType": "uint256[]",
          "name": "amounts",
          "type": "uint256[]"
        },
        {
          "internalType": "uint256[]",
          "name": "lockForSeconds",
          "type": "uint256[]"
        }
      ],
      "name": "airdrop",
      "outputs": [],
      "stateMutability": "nonpayable",
      "type": "function"
    },
    {
      "inputs": [
        {
          "internalType": "address",
          "name": "to",
          "type": "address"
        },
        {
          "internalType": "uint256",
          "name": "amount",
          "type": "uint256"
        },
        {
          "internalType": "uint256",
          "name": "timeToLock",
          "type": "uint256"
        }
      ],
      "name": "sendLocked",
      "outputs": [],
      "stateMutability": "nonpayable",
      "type": "function"
    },
    {
      "inputs": [
        {
          "internalType": "address",
          "name": "to",
          "type": "address"
        },
        {
          "internalType": "uint256",
          "name": "amount",
          "type": "uint256"
        }
      ],
      "name": "removeTokenLock",
      "outputs": [],
      "stateMutability": "nonpayable",
      "type": "function"
    }
  ],
  "bytecode": "0x60806040523480156200001157600080fd5b506040516200509b3803806200509b833981810160405281019062000037919062000b9d565b6040518060400160405280600581526020017f436f7665790000000000000000000000000000000000000000000000000000008152506040518060400160405280600381526020017f4356590000000000000000000000000000000000000000000000000000000000815250828260029080519060200190620000bc92919062000835565b508160039080519060200190620000d592919062000835565b508060049080519060200190620000ee929190620008c6565b5060005b8151811015620001875760016005600084848151811062000118576200011762000c03565b5b602002602001015173ffffffffffffffffffffffffffffffffffffffff1673ffffffffffffffffffffffffffffffffffffffff16815260200190815260200160002060006101000a81548160ff02191690831515021790555080806200017e9062000c61565b915050620000f2565b50731820a4b7618bde71dce8cdc73aab6c95905fad2473ffffffffffffffffffffffffffffffffffffffff166329965a1d307fac7fbab5f54a3ca8194167523c6753bfeb96a445279294b6125b68cce2177054306040518463ffffffff1660e01b8152600401620001fb9392919062000cdb565b600060405180830381600087803b1580156200021657600080fd5b505af11580156200022b573d6000803e3d6000fd5b50505050731820a4b7618bde71dce8cdc73aab6c95905fad2473ffffffffffffffffffffffffffffffffffffffff166329965a1d307faea199e31a596269b42cdafd93407f14436db6e4cad65417994c2eb37381e05a306040518463ffffffff1660e01b8152600401620002a29392919062000cdb565b600060405180830381600087803b158015620002bd57600080fd5b505af1158015620002d2573d6000803e3d6000fd5b50505050505050620002f9620002ed6200033360201b60201c565b6200033b60201b60201c565b6200032b338360405180602001604052806000815250604051806020016040528060008152506200040160201b60201c565b505062001101565b600033905090565b6000600960009054906101000a900473ffffffffffffffffffffffffffffffffffffffff16905081600960006101000a81548173ffffffffffffffffffffffffffffffffffffffff021916908373ffffffffffffffffffffffffffffffffffffffff1602179055508173ffffffffffffffffffffffffffffffffffffffff168173ffffffffffffffffffffffffffffffffffffffff167f8be0079c531659141344cd1fd0a4f28419497f9722a3daafe3b4186f6b6457e060405160405180910390a35050565b620004178484848460016200041d60201b60201c565b50505050565b600073ffffffffffffffffffffffffffffffffffffffff168573ffffffffffffffffffffffffffffffffffffffff16141562000490576040517f08c379a0000000000000000000000000000000000000000000000000000000008152600401620004879062000d79565b60405180910390fd5b6000620004a26200033360201b60201c565b9050620004b981600088886200061e60201b60201c565b8460016000828254620004cd919062000d9b565b92505081905550846000808873ffffffffffffffffffffffffffffffffffffffff1673ffffffffffffffffffffffffffffffffffffffff168152602001908152602001600020600082825462000524919062000d9b565b925050819055506200054381600088888888886200062460201b60201c565b8573ffffffffffffffffffffffffffffffffffffffff168173ffffffffffffffffffffffffffffffffffffffff167f2fe5be0146f74c5bce36c0b80911af6c7d86ff27e89d5cfa61fc681327954e5d878787604051620005a69392919062000e9c565b60405180910390a38573ffffffffffffffffffffffffffffffffffffffff16600073ffffffffffffffffffffffffffffffffffffffff167fddf252ad1be2c89b69c2b068fc378daa952ba7f163c4a11628f55a4df523b3ef876040516200060e919062000ee7565b60405180910390a3505050505050565b50505050565b6000731820a4b7618bde71dce8cdc73aab6c95905fad2473ffffffffffffffffffffffffffffffffffffffff1663aabbb8ca877fb281fc8c12954d22544db45de3159a39272895b169a852b314f9cc762e44c53b6040518363ffffffff1660e01b81526004016200069792919062000f04565b602060405180830381865afa158015620006b5573d6000803e3d6000fd5b505050506040513d601f19601f82011682018060405250810190620006db919062000f31565b9050600073ffffffffffffffffffffffffffffffffffffffff168173ffffffffffffffffffffffffffffffffffffffff161462000790578073ffffffffffffffffffffffffffffffffffffffff166223de298989898989896040518763ffffffff1660e01b8152600401620007569695949392919062000f63565b600060405180830381600087803b1580156200077157600080fd5b505af115801562000786573d6000803e3d6000fd5b5050505062000808565b81156200080757620007c38673ffffffffffffffffffffffffffffffffffffffff166200081260201b62001aa81760201c565b1562000806576040517f08c379a0000000000000000000000000000000000000000000000000000000008152600401620007fd906200107a565b60405180910390fd5b5b5b5050505050505050565b6000808273ffffffffffffffffffffffffffffffffffffffff163b119050919050565b8280546200084390620010cb565b90600052602060002090601f016020900481019282620008675760008555620008b3565b82601f106200088257805160ff1916838001178555620008b3565b82800160010185558215620008b3579182015b82811115620008b257825182559160200191906001019062000895565b5b509050620008c2919062000955565b5090565b82805482825590600052602060002090810192821562000942579160200282015b82811115620009415782518260006101000a81548173ffffffffffffffffffffffffffffffffffffffff021916908373ffffffffffffffffffffffffffffffffffffffff16021790555091602001919060010190620008e7565b5b50905062000951919062000955565b5090565b5b808211156200097057600081600090555060010162000956565b5090565b6000604051905090565b600080fd5b600080fd5b6000819050919050565b6200099d8162000988565b8114620009a957600080fd5b50565b600081519050620009bd8162000992565b92915050565b600080fd5b6000601f19601f8301169050919050565b7f4e487b7100000000000000000000000000000000000000000000000000000000600052604160045260246000fd5b62000a1382620009c8565b810181811067ffffffffffffffff8211171562000a355762000a34620009d9565b5b80604052505050565b600062000a4a62000974565b905062000a58828262000a08565b919050565b600067ffffffffffffffff82111562000a7b5762000a7a620009d9565b5b602082029050602081019050919050565b600080fd5b600073ffffffffffffffffffffffffffffffffffffffff82169050919050565b600062000abe8262000a91565b9050919050565b62000ad08162000ab1565b811462000adc57600080fd5b50565b60008151905062000af08162000ac5565b92915050565b600062000b0d62000b078462000a5d565b62000a3e565b9050808382526020820190506020840283018581111562000b335762000b3262000a8c565b5b835b8181101562000b60578062000b4b888262000adf565b84526020840193505060208101905062000b35565b5050509392505050565b600082601f83011262000b825762000b81620009c3565b5b815162000b9484826020860162000af6565b91505092915050565b6000806040838503121562000bb75762000bb66200097e565b5b600062000bc785828601620009ac565b925050602083015167ffffffffffffffff81111562000beb5762000bea62000983565b5b62000bf98582860162000b6a565b9150509250929050565b7f4e487b7100000000000000000000000000000000000000000000000000000000600052603260045260246000fd5b7f4e487b7100000000000000000000000000000000000000000000000000000000600052601160045260246000fd5b600062000c6e8262000988565b91507fffffffffffffffffffffffffffffffffffffffffffffffffffffffffffffffff82141562000ca45762000ca362000c32565b5b600182019050919050565b62000cba8162000ab1565b82525050565b6000819050919050565b62000cd58162000cc0565b82525050565b600060608201905062000cf2600083018662000caf565b62000d01602083018562000cca565b62000d10604083018462000caf565b949350505050565b600082825260208201905092915050565b7f4552433737373a206d696e7420746f20746865207a65726f2061646472657373600082015250565b600062000d6160208362000d18565b915062000d6e8262000d29565b602082019050919050565b6000602082019050818103600083015262000d948162000d52565b9050919050565b600062000da88262000988565b915062000db58362000988565b9250827fffffffffffffffffffffffffffffffffffffffffffffffffffffffffffffffff0382111562000ded5762000dec62000c32565b5b828201905092915050565b62000e038162000988565b82525050565b600081519050919050565b600082825260208201905092915050565b60005b8381101562000e4557808201518184015260208101905062000e28565b8381111562000e55576000848401525b50505050565b600062000e688262000e09565b62000e74818562000e14565b935062000e8681856020860162000e25565b62000e9181620009c8565b840191505092915050565b600060608201905062000eb3600083018662000df8565b818103602083015262000ec7818562000e5b565b9050818103604083015262000edd818462000e5b565b9050949350505050565b600060208201905062000efe600083018462000df8565b92915050565b600060408201905062000f1b600083018562000caf565b62000f2a602083018462000cca565b9392505050565b60006020828403121562000f4a5762000f496200097e565b5b600062000f5a8482850162000adf565b91505092915050565b600060c08201905062000f7a600083018962000caf565b62000f89602083018862000caf565b62000f98604083018762000caf565b62000fa7606083018662000df8565b818103608083015262000fbb818562000e5b565b905081810360a083015262000fd1818462000e5b565b9050979650505050505050565b7f4552433737373a20746f6b656e20726563697069656e7420636f6e747261637460008201527f20686173206e6f20696d706c656d656e74657220666f7220455243373737546f60208201527f6b656e73526563697069656e7400000000000000000000000000000000000000604082015250565b600062001062604d8362000d18565b91506200106f8262000fde565b606082019050919050565b60006020820190508181036000830152620010958162001053565b9050919050565b7f4e487b7100000000000000000000000000000000000000000000000000000000600052602260045260246000fd5b60006002820490506001821680620010e457607f821691505b60208210811415620010fb57620010fa6200109c565b5b50919050565b613f8a80620011116000396000f3fe608060405234801561001057600080fd5b50600436106101585760003560e01c80637e25414e116100c3578063d95b63711161007c578063d95b6371146103a1578063dd62ed3e146103d1578063f2fde38b14610401578063fad8b32a1461041d578063fc673c4f14610439578063fe9d93031461045557610158565b80637e25414e146102e15780638da5cb5b146102fd578063959b8c3f1461031b57806395d89b41146103375780639bd9bbc614610355578063a9059cbb1461037157610158565b806323b872dd1161011557806323b872dd1461021f578063313ce5671461024f578063556f0dc71461026d57806362ad1b831461028b57806370a08231146102a7578063715018a6146102d757610158565b806303ac338e1461015d57806306e485381461017957806306fdde0314610197578063095ea7b3146101b557806318160ddd146101e55780631bf2907b14610203575b600080fd5b6101776004803603810190610172919061289c565b610471565b005b6101816105b5565b60405161018e919061299a565b60405180910390f35b61019f610643565b6040516101ac9190612a55565b60405180910390f35b6101cf60048036038101906101ca919061289c565b6106d5565b6040516101dc9190612a92565b60405180910390f35b6101ed6106f8565b6040516101fa9190612abc565b60405180910390f35b61021d60048036038101906102189190612ce2565b610702565b005b61023960048036038101906102349190612d89565b6108b1565b6040516102469190612a92565b60405180910390f35b610257610a3b565b6040516102649190612df8565b60405180910390f35b610275610a44565b6040516102829190612abc565b60405180910390f35b6102a560048036038101906102a09190612ec8565b610a4d565b005b6102c160048036038101906102bc9190612f7b565b610ab3565b6040516102ce9190612abc565b60405180910390f35b6102df610afb565b005b6102fb60048036038101906102f69190612fa8565b610b83565b005b610305610d30565b604051610312919061300a565b60405180910390f35b61033560048036038101906103309190612f7b565b610d5a565b005b61033f610fbb565b60405161034c9190612a55565b60405180910390f35b61036f600480360381019061036a9190613025565b61104d565b005b61038b6004803603810190610386919061289c565b611210565b6040516103989190612a92565b60405180910390f35b6103bb60048036038101906103b69190613094565b61148f565b6040516103c89190612a92565b60405180910390f35b6103eb60048036038101906103e69190613094565b611640565b6040516103f89190612abc565b60405180910390f35b61041b60048036038101906104169190612f7b565b6116c7565b005b61043760048036038101906104329190612f7b565b6117bf565b005b610453600480360381019061044e91906130d4565b611a20565b005b61046f600480360381019061046a9190613173565b611a82565b005b610479611acb565b73ffffffffffffffffffffffffffffffffffffffff16610497610d30565b73ffffffffffffffffffffffffffffffffffffffff16146104ed576040517f08c379a00000000000000000000000000000000000000000000000000000000081526004016104e49061321b565b60405180910390fd5b6000600a60008473ffffffffffffffffffffffffffffffffffffffff1673ffffffffffffffffffffffffffffffffffffffff16815260200190815260200160002054146105b157600a60008373ffffffffffffffffffffffffffffffffffffffff1673ffffffffffffffffffffffffffffffffffffffff168152602001908152602001600020600090557fc7798891864187665ac6dd119286e44ec13f014527aeeb2b8eb3fd413df9317982826040516105a892919061323b565b60405180910390a15b5050565b6060600480548060200260200160405190810160405280929190818152602001828054801561063957602002820191906000526020600020905b8160009054906101000a900473ffffffffffffffffffffffffffffffffffffffff1673ffffffffffffffffffffffffffffffffffffffff16815260200190600101908083116105ef575b5050505050905090565b60606002805461065290613293565b80601f016020809104026020016040519081016040528092919081815260200182805461067e90613293565b80156106cb5780601f106106a0576101008083540402835291602001916106cb565b820191906000526020600020905b8154815290600101906020018083116106ae57829003601f168201915b5050505050905090565b6000806106e0611acb565b90506106ed818585611ad3565b600191505092915050565b6000600154905090565b61070a611acb565b73ffffffffffffffffffffffffffffffffffffffff16610728610d30565b73ffffffffffffffffffffffffffffffffffffffff161461077e576040517f08c379a00000000000000000000000000000000000000000000000000000000081526004016107759061321b565b60405180910390fd5b60005b83518110156108ab576000670de0b6b3a76400008483815181106107a8576107a76132c5565b5b60200260200101516107ba9190613323565b905060008383815181106107d1576107d06132c5565b5b60200260200101511461083c576108378583815181106107f4576107f36132c5565b5b602002602001015185848151811061080f5761080e6132c5565b5b602002602001015185858151811061082a576108296132c5565b5b6020026020010151610b83565b610897565b610896858381518110610852576108516132c5565b5b6020026020010151826040518060400160405280600d81526020017f436f7665792041697264726f700000000000000000000000000000000000000081525061104d565b5b5080806108a39061337d565b915050610781565b50505050565b60008073ffffffffffffffffffffffffffffffffffffffff168373ffffffffffffffffffffffffffffffffffffffff161415610922576040517f08c379a000000000000000000000000000000000000000000000000000000000815260040161091990613438565b60405180910390fd5b600073ffffffffffffffffffffffffffffffffffffffff168473ffffffffffffffffffffffffffffffffffffffff161415610992576040517f08c379a0000000000000000000000000000000000000000000000000000000008152600401610989906134ca565b60405180910390fd5b600061099c611acb565b90506109ca818686866040518060200160405280600081525060405180602001604052806000815250611c9e565b6109d5858285611e05565b610a01818686866040518060200160405280600081525060405180602001604052806000815250611e91565b610a2f81868686604051806020016040528060008152506040518060200160405280600081525060006120ab565b60019150509392505050565b60006012905090565b60006001905090565b610a5e610a58611acb565b8661148f565b610a9d576040517f08c379a0000000000000000000000000000000000000000000000000000000008152600401610a949061355c565b60405180910390fd5b610aac8585858585600161227d565b5050505050565b60008060008373ffffffffffffffffffffffffffffffffffffffff1673ffffffffffffffffffffffffffffffffffffffff168152602001908152602001600020549050919050565b610b03611acb565b73ffffffffffffffffffffffffffffffffffffffff16610b21610d30565b73ffffffffffffffffffffffffffffffffffffffff1614610b77576040517f08c379a0000000000000000000000000000000000000000000000000000000008152600401610b6e9061321b565b60405180910390fd5b610b81600061239d565b565b610b8b611acb565b73ffffffffffffffffffffffffffffffffffffffff16610ba9610d30565b73ffffffffffffffffffffffffffffffffffffffff1614610bff576040517f08c379a0000000000000000000000000000000000000000000000000000000008152600401610bf69061321b565b60405180910390fd5b60008111610c42576040517f08c379a0000000000000000000000000000000000000000000000000000000008152600401610c39906135c8565b60405180910390fd5b60008142610c5091906135e8565b905080600a60008673ffffffffffffffffffffffffffffffffffffffff1673ffffffffffffffffffffffffffffffffffffffff168152602001908152602001600020819055506000670de0b6b3a764000084610cac9190613323565b9050610cee85826040518060400160405280600d81526020017f4c6f636b656420546f6b656e730000000000000000000000000000000000000081525061104d565b7f7ca69bc5f49091c7e66715c2162e0791b73bab693d9c11b972e43fdfeaabdf0b858284604051610d219392919061363e565b60405180910390a15050505050565b6000600960009054906101000a900473ffffffffffffffffffffffffffffffffffffffff16905090565b8073ffffffffffffffffffffffffffffffffffffffff16610d79611acb565b73ffffffffffffffffffffffffffffffffffffffff161415610dd0576040517f08c379a0000000000000000000000000000000000000000000000000000000008152600401610dc7906136e7565b60405180910390fd5b600560008273ffffffffffffffffffffffffffffffffffffffff1673ffffffffffffffffffffffffffffffffffffffff16815260200190815260200160002060009054906101000a900460ff1615610eba5760076000610e2e611acb565b73ffffffffffffffffffffffffffffffffffffffff1673ffffffffffffffffffffffffffffffffffffffff16815260200190815260200160002060008273ffffffffffffffffffffffffffffffffffffffff1673ffffffffffffffffffffffffffffffffffffffff16815260200190815260200160002060006101000a81549060ff0219169055610f57565b600160066000610ec8611acb565b73ffffffffffffffffffffffffffffffffffffffff1673ffffffffffffffffffffffffffffffffffffffff16815260200190815260200160002060008373ffffffffffffffffffffffffffffffffffffffff1673ffffffffffffffffffffffffffffffffffffffff16815260200190815260200160002060006101000a81548160ff0219169083151502179055505b610f5f611acb565b73ffffffffffffffffffffffffffffffffffffffff168173ffffffffffffffffffffffffffffffffffffffff167ff4caeb2d6ca8932a215a353d0703c326ec2d81fc68170f320eb2ab49e9df61f960405160405180910390a350565b606060038054610fca90613293565b80601f0160208091040260200160405190810160405280929190818152602001828054610ff690613293565b80156110435780601f1061101857610100808354040283529160200191611043565b820191906000526020600020905b81548152906001019060200180831161102657829003601f168201915b5050505050905090565b6000600a60003373ffffffffffffffffffffffffffffffffffffffff1673ffffffffffffffffffffffffffffffffffffffff16815260200190815260200160002054141580156110db5750600a60003373ffffffffffffffffffffffffffffffffffffffff1673ffffffffffffffffffffffffffffffffffffffff1681526020019081526020016000205442105b1561116257600a60003373ffffffffffffffffffffffffffffffffffffffff1673ffffffffffffffffffffffffffffffffffffffff168152602001908152602001600020544211611161576040517f08c379a000000000000000000000000000000000000000000000000000000000815260040161115890613753565b60405180910390fd5b5b600a60003373ffffffffffffffffffffffffffffffffffffffff1673ffffffffffffffffffffffffffffffffffffffff16815260200190815260200160002054421180156111f057506000600a60003373ffffffffffffffffffffffffffffffffffffffff1673ffffffffffffffffffffffffffffffffffffffff1681526020019081526020016000205414155b15611200576111ff3383610471565b5b61120b838383612463565b505050565b600080600a60003373ffffffffffffffffffffffffffffffffffffffff1673ffffffffffffffffffffffffffffffffffffffff168152602001908152602001600020541415801561129f5750600a60003373ffffffffffffffffffffffffffffffffffffffff1673ffffffffffffffffffffffffffffffffffffffff1681526020019081526020016000205442105b1561132657600a60003373ffffffffffffffffffffffffffffffffffffffff1673ffffffffffffffffffffffffffffffffffffffff168152602001908152602001600020544211611325576040517f08c379a000000000000000000000000000000000000000000000000000000000815260040161131c90613753565b60405180910390fd5b5b600a60003373ffffffffffffffffffffffffffffffffffffffff1673ffffffffffffffffffffffffffffffffffffffff16815260200190815260200160002054421180156113b457506000600a60003373ffffffffffffffffffffffffffffffffffffffff1673ffffffffffffffffffffffffffffffffffffffff1681526020019081526020016000205414155b1561147e576000600a60003373ffffffffffffffffffffffffffffffffffffffff1673ffffffffffffffffffffffffffffffffffffffff168152602001908152602001600020541461147d57600a60003373ffffffffffffffffffffffffffffffffffffffff1673ffffffffffffffffffffffffffffffffffffffff168152602001908152602001600020600090557fc7798891864187665ac6dd119286e44ec13f014527aeeb2b8eb3fd413df93179338360405161147492919061323b565b60405180910390a15b5b611488838361248d565b5092915050565b60008173ffffffffffffffffffffffffffffffffffffffff168373ffffffffffffffffffffffffffffffffffffffff1614806115a75750600560008473ffffffffffffffffffffffffffffffffffffffff1673ffffffffffffffffffffffffffffffffffffffff16815260200190815260200160002060009054906101000a900460ff1680156115a65750600760008373ffffffffffffffffffffffffffffffffffffffff1673ffffffffffffffffffffffffffffffffffffffff16815260200190815260200160002060008473ffffffffffffffffffffffffffffffffffffffff1673ffffffffffffffffffffffffffffffffffffffff16815260200190815260200160002060009054906101000a900460ff16155b5b806116385750600660008373ffffffffffffffffffffffffffffffffffffffff1673ffffffffffffffffffffffffffffffffffffffff16815260200190815260200160002060008473ffffffffffffffffffffffffffffffffffffffff1673ffffffffffffffffffffffffffffffffffffffff16815260200190815260200160002060009054906101000a900460ff165b905092915050565b6000600860008473ffffffffffffffffffffffffffffffffffffffff1673ffffffffffffffffffffffffffffffffffffffff16815260200190815260200160002060008373ffffffffffffffffffffffffffffffffffffffff1673ffffffffffffffffffffffffffffffffffffffff16815260200190815260200160002054905092915050565b6116cf611acb565b73ffffffffffffffffffffffffffffffffffffffff166116ed610d30565b73ffffffffffffffffffffffffffffffffffffffff1614611743576040517f08c379a000000000000000000000000000000000000000000000000000000000815260040161173a9061321b565b60405180910390fd5b600073ffffffffffffffffffffffffffffffffffffffff168173ffffffffffffffffffffffffffffffffffffffff1614156117b3576040517f08c379a00000000000000000000000000000000000000000000000000000000081526004016117aa906137e5565b60405180910390fd5b6117bc8161239d565b50565b6117c7611acb565b73ffffffffffffffffffffffffffffffffffffffff168173ffffffffffffffffffffffffffffffffffffffff161415611835576040517f08c379a000000000000000000000000000000000000000000000000000000000815260040161182c90613877565b60405180910390fd5b600560008273ffffffffffffffffffffffffffffffffffffffff1673ffffffffffffffffffffffffffffffffffffffff16815260200190815260200160002060009054906101000a900460ff161561192857600160076000611895611acb565b73ffffffffffffffffffffffffffffffffffffffff1673ffffffffffffffffffffffffffffffffffffffff16815260200190815260200160002060008373ffffffffffffffffffffffffffffffffffffffff1673ffffffffffffffffffffffffffffffffffffffff16815260200190815260200160002060006101000a81548160ff0219169083151502179055506119bc565b60066000611934611acb565b73ffffffffffffffffffffffffffffffffffffffff1673ffffffffffffffffffffffffffffffffffffffff16815260200190815260200160002060008273ffffffffffffffffffffffffffffffffffffffff1673ffffffffffffffffffffffffffffffffffffffff16815260200190815260200160002060006101000a81549060ff02191690555b6119c4611acb565b73ffffffffffffffffffffffffffffffffffffffff168173ffffffffffffffffffffffffffffffffffffffff167f50546e66e5f44d728365dc3908c63bc5cfeeab470722c1677e3073a6ac294aa160405160405180910390a350565b611a31611a2b611acb565b8561148f565b611a70576040517f08c379a0000000000000000000000000000000000000000000000000000000008152600401611a679061355c565b60405180910390fd5b611a7c8484848461259b565b50505050565b611aa4611a8d611acb565b83836040518060200160405280600081525061259b565b5050565b6000808273ffffffffffffffffffffffffffffffffffffffff163b119050919050565b600033905090565b600073ffffffffffffffffffffffffffffffffffffffff168373ffffffffffffffffffffffffffffffffffffffff161415611b43576040517f08c379a0000000000000000000000000000000000000000000000000000000008152600401611b3a90613909565b60405180910390fd5b600073ffffffffffffffffffffffffffffffffffffffff168273ffffffffffffffffffffffffffffffffffffffff161415611bb3576040517f08c379a0000000000000000000000000000000000000000000000000000000008152600401611baa9061399b565b60405180910390fd5b80600860008573ffffffffffffffffffffffffffffffffffffffff1673ffffffffffffffffffffffffffffffffffffffff16815260200190815260200160002060008473ffffffffffffffffffffffffffffffffffffffff1673ffffffffffffffffffffffffffffffffffffffff168152602001908152602001600020819055508173ffffffffffffffffffffffffffffffffffffffff168373ffffffffffffffffffffffffffffffffffffffff167f8c5be1e5ebec7d5bd14f71427d1e84f3dd0314c0f7b2291e5b200ac8c7c3b92583604051611c919190612abc565b60405180910390a3505050565b6000731820a4b7618bde71dce8cdc73aab6c95905fad2473ffffffffffffffffffffffffffffffffffffffff1663aabbb8ca877f29ddb589b1fb5fc7cf394961c1adf5f8c6454761adf795e67fe149f658abe8956040518363ffffffff1660e01b8152600401611d0f9291906139d4565b602060405180830381865afa158015611d2c573d6000803e3d6000fd5b505050506040513d601f19601f82011682018060405250810190611d509190613a12565b9050600073ffffffffffffffffffffffffffffffffffffffff168173ffffffffffffffffffffffffffffffffffffffff1614611dfc578073ffffffffffffffffffffffffffffffffffffffff166375ab97828888888888886040518763ffffffff1660e01b8152600401611dc996959493929190613a94565b600060405180830381600087803b158015611de357600080fd5b505af1158015611df7573d6000803e3d6000fd5b505050505b50505050505050565b6000611e118484611640565b90507fffffffffffffffffffffffffffffffffffffffffffffffffffffffffffffffff8114611e8b5781811015611e7d576040517f08c379a0000000000000000000000000000000000000000000000000000000008152600401611e7490613b4f565b60405180910390fd5b611e8a8484848403611ad3565b5b50505050565b611e9d868686866127ee565b60008060008773ffffffffffffffffffffffffffffffffffffffff1673ffffffffffffffffffffffffffffffffffffffff16815260200190815260200160002054905083811015611f23576040517f08c379a0000000000000000000000000000000000000000000000000000000008152600401611f1a90613be1565b60405180910390fd5b8381036000808873ffffffffffffffffffffffffffffffffffffffff1673ffffffffffffffffffffffffffffffffffffffff16815260200190815260200160002081905550836000808773ffffffffffffffffffffffffffffffffffffffff1673ffffffffffffffffffffffffffffffffffffffff1681526020019081526020016000206000828254611fb691906135e8565b925050819055508473ffffffffffffffffffffffffffffffffffffffff168673ffffffffffffffffffffffffffffffffffffffff168873ffffffffffffffffffffffffffffffffffffffff167f06b541ddaa720db2b10a4d0cdac39b8d360425fc073085fac19bc8261467798787878760405161203593929190613c01565b60405180910390a48473ffffffffffffffffffffffffffffffffffffffff168673ffffffffffffffffffffffffffffffffffffffff167fddf252ad1be2c89b69c2b068fc378daa952ba7f163c4a11628f55a4df523b3ef8660405161209a9190612abc565b60405180910390a350505050505050565b6000731820a4b7618bde71dce8cdc73aab6c95905fad2473ffffffffffffffffffffffffffffffffffffffff1663aabbb8ca877fb281fc8c12954d22544db45de3159a39272895b169a852b314f9cc762e44c53b6040518363ffffffff1660e01b815260040161211c9291906139d4565b602060405180830381865afa158015612139573d6000803e3d6000fd5b505050506040513d601f19601f8201168201806040525081019061215d9190613a12565b9050600073ffffffffffffffffffffffffffffffffffffffff168173ffffffffffffffffffffffffffffffffffffffff161461220c578073ffffffffffffffffffffffffffffffffffffffff166223de298989898989896040518763ffffffff1660e01b81526004016121d596959493929190613a94565b600060405180830381600087803b1580156121ef57600080fd5b505af1158015612203573d6000803e3d6000fd5b50505050612273565b8115612272576122318673ffffffffffffffffffffffffffffffffffffffff16611aa8565b15612271576040517f08c379a000000000000000000000000000000000000000000000000000000000815260040161226890613cde565b60405180910390fd5b5b5b5050505050505050565b600073ffffffffffffffffffffffffffffffffffffffff168673ffffffffffffffffffffffffffffffffffffffff1614156122ed576040517f08c379a00000000000000000000000000000000000000000000000000000000081526004016122e490613d70565b60405180910390fd5b600073ffffffffffffffffffffffffffffffffffffffff168573ffffffffffffffffffffffffffffffffffffffff16141561235d576040517f08c379a000000000000000000000000000000000000000000000000000000000815260040161235490613ddc565b60405180910390fd5b6000612367611acb565b9050612377818888888888611c9e565b612385818888888888611e91565b612394818888888888886120ab565b50505050505050565b6000600960009054906101000a900473ffffffffffffffffffffffffffffffffffffffff16905081600960006101000a81548173ffffffffffffffffffffffffffffffffffffffff021916908373ffffffffffffffffffffffffffffffffffffffff1602179055508173ffffffffffffffffffffffffffffffffffffffff168173ffffffffffffffffffffffffffffffffffffffff167f8be0079c531659141344cd1fd0a4f28419497f9722a3daafe3b4186f6b6457e060405160405180910390a35050565b61248861246e611acb565b84848460405180602001604052806000815250600161227d565b505050565b60008073ffffffffffffffffffffffffffffffffffffffff168373ffffffffffffffffffffffffffffffffffffffff1614156124fe576040517f08c379a00000000000000000000000000000000000000000000000000000000081526004016124f590613438565b60405180910390fd5b6000612508611acb565b9050612536818286866040518060200160405280600081525060405180602001604052806000815250611c9e565b612562818286866040518060200160405280600081525060405180602001604052806000815250611e91565b61259081828686604051806020016040528060008152506040518060200160405280600081525060006120ab565b600191505092915050565b600073ffffffffffffffffffffffffffffffffffffffff168473ffffffffffffffffffffffffffffffffffffffff16141561260b576040517f08c379a000000000000000000000000000000000000000000000000000000000815260040161260290613e6e565b60405180910390fd5b6000612615611acb565b905061262681866000878787611c9e565b61263381866000876127ee565b60008060008773ffffffffffffffffffffffffffffffffffffffff1673ffffffffffffffffffffffffffffffffffffffff168152602001908152602001600020549050848110156126b9576040517f08c379a00000000000000000000000000000000000000000000000000000000081526004016126b090613f00565b60405180910390fd5b8481036000808873ffffffffffffffffffffffffffffffffffffffff1673ffffffffffffffffffffffffffffffffffffffff1681526020019081526020016000208190555084600160008282546127109190613f20565b925050819055508573ffffffffffffffffffffffffffffffffffffffff168273ffffffffffffffffffffffffffffffffffffffff167fa78a9be3a7b862d26933ad85fb11d80ef66b8f972d7cbba06621d583943a409887878760405161277893929190613c01565b60405180910390a3600073ffffffffffffffffffffffffffffffffffffffff168673ffffffffffffffffffffffffffffffffffffffff167fddf252ad1be2c89b69c2b068fc378daa952ba7f163c4a11628f55a4df523b3ef876040516127de9190612abc565b60405180910390a3505050505050565b50505050565b6000604051905090565b600080fd5b600080fd5b600073ffffffffffffffffffffffffffffffffffffffff82169050919050565b600061283382612808565b9050919050565b61284381612828565b811461284e57600080fd5b50565b6000813590506128608161283a565b92915050565b6000819050919050565b61287981612866565b811461288457600080fd5b50565b60008135905061289681612870565b92915050565b600080604083850312156128b3576128b26127fe565b5b60006128c185828601612851565b92505060206128d285828601612887565b9150509250929050565b600081519050919050565b600082825260208201905092915050565b6000819050602082019050919050565b61291181612828565b82525050565b60006129238383612908565b60208301905092915050565b6000602082019050919050565b6000612947826128dc565b61295181856128e7565b935061295c836128f8565b8060005b8381101561298d5781516129748882612917565b975061297f8361292f565b925050600181019050612960565b5085935050505092915050565b600060208201905081810360008301526129b4818461293c565b905092915050565b600081519050919050565b600082825260208201905092915050565b60005b838110156129f65780820151818401526020810190506129db565b83811115612a05576000848401525b50505050565b6000601f19601f8301169050919050565b6000612a27826129bc565b612a3181856129c7565b9350612a418185602086016129d8565b612a4a81612a0b565b840191505092915050565b60006020820190508181036000830152612a6f8184612a1c565b905092915050565b60008115159050919050565b612a8c81612a77565b82525050565b6000602082019050612aa76000830184612a83565b92915050565b612ab681612866565b82525050565b6000602082019050612ad16000830184612aad565b92915050565b600080fd5b7f4e487b7100000000000000000000000000000000000000000000000000000000600052604160045260246000fd5b612b1482612a0b565b810181811067ffffffffffffffff82111715612b3357612b32612adc565b5b80604052505050565b6000612b466127f4565b9050612b528282612b0b565b919050565b600067ffffffffffffffff821115612b7257612b71612adc565b5b602082029050602081019050919050565b600080fd5b6000612b9b612b9684612b57565b612b3c565b90508083825260208201905060208402830185811115612bbe57612bbd612b83565b5b835b81811015612be75780612bd38882612851565b845260208401935050602081019050612bc0565b5050509392505050565b600082601f830112612c0657612c05612ad7565b5b8135612c16848260208601612b88565b91505092915050565b600067ffffffffffffffff821115612c3a57612c39612adc565b5b602082029050602081019050919050565b6000612c5e612c5984612c1f565b612b3c565b90508083825260208201905060208402830185811115612c8157612c80612b83565b5b835b81811015612caa5780612c968882612887565b845260208401935050602081019050612c83565b5050509392505050565b600082601f830112612cc957612cc8612ad7565b5b8135612cd9848260208601612c4b565b91505092915050565b600080600060608486031215612cfb57612cfa6127fe565b5b600084013567ffffffffffffffff811115612d1957612d18612803565b5b612d2586828701612bf1565b935050602084013567ffffffffffffffff811115612d4657612d45612803565b5b612d5286828701612cb4565b925050604084013567ffffffffffffffff811115612d7357612d72612803565b5b612d7f86828701612cb4565b9150509250925092565b600080600060608486031215612da257612da16127fe565b5b6000612db086828701612851565b9350506020612dc186828701612851565b9250506040612dd286828701612887565b9150509250925092565b600060ff82169050919050565b612df281612ddc565b82525050565b6000602082019050612e0d6000830184612de9565b92915050565b600080fd5b600067ffffffffffffffff821115612e3357612e32612adc565b5b612e3c82612a0b565b9050602081019050919050565b82818337600083830152505050565b6000612e6b612e6684612e18565b612b3c565b905082815260208101848484011115612e8757612e86612e13565b5b612e92848285612e49565b509392505050565b600082601f830112612eaf57612eae612ad7565b5b8135612ebf848260208601612e58565b91505092915050565b600080600080600060a08688031215612ee457612ee36127fe565b5b6000612ef288828901612851565b9550506020612f0388828901612851565b9450506040612f1488828901612887565b935050606086013567ffffffffffffffff811115612f3557612f34612803565b5b612f4188828901612e9a565b925050608086013567ffffffffffffffff811115612f6257612f61612803565b5b612f6e88828901612e9a565b9150509295509295909350565b600060208284031215612f9157612f906127fe565b5b6000612f9f84828501612851565b91505092915050565b600080600060608486031215612fc157612fc06127fe565b5b6000612fcf86828701612851565b9350506020612fe086828701612887565b9250506040612ff186828701612887565b9150509250925092565b61300481612828565b82525050565b600060208201905061301f6000830184612ffb565b92915050565b60008060006060848603121561303e5761303d6127fe565b5b600061304c86828701612851565b935050602061305d86828701612887565b925050604084013567ffffffffffffffff81111561307e5761307d612803565b5b61308a86828701612e9a565b9150509250925092565b600080604083850312156130ab576130aa6127fe565b5b60006130b985828601612851565b92505060206130ca85828601612851565b9150509250929050565b600080600080608085870312156130ee576130ed6127fe565b5b60006130fc87828801612851565b945050602061310d87828801612887565b935050604085013567ffffffffffffffff81111561312e5761312d612803565b5b61313a87828801612e9a565b925050606085013567ffffffffffffffff81111561315b5761315a612803565b5b61316787828801612e9a565b91505092959194509250565b6000806040838503121561318a576131896127fe565b5b600061319885828601612887565b925050602083013567ffffffffffffffff8111156131b9576131b8612803565b5b6131c585828601612e9a565b9150509250929050565b7f4f776e61626c653a2063616c6c6572206973206e6f7420746865206f776e6572600082015250565b60006132056020836129c7565b9150613210826131cf565b602082019050919050565b60006020820190508181036000830152613234816131f8565b9050919050565b60006040820190506132506000830185612ffb565b61325d6020830184612aad565b9392505050565b7f4e487b7100000000000000000000000000000000000000000000000000000000600052602260045260246000fd5b600060028204905060018216806132ab57607f821691505b602082108114156132bf576132be613264565b5b50919050565b7f4e487b7100000000000000000000000000000000000000000000000000000000600052603260045260246000fd5b7f4e487b7100000000000000000000000000000000000000000000000000000000600052601160045260246000fd5b600061332e82612866565b915061333983612866565b9250817fffffffffffffffffffffffffffffffffffffffffffffffffffffffffffffffff0483118215151615613372576133716132f4565b5b828202905092915050565b600061338882612866565b91507fffffffffffffffffffffffffffffffffffffffffffffffffffffffffffffffff8214156133bb576133ba6132f4565b5b600182019050919050565b7f4552433737373a207472616e7366657220746f20746865207a65726f2061646460008201527f7265737300000000000000000000000000000000000000000000000000000000602082015250565b60006134226024836129c7565b915061342d826133c6565b604082019050919050565b6000602082019050818103600083015261345181613415565b9050919050565b7f4552433737373a207472616e736665722066726f6d20746865207a65726f206160008201527f6464726573730000000000000000000000000000000000000000000000000000602082015250565b60006134b46026836129c7565b91506134bf82613458565b604082019050919050565b600060208201905081810360008301526134e3816134a7565b9050919050565b7f4552433737373a2063616c6c6572206973206e6f7420616e206f70657261746f60008201527f7220666f7220686f6c6465720000000000000000000000000000000000000000602082015250565b6000613546602c836129c7565b9150613551826134ea565b604082019050919050565b6000602082019050818103600083015261357581613539565b9050919050565b7f54696d6520746f206c6f636b206d757374206265206d6f7265207468616e2030600082015250565b60006135b26020836129c7565b91506135bd8261357c565b602082019050919050565b600060208201905081810360008301526135e1816135a5565b9050919050565b60006135f382612866565b91506135fe83612866565b9250827fffffffffffffffffffffffffffffffffffffffffffffffffffffffffffffffff03821115613633576136326132f4565b5b828201905092915050565b60006060820190506136536000830186612ffb565b6136606020830185612aad565b61366d6040830184612aad565b949350505050565b7f4552433737373a20617574686f72697a696e672073656c66206173206f70657260008201527f61746f7200000000000000000000000000000000000000000000000000000000602082015250565b60006136d16024836129c7565b91506136dc82613675565b604082019050919050565b60006020820190508181036000830152613700816136c4565b9050919050565b7f546f6b656e7320686176652079657420746f2072656c65617365000000000000600082015250565b600061373d601a836129c7565b915061374882613707565b602082019050919050565b6000602082019050818103600083015261376c81613730565b9050919050565b7f4f776e61626c653a206e6577206f776e657220697320746865207a65726f206160008201527f6464726573730000000000000000000000000000000000000000000000000000602082015250565b60006137cf6026836129c7565b91506137da82613773565b604082019050919050565b600060208201905081810360008301526137fe816137c2565b9050919050565b7f4552433737373a207265766f6b696e672073656c66206173206f70657261746f60008201527f7200000000000000000000000000000000000000000000000000000000000000602082015250565b60006138616021836129c7565b915061386c82613805565b604082019050919050565b6000602082019050818103600083015261389081613854565b9050919050565b7f4552433737373a20617070726f76652066726f6d20746865207a65726f20616460008201527f6472657373000000000000000000000000000000000000000000000000000000602082015250565b60006138f36025836129c7565b91506138fe82613897565b604082019050919050565b60006020820190508181036000830152613922816138e6565b9050919050565b7f4552433737373a20617070726f766520746f20746865207a65726f206164647260008201527f6573730000000000000000000000000000000000000000000000000000000000602082015250565b60006139856023836129c7565b915061399082613929565b604082019050919050565b600060208201905081810360008301526139b481613978565b9050919050565b6000819050919050565b6139ce816139bb565b82525050565b60006040820190506139e96000830185612ffb565b6139f660208301846139c5565b9392505050565b600081519050613a0c8161283a565b92915050565b600060208284031215613a2857613a276127fe565b5b6000613a36848285016139fd565b91505092915050565b600081519050919050565b600082825260208201905092915050565b6000613a6682613a3f565b613a708185613a4a565b9350613a808185602086016129d8565b613a8981612a0b565b840191505092915050565b600060c082019050613aa96000830189612ffb565b613ab66020830188612ffb565b613ac36040830187612ffb565b613ad06060830186612aad565b8181036080830152613ae28185613a5b565b905081810360a0830152613af68184613a5b565b9050979650505050505050565b7f4552433737373a20696e73756666696369656e7420616c6c6f77616e63650000600082015250565b6000613b39601e836129c7565b9150613b4482613b03565b602082019050919050565b60006020820190508181036000830152613b6881613b2c565b9050919050565b7f4552433737373a207472616e7366657220616d6f756e7420657863656564732060008201527f62616c616e636500000000000000000000000000000000000000000000000000602082015250565b6000613bcb6027836129c7565b9150613bd682613b6f565b604082019050919050565b60006020820190508181036000830152613bfa81613bbe565b9050919050565b6000606082019050613c166000830186612aad565b8181036020830152613c288185613a5b565b90508181036040830152613c3c8184613a5b565b9050949350505050565b7f4552433737373a20746f6b656e20726563697069656e7420636f6e747261637460008201527f20686173206e6f20696d706c656d656e74657220666f7220455243373737546f60208201527f6b656e73526563697069656e7400000000000000000000000000000000000000604082015250565b6000613cc8604d836129c7565b9150613cd382613c46565b606082019050919050565b60006020820190508181036000830152613cf781613cbb565b9050919050565b7f4552433737373a2073656e642066726f6d20746865207a65726f20616464726560008201527f7373000000000000000000000000000000000000000000000000000000000000602082015250565b6000613d5a6022836129c7565b9150613d6582613cfe565b604082019050919050565b60006020820190508181036000830152613d8981613d4d565b9050919050565b7f4552433737373a2073656e6420746f20746865207a65726f2061646472657373600082015250565b6000613dc66020836129c7565b9150613dd182613d90565b602082019050919050565b60006020820190508181036000830152613df581613db9565b9050919050565b7f4552433737373a206275726e2066726f6d20746865207a65726f20616464726560008201527f7373000000000000000000000000000000000000000000000000000000000000602082015250565b6000613e586022836129c7565b9150613e6382613dfc565b604082019050919050565b60006020820190508181036000830152613e8781613e4b565b9050919050565b7f4552433737373a206275726e20616d6f756e7420657863656564732062616c6160008201527f6e63650000000000000000000000000000000000000000000000000000000000602082015250565b6000613eea6023836129c7565b9150613ef582613e8e565b604082019050919050565b60006020820190508181036000830152613f1981613edd565b9050919050565b6000613f2b82612866565b9150613f3683612866565b925082821015613f4957613f486132f4565b5b82820390509291505056fea26469706673582212203fdd8cfa9c6ddd0451b14e492b02e879ffe32de01664ad51c08baf350014db0864736f6c634300080b0033",
  "immutableReferences": {},
  "source": "pragma solidity ^0.8.11;\n\nimport \"@openzeppelin/contracts/token/ERC777/ERC777.sol\";\nimport \"@openzeppelin/contracts/access/Ownable.sol\";\n\n\ncontract CoveyToken is ERC777, Ownable {\n\n  mapping(address => uint) _tokenLocks; \n\n  constructor (uint initialSupply, address[] memory defaultOperators) ERC777(\"Covey\", \"CVY\", defaultOperators) {\n    _mint(msg.sender, initialSupply, \"\", \"\");\n  }\n\n  modifier _onlyOwnerOrOperators {\n    require(msg.sender == address(this) || msg.sender == owner() || isOperatorFor(msg.sender, address(this)), \"Only owner or operator can call this function\");\n    _;\n  }\n\n  modifier whenDropIsActive() {\n    assert(isActive());\n\n    _;\n  }\n\n  event LockedTokensSent(address to, uint256 amount, uint unlockTime);\n\n  event TokensReleased(address to, uint256 amount);\n\n  function isActive() view internal returns (bool) {\n    return (\n        balanceOf(owner()) > 0\n    );\n  }\n\n  function transfer(address recipient, uint256 amount) public override returns(bool) {\n    if(_tokenLocks[msg.sender] != 0 && block.timestamp < _tokenLocks[msg.sender]) {\n      require(block.timestamp > _tokenLocks[msg.sender], \"Tokens have yet to release\");\n    }\n    \n    \n\n    if(block.timestamp > _tokenLocks[msg.sender] && _tokenLocks[msg.sender] != 0) {\n      if(_tokenLocks[msg.sender] != 0) {\n        delete _tokenLocks[msg.sender];\n        emit TokensReleased(msg.sender, amount);\n      }\n    }\n    super.transfer(recipient, amount);\n  }\n\n  function send(address recipient, uint256 amount, bytes memory data) public override {\n    if(_tokenLocks[msg.sender] != 0 && block.timestamp < _tokenLocks[msg.sender]) {\n      require(block.timestamp > _tokenLocks[msg.sender], \"Tokens have yet to release\");\n    }\n    \n    if(block.timestamp > _tokenLocks[msg.sender] && _tokenLocks[msg.sender] != 0) {\n      removeTokenLock(msg.sender, amount);\n    }\n      super.send(recipient, amount, data);\n  }\n\n  function airdrop  (address[] memory recipients, uint256[] memory amounts, uint256[] memory lockForSeconds) public onlyOwner {\n    for(uint i = 0; i < recipients.length; i++) {\n      uint256 toSend = amounts[i] * 10**18;\n      if(lockForSeconds[i] != 0) {\n        sendLocked(recipients[i], amounts[i], lockForSeconds[i]);\n      } else {\n        send(recipients[i], toSend, \"Covey Airdrop\");\n      }\n    }\n  }\n\n  function sendLocked(address to, uint256 amount, uint timeToLock) public onlyOwner {\n    require(timeToLock > 0, \"Time to lock must be more than 0\");\n    uint unlockTime = block.timestamp + timeToLock;\n    _tokenLocks[to] = unlockTime;\n    uint256 toSend = amount * 10**18;\n    send(to,toSend, \"Locked Tokens\");\n    emit LockedTokensSent(to, toSend, unlockTime);\n  }\n\n  function removeTokenLock(address to, uint256 amount) public onlyOwner {\n    if(_tokenLocks[to] != 0) {\n      delete _tokenLocks[to];\n      emit TokensReleased(to, amount);\n    }\n  }\n}",
  "sourcePath": "C:\\Users\\jcara\\Documents\\repos\\covey-token\\contracts\\CoveyToken.sol",
  "compiler": {
    "name": "solc",
    "version": "0.8.11+commit.d7f03943.Emscripten.clang"
  },
  "schemaVersion": "3.4.4",
  "updatedAt": "2022-04-22T14:31:38.102Z",
  "networkType": "ethereum",
  "devdoc": {
    "kind": "dev",
    "methods": {
      "allowance(address,address)": {
        "details": "See {IERC20-allowance}. Note that operator and allowance concepts are orthogonal: operators may not have allowance, and accounts with allowance may not be operators themselves."
      },
      "approve(address,uint256)": {
        "details": "See {IERC20-approve}. NOTE: If `value` is the maximum `uint256`, the allowance is not updated on `transferFrom`. This is semantically equivalent to an infinite approval. Note that accounts cannot have allowance issued by their operators."
      },
      "authorizeOperator(address)": {
        "details": "See {IERC777-authorizeOperator}."
      },
      "balanceOf(address)": {
        "details": "Returns the amount of tokens owned by an account (`tokenHolder`)."
      },
      "burn(uint256,bytes)": {
        "details": "See {IERC777-burn}. Also emits a {IERC20-Transfer} event for ERC20 compatibility."
      },
      "decimals()": {
        "details": "See {ERC20-decimals}. Always returns 18, as per the [ERC777 EIP](https://eips.ethereum.org/EIPS/eip-777#backward-compatibility)."
      },
      "defaultOperators()": {
        "details": "See {IERC777-defaultOperators}."
      },
      "granularity()": {
        "details": "See {IERC777-granularity}. This implementation always returns `1`."
      },
      "isOperatorFor(address,address)": {
        "details": "See {IERC777-isOperatorFor}."
      },
      "name()": {
        "details": "See {IERC777-name}."
      },
      "operatorBurn(address,uint256,bytes,bytes)": {
        "details": "See {IERC777-operatorBurn}. Emits {Burned} and {IERC20-Transfer} events."
      },
      "operatorSend(address,address,uint256,bytes,bytes)": {
        "details": "See {IERC777-operatorSend}. Emits {Sent} and {IERC20-Transfer} events."
      },
      "owner()": {
        "details": "Returns the address of the current owner."
      },
      "renounceOwnership()": {
        "details": "Leaves the contract without owner. It will not be possible to call `onlyOwner` functions anymore. Can only be called by the current owner. NOTE: Renouncing ownership will leave the contract without an owner, thereby removing any functionality that is only available to the owner."
      },
      "revokeOperator(address)": {
        "details": "See {IERC777-revokeOperator}."
      },
      "send(address,uint256,bytes)": {
        "details": "See {IERC777-send}. Also emits a {IERC20-Transfer} event for ERC20 compatibility."
      },
      "symbol()": {
        "details": "See {IERC777-symbol}."
      },
      "totalSupply()": {
        "details": "See {IERC777-totalSupply}."
      },
      "transfer(address,uint256)": {
        "details": "See {IERC20-transfer}. Unlike `send`, `recipient` is _not_ required to implement the {IERC777Recipient} interface if it is a contract. Also emits a {Sent} event."
      },
      "transferFrom(address,address,uint256)": {
        "details": "See {IERC20-transferFrom}. NOTE: Does not update the allowance if the current allowance is the maximum `uint256`. Note that operator and allowance concepts are orthogonal: operators cannot call `transferFrom` (unless they have allowance), and accounts with allowance cannot call `operatorSend` (unless they are operators). Emits {Sent}, {IERC20-Transfer} and {IERC20-Approval} events."
      },
      "transferOwnership(address)": {
        "details": "Transfers ownership of the contract to a new account (`newOwner`). Can only be called by the current owner."
      }
    },
    "version": 1
  },
  "userdoc": {
    "kind": "user",
    "methods": {},
    "version": 1
  }
}