{
  "contractName": "CoveyStaking",
  "abi": [
    {
      "inputs": [],
      "stateMutability": "nonpayable",
      "type": "constructor"
    },
    {
      "anonymous": false,
      "inputs": [
        {
          "indexed": true,
          "internalType": "address",
          "name": "_adr",
          "type": "address"
        },
        {
          "indexed": false,
          "internalType": "uint256",
          "name": "amountLost",
          "type": "uint256"
        }
      ],
      "name": "Bankrupt",
      "type": "event"
    },
    {
      "anonymous": false,
      "inputs": [
        {
          "indexed": true,
          "internalType": "address",
          "name": "_adr",
          "type": "address"
        }
      ],
      "name": "CancelledUnstake",
      "type": "event"
    },
    {
      "anonymous": false,
      "inputs": [
        {
          "indexed": false,
          "internalType": "uint8",
          "name": "version",
          "type": "uint8"
        }
      ],
      "name": "Initialized",
      "type": "event"
    },
    {
      "anonymous": false,
      "inputs": [
        {
          "indexed": true,
          "internalType": "bytes32",
          "name": "role",
          "type": "bytes32"
        },
        {
          "indexed": true,
          "internalType": "bytes32",
          "name": "previousAdminRole",
          "type": "bytes32"
        },
        {
          "indexed": true,
          "internalType": "bytes32",
          "name": "newAdminRole",
          "type": "bytes32"
        }
      ],
      "name": "RoleAdminChanged",
      "type": "event"
    },
    {
      "anonymous": false,
      "inputs": [
        {
          "indexed": true,
          "internalType": "bytes32",
          "name": "role",
          "type": "bytes32"
        },
        {
          "indexed": true,
          "internalType": "address",
          "name": "account",
          "type": "address"
        },
        {
          "indexed": true,
          "internalType": "address",
          "name": "sender",
          "type": "address"
        }
      ],
      "name": "RoleGranted",
      "type": "event"
    },
    {
      "anonymous": false,
      "inputs": [
        {
          "indexed": true,
          "internalType": "bytes32",
          "name": "role",
          "type": "bytes32"
        },
        {
          "indexed": true,
          "internalType": "address",
          "name": "account",
          "type": "address"
        },
        {
          "indexed": true,
          "internalType": "address",
          "name": "sender",
          "type": "address"
        }
      ],
      "name": "RoleRevoked",
      "type": "event"
    },
    {
      "anonymous": false,
      "inputs": [
        {
          "indexed": true,
          "internalType": "address",
          "name": "_adr",
          "type": "address"
        },
        {
          "indexed": false,
          "internalType": "uint256",
          "name": "amountDispensed",
          "type": "uint256"
        }
      ],
      "name": "StakeDispensed",
      "type": "event"
    },
    {
      "anonymous": false,
      "inputs": [
        {
          "indexed": true,
          "internalType": "address",
          "name": "_adr",
          "type": "address"
        },
        {
          "indexed": false,
          "internalType": "uint256",
          "name": "amount",
          "type": "uint256"
        },
        {
          "indexed": false,
          "internalType": "uint256",
          "name": "totalStakedAmount",
          "type": "uint256"
        }
      ],
      "name": "Staked",
      "type": "event"
    },
    {
      "anonymous": false,
      "inputs": [
        {
          "indexed": true,
          "internalType": "address",
          "name": "_adr",
          "type": "address"
        },
        {
          "indexed": false,
          "internalType": "uint256",
          "name": "amount",
          "type": "uint256"
        },
        {
          "indexed": false,
          "internalType": "uint256",
          "name": "totalUnstakedAmount",
          "type": "uint256"
        }
      ],
      "name": "Unstaked",
      "type": "event"
    },
    {
      "inputs": [],
      "name": "DEFAULT_ADMIN_ROLE",
      "outputs": [
        {
          "internalType": "bytes32",
          "name": "",
          "type": "bytes32"
        }
      ],
      "stateMutability": "view",
      "type": "function",
      "constant": true
    },
    {
      "inputs": [],
      "name": "DISPENSER",
      "outputs": [
        {
          "internalType": "bytes32",
          "name": "",
          "type": "bytes32"
        }
      ],
      "stateMutability": "view",
      "type": "function",
      "constant": true
    },
    {
      "inputs": [
        {
          "internalType": "bytes32",
          "name": "role",
          "type": "bytes32"
        }
      ],
      "name": "getRoleAdmin",
      "outputs": [
        {
          "internalType": "bytes32",
          "name": "",
          "type": "bytes32"
        }
      ],
      "stateMutability": "view",
      "type": "function",
      "constant": true
    },
    {
      "inputs": [
        {
          "internalType": "bytes32",
          "name": "role",
          "type": "bytes32"
        },
        {
          "internalType": "address",
          "name": "account",
          "type": "address"
        }
      ],
      "name": "grantRole",
      "outputs": [],
      "stateMutability": "nonpayable",
      "type": "function"
    },
    {
      "inputs": [
        {
          "internalType": "bytes32",
          "name": "role",
          "type": "bytes32"
        },
        {
          "internalType": "address",
          "name": "account",
          "type": "address"
        }
      ],
      "name": "hasRole",
      "outputs": [
        {
          "internalType": "bool",
          "name": "",
          "type": "bool"
        }
      ],
      "stateMutability": "view",
      "type": "function",
      "constant": true
    },
    {
      "inputs": [
        {
          "internalType": "uint256",
          "name": "",
          "type": "uint256"
        }
      ],
      "name": "pendingUnstakers",
      "outputs": [
        {
          "internalType": "address",
          "name": "",
          "type": "address"
        }
      ],
      "stateMutability": "view",
      "type": "function",
      "constant": true
    },
    {
      "inputs": [
        {
          "internalType": "bytes32",
          "name": "role",
          "type": "bytes32"
        },
        {
          "internalType": "address",
          "name": "account",
          "type": "address"
        }
      ],
      "name": "renounceRole",
      "outputs": [],
      "stateMutability": "nonpayable",
      "type": "function"
    },
    {
      "inputs": [
        {
          "internalType": "bytes32",
          "name": "role",
          "type": "bytes32"
        },
        {
          "internalType": "address",
          "name": "account",
          "type": "address"
        }
      ],
      "name": "revokeRole",
      "outputs": [],
      "stateMutability": "nonpayable",
      "type": "function"
    },
    {
      "inputs": [
        {
          "internalType": "address",
          "name": "",
          "type": "address"
        }
      ],
      "name": "stakedAmounts",
      "outputs": [
        {
          "internalType": "uint256",
          "name": "",
          "type": "uint256"
        }
      ],
      "stateMutability": "view",
      "type": "function",
      "constant": true
    },
    {
      "inputs": [],
      "name": "stakingToken",
      "outputs": [
        {
          "internalType": "contract IERC20",
          "name": "",
          "type": "address"
        }
      ],
      "stateMutability": "view",
      "type": "function",
      "constant": true
    },
    {
      "inputs": [
        {
          "internalType": "bytes4",
          "name": "interfaceId",
          "type": "bytes4"
        }
      ],
      "name": "supportsInterface",
      "outputs": [
        {
          "internalType": "bool",
          "name": "",
          "type": "bool"
        }
      ],
      "stateMutability": "view",
      "type": "function",
      "constant": true
    },
    {
      "inputs": [
        {
          "internalType": "address",
          "name": "",
          "type": "address"
        }
      ],
      "name": "unstakedAmounts",
      "outputs": [
        {
          "internalType": "uint256",
          "name": "",
          "type": "uint256"
        }
      ],
      "stateMutability": "view",
      "type": "function",
      "constant": true
    },
    {
      "inputs": [
        {
          "internalType": "contract IERC20",
          "name": "_stakingToken",
          "type": "address"
        }
      ],
      "name": "initialize",
      "outputs": [],
      "stateMutability": "nonpayable",
      "type": "function"
    },
    {
      "inputs": [
        {
          "internalType": "uint256",
          "name": "amount",
          "type": "uint256"
        }
      ],
      "name": "stake",
      "outputs": [],
      "stateMutability": "nonpayable",
      "type": "function"
    },
    {
      "inputs": [
        {
          "internalType": "uint256",
          "name": "amount",
          "type": "uint256"
        }
      ],
      "name": "unstake",
      "outputs": [],
      "stateMutability": "nonpayable",
      "type": "function"
    },
    {
      "inputs": [
        {
          "internalType": "uint256",
          "name": "index",
          "type": "uint256"
        }
      ],
      "name": "cancelUnstake",
      "outputs": [],
      "stateMutability": "nonpayable",
      "type": "function"
    },
    {
      "inputs": [],
      "name": "cancelUnstake",
      "outputs": [],
      "stateMutability": "nonpayable",
      "type": "function"
    },
    {
      "inputs": [],
      "name": "dispenseStakes",
      "outputs": [],
      "stateMutability": "nonpayable",
      "type": "function"
    },
    {
      "inputs": [
        {
          "internalType": "address",
          "name": "bankruptciesReceiver",
          "type": "address"
        },
        {
          "internalType": "address[]",
          "name": "bankruptAddresses",
          "type": "address[]"
        },
        {
          "internalType": "uint256[]",
          "name": "indices",
          "type": "uint256[]"
        }
      ],
      "name": "bankruptStakers",
      "outputs": [],
      "stateMutability": "nonpayable",
      "type": "function"
    },
    {
      "inputs": [
        {
          "internalType": "address",
          "name": "staker",
          "type": "address"
        }
      ],
      "name": "getNetStaked",
      "outputs": [
        {
          "internalType": "uint256",
          "name": "",
          "type": "uint256"
        }
      ],
      "stateMutability": "view",
      "type": "function",
      "constant": true
    },
    {
      "inputs": [],
      "name": "getAllNetStaked",
      "outputs": [
        {
          "components": [
            {
              "internalType": "address",
              "name": "staker",
              "type": "address"
            },
            {
              "internalType": "uint256",
              "name": "stakedAmount",
              "type": "uint256"
            }
          ],
          "internalType": "struct CoveyStaking.StakeInfo[]",
          "name": "stakeInformation",
          "type": "tuple[]"
        }
      ],
      "stateMutability": "view",
      "type": "function",
      "constant": true
    },
    {
      "inputs": [
        {
          "internalType": "address",
          "name": "_addr",
          "type": "address"
        }
      ],
      "name": "delegateDispenser",
      "outputs": [],
      "stateMutability": "nonpayable",
      "type": "function"
    },
    {
      "inputs": [
        {
          "internalType": "address",
          "name": "_addr",
          "type": "address"
        }
      ],
      "name": "revokeDispenser",
      "outputs": [],
      "stateMutability": "nonpayable",
      "type": "function"
    }
  ],
  "bytecode": "0x60806040523480156200001157600080fd5b50620000226200002860201b60201c565b6200020f565b6200003a60ff6200003d60201b60201c565b50565b60008060019054906101000a900460ff1615620000c75760018260ff161480156200007b575062000079306200014360201b62001ba71760201c565b155b620000bd576040517f08c379a0000000000000000000000000000000000000000000000000000000008152600401620000b490620001ed565b60405180910390fd5b600090506200013e565b8160ff1660008054906101000a900460ff1660ff16106200011f576040517f08c379a00000000000000000000000000000000000000000000000000000000081526004016200011690620001ed565b60405180910390fd5b816000806101000a81548160ff021916908360ff160217905550600190505b919050565b6000808273ffffffffffffffffffffffffffffffffffffffff163b119050919050565b600082825260208201905092915050565b7f496e697469616c697a61626c653a20636f6e747261637420697320616c72656160008201527f647920696e697469616c697a6564000000000000000000000000000000000000602082015250565b6000620001d5602e8362000166565b9150620001e28262000177565b604082019050919050565b600060208201905081810360008301526200020881620001c6565b9050919050565b613606806200021f6000396000f3fe608060405234801561001057600080fd5b506004361061014d5760003560e01c8063681a946e116100c3578063b2d1e58c1161007c578063b2d1e58c14610386578063c4d66de8146103a4578063d547741f146103c0578063ded2e7da146103dc578063e14cf1e41461040c578063fbb83bf21461042a5761014d565b8063681a946e146102b257806372f702f3146102e2578063866c1f5f1461030057806391d148541461031c578063a217fddf1461034c578063a694fc3a1461036a5761014d565b80632e17de78116101155780632e17de78146102085780632f2ff15d1461022457806336568abe146102405780633bacd1b51461025c5780634ab179691461028c5780636620f595146102965761014d565b806301ffc9a71461015257806310c1c1031461018257806322c49460146101b2578063248a9ca3146101bc5780632b187b2b146101ec575b600080fd5b61016c600480360381019061016791906125ad565b610446565b60405161017991906125f5565b60405180910390f35b61019c6004803603810190610197919061266e565b6104c0565b6040516101a991906126b4565b60405180910390f35b6101ba6104d8565b005b6101d660048036038101906101d19190612705565b610832565b6040516101e39190612741565b60405180910390f35b61020660048036038101906102019190612788565b610852565b005b610222600480360381019061021d9190612788565b610afc565b005b61023e600480360381019061023991906127b5565b610d13565b005b61025a600480360381019061025591906127b5565b610d34565b005b6102766004803603810190610271919061266e565b610db7565b60405161028391906126b4565b60405180910390f35b610294610dcf565b005b6102b060048036038101906102ab919061266e565b611065565b005b6102cc60048036038101906102c79190612788565b6110de565b6040516102d99190612804565b60405180910390f35b6102ea61111d565b6040516102f7919061287e565b60405180910390f35b61031a6004803603810190610315919061266e565b611143565b005b610336600480360381019061033191906127b5565b6111bc565b60405161034391906125f5565b60405180910390f35b610354611227565b6040516103619190612741565b60405180910390f35b610384600480360381019061037f9190612788565b61122e565b005b61038e611429565b60405161039b9190612741565b60405180910390f35b6103be60048036038101906103b991906128d7565b61144d565b005b6103da60048036038101906103d591906127b5565b611530565b005b6103f660048036038101906103f1919061266e565b611551565b60405161040391906126b4565b60405180910390f35b6104146115e4565b6040516104219190612a00565b60405180910390f35b610444600480360381019061043f9190612add565b6116d4565b005b60007f7965db0b000000000000000000000000000000000000000000000000000000007bffffffffffffffffffffffffffffffffffffffffffffffffffffffff1916827bffffffffffffffffffffffffffffffffffffffffffffffffffffffff191614806104b957506104b882611bca565b5b9050919050565b609b6020528060005260406000206000915090505481565b6104e56000801b336111bc565b8061051657506105157f6819d2896fa4833eb5158abc566f5567fa977a468f59c2b18ae25bfe434af5c3336111bc565b5b610555576040517f08c379a000000000000000000000000000000000000000000000000000000000815260040161054c90612bcf565b60405180910390fd5b6000609a80549050905060008060005b8381101561081e57609a818154811061058157610580612bef565b5b9060005260206000200160009054906101000a900473ffffffffffffffffffffffffffffffffffffffff169250609c60008473ffffffffffffffffffffffffffffffffffffffff1673ffffffffffffffffffffffffffffffffffffffff16815260200190815260200160002054915081609b60008573ffffffffffffffffffffffffffffffffffffffff1673ffffffffffffffffffffffffffffffffffffffff1681526020019081526020016000205461063b9190612c4d565b609b60008573ffffffffffffffffffffffffffffffffffffffff1673ffffffffffffffffffffffffffffffffffffffff16815260200190815260200160002081905550609c60008473ffffffffffffffffffffffffffffffffffffffff1673ffffffffffffffffffffffffffffffffffffffff168152602001908152602001600020600090556000609b60008573ffffffffffffffffffffffffffffffffffffffff1673ffffffffffffffffffffffffffffffffffffffff168152602001908152602001600020540361071e5761071c836098611c3490919063ffffffff16565b505b609760009054906101000a900473ffffffffffffffffffffffffffffffffffffffff1673ffffffffffffffffffffffffffffffffffffffff1663a9059cbb84846040518363ffffffff1660e01b815260040161077b929190612c81565b6020604051808303816000875af115801561079a573d6000803e3d6000fd5b505050506040513d601f19601f820116820180604052508101906107be9190612cd6565b508273ffffffffffffffffffffffffffffffffffffffff167f9b4c90d41aa819dadecbb2e126e6dc2e01be4402acc99ec60248131a3f59576c8360405161080591906126b4565b60405180910390a28061081790612d03565b9050610565565b50609a600061082d91906124dd565b505050565b600060656000838152602001908152602001600020600101549050919050565b6000609c60003373ffffffffffffffffffffffffffffffffffffffff1673ffffffffffffffffffffffffffffffffffffffff16815260200190815260200160002054116108d4576040517f08c379a00000000000000000000000000000000000000000000000000000000081526004016108cb90612d97565b60405180910390fd5b609c60003373ffffffffffffffffffffffffffffffffffffffff1673ffffffffffffffffffffffffffffffffffffffff168152602001908152602001600020600090553373ffffffffffffffffffffffffffffffffffffffff16609a828154811061094257610941612bef565b5b9060005260206000200160009054906101000a900473ffffffffffffffffffffffffffffffffffffffff1673ffffffffffffffffffffffffffffffffffffffff16146109c3576040517f08c379a00000000000000000000000000000000000000000000000000000000081526004016109ba90612e03565b60405180910390fd5b609a6001609a805490506109d79190612c4d565b815481106109e8576109e7612bef565b5b9060005260206000200160009054906101000a900473ffffffffffffffffffffffffffffffffffffffff16609a8281548110610a2757610a26612bef565b5b9060005260206000200160006101000a81548173ffffffffffffffffffffffffffffffffffffffff021916908373ffffffffffffffffffffffffffffffffffffffff160217905550609a805480610a8157610a80612e23565b5b6001900381819060005260206000200160006101000a81549073ffffffffffffffffffffffffffffffffffffffff021916905590553373ffffffffffffffffffffffffffffffffffffffff167f450cc0f663f8ded0053aeca240ef53a2f4b93c5c3aa067e8e45155e823ceaa7a60405160405180910390a250565b60008103610b3f576040517f08c379a0000000000000000000000000000000000000000000000000000000008152600401610b3690612e9e565b60405180910390fd5b600081609c60003373ffffffffffffffffffffffffffffffffffffffff1673ffffffffffffffffffffffffffffffffffffffff16815260200190815260200160002054610b8c9190612ebe565b905080609b60003373ffffffffffffffffffffffffffffffffffffffff1673ffffffffffffffffffffffffffffffffffffffff168152602001908152602001600020541015610c10576040517f08c379a0000000000000000000000000000000000000000000000000000000008152600401610c0790612f3e565b60405180910390fd5b818103610c7b57609a339080600181540180825580915050600190039060005260206000200160009091909190916101000a81548173ffffffffffffffffffffffffffffffffffffffff021916908373ffffffffffffffffffffffffffffffffffffffff1602179055505b80609c60003373ffffffffffffffffffffffffffffffffffffffff1673ffffffffffffffffffffffffffffffffffffffff168152602001908152602001600020819055503373ffffffffffffffffffffffffffffffffffffffff167f7fc4727e062e336010f2c282598ef5f14facb3de68cf8195c2f23e1454b2b74e8383604051610d07929190612f5e565b60405180910390a25050565b610d1c82610832565b610d2581611c64565b610d2f8383611c78565b505050565b610d3c611d59565b73ffffffffffffffffffffffffffffffffffffffff168173ffffffffffffffffffffffffffffffffffffffff1614610da9576040517f08c379a0000000000000000000000000000000000000000000000000000000008152600401610da090612ff9565b60405180910390fd5b610db38282611d61565b5050565b609c6020528060005260406000206000915090505481565b6000609c60003373ffffffffffffffffffffffffffffffffffffffff1673ffffffffffffffffffffffffffffffffffffffff1681526020019081526020016000205411610e51576040517f08c379a0000000000000000000000000000000000000000000000000000000008152600401610e4890612d97565b60405180910390fd5b609c60003373ffffffffffffffffffffffffffffffffffffffff1673ffffffffffffffffffffffffffffffffffffffff168152602001908152602001600020600090556000609a80549050905060005b8181101561101e573373ffffffffffffffffffffffffffffffffffffffff16609a8281548110610ed457610ed3612bef565b5b9060005260206000200160009054906101000a900473ffffffffffffffffffffffffffffffffffffffff1673ffffffffffffffffffffffffffffffffffffffff160361100d57609a600183610f299190612c4d565b81548110610f3a57610f39612bef565b5b9060005260206000200160009054906101000a900473ffffffffffffffffffffffffffffffffffffffff16609a8281548110610f7957610f78612bef565b5b9060005260206000200160006101000a81548173ffffffffffffffffffffffffffffffffffffffff021916908373ffffffffffffffffffffffffffffffffffffffff160217905550609a805480610fd357610fd2612e23565b5b6001900381819060005260206000200160006101000a81549073ffffffffffffffffffffffffffffffffffffffff0219169055905561101e565b8061101790612d03565b9050610ea1565b503373ffffffffffffffffffffffffffffffffffffffff167f450cc0f663f8ded0053aeca240ef53a2f4b93c5c3aa067e8e45155e823ceaa7a60405160405180910390a250565b6110726000801b336111bc565b6110b1576040517f08c379a00000000000000000000000000000000000000000000000000000000081526004016110a890613065565b60405180910390fd5b6110db7f6819d2896fa4833eb5158abc566f5567fa977a468f59c2b18ae25bfe434af5c382610d13565b50565b609a81815481106110ee57600080fd5b906000526020600020016000915054906101000a900473ffffffffffffffffffffffffffffffffffffffff1681565b609760009054906101000a900473ffffffffffffffffffffffffffffffffffffffff1681565b6111506000801b336111bc565b61118f576040517f08c379a000000000000000000000000000000000000000000000000000000000815260040161118690613065565b60405180910390fd5b6111b97f6819d2896fa4833eb5158abc566f5567fa977a468f59c2b18ae25bfe434af5c382611530565b50565b60006065600084815260200190815260200160002060000160008373ffffffffffffffffffffffffffffffffffffffff1673ffffffffffffffffffffffffffffffffffffffff16815260200190815260200160002060009054906101000a900460ff16905092915050565b6000801b81565b60008103611271576040517f08c379a000000000000000000000000000000000000000000000000000000000815260040161126890612e9e565b60405180910390fd5b609760009054906101000a900473ffffffffffffffffffffffffffffffffffffffff1673ffffffffffffffffffffffffffffffffffffffff166323b872dd3330846040518463ffffffff1660e01b81526004016112d093929190613085565b6020604051808303816000875af11580156112ef573d6000803e3d6000fd5b505050506040513d601f19601f820116820180604052508101906113139190612cd6565b50611328336098611e4390919063ffffffff16565b61134257611340336098611e7390919063ffffffff16565b505b600081609b60003373ffffffffffffffffffffffffffffffffffffffff1673ffffffffffffffffffffffffffffffffffffffff1681526020019081526020016000205461138f9190612ebe565b905080609b60003373ffffffffffffffffffffffffffffffffffffffff1673ffffffffffffffffffffffffffffffffffffffff168152602001908152602001600020819055503373ffffffffffffffffffffffffffffffffffffffff167f1449c6dd7851abc30abf37f57715f492010519147cc2652fbc38202c18a6ee90838360405161141d929190612f5e565b60405180910390a25050565b7f6819d2896fa4833eb5158abc566f5567fa977a468f59c2b18ae25bfe434af5c381565b60006114596001611ea3565b9050801561147d576001600060016101000a81548160ff0219169083151502179055505b611485611f93565b81609760006101000a81548173ffffffffffffffffffffffffffffffffffffffff021916908373ffffffffffffffffffffffffffffffffffffffff1602179055506114d36000801b33611fe4565b801561152c5760008060016101000a81548160ff0219169083151502179055507f7f26b83ff96e1f2b6a682f133852f6798a09c465da95921460cefb384740249860016040516115239190613104565b60405180910390a15b5050565b61153982610832565b61154281611c64565b61154c8383611d61565b505050565b6000609c60008373ffffffffffffffffffffffffffffffffffffffff1673ffffffffffffffffffffffffffffffffffffffff16815260200190815260200160002054609b60008473ffffffffffffffffffffffffffffffffffffffff1673ffffffffffffffffffffffffffffffffffffffff168152602001908152602001600020546115dd9190612c4d565b9050919050565b606060006115f26098611ff2565b90508067ffffffffffffffff81111561160e5761160d61311f565b5b60405190808252806020026020018201604052801561164757816020015b6116346124fe565b81526020019060019003908161162c5790505b5091506000805b828110156116ce5761166a81609861200790919063ffffffff16565b915060405180604001604052808373ffffffffffffffffffffffffffffffffffffffff16815260200161169c84611551565b8152508482815181106116b2576116b1612bef565b5b6020026020010181905250806116c790612d03565b905061164e565b50505090565b6116e16000801b336111bc565b611720576040517f08c379a000000000000000000000000000000000000000000000000000000000815260040161171790613065565b60405180910390fd5b600084849050905082829050811461176d576040517f08c379a00000000000000000000000000000000000000000000000000000000081526004016117649061319a565b60405180910390fd5b60008060005b83811015611b9c5787878281811061178e5761178d612bef565b5b90506020020160208101906117a3919061266e565b9250609b60008473ffffffffffffffffffffffffffffffffffffffff1673ffffffffffffffffffffffffffffffffffffffff1681526020019081526020016000205491506000609c60008573ffffffffffffffffffffffffffffffffffffffff1673ffffffffffffffffffffffffffffffffffffffff168152602001908152602001600020541115611a44578273ffffffffffffffffffffffffffffffffffffffff16609a87878481811061185b5761185a612bef565b5b905060200201358154811061187357611872612bef565b5b9060005260206000200160009054906101000a900473ffffffffffffffffffffffffffffffffffffffff1673ffffffffffffffffffffffffffffffffffffffff16146118f4576040517f08c379a00000000000000000000000000000000000000000000000000000000081526004016118eb90613206565b60405180910390fd5b609a6001609a805490506119089190612c4d565b8154811061191957611918612bef565b5b9060005260206000200160009054906101000a900473ffffffffffffffffffffffffffffffffffffffff16609a87878481811061195957611958612bef565b5b905060200201358154811061197157611970612bef565b5b9060005260206000200160006101000a81548173ffffffffffffffffffffffffffffffffffffffff021916908373ffffffffffffffffffffffffffffffffffffffff160217905550609a8054806119cb576119ca612e23565b5b6001900381819060005260206000200160006101000a81549073ffffffffffffffffffffffffffffffffffffffff02191690559055609c60008473ffffffffffffffffffffffffffffffffffffffff1673ffffffffffffffffffffffffffffffffffffffff168152602001908152602001600020600090555b609b60008473ffffffffffffffffffffffffffffffffffffffff1673ffffffffffffffffffffffffffffffffffffffff16815260200190815260200160002060009055611a9b836098611c3490919063ffffffff16565b50609760009054906101000a900473ffffffffffffffffffffffffffffffffffffffff1673ffffffffffffffffffffffffffffffffffffffff1663a9059cbb8a846040518363ffffffff1660e01b8152600401611af9929190612c81565b6020604051808303816000875af1158015611b18573d6000803e3d6000fd5b505050506040513d601f19601f82011682018060405250810190611b3c9190612cd6565b508273ffffffffffffffffffffffffffffffffffffffff167f7fe451685bab7a17da665cc038b4635412b8d788bb692963f88e35eba15ae17583604051611b8391906126b4565b60405180910390a280611b9590612d03565b9050611773565b505050505050505050565b6000808273ffffffffffffffffffffffffffffffffffffffff163b119050919050565b60007f01ffc9a7000000000000000000000000000000000000000000000000000000007bffffffffffffffffffffffffffffffffffffffffffffffffffffffff1916827bffffffffffffffffffffffffffffffffffffffffffffffffffffffff1916149050919050565b6000611c5c836000018373ffffffffffffffffffffffffffffffffffffffff1660001b612021565b905092915050565b611c7581611c70611d59565b612135565b50565b611c8282826111bc565b611d555760016065600084815260200190815260200160002060000160008373ffffffffffffffffffffffffffffffffffffffff1673ffffffffffffffffffffffffffffffffffffffff16815260200190815260200160002060006101000a81548160ff021916908315150217905550611cfa611d59565b73ffffffffffffffffffffffffffffffffffffffff168173ffffffffffffffffffffffffffffffffffffffff16837f2f8788117e7eff1d82e926ec794901d17c78024a50270940304540a733656f0d60405160405180910390a45b5050565b600033905090565b611d6b82826111bc565b15611e3f5760006065600084815260200190815260200160002060000160008373ffffffffffffffffffffffffffffffffffffffff1673ffffffffffffffffffffffffffffffffffffffff16815260200190815260200160002060006101000a81548160ff021916908315150217905550611de4611d59565b73ffffffffffffffffffffffffffffffffffffffff168173ffffffffffffffffffffffffffffffffffffffff16837ff6391f5c32d9c69d2a47ea670b442974b53935d1edc7fd64eb21e047a839171b60405160405180910390a45b5050565b6000611e6b836000018373ffffffffffffffffffffffffffffffffffffffff1660001b6121d2565b905092915050565b6000611e9b836000018373ffffffffffffffffffffffffffffffffffffffff1660001b6121f5565b905092915050565b60008060019054906101000a900460ff1615611f1a5760018260ff16148015611ed25750611ed030611ba7565b155b611f11576040517f08c379a0000000000000000000000000000000000000000000000000000000008152600401611f0890613298565b60405180910390fd5b60009050611f8e565b8160ff1660008054906101000a900460ff1660ff1610611f6f576040517f08c379a0000000000000000000000000000000000000000000000000000000008152600401611f6690613298565b60405180910390fd5b816000806101000a81548160ff021916908360ff160217905550600190505b919050565b600060019054906101000a900460ff16611fe2576040517f08c379a0000000000000000000000000000000000000000000000000000000008152600401611fd99061332a565b60405180910390fd5b565b611fee8282611c78565b5050565b600061200082600001612265565b9050919050565b60006120168360000183612276565b60001c905092915050565b600080836001016000848152602001908152602001600020549050600081146121295760006001826120539190612c4d565b905060006001866000018054905061206b9190612c4d565b90508181146120da57600086600001828154811061208c5761208b612bef565b5b90600052602060002001549050808760000184815481106120b0576120af612bef565b5b90600052602060002001819055508387600101600083815260200190815260200160002081905550505b856000018054806120ee576120ed612e23565b5b60019003818190600052602060002001600090559055856001016000868152602001908152602001600020600090556001935050505061212f565b60009150505b92915050565b61213f82826111bc565b6121ce576121648173ffffffffffffffffffffffffffffffffffffffff1660146122a1565b6121728360001c60206122a1565b604051602001612183929190613453565b6040516020818303038152906040526040517f08c379a00000000000000000000000000000000000000000000000000000000081526004016121c591906134d7565b60405180910390fd5b5050565b600080836001016000848152602001908152602001600020541415905092915050565b600061220183836121d2565b61225a57826000018290806001815401808255809150506001900390600052602060002001600090919091909150558260000180549050836001016000848152602001908152602001600020819055506001905061225f565b600090505b92915050565b600081600001805490509050919050565b600082600001828154811061228e5761228d612bef565b5b9060005260206000200154905092915050565b6060600060028360026122b491906134f9565b6122be9190612ebe565b67ffffffffffffffff8111156122d7576122d661311f565b5b6040519080825280601f01601f1916602001820160405280156123095781602001600182028036833780820191505090505b5090507f30000000000000000000000000000000000000000000000000000000000000008160008151811061234157612340612bef565b5b60200101907effffffffffffffffffffffffffffffffffffffffffffffffffffffffffffff1916908160001a9053507f7800000000000000000000000000000000000000000000000000000000000000816001815181106123a5576123a4612bef565b5b60200101907effffffffffffffffffffffffffffffffffffffffffffffffffffffffffffff1916908160001a905350600060018460026123e591906134f9565b6123ef9190612ebe565b90505b600181111561248f577f3031323334353637383961626364656600000000000000000000000000000000600f86166010811061243157612430612bef565b5b1a60f81b82828151811061244857612447612bef565b5b60200101907effffffffffffffffffffffffffffffffffffffffffffffffffffffffffffff1916908160001a905350600485901c9450806124889061353b565b90506123f2565b50600084146124d3576040517f08c379a00000000000000000000000000000000000000000000000000000000081526004016124ca906135b0565b60405180910390fd5b8091505092915050565b50805460008255906000526020600020908101906124fb919061252e565b50565b6040518060400160405280600073ffffffffffffffffffffffffffffffffffffffff168152602001600081525090565b5b8082111561254757600081600090555060010161252f565b5090565b600080fd5b600080fd5b60007fffffffff0000000000000000000000000000000000000000000000000000000082169050919050565b61258a81612555565b811461259557600080fd5b50565b6000813590506125a781612581565b92915050565b6000602082840312156125c3576125c261254b565b5b60006125d184828501612598565b91505092915050565b60008115159050919050565b6125ef816125da565b82525050565b600060208201905061260a60008301846125e6565b92915050565b600073ffffffffffffffffffffffffffffffffffffffff82169050919050565b600061263b82612610565b9050919050565b61264b81612630565b811461265657600080fd5b50565b60008135905061266881612642565b92915050565b6000602082840312156126845761268361254b565b5b600061269284828501612659565b91505092915050565b6000819050919050565b6126ae8161269b565b82525050565b60006020820190506126c960008301846126a5565b92915050565b6000819050919050565b6126e2816126cf565b81146126ed57600080fd5b50565b6000813590506126ff816126d9565b92915050565b60006020828403121561271b5761271a61254b565b5b6000612729848285016126f0565b91505092915050565b61273b816126cf565b82525050565b60006020820190506127566000830184612732565b92915050565b6127658161269b565b811461277057600080fd5b50565b6000813590506127828161275c565b92915050565b60006020828403121561279e5761279d61254b565b5b60006127ac84828501612773565b91505092915050565b600080604083850312156127cc576127cb61254b565b5b60006127da858286016126f0565b92505060206127eb85828601612659565b9150509250929050565b6127fe81612630565b82525050565b600060208201905061281960008301846127f5565b92915050565b6000819050919050565b600061284461283f61283a84612610565b61281f565b612610565b9050919050565b600061285682612829565b9050919050565b60006128688261284b565b9050919050565b6128788161285d565b82525050565b6000602082019050612893600083018461286f565b92915050565b60006128a482612630565b9050919050565b6128b481612899565b81146128bf57600080fd5b50565b6000813590506128d1816128ab565b92915050565b6000602082840312156128ed576128ec61254b565b5b60006128fb848285016128c2565b91505092915050565b600081519050919050565b600082825260208201905092915050565b6000819050602082019050919050565b61293981612630565b82525050565b6129488161269b565b82525050565b6040820160008201516129646000850182612930565b506020820151612977602085018261293f565b50505050565b6000612989838361294e565b60408301905092915050565b6000602082019050919050565b60006129ad82612904565b6129b7818561290f565b93506129c283612920565b8060005b838110156129f35781516129da888261297d565b97506129e583612995565b9250506001810190506129c6565b5085935050505092915050565b60006020820190508181036000830152612a1a81846129a2565b905092915050565b600080fd5b600080fd5b600080fd5b60008083601f840112612a4757612a46612a22565b5b8235905067ffffffffffffffff811115612a6457612a63612a27565b5b602083019150836020820283011115612a8057612a7f612a2c565b5b9250929050565b60008083601f840112612a9d57612a9c612a22565b5b8235905067ffffffffffffffff811115612aba57612ab9612a27565b5b602083019150836020820283011115612ad657612ad5612a2c565b5b9250929050565b600080600080600060608688031215612af957612af861254b565b5b6000612b0788828901612659565b955050602086013567ffffffffffffffff811115612b2857612b27612550565b5b612b3488828901612a31565b9450945050604086013567ffffffffffffffff811115612b5757612b56612550565b5b612b6388828901612a87565b92509250509295509295909350565b600082825260208201905092915050565b7f4f6e6c79206f776e6572206f722064697370656e736572000000000000000000600082015250565b6000612bb9601783612b72565b9150612bc482612b83565b602082019050919050565b60006020820190508181036000830152612be881612bac565b9050919050565b7f4e487b7100000000000000000000000000000000000000000000000000000000600052603260045260246000fd5b7f4e487b7100000000000000000000000000000000000000000000000000000000600052601160045260246000fd5b6000612c588261269b565b9150612c638361269b565b9250828203905081811115612c7b57612c7a612c1e565b5b92915050565b6000604082019050612c9660008301856127f5565b612ca360208301846126a5565b9392505050565b612cb3816125da565b8114612cbe57600080fd5b50565b600081519050612cd081612caa565b92915050565b600060208284031215612cec57612ceb61254b565b5b6000612cfa84828501612cc1565b91505092915050565b6000612d0e8261269b565b91507fffffffffffffffffffffffffffffffffffffffffffffffffffffffffffffffff8203612d4057612d3f612c1e565b5b600182019050919050565b7f3020756e7374616b650000000000000000000000000000000000000000000000600082015250565b6000612d81600983612b72565b9150612d8c82612d4b565b602082019050919050565b60006020820190508181036000830152612db081612d74565b9050919050565b7f57726f6e6720696e646578000000000000000000000000000000000000000000600082015250565b6000612ded600b83612b72565b9150612df882612db7565b602082019050919050565b60006020820190508181036000830152612e1c81612de0565b9050919050565b7f4e487b7100000000000000000000000000000000000000000000000000000000600052603160045260246000fd5b7f3020616d6f756e74000000000000000000000000000000000000000000000000600082015250565b6000612e88600883612b72565b9150612e9382612e52565b602082019050919050565b60006020820190508181036000830152612eb781612e7b565b9050919050565b6000612ec98261269b565b9150612ed48361269b565b9250828201905080821115612eec57612eeb612c1e565b5b92915050565b7f556e7374616b696e6720746f6f206c6172676500000000000000000000000000600082015250565b6000612f28601383612b72565b9150612f3382612ef2565b602082019050919050565b60006020820190508181036000830152612f5781612f1b565b9050919050565b6000604082019050612f7360008301856126a5565b612f8060208301846126a5565b9392505050565b7f416363657373436f6e74726f6c3a2063616e206f6e6c792072656e6f756e636560008201527f20726f6c657320666f722073656c660000000000000000000000000000000000602082015250565b6000612fe3602f83612b72565b9150612fee82612f87565b604082019050919050565b6000602082019050818103600083015261301281612fd6565b9050919050565b7f4e6f74206f776e65720000000000000000000000000000000000000000000000600082015250565b600061304f600983612b72565b915061305a82613019565b602082019050919050565b6000602082019050818103600083015261307e81613042565b9050919050565b600060608201905061309a60008301866127f5565b6130a760208301856127f5565b6130b460408301846126a5565b949350505050565b6000819050919050565b600060ff82169050919050565b60006130ee6130e96130e4846130bc565b61281f565b6130c6565b9050919050565b6130fe816130d3565b82525050565b600060208201905061311960008301846130f5565b92915050565b7f4e487b7100000000000000000000000000000000000000000000000000000000600052604160045260246000fd5b7f6c656e677468206d69736d617463680000000000000000000000000000000000600082015250565b6000613184600f83612b72565b915061318f8261314e565b602082019050919050565b600060208201905081810360008301526131b381613177565b9050919050565b7f77726f6e6720696e646578000000000000000000000000000000000000000000600082015250565b60006131f0600b83612b72565b91506131fb826131ba565b602082019050919050565b6000602082019050818103600083015261321f816131e3565b9050919050565b7f496e697469616c697a61626c653a20636f6e747261637420697320616c72656160008201527f647920696e697469616c697a6564000000000000000000000000000000000000602082015250565b6000613282602e83612b72565b915061328d82613226565b604082019050919050565b600060208201905081810360008301526132b181613275565b9050919050565b7f496e697469616c697a61626c653a20636f6e7472616374206973206e6f74206960008201527f6e697469616c697a696e67000000000000000000000000000000000000000000602082015250565b6000613314602b83612b72565b915061331f826132b8565b604082019050919050565b6000602082019050818103600083015261334381613307565b9050919050565b600081905092915050565b7f416363657373436f6e74726f6c3a206163636f756e7420000000000000000000600082015250565b600061338b60178361334a565b915061339682613355565b601782019050919050565b600081519050919050565b60005b838110156133ca5780820151818401526020810190506133af565b60008484015250505050565b60006133e1826133a1565b6133eb818561334a565b93506133fb8185602086016133ac565b80840191505092915050565b7f206973206d697373696e6720726f6c6520000000000000000000000000000000600082015250565b600061343d60118361334a565b915061344882613407565b601182019050919050565b600061345e8261337e565b915061346a82856133d6565b915061347582613430565b915061348182846133d6565b91508190509392505050565b6000601f19601f8301169050919050565b60006134a9826133a1565b6134b38185612b72565b93506134c38185602086016133ac565b6134cc8161348d565b840191505092915050565b600060208201905081810360008301526134f1818461349e565b905092915050565b60006135048261269b565b915061350f8361269b565b925082820261351d8161269b565b9150828204841483151761353457613533612c1e565b5b5092915050565b60006135468261269b565b91506000820361355957613558612c1e565b5b600182039050919050565b7f537472696e67733a20686578206c656e67746820696e73756666696369656e74600082015250565b600061359a602083612b72565b91506135a582613564565b602082019050919050565b600060208201905081810360008301526135c98161358d565b905091905056fea26469706673582212201270b5ad2d103b9a533bb2cac53ad7aa7cd68cda940da59a08791f51d572705464736f6c63430008110033",
  "immutableReferences": {},
  "source": "// contracts/CoveyStaking.sol\n// SPDX-License-Identifier: MIT\npragma solidity ^0.8.9;\n\nimport '@openzeppelin/contracts-upgradeable/proxy/utils/Initializable.sol';\nimport '@openzeppelin/contracts/token/ERC20/IERC20.sol';\nimport \"@openzeppelin/contracts-upgradeable/access/AccessControlUpgradeable.sol\";\nimport \"@openzeppelin/contracts-upgradeable/utils/structs/EnumerableSetUpgradeable.sol\";\n\ncontract CoveyStaking is Initializable, AccessControlUpgradeable {\n    using EnumerableSetUpgradeable for EnumerableSetUpgradeable.AddressSet;\n\n    bytes32 public constant DISPENSER = keccak256(\"DISPENSER\");\n    IERC20 public stakingToken;\n    struct StakeInfo {\n      address staker;\n      uint256 stakedAmount;\n    }\n    EnumerableSetUpgradeable.AddressSet internal stakers;\n    address[] public pendingUnstakers;\n\n    mapping(address => uint256) public stakedAmounts;\n    mapping(address => uint256) public unstakedAmounts;\n\n    event Staked(address indexed _adr, uint256 amount, uint256 totalStakedAmount);\n    \n    event Unstaked(address indexed _adr, uint256 amount, uint256 totalUnstakedAmount);\n\n    event CancelledUnstake(address indexed _adr);\n\n    event Bankrupt(address indexed _adr, uint256 amountLost);\n\n    event StakeDispensed(address indexed _adr, uint256 amountDispensed);\n\n    modifier onlyOwner {\n        require(hasRole(DEFAULT_ADMIN_ROLE, msg.sender), \"Not owner\");\n        _;\n    }\n\n    modifier onlyOwnerOrDispenser {\n        require(\n            hasRole(DEFAULT_ADMIN_ROLE, msg.sender) ||\n            hasRole(DISPENSER, msg.sender),\n            \"Only owner or dispenser\"\n        );\n        _;\n    }\n\n    /// @custom:oz-upgrades-unsafe-allow constructor\n    constructor() {\n        _disableInitializers();\n    }\n\n    function initialize(IERC20 _stakingToken) public initializer {\n        __AccessControl_init();\n        stakingToken = _stakingToken;\n        _setupRole(DEFAULT_ADMIN_ROLE, msg.sender);\n    }\n\n    function stake(uint256 amount) external {\n        require(amount != 0, \"0 amount\");\n        stakingToken.transferFrom(msg.sender, address(this), amount);\n        // if recognised as first time staker, push to staker list\n        if (!stakers.contains(msg.sender)) stakers.add(msg.sender);\n        uint256 totalStakedAmount = stakedAmounts[msg.sender] + amount;\n        stakedAmounts[msg.sender] = totalStakedAmount;\n        emit Staked(msg.sender, amount, totalStakedAmount);\n    }\n\n    function unstake(uint256 amount) external {\n        require(amount != 0, \"0 amount\");\n        uint256 totalUnstakedAmount = unstakedAmounts[msg.sender] + amount;\n        require(stakedAmounts[msg.sender] >= totalUnstakedAmount, \"Unstaking too large\");\n        // add to pending unstaker list\n        // if user unstaking for first time since dispenseStakes() was called\n        // checking (totalUnstakedAmount == amount) instead of (unstakedAmounts[msg.sender] == 0)\n        // is more gas efficient because it avoids an SLOAD\n        if (totalUnstakedAmount == amount) {\n            pendingUnstakers.push(msg.sender);\n        }\n        unstakedAmounts[msg.sender] = totalUnstakedAmount;\n        emit Unstaked(msg.sender, amount, totalUnstakedAmount);\n    }\n\n    /// @dev iterates through pendingUnstakers, might run out of gas\n    function cancelUnstake() external {\n        require(unstakedAmounts[msg.sender] > 0, \"0 unstake\");\n        delete unstakedAmounts[msg.sender];\n        uint256 numUnstakers = pendingUnstakers.length;\n        for (uint i; i < numUnstakers; ++i) {\n            if (pendingUnstakers[i] == msg.sender) {\n                pendingUnstakers[i] = pendingUnstakers[numUnstakers - 1];\n                pendingUnstakers.pop();\n                break;\n            }\n        }\n        emit CancelledUnstake(msg.sender);\n    }\n\n    /// @dev more gas efficient by taking in the index to avoid iterating through pendingUnstakers\n    function cancelUnstake(uint256 index) external {\n        require(unstakedAmounts[msg.sender] > 0, \"0 unstake\");\n        delete unstakedAmounts[msg.sender];\n        require(pendingUnstakers[index] == msg.sender, \"Wrong index\");\n        pendingUnstakers[index] = pendingUnstakers[pendingUnstakers.length - 1];\n        pendingUnstakers.pop();\n        emit CancelledUnstake(msg.sender);\n    }\n\n    function dispenseStakes() external onlyOwnerOrDispenser {\n        // iterate through pendingUnstakers list\n        uint256 numUnstakers = pendingUnstakers.length;\n        address unstaker;\n        uint256 unstakeAmount;\n        for(uint256 i; i < numUnstakers; ++i) {\n            unstaker = pendingUnstakers[i];\n            unstakeAmount = unstakedAmounts[unstaker];\n            stakedAmounts[unstaker] = stakedAmounts[unstaker] - unstakeAmount;\n            delete unstakedAmounts[unstaker];\n\n            // remove from staking list if user has 0 stake after unstaking\n            if (stakedAmounts[unstaker] == 0) stakers.remove(unstaker);\n\n            stakingToken.transfer(unstaker, unstakeAmount);\n            emit StakeDispensed(unstaker, unstakeAmount);\n        }\n        // finally, reset pendingUnstakers list\n        delete pendingUnstakers;\n    }\n\n    /// @param indices array of indices of bankruptAddresses in the pendingUnstaker array\n    /// value will be ignored if bankruptAddress has no pending unstakes\n    /// @dev indices to be of same length as bankruptAddresses\n    function bankruptStakers(\n        address bankruptciesReceiver,\n        address[] calldata bankruptAddresses,\n        uint256[] calldata indices\n    ) external onlyOwner {\n        uint256 bankruptAddressesLength = bankruptAddresses.length;\n        require(bankruptAddressesLength == indices.length, \"length mismatch\");\n        address bankruptAddress;\n        uint256 stakedAmount;\n        for (uint i = 0; i < bankruptAddressesLength; ++i) {\n            bankruptAddress = bankruptAddresses[i];\n            stakedAmount = stakedAmounts[bankruptAddress];\n\n            // remove from pendingUnstaker list if bankruptAddress has a pending unstake\n            // subsequently zeroes unstakedAmounts mapping\n            if (unstakedAmounts[bankruptAddress] > 0) {\n                require(pendingUnstakers[indices[i]] == bankruptAddress, \"wrong index\");\n                pendingUnstakers[indices[i]] = pendingUnstakers[pendingUnstakers.length - 1];\n                pendingUnstakers.pop();\n                delete unstakedAmounts[bankruptAddress];\n            }\n\n            // remove from stakedAmounts mapping\n            delete stakedAmounts[bankruptAddress];\n\n            // remove from stakers list\n            stakers.remove(bankruptAddress);\n\n            // transfer stakedAmount to specified receiver address\n            stakingToken.transfer(bankruptciesReceiver, stakedAmount);\n            emit Bankrupt(bankruptAddress, stakedAmount);\n        }\n    }\n\n    function getNetStaked(address staker) public view returns (uint) {\n        return stakedAmounts[staker] - unstakedAmounts[staker];\n    }\n\n    function getAllNetStaked() external view returns (StakeInfo[] memory stakeInformation) {\n        uint256 numStakers = stakers.length();\n        stakeInformation = new StakeInfo[](numStakers);\n        address staker;\n        for(uint256 i; i < numStakers; ++i) {\n            staker = stakers.at(i);\n            stakeInformation[i] = StakeInfo({\n                staker: staker,\n                stakedAmount: getNetStaked(staker)\n            });\n        }\n    }\n\n    function delegateDispenser(address _addr) external onlyOwner {\n        grantRole(DISPENSER, _addr);\n    }\n\n    function revokeDispenser(address _addr) external onlyOwner {\n        revokeRole(DISPENSER, _addr);\n    }\n}\n",
  "sourcePath": "/Users/brookerbelcourt/smart-contract-token/contracts/CoveyStaking.sol",
  "compiler": {
    "name": "solc",
    "version": "0.8.17+commit.8df45f5f.Emscripten.clang"
  },
  "schemaVersion": "3.4.10",
  "updatedAt": "2022-11-28T21:15:39.814Z",
  "networkType": "ethereum",
  "devdoc": {
    "kind": "dev",
    "methods": {
      "bankruptStakers(address,address[],uint256[])": {
        "details": "indices to be of same length as bankruptAddresses",
        "params": {
          "indices": "array of indices of bankruptAddresses in the pendingUnstaker array value will be ignored if bankruptAddress has no pending unstakes"
        }
      },
      "cancelUnstake()": {
        "details": "iterates through pendingUnstakers, might run out of gas"
      },
      "cancelUnstake(uint256)": {
        "details": "more gas efficient by taking in the index to avoid iterating through pendingUnstakers"
      },
      "constructor": {
        "custom:oz-upgrades-unsafe-allow": "constructor"
      },
      "getRoleAdmin(bytes32)": {
        "details": "Returns the admin role that controls `role`. See {grantRole} and {revokeRole}. To change a role's admin, use {_setRoleAdmin}."
      },
      "grantRole(bytes32,address)": {
        "details": "Grants `role` to `account`. If `account` had not been already granted `role`, emits a {RoleGranted} event. Requirements: - the caller must have ``role``'s admin role."
      },
      "hasRole(bytes32,address)": {
        "details": "Returns `true` if `account` has been granted `role`."
      },
      "renounceRole(bytes32,address)": {
        "details": "Revokes `role` from the calling account. Roles are often managed via {grantRole} and {revokeRole}: this function's purpose is to provide a mechanism for accounts to lose their privileges if they are compromised (such as when a trusted device is misplaced). If the calling account had been revoked `role`, emits a {RoleRevoked} event. Requirements: - the caller must be `account`."
      },
      "revokeRole(bytes32,address)": {
        "details": "Revokes `role` from `account`. If `account` had been granted `role`, emits a {RoleRevoked} event. Requirements: - the caller must have ``role``'s admin role."
      },
      "supportsInterface(bytes4)": {
        "details": "See {IERC165-supportsInterface}."
      }
    },
    "version": 1
  },
  "userdoc": {
    "kind": "user",
    "methods": {},
    "version": 1
  }
}