{
  "contractName": "CoveyToken",
  "abi": [
    {
      "inputs": [
        {
          "internalType": "uint256",
          "name": "initialSupply",
          "type": "uint256"
        },
        {
          "internalType": "address[]",
          "name": "defaultOperators",
          "type": "address[]"
        }
      ],
      "stateMutability": "nonpayable",
      "type": "constructor"
    },
    {
      "anonymous": false,
      "inputs": [
        {
          "indexed": true,
          "internalType": "address",
          "name": "owner",
          "type": "address"
        },
        {
          "indexed": true,
          "internalType": "address",
          "name": "spender",
          "type": "address"
        },
        {
          "indexed": false,
          "internalType": "uint256",
          "name": "value",
          "type": "uint256"
        }
      ],
      "name": "Approval",
      "type": "event"
    },
    {
      "anonymous": false,
      "inputs": [
        {
          "indexed": true,
          "internalType": "address",
          "name": "operator",
          "type": "address"
        },
        {
          "indexed": true,
          "internalType": "address",
          "name": "tokenHolder",
          "type": "address"
        }
      ],
      "name": "AuthorizedOperator",
      "type": "event"
    },
    {
      "anonymous": false,
      "inputs": [
        {
          "indexed": true,
          "internalType": "address",
          "name": "operator",
          "type": "address"
        },
        {
          "indexed": true,
          "internalType": "address",
          "name": "from",
          "type": "address"
        },
        {
          "indexed": false,
          "internalType": "uint256",
          "name": "amount",
          "type": "uint256"
        },
        {
          "indexed": false,
          "internalType": "bytes",
          "name": "data",
          "type": "bytes"
        },
        {
          "indexed": false,
          "internalType": "bytes",
          "name": "operatorData",
          "type": "bytes"
        }
      ],
      "name": "Burned",
      "type": "event"
    },
    {
      "anonymous": false,
      "inputs": [
        {
          "indexed": true,
          "internalType": "address",
          "name": "operator",
          "type": "address"
        },
        {
          "indexed": true,
          "internalType": "address",
          "name": "to",
          "type": "address"
        },
        {
          "indexed": false,
          "internalType": "uint256",
          "name": "amount",
          "type": "uint256"
        },
        {
          "indexed": false,
          "internalType": "bytes",
          "name": "data",
          "type": "bytes"
        },
        {
          "indexed": false,
          "internalType": "bytes",
          "name": "operatorData",
          "type": "bytes"
        }
      ],
      "name": "Minted",
      "type": "event"
    },
    {
      "anonymous": false,
      "inputs": [
        {
          "indexed": true,
          "internalType": "address",
          "name": "previousOwner",
          "type": "address"
        },
        {
          "indexed": true,
          "internalType": "address",
          "name": "newOwner",
          "type": "address"
        }
      ],
      "name": "OwnershipTransferred",
      "type": "event"
    },
    {
      "anonymous": false,
      "inputs": [
        {
          "indexed": true,
          "internalType": "address",
          "name": "operator",
          "type": "address"
        },
        {
          "indexed": true,
          "internalType": "address",
          "name": "tokenHolder",
          "type": "address"
        }
      ],
      "name": "RevokedOperator",
      "type": "event"
    },
    {
      "anonymous": false,
      "inputs": [
        {
          "indexed": true,
          "internalType": "address",
          "name": "operator",
          "type": "address"
        },
        {
          "indexed": true,
          "internalType": "address",
          "name": "from",
          "type": "address"
        },
        {
          "indexed": true,
          "internalType": "address",
          "name": "to",
          "type": "address"
        },
        {
          "indexed": false,
          "internalType": "uint256",
          "name": "amount",
          "type": "uint256"
        },
        {
          "indexed": false,
          "internalType": "bytes",
          "name": "data",
          "type": "bytes"
        },
        {
          "indexed": false,
          "internalType": "bytes",
          "name": "operatorData",
          "type": "bytes"
        }
      ],
      "name": "Sent",
      "type": "event"
    },
    {
      "anonymous": false,
      "inputs": [
        {
          "indexed": true,
          "internalType": "address",
          "name": "from",
          "type": "address"
        },
        {
          "indexed": true,
          "internalType": "address",
          "name": "to",
          "type": "address"
        },
        {
          "indexed": false,
          "internalType": "uint256",
          "name": "value",
          "type": "uint256"
        }
      ],
      "name": "Transfer",
      "type": "event"
    },
    {
      "inputs": [
        {
          "internalType": "address",
          "name": "holder",
          "type": "address"
        },
        {
          "internalType": "address",
          "name": "spender",
          "type": "address"
        }
      ],
      "name": "allowance",
      "outputs": [
        {
          "internalType": "uint256",
          "name": "",
          "type": "uint256"
        }
      ],
      "stateMutability": "view",
      "type": "function",
      "constant": true
    },
    {
      "inputs": [
        {
          "internalType": "address",
          "name": "spender",
          "type": "address"
        },
        {
          "internalType": "uint256",
          "name": "value",
          "type": "uint256"
        }
      ],
      "name": "approve",
      "outputs": [
        {
          "internalType": "bool",
          "name": "",
          "type": "bool"
        }
      ],
      "stateMutability": "nonpayable",
      "type": "function"
    },
    {
      "inputs": [
        {
          "internalType": "address",
          "name": "operator",
          "type": "address"
        }
      ],
      "name": "authorizeOperator",
      "outputs": [],
      "stateMutability": "nonpayable",
      "type": "function"
    },
    {
      "inputs": [
        {
          "internalType": "address",
          "name": "tokenHolder",
          "type": "address"
        }
      ],
      "name": "balanceOf",
      "outputs": [
        {
          "internalType": "uint256",
          "name": "",
          "type": "uint256"
        }
      ],
      "stateMutability": "view",
      "type": "function",
      "constant": true
    },
    {
      "inputs": [
        {
          "internalType": "uint256",
          "name": "amount",
          "type": "uint256"
        },
        {
          "internalType": "bytes",
          "name": "data",
          "type": "bytes"
        }
      ],
      "name": "burn",
      "outputs": [],
      "stateMutability": "nonpayable",
      "type": "function"
    },
    {
      "inputs": [],
      "name": "decimals",
      "outputs": [
        {
          "internalType": "uint8",
          "name": "",
          "type": "uint8"
        }
      ],
      "stateMutability": "pure",
      "type": "function",
      "constant": true
    },
    {
      "inputs": [],
      "name": "defaultOperators",
      "outputs": [
        {
          "internalType": "address[]",
          "name": "",
          "type": "address[]"
        }
      ],
      "stateMutability": "view",
      "type": "function",
      "constant": true
    },
    {
      "inputs": [],
      "name": "granularity",
      "outputs": [
        {
          "internalType": "uint256",
          "name": "",
          "type": "uint256"
        }
      ],
      "stateMutability": "view",
      "type": "function",
      "constant": true
    },
    {
      "inputs": [
        {
          "internalType": "address",
          "name": "operator",
          "type": "address"
        },
        {
          "internalType": "address",
          "name": "tokenHolder",
          "type": "address"
        }
      ],
      "name": "isOperatorFor",
      "outputs": [
        {
          "internalType": "bool",
          "name": "",
          "type": "bool"
        }
      ],
      "stateMutability": "view",
      "type": "function",
      "constant": true
    },
    {
      "inputs": [],
      "name": "name",
      "outputs": [
        {
          "internalType": "string",
          "name": "",
          "type": "string"
        }
      ],
      "stateMutability": "view",
      "type": "function",
      "constant": true
    },
    {
      "inputs": [
        {
          "internalType": "address",
          "name": "account",
          "type": "address"
        },
        {
          "internalType": "uint256",
          "name": "amount",
          "type": "uint256"
        },
        {
          "internalType": "bytes",
          "name": "data",
          "type": "bytes"
        },
        {
          "internalType": "bytes",
          "name": "operatorData",
          "type": "bytes"
        }
      ],
      "name": "operatorBurn",
      "outputs": [],
      "stateMutability": "nonpayable",
      "type": "function"
    },
    {
      "inputs": [
        {
          "internalType": "address",
          "name": "sender",
          "type": "address"
        },
        {
          "internalType": "address",
          "name": "recipient",
          "type": "address"
        },
        {
          "internalType": "uint256",
          "name": "amount",
          "type": "uint256"
        },
        {
          "internalType": "bytes",
          "name": "data",
          "type": "bytes"
        },
        {
          "internalType": "bytes",
          "name": "operatorData",
          "type": "bytes"
        }
      ],
      "name": "operatorSend",
      "outputs": [],
      "stateMutability": "nonpayable",
      "type": "function"
    },
    {
      "inputs": [],
      "name": "owner",
      "outputs": [
        {
          "internalType": "address",
          "name": "",
          "type": "address"
        }
      ],
      "stateMutability": "view",
      "type": "function",
      "constant": true
    },
    {
      "inputs": [],
      "name": "renounceOwnership",
      "outputs": [],
      "stateMutability": "nonpayable",
      "type": "function"
    },
    {
      "inputs": [
        {
          "internalType": "address",
          "name": "operator",
          "type": "address"
        }
      ],
      "name": "revokeOperator",
      "outputs": [],
      "stateMutability": "nonpayable",
      "type": "function"
    },
    {
      "inputs": [
        {
          "internalType": "address",
          "name": "recipient",
          "type": "address"
        },
        {
          "internalType": "uint256",
          "name": "amount",
          "type": "uint256"
        },
        {
          "internalType": "bytes",
          "name": "data",
          "type": "bytes"
        }
      ],
      "name": "send",
      "outputs": [],
      "stateMutability": "nonpayable",
      "type": "function"
    },
    {
      "inputs": [],
      "name": "symbol",
      "outputs": [
        {
          "internalType": "string",
          "name": "",
          "type": "string"
        }
      ],
      "stateMutability": "view",
      "type": "function",
      "constant": true
    },
    {
      "inputs": [],
      "name": "totalSupply",
      "outputs": [
        {
          "internalType": "uint256",
          "name": "",
          "type": "uint256"
        }
      ],
      "stateMutability": "view",
      "type": "function",
      "constant": true
    },
    {
      "inputs": [
        {
          "internalType": "address",
          "name": "recipient",
          "type": "address"
        },
        {
          "internalType": "uint256",
          "name": "amount",
          "type": "uint256"
        }
      ],
      "name": "transfer",
      "outputs": [
        {
          "internalType": "bool",
          "name": "",
          "type": "bool"
        }
      ],
      "stateMutability": "nonpayable",
      "type": "function"
    },
    {
      "inputs": [
        {
          "internalType": "address",
          "name": "holder",
          "type": "address"
        },
        {
          "internalType": "address",
          "name": "recipient",
          "type": "address"
        },
        {
          "internalType": "uint256",
          "name": "amount",
          "type": "uint256"
        }
      ],
      "name": "transferFrom",
      "outputs": [
        {
          "internalType": "bool",
          "name": "",
          "type": "bool"
        }
      ],
      "stateMutability": "nonpayable",
      "type": "function"
    },
    {
      "inputs": [
        {
          "internalType": "address",
          "name": "newOwner",
          "type": "address"
        }
      ],
      "name": "transferOwnership",
      "outputs": [],
      "stateMutability": "nonpayable",
      "type": "function"
    },
    {
      "inputs": [
        {
          "internalType": "address[]",
          "name": "recipients",
          "type": "address[]"
        },
        {
          "internalType": "uint256[]",
          "name": "amounts",
          "type": "uint256[]"
        }
      ],
      "name": "airdrop",
      "outputs": [],
      "stateMutability": "nonpayable",
      "type": "function"
    }
  ],
  "bytecode": "0x60806040523480156200001157600080fd5b506040516200480d3803806200480d833981810160405281019062000037919062000b9d565b6040518060400160405280600581526020017f436f7665790000000000000000000000000000000000000000000000000000008152506040518060400160405280600381526020017f4356590000000000000000000000000000000000000000000000000000000000815250828260029080519060200190620000bc92919062000835565b508160039080519060200190620000d592919062000835565b508060049080519060200190620000ee929190620008c6565b5060005b8151811015620001875760016005600084848151811062000118576200011762000c03565b5b602002602001015173ffffffffffffffffffffffffffffffffffffffff1673ffffffffffffffffffffffffffffffffffffffff16815260200190815260200160002060006101000a81548160ff02191690831515021790555080806200017e9062000c61565b915050620000f2565b50731820a4b7618bde71dce8cdc73aab6c95905fad2473ffffffffffffffffffffffffffffffffffffffff166329965a1d307fac7fbab5f54a3ca8194167523c6753bfeb96a445279294b6125b68cce2177054306040518463ffffffff1660e01b8152600401620001fb9392919062000cdb565b600060405180830381600087803b1580156200021657600080fd5b505af11580156200022b573d6000803e3d6000fd5b50505050731820a4b7618bde71dce8cdc73aab6c95905fad2473ffffffffffffffffffffffffffffffffffffffff166329965a1d307faea199e31a596269b42cdafd93407f14436db6e4cad65417994c2eb37381e05a306040518463ffffffff1660e01b8152600401620002a29392919062000cdb565b600060405180830381600087803b158015620002bd57600080fd5b505af1158015620002d2573d6000803e3d6000fd5b50505050505050620002f9620002ed6200033360201b60201c565b6200033b60201b60201c565b6200032b338360405180602001604052806000815250604051806020016040528060008152506200040160201b60201c565b505062001101565b600033905090565b6000600960009054906101000a900473ffffffffffffffffffffffffffffffffffffffff16905081600960006101000a81548173ffffffffffffffffffffffffffffffffffffffff021916908373ffffffffffffffffffffffffffffffffffffffff1602179055508173ffffffffffffffffffffffffffffffffffffffff168173ffffffffffffffffffffffffffffffffffffffff167f8be0079c531659141344cd1fd0a4f28419497f9722a3daafe3b4186f6b6457e060405160405180910390a35050565b620004178484848460016200041d60201b60201c565b50505050565b600073ffffffffffffffffffffffffffffffffffffffff168573ffffffffffffffffffffffffffffffffffffffff16141562000490576040517f08c379a0000000000000000000000000000000000000000000000000000000008152600401620004879062000d79565b60405180910390fd5b6000620004a26200033360201b60201c565b9050620004b981600088886200061e60201b60201c565b8460016000828254620004cd919062000d9b565b92505081905550846000808873ffffffffffffffffffffffffffffffffffffffff1673ffffffffffffffffffffffffffffffffffffffff168152602001908152602001600020600082825462000524919062000d9b565b925050819055506200054381600088888888886200062460201b60201c565b8573ffffffffffffffffffffffffffffffffffffffff168173ffffffffffffffffffffffffffffffffffffffff167f2fe5be0146f74c5bce36c0b80911af6c7d86ff27e89d5cfa61fc681327954e5d878787604051620005a69392919062000e9c565b60405180910390a38573ffffffffffffffffffffffffffffffffffffffff16600073ffffffffffffffffffffffffffffffffffffffff167fddf252ad1be2c89b69c2b068fc378daa952ba7f163c4a11628f55a4df523b3ef876040516200060e919062000ee7565b60405180910390a3505050505050565b50505050565b6000731820a4b7618bde71dce8cdc73aab6c95905fad2473ffffffffffffffffffffffffffffffffffffffff1663aabbb8ca877fb281fc8c12954d22544db45de3159a39272895b169a852b314f9cc762e44c53b6040518363ffffffff1660e01b81526004016200069792919062000f04565b602060405180830381865afa158015620006b5573d6000803e3d6000fd5b505050506040513d601f19601f82011682018060405250810190620006db919062000f31565b9050600073ffffffffffffffffffffffffffffffffffffffff168173ffffffffffffffffffffffffffffffffffffffff161462000790578073ffffffffffffffffffffffffffffffffffffffff166223de298989898989896040518763ffffffff1660e01b8152600401620007569695949392919062000f63565b600060405180830381600087803b1580156200077157600080fd5b505af115801562000786573d6000803e3d6000fd5b5050505062000808565b81156200080757620007c38673ffffffffffffffffffffffffffffffffffffffff166200081260201b620014321760201c565b1562000806576040517f08c379a0000000000000000000000000000000000000000000000000000000008152600401620007fd906200107a565b60405180910390fd5b5b5b5050505050505050565b6000808273ffffffffffffffffffffffffffffffffffffffff163b119050919050565b8280546200084390620010cb565b90600052602060002090601f016020900481019282620008675760008555620008b3565b82601f106200088257805160ff1916838001178555620008b3565b82800160010185558215620008b3579182015b82811115620008b257825182559160200191906001019062000895565b5b509050620008c2919062000955565b5090565b82805482825590600052602060002090810192821562000942579160200282015b82811115620009415782518260006101000a81548173ffffffffffffffffffffffffffffffffffffffff021916908373ffffffffffffffffffffffffffffffffffffffff16021790555091602001919060010190620008e7565b5b50905062000951919062000955565b5090565b5b808211156200097057600081600090555060010162000956565b5090565b6000604051905090565b600080fd5b600080fd5b6000819050919050565b6200099d8162000988565b8114620009a957600080fd5b50565b600081519050620009bd8162000992565b92915050565b600080fd5b6000601f19601f8301169050919050565b7f4e487b7100000000000000000000000000000000000000000000000000000000600052604160045260246000fd5b62000a1382620009c8565b810181811067ffffffffffffffff8211171562000a355762000a34620009d9565b5b80604052505050565b600062000a4a62000974565b905062000a58828262000a08565b919050565b600067ffffffffffffffff82111562000a7b5762000a7a620009d9565b5b602082029050602081019050919050565b600080fd5b600073ffffffffffffffffffffffffffffffffffffffff82169050919050565b600062000abe8262000a91565b9050919050565b62000ad08162000ab1565b811462000adc57600080fd5b50565b60008151905062000af08162000ac5565b92915050565b600062000b0d62000b078462000a5d565b62000a3e565b9050808382526020820190506020840283018581111562000b335762000b3262000a8c565b5b835b8181101562000b60578062000b4b888262000adf565b84526020840193505060208101905062000b35565b5050509392505050565b600082601f83011262000b825762000b81620009c3565b5b815162000b9484826020860162000af6565b91505092915050565b6000806040838503121562000bb75762000bb66200097e565b5b600062000bc785828601620009ac565b925050602083015167ffffffffffffffff81111562000beb5762000bea62000983565b5b62000bf98582860162000b6a565b9150509250929050565b7f4e487b7100000000000000000000000000000000000000000000000000000000600052603260045260246000fd5b7f4e487b7100000000000000000000000000000000000000000000000000000000600052601160045260246000fd5b600062000c6e8262000988565b91507fffffffffffffffffffffffffffffffffffffffffffffffffffffffffffffffff82141562000ca45762000ca362000c32565b5b600182019050919050565b62000cba8162000ab1565b82525050565b6000819050919050565b62000cd58162000cc0565b82525050565b600060608201905062000cf2600083018662000caf565b62000d01602083018562000cca565b62000d10604083018462000caf565b949350505050565b600082825260208201905092915050565b7f4552433737373a206d696e7420746f20746865207a65726f2061646472657373600082015250565b600062000d6160208362000d18565b915062000d6e8262000d29565b602082019050919050565b6000602082019050818103600083015262000d948162000d52565b9050919050565b600062000da88262000988565b915062000db58362000988565b9250827fffffffffffffffffffffffffffffffffffffffffffffffffffffffffffffffff0382111562000ded5762000dec62000c32565b5b828201905092915050565b62000e038162000988565b82525050565b600081519050919050565b600082825260208201905092915050565b60005b8381101562000e4557808201518184015260208101905062000e28565b8381111562000e55576000848401525b50505050565b600062000e688262000e09565b62000e74818562000e14565b935062000e8681856020860162000e25565b62000e9181620009c8565b840191505092915050565b600060608201905062000eb3600083018662000df8565b818103602083015262000ec7818562000e5b565b9050818103604083015262000edd818462000e5b565b9050949350505050565b600060208201905062000efe600083018462000df8565b92915050565b600060408201905062000f1b600083018562000caf565b62000f2a602083018462000cca565b9392505050565b60006020828403121562000f4a5762000f496200097e565b5b600062000f5a8482850162000adf565b91505092915050565b600060c08201905062000f7a600083018962000caf565b62000f89602083018862000caf565b62000f98604083018762000caf565b62000fa7606083018662000df8565b818103608083015262000fbb818562000e5b565b905081810360a083015262000fd1818462000e5b565b9050979650505050505050565b7f4552433737373a20746f6b656e20726563697069656e7420636f6e747261637460008201527f20686173206e6f20696d706c656d656e74657220666f7220455243373737546f60208201527f6b656e73526563697069656e7400000000000000000000000000000000000000604082015250565b600062001062604d8362000d18565b91506200106f8262000fde565b606082019050919050565b60006020820190508181036000830152620010958162001053565b9050919050565b7f4e487b7100000000000000000000000000000000000000000000000000000000600052602260045260246000fd5b60006002820490506001821680620010e457607f821691505b60208210811415620010fb57620010fa6200109c565b5b50919050565b6136fc80620011116000396000f3fe608060405234801561001057600080fd5b50600436106101425760003560e01c80638da5cb5b116100b8578063d95b63711161007c578063d95b637114610353578063dd62ed3e14610383578063f2fde38b146103b3578063fad8b32a146103cf578063fc673c4f146103eb578063fe9d93031461040757610142565b80638da5cb5b146102af578063959b8c3f146102cd57806395d89b41146102e95780639bd9bbc614610307578063a9059cbb1461032357610142565b8063313ce5671161010a578063313ce56714610201578063556f0dc71461021f57806362ad1b831461023d578063672434821461025957806370a0823114610275578063715018a6146102a557610142565b806306e485381461014757806306fdde0314610165578063095ea7b31461018357806318160ddd146101b357806323b872dd146101d1575b600080fd5b61014f610423565b60405161015c919061214f565b60405180910390f35b61016d6104b1565b60405161017a919061220a565b60405180910390f35b61019d600480360381019061019891906122a2565b610543565b6040516101aa91906122fd565b60405180910390f35b6101bb610566565b6040516101c89190612327565b60405180910390f35b6101eb60048036038101906101e69190612342565b610570565b6040516101f891906122fd565b60405180910390f35b6102096106fa565b60405161021691906123b1565b60405180910390f35b610227610703565b6040516102349190612327565b60405180910390f35b61025760048036038101906102529190612501565b61070c565b005b610273600480360381019061026e919061273f565b610772565b005b61028f600480360381019061028a91906127b7565b6108f4565b60405161029c9190612327565b60405180910390f35b6102ad61093c565b005b6102b76109c4565b6040516102c491906127f3565b60405180910390f35b6102e760048036038101906102e291906127b7565b6109ee565b005b6102f1610c4f565b6040516102fe919061220a565b60405180910390f35b610321600480360381019061031c919061280e565b610ce1565b005b61033d600480360381019061033891906122a2565b610d0b565b60405161034a91906122fd565b60405180910390f35b61036d6004803603810190610368919061287d565b610e19565b60405161037a91906122fd565b60405180910390f35b61039d6004803603810190610398919061287d565b610fca565b6040516103aa9190612327565b60405180910390f35b6103cd60048036038101906103c891906127b7565b611051565b005b6103e960048036038101906103e491906127b7565b611149565b005b610405600480360381019061040091906128bd565b6113aa565b005b610421600480360381019061041c919061295c565b61140c565b005b606060048054806020026020016040519081016040528092919081815260200182805480156104a757602002820191906000526020600020905b8160009054906101000a900473ffffffffffffffffffffffffffffffffffffffff1673ffffffffffffffffffffffffffffffffffffffff168152602001906001019080831161045d575b5050505050905090565b6060600280546104c0906129e7565b80601f01602080910402602001604051908101604052809291908181526020018280546104ec906129e7565b80156105395780601f1061050e57610100808354040283529160200191610539565b820191906000526020600020905b81548152906001019060200180831161051c57829003601f168201915b5050505050905090565b60008061054e611455565b905061055b81858561145d565b600191505092915050565b6000600154905090565b60008073ffffffffffffffffffffffffffffffffffffffff168373ffffffffffffffffffffffffffffffffffffffff1614156105e1576040517f08c379a00000000000000000000000000000000000000000000000000000000081526004016105d890612a8b565b60405180910390fd5b600073ffffffffffffffffffffffffffffffffffffffff168473ffffffffffffffffffffffffffffffffffffffff161415610651576040517f08c379a000000000000000000000000000000000000000000000000000000000815260040161064890612b1d565b60405180910390fd5b600061065b611455565b9050610689818686866040518060200160405280600081525060405180602001604052806000815250611628565b61069485828561178f565b6106c081868686604051806020016040528060008152506040518060200160405280600081525061181b565b6106ee8186868660405180602001604052806000815250604051806020016040528060008152506000611a35565b60019150509392505050565b60006012905090565b60006001905090565b61071d610717611455565b86610e19565b61075c576040517f08c379a000000000000000000000000000000000000000000000000000000000815260040161075390612baf565b60405180910390fd5b61076b85858585856001611c07565b5050505050565b3073ffffffffffffffffffffffffffffffffffffffff163373ffffffffffffffffffffffffffffffffffffffff1614806107de57506107af6109c4565b73ffffffffffffffffffffffffffffffffffffffff163373ffffffffffffffffffffffffffffffffffffffff16145b806107ef57506107ee3330610e19565b5b61082e576040517f08c379a000000000000000000000000000000000000000000000000000000000815260040161082590612c41565b60405180910390fd5b610836611d27565b61084357610842612c61565b5b60005b82518110156108ef576000670de0b6b3a764000083838151811061086d5761086c612c90565b5b602002602001015161087f9190612cee565b90506108db84838151811061089757610896612c90565b5b6020026020010151826040518060400160405280600781526020017f41697264726f7000000000000000000000000000000000000000000000000000815250610ce1565b5080806108e790612d48565b915050610846565b505050565b60008060008373ffffffffffffffffffffffffffffffffffffffff1673ffffffffffffffffffffffffffffffffffffffff168152602001908152602001600020549050919050565b610944611455565b73ffffffffffffffffffffffffffffffffffffffff166109626109c4565b73ffffffffffffffffffffffffffffffffffffffff16146109b8576040517f08c379a00000000000000000000000000000000000000000000000000000000081526004016109af90612ddd565b60405180910390fd5b6109c26000611d40565b565b6000600960009054906101000a900473ffffffffffffffffffffffffffffffffffffffff16905090565b8073ffffffffffffffffffffffffffffffffffffffff16610a0d611455565b73ffffffffffffffffffffffffffffffffffffffff161415610a64576040517f08c379a0000000000000000000000000000000000000000000000000000000008152600401610a5b90612e6f565b60405180910390fd5b600560008273ffffffffffffffffffffffffffffffffffffffff1673ffffffffffffffffffffffffffffffffffffffff16815260200190815260200160002060009054906101000a900460ff1615610b4e5760076000610ac2611455565b73ffffffffffffffffffffffffffffffffffffffff1673ffffffffffffffffffffffffffffffffffffffff16815260200190815260200160002060008273ffffffffffffffffffffffffffffffffffffffff1673ffffffffffffffffffffffffffffffffffffffff16815260200190815260200160002060006101000a81549060ff0219169055610beb565b600160066000610b5c611455565b73ffffffffffffffffffffffffffffffffffffffff1673ffffffffffffffffffffffffffffffffffffffff16815260200190815260200160002060008373ffffffffffffffffffffffffffffffffffffffff1673ffffffffffffffffffffffffffffffffffffffff16815260200190815260200160002060006101000a81548160ff0219169083151502179055505b610bf3611455565b73ffffffffffffffffffffffffffffffffffffffff168173ffffffffffffffffffffffffffffffffffffffff167ff4caeb2d6ca8932a215a353d0703c326ec2d81fc68170f320eb2ab49e9df61f960405160405180910390a350565b606060038054610c5e906129e7565b80601f0160208091040260200160405190810160405280929190818152602001828054610c8a906129e7565b8015610cd75780601f10610cac57610100808354040283529160200191610cd7565b820191906000526020600020905b815481529060010190602001808311610cba57829003601f168201915b5050505050905090565b610d06610cec611455565b848484604051806020016040528060008152506001611c07565b505050565b60008073ffffffffffffffffffffffffffffffffffffffff168373ffffffffffffffffffffffffffffffffffffffff161415610d7c576040517f08c379a0000000000000000000000000000000000000000000000000000000008152600401610d7390612a8b565b60405180910390fd5b6000610d86611455565b9050610db4818286866040518060200160405280600081525060405180602001604052806000815250611628565b610de081828686604051806020016040528060008152506040518060200160405280600081525061181b565b610e0e8182868660405180602001604052806000815250604051806020016040528060008152506000611a35565b600191505092915050565b60008173ffffffffffffffffffffffffffffffffffffffff168373ffffffffffffffffffffffffffffffffffffffff161480610f315750600560008473ffffffffffffffffffffffffffffffffffffffff1673ffffffffffffffffffffffffffffffffffffffff16815260200190815260200160002060009054906101000a900460ff168015610f305750600760008373ffffffffffffffffffffffffffffffffffffffff1673ffffffffffffffffffffffffffffffffffffffff16815260200190815260200160002060008473ffffffffffffffffffffffffffffffffffffffff1673ffffffffffffffffffffffffffffffffffffffff16815260200190815260200160002060009054906101000a900460ff16155b5b80610fc25750600660008373ffffffffffffffffffffffffffffffffffffffff1673ffffffffffffffffffffffffffffffffffffffff16815260200190815260200160002060008473ffffffffffffffffffffffffffffffffffffffff1673ffffffffffffffffffffffffffffffffffffffff16815260200190815260200160002060009054906101000a900460ff165b905092915050565b6000600860008473ffffffffffffffffffffffffffffffffffffffff1673ffffffffffffffffffffffffffffffffffffffff16815260200190815260200160002060008373ffffffffffffffffffffffffffffffffffffffff1673ffffffffffffffffffffffffffffffffffffffff16815260200190815260200160002054905092915050565b611059611455565b73ffffffffffffffffffffffffffffffffffffffff166110776109c4565b73ffffffffffffffffffffffffffffffffffffffff16146110cd576040517f08c379a00000000000000000000000000000000000000000000000000000000081526004016110c490612ddd565b60405180910390fd5b600073ffffffffffffffffffffffffffffffffffffffff168173ffffffffffffffffffffffffffffffffffffffff16141561113d576040517f08c379a000000000000000000000000000000000000000000000000000000000815260040161113490612f01565b60405180910390fd5b61114681611d40565b50565b611151611455565b73ffffffffffffffffffffffffffffffffffffffff168173ffffffffffffffffffffffffffffffffffffffff1614156111bf576040517f08c379a00000000000000000000000000000000000000000000000000000000081526004016111b690612f93565b60405180910390fd5b600560008273ffffffffffffffffffffffffffffffffffffffff1673ffffffffffffffffffffffffffffffffffffffff16815260200190815260200160002060009054906101000a900460ff16156112b25760016007600061121f611455565b73ffffffffffffffffffffffffffffffffffffffff1673ffffffffffffffffffffffffffffffffffffffff16815260200190815260200160002060008373ffffffffffffffffffffffffffffffffffffffff1673ffffffffffffffffffffffffffffffffffffffff16815260200190815260200160002060006101000a81548160ff021916908315150217905550611346565b600660006112be611455565b73ffffffffffffffffffffffffffffffffffffffff1673ffffffffffffffffffffffffffffffffffffffff16815260200190815260200160002060008273ffffffffffffffffffffffffffffffffffffffff1673ffffffffffffffffffffffffffffffffffffffff16815260200190815260200160002060006101000a81549060ff02191690555b61134e611455565b73ffffffffffffffffffffffffffffffffffffffff168173ffffffffffffffffffffffffffffffffffffffff167f50546e66e5f44d728365dc3908c63bc5cfeeab470722c1677e3073a6ac294aa160405160405180910390a350565b6113bb6113b5611455565b85610e19565b6113fa576040517f08c379a00000000000000000000000000000000000000000000000000000000081526004016113f190612baf565b60405180910390fd5b61140684848484611e06565b50505050565b61142e611417611455565b838360405180602001604052806000815250611e06565b5050565b6000808273ffffffffffffffffffffffffffffffffffffffff163b119050919050565b600033905090565b600073ffffffffffffffffffffffffffffffffffffffff168373ffffffffffffffffffffffffffffffffffffffff1614156114cd576040517f08c379a00000000000000000000000000000000000000000000000000000000081526004016114c490613025565b60405180910390fd5b600073ffffffffffffffffffffffffffffffffffffffff168273ffffffffffffffffffffffffffffffffffffffff16141561153d576040517f08c379a0000000000000000000000000000000000000000000000000000000008152600401611534906130b7565b60405180910390fd5b80600860008573ffffffffffffffffffffffffffffffffffffffff1673ffffffffffffffffffffffffffffffffffffffff16815260200190815260200160002060008473ffffffffffffffffffffffffffffffffffffffff1673ffffffffffffffffffffffffffffffffffffffff168152602001908152602001600020819055508173ffffffffffffffffffffffffffffffffffffffff168373ffffffffffffffffffffffffffffffffffffffff167f8c5be1e5ebec7d5bd14f71427d1e84f3dd0314c0f7b2291e5b200ac8c7c3b9258360405161161b9190612327565b60405180910390a3505050565b6000731820a4b7618bde71dce8cdc73aab6c95905fad2473ffffffffffffffffffffffffffffffffffffffff1663aabbb8ca877f29ddb589b1fb5fc7cf394961c1adf5f8c6454761adf795e67fe149f658abe8956040518363ffffffff1660e01b81526004016116999291906130f0565b602060405180830381865afa1580156116b6573d6000803e3d6000fd5b505050506040513d601f19601f820116820180604052508101906116da919061312e565b9050600073ffffffffffffffffffffffffffffffffffffffff168173ffffffffffffffffffffffffffffffffffffffff1614611786578073ffffffffffffffffffffffffffffffffffffffff166375ab97828888888888886040518763ffffffff1660e01b8152600401611753969594939291906131b0565b600060405180830381600087803b15801561176d57600080fd5b505af1158015611781573d6000803e3d6000fd5b505050505b50505050505050565b600061179b8484610fca565b90507fffffffffffffffffffffffffffffffffffffffffffffffffffffffffffffffff81146118155781811015611807576040517f08c379a00000000000000000000000000000000000000000000000000000000081526004016117fe9061326b565b60405180910390fd5b611814848484840361145d565b5b50505050565b61182786868686612059565b60008060008773ffffffffffffffffffffffffffffffffffffffff1673ffffffffffffffffffffffffffffffffffffffff168152602001908152602001600020549050838110156118ad576040517f08c379a00000000000000000000000000000000000000000000000000000000081526004016118a4906132fd565b60405180910390fd5b8381036000808873ffffffffffffffffffffffffffffffffffffffff1673ffffffffffffffffffffffffffffffffffffffff16815260200190815260200160002081905550836000808773ffffffffffffffffffffffffffffffffffffffff1673ffffffffffffffffffffffffffffffffffffffff1681526020019081526020016000206000828254611940919061331d565b925050819055508473ffffffffffffffffffffffffffffffffffffffff168673ffffffffffffffffffffffffffffffffffffffff168873ffffffffffffffffffffffffffffffffffffffff167f06b541ddaa720db2b10a4d0cdac39b8d360425fc073085fac19bc826146779878787876040516119bf93929190613373565b60405180910390a48473ffffffffffffffffffffffffffffffffffffffff168673ffffffffffffffffffffffffffffffffffffffff167fddf252ad1be2c89b69c2b068fc378daa952ba7f163c4a11628f55a4df523b3ef86604051611a249190612327565b60405180910390a350505050505050565b6000731820a4b7618bde71dce8cdc73aab6c95905fad2473ffffffffffffffffffffffffffffffffffffffff1663aabbb8ca877fb281fc8c12954d22544db45de3159a39272895b169a852b314f9cc762e44c53b6040518363ffffffff1660e01b8152600401611aa69291906130f0565b602060405180830381865afa158015611ac3573d6000803e3d6000fd5b505050506040513d601f19601f82011682018060405250810190611ae7919061312e565b9050600073ffffffffffffffffffffffffffffffffffffffff168173ffffffffffffffffffffffffffffffffffffffff1614611b96578073ffffffffffffffffffffffffffffffffffffffff166223de298989898989896040518763ffffffff1660e01b8152600401611b5f969594939291906131b0565b600060405180830381600087803b158015611b7957600080fd5b505af1158015611b8d573d6000803e3d6000fd5b50505050611bfd565b8115611bfc57611bbb8673ffffffffffffffffffffffffffffffffffffffff16611432565b15611bfb576040517f08c379a0000000000000000000000000000000000000000000000000000000008152600401611bf290613450565b60405180910390fd5b5b5b5050505050505050565b600073ffffffffffffffffffffffffffffffffffffffff168673ffffffffffffffffffffffffffffffffffffffff161415611c77576040517f08c379a0000000000000000000000000000000000000000000000000000000008152600401611c6e906134e2565b60405180910390fd5b600073ffffffffffffffffffffffffffffffffffffffff168573ffffffffffffffffffffffffffffffffffffffff161415611ce7576040517f08c379a0000000000000000000000000000000000000000000000000000000008152600401611cde9061354e565b60405180910390fd5b6000611cf1611455565b9050611d01818888888888611628565b611d0f81888888888861181b565b611d1e81888888888888611a35565b50505050505050565b600080611d3a611d356109c4565b6108f4565b11905090565b6000600960009054906101000a900473ffffffffffffffffffffffffffffffffffffffff16905081600960006101000a81548173ffffffffffffffffffffffffffffffffffffffff021916908373ffffffffffffffffffffffffffffffffffffffff1602179055508173ffffffffffffffffffffffffffffffffffffffff168173ffffffffffffffffffffffffffffffffffffffff167f8be0079c531659141344cd1fd0a4f28419497f9722a3daafe3b4186f6b6457e060405160405180910390a35050565b600073ffffffffffffffffffffffffffffffffffffffff168473ffffffffffffffffffffffffffffffffffffffff161415611e76576040517f08c379a0000000000000000000000000000000000000000000000000000000008152600401611e6d906135e0565b60405180910390fd5b6000611e80611455565b9050611e9181866000878787611628565b611e9e8186600087612059565b60008060008773ffffffffffffffffffffffffffffffffffffffff1673ffffffffffffffffffffffffffffffffffffffff16815260200190815260200160002054905084811015611f24576040517f08c379a0000000000000000000000000000000000000000000000000000000008152600401611f1b90613672565b60405180910390fd5b8481036000808873ffffffffffffffffffffffffffffffffffffffff1673ffffffffffffffffffffffffffffffffffffffff168152602001908152602001600020819055508460016000828254611f7b9190613692565b925050819055508573ffffffffffffffffffffffffffffffffffffffff168273ffffffffffffffffffffffffffffffffffffffff167fa78a9be3a7b862d26933ad85fb11d80ef66b8f972d7cbba06621d583943a4098878787604051611fe393929190613373565b60405180910390a3600073ffffffffffffffffffffffffffffffffffffffff168673ffffffffffffffffffffffffffffffffffffffff167fddf252ad1be2c89b69c2b068fc378daa952ba7f163c4a11628f55a4df523b3ef876040516120499190612327565b60405180910390a3505050505050565b50505050565b600081519050919050565b600082825260208201905092915050565b6000819050602082019050919050565b600073ffffffffffffffffffffffffffffffffffffffff82169050919050565b60006120b68261208b565b9050919050565b6120c6816120ab565b82525050565b60006120d883836120bd565b60208301905092915050565b6000602082019050919050565b60006120fc8261205f565b612106818561206a565b93506121118361207b565b8060005b8381101561214257815161212988826120cc565b9750612134836120e4565b925050600181019050612115565b5085935050505092915050565b6000602082019050818103600083015261216981846120f1565b905092915050565b600081519050919050565b600082825260208201905092915050565b60005b838110156121ab578082015181840152602081019050612190565b838111156121ba576000848401525b50505050565b6000601f19601f8301169050919050565b60006121dc82612171565b6121e6818561217c565b93506121f681856020860161218d565b6121ff816121c0565b840191505092915050565b6000602082019050818103600083015261222481846121d1565b905092915050565b6000604051905090565b600080fd5b600080fd5b612249816120ab565b811461225457600080fd5b50565b60008135905061226681612240565b92915050565b6000819050919050565b61227f8161226c565b811461228a57600080fd5b50565b60008135905061229c81612276565b92915050565b600080604083850312156122b9576122b8612236565b5b60006122c785828601612257565b92505060206122d88582860161228d565b9150509250929050565b60008115159050919050565b6122f7816122e2565b82525050565b600060208201905061231260008301846122ee565b92915050565b6123218161226c565b82525050565b600060208201905061233c6000830184612318565b92915050565b60008060006060848603121561235b5761235a612236565b5b600061236986828701612257565b935050602061237a86828701612257565b925050604061238b8682870161228d565b9150509250925092565b600060ff82169050919050565b6123ab81612395565b82525050565b60006020820190506123c660008301846123a2565b92915050565b600080fd5b600080fd5b7f4e487b7100000000000000000000000000000000000000000000000000000000600052604160045260246000fd5b61240e826121c0565b810181811067ffffffffffffffff8211171561242d5761242c6123d6565b5b80604052505050565b600061244061222c565b905061244c8282612405565b919050565b600067ffffffffffffffff82111561246c5761246b6123d6565b5b612475826121c0565b9050602081019050919050565b82818337600083830152505050565b60006124a461249f84612451565b612436565b9050828152602081018484840111156124c0576124bf6123d1565b5b6124cb848285612482565b509392505050565b600082601f8301126124e8576124e76123cc565b5b81356124f8848260208601612491565b91505092915050565b600080600080600060a0868803121561251d5761251c612236565b5b600061252b88828901612257565b955050602061253c88828901612257565b945050604061254d8882890161228d565b935050606086013567ffffffffffffffff81111561256e5761256d61223b565b5b61257a888289016124d3565b925050608086013567ffffffffffffffff81111561259b5761259a61223b565b5b6125a7888289016124d3565b9150509295509295909350565b600067ffffffffffffffff8211156125cf576125ce6123d6565b5b602082029050602081019050919050565b600080fd5b60006125f86125f3846125b4565b612436565b9050808382526020820190506020840283018581111561261b5761261a6125e0565b5b835b8181101561264457806126308882612257565b84526020840193505060208101905061261d565b5050509392505050565b600082601f830112612663576126626123cc565b5b81356126738482602086016125e5565b91505092915050565b600067ffffffffffffffff821115612697576126966123d6565b5b602082029050602081019050919050565b60006126bb6126b68461267c565b612436565b905080838252602082019050602084028301858111156126de576126dd6125e0565b5b835b8181101561270757806126f3888261228d565b8452602084019350506020810190506126e0565b5050509392505050565b600082601f830112612726576127256123cc565b5b81356127368482602086016126a8565b91505092915050565b6000806040838503121561275657612755612236565b5b600083013567ffffffffffffffff8111156127745761277361223b565b5b6127808582860161264e565b925050602083013567ffffffffffffffff8111156127a1576127a061223b565b5b6127ad85828601612711565b9150509250929050565b6000602082840312156127cd576127cc612236565b5b60006127db84828501612257565b91505092915050565b6127ed816120ab565b82525050565b600060208201905061280860008301846127e4565b92915050565b60008060006060848603121561282757612826612236565b5b600061283586828701612257565b93505060206128468682870161228d565b925050604084013567ffffffffffffffff8111156128675761286661223b565b5b612873868287016124d3565b9150509250925092565b6000806040838503121561289457612893612236565b5b60006128a285828601612257565b92505060206128b385828601612257565b9150509250929050565b600080600080608085870312156128d7576128d6612236565b5b60006128e587828801612257565b94505060206128f68782880161228d565b935050604085013567ffffffffffffffff8111156129175761291661223b565b5b612923878288016124d3565b925050606085013567ffffffffffffffff8111156129445761294361223b565b5b612950878288016124d3565b91505092959194509250565b6000806040838503121561297357612972612236565b5b60006129818582860161228d565b925050602083013567ffffffffffffffff8111156129a2576129a161223b565b5b6129ae858286016124d3565b9150509250929050565b7f4e487b7100000000000000000000000000000000000000000000000000000000600052602260045260246000fd5b600060028204905060018216806129ff57607f821691505b60208210811415612a1357612a126129b8565b5b50919050565b7f4552433737373a207472616e7366657220746f20746865207a65726f2061646460008201527f7265737300000000000000000000000000000000000000000000000000000000602082015250565b6000612a7560248361217c565b9150612a8082612a19565b604082019050919050565b60006020820190508181036000830152612aa481612a68565b9050919050565b7f4552433737373a207472616e736665722066726f6d20746865207a65726f206160008201527f6464726573730000000000000000000000000000000000000000000000000000602082015250565b6000612b0760268361217c565b9150612b1282612aab565b604082019050919050565b60006020820190508181036000830152612b3681612afa565b9050919050565b7f4552433737373a2063616c6c6572206973206e6f7420616e206f70657261746f60008201527f7220666f7220686f6c6465720000000000000000000000000000000000000000602082015250565b6000612b99602c8361217c565b9150612ba482612b3d565b604082019050919050565b60006020820190508181036000830152612bc881612b8c565b9050919050565b7f4f6e6c79206f776e6572206f72206f70657261746f722063616e2063616c6c2060008201527f746869732066756e6374696f6e00000000000000000000000000000000000000602082015250565b6000612c2b602d8361217c565b9150612c3682612bcf565b604082019050919050565b60006020820190508181036000830152612c5a81612c1e565b9050919050565b7f4e487b7100000000000000000000000000000000000000000000000000000000600052600160045260246000fd5b7f4e487b7100000000000000000000000000000000000000000000000000000000600052603260045260246000fd5b7f4e487b7100000000000000000000000000000000000000000000000000000000600052601160045260246000fd5b6000612cf98261226c565b9150612d048361226c565b9250817fffffffffffffffffffffffffffffffffffffffffffffffffffffffffffffffff0483118215151615612d3d57612d3c612cbf565b5b828202905092915050565b6000612d538261226c565b91507fffffffffffffffffffffffffffffffffffffffffffffffffffffffffffffffff821415612d8657612d85612cbf565b5b600182019050919050565b7f4f776e61626c653a2063616c6c6572206973206e6f7420746865206f776e6572600082015250565b6000612dc760208361217c565b9150612dd282612d91565b602082019050919050565b60006020820190508181036000830152612df681612dba565b9050919050565b7f4552433737373a20617574686f72697a696e672073656c66206173206f70657260008201527f61746f7200000000000000000000000000000000000000000000000000000000602082015250565b6000612e5960248361217c565b9150612e6482612dfd565b604082019050919050565b60006020820190508181036000830152612e8881612e4c565b9050919050565b7f4f776e61626c653a206e6577206f776e657220697320746865207a65726f206160008201527f6464726573730000000000000000000000000000000000000000000000000000602082015250565b6000612eeb60268361217c565b9150612ef682612e8f565b604082019050919050565b60006020820190508181036000830152612f1a81612ede565b9050919050565b7f4552433737373a207265766f6b696e672073656c66206173206f70657261746f60008201527f7200000000000000000000000000000000000000000000000000000000000000602082015250565b6000612f7d60218361217c565b9150612f8882612f21565b604082019050919050565b60006020820190508181036000830152612fac81612f70565b9050919050565b7f4552433737373a20617070726f76652066726f6d20746865207a65726f20616460008201527f6472657373000000000000000000000000000000000000000000000000000000602082015250565b600061300f60258361217c565b915061301a82612fb3565b604082019050919050565b6000602082019050818103600083015261303e81613002565b9050919050565b7f4552433737373a20617070726f766520746f20746865207a65726f206164647260008201527f6573730000000000000000000000000000000000000000000000000000000000602082015250565b60006130a160238361217c565b91506130ac82613045565b604082019050919050565b600060208201905081810360008301526130d081613094565b9050919050565b6000819050919050565b6130ea816130d7565b82525050565b600060408201905061310560008301856127e4565b61311260208301846130e1565b9392505050565b60008151905061312881612240565b92915050565b60006020828403121561314457613143612236565b5b600061315284828501613119565b91505092915050565b600081519050919050565b600082825260208201905092915050565b60006131828261315b565b61318c8185613166565b935061319c81856020860161218d565b6131a5816121c0565b840191505092915050565b600060c0820190506131c560008301896127e4565b6131d260208301886127e4565b6131df60408301876127e4565b6131ec6060830186612318565b81810360808301526131fe8185613177565b905081810360a08301526132128184613177565b9050979650505050505050565b7f4552433737373a20696e73756666696369656e7420616c6c6f77616e63650000600082015250565b6000613255601e8361217c565b91506132608261321f565b602082019050919050565b6000602082019050818103600083015261328481613248565b9050919050565b7f4552433737373a207472616e7366657220616d6f756e7420657863656564732060008201527f62616c616e636500000000000000000000000000000000000000000000000000602082015250565b60006132e760278361217c565b91506132f28261328b565b604082019050919050565b60006020820190508181036000830152613316816132da565b9050919050565b60006133288261226c565b91506133338361226c565b9250827fffffffffffffffffffffffffffffffffffffffffffffffffffffffffffffffff0382111561336857613367612cbf565b5b828201905092915050565b60006060820190506133886000830186612318565b818103602083015261339a8185613177565b905081810360408301526133ae8184613177565b9050949350505050565b7f4552433737373a20746f6b656e20726563697069656e7420636f6e747261637460008201527f20686173206e6f20696d706c656d656e74657220666f7220455243373737546f60208201527f6b656e73526563697069656e7400000000000000000000000000000000000000604082015250565b600061343a604d8361217c565b9150613445826133b8565b606082019050919050565b600060208201905081810360008301526134698161342d565b9050919050565b7f4552433737373a2073656e642066726f6d20746865207a65726f20616464726560008201527f7373000000000000000000000000000000000000000000000000000000000000602082015250565b60006134cc60228361217c565b91506134d782613470565b604082019050919050565b600060208201905081810360008301526134fb816134bf565b9050919050565b7f4552433737373a2073656e6420746f20746865207a65726f2061646472657373600082015250565b600061353860208361217c565b915061354382613502565b602082019050919050565b600060208201905081810360008301526135678161352b565b9050919050565b7f4552433737373a206275726e2066726f6d20746865207a65726f20616464726560008201527f7373000000000000000000000000000000000000000000000000000000000000602082015250565b60006135ca60228361217c565b91506135d58261356e565b604082019050919050565b600060208201905081810360008301526135f9816135bd565b9050919050565b7f4552433737373a206275726e20616d6f756e7420657863656564732062616c6160008201527f6e63650000000000000000000000000000000000000000000000000000000000602082015250565b600061365c60238361217c565b915061366782613600565b604082019050919050565b6000602082019050818103600083015261368b8161364f565b9050919050565b600061369d8261226c565b91506136a88361226c565b9250828210156136bb576136ba612cbf565b5b82820390509291505056fea26469706673582212206aee1309872e4cd295d21cd29fddc8fedd0cd847b63fbc258b15622fbfa91ed764736f6c634300080b0033",
  "immutableReferences": {},
  "source": "pragma solidity ^0.8.11;\n\nimport \"@openzeppelin/contracts/token/ERC777/ERC777.sol\";\nimport \"@openzeppelin/contracts/access/Ownable.sol\";\n\n\ncontract CoveyToken is ERC777, Ownable {\n\n  struct Airdrop {\n    address to;\n    uint amount;\n  }\n\n  constructor (uint initialSupply, address[] memory defaultOperators) ERC777(\"Covey\", \"CVY\", defaultOperators) {\n    _mint(msg.sender, initialSupply, \"\", \"\");\n  }\n\n  modifier _onlyOwnerOrOperators {\n    require(msg.sender == address(this) || msg.sender == owner() || isOperatorFor(msg.sender, address(this)), \"Only owner or operator can call this function\");\n    _;\n  }\n\n  modifier whenDropIsActive() {\n    assert(isActive());\n\n    _;\n  }\n\n  function isActive() view internal returns (bool) {\n    return (\n        balanceOf(owner()) > 0\n    );\n  }\n\n  function airdrop  (address[] memory recipients, uint256[] memory amounts) public _onlyOwnerOrOperators whenDropIsActive {\n    for(uint i = 0; i < recipients.length; i++) {\n      uint256 toSend = amounts[i] * 10**18;\n      send(recipients[i], toSend, \"Airdrop\");\n    }\n  }\n}",
  "sourcePath": "C:\\Users\\jcara\\Documents\\repos\\covey-token\\contracts\\CoveyToken.sol",
  "compiler": {
    "name": "solc",
    "version": "0.8.11+commit.d7f03943.Emscripten.clang"
  },
  "schemaVersion": "3.4.4",
  "updatedAt": "2022-04-21T14:42:09.871Z",
  "networkType": "ethereum",
  "devdoc": {
    "kind": "dev",
    "methods": {
      "allowance(address,address)": {
        "details": "See {IERC20-allowance}. Note that operator and allowance concepts are orthogonal: operators may not have allowance, and accounts with allowance may not be operators themselves."
      },
      "approve(address,uint256)": {
        "details": "See {IERC20-approve}. NOTE: If `value` is the maximum `uint256`, the allowance is not updated on `transferFrom`. This is semantically equivalent to an infinite approval. Note that accounts cannot have allowance issued by their operators."
      },
      "authorizeOperator(address)": {
        "details": "See {IERC777-authorizeOperator}."
      },
      "balanceOf(address)": {
        "details": "Returns the amount of tokens owned by an account (`tokenHolder`)."
      },
      "burn(uint256,bytes)": {
        "details": "See {IERC777-burn}. Also emits a {IERC20-Transfer} event for ERC20 compatibility."
      },
      "decimals()": {
        "details": "See {ERC20-decimals}. Always returns 18, as per the [ERC777 EIP](https://eips.ethereum.org/EIPS/eip-777#backward-compatibility)."
      },
      "defaultOperators()": {
        "details": "See {IERC777-defaultOperators}."
      },
      "granularity()": {
        "details": "See {IERC777-granularity}. This implementation always returns `1`."
      },
      "isOperatorFor(address,address)": {
        "details": "See {IERC777-isOperatorFor}."
      },
      "name()": {
        "details": "See {IERC777-name}."
      },
      "operatorBurn(address,uint256,bytes,bytes)": {
        "details": "See {IERC777-operatorBurn}. Emits {Burned} and {IERC20-Transfer} events."
      },
      "operatorSend(address,address,uint256,bytes,bytes)": {
        "details": "See {IERC777-operatorSend}. Emits {Sent} and {IERC20-Transfer} events."
      },
      "owner()": {
        "details": "Returns the address of the current owner."
      },
      "renounceOwnership()": {
        "details": "Leaves the contract without owner. It will not be possible to call `onlyOwner` functions anymore. Can only be called by the current owner. NOTE: Renouncing ownership will leave the contract without an owner, thereby removing any functionality that is only available to the owner."
      },
      "revokeOperator(address)": {
        "details": "See {IERC777-revokeOperator}."
      },
      "send(address,uint256,bytes)": {
        "details": "See {IERC777-send}. Also emits a {IERC20-Transfer} event for ERC20 compatibility."
      },
      "symbol()": {
        "details": "See {IERC777-symbol}."
      },
      "totalSupply()": {
        "details": "See {IERC777-totalSupply}."
      },
      "transfer(address,uint256)": {
        "details": "See {IERC20-transfer}. Unlike `send`, `recipient` is _not_ required to implement the {IERC777Recipient} interface if it is a contract. Also emits a {Sent} event."
      },
      "transferFrom(address,address,uint256)": {
        "details": "See {IERC20-transferFrom}. NOTE: Does not update the allowance if the current allowance is the maximum `uint256`. Note that operator and allowance concepts are orthogonal: operators cannot call `transferFrom` (unless they have allowance), and accounts with allowance cannot call `operatorSend` (unless they are operators). Emits {Sent}, {IERC20-Transfer} and {IERC20-Approval} events."
      },
      "transferOwnership(address)": {
        "details": "Transfers ownership of the contract to a new account (`newOwner`). Can only be called by the current owner."
      }
    },
    "version": 1
  },
  "userdoc": {
    "kind": "user",
    "methods": {},
    "version": 1
  }
}