{
  "contractName": "CoveyStaking",
  "abi": [
    {
      "anonymous": false,
      "inputs": [
        {
          "indexed": true,
          "internalType": "address",
          "name": "_adr",
          "type": "address"
        },
        {
          "indexed": false,
          "internalType": "uint256",
          "name": "amountLost",
          "type": "uint256"
        }
      ],
      "name": "Bankrupt",
      "type": "event"
    },
    {
      "anonymous": false,
      "inputs": [
        {
          "indexed": true,
          "internalType": "address",
          "name": "_adr",
          "type": "address"
        }
      ],
      "name": "CancelledUnstake",
      "type": "event"
    },
    {
      "anonymous": false,
      "inputs": [
        {
          "indexed": false,
          "internalType": "uint8",
          "name": "version",
          "type": "uint8"
        }
      ],
      "name": "Initialized",
      "type": "event"
    },
    {
      "anonymous": false,
      "inputs": [
        {
          "indexed": true,
          "internalType": "address",
          "name": "_adr",
          "type": "address"
        },
        {
          "indexed": false,
          "internalType": "uint256",
          "name": "amountDispensed",
          "type": "uint256"
        }
      ],
      "name": "StakeDispensed",
      "type": "event"
    },
    {
      "anonymous": false,
      "inputs": [
        {
          "indexed": true,
          "internalType": "address",
          "name": "_adr",
          "type": "address"
        },
        {
          "indexed": false,
          "internalType": "uint256",
          "name": "amount",
          "type": "uint256"
        }
      ],
      "name": "Staked",
      "type": "event"
    },
    {
      "anonymous": false,
      "inputs": [
        {
          "indexed": true,
          "internalType": "address",
          "name": "_adr",
          "type": "address"
        },
        {
          "indexed": false,
          "internalType": "uint256",
          "name": "amount",
          "type": "uint256"
        }
      ],
      "name": "TotalStaked",
      "type": "event"
    },
    {
      "anonymous": false,
      "inputs": [
        {
          "indexed": true,
          "internalType": "address",
          "name": "_adr",
          "type": "address"
        },
        {
          "indexed": false,
          "internalType": "uint256",
          "name": "amount",
          "type": "uint256"
        }
      ],
      "name": "TotalUnstaked",
      "type": "event"
    },
    {
      "anonymous": false,
      "inputs": [
        {
          "indexed": true,
          "internalType": "address",
          "name": "_adr",
          "type": "address"
        },
        {
          "indexed": false,
          "internalType": "uint256",
          "name": "amount",
          "type": "uint256"
        }
      ],
      "name": "Unstaked",
      "type": "event"
    },
    {
      "inputs": [
        {
          "internalType": "uint256",
          "name": "",
          "type": "uint256"
        }
      ],
      "name": "stakers",
      "outputs": [
        {
          "internalType": "address",
          "name": "",
          "type": "address"
        }
      ],
      "stateMutability": "view",
      "type": "function",
      "constant": true
    },
    {
      "inputs": [],
      "name": "stakingToken",
      "outputs": [
        {
          "internalType": "contract IERC20",
          "name": "",
          "type": "address"
        }
      ],
      "stateMutability": "view",
      "type": "function",
      "constant": true
    },
    {
      "inputs": [
        {
          "internalType": "contract IERC20",
          "name": "_stakingToken",
          "type": "address"
        }
      ],
      "name": "initialize",
      "outputs": [],
      "stateMutability": "nonpayable",
      "type": "function"
    },
    {
      "inputs": [
        {
          "internalType": "uint256",
          "name": "amount",
          "type": "uint256"
        }
      ],
      "name": "stake",
      "outputs": [],
      "stateMutability": "nonpayable",
      "type": "function"
    },
    {
      "inputs": [
        {
          "internalType": "uint256",
          "name": "amount",
          "type": "uint256"
        }
      ],
      "name": "unstake",
      "outputs": [],
      "stateMutability": "nonpayable",
      "type": "function"
    },
    {
      "inputs": [],
      "name": "cancelUnstake",
      "outputs": [],
      "stateMutability": "nonpayable",
      "type": "function"
    },
    {
      "inputs": [
        {
          "internalType": "address",
          "name": "_adr",
          "type": "address"
        }
      ],
      "name": "getTotalStaked",
      "outputs": [
        {
          "internalType": "uint256",
          "name": "",
          "type": "uint256"
        }
      ],
      "stateMutability": "view",
      "type": "function",
      "constant": true
    },
    {
      "inputs": [
        {
          "internalType": "address",
          "name": "_adr",
          "type": "address"
        }
      ],
      "name": "getTotalUnstaked",
      "outputs": [
        {
          "internalType": "uint256",
          "name": "",
          "type": "uint256"
        }
      ],
      "stateMutability": "view",
      "type": "function",
      "constant": true
    },
    {
      "inputs": [
        {
          "internalType": "address[]",
          "name": "bankruptAddresses",
          "type": "address[]"
        }
      ],
      "name": "dispenseStakes",
      "outputs": [],
      "stateMutability": "nonpayable",
      "type": "function"
    },
    {
      "inputs": [
        {
          "internalType": "address",
          "name": "staker",
          "type": "address"
        }
      ],
      "name": "getNetStaked",
      "outputs": [
        {
          "internalType": "uint256",
          "name": "",
          "type": "uint256"
        }
      ],
      "stateMutability": "view",
      "type": "function",
      "constant": true
    },
    {
      "inputs": [],
      "name": "getAllNetStaked",
      "outputs": [
        {
          "components": [
            {
              "internalType": "address",
              "name": "staker",
              "type": "address"
            },
            {
              "internalType": "uint256",
              "name": "stakedAmount",
              "type": "uint256"
            }
          ],
          "internalType": "struct CoveyStaking.StakeInfo[]",
          "name": "",
          "type": "tuple[]"
        }
      ],
      "stateMutability": "view",
      "type": "function",
      "constant": true
    }
  ],
  "bytecode": "0x608060405234801561001057600080fd5b506121a8806100206000396000f3fe608060405234801561001057600080fd5b50600436106100a95760003560e01c8063c4d66de811610071578063c4d66de81461012a578063dd2a8b1114610146578063ded2e7da14610176578063e14cf1e4146101a6578063ea6451e7146101c4578063fd5e6dd1146101f4576100a9565b80632e17de78146100ae5780634ab17969146100ca57806372f702f3146100d4578063739cead9146100f2578063a694fc3a1461010e575b600080fd5b6100c860048036038101906100c3919061180b565b610224565b005b6100d26104b3565b005b6100dc6105bd565b6040516100e991906118b7565b60405180910390f35b61010c60048036038101906101079190611937565b6105e3565b005b6101286004803603810190610123919061180b565b610f55565b005b610144600480360381019061013f91906119d4565b6112db565b005b610160600480360381019061015b9190611a2d565b6113ea565b60405161016d9190611a69565b60405180910390f35b610190600480360381019061018b9190611a2d565b611433565b60405161019d9190611a69565b60405180910390f35b6101ae611535565b6040516101bb9190611b80565b60405180910390f35b6101de60048036038101906101d99190611a2d565b611630565b6040516101eb9190611a69565b60405180910390f35b61020e6004803603810190610209919061180b565b611679565b60405161021b9190611bb1565b60405180910390f35b6000600260003373ffffffffffffffffffffffffffffffffffffffff1673ffffffffffffffffffffffffffffffffffffffff1681526020019081526020016000205414156102a7576040517f08c379a000000000000000000000000000000000000000000000000000000000815260040161029e90611c29565b60405180910390fd5b600081600360003373ffffffffffffffffffffffffffffffffffffffff1673ffffffffffffffffffffffffffffffffffffffff168152602001908152602001600020546102f49190611c78565b600260003373ffffffffffffffffffffffffffffffffffffffff1673ffffffffffffffffffffffffffffffffffffffff1681526020019081526020016000205461033e9190611cce565b101561037f576040517f08c379a000000000000000000000000000000000000000000000000000000000815260040161037690611d74565b60405180910390fd5b80600360003373ffffffffffffffffffffffffffffffffffffffff1673ffffffffffffffffffffffffffffffffffffffff16815260200190815260200160002060008282546103ce9190611c78565b925050819055503373ffffffffffffffffffffffffffffffffffffffff167f0f5bb82176feb1b5e747e28471aa92156a04d9f3ab9f45f28e2d704232b93f758260405161041b9190611a69565b60405180910390a23373ffffffffffffffffffffffffffffffffffffffff167f45a61950ae80a9a1d9a6c03683ce65096a7db8ca520632bed3072f40963c8804600360003373ffffffffffffffffffffffffffffffffffffffff1673ffffffffffffffffffffffffffffffffffffffff168152602001908152602001600020546040516104a89190611a69565b60405180910390a250565b6000600360003373ffffffffffffffffffffffffffffffffffffffff1673ffffffffffffffffffffffffffffffffffffffff1681526020019081526020016000205411610535576040517f08c379a000000000000000000000000000000000000000000000000000000000815260040161052c90611de0565b60405180910390fd5b600360003373ffffffffffffffffffffffffffffffffffffffff1673ffffffffffffffffffffffffffffffffffffffff168152602001908152602001600020600090553373ffffffffffffffffffffffffffffffffffffffff167f450cc0f663f8ded0053aeca240ef53a2f4b93c5c3aa067e8e45155e823ceaa7a60405160405180910390a2565b600060029054906101000a900473ffffffffffffffffffffffffffffffffffffffff1681565b600160009054906101000a900473ffffffffffffffffffffffffffffffffffffffff1673ffffffffffffffffffffffffffffffffffffffff163373ffffffffffffffffffffffffffffffffffffffff161461063d57600080fd5b60005b600480549050811015610f50576000805b8484905081101561070d57600483815481106106705761066f611e00565b5b9060005260206000200160009054906101000a900473ffffffffffffffffffffffffffffffffffffffff1673ffffffffffffffffffffffffffffffffffffffff168585838181106106c4576106c3611e00565b5b90506020020160208101906106d99190611a2d565b73ffffffffffffffffffffffffffffffffffffffff1614156106fa57600191505b808061070590611e2f565b915050610651565b5060011515811515141561096c576004828154811061072f5761072e611e00565b5b9060005260206000200160009054906101000a900473ffffffffffffffffffffffffffffffffffffffff1673ffffffffffffffffffffffffffffffffffffffff167f7fe451685bab7a17da665cc038b4635412b8d788bb692963f88e35eba15ae17560026000600486815481106107a9576107a8611e00565b5b9060005260206000200160009054906101000a900473ffffffffffffffffffffffffffffffffffffffff1673ffffffffffffffffffffffffffffffffffffffff1673ffffffffffffffffffffffffffffffffffffffff1681526020019081526020016000205460405161081c9190611a69565b60405180910390a2600360006004848154811061083c5761083b611e00565b5b9060005260206000200160009054906101000a900473ffffffffffffffffffffffffffffffffffffffff1673ffffffffffffffffffffffffffffffffffffffff1673ffffffffffffffffffffffffffffffffffffffff1681526020019081526020016000206000905560026000600484815481106108bd576108bc611e00565b5b9060005260206000200160009054906101000a900473ffffffffffffffffffffffffffffffffffffffff1673ffffffffffffffffffffffffffffffffffffffff1673ffffffffffffffffffffffffffffffffffffffff168152602001908152602001600020600090556004828154811061093a57610939611e00565b5b9060005260206000200160006101000a81549073ffffffffffffffffffffffffffffffffffffffff0219169055610f3c565b6000600360006004858154811061098657610985611e00565b5b9060005260206000200160009054906101000a900473ffffffffffffffffffffffffffffffffffffffff1673ffffffffffffffffffffffffffffffffffffffff1673ffffffffffffffffffffffffffffffffffffffff168152602001908152602001600020541180156109fd575060001515811515145b15610f3b57600060029054906101000a900473ffffffffffffffffffffffffffffffffffffffff1673ffffffffffffffffffffffffffffffffffffffff166323b872dd3060048581548110610a5557610a54611e00565b5b9060005260206000200160009054906101000a900473ffffffffffffffffffffffffffffffffffffffff166003600060048881548110610a9857610a97611e00565b5b9060005260206000200160009054906101000a900473ffffffffffffffffffffffffffffffffffffffff1673ffffffffffffffffffffffffffffffffffffffff1673ffffffffffffffffffffffffffffffffffffffff168152602001908152602001600020546040518463ffffffff1660e01b8152600401610b1c93929190611e78565b6020604051808303816000875af1158015610b3b573d6000803e3d6000fd5b505050506040513d601f19601f82011682018060405250810190610b5f9190611ee7565b5060048281548110610b7457610b73611e00565b5b9060005260206000200160009054906101000a900473ffffffffffffffffffffffffffffffffffffffff1673ffffffffffffffffffffffffffffffffffffffff167f9b4c90d41aa819dadecbb2e126e6dc2e01be4402acc99ec60248131a3f59576c6003600060048681548110610bee57610bed611e00565b5b9060005260206000200160009054906101000a900473ffffffffffffffffffffffffffffffffffffffff1673ffffffffffffffffffffffffffffffffffffffff1673ffffffffffffffffffffffffffffffffffffffff16815260200190815260200160002054604051610c619190611a69565b60405180910390a26003600060048481548110610c8157610c80611e00565b5b9060005260206000200160009054906101000a900473ffffffffffffffffffffffffffffffffffffffff1673ffffffffffffffffffffffffffffffffffffffff1673ffffffffffffffffffffffffffffffffffffffff168152602001908152602001600020546002600060048581548110610cff57610cfe611e00565b5b9060005260206000200160009054906101000a900473ffffffffffffffffffffffffffffffffffffffff1673ffffffffffffffffffffffffffffffffffffffff1673ffffffffffffffffffffffffffffffffffffffff16815260200190815260200160002054610d6f9190611cce565b6002600060048581548110610d8757610d86611e00565b5b9060005260206000200160009054906101000a900473ffffffffffffffffffffffffffffffffffffffff1673ffffffffffffffffffffffffffffffffffffffff1673ffffffffffffffffffffffffffffffffffffffff1681526020019081526020016000208190555060006003600060048581548110610e0a57610e09611e00565b5b9060005260206000200160009054906101000a900473ffffffffffffffffffffffffffffffffffffffff1673ffffffffffffffffffffffffffffffffffffffff1673ffffffffffffffffffffffffffffffffffffffff1681526020019081526020016000208190555060006002600060048581548110610e8d57610e8c611e00565b5b9060005260206000200160009054906101000a900473ffffffffffffffffffffffffffffffffffffffff1673ffffffffffffffffffffffffffffffffffffffff1673ffffffffffffffffffffffffffffffffffffffff1681526020019081526020016000205411610f3a5760048281548110610f0c57610f0b611e00565b5b9060005260206000200160006101000a81549073ffffffffffffffffffffffffffffffffffffffff02191690555b5b5b508080610f4890611e2f565b915050610640565b505050565b600073ffffffffffffffffffffffffffffffffffffffff163373ffffffffffffffffffffffffffffffffffffffff161415610fc5576040517f08c379a0000000000000000000000000000000000000000000000000000000008152600401610fbc90611f60565b60405180910390fd5b600060029054906101000a900473ffffffffffffffffffffffffffffffffffffffff1673ffffffffffffffffffffffffffffffffffffffff166370a08231336040518263ffffffff1660e01b81526004016110209190611bb1565b602060405180830381865afa15801561103d573d6000803e3d6000fd5b505050506040513d601f19601f820116820180604052508101906110619190611f95565b8111156110a3576040517f08c379a000000000000000000000000000000000000000000000000000000000815260040161109a90612034565b60405180910390fd5b600060029054906101000a900473ffffffffffffffffffffffffffffffffffffffff1673ffffffffffffffffffffffffffffffffffffffff1663a9059cbb30836040518363ffffffff1660e01b8152600401611100929190612054565b6020604051808303816000875af115801561111f573d6000803e3d6000fd5b505050506040513d601f19601f820116820180604052508101906111439190611ee7565b5080600260003373ffffffffffffffffffffffffffffffffffffffff1673ffffffffffffffffffffffffffffffffffffffff16815260200190815260200160002060008282546111939190611c78565b925050819055506004339080600181540180825580915050600190039060005260206000200160009091909190916101000a81548173ffffffffffffffffffffffffffffffffffffffff021916908373ffffffffffffffffffffffffffffffffffffffff1602179055503373ffffffffffffffffffffffffffffffffffffffff167f9e71bc8eea02a63969f509818f2dafb9254532904319f9dbda79b67bd34a5f3d826040516112439190611a69565b60405180910390a23373ffffffffffffffffffffffffffffffffffffffff167f62be4aaebfea1375247e22afe02276e2d8d1b765bff167beda8066a0012c7b5f600260003373ffffffffffffffffffffffffffffffffffffffff1673ffffffffffffffffffffffffffffffffffffffff168152602001908152602001600020546040516112d09190611a69565b60405180910390a250565b60006112e760016116b8565b9050801561130b576001600060016101000a81548160ff0219169083151502179055505b33600160006101000a81548173ffffffffffffffffffffffffffffffffffffffff021916908373ffffffffffffffffffffffffffffffffffffffff16021790555081600060026101000a81548173ffffffffffffffffffffffffffffffffffffffff021916908373ffffffffffffffffffffffffffffffffffffffff16021790555080156113e65760008060016101000a81548160ff0219169083151502179055507f7f26b83ff96e1f2b6a682f133852f6798a09c465da95921460cefb384740249860016040516113dd91906120c5565b60405180910390a15b5050565b6000600260008373ffffffffffffffffffffffffffffffffffffffff1673ffffffffffffffffffffffffffffffffffffffff168152602001908152602001600020549050919050565b60008073ffffffffffffffffffffffffffffffffffffffff168273ffffffffffffffffffffffffffffffffffffffff1614156114a4576040517f08c379a000000000000000000000000000000000000000000000000000000000815260040161149b90611f60565b60405180910390fd5b600360008373ffffffffffffffffffffffffffffffffffffffff1673ffffffffffffffffffffffffffffffffffffffff16815260200190815260200160002054600260008473ffffffffffffffffffffffffffffffffffffffff1673ffffffffffffffffffffffffffffffffffffffff1681526020019081526020016000205461152e9190611cce565b9050919050565b60608060005b6004805490508110156116285760405180604001604052806004838154811061156757611566611e00565b5b9060005260206000200160009054906101000a900473ffffffffffffffffffffffffffffffffffffffff1673ffffffffffffffffffffffffffffffffffffffff1681526020016115f4600484815481106115c4576115c3611e00565b5b9060005260206000200160009054906101000a900473ffffffffffffffffffffffffffffffffffffffff16611433565b81525082828151811061160a57611609611e00565b5b6020026020010181905250808061162090611e2f565b91505061153b565b508091505090565b6000600360008373ffffffffffffffffffffffffffffffffffffffff1673ffffffffffffffffffffffffffffffffffffffff168152602001908152602001600020549050919050565b6004818154811061168957600080fd5b906000526020600020016000915054906101000a900473ffffffffffffffffffffffffffffffffffffffff1681565b60008060019054906101000a900460ff161561172f5760018260ff161480156116e757506116e5306117a8565b155b611726576040517f08c379a000000000000000000000000000000000000000000000000000000000815260040161171d90612152565b60405180910390fd5b600090506117a3565b8160ff1660008054906101000a900460ff1660ff1610611784576040517f08c379a000000000000000000000000000000000000000000000000000000000815260040161177b90612152565b60405180910390fd5b816000806101000a81548160ff021916908360ff160217905550600190505b919050565b6000808273ffffffffffffffffffffffffffffffffffffffff163b119050919050565b600080fd5b600080fd5b6000819050919050565b6117e8816117d5565b81146117f357600080fd5b50565b600081359050611805816117df565b92915050565b600060208284031215611821576118206117cb565b5b600061182f848285016117f6565b91505092915050565b600073ffffffffffffffffffffffffffffffffffffffff82169050919050565b6000819050919050565b600061187d61187861187384611838565b611858565b611838565b9050919050565b600061188f82611862565b9050919050565b60006118a182611884565b9050919050565b6118b181611896565b82525050565b60006020820190506118cc60008301846118a8565b92915050565b600080fd5b600080fd5b600080fd5b60008083601f8401126118f7576118f66118d2565b5b8235905067ffffffffffffffff811115611914576119136118d7565b5b6020830191508360208202830111156119305761192f6118dc565b5b9250929050565b6000806020838503121561194e5761194d6117cb565b5b600083013567ffffffffffffffff81111561196c5761196b6117d0565b5b611978858286016118e1565b92509250509250929050565b600061198f82611838565b9050919050565b60006119a182611984565b9050919050565b6119b181611996565b81146119bc57600080fd5b50565b6000813590506119ce816119a8565b92915050565b6000602082840312156119ea576119e96117cb565b5b60006119f8848285016119bf565b91505092915050565b611a0a81611984565b8114611a1557600080fd5b50565b600081359050611a2781611a01565b92915050565b600060208284031215611a4357611a426117cb565b5b6000611a5184828501611a18565b91505092915050565b611a63816117d5565b82525050565b6000602082019050611a7e6000830184611a5a565b92915050565b600081519050919050565b600082825260208201905092915050565b6000819050602082019050919050565b611ab981611984565b82525050565b611ac8816117d5565b82525050565b604082016000820151611ae46000850182611ab0565b506020820151611af76020850182611abf565b50505050565b6000611b098383611ace565b60408301905092915050565b6000602082019050919050565b6000611b2d82611a84565b611b378185611a8f565b9350611b4283611aa0565b8060005b83811015611b73578151611b5a8882611afd565b9750611b6583611b15565b925050600181019050611b46565b5085935050505092915050565b60006020820190508181036000830152611b9a8184611b22565b905092915050565b611bab81611984565b82525050565b6000602082019050611bc66000830184611ba2565b92915050565b600082825260208201905092915050565b7f486173206e6f74207374616b6564000000000000000000000000000000000000600082015250565b6000611c13600e83611bcc565b9150611c1e82611bdd565b602082019050919050565b60006020820190508181036000830152611c4281611c06565b9050919050565b7f4e487b7100000000000000000000000000000000000000000000000000000000600052601160045260246000fd5b6000611c83826117d5565b9150611c8e836117d5565b9250827fffffffffffffffffffffffffffffffffffffffffffffffffffffffffffffffff03821115611cc357611cc2611c49565b5b828201905092915050565b6000611cd9826117d5565b9150611ce4836117d5565b925082821015611cf757611cf6611c49565b5b828203905092915050565b7f43616e6e6f7420756e7374616b65206d6f7265207468616e20746f74616c207360008201527f74616b656420616d6f756e740000000000000000000000000000000000000000602082015250565b6000611d5e602c83611bcc565b9150611d6982611d02565b604082019050919050565b60006020820190508181036000830152611d8d81611d51565b9050919050565b7f4e6f20756e7374616b6520746f2063616e63656c000000000000000000000000600082015250565b6000611dca601483611bcc565b9150611dd582611d94565b602082019050919050565b60006020820190508181036000830152611df981611dbd565b9050919050565b7f4e487b7100000000000000000000000000000000000000000000000000000000600052603260045260246000fd5b6000611e3a826117d5565b91507fffffffffffffffffffffffffffffffffffffffffffffffffffffffffffffffff821415611e6d57611e6c611c49565b5b600182019050919050565b6000606082019050611e8d6000830186611ba2565b611e9a6020830185611ba2565b611ea76040830184611a5a565b949350505050565b60008115159050919050565b611ec481611eaf565b8114611ecf57600080fd5b50565b600081519050611ee181611ebb565b92915050565b600060208284031215611efd57611efc6117cb565b5b6000611f0b84828501611ed2565b91505092915050565b7f53656e6465722069732030206164647265737300000000000000000000000000600082015250565b6000611f4a601383611bcc565b9150611f5582611f14565b602082019050919050565b60006020820190508181036000830152611f7981611f3d565b9050919050565b600081519050611f8f816117df565b92915050565b600060208284031215611fab57611faa6117cb565b5b6000611fb984828501611f80565b91505092915050565b7f416d6f756e74206578636565647320617661696c61626c65204356592062616c60008201527f616e636500000000000000000000000000000000000000000000000000000000602082015250565b600061201e602483611bcc565b915061202982611fc2565b604082019050919050565b6000602082019050818103600083015261204d81612011565b9050919050565b60006040820190506120696000830185611ba2565b6120766020830184611a5a565b9392505050565b6000819050919050565b600060ff82169050919050565b60006120af6120aa6120a58461207d565b611858565b612087565b9050919050565b6120bf81612094565b82525050565b60006020820190506120da60008301846120b6565b92915050565b7f496e697469616c697a61626c653a20636f6e747261637420697320616c72656160008201527f647920696e697469616c697a6564000000000000000000000000000000000000602082015250565b600061213c602e83611bcc565b9150612147826120e0565b604082019050919050565b6000602082019050818103600083015261216b8161212f565b905091905056fea26469706673582212207b28a0478a25cb76587c8108580c83b82488b5766f4f03ae5ec030ef6d46037464736f6c634300080b0033",
  "immutableReferences": {},
  "source": "pragma solidity ^0.8.9;\r\n\r\nimport \"@openzeppelin/contracts/access/Ownable.sol\";\r\nimport '@openzeppelin/contracts-upgradeable/proxy/utils/Initializable.sol';\r\nimport '@openzeppelin/contracts/token/ERC20/IERC20.sol';\r\n\r\n\r\ncontract CoveyStaking is Initializable {\r\n  IERC20 public stakingToken;\r\n\r\n  struct StakeInfo {\r\n      address staker;\r\n      uint stakedAmount;\r\n  }\r\n\r\n  address owner;\r\n\r\n\r\n  mapping(address => uint) private _stakedAmounts;\r\n\r\n  mapping(address => uint) private _unstakedAmounts;\r\n\r\n  address[] public stakers;\r\n\r\n  event Staked(address indexed _adr, uint amount);\r\n  \r\n  event Unstaked(address indexed _adr, uint amount);\r\n\r\n  event TotalStaked(address indexed _adr, uint amount);\r\n  \r\n  event TotalUnstaked(address indexed _adr, uint amount);\r\n\r\n  event CancelledUnstake(address indexed _adr);\r\n\r\n  event Bankrupt(address indexed _adr, uint amountLost);\r\n\r\n  event StakeDispensed(address indexed _adr, uint amountDispensed);\r\n\r\n  modifier onlyOwner {\r\n      require(msg.sender == owner);\r\n      _;\r\n  }\r\n\r\n  function initialize(IERC20 _stakingToken) public initializer {\r\n        owner = msg.sender;\r\n        stakingToken = _stakingToken;\r\n    }\r\n\r\n   \r\n\r\n  function stake(uint amount) public {\r\n      require(msg.sender != address(0), \"Sender is 0 address\");\r\n      require(amount <= stakingToken.balanceOf(msg.sender), \"Amount exceeds available CVY balance\");\r\n\r\n      stakingToken.transfer(address(this), amount);\r\n      _stakedAmounts[msg.sender] +=  amount;\r\n      stakers.push(msg.sender);\r\n      emit Staked(msg.sender, amount);\r\n      emit TotalStaked(msg.sender, _stakedAmounts[msg.sender]);\r\n  }\r\n\r\n  function unstake(uint amount) public {\r\n      require(_stakedAmounts[msg.sender] != 0, \"Has not staked\");\r\n      require(_stakedAmounts[msg.sender] - (_unstakedAmounts[msg.sender] + amount) >= 0, \"Cannot unstake more than total staked amount\");\r\n      _unstakedAmounts[msg.sender] += amount;\r\n      emit Unstaked(msg.sender, amount);\r\n      emit TotalUnstaked(msg.sender, _unstakedAmounts[msg.sender]);\r\n  }\r\n\r\n  function cancelUnstake() public {\r\n      require(_unstakedAmounts[msg.sender] > 0, \"No unstake to cancel\");\r\n      delete _unstakedAmounts[msg.sender];\r\n      emit CancelledUnstake(msg.sender);\r\n  }\r\n\r\n  function getTotalStaked(address _adr) public view returns(uint) {\r\n      return _stakedAmounts[_adr];\r\n  }\r\n\r\n  function getTotalUnstaked(address _adr) public view returns(uint) {\r\n      return _unstakedAmounts[_adr];\r\n  }\r\n\r\n  function dispenseStakes(address[] calldata bankruptAddresses) public onlyOwner {\r\n      for(uint i = 0; i < stakers.length; i++) {\r\n          bool isBankrupt = false;\r\n          for(uint j = 0; j < bankruptAddresses.length; j++) {\r\n                if(bankruptAddresses[j] == stakers[i]) {\r\n                    isBankrupt = true;\r\n                }\r\n            }\r\n\r\n          if(isBankrupt == true) {\r\n              emit Bankrupt(stakers[i], _stakedAmounts[stakers[i]]);\r\n              delete _unstakedAmounts[stakers[i]];\r\n              delete _stakedAmounts[stakers[i]];\r\n              delete stakers[i]; \r\n          } else if( _unstakedAmounts[stakers[i]] > 0 && isBankrupt == false) {\r\n              stakingToken.transferFrom(address(this), stakers[i], _unstakedAmounts[stakers[i]]);\r\n              emit StakeDispensed(stakers[i], _unstakedAmounts[stakers[i]]);\r\n              _stakedAmounts[stakers[i]] = _stakedAmounts[stakers[i]] - _unstakedAmounts[stakers[i]];\r\n              _unstakedAmounts[stakers[i]] = 0;\r\n\r\n              if(_stakedAmounts[stakers[i]] <= 0) {\r\n                  delete stakers[i];\r\n              }\r\n          }\r\n      }\r\n  }\r\n\r\n  function getNetStaked(address staker) public view returns (uint) {\r\n      require(staker != address(0), \"Sender is 0 address\");\r\n      \r\n      return _stakedAmounts[staker] - _unstakedAmounts[staker];\r\n  }\r\n\r\n  function getAllNetStaked() public view returns (StakeInfo[] memory) {\r\n      StakeInfo[] memory stakeInformation;\r\n\r\n      for(uint i = 0; i < stakers.length; i++) {\r\n          stakeInformation[i] = StakeInfo({\r\n              staker: stakers[i],\r\n              stakedAmount: getNetStaked(stakers[i])\r\n          });\r\n      }\r\n\r\n      return stakeInformation;\r\n  }\r\n}",
  "sourcePath": "C:\\Users\\jcara\\Documents\\repos\\smart-contract-token\\contracts\\CoveyStaking.sol",
  "compiler": {
    "name": "solc",
    "version": "0.8.11+commit.d7f03943.Emscripten.clang"
  },
  "schemaVersion": "3.4.8",
  "updatedAt": "2022-08-09T17:45:47.863Z",
  "networkType": "ethereum",
  "devdoc": {
    "kind": "dev",
    "methods": {},
    "version": 1
  },
  "userdoc": {
    "kind": "user",
    "methods": {},
    "version": 1
  }
}