{
  "contractName": "CoveyToken",
  "abi": [
    {
      "inputs": [
        {
          "internalType": "uint256",
          "name": "initialSupply",
          "type": "uint256"
        },
        {
          "internalType": "address[]",
          "name": "defaultOperators",
          "type": "address[]"
        }
      ],
      "stateMutability": "nonpayable",
      "type": "constructor"
    },
    {
      "anonymous": false,
      "inputs": [
        {
          "indexed": true,
          "internalType": "address",
          "name": "owner",
          "type": "address"
        },
        {
          "indexed": true,
          "internalType": "address",
          "name": "spender",
          "type": "address"
        },
        {
          "indexed": false,
          "internalType": "uint256",
          "name": "value",
          "type": "uint256"
        }
      ],
      "name": "Approval",
      "type": "event"
    },
    {
      "anonymous": false,
      "inputs": [
        {
          "indexed": true,
          "internalType": "address",
          "name": "operator",
          "type": "address"
        },
        {
          "indexed": true,
          "internalType": "address",
          "name": "tokenHolder",
          "type": "address"
        }
      ],
      "name": "AuthorizedOperator",
      "type": "event"
    },
    {
      "anonymous": false,
      "inputs": [
        {
          "indexed": true,
          "internalType": "address",
          "name": "operator",
          "type": "address"
        },
        {
          "indexed": true,
          "internalType": "address",
          "name": "from",
          "type": "address"
        },
        {
          "indexed": false,
          "internalType": "uint256",
          "name": "amount",
          "type": "uint256"
        },
        {
          "indexed": false,
          "internalType": "bytes",
          "name": "data",
          "type": "bytes"
        },
        {
          "indexed": false,
          "internalType": "bytes",
          "name": "operatorData",
          "type": "bytes"
        }
      ],
      "name": "Burned",
      "type": "event"
    },
    {
      "anonymous": false,
      "inputs": [
        {
          "indexed": false,
          "internalType": "address",
          "name": "to",
          "type": "address"
        },
        {
          "indexed": false,
          "internalType": "uint256",
          "name": "amount",
          "type": "uint256"
        },
        {
          "indexed": false,
          "internalType": "uint256",
          "name": "unlockTime",
          "type": "uint256"
        }
      ],
      "name": "LockedTokensSent",
      "type": "event"
    },
    {
      "anonymous": false,
      "inputs": [
        {
          "indexed": true,
          "internalType": "address",
          "name": "operator",
          "type": "address"
        },
        {
          "indexed": true,
          "internalType": "address",
          "name": "to",
          "type": "address"
        },
        {
          "indexed": false,
          "internalType": "uint256",
          "name": "amount",
          "type": "uint256"
        },
        {
          "indexed": false,
          "internalType": "bytes",
          "name": "data",
          "type": "bytes"
        },
        {
          "indexed": false,
          "internalType": "bytes",
          "name": "operatorData",
          "type": "bytes"
        }
      ],
      "name": "Minted",
      "type": "event"
    },
    {
      "anonymous": false,
      "inputs": [
        {
          "indexed": true,
          "internalType": "address",
          "name": "previousOwner",
          "type": "address"
        },
        {
          "indexed": true,
          "internalType": "address",
          "name": "newOwner",
          "type": "address"
        }
      ],
      "name": "OwnershipTransferred",
      "type": "event"
    },
    {
      "anonymous": false,
      "inputs": [
        {
          "indexed": true,
          "internalType": "address",
          "name": "operator",
          "type": "address"
        },
        {
          "indexed": true,
          "internalType": "address",
          "name": "tokenHolder",
          "type": "address"
        }
      ],
      "name": "RevokedOperator",
      "type": "event"
    },
    {
      "anonymous": false,
      "inputs": [
        {
          "indexed": true,
          "internalType": "address",
          "name": "operator",
          "type": "address"
        },
        {
          "indexed": true,
          "internalType": "address",
          "name": "from",
          "type": "address"
        },
        {
          "indexed": true,
          "internalType": "address",
          "name": "to",
          "type": "address"
        },
        {
          "indexed": false,
          "internalType": "uint256",
          "name": "amount",
          "type": "uint256"
        },
        {
          "indexed": false,
          "internalType": "bytes",
          "name": "data",
          "type": "bytes"
        },
        {
          "indexed": false,
          "internalType": "bytes",
          "name": "operatorData",
          "type": "bytes"
        }
      ],
      "name": "Sent",
      "type": "event"
    },
    {
      "anonymous": false,
      "inputs": [
        {
          "indexed": false,
          "internalType": "address",
          "name": "to",
          "type": "address"
        },
        {
          "indexed": false,
          "internalType": "uint256",
          "name": "amount",
          "type": "uint256"
        }
      ],
      "name": "TokensReleased",
      "type": "event"
    },
    {
      "anonymous": false,
      "inputs": [
        {
          "indexed": true,
          "internalType": "address",
          "name": "from",
          "type": "address"
        },
        {
          "indexed": true,
          "internalType": "address",
          "name": "to",
          "type": "address"
        },
        {
          "indexed": false,
          "internalType": "uint256",
          "name": "value",
          "type": "uint256"
        }
      ],
      "name": "Transfer",
      "type": "event"
    },
    {
      "inputs": [
        {
          "internalType": "address",
          "name": "holder",
          "type": "address"
        },
        {
          "internalType": "address",
          "name": "spender",
          "type": "address"
        }
      ],
      "name": "allowance",
      "outputs": [
        {
          "internalType": "uint256",
          "name": "",
          "type": "uint256"
        }
      ],
      "stateMutability": "view",
      "type": "function"
    },
    {
      "inputs": [
        {
          "internalType": "address",
          "name": "spender",
          "type": "address"
        },
        {
          "internalType": "uint256",
          "name": "value",
          "type": "uint256"
        }
      ],
      "name": "approve",
      "outputs": [
        {
          "internalType": "bool",
          "name": "",
          "type": "bool"
        }
      ],
      "stateMutability": "nonpayable",
      "type": "function"
    },
    {
      "inputs": [
        {
          "internalType": "address",
          "name": "operator",
          "type": "address"
        }
      ],
      "name": "authorizeOperator",
      "outputs": [],
      "stateMutability": "nonpayable",
      "type": "function"
    },
    {
      "inputs": [
        {
          "internalType": "address",
          "name": "tokenHolder",
          "type": "address"
        }
      ],
      "name": "balanceOf",
      "outputs": [
        {
          "internalType": "uint256",
          "name": "",
          "type": "uint256"
        }
      ],
      "stateMutability": "view",
      "type": "function"
    },
    {
      "inputs": [
        {
          "internalType": "uint256",
          "name": "amount",
          "type": "uint256"
        },
        {
          "internalType": "bytes",
          "name": "data",
          "type": "bytes"
        }
      ],
      "name": "burn",
      "outputs": [],
      "stateMutability": "nonpayable",
      "type": "function"
    },
    {
      "inputs": [],
      "name": "decimals",
      "outputs": [
        {
          "internalType": "uint8",
          "name": "",
          "type": "uint8"
        }
      ],
      "stateMutability": "pure",
      "type": "function"
    },
    {
      "inputs": [],
      "name": "defaultOperators",
      "outputs": [
        {
          "internalType": "address[]",
          "name": "",
          "type": "address[]"
        }
      ],
      "stateMutability": "view",
      "type": "function"
    },
    {
      "inputs": [],
      "name": "granularity",
      "outputs": [
        {
          "internalType": "uint256",
          "name": "",
          "type": "uint256"
        }
      ],
      "stateMutability": "view",
      "type": "function"
    },
    {
      "inputs": [
        {
          "internalType": "address",
          "name": "operator",
          "type": "address"
        },
        {
          "internalType": "address",
          "name": "tokenHolder",
          "type": "address"
        }
      ],
      "name": "isOperatorFor",
      "outputs": [
        {
          "internalType": "bool",
          "name": "",
          "type": "bool"
        }
      ],
      "stateMutability": "view",
      "type": "function"
    },
    {
      "inputs": [],
      "name": "name",
      "outputs": [
        {
          "internalType": "string",
          "name": "",
          "type": "string"
        }
      ],
      "stateMutability": "view",
      "type": "function"
    },
    {
      "inputs": [
        {
          "internalType": "address",
          "name": "account",
          "type": "address"
        },
        {
          "internalType": "uint256",
          "name": "amount",
          "type": "uint256"
        },
        {
          "internalType": "bytes",
          "name": "data",
          "type": "bytes"
        },
        {
          "internalType": "bytes",
          "name": "operatorData",
          "type": "bytes"
        }
      ],
      "name": "operatorBurn",
      "outputs": [],
      "stateMutability": "nonpayable",
      "type": "function"
    },
    {
      "inputs": [
        {
          "internalType": "address",
          "name": "sender",
          "type": "address"
        },
        {
          "internalType": "address",
          "name": "recipient",
          "type": "address"
        },
        {
          "internalType": "uint256",
          "name": "amount",
          "type": "uint256"
        },
        {
          "internalType": "bytes",
          "name": "data",
          "type": "bytes"
        },
        {
          "internalType": "bytes",
          "name": "operatorData",
          "type": "bytes"
        }
      ],
      "name": "operatorSend",
      "outputs": [],
      "stateMutability": "nonpayable",
      "type": "function"
    },
    {
      "inputs": [],
      "name": "owner",
      "outputs": [
        {
          "internalType": "address",
          "name": "",
          "type": "address"
        }
      ],
      "stateMutability": "view",
      "type": "function"
    },
    {
      "inputs": [],
      "name": "renounceOwnership",
      "outputs": [],
      "stateMutability": "nonpayable",
      "type": "function"
    },
    {
      "inputs": [
        {
          "internalType": "address",
          "name": "operator",
          "type": "address"
        }
      ],
      "name": "revokeOperator",
      "outputs": [],
      "stateMutability": "nonpayable",
      "type": "function"
    },
    {
      "inputs": [
        {
          "internalType": "address",
          "name": "recipient",
          "type": "address"
        },
        {
          "internalType": "uint256",
          "name": "amount",
          "type": "uint256"
        },
        {
          "internalType": "bytes",
          "name": "data",
          "type": "bytes"
        }
      ],
      "name": "send",
      "outputs": [],
      "stateMutability": "nonpayable",
      "type": "function"
    },
    {
      "inputs": [],
      "name": "symbol",
      "outputs": [
        {
          "internalType": "string",
          "name": "",
          "type": "string"
        }
      ],
      "stateMutability": "view",
      "type": "function"
    },
    {
      "inputs": [],
      "name": "totalSupply",
      "outputs": [
        {
          "internalType": "uint256",
          "name": "",
          "type": "uint256"
        }
      ],
      "stateMutability": "view",
      "type": "function"
    },
    {
      "inputs": [
        {
          "internalType": "address",
          "name": "recipient",
          "type": "address"
        },
        {
          "internalType": "uint256",
          "name": "amount",
          "type": "uint256"
        }
      ],
      "name": "transfer",
      "outputs": [
        {
          "internalType": "bool",
          "name": "",
          "type": "bool"
        }
      ],
      "stateMutability": "nonpayable",
      "type": "function"
    },
    {
      "inputs": [
        {
          "internalType": "address",
          "name": "holder",
          "type": "address"
        },
        {
          "internalType": "address",
          "name": "recipient",
          "type": "address"
        },
        {
          "internalType": "uint256",
          "name": "amount",
          "type": "uint256"
        }
      ],
      "name": "transferFrom",
      "outputs": [
        {
          "internalType": "bool",
          "name": "",
          "type": "bool"
        }
      ],
      "stateMutability": "nonpayable",
      "type": "function"
    },
    {
      "inputs": [
        {
          "internalType": "address",
          "name": "newOwner",
          "type": "address"
        }
      ],
      "name": "transferOwnership",
      "outputs": [],
      "stateMutability": "nonpayable",
      "type": "function"
    },
    {
      "inputs": [
        {
          "internalType": "address[]",
          "name": "recipients",
          "type": "address[]"
        },
        {
          "internalType": "uint256[]",
          "name": "amounts",
          "type": "uint256[]"
        },
        {
          "internalType": "uint256[]",
          "name": "lockForSeconds",
          "type": "uint256[]"
        }
      ],
      "name": "airdrop",
      "outputs": [],
      "stateMutability": "nonpayable",
      "type": "function"
    },
    {
      "inputs": [
        {
          "internalType": "address",
          "name": "to",
          "type": "address"
        },
        {
          "internalType": "uint256",
          "name": "amount",
          "type": "uint256"
        },
        {
          "internalType": "uint256",
          "name": "timeToLock",
          "type": "uint256"
        }
      ],
      "name": "sendLocked",
      "outputs": [],
      "stateMutability": "nonpayable",
      "type": "function"
    },
    {
      "inputs": [
        {
          "internalType": "address",
          "name": "to",
          "type": "address"
        },
        {
          "internalType": "uint256",
          "name": "amount",
          "type": "uint256"
        }
      ],
      "name": "removeTokenLock",
      "outputs": [],
      "stateMutability": "nonpayable",
      "type": "function"
    }
  ],
  "bytecode": "0x60806040523480156200001157600080fd5b506040516200537838038062005378833981810160405281019062000037919062000e79565b6040518060400160405280600581526020017f436f7665790000000000000000000000000000000000000000000000000000008152506040518060400160405280600381526020017f4356590000000000000000000000000000000000000000000000000000000000815250828260029080519060200190620000bc92919062000b11565b508160039080519060200190620000d592919062000b11565b508060049080519060200190620000ee92919062000ba2565b5060005b8151811015620001875760016005600084848151811062000118576200011762000edf565b5b602002602001015173ffffffffffffffffffffffffffffffffffffffff1673ffffffffffffffffffffffffffffffffffffffff16815260200190815260200160002060006101000a81548160ff02191690831515021790555080806200017e9062000f3d565b915050620000f2565b50731820a4b7618bde71dce8cdc73aab6c95905fad2473ffffffffffffffffffffffffffffffffffffffff166329965a1d307fac7fbab5f54a3ca8194167523c6753bfeb96a445279294b6125b68cce2177054306040518463ffffffff1660e01b8152600401620001fb9392919062000fb7565b600060405180830381600087803b1580156200021657600080fd5b505af11580156200022b573d6000803e3d6000fd5b50505050731820a4b7618bde71dce8cdc73aab6c95905fad2473ffffffffffffffffffffffffffffffffffffffff166329965a1d307faea199e31a596269b42cdafd93407f14436db6e4cad65417994c2eb37381e05a306040518463ffffffff1660e01b8152600401620002a29392919062000fb7565b600060405180830381600087803b158015620002bd57600080fd5b505af1158015620002d2573d6000803e3d6000fd5b50505050505050620002f9620002ed6200033360201b60201c565b6200033b60201b60201c565b6200032b338360405180602001604052806000815250604051806020016040528060008152506200040160201b60201c565b5050620014dd565b600033905090565b6000600960009054906101000a900473ffffffffffffffffffffffffffffffffffffffff16905081600960006101000a81548173ffffffffffffffffffffffffffffffffffffffff021916908373ffffffffffffffffffffffffffffffffffffffff1602179055508173ffffffffffffffffffffffffffffffffffffffff168173ffffffffffffffffffffffffffffffffffffffff167f8be0079c531659141344cd1fd0a4f28419497f9722a3daafe3b4186f6b6457e060405160405180910390a35050565b620004178484848460016200041d60201b60201c565b50505050565b600073ffffffffffffffffffffffffffffffffffffffff168573ffffffffffffffffffffffffffffffffffffffff16141562000490576040517f08c379a0000000000000000000000000000000000000000000000000000000008152600401620004879062001055565b60405180910390fd5b6000620004a26200033360201b60201c565b9050620004b981600088886200061e60201b60201c565b8460016000828254620004cd919062001077565b92505081905550846000808873ffffffffffffffffffffffffffffffffffffffff1673ffffffffffffffffffffffffffffffffffffffff168152602001908152602001600020600082825462000524919062001077565b92505081905550620005438160008888888888620008b260201b60201c565b8573ffffffffffffffffffffffffffffffffffffffff168173ffffffffffffffffffffffffffffffffffffffff167f2fe5be0146f74c5bce36c0b80911af6c7d86ff27e89d5cfa61fc681327954e5d878787604051620005a69392919062001178565b60405180910390a38573ffffffffffffffffffffffffffffffffffffffff16600073ffffffffffffffffffffffffffffffffffffffff167fddf252ad1be2c89b69c2b068fc378daa952ba7f163c4a11628f55a4df523b3ef876040516200060e9190620011c3565b60405180910390a3505050505050565b6000600a60008573ffffffffffffffffffffffffffffffffffffffff1673ffffffffffffffffffffffffffffffffffffffff1681526020019081526020016000206000015414158015620006b35750600a60008473ffffffffffffffffffffffffffffffffffffffff1673ffffffffffffffffffffffffffffffffffffffff1681526020019081526020016000206001015442105b156200076a576000620006cc8462000aa060201b60201c565b905060008282620006de9190620011e0565b9050600a60008673ffffffffffffffffffffffffffffffffffffffff1673ffffffffffffffffffffffffffffffffffffffff16815260200190815260200160002060000154811162000767576040517f08c379a00000000000000000000000000000000000000000000000000000000081526004016200075e9062001291565b60405180910390fd5b50505b600a60008473ffffffffffffffffffffffffffffffffffffffff1673ffffffffffffffffffffffffffffffffffffffff1681526020019081526020016000206001015442118015620007ff57506000600a60008573ffffffffffffffffffffffffffffffffffffffff1673ffffffffffffffffffffffffffffffffffffffff1681526020019081526020016000206000015414155b156200089357600a60008473ffffffffffffffffffffffffffffffffffffffff1673ffffffffffffffffffffffffffffffffffffffff168152602001908152602001600020600080820160009055600182016000905550507fc7798891864187665ac6dd119286e44ec13f014527aeeb2b8eb3fd413df9317983826040516200088a929190620012b3565b60405180910390a15b620008ac8484848462000ae860201b620018471760201c565b50505050565b6000731820a4b7618bde71dce8cdc73aab6c95905fad2473ffffffffffffffffffffffffffffffffffffffff1663aabbb8ca877fb281fc8c12954d22544db45de3159a39272895b169a852b314f9cc762e44c53b6040518363ffffffff1660e01b815260040162000925929190620012e0565b602060405180830381865afa15801562000943573d6000803e3d6000fd5b505050506040513d601f19601f820116820180604052508101906200096991906200130d565b9050600073ffffffffffffffffffffffffffffffffffffffff168173ffffffffffffffffffffffffffffffffffffffff161462000a1e578073ffffffffffffffffffffffffffffffffffffffff166223de298989898989896040518763ffffffff1660e01b8152600401620009e4969594939291906200133f565b600060405180830381600087803b158015620009ff57600080fd5b505af115801562000a14573d6000803e3d6000fd5b5050505062000a96565b811562000a955762000a518673ffffffffffffffffffffffffffffffffffffffff1662000aee60201b6200184d1760201c565b1562000a94576040517f08c379a000000000000000000000000000000000000000000000000000000000815260040162000a8b9062001456565b60405180910390fd5b5b5b5050505050505050565b60008060008373ffffffffffffffffffffffffffffffffffffffff1673ffffffffffffffffffffffffffffffffffffffff168152602001908152602001600020549050919050565b50505050565b6000808273ffffffffffffffffffffffffffffffffffffffff163b119050919050565b82805462000b1f90620014a7565b90600052602060002090601f01602090048101928262000b43576000855562000b8f565b82601f1062000b5e57805160ff191683800117855562000b8f565b8280016001018555821562000b8f579182015b8281111562000b8e57825182559160200191906001019062000b71565b5b50905062000b9e919062000c31565b5090565b82805482825590600052602060002090810192821562000c1e579160200282015b8281111562000c1d5782518260006101000a81548173ffffffffffffffffffffffffffffffffffffffff021916908373ffffffffffffffffffffffffffffffffffffffff1602179055509160200191906001019062000bc3565b5b50905062000c2d919062000c31565b5090565b5b8082111562000c4c57600081600090555060010162000c32565b5090565b6000604051905090565b600080fd5b600080fd5b6000819050919050565b62000c798162000c64565b811462000c8557600080fd5b50565b60008151905062000c998162000c6e565b92915050565b600080fd5b6000601f19601f8301169050919050565b7f4e487b7100000000000000000000000000000000000000000000000000000000600052604160045260246000fd5b62000cef8262000ca4565b810181811067ffffffffffffffff8211171562000d115762000d1062000cb5565b5b80604052505050565b600062000d2662000c50565b905062000d34828262000ce4565b919050565b600067ffffffffffffffff82111562000d575762000d5662000cb5565b5b602082029050602081019050919050565b600080fd5b600073ffffffffffffffffffffffffffffffffffffffff82169050919050565b600062000d9a8262000d6d565b9050919050565b62000dac8162000d8d565b811462000db857600080fd5b50565b60008151905062000dcc8162000da1565b92915050565b600062000de962000de38462000d39565b62000d1a565b9050808382526020820190506020840283018581111562000e0f5762000e0e62000d68565b5b835b8181101562000e3c578062000e27888262000dbb565b84526020840193505060208101905062000e11565b5050509392505050565b600082601f83011262000e5e5762000e5d62000c9f565b5b815162000e7084826020860162000dd2565b91505092915050565b6000806040838503121562000e935762000e9262000c5a565b5b600062000ea38582860162000c88565b925050602083015167ffffffffffffffff81111562000ec75762000ec662000c5f565b5b62000ed58582860162000e46565b9150509250929050565b7f4e487b7100000000000000000000000000000000000000000000000000000000600052603260045260246000fd5b7f4e487b7100000000000000000000000000000000000000000000000000000000600052601160045260246000fd5b600062000f4a8262000c64565b91507fffffffffffffffffffffffffffffffffffffffffffffffffffffffffffffffff82141562000f805762000f7f62000f0e565b5b600182019050919050565b62000f968162000d8d565b82525050565b6000819050919050565b62000fb18162000f9c565b82525050565b600060608201905062000fce600083018662000f8b565b62000fdd602083018562000fa6565b62000fec604083018462000f8b565b949350505050565b600082825260208201905092915050565b7f4552433737373a206d696e7420746f20746865207a65726f2061646472657373600082015250565b60006200103d60208362000ff4565b91506200104a8262001005565b602082019050919050565b6000602082019050818103600083015262001070816200102e565b9050919050565b6000620010848262000c64565b9150620010918362000c64565b9250827fffffffffffffffffffffffffffffffffffffffffffffffffffffffffffffffff03821115620010c957620010c862000f0e565b5b828201905092915050565b620010df8162000c64565b82525050565b600081519050919050565b600082825260208201905092915050565b60005b838110156200112157808201518184015260208101905062001104565b8381111562001131576000848401525b50505050565b60006200114482620010e5565b620011508185620010f0565b93506200116281856020860162001101565b6200116d8162000ca4565b840191505092915050565b60006060820190506200118f6000830186620010d4565b8181036020830152620011a3818562001137565b90508181036040830152620011b9818462001137565b9050949350505050565b6000602082019050620011da6000830184620010d4565b92915050565b6000620011ed8262000c64565b9150620011fa8362000c64565b92508282101562001210576200120f62000f0e565b5b828203905092915050565b7f416d6f756e74206265696e67207472616e73666572726564206578636565647360008201527f20617661696c61626c6520756e6c6f636b65642062616c616e63650000000000602082015250565b600062001279603b8362000ff4565b915062001286826200121b565b604082019050919050565b60006020820190508181036000830152620012ac816200126a565b9050919050565b6000604082019050620012ca600083018562000f8b565b620012d96020830184620010d4565b9392505050565b6000604082019050620012f7600083018562000f8b565b62001306602083018462000fa6565b9392505050565b60006020828403121562001326576200132562000c5a565b5b6000620013368482850162000dbb565b91505092915050565b600060c08201905062001356600083018962000f8b565b62001365602083018862000f8b565b62001374604083018762000f8b565b620013836060830186620010d4565b818103608083015262001397818562001137565b905081810360a0830152620013ad818462001137565b9050979650505050505050565b7f4552433737373a20746f6b656e20726563697069656e7420636f6e747261637460008201527f20686173206e6f20696d706c656d656e74657220666f7220455243373737546f60208201527f6b656e73526563697069656e7400000000000000000000000000000000000000604082015250565b60006200143e604d8362000ff4565b91506200144b82620013ba565b606082019050919050565b6000602082019050818103600083015262001471816200142f565b9050919050565b7f4e487b7100000000000000000000000000000000000000000000000000000000600052602260045260246000fd5b60006002820490506001821680620014c057607f821691505b60208210811415620014d757620014d662001478565b5b50919050565b613e8b80620014ed6000396000f3fe608060405234801561001057600080fd5b50600436106101585760003560e01c80637e25414e116100c3578063d95b63711161007c578063d95b6371146103a1578063dd62ed3e146103d1578063f2fde38b14610401578063fad8b32a1461041d578063fc673c4f14610439578063fe9d93031461045557610158565b80637e25414e146102e15780638da5cb5b146102fd578063959b8c3f1461031b57806395d89b41146103375780639bd9bbc614610355578063a9059cbb1461037157610158565b806323b872dd1161011557806323b872dd1461021f578063313ce5671461024f578063556f0dc71461026d57806362ad1b831461028b57806370a08231146102a7578063715018a6146102d757610158565b806303ac338e1461015d57806306e485381461017957806306fdde0314610197578063095ea7b3146101b557806318160ddd146101e55780631bf2907b14610203575b600080fd5b61017760048036038101906101729190612777565b610471565b005b6101816105c7565b60405161018e9190612875565b60405180910390f35b61019f610655565b6040516101ac9190612930565b60405180910390f35b6101cf60048036038101906101ca9190612777565b6106e7565b6040516101dc919061296d565b60405180910390f35b6101ed61070a565b6040516101fa9190612997565b60405180910390f35b61021d60048036038101906102189190612bbd565b610714565b005b61023960048036038101906102349190612c64565b6108c3565b604051610246919061296d565b60405180910390f35b610257610a4d565b6040516102649190612cd3565b60405180910390f35b610275610a56565b6040516102829190612997565b60405180910390f35b6102a560048036038101906102a09190612da3565b610a5f565b005b6102c160048036038101906102bc9190612e56565b610ac5565b6040516102ce9190612997565b60405180910390f35b6102df610b0d565b005b6102fb60048036038101906102f69190612e83565b610b95565b005b610305610dd9565b6040516103129190612ee5565b60405180910390f35b61033560048036038101906103309190612e56565b610e03565b005b61033f611064565b60405161034c9190612930565b60405180910390f35b61036f600480360381019061036a9190612f00565b6110f6565b005b61038b60048036038101906103869190612777565b611120565b604051610398919061296d565b60405180910390f35b6103bb60048036038101906103b69190612f6f565b61122e565b6040516103c8919061296d565b60405180910390f35b6103eb60048036038101906103e69190612f6f565b6113df565b6040516103f89190612997565b60405180910390f35b61041b60048036038101906104169190612e56565b611466565b005b61043760048036038101906104329190612e56565b61155e565b005b610453600480360381019061044e9190612faf565b6117bf565b005b61046f600480360381019061046a919061304e565b611821565b005b610479611870565b73ffffffffffffffffffffffffffffffffffffffff16610497610dd9565b73ffffffffffffffffffffffffffffffffffffffff16146104ed576040517f08c379a00000000000000000000000000000000000000000000000000000000081526004016104e4906130f6565b60405180910390fd5b6000600a60008473ffffffffffffffffffffffffffffffffffffffff1673ffffffffffffffffffffffffffffffffffffffff16815260200190815260200160002060000154146105c357600a60008373ffffffffffffffffffffffffffffffffffffffff1673ffffffffffffffffffffffffffffffffffffffff168152602001908152602001600020600080820160009055600182016000905550507fc7798891864187665ac6dd119286e44ec13f014527aeeb2b8eb3fd413df9317982826040516105ba929190613116565b60405180910390a15b5050565b6060600480548060200260200160405190810160405280929190818152602001828054801561064b57602002820191906000526020600020905b8160009054906101000a900473ffffffffffffffffffffffffffffffffffffffff1673ffffffffffffffffffffffffffffffffffffffff1681526020019060010190808311610601575b5050505050905090565b6060600280546106649061316e565b80601f01602080910402602001604051908101604052809291908181526020018280546106909061316e565b80156106dd5780601f106106b2576101008083540402835291602001916106dd565b820191906000526020600020905b8154815290600101906020018083116106c057829003601f168201915b5050505050905090565b6000806106f2611870565b90506106ff818585611878565b600191505092915050565b6000600154905090565b61071c611870565b73ffffffffffffffffffffffffffffffffffffffff1661073a610dd9565b73ffffffffffffffffffffffffffffffffffffffff1614610790576040517f08c379a0000000000000000000000000000000000000000000000000000000008152600401610787906130f6565b60405180910390fd5b60005b83518110156108bd576000670de0b6b3a76400008483815181106107ba576107b96131a0565b5b60200260200101516107cc91906131fe565b905060008383815181106107e3576107e26131a0565b5b60200260200101511461084e57610849858381518110610806576108056131a0565b5b6020026020010151858481518110610821576108206131a0565b5b602002602001015185858151811061083c5761083b6131a0565b5b6020026020010151610b95565b6108a9565b6108a8858381518110610864576108636131a0565b5b6020026020010151826040518060400160405280600d81526020017f436f7665792041697264726f70000000000000000000000000000000000000008152506110f6565b5b5080806108b590613258565b915050610793565b50505050565b60008073ffffffffffffffffffffffffffffffffffffffff168373ffffffffffffffffffffffffffffffffffffffff161415610934576040517f08c379a000000000000000000000000000000000000000000000000000000000815260040161092b90613313565b60405180910390fd5b600073ffffffffffffffffffffffffffffffffffffffff168473ffffffffffffffffffffffffffffffffffffffff1614156109a4576040517f08c379a000000000000000000000000000000000000000000000000000000000815260040161099b906133a5565b60405180910390fd5b60006109ae611870565b90506109dc818686866040518060200160405280600081525060405180602001604052806000815250611a43565b6109e7858285611baa565b610a13818686866040518060200160405280600081525060405180602001604052806000815250611c36565b610a418186868660405180602001604052806000815250604051806020016040528060008152506000611e50565b60019150509392505050565b60006012905090565b60006001905090565b610a70610a6a611870565b8661122e565b610aaf576040517f08c379a0000000000000000000000000000000000000000000000000000000008152600401610aa690613437565b60405180910390fd5b610abe85858585856001612022565b5050505050565b60008060008373ffffffffffffffffffffffffffffffffffffffff1673ffffffffffffffffffffffffffffffffffffffff168152602001908152602001600020549050919050565b610b15611870565b73ffffffffffffffffffffffffffffffffffffffff16610b33610dd9565b73ffffffffffffffffffffffffffffffffffffffff1614610b89576040517f08c379a0000000000000000000000000000000000000000000000000000000008152600401610b80906130f6565b60405180910390fd5b610b936000612142565b565b610b9d611870565b73ffffffffffffffffffffffffffffffffffffffff16610bbb610dd9565b73ffffffffffffffffffffffffffffffffffffffff1614610c11576040517f08c379a0000000000000000000000000000000000000000000000000000000008152600401610c08906130f6565b60405180910390fd5b60008111610c54576040517f08c379a0000000000000000000000000000000000000000000000000000000008152600401610c4b906134a3565b60405180910390fd5b60008142610c6291906134c3565b905082600a60008673ffffffffffffffffffffffffffffffffffffffff1673ffffffffffffffffffffffffffffffffffffffff16815260200190815260200160002060000154610cb291906134c3565b600a60008673ffffffffffffffffffffffffffffffffffffffff1673ffffffffffffffffffffffffffffffffffffffff1681526020019081526020016000206000018190555080600a60008673ffffffffffffffffffffffffffffffffffffffff1673ffffffffffffffffffffffffffffffffffffffff168152602001908152602001600020600101819055506000670de0b6b3a764000084610d5591906131fe565b9050610d9785826040518060400160405280600d81526020017f4c6f636b656420546f6b656e73000000000000000000000000000000000000008152506110f6565b7f7ca69bc5f49091c7e66715c2162e0791b73bab693d9c11b972e43fdfeaabdf0b858284604051610dca93929190613519565b60405180910390a15050505050565b6000600960009054906101000a900473ffffffffffffffffffffffffffffffffffffffff16905090565b8073ffffffffffffffffffffffffffffffffffffffff16610e22611870565b73ffffffffffffffffffffffffffffffffffffffff161415610e79576040517f08c379a0000000000000000000000000000000000000000000000000000000008152600401610e70906135c2565b60405180910390fd5b600560008273ffffffffffffffffffffffffffffffffffffffff1673ffffffffffffffffffffffffffffffffffffffff16815260200190815260200160002060009054906101000a900460ff1615610f635760076000610ed7611870565b73ffffffffffffffffffffffffffffffffffffffff1673ffffffffffffffffffffffffffffffffffffffff16815260200190815260200160002060008273ffffffffffffffffffffffffffffffffffffffff1673ffffffffffffffffffffffffffffffffffffffff16815260200190815260200160002060006101000a81549060ff0219169055611000565b600160066000610f71611870565b73ffffffffffffffffffffffffffffffffffffffff1673ffffffffffffffffffffffffffffffffffffffff16815260200190815260200160002060008373ffffffffffffffffffffffffffffffffffffffff1673ffffffffffffffffffffffffffffffffffffffff16815260200190815260200160002060006101000a81548160ff0219169083151502179055505b611008611870565b73ffffffffffffffffffffffffffffffffffffffff168173ffffffffffffffffffffffffffffffffffffffff167ff4caeb2d6ca8932a215a353d0703c326ec2d81fc68170f320eb2ab49e9df61f960405160405180910390a350565b6060600380546110739061316e565b80601f016020809104026020016040519081016040528092919081815260200182805461109f9061316e565b80156110ec5780601f106110c1576101008083540402835291602001916110ec565b820191906000526020600020905b8154815290600101906020018083116110cf57829003601f168201915b5050505050905090565b61111b611101611870565b848484604051806020016040528060008152506001612022565b505050565b60008073ffffffffffffffffffffffffffffffffffffffff168373ffffffffffffffffffffffffffffffffffffffff161415611191576040517f08c379a000000000000000000000000000000000000000000000000000000000815260040161118890613313565b60405180910390fd5b600061119b611870565b90506111c9818286866040518060200160405280600081525060405180602001604052806000815250611a43565b6111f5818286866040518060200160405280600081525060405180602001604052806000815250611c36565b6112238182868660405180602001604052806000815250604051806020016040528060008152506000611e50565b600191505092915050565b60008173ffffffffffffffffffffffffffffffffffffffff168373ffffffffffffffffffffffffffffffffffffffff1614806113465750600560008473ffffffffffffffffffffffffffffffffffffffff1673ffffffffffffffffffffffffffffffffffffffff16815260200190815260200160002060009054906101000a900460ff1680156113455750600760008373ffffffffffffffffffffffffffffffffffffffff1673ffffffffffffffffffffffffffffffffffffffff16815260200190815260200160002060008473ffffffffffffffffffffffffffffffffffffffff1673ffffffffffffffffffffffffffffffffffffffff16815260200190815260200160002060009054906101000a900460ff16155b5b806113d75750600660008373ffffffffffffffffffffffffffffffffffffffff1673ffffffffffffffffffffffffffffffffffffffff16815260200190815260200160002060008473ffffffffffffffffffffffffffffffffffffffff1673ffffffffffffffffffffffffffffffffffffffff16815260200190815260200160002060009054906101000a900460ff165b905092915050565b6000600860008473ffffffffffffffffffffffffffffffffffffffff1673ffffffffffffffffffffffffffffffffffffffff16815260200190815260200160002060008373ffffffffffffffffffffffffffffffffffffffff1673ffffffffffffffffffffffffffffffffffffffff16815260200190815260200160002054905092915050565b61146e611870565b73ffffffffffffffffffffffffffffffffffffffff1661148c610dd9565b73ffffffffffffffffffffffffffffffffffffffff16146114e2576040517f08c379a00000000000000000000000000000000000000000000000000000000081526004016114d9906130f6565b60405180910390fd5b600073ffffffffffffffffffffffffffffffffffffffff168173ffffffffffffffffffffffffffffffffffffffff161415611552576040517f08c379a000000000000000000000000000000000000000000000000000000000815260040161154990613654565b60405180910390fd5b61155b81612142565b50565b611566611870565b73ffffffffffffffffffffffffffffffffffffffff168173ffffffffffffffffffffffffffffffffffffffff1614156115d4576040517f08c379a00000000000000000000000000000000000000000000000000000000081526004016115cb906136e6565b60405180910390fd5b600560008273ffffffffffffffffffffffffffffffffffffffff1673ffffffffffffffffffffffffffffffffffffffff16815260200190815260200160002060009054906101000a900460ff16156116c757600160076000611634611870565b73ffffffffffffffffffffffffffffffffffffffff1673ffffffffffffffffffffffffffffffffffffffff16815260200190815260200160002060008373ffffffffffffffffffffffffffffffffffffffff1673ffffffffffffffffffffffffffffffffffffffff16815260200190815260200160002060006101000a81548160ff02191690831515021790555061175b565b600660006116d3611870565b73ffffffffffffffffffffffffffffffffffffffff1673ffffffffffffffffffffffffffffffffffffffff16815260200190815260200160002060008273ffffffffffffffffffffffffffffffffffffffff1673ffffffffffffffffffffffffffffffffffffffff16815260200190815260200160002060006101000a81549060ff02191690555b611763611870565b73ffffffffffffffffffffffffffffffffffffffff168173ffffffffffffffffffffffffffffffffffffffff167f50546e66e5f44d728365dc3908c63bc5cfeeab470722c1677e3073a6ac294aa160405160405180910390a350565b6117d06117ca611870565b8561122e565b61180f576040517f08c379a000000000000000000000000000000000000000000000000000000000815260040161180690613437565b60405180910390fd5b61181b84848484612208565b50505050565b61184361182c611870565b838360405180602001604052806000815250612208565b5050565b50505050565b6000808273ffffffffffffffffffffffffffffffffffffffff163b119050919050565b600033905090565b600073ffffffffffffffffffffffffffffffffffffffff168373ffffffffffffffffffffffffffffffffffffffff1614156118e8576040517f08c379a00000000000000000000000000000000000000000000000000000000081526004016118df90613778565b60405180910390fd5b600073ffffffffffffffffffffffffffffffffffffffff168273ffffffffffffffffffffffffffffffffffffffff161415611958576040517f08c379a000000000000000000000000000000000000000000000000000000000815260040161194f9061380a565b60405180910390fd5b80600860008573ffffffffffffffffffffffffffffffffffffffff1673ffffffffffffffffffffffffffffffffffffffff16815260200190815260200160002060008473ffffffffffffffffffffffffffffffffffffffff1673ffffffffffffffffffffffffffffffffffffffff168152602001908152602001600020819055508173ffffffffffffffffffffffffffffffffffffffff168373ffffffffffffffffffffffffffffffffffffffff167f8c5be1e5ebec7d5bd14f71427d1e84f3dd0314c0f7b2291e5b200ac8c7c3b92583604051611a369190612997565b60405180910390a3505050565b6000731820a4b7618bde71dce8cdc73aab6c95905fad2473ffffffffffffffffffffffffffffffffffffffff1663aabbb8ca877f29ddb589b1fb5fc7cf394961c1adf5f8c6454761adf795e67fe149f658abe8956040518363ffffffff1660e01b8152600401611ab4929190613843565b602060405180830381865afa158015611ad1573d6000803e3d6000fd5b505050506040513d601f19601f82011682018060405250810190611af59190613881565b9050600073ffffffffffffffffffffffffffffffffffffffff168173ffffffffffffffffffffffffffffffffffffffff1614611ba1578073ffffffffffffffffffffffffffffffffffffffff166375ab97828888888888886040518763ffffffff1660e01b8152600401611b6e96959493929190613903565b600060405180830381600087803b158015611b8857600080fd5b505af1158015611b9c573d6000803e3d6000fd5b505050505b50505050505050565b6000611bb684846113df565b90507fffffffffffffffffffffffffffffffffffffffffffffffffffffffffffffffff8114611c305781811015611c22576040517f08c379a0000000000000000000000000000000000000000000000000000000008152600401611c19906139be565b60405180910390fd5b611c2f8484848403611878565b5b50505050565b611c428686868661245b565b60008060008773ffffffffffffffffffffffffffffffffffffffff1673ffffffffffffffffffffffffffffffffffffffff16815260200190815260200160002054905083811015611cc8576040517f08c379a0000000000000000000000000000000000000000000000000000000008152600401611cbf90613a50565b60405180910390fd5b8381036000808873ffffffffffffffffffffffffffffffffffffffff1673ffffffffffffffffffffffffffffffffffffffff16815260200190815260200160002081905550836000808773ffffffffffffffffffffffffffffffffffffffff1673ffffffffffffffffffffffffffffffffffffffff1681526020019081526020016000206000828254611d5b91906134c3565b925050819055508473ffffffffffffffffffffffffffffffffffffffff168673ffffffffffffffffffffffffffffffffffffffff168873ffffffffffffffffffffffffffffffffffffffff167f06b541ddaa720db2b10a4d0cdac39b8d360425fc073085fac19bc82614677987878787604051611dda93929190613a70565b60405180910390a48473ffffffffffffffffffffffffffffffffffffffff168673ffffffffffffffffffffffffffffffffffffffff167fddf252ad1be2c89b69c2b068fc378daa952ba7f163c4a11628f55a4df523b3ef86604051611e3f9190612997565b60405180910390a350505050505050565b6000731820a4b7618bde71dce8cdc73aab6c95905fad2473ffffffffffffffffffffffffffffffffffffffff1663aabbb8ca877fb281fc8c12954d22544db45de3159a39272895b169a852b314f9cc762e44c53b6040518363ffffffff1660e01b8152600401611ec1929190613843565b602060405180830381865afa158015611ede573d6000803e3d6000fd5b505050506040513d601f19601f82011682018060405250810190611f029190613881565b9050600073ffffffffffffffffffffffffffffffffffffffff168173ffffffffffffffffffffffffffffffffffffffff1614611fb1578073ffffffffffffffffffffffffffffffffffffffff166223de298989898989896040518763ffffffff1660e01b8152600401611f7a96959493929190613903565b600060405180830381600087803b158015611f9457600080fd5b505af1158015611fa8573d6000803e3d6000fd5b50505050612018565b811561201757611fd68673ffffffffffffffffffffffffffffffffffffffff1661184d565b15612016576040517f08c379a000000000000000000000000000000000000000000000000000000000815260040161200d90613b4d565b60405180910390fd5b5b5b5050505050505050565b600073ffffffffffffffffffffffffffffffffffffffff168673ffffffffffffffffffffffffffffffffffffffff161415612092576040517f08c379a000000000000000000000000000000000000000000000000000000000815260040161208990613bdf565b60405180910390fd5b600073ffffffffffffffffffffffffffffffffffffffff168573ffffffffffffffffffffffffffffffffffffffff161415612102576040517f08c379a00000000000000000000000000000000000000000000000000000000081526004016120f990613c4b565b60405180910390fd5b600061210c611870565b905061211c818888888888611a43565b61212a818888888888611c36565b61213981888888888888611e50565b50505050505050565b6000600960009054906101000a900473ffffffffffffffffffffffffffffffffffffffff16905081600960006101000a81548173ffffffffffffffffffffffffffffffffffffffff021916908373ffffffffffffffffffffffffffffffffffffffff1602179055508173ffffffffffffffffffffffffffffffffffffffff168173ffffffffffffffffffffffffffffffffffffffff167f8be0079c531659141344cd1fd0a4f28419497f9722a3daafe3b4186f6b6457e060405160405180910390a35050565b600073ffffffffffffffffffffffffffffffffffffffff168473ffffffffffffffffffffffffffffffffffffffff161415612278576040517f08c379a000000000000000000000000000000000000000000000000000000000815260040161226f90613cdd565b60405180910390fd5b6000612282611870565b905061229381866000878787611a43565b6122a0818660008761245b565b60008060008773ffffffffffffffffffffffffffffffffffffffff1673ffffffffffffffffffffffffffffffffffffffff16815260200190815260200160002054905084811015612326576040517f08c379a000000000000000000000000000000000000000000000000000000000815260040161231d90613d6f565b60405180910390fd5b8481036000808873ffffffffffffffffffffffffffffffffffffffff1673ffffffffffffffffffffffffffffffffffffffff16815260200190815260200160002081905550846001600082825461237d9190613d8f565b925050819055508573ffffffffffffffffffffffffffffffffffffffff168273ffffffffffffffffffffffffffffffffffffffff167fa78a9be3a7b862d26933ad85fb11d80ef66b8f972d7cbba06621d583943a40988787876040516123e593929190613a70565b60405180910390a3600073ffffffffffffffffffffffffffffffffffffffff168673ffffffffffffffffffffffffffffffffffffffff167fddf252ad1be2c89b69c2b068fc378daa952ba7f163c4a11628f55a4df523b3ef8760405161244b9190612997565b60405180910390a3505050505050565b6000600a60008573ffffffffffffffffffffffffffffffffffffffff1673ffffffffffffffffffffffffffffffffffffffff16815260200190815260200160002060000154141580156124ef5750600a60008473ffffffffffffffffffffffffffffffffffffffff1673ffffffffffffffffffffffffffffffffffffffff1681526020019081526020016000206001015442105b156125985760006124ff84610ac5565b90506000828261250f9190613d8f565b9050600a60008673ffffffffffffffffffffffffffffffffffffffff1673ffffffffffffffffffffffffffffffffffffffff168152602001908152602001600020600001548111612595576040517f08c379a000000000000000000000000000000000000000000000000000000000815260040161258c90613e35565b60405180910390fd5b50505b600a60008473ffffffffffffffffffffffffffffffffffffffff1673ffffffffffffffffffffffffffffffffffffffff168152602001908152602001600020600101544211801561262c57506000600a60008573ffffffffffffffffffffffffffffffffffffffff1673ffffffffffffffffffffffffffffffffffffffff1681526020019081526020016000206000015414155b156126bd57600a60008473ffffffffffffffffffffffffffffffffffffffff1673ffffffffffffffffffffffffffffffffffffffff168152602001908152602001600020600080820160009055600182016000905550507fc7798891864187665ac6dd119286e44ec13f014527aeeb2b8eb3fd413df9317983826040516126b4929190613116565b60405180910390a15b6126c984848484611847565b50505050565b6000604051905090565b600080fd5b600080fd5b600073ffffffffffffffffffffffffffffffffffffffff82169050919050565b600061270e826126e3565b9050919050565b61271e81612703565b811461272957600080fd5b50565b60008135905061273b81612715565b92915050565b6000819050919050565b61275481612741565b811461275f57600080fd5b50565b6000813590506127718161274b565b92915050565b6000806040838503121561278e5761278d6126d9565b5b600061279c8582860161272c565b92505060206127ad85828601612762565b9150509250929050565b600081519050919050565b600082825260208201905092915050565b6000819050602082019050919050565b6127ec81612703565b82525050565b60006127fe83836127e3565b60208301905092915050565b6000602082019050919050565b6000612822826127b7565b61282c81856127c2565b9350612837836127d3565b8060005b8381101561286857815161284f88826127f2565b975061285a8361280a565b92505060018101905061283b565b5085935050505092915050565b6000602082019050818103600083015261288f8184612817565b905092915050565b600081519050919050565b600082825260208201905092915050565b60005b838110156128d15780820151818401526020810190506128b6565b838111156128e0576000848401525b50505050565b6000601f19601f8301169050919050565b600061290282612897565b61290c81856128a2565b935061291c8185602086016128b3565b612925816128e6565b840191505092915050565b6000602082019050818103600083015261294a81846128f7565b905092915050565b60008115159050919050565b61296781612952565b82525050565b6000602082019050612982600083018461295e565b92915050565b61299181612741565b82525050565b60006020820190506129ac6000830184612988565b92915050565b600080fd5b7f4e487b7100000000000000000000000000000000000000000000000000000000600052604160045260246000fd5b6129ef826128e6565b810181811067ffffffffffffffff82111715612a0e57612a0d6129b7565b5b80604052505050565b6000612a216126cf565b9050612a2d82826129e6565b919050565b600067ffffffffffffffff821115612a4d57612a4c6129b7565b5b602082029050602081019050919050565b600080fd5b6000612a76612a7184612a32565b612a17565b90508083825260208201905060208402830185811115612a9957612a98612a5e565b5b835b81811015612ac25780612aae888261272c565b845260208401935050602081019050612a9b565b5050509392505050565b600082601f830112612ae157612ae06129b2565b5b8135612af1848260208601612a63565b91505092915050565b600067ffffffffffffffff821115612b1557612b146129b7565b5b602082029050602081019050919050565b6000612b39612b3484612afa565b612a17565b90508083825260208201905060208402830185811115612b5c57612b5b612a5e565b5b835b81811015612b855780612b718882612762565b845260208401935050602081019050612b5e565b5050509392505050565b600082601f830112612ba457612ba36129b2565b5b8135612bb4848260208601612b26565b91505092915050565b600080600060608486031215612bd657612bd56126d9565b5b600084013567ffffffffffffffff811115612bf457612bf36126de565b5b612c0086828701612acc565b935050602084013567ffffffffffffffff811115612c2157612c206126de565b5b612c2d86828701612b8f565b925050604084013567ffffffffffffffff811115612c4e57612c4d6126de565b5b612c5a86828701612b8f565b9150509250925092565b600080600060608486031215612c7d57612c7c6126d9565b5b6000612c8b8682870161272c565b9350506020612c9c8682870161272c565b9250506040612cad86828701612762565b9150509250925092565b600060ff82169050919050565b612ccd81612cb7565b82525050565b6000602082019050612ce86000830184612cc4565b92915050565b600080fd5b600067ffffffffffffffff821115612d0e57612d0d6129b7565b5b612d17826128e6565b9050602081019050919050565b82818337600083830152505050565b6000612d46612d4184612cf3565b612a17565b905082815260208101848484011115612d6257612d61612cee565b5b612d6d848285612d24565b509392505050565b600082601f830112612d8a57612d896129b2565b5b8135612d9a848260208601612d33565b91505092915050565b600080600080600060a08688031215612dbf57612dbe6126d9565b5b6000612dcd8882890161272c565b9550506020612dde8882890161272c565b9450506040612def88828901612762565b935050606086013567ffffffffffffffff811115612e1057612e0f6126de565b5b612e1c88828901612d75565b925050608086013567ffffffffffffffff811115612e3d57612e3c6126de565b5b612e4988828901612d75565b9150509295509295909350565b600060208284031215612e6c57612e6b6126d9565b5b6000612e7a8482850161272c565b91505092915050565b600080600060608486031215612e9c57612e9b6126d9565b5b6000612eaa8682870161272c565b9350506020612ebb86828701612762565b9250506040612ecc86828701612762565b9150509250925092565b612edf81612703565b82525050565b6000602082019050612efa6000830184612ed6565b92915050565b600080600060608486031215612f1957612f186126d9565b5b6000612f278682870161272c565b9350506020612f3886828701612762565b925050604084013567ffffffffffffffff811115612f5957612f586126de565b5b612f6586828701612d75565b9150509250925092565b60008060408385031215612f8657612f856126d9565b5b6000612f948582860161272c565b9250506020612fa58582860161272c565b9150509250929050565b60008060008060808587031215612fc957612fc86126d9565b5b6000612fd78782880161272c565b9450506020612fe887828801612762565b935050604085013567ffffffffffffffff811115613009576130086126de565b5b61301587828801612d75565b925050606085013567ffffffffffffffff811115613036576130356126de565b5b61304287828801612d75565b91505092959194509250565b60008060408385031215613065576130646126d9565b5b600061307385828601612762565b925050602083013567ffffffffffffffff811115613094576130936126de565b5b6130a085828601612d75565b9150509250929050565b7f4f776e61626c653a2063616c6c6572206973206e6f7420746865206f776e6572600082015250565b60006130e06020836128a2565b91506130eb826130aa565b602082019050919050565b6000602082019050818103600083015261310f816130d3565b9050919050565b600060408201905061312b6000830185612ed6565b6131386020830184612988565b9392505050565b7f4e487b7100000000000000000000000000000000000000000000000000000000600052602260045260246000fd5b6000600282049050600182168061318657607f821691505b6020821081141561319a5761319961313f565b5b50919050565b7f4e487b7100000000000000000000000000000000000000000000000000000000600052603260045260246000fd5b7f4e487b7100000000000000000000000000000000000000000000000000000000600052601160045260246000fd5b600061320982612741565b915061321483612741565b9250817fffffffffffffffffffffffffffffffffffffffffffffffffffffffffffffffff048311821515161561324d5761324c6131cf565b5b828202905092915050565b600061326382612741565b91507fffffffffffffffffffffffffffffffffffffffffffffffffffffffffffffffff821415613296576132956131cf565b5b600182019050919050565b7f4552433737373a207472616e7366657220746f20746865207a65726f2061646460008201527f7265737300000000000000000000000000000000000000000000000000000000602082015250565b60006132fd6024836128a2565b9150613308826132a1565b604082019050919050565b6000602082019050818103600083015261332c816132f0565b9050919050565b7f4552433737373a207472616e736665722066726f6d20746865207a65726f206160008201527f6464726573730000000000000000000000000000000000000000000000000000602082015250565b600061338f6026836128a2565b915061339a82613333565b604082019050919050565b600060208201905081810360008301526133be81613382565b9050919050565b7f4552433737373a2063616c6c6572206973206e6f7420616e206f70657261746f60008201527f7220666f7220686f6c6465720000000000000000000000000000000000000000602082015250565b6000613421602c836128a2565b915061342c826133c5565b604082019050919050565b6000602082019050818103600083015261345081613414565b9050919050565b7f54696d6520746f206c6f636b206d757374206265206d6f7265207468616e2030600082015250565b600061348d6020836128a2565b915061349882613457565b602082019050919050565b600060208201905081810360008301526134bc81613480565b9050919050565b60006134ce82612741565b91506134d983612741565b9250827fffffffffffffffffffffffffffffffffffffffffffffffffffffffffffffffff0382111561350e5761350d6131cf565b5b828201905092915050565b600060608201905061352e6000830186612ed6565b61353b6020830185612988565b6135486040830184612988565b949350505050565b7f4552433737373a20617574686f72697a696e672073656c66206173206f70657260008201527f61746f7200000000000000000000000000000000000000000000000000000000602082015250565b60006135ac6024836128a2565b91506135b782613550565b604082019050919050565b600060208201905081810360008301526135db8161359f565b9050919050565b7f4f776e61626c653a206e6577206f776e657220697320746865207a65726f206160008201527f6464726573730000000000000000000000000000000000000000000000000000602082015250565b600061363e6026836128a2565b9150613649826135e2565b604082019050919050565b6000602082019050818103600083015261366d81613631565b9050919050565b7f4552433737373a207265766f6b696e672073656c66206173206f70657261746f60008201527f7200000000000000000000000000000000000000000000000000000000000000602082015250565b60006136d06021836128a2565b91506136db82613674565b604082019050919050565b600060208201905081810360008301526136ff816136c3565b9050919050565b7f4552433737373a20617070726f76652066726f6d20746865207a65726f20616460008201527f6472657373000000000000000000000000000000000000000000000000000000602082015250565b60006137626025836128a2565b915061376d82613706565b604082019050919050565b6000602082019050818103600083015261379181613755565b9050919050565b7f4552433737373a20617070726f766520746f20746865207a65726f206164647260008201527f6573730000000000000000000000000000000000000000000000000000000000602082015250565b60006137f46023836128a2565b91506137ff82613798565b604082019050919050565b60006020820190508181036000830152613823816137e7565b9050919050565b6000819050919050565b61383d8161382a565b82525050565b60006040820190506138586000830185612ed6565b6138656020830184613834565b9392505050565b60008151905061387b81612715565b92915050565b600060208284031215613897576138966126d9565b5b60006138a58482850161386c565b91505092915050565b600081519050919050565b600082825260208201905092915050565b60006138d5826138ae565b6138df81856138b9565b93506138ef8185602086016128b3565b6138f8816128e6565b840191505092915050565b600060c0820190506139186000830189612ed6565b6139256020830188612ed6565b6139326040830187612ed6565b61393f6060830186612988565b818103608083015261395181856138ca565b905081810360a083015261396581846138ca565b9050979650505050505050565b7f4552433737373a20696e73756666696369656e7420616c6c6f77616e63650000600082015250565b60006139a8601e836128a2565b91506139b382613972565b602082019050919050565b600060208201905081810360008301526139d78161399b565b9050919050565b7f4552433737373a207472616e7366657220616d6f756e7420657863656564732060008201527f62616c616e636500000000000000000000000000000000000000000000000000602082015250565b6000613a3a6027836128a2565b9150613a45826139de565b604082019050919050565b60006020820190508181036000830152613a6981613a2d565b9050919050565b6000606082019050613a856000830186612988565b8181036020830152613a9781856138ca565b90508181036040830152613aab81846138ca565b9050949350505050565b7f4552433737373a20746f6b656e20726563697069656e7420636f6e747261637460008201527f20686173206e6f20696d706c656d656e74657220666f7220455243373737546f60208201527f6b656e73526563697069656e7400000000000000000000000000000000000000604082015250565b6000613b37604d836128a2565b9150613b4282613ab5565b606082019050919050565b60006020820190508181036000830152613b6681613b2a565b9050919050565b7f4552433737373a2073656e642066726f6d20746865207a65726f20616464726560008201527f7373000000000000000000000000000000000000000000000000000000000000602082015250565b6000613bc96022836128a2565b9150613bd482613b6d565b604082019050919050565b60006020820190508181036000830152613bf881613bbc565b9050919050565b7f4552433737373a2073656e6420746f20746865207a65726f2061646472657373600082015250565b6000613c356020836128a2565b9150613c4082613bff565b602082019050919050565b60006020820190508181036000830152613c6481613c28565b9050919050565b7f4552433737373a206275726e2066726f6d20746865207a65726f20616464726560008201527f7373000000000000000000000000000000000000000000000000000000000000602082015250565b6000613cc76022836128a2565b9150613cd282613c6b565b604082019050919050565b60006020820190508181036000830152613cf681613cba565b9050919050565b7f4552433737373a206275726e20616d6f756e7420657863656564732062616c6160008201527f6e63650000000000000000000000000000000000000000000000000000000000602082015250565b6000613d596023836128a2565b9150613d6482613cfd565b604082019050919050565b60006020820190508181036000830152613d8881613d4c565b9050919050565b6000613d9a82612741565b9150613da583612741565b925082821015613db857613db76131cf565b5b828203905092915050565b7f416d6f756e74206265696e67207472616e73666572726564206578636565647360008201527f20617661696c61626c6520756e6c6f636b65642062616c616e63650000000000602082015250565b6000613e1f603b836128a2565b9150613e2a82613dc3565b604082019050919050565b60006020820190508181036000830152613e4e81613e12565b905091905056fea2646970667358221220e71bef6a14a16f8c0265d10f7e63b5cf5d511e7a98029eb0fbea446a9ea77f7964736f6c634300080b0033",
  "immutableReferences": {},
  "source": "pragma solidity ^0.8.11;\n\nimport \"@openzeppelin/contracts/token/ERC777/ERC777.sol\";\nimport \"@openzeppelin/contracts/access/Ownable.sol\";\n\n\ncontract CoveyToken is ERC777, Ownable {\n\n  struct TokenLock {\n    uint256 amount;\n    uint unlockAt;\n  }\n\n  mapping(address => TokenLock) _tokenLocks; \n\n  constructor (uint initialSupply, address[] memory defaultOperators) ERC777(\"Covey\", \"CVY\", defaultOperators) {\n    _mint(msg.sender, initialSupply, \"\", \"\");\n  }\n\n\n  event LockedTokensSent(address to, uint256 amount, uint unlockTime);\n\n  event TokensReleased(address to, uint256 amount);\n\n  function isActive() view internal returns (bool) {\n    return (\n        balanceOf(owner()) > 0\n    );\n  }\n\n  function _beforeTokenTransfer(\n      address operator,\n      address from,\n      address to,\n      uint256 amount\n  ) internal virtual override {\n    if(_tokenLocks[from].amount != 0 && block.timestamp < _tokenLocks[from].unlockAt) {\n      uint256 currentBalance = balanceOf(from);\n      uint256 balanceAfter = currentBalance - amount;\n\n      require(balanceAfter > _tokenLocks[from].amount, \"Amount being transferred exceeds available unlocked balance\");\n    }\n    \n    if(block.timestamp > _tokenLocks[from].unlockAt && _tokenLocks[from].amount != 0) {\n      delete _tokenLocks[from];\n      emit TokensReleased(from, amount);\n    }\n\n    super._beforeTokenTransfer(operator,from,to,amount);\n  }\n\n\n  function airdrop  (address[] memory recipients, uint256[] memory amounts, uint256[] memory lockForSeconds) public onlyOwner {\n    for(uint i = 0; i < recipients.length; i++) {\n      uint256 toSend = amounts[i] * 10**18;\n      if(lockForSeconds[i] != 0) {\n        sendLocked(recipients[i], amounts[i], lockForSeconds[i]);\n      } else {\n        send(recipients[i], toSend, \"Covey Airdrop\");\n      }\n    }\n  }\n\n  function sendLocked(address to, uint256 amount, uint timeToLock) public onlyOwner {\n    require(timeToLock > 0, \"Time to lock must be more than 0\");\n    uint unlockAt = block.timestamp + timeToLock;\n    _tokenLocks[to].amount = _tokenLocks[to].amount + amount;\n    _tokenLocks[to].unlockAt = unlockAt;\n    uint256 toSend = amount * 10**18;\n    send(to,toSend, \"Locked Tokens\");\n    emit LockedTokensSent(to, toSend, unlockAt);\n  }\n\n  function removeTokenLock(address to, uint256 amount) public onlyOwner {\n    if(_tokenLocks[to].amount != 0) {\n      delete _tokenLocks[to];\n      emit TokensReleased(to, amount);\n    }\n  }\n}",
  "sourcePath": "C:\\Users\\jcara\\Documents\\repos\\covey-token\\contracts\\CoveyToken.sol",
  "compiler": {
    "name": "solc",
    "version": "0.8.11+commit.d7f03943.Emscripten.clang"
  },
  "schemaVersion": "3.4.4",
  "updatedAt": "2022-05-03T20:15:51.533Z",
  "devdoc": {
    "kind": "dev",
    "methods": {
      "allowance(address,address)": {
        "details": "See {IERC20-allowance}. Note that operator and allowance concepts are orthogonal: operators may not have allowance, and accounts with allowance may not be operators themselves."
      },
      "approve(address,uint256)": {
        "details": "See {IERC20-approve}. NOTE: If `value` is the maximum `uint256`, the allowance is not updated on `transferFrom`. This is semantically equivalent to an infinite approval. Note that accounts cannot have allowance issued by their operators."
      },
      "authorizeOperator(address)": {
        "details": "See {IERC777-authorizeOperator}."
      },
      "balanceOf(address)": {
        "details": "Returns the amount of tokens owned by an account (`tokenHolder`)."
      },
      "burn(uint256,bytes)": {
        "details": "See {IERC777-burn}. Also emits a {IERC20-Transfer} event for ERC20 compatibility."
      },
      "decimals()": {
        "details": "See {ERC20-decimals}. Always returns 18, as per the [ERC777 EIP](https://eips.ethereum.org/EIPS/eip-777#backward-compatibility)."
      },
      "defaultOperators()": {
        "details": "See {IERC777-defaultOperators}."
      },
      "granularity()": {
        "details": "See {IERC777-granularity}. This implementation always returns `1`."
      },
      "isOperatorFor(address,address)": {
        "details": "See {IERC777-isOperatorFor}."
      },
      "name()": {
        "details": "See {IERC777-name}."
      },
      "operatorBurn(address,uint256,bytes,bytes)": {
        "details": "See {IERC777-operatorBurn}. Emits {Burned} and {IERC20-Transfer} events."
      },
      "operatorSend(address,address,uint256,bytes,bytes)": {
        "details": "See {IERC777-operatorSend}. Emits {Sent} and {IERC20-Transfer} events."
      },
      "owner()": {
        "details": "Returns the address of the current owner."
      },
      "renounceOwnership()": {
        "details": "Leaves the contract without owner. It will not be possible to call `onlyOwner` functions anymore. Can only be called by the current owner. NOTE: Renouncing ownership will leave the contract without an owner, thereby removing any functionality that is only available to the owner."
      },
      "revokeOperator(address)": {
        "details": "See {IERC777-revokeOperator}."
      },
      "send(address,uint256,bytes)": {
        "details": "See {IERC777-send}. Also emits a {IERC20-Transfer} event for ERC20 compatibility."
      },
      "symbol()": {
        "details": "See {IERC777-symbol}."
      },
      "totalSupply()": {
        "details": "See {IERC777-totalSupply}."
      },
      "transfer(address,uint256)": {
        "details": "See {IERC20-transfer}. Unlike `send`, `recipient` is _not_ required to implement the {IERC777Recipient} interface if it is a contract. Also emits a {Sent} event."
      },
      "transferFrom(address,address,uint256)": {
        "details": "See {IERC20-transferFrom}. NOTE: Does not update the allowance if the current allowance is the maximum `uint256`. Note that operator and allowance concepts are orthogonal: operators cannot call `transferFrom` (unless they have allowance), and accounts with allowance cannot call `operatorSend` (unless they are operators). Emits {Sent}, {IERC20-Transfer} and {IERC20-Approval} events."
      },
      "transferOwnership(address)": {
        "details": "Transfers ownership of the contract to a new account (`newOwner`). Can only be called by the current owner."
      }
    },
    "version": 1
  },
  "userdoc": {
    "kind": "user",
    "methods": {},
    "version": 1
  }
}