{
  "contractName": "CoveyToken",
  "abi": [
    {
      "inputs": [
        {
          "internalType": "uint256",
          "name": "initialSupply",
          "type": "uint256"
        },
        {
          "internalType": "address[]",
          "name": "defaultOperators",
          "type": "address[]"
        }
      ],
      "stateMutability": "nonpayable",
      "type": "constructor"
    },
    {
      "anonymous": false,
      "inputs": [
        {
          "indexed": true,
          "internalType": "address",
          "name": "owner",
          "type": "address"
        },
        {
          "indexed": true,
          "internalType": "address",
          "name": "spender",
          "type": "address"
        },
        {
          "indexed": false,
          "internalType": "uint256",
          "name": "value",
          "type": "uint256"
        }
      ],
      "name": "Approval",
      "type": "event"
    },
    {
      "anonymous": false,
      "inputs": [
        {
          "indexed": true,
          "internalType": "address",
          "name": "operator",
          "type": "address"
        },
        {
          "indexed": true,
          "internalType": "address",
          "name": "tokenHolder",
          "type": "address"
        }
      ],
      "name": "AuthorizedOperator",
      "type": "event"
    },
    {
      "anonymous": false,
      "inputs": [
        {
          "indexed": true,
          "internalType": "address",
          "name": "operator",
          "type": "address"
        },
        {
          "indexed": true,
          "internalType": "address",
          "name": "from",
          "type": "address"
        },
        {
          "indexed": false,
          "internalType": "uint256",
          "name": "amount",
          "type": "uint256"
        },
        {
          "indexed": false,
          "internalType": "bytes",
          "name": "data",
          "type": "bytes"
        },
        {
          "indexed": false,
          "internalType": "bytes",
          "name": "operatorData",
          "type": "bytes"
        }
      ],
      "name": "Burned",
      "type": "event"
    },
    {
      "anonymous": false,
      "inputs": [
        {
          "indexed": true,
          "internalType": "address",
          "name": "_adr",
          "type": "address"
        },
        {
          "indexed": false,
          "internalType": "uint256",
          "name": "amount",
          "type": "uint256"
        },
        {
          "indexed": true,
          "internalType": "uint256",
          "name": "unlockTime",
          "type": "uint256"
        },
        {
          "indexed": true,
          "internalType": "string",
          "name": "reason",
          "type": "string"
        }
      ],
      "name": "Lock",
      "type": "event"
    },
    {
      "anonymous": false,
      "inputs": [
        {
          "indexed": true,
          "internalType": "address",
          "name": "operator",
          "type": "address"
        },
        {
          "indexed": true,
          "internalType": "address",
          "name": "to",
          "type": "address"
        },
        {
          "indexed": false,
          "internalType": "uint256",
          "name": "amount",
          "type": "uint256"
        },
        {
          "indexed": false,
          "internalType": "bytes",
          "name": "data",
          "type": "bytes"
        },
        {
          "indexed": false,
          "internalType": "bytes",
          "name": "operatorData",
          "type": "bytes"
        }
      ],
      "name": "Minted",
      "type": "event"
    },
    {
      "anonymous": false,
      "inputs": [
        {
          "indexed": true,
          "internalType": "address",
          "name": "previousOwner",
          "type": "address"
        },
        {
          "indexed": true,
          "internalType": "address",
          "name": "newOwner",
          "type": "address"
        }
      ],
      "name": "OwnershipTransferred",
      "type": "event"
    },
    {
      "anonymous": false,
      "inputs": [
        {
          "indexed": true,
          "internalType": "address",
          "name": "operator",
          "type": "address"
        },
        {
          "indexed": true,
          "internalType": "address",
          "name": "tokenHolder",
          "type": "address"
        }
      ],
      "name": "RevokedOperator",
      "type": "event"
    },
    {
      "anonymous": false,
      "inputs": [
        {
          "indexed": true,
          "internalType": "address",
          "name": "operator",
          "type": "address"
        },
        {
          "indexed": true,
          "internalType": "address",
          "name": "from",
          "type": "address"
        },
        {
          "indexed": true,
          "internalType": "address",
          "name": "to",
          "type": "address"
        },
        {
          "indexed": false,
          "internalType": "uint256",
          "name": "amount",
          "type": "uint256"
        },
        {
          "indexed": false,
          "internalType": "bytes",
          "name": "data",
          "type": "bytes"
        },
        {
          "indexed": false,
          "internalType": "bytes",
          "name": "operatorData",
          "type": "bytes"
        }
      ],
      "name": "Sent",
      "type": "event"
    },
    {
      "anonymous": false,
      "inputs": [
        {
          "indexed": true,
          "internalType": "address",
          "name": "from",
          "type": "address"
        },
        {
          "indexed": true,
          "internalType": "address",
          "name": "to",
          "type": "address"
        },
        {
          "indexed": false,
          "internalType": "uint256",
          "name": "value",
          "type": "uint256"
        }
      ],
      "name": "Transfer",
      "type": "event"
    },
    {
      "anonymous": false,
      "inputs": [
        {
          "indexed": true,
          "internalType": "address",
          "name": "_adr",
          "type": "address"
        },
        {
          "indexed": false,
          "internalType": "uint256",
          "name": "amount",
          "type": "uint256"
        }
      ],
      "name": "Unlock",
      "type": "event"
    },
    {
      "inputs": [
        {
          "internalType": "address",
          "name": "holder",
          "type": "address"
        },
        {
          "internalType": "address",
          "name": "spender",
          "type": "address"
        }
      ],
      "name": "allowance",
      "outputs": [
        {
          "internalType": "uint256",
          "name": "",
          "type": "uint256"
        }
      ],
      "stateMutability": "view",
      "type": "function",
      "constant": true
    },
    {
      "inputs": [
        {
          "internalType": "address",
          "name": "spender",
          "type": "address"
        },
        {
          "internalType": "uint256",
          "name": "value",
          "type": "uint256"
        }
      ],
      "name": "approve",
      "outputs": [
        {
          "internalType": "bool",
          "name": "",
          "type": "bool"
        }
      ],
      "stateMutability": "nonpayable",
      "type": "function"
    },
    {
      "inputs": [
        {
          "internalType": "address",
          "name": "operator",
          "type": "address"
        }
      ],
      "name": "authorizeOperator",
      "outputs": [],
      "stateMutability": "nonpayable",
      "type": "function"
    },
    {
      "inputs": [
        {
          "internalType": "address",
          "name": "tokenHolder",
          "type": "address"
        }
      ],
      "name": "balanceOf",
      "outputs": [
        {
          "internalType": "uint256",
          "name": "",
          "type": "uint256"
        }
      ],
      "stateMutability": "view",
      "type": "function",
      "constant": true
    },
    {
      "inputs": [
        {
          "internalType": "uint256",
          "name": "amount",
          "type": "uint256"
        },
        {
          "internalType": "bytes",
          "name": "data",
          "type": "bytes"
        }
      ],
      "name": "burn",
      "outputs": [],
      "stateMutability": "nonpayable",
      "type": "function"
    },
    {
      "inputs": [],
      "name": "decimals",
      "outputs": [
        {
          "internalType": "uint8",
          "name": "",
          "type": "uint8"
        }
      ],
      "stateMutability": "pure",
      "type": "function",
      "constant": true
    },
    {
      "inputs": [],
      "name": "defaultOperators",
      "outputs": [
        {
          "internalType": "address[]",
          "name": "",
          "type": "address[]"
        }
      ],
      "stateMutability": "view",
      "type": "function",
      "constant": true
    },
    {
      "inputs": [],
      "name": "granularity",
      "outputs": [
        {
          "internalType": "uint256",
          "name": "",
          "type": "uint256"
        }
      ],
      "stateMutability": "view",
      "type": "function",
      "constant": true
    },
    {
      "inputs": [
        {
          "internalType": "address",
          "name": "operator",
          "type": "address"
        },
        {
          "internalType": "address",
          "name": "tokenHolder",
          "type": "address"
        }
      ],
      "name": "isOperatorFor",
      "outputs": [
        {
          "internalType": "bool",
          "name": "",
          "type": "bool"
        }
      ],
      "stateMutability": "view",
      "type": "function",
      "constant": true
    },
    {
      "inputs": [],
      "name": "name",
      "outputs": [
        {
          "internalType": "string",
          "name": "",
          "type": "string"
        }
      ],
      "stateMutability": "view",
      "type": "function",
      "constant": true
    },
    {
      "inputs": [
        {
          "internalType": "address",
          "name": "account",
          "type": "address"
        },
        {
          "internalType": "uint256",
          "name": "amount",
          "type": "uint256"
        },
        {
          "internalType": "bytes",
          "name": "data",
          "type": "bytes"
        },
        {
          "internalType": "bytes",
          "name": "operatorData",
          "type": "bytes"
        }
      ],
      "name": "operatorBurn",
      "outputs": [],
      "stateMutability": "nonpayable",
      "type": "function"
    },
    {
      "inputs": [
        {
          "internalType": "address",
          "name": "sender",
          "type": "address"
        },
        {
          "internalType": "address",
          "name": "recipient",
          "type": "address"
        },
        {
          "internalType": "uint256",
          "name": "amount",
          "type": "uint256"
        },
        {
          "internalType": "bytes",
          "name": "data",
          "type": "bytes"
        },
        {
          "internalType": "bytes",
          "name": "operatorData",
          "type": "bytes"
        }
      ],
      "name": "operatorSend",
      "outputs": [],
      "stateMutability": "nonpayable",
      "type": "function"
    },
    {
      "inputs": [],
      "name": "owner",
      "outputs": [
        {
          "internalType": "address",
          "name": "",
          "type": "address"
        }
      ],
      "stateMutability": "view",
      "type": "function",
      "constant": true
    },
    {
      "inputs": [],
      "name": "renounceOwnership",
      "outputs": [],
      "stateMutability": "nonpayable",
      "type": "function"
    },
    {
      "inputs": [
        {
          "internalType": "address",
          "name": "operator",
          "type": "address"
        }
      ],
      "name": "revokeOperator",
      "outputs": [],
      "stateMutability": "nonpayable",
      "type": "function"
    },
    {
      "inputs": [
        {
          "internalType": "address",
          "name": "recipient",
          "type": "address"
        },
        {
          "internalType": "uint256",
          "name": "amount",
          "type": "uint256"
        },
        {
          "internalType": "bytes",
          "name": "data",
          "type": "bytes"
        }
      ],
      "name": "send",
      "outputs": [],
      "stateMutability": "nonpayable",
      "type": "function"
    },
    {
      "inputs": [],
      "name": "symbol",
      "outputs": [
        {
          "internalType": "string",
          "name": "",
          "type": "string"
        }
      ],
      "stateMutability": "view",
      "type": "function",
      "constant": true
    },
    {
      "inputs": [],
      "name": "totalSupply",
      "outputs": [
        {
          "internalType": "uint256",
          "name": "",
          "type": "uint256"
        }
      ],
      "stateMutability": "view",
      "type": "function",
      "constant": true
    },
    {
      "inputs": [
        {
          "internalType": "address",
          "name": "recipient",
          "type": "address"
        },
        {
          "internalType": "uint256",
          "name": "amount",
          "type": "uint256"
        }
      ],
      "name": "transfer",
      "outputs": [
        {
          "internalType": "bool",
          "name": "",
          "type": "bool"
        }
      ],
      "stateMutability": "nonpayable",
      "type": "function"
    },
    {
      "inputs": [
        {
          "internalType": "address",
          "name": "holder",
          "type": "address"
        },
        {
          "internalType": "address",
          "name": "recipient",
          "type": "address"
        },
        {
          "internalType": "uint256",
          "name": "amount",
          "type": "uint256"
        }
      ],
      "name": "transferFrom",
      "outputs": [
        {
          "internalType": "bool",
          "name": "",
          "type": "bool"
        }
      ],
      "stateMutability": "nonpayable",
      "type": "function"
    },
    {
      "inputs": [
        {
          "internalType": "address",
          "name": "newOwner",
          "type": "address"
        }
      ],
      "name": "transferOwnership",
      "outputs": [],
      "stateMutability": "nonpayable",
      "type": "function"
    },
    {
      "inputs": [
        {
          "internalType": "address",
          "name": "account",
          "type": "address"
        },
        {
          "internalType": "uint256",
          "name": "amount",
          "type": "uint256"
        },
        {
          "internalType": "bytes",
          "name": "userData",
          "type": "bytes"
        },
        {
          "internalType": "bytes",
          "name": "operatorData",
          "type": "bytes"
        }
      ],
      "name": "mint",
      "outputs": [],
      "stateMutability": "nonpayable",
      "type": "function"
    },
    {
      "inputs": [
        {
          "internalType": "address",
          "name": "tokenHolder",
          "type": "address"
        }
      ],
      "name": "lockedBalanceOf",
      "outputs": [
        {
          "internalType": "uint256",
          "name": "",
          "type": "uint256"
        }
      ],
      "stateMutability": "view",
      "type": "function",
      "constant": true
    },
    {
      "inputs": [
        {
          "internalType": "address",
          "name": "tokenHolder",
          "type": "address"
        }
      ],
      "name": "unlockedBalancedOf",
      "outputs": [
        {
          "internalType": "uint256",
          "name": "",
          "type": "uint256"
        }
      ],
      "stateMutability": "view",
      "type": "function",
      "constant": true
    },
    {
      "inputs": [
        {
          "internalType": "address",
          "name": "tokenHolder",
          "type": "address"
        }
      ],
      "name": "getLocks",
      "outputs": [
        {
          "components": [
            {
              "internalType": "uint256",
              "name": "amount",
              "type": "uint256"
            },
            {
              "internalType": "uint256",
              "name": "unlockAt",
              "type": "uint256"
            },
            {
              "internalType": "string",
              "name": "reason",
              "type": "string"
            }
          ],
          "internalType": "struct CoveyToken.TokenLock[]",
          "name": "",
          "type": "tuple[]"
        }
      ],
      "stateMutability": "view",
      "type": "function",
      "constant": true
    },
    {
      "inputs": [],
      "name": "maxSupply",
      "outputs": [
        {
          "internalType": "uint256",
          "name": "",
          "type": "uint256"
        }
      ],
      "stateMutability": "view",
      "type": "function",
      "constant": true
    },
    {
      "inputs": [
        {
          "components": [
            {
              "internalType": "address",
              "name": "recipient",
              "type": "address"
            },
            {
              "internalType": "uint256",
              "name": "amount",
              "type": "uint256"
            },
            {
              "internalType": "uint256",
              "name": "lockForSeconds",
              "type": "uint256"
            },
            {
              "internalType": "string",
              "name": "reason",
              "type": "string"
            }
          ],
          "internalType": "struct CoveyToken.Airdrop[]",
          "name": "airdrops",
          "type": "tuple[]"
        }
      ],
      "name": "airdrop",
      "outputs": [],
      "stateMutability": "nonpayable",
      "type": "function"
    },
    {
      "inputs": [
        {
          "internalType": "address",
          "name": "to",
          "type": "address"
        },
        {
          "internalType": "uint256",
          "name": "amount",
          "type": "uint256"
        },
        {
          "internalType": "uint256",
          "name": "timeToLock",
          "type": "uint256"
        },
        {
          "internalType": "string",
          "name": "reason",
          "type": "string"
        }
      ],
      "name": "sendLocked",
      "outputs": [],
      "stateMutability": "nonpayable",
      "type": "function"
    },
    {
      "inputs": [
        {
          "internalType": "address",
          "name": "_adr",
          "type": "address"
        },
        {
          "internalType": "uint256",
          "name": "lockIndex",
          "type": "uint256"
        }
      ],
      "name": "unlock",
      "outputs": [],
      "stateMutability": "nonpayable",
      "type": "function"
    }
  ],
  "bytecode": "0x60806040526b033b2e3c9fd0803ce8000000600b553480156200002157600080fd5b50604051620063ae380380620063ae833981810160405281019062000047919062001181565b6040518060400160405280600581526020017f436f7665790000000000000000000000000000000000000000000000000000008152506040518060400160405280600381526020017f4356590000000000000000000000000000000000000000000000000000000000815250828260029080519060200190620000cc92919062000dd3565b508160039080519060200190620000e592919062000dd3565b508060049080519060200190620000fe92919062000e64565b5060005b81518110156200019757600160056000848481518110620001285762000127620011e7565b5b602002602001015173ffffffffffffffffffffffffffffffffffffffff1673ffffffffffffffffffffffffffffffffffffffff16815260200190815260200160002060006101000a81548160ff02191690831515021790555080806200018e9062001245565b91505062000102565b50731820a4b7618bde71dce8cdc73aab6c95905fad2473ffffffffffffffffffffffffffffffffffffffff166329965a1d307fac7fbab5f54a3ca8194167523c6753bfeb96a445279294b6125b68cce2177054306040518463ffffffff1660e01b81526004016200020b93929190620012bf565b600060405180830381600087803b1580156200022657600080fd5b505af11580156200023b573d6000803e3d6000fd5b50505050731820a4b7618bde71dce8cdc73aab6c95905fad2473ffffffffffffffffffffffffffffffffffffffff166329965a1d307faea199e31a596269b42cdafd93407f14436db6e4cad65417994c2eb37381e05a306040518463ffffffff1660e01b8152600401620002b293929190620012bf565b600060405180830381600087803b158015620002cd57600080fd5b505af1158015620002e2573d6000803e3d6000fd5b5050505050505062000309620002fd6200034360201b60201c565b6200034b60201b60201c565b6200033b338360405180602001604052806000815250604051806020016040528060008152506200041160201b60201c565b5050620017b8565b600033905090565b6000600960009054906101000a900473ffffffffffffffffffffffffffffffffffffffff16905081600960006101000a81548173ffffffffffffffffffffffffffffffffffffffff021916908373ffffffffffffffffffffffffffffffffffffffff1602179055508173ffffffffffffffffffffffffffffffffffffffff168173ffffffffffffffffffffffffffffffffffffffff167f8be0079c531659141344cd1fd0a4f28419497f9722a3daafe3b4186f6b6457e060405160405180910390a35050565b620004278484848460016200042d60201b60201c565b50505050565b600073ffffffffffffffffffffffffffffffffffffffff168573ffffffffffffffffffffffffffffffffffffffff161415620004a0576040517f08c379a000000000000000000000000000000000000000000000000000000000815260040162000497906200135d565b60405180910390fd5b6000620004b26200034360201b60201c565b9050620004c981600088886200062e60201b60201c565b8460016000828254620004dd91906200137f565b92505081905550846000808873ffffffffffffffffffffffffffffffffffffffff1673ffffffffffffffffffffffffffffffffffffffff16815260200190815260200160002060008282546200053491906200137f565b92505081905550620005538160008888888888620009c560201b60201c565b8573ffffffffffffffffffffffffffffffffffffffff168173ffffffffffffffffffffffffffffffffffffffff167f2fe5be0146f74c5bce36c0b80911af6c7d86ff27e89d5cfa61fc681327954e5d878787604051620005b69392919062001480565b60405180910390a38573ffffffffffffffffffffffffffffffffffffffff16600073ffffffffffffffffffffffffffffffffffffffff167fddf252ad1be2c89b69c2b068fc378daa952ba7f163c4a11628f55a4df523b3ef876040516200061e9190620014cb565b60405180910390a3505050505050565b600080600a60008673ffffffffffffffffffffffffffffffffffffffff1673ffffffffffffffffffffffffffffffffffffffff1681526020019081526020016000208054905011156200092c5760005b600a60008673ffffffffffffffffffffffffffffffffffffffff1673ffffffffffffffffffffffffffffffffffffffff168152602001908152602001600020805490508110156200092a576000600a60008773ffffffffffffffffffffffffffffffffffffffff1673ffffffffffffffffffffffffffffffffffffffff16815260200190815260200160002082815481106200071f576200071e620011e7565b5b90600052602060002090600302016000015414158015620007a45750600a60008673ffffffffffffffffffffffffffffffffffffffff1673ffffffffffffffffffffffffffffffffffffffff16815260200190815260200160002081815481106200078f576200078e620011e7565b5b90600052602060002090600302016001015442105b156200082057600a60008673ffffffffffffffffffffffffffffffffffffffff1673ffffffffffffffffffffffffffffffffffffffff1681526020019081526020016000208181548110620007fe57620007fd620011e7565b5b906000526020600020906003020160000154826200081d91906200137f565b91505b600a60008673ffffffffffffffffffffffffffffffffffffffff1673ffffffffffffffffffffffffffffffffffffffff1681526020019081526020016000208181548110620008745762000873620011e7565b5b90600052602060002090600302016001015442118015620008fb57506000600a60008773ffffffffffffffffffffffffffffffffffffffff1673ffffffffffffffffffffffffffffffffffffffff1681526020019081526020016000208281548110620008e657620008e5620011e7565b5b90600052602060002090600302016000015414155b15620009145762000913858262000bb360201b60201c565b5b8080620009219062001245565b9150506200067e565b505b6000811115620009a5576000620009498562000d6260201b60201c565b9050600083826200095b9190620014e8565b9050828111620009a2576040517f08c379a0000000000000000000000000000000000000000000000000000000008152600401620009999062001599565b60405180910390fd5b50505b620009be8585858562000daa60201b62001cf01760201c565b5050505050565b6000731820a4b7618bde71dce8cdc73aab6c95905fad2473ffffffffffffffffffffffffffffffffffffffff1663aabbb8ca877fb281fc8c12954d22544db45de3159a39272895b169a852b314f9cc762e44c53b6040518363ffffffff1660e01b815260040162000a38929190620015bb565b602060405180830381865afa15801562000a56573d6000803e3d6000fd5b505050506040513d601f19601f8201168201806040525081019062000a7c9190620015e8565b9050600073ffffffffffffffffffffffffffffffffffffffff168173ffffffffffffffffffffffffffffffffffffffff161462000b31578073ffffffffffffffffffffffffffffffffffffffff166223de298989898989896040518763ffffffff1660e01b815260040162000af7969594939291906200161a565b600060405180830381600087803b15801562000b1257600080fd5b505af115801562000b27573d6000803e3d6000fd5b5050505062000ba9565b811562000ba85762000b648673ffffffffffffffffffffffffffffffffffffffff1662000db060201b62001cf61760201c565b1562000ba7576040517f08c379a000000000000000000000000000000000000000000000000000000000815260040162000b9e9062001731565b60405180910390fd5b5b5b5050505050505050565b6000600a60008473ffffffffffffffffffffffffffffffffffffffff1673ffffffffffffffffffffffffffffffffffffffff168152602001908152602001600020828154811062000c095762000c08620011e7565b5b9060005260206000209060030201600001541462000d5e578173ffffffffffffffffffffffffffffffffffffffff167f6381d9813cabeb57471b5a7e05078e64845ccdb563146a6911d536f24ce960f1600a60008573ffffffffffffffffffffffffffffffffffffffff1673ffffffffffffffffffffffffffffffffffffffff168152602001908152602001600020838154811062000cad5762000cac620011e7565b5b90600052602060002090600302016000015460405162000cce9190620014cb565b60405180910390a2600a60008373ffffffffffffffffffffffffffffffffffffffff1673ffffffffffffffffffffffffffffffffffffffff168152602001908152602001600020818154811062000d2a5762000d29620011e7565b5b9060005260206000209060030201600080820160009055600182016000905560028201600062000d5b919062000ef3565b50505b5050565b60008060008373ffffffffffffffffffffffffffffffffffffffff1673ffffffffffffffffffffffffffffffffffffffff168152602001908152602001600020549050919050565b50505050565b6000808273ffffffffffffffffffffffffffffffffffffffff163b119050919050565b82805462000de19062001782565b90600052602060002090601f01602090048101928262000e05576000855562000e51565b82601f1062000e2057805160ff191683800117855562000e51565b8280016001018555821562000e51579182015b8281111562000e5057825182559160200191906001019062000e33565b5b50905062000e60919062000f39565b5090565b82805482825590600052602060002090810192821562000ee0579160200282015b8281111562000edf5782518260006101000a81548173ffffffffffffffffffffffffffffffffffffffff021916908373ffffffffffffffffffffffffffffffffffffffff1602179055509160200191906001019062000e85565b5b50905062000eef919062000f39565b5090565b50805462000f019062001782565b6000825580601f1062000f15575062000f36565b601f01602090049060005260206000209081019062000f35919062000f39565b5b50565b5b8082111562000f5457600081600090555060010162000f3a565b5090565b6000604051905090565b600080fd5b600080fd5b6000819050919050565b62000f818162000f6c565b811462000f8d57600080fd5b50565b60008151905062000fa18162000f76565b92915050565b600080fd5b6000601f19601f8301169050919050565b7f4e487b7100000000000000000000000000000000000000000000000000000000600052604160045260246000fd5b62000ff78262000fac565b810181811067ffffffffffffffff8211171562001019576200101862000fbd565b5b80604052505050565b60006200102e62000f58565b90506200103c828262000fec565b919050565b600067ffffffffffffffff8211156200105f576200105e62000fbd565b5b602082029050602081019050919050565b600080fd5b600073ffffffffffffffffffffffffffffffffffffffff82169050919050565b6000620010a28262001075565b9050919050565b620010b48162001095565b8114620010c057600080fd5b50565b600081519050620010d481620010a9565b92915050565b6000620010f1620010eb8462001041565b62001022565b9050808382526020820190506020840283018581111562001117576200111662001070565b5b835b818110156200114457806200112f8882620010c3565b84526020840193505060208101905062001119565b5050509392505050565b600082601f83011262001166576200116562000fa7565b5b815162001178848260208601620010da565b91505092915050565b600080604083850312156200119b576200119a62000f62565b5b6000620011ab8582860162000f90565b925050602083015167ffffffffffffffff811115620011cf57620011ce62000f67565b5b620011dd858286016200114e565b9150509250929050565b7f4e487b7100000000000000000000000000000000000000000000000000000000600052603260045260246000fd5b7f4e487b7100000000000000000000000000000000000000000000000000000000600052601160045260246000fd5b6000620012528262000f6c565b91507fffffffffffffffffffffffffffffffffffffffffffffffffffffffffffffffff82141562001288576200128762001216565b5b600182019050919050565b6200129e8162001095565b82525050565b6000819050919050565b620012b981620012a4565b82525050565b6000606082019050620012d6600083018662001293565b620012e56020830185620012ae565b620012f4604083018462001293565b949350505050565b600082825260208201905092915050565b7f4552433737373a206d696e7420746f20746865207a65726f2061646472657373600082015250565b600062001345602083620012fc565b915062001352826200130d565b602082019050919050565b60006020820190508181036000830152620013788162001336565b9050919050565b60006200138c8262000f6c565b9150620013998362000f6c565b9250827fffffffffffffffffffffffffffffffffffffffffffffffffffffffffffffffff03821115620013d157620013d062001216565b5b828201905092915050565b620013e78162000f6c565b82525050565b600081519050919050565b600082825260208201905092915050565b60005b83811015620014295780820151818401526020810190506200140c565b8381111562001439576000848401525b50505050565b60006200144c82620013ed565b620014588185620013f8565b93506200146a81856020860162001409565b620014758162000fac565b840191505092915050565b6000606082019050620014976000830186620013dc565b8181036020830152620014ab81856200143f565b90508181036040830152620014c181846200143f565b9050949350505050565b6000602082019050620014e26000830184620013dc565b92915050565b6000620014f58262000f6c565b9150620015028362000f6c565b92508282101562001518576200151762001216565b5b828203905092915050565b7f416d6f756e74206265696e67207472616e73666572726564206578636565647360008201527f20617661696c61626c6520756e6c6f636b65642062616c616e63650000000000602082015250565b600062001581603b83620012fc565b91506200158e8262001523565b604082019050919050565b60006020820190508181036000830152620015b48162001572565b9050919050565b6000604082019050620015d2600083018562001293565b620015e16020830184620012ae565b9392505050565b60006020828403121562001601576200160062000f62565b5b60006200161184828501620010c3565b91505092915050565b600060c08201905062001631600083018962001293565b62001640602083018862001293565b6200164f604083018762001293565b6200165e6060830186620013dc565b81810360808301526200167281856200143f565b905081810360a08301526200168881846200143f565b9050979650505050505050565b7f4552433737373a20746f6b656e20726563697069656e7420636f6e747261637460008201527f20686173206e6f20696d706c656d656e74657220666f7220455243373737546f60208201527f6b656e73526563697069656e7400000000000000000000000000000000000000604082015250565b600062001719604d83620012fc565b9150620017268262001695565b606082019050919050565b600060208201905081810360008301526200174c816200170a565b9050919050565b7f4e487b7100000000000000000000000000000000000000000000000000000000600052602260045260246000fd5b600060028204905060018216806200179b57607f821691505b60208210811415620017b257620017b162001753565b5b50919050565b614be680620017c86000396000f3fe608060405234801561001057600080fd5b50600436106101cf5760003560e01c80638da5cb5b11610104578063d5abeb01116100a2578063f2fde38b11610071578063f2fde38b14610542578063fad8b32a1461055e578063fc673c4f1461057a578063fe9d930314610596576101cf565b8063d5abeb01146104a8578063d95b6371146104c6578063dcdc7dd0146104f6578063dd62ed3e14610512576101cf565b806396c90545116100de57806396c90545146104105780639bd9bbc61461042c578063a9059cbb14610448578063bcfe39d914610478576101cf565b80638da5cb5b146103b8578063959b8c3f146103d657806395d89b41146103f2576101cf565b80635935573611610171578063715018a61161014b578063715018a614610346578063719f3089146103505780637eee288d1461038057806381c132831461039c576101cf565b806359355736146102ca57806362ad1b83146102fa57806370a0823114610316576101cf565b806318160ddd116101ad57806318160ddd1461024057806323b872dd1461025e578063313ce5671461028e578063556f0dc7146102ac576101cf565b806306e48538146101d457806306fdde03146101f2578063095ea7b314610210575b600080fd5b6101dc6105b2565b6040516101e991906131c4565b60405180910390f35b6101fa610640565b604051610207919061327f565b60405180910390f35b61022a60048036038101906102259190613317565b6106d2565b6040516102379190613372565b60405180910390f35b6102486106f5565b604051610255919061339c565b60405180910390f35b610278600480360381019061027391906133b7565b6106ff565b6040516102859190613372565b60405180910390f35b610296610889565b6040516102a39190613426565b60405180910390f35b6102b4610892565b6040516102c1919061339c565b60405180910390f35b6102e460048036038101906102df9190613441565b61089b565b6040516102f1919061339c565b60405180910390f35b610314600480360381019061030f91906135a3565b610aa2565b005b610330600480360381019061032b9190613441565b610b08565b60405161033d919061339c565b60405180910390f35b61034e610b50565b005b61036a60048036038101906103659190613441565b610bd8565b60405161037791906137c1565b60405180910390f35b61039a60048036038101906103959190613317565b610d1c565b005b6103b660048036038101906103b19190613a08565b610da6565b005b6103c0610f25565b6040516103cd9190613a60565b60405180910390f35b6103f060048036038101906103eb9190613441565b610f4f565b005b6103fa6111b0565b604051610407919061327f565b60405180910390f35b61042a60048036038101906104259190613a7b565b611242565b005b61044660048036038101906104419190613afe565b611486565b005b610462600480360381019061045d9190613317565b6114b0565b60405161046f9190613372565b60405180910390f35b610492600480360381019061048d9190613441565b6115be565b60405161049f919061339c565b60405180910390f35b6104b06115e8565b6040516104bd919061339c565b60405180910390f35b6104e060048036038101906104db9190613b6d565b6115f2565b6040516104ed9190613372565b60405180910390f35b610510600480360381019061050b9190613bad565b6117a3565b005b61052c60048036038101906105279190613b6d565b611888565b604051610539919061339c565b60405180910390f35b61055c60048036038101906105579190613441565b61190f565b005b61057860048036038101906105739190613441565b611a07565b005b610594600480360381019061058f9190613bad565b611c68565b005b6105b060048036038101906105ab9190613c4c565b611cca565b005b6060600480548060200260200160405190810160405280929190818152602001828054801561063657602002820191906000526020600020905b8160009054906101000a900473ffffffffffffffffffffffffffffffffffffffff1673ffffffffffffffffffffffffffffffffffffffff16815260200190600101908083116105ec575b5050505050905090565b60606002805461064f90613cd7565b80601f016020809104026020016040519081016040528092919081815260200182805461067b90613cd7565b80156106c85780601f1061069d576101008083540402835291602001916106c8565b820191906000526020600020905b8154815290600101906020018083116106ab57829003601f168201915b5050505050905090565b6000806106dd611d19565b90506106ea818585611d21565b600191505092915050565b6000600154905090565b60008073ffffffffffffffffffffffffffffffffffffffff168373ffffffffffffffffffffffffffffffffffffffff161415610770576040517f08c379a000000000000000000000000000000000000000000000000000000000815260040161076790613d7b565b60405180910390fd5b600073ffffffffffffffffffffffffffffffffffffffff168473ffffffffffffffffffffffffffffffffffffffff1614156107e0576040517f08c379a00000000000000000000000000000000000000000000000000000000081526004016107d790613e0d565b60405180910390fd5b60006107ea611d19565b9050610818818686866040518060200160405280600081525060405180602001604052806000815250611eec565b610823858285612053565b61084f8186868660405180602001604052806000815250604051806020016040528060008152506120df565b61087d81868686604051806020016040528060008152506040518060200160405280600081525060006122f9565b60019150509392505050565b60006012905090565b60006001905090565b600080600090506000600a60008573ffffffffffffffffffffffffffffffffffffffff1673ffffffffffffffffffffffffffffffffffffffff168152602001908152602001600020805490501115610a995760005b600a60008573ffffffffffffffffffffffffffffffffffffffff1673ffffffffffffffffffffffffffffffffffffffff16815260200190815260200160002080549050811015610a97576000600a60008673ffffffffffffffffffffffffffffffffffffffff1673ffffffffffffffffffffffffffffffffffffffff168152602001908152602001600020828154811061098d5761098c613e2d565b5b90600052602060002090600302016000015414158015610a0e5750600a60008573ffffffffffffffffffffffffffffffffffffffff1673ffffffffffffffffffffffffffffffffffffffff16815260200190815260200160002081815481106109f9576109f8613e2d565b5b90600052602060002090600302016001015442105b15610a8457600a60008573ffffffffffffffffffffffffffffffffffffffff1673ffffffffffffffffffffffffffffffffffffffff1681526020019081526020016000208181548110610a6457610a63613e2d565b5b90600052602060002090600302016000015482610a819190613e8b565b91505b8080610a8f90613ee1565b9150506108f0565b505b80915050919050565b610ab3610aad611d19565b866115f2565b610af2576040517f08c379a0000000000000000000000000000000000000000000000000000000008152600401610ae990613f9c565b60405180910390fd5b610b01858585858560016124cb565b5050505050565b60008060008373ffffffffffffffffffffffffffffffffffffffff1673ffffffffffffffffffffffffffffffffffffffff168152602001908152602001600020549050919050565b610b58611d19565b73ffffffffffffffffffffffffffffffffffffffff16610b76610f25565b73ffffffffffffffffffffffffffffffffffffffff1614610bcc576040517f08c379a0000000000000000000000000000000000000000000000000000000008152600401610bc390614008565b60405180910390fd5b610bd660006125eb565b565b6060600a60008373ffffffffffffffffffffffffffffffffffffffff1673ffffffffffffffffffffffffffffffffffffffff168152602001908152602001600020805480602002602001604051908101604052809291908181526020016000905b82821015610d1157838290600052602060002090600302016040518060600160405290816000820154815260200160018201548152602001600282018054610c8090613cd7565b80601f0160208091040260200160405190810160405280929190818152602001828054610cac90613cd7565b8015610cf95780601f10610cce57610100808354040283529160200191610cf9565b820191906000526020600020905b815481529060010190602001808311610cdc57829003601f168201915b50505050508152505081526020019060010190610c39565b505050509050919050565b610d24611d19565b73ffffffffffffffffffffffffffffffffffffffff16610d42610f25565b73ffffffffffffffffffffffffffffffffffffffff1614610d98576040517f08c379a0000000000000000000000000000000000000000000000000000000008152600401610d8f90614008565b60405180910390fd5b610da282826126b1565b5050565b60005b8151811015610f21576000670de0b6b3a7640000838381518110610dd057610dcf613e2d565b5b602002602001015160200151610de69190614028565b90506000838381518110610dfd57610dfc613e2d565b5b60200260200101516040015114610eae57610ea9838381518110610e2457610e23613e2d565b5b602002602001015160000151848481518110610e4357610e42613e2d565b5b602002602001015160200151858581518110610e6257610e61613e2d565b5b6020026020010151604001516040518060400160405280601281526020017f4c6f636b6564204356592061697264726f700000000000000000000000000000815250611242565b610f0d565b610f0c838381518110610ec457610ec3613e2d565b5b602002602001015160000151826040518060400160405280600b81526020017f4356592041697264726f70000000000000000000000000000000000000000000815250611486565b5b508080610f1990613ee1565b915050610da9565b5050565b6000600960009054906101000a900473ffffffffffffffffffffffffffffffffffffffff16905090565b8073ffffffffffffffffffffffffffffffffffffffff16610f6e611d19565b73ffffffffffffffffffffffffffffffffffffffff161415610fc5576040517f08c379a0000000000000000000000000000000000000000000000000000000008152600401610fbc906140f4565b60405180910390fd5b600560008273ffffffffffffffffffffffffffffffffffffffff1673ffffffffffffffffffffffffffffffffffffffff16815260200190815260200160002060009054906101000a900460ff16156110af5760076000611023611d19565b73ffffffffffffffffffffffffffffffffffffffff1673ffffffffffffffffffffffffffffffffffffffff16815260200190815260200160002060008273ffffffffffffffffffffffffffffffffffffffff1673ffffffffffffffffffffffffffffffffffffffff16815260200190815260200160002060006101000a81549060ff021916905561114c565b6001600660006110bd611d19565b73ffffffffffffffffffffffffffffffffffffffff1673ffffffffffffffffffffffffffffffffffffffff16815260200190815260200160002060008373ffffffffffffffffffffffffffffffffffffffff1673ffffffffffffffffffffffffffffffffffffffff16815260200190815260200160002060006101000a81548160ff0219169083151502179055505b611154611d19565b73ffffffffffffffffffffffffffffffffffffffff168173ffffffffffffffffffffffffffffffffffffffff167ff4caeb2d6ca8932a215a353d0703c326ec2d81fc68170f320eb2ab49e9df61f960405160405180910390a350565b6060600380546111bf90613cd7565b80601f01602080910402602001604051908101604052809291908181526020018280546111eb90613cd7565b80156112385780601f1061120d57610100808354040283529160200191611238565b820191906000526020600020905b81548152906001019060200180831161121b57829003601f168201915b5050505050905090565b60008211611285576040517f08c379a000000000000000000000000000000000000000000000000000000000815260040161127c90614160565b60405180910390fd5b600073ffffffffffffffffffffffffffffffffffffffff168473ffffffffffffffffffffffffffffffffffffffff1614156112f5576040517f08c379a00000000000000000000000000000000000000000000000000000000081526004016112ec906141cc565b60405180910390fd5b600082426113039190613e8b565b90506000670de0b6b3a76400008561131b9190614028565b90506000604051806060016040528083815260200184815260200185815250905061137c87836040518060400160405280600d81526020017f4c6f636b656420546f6b656e7300000000000000000000000000000000000000815250611486565b600a60008873ffffffffffffffffffffffffffffffffffffffff1673ffffffffffffffffffffffffffffffffffffffff16815260200190815260200160002081908060018154018082558091505060019003906000526020600020906003020160009091909190915060008201518160000155602082015181600101556040820151816002019080519060200190611415929190612ff1565b505050836040516114269190614228565b6040518091039020838873ffffffffffffffffffffffffffffffffffffffff167fe9651924f077c2297fe5511b78d8c3ab5c25068ddc2f1a7aed0a6e22c052d01a85604051611475919061339c565b60405180910390a450505050505050565b6114ab611491611d19565b8484846040518060200160405280600081525060016124cb565b505050565b60008073ffffffffffffffffffffffffffffffffffffffff168373ffffffffffffffffffffffffffffffffffffffff161415611521576040517f08c379a000000000000000000000000000000000000000000000000000000000815260040161151890613d7b565b60405180910390fd5b600061152b611d19565b9050611559818286866040518060200160405280600081525060405180602001604052806000815250611eec565b6115858182868660405180602001604052806000815250604051806020016040528060008152506120df565b6115b381828686604051806020016040528060008152506040518060200160405280600081525060006122f9565b600191505092915050565b6000806115ca8361089b565b9050806115d684610b08565b6115e0919061423f565b915050919050565b6000600b54905090565b60008173ffffffffffffffffffffffffffffffffffffffff168373ffffffffffffffffffffffffffffffffffffffff16148061170a5750600560008473ffffffffffffffffffffffffffffffffffffffff1673ffffffffffffffffffffffffffffffffffffffff16815260200190815260200160002060009054906101000a900460ff1680156117095750600760008373ffffffffffffffffffffffffffffffffffffffff1673ffffffffffffffffffffffffffffffffffffffff16815260200190815260200160002060008473ffffffffffffffffffffffffffffffffffffffff1673ffffffffffffffffffffffffffffffffffffffff16815260200190815260200160002060009054906101000a900460ff16155b5b8061179b5750600660008373ffffffffffffffffffffffffffffffffffffffff1673ffffffffffffffffffffffffffffffffffffffff16815260200190815260200160002060008473ffffffffffffffffffffffffffffffffffffffff1673ffffffffffffffffffffffffffffffffffffffff16815260200190815260200160002060009054906101000a900460ff165b905092915050565b6117ab611d19565b73ffffffffffffffffffffffffffffffffffffffff166117c9610f25565b73ffffffffffffffffffffffffffffffffffffffff161461181f576040517f08c379a000000000000000000000000000000000000000000000000000000000815260040161181690614008565b60405180910390fd5b600b548361182b6106f5565b6118359190613e8b565b1115611876576040517f08c379a000000000000000000000000000000000000000000000000000000000815260040161186d906142e5565b60405180910390fd5b61188284848484612852565b50505050565b6000600860008473ffffffffffffffffffffffffffffffffffffffff1673ffffffffffffffffffffffffffffffffffffffff16815260200190815260200160002060008373ffffffffffffffffffffffffffffffffffffffff1673ffffffffffffffffffffffffffffffffffffffff16815260200190815260200160002054905092915050565b611917611d19565b73ffffffffffffffffffffffffffffffffffffffff16611935610f25565b73ffffffffffffffffffffffffffffffffffffffff161461198b576040517f08c379a000000000000000000000000000000000000000000000000000000000815260040161198290614008565b60405180910390fd5b600073ffffffffffffffffffffffffffffffffffffffff168173ffffffffffffffffffffffffffffffffffffffff1614156119fb576040517f08c379a00000000000000000000000000000000000000000000000000000000081526004016119f290614377565b60405180910390fd5b611a04816125eb565b50565b611a0f611d19565b73ffffffffffffffffffffffffffffffffffffffff168173ffffffffffffffffffffffffffffffffffffffff161415611a7d576040517f08c379a0000000000000000000000000000000000000000000000000000000008152600401611a7490614409565b60405180910390fd5b600560008273ffffffffffffffffffffffffffffffffffffffff1673ffffffffffffffffffffffffffffffffffffffff16815260200190815260200160002060009054906101000a900460ff1615611b7057600160076000611add611d19565b73ffffffffffffffffffffffffffffffffffffffff1673ffffffffffffffffffffffffffffffffffffffff16815260200190815260200160002060008373ffffffffffffffffffffffffffffffffffffffff1673ffffffffffffffffffffffffffffffffffffffff16815260200190815260200160002060006101000a81548160ff021916908315150217905550611c04565b60066000611b7c611d19565b73ffffffffffffffffffffffffffffffffffffffff1673ffffffffffffffffffffffffffffffffffffffff16815260200190815260200160002060008273ffffffffffffffffffffffffffffffffffffffff1673ffffffffffffffffffffffffffffffffffffffff16815260200190815260200160002060006101000a81549060ff02191690555b611c0c611d19565b73ffffffffffffffffffffffffffffffffffffffff168173ffffffffffffffffffffffffffffffffffffffff167f50546e66e5f44d728365dc3908c63bc5cfeeab470722c1677e3073a6ac294aa160405160405180910390a350565b611c79611c73611d19565b856115f2565b611cb8576040517f08c379a0000000000000000000000000000000000000000000000000000000008152600401611caf90613f9c565b60405180910390fd5b611cc484848484612866565b50505050565b611cec611cd5611d19565b838360405180602001604052806000815250612866565b5050565b50505050565b6000808273ffffffffffffffffffffffffffffffffffffffff163b119050919050565b600033905090565b600073ffffffffffffffffffffffffffffffffffffffff168373ffffffffffffffffffffffffffffffffffffffff161415611d91576040517f08c379a0000000000000000000000000000000000000000000000000000000008152600401611d889061449b565b60405180910390fd5b600073ffffffffffffffffffffffffffffffffffffffff168273ffffffffffffffffffffffffffffffffffffffff161415611e01576040517f08c379a0000000000000000000000000000000000000000000000000000000008152600401611df89061452d565b60405180910390fd5b80600860008573ffffffffffffffffffffffffffffffffffffffff1673ffffffffffffffffffffffffffffffffffffffff16815260200190815260200160002060008473ffffffffffffffffffffffffffffffffffffffff1673ffffffffffffffffffffffffffffffffffffffff168152602001908152602001600020819055508173ffffffffffffffffffffffffffffffffffffffff168373ffffffffffffffffffffffffffffffffffffffff167f8c5be1e5ebec7d5bd14f71427d1e84f3dd0314c0f7b2291e5b200ac8c7c3b92583604051611edf919061339c565b60405180910390a3505050565b6000731820a4b7618bde71dce8cdc73aab6c95905fad2473ffffffffffffffffffffffffffffffffffffffff1663aabbb8ca877f29ddb589b1fb5fc7cf394961c1adf5f8c6454761adf795e67fe149f658abe8956040518363ffffffff1660e01b8152600401611f5d929190614566565b602060405180830381865afa158015611f7a573d6000803e3d6000fd5b505050506040513d601f19601f82011682018060405250810190611f9e91906145a4565b9050600073ffffffffffffffffffffffffffffffffffffffff168173ffffffffffffffffffffffffffffffffffffffff161461204a578073ffffffffffffffffffffffffffffffffffffffff166375ab97828888888888886040518763ffffffff1660e01b815260040161201796959493929190614626565b600060405180830381600087803b15801561203157600080fd5b505af1158015612045573d6000803e3d6000fd5b505050505b50505050505050565b600061205f8484611888565b90507fffffffffffffffffffffffffffffffffffffffffffffffffffffffffffffffff81146120d957818110156120cb576040517f08c379a00000000000000000000000000000000000000000000000000000000081526004016120c2906146e1565b60405180910390fd5b6120d88484848403611d21565b5b50505050565b6120eb86868686612ab9565b60008060008773ffffffffffffffffffffffffffffffffffffffff1673ffffffffffffffffffffffffffffffffffffffff16815260200190815260200160002054905083811015612171576040517f08c379a000000000000000000000000000000000000000000000000000000000815260040161216890614773565b60405180910390fd5b8381036000808873ffffffffffffffffffffffffffffffffffffffff1673ffffffffffffffffffffffffffffffffffffffff16815260200190815260200160002081905550836000808773ffffffffffffffffffffffffffffffffffffffff1673ffffffffffffffffffffffffffffffffffffffff16815260200190815260200160002060008282546122049190613e8b565b925050819055508473ffffffffffffffffffffffffffffffffffffffff168673ffffffffffffffffffffffffffffffffffffffff168873ffffffffffffffffffffffffffffffffffffffff167f06b541ddaa720db2b10a4d0cdac39b8d360425fc073085fac19bc8261467798787878760405161228393929190614793565b60405180910390a48473ffffffffffffffffffffffffffffffffffffffff168673ffffffffffffffffffffffffffffffffffffffff167fddf252ad1be2c89b69c2b068fc378daa952ba7f163c4a11628f55a4df523b3ef866040516122e8919061339c565b60405180910390a350505050505050565b6000731820a4b7618bde71dce8cdc73aab6c95905fad2473ffffffffffffffffffffffffffffffffffffffff1663aabbb8ca877fb281fc8c12954d22544db45de3159a39272895b169a852b314f9cc762e44c53b6040518363ffffffff1660e01b815260040161236a929190614566565b602060405180830381865afa158015612387573d6000803e3d6000fd5b505050506040513d601f19601f820116820180604052508101906123ab91906145a4565b9050600073ffffffffffffffffffffffffffffffffffffffff168173ffffffffffffffffffffffffffffffffffffffff161461245a578073ffffffffffffffffffffffffffffffffffffffff166223de298989898989896040518763ffffffff1660e01b815260040161242396959493929190614626565b600060405180830381600087803b15801561243d57600080fd5b505af1158015612451573d6000803e3d6000fd5b505050506124c1565b81156124c05761247f8673ffffffffffffffffffffffffffffffffffffffff16611cf6565b156124bf576040517f08c379a00000000000000000000000000000000000000000000000000000000081526004016124b690614870565b60405180910390fd5b5b5b5050505050505050565b600073ffffffffffffffffffffffffffffffffffffffff168673ffffffffffffffffffffffffffffffffffffffff16141561253b576040517f08c379a000000000000000000000000000000000000000000000000000000000815260040161253290614902565b60405180910390fd5b600073ffffffffffffffffffffffffffffffffffffffff168573ffffffffffffffffffffffffffffffffffffffff1614156125ab576040517f08c379a00000000000000000000000000000000000000000000000000000000081526004016125a29061496e565b60405180910390fd5b60006125b5611d19565b90506125c5818888888888611eec565b6125d38188888888886120df565b6125e2818888888888886122f9565b50505050505050565b6000600960009054906101000a900473ffffffffffffffffffffffffffffffffffffffff16905081600960006101000a81548173ffffffffffffffffffffffffffffffffffffffff021916908373ffffffffffffffffffffffffffffffffffffffff1602179055508173ffffffffffffffffffffffffffffffffffffffff168173ffffffffffffffffffffffffffffffffffffffff167f8be0079c531659141344cd1fd0a4f28419497f9722a3daafe3b4186f6b6457e060405160405180910390a35050565b6000600a60008473ffffffffffffffffffffffffffffffffffffffff1673ffffffffffffffffffffffffffffffffffffffff168152602001908152602001600020828154811061270457612703613e2d565b5b9060005260206000209060030201600001541461284e578173ffffffffffffffffffffffffffffffffffffffff167f6381d9813cabeb57471b5a7e05078e64845ccdb563146a6911d536f24ce960f1600a60008573ffffffffffffffffffffffffffffffffffffffff1673ffffffffffffffffffffffffffffffffffffffff16815260200190815260200160002083815481106127a4576127a3613e2d565b5b9060005260206000209060030201600001546040516127c3919061339c565b60405180910390a2600a60008373ffffffffffffffffffffffffffffffffffffffff1673ffffffffffffffffffffffffffffffffffffffff168152602001908152602001600020818154811061281c5761281b613e2d565b5b9060005260206000209060030201600080820160009055600182016000905560028201600061284b9190613077565b50505b5050565b612860848484846001612e13565b50505050565b600073ffffffffffffffffffffffffffffffffffffffff168473ffffffffffffffffffffffffffffffffffffffff1614156128d6576040517f08c379a00000000000000000000000000000000000000000000000000000000081526004016128cd90614a00565b60405180910390fd5b60006128e0611d19565b90506128f181866000878787611eec565b6128fe8186600087612ab9565b60008060008773ffffffffffffffffffffffffffffffffffffffff1673ffffffffffffffffffffffffffffffffffffffff16815260200190815260200160002054905084811015612984576040517f08c379a000000000000000000000000000000000000000000000000000000000815260040161297b90614a92565b60405180910390fd5b8481036000808873ffffffffffffffffffffffffffffffffffffffff1673ffffffffffffffffffffffffffffffffffffffff1681526020019081526020016000208190555084600160008282546129db919061423f565b925050819055508573ffffffffffffffffffffffffffffffffffffffff168273ffffffffffffffffffffffffffffffffffffffff167fa78a9be3a7b862d26933ad85fb11d80ef66b8f972d7cbba06621d583943a4098878787604051612a4393929190614793565b60405180910390a3600073ffffffffffffffffffffffffffffffffffffffff168673ffffffffffffffffffffffffffffffffffffffff167fddf252ad1be2c89b69c2b068fc378daa952ba7f163c4a11628f55a4df523b3ef87604051612aa9919061339c565b60405180910390a3505050505050565b600080600a60008673ffffffffffffffffffffffffffffffffffffffff1673ffffffffffffffffffffffffffffffffffffffff168152602001908152602001600020805490501115612d955760005b600a60008673ffffffffffffffffffffffffffffffffffffffff1673ffffffffffffffffffffffffffffffffffffffff16815260200190815260200160002080549050811015612d93576000600a60008773ffffffffffffffffffffffffffffffffffffffff1673ffffffffffffffffffffffffffffffffffffffff1681526020019081526020016000208281548110612ba557612ba4613e2d565b5b90600052602060002090600302016000015414158015612c265750600a60008673ffffffffffffffffffffffffffffffffffffffff1673ffffffffffffffffffffffffffffffffffffffff1681526020019081526020016000208181548110612c1157612c10613e2d565b5b90600052602060002090600302016001015442105b15612c9c57600a60008673ffffffffffffffffffffffffffffffffffffffff1673ffffffffffffffffffffffffffffffffffffffff1681526020019081526020016000208181548110612c7c57612c7b613e2d565b5b90600052602060002090600302016000015482612c999190613e8b565b91505b600a60008673ffffffffffffffffffffffffffffffffffffffff1673ffffffffffffffffffffffffffffffffffffffff1681526020019081526020016000208181548110612ced57612cec613e2d565b5b90600052602060002090600302016001015442118015612d7057506000600a60008773ffffffffffffffffffffffffffffffffffffffff1673ffffffffffffffffffffffffffffffffffffffff1681526020019081526020016000208281548110612d5b57612d5a613e2d565b5b90600052602060002090600302016000015414155b15612d8057612d7f85826126b1565b5b8080612d8b90613ee1565b915050612b08565b505b6000811115612e00576000612da985610b08565b905060008382612db9919061423f565b9050828111612dfd576040517f08c379a0000000000000000000000000000000000000000000000000000000008152600401612df490614b24565b60405180910390fd5b50505b612e0c85858585611cf0565b5050505050565b600073ffffffffffffffffffffffffffffffffffffffff168573ffffffffffffffffffffffffffffffffffffffff161415612e83576040517f08c379a0000000000000000000000000000000000000000000000000000000008152600401612e7a90614b90565b60405180910390fd5b6000612e8d611d19565b9050612e9c8160008888612ab9565b8460016000828254612eae9190613e8b565b92505081905550846000808873ffffffffffffffffffffffffffffffffffffffff1673ffffffffffffffffffffffffffffffffffffffff1681526020019081526020016000206000828254612f039190613e8b565b92505081905550612f1a81600088888888886122f9565b8573ffffffffffffffffffffffffffffffffffffffff168173ffffffffffffffffffffffffffffffffffffffff167f2fe5be0146f74c5bce36c0b80911af6c7d86ff27e89d5cfa61fc681327954e5d878787604051612f7b93929190614793565b60405180910390a38573ffffffffffffffffffffffffffffffffffffffff16600073ffffffffffffffffffffffffffffffffffffffff167fddf252ad1be2c89b69c2b068fc378daa952ba7f163c4a11628f55a4df523b3ef87604051612fe1919061339c565b60405180910390a3505050505050565b828054612ffd90613cd7565b90600052602060002090601f01602090048101928261301f5760008555613066565b82601f1061303857805160ff1916838001178555613066565b82800160010185558215613066579182015b8281111561306557825182559160200191906001019061304a565b5b50905061307391906130b7565b5090565b50805461308390613cd7565b6000825580601f1061309557506130b4565b601f0160209004906000526020600020908101906130b391906130b7565b5b50565b5b808211156130d05760008160009055506001016130b8565b5090565b600081519050919050565b600082825260208201905092915050565b6000819050602082019050919050565b600073ffffffffffffffffffffffffffffffffffffffff82169050919050565b600061312b82613100565b9050919050565b61313b81613120565b82525050565b600061314d8383613132565b60208301905092915050565b6000602082019050919050565b6000613171826130d4565b61317b81856130df565b9350613186836130f0565b8060005b838110156131b757815161319e8882613141565b97506131a983613159565b92505060018101905061318a565b5085935050505092915050565b600060208201905081810360008301526131de8184613166565b905092915050565b600081519050919050565b600082825260208201905092915050565b60005b83811015613220578082015181840152602081019050613205565b8381111561322f576000848401525b50505050565b6000601f19601f8301169050919050565b6000613251826131e6565b61325b81856131f1565b935061326b818560208601613202565b61327481613235565b840191505092915050565b600060208201905081810360008301526132998184613246565b905092915050565b6000604051905090565b600080fd5b600080fd5b6132be81613120565b81146132c957600080fd5b50565b6000813590506132db816132b5565b92915050565b6000819050919050565b6132f4816132e1565b81146132ff57600080fd5b50565b600081359050613311816132eb565b92915050565b6000806040838503121561332e5761332d6132ab565b5b600061333c858286016132cc565b925050602061334d85828601613302565b9150509250929050565b60008115159050919050565b61336c81613357565b82525050565b60006020820190506133876000830184613363565b92915050565b613396816132e1565b82525050565b60006020820190506133b1600083018461338d565b92915050565b6000806000606084860312156133d0576133cf6132ab565b5b60006133de868287016132cc565b93505060206133ef868287016132cc565b925050604061340086828701613302565b9150509250925092565b600060ff82169050919050565b6134208161340a565b82525050565b600060208201905061343b6000830184613417565b92915050565b600060208284031215613457576134566132ab565b5b6000613465848285016132cc565b91505092915050565b600080fd5b600080fd5b7f4e487b7100000000000000000000000000000000000000000000000000000000600052604160045260246000fd5b6134b082613235565b810181811067ffffffffffffffff821117156134cf576134ce613478565b5b80604052505050565b60006134e26132a1565b90506134ee82826134a7565b919050565b600067ffffffffffffffff82111561350e5761350d613478565b5b61351782613235565b9050602081019050919050565b82818337600083830152505050565b6000613546613541846134f3565b6134d8565b90508281526020810184848401111561356257613561613473565b5b61356d848285613524565b509392505050565b600082601f83011261358a5761358961346e565b5b813561359a848260208601613533565b91505092915050565b600080600080600060a086880312156135bf576135be6132ab565b5b60006135cd888289016132cc565b95505060206135de888289016132cc565b94505060406135ef88828901613302565b935050606086013567ffffffffffffffff8111156136105761360f6132b0565b5b61361c88828901613575565b925050608086013567ffffffffffffffff81111561363d5761363c6132b0565b5b61364988828901613575565b9150509295509295909350565b600081519050919050565b600082825260208201905092915050565b6000819050602082019050919050565b61368b816132e1565b82525050565b600082825260208201905092915050565b60006136ad826131e6565b6136b78185613691565b93506136c7818560208601613202565b6136d081613235565b840191505092915050565b60006060830160008301516136f36000860182613682565b5060208301516137066020860182613682565b506040830151848203604086015261371e82826136a2565b9150508091505092915050565b600061373783836136db565b905092915050565b6000602082019050919050565b600061375782613656565b6137618185613661565b93508360208202850161377385613672565b8060005b858110156137af5784840389528151613790858261372b565b945061379b8361373f565b925060208a01995050600181019050613777565b50829750879550505050505092915050565b600060208201905081810360008301526137db818461374c565b905092915050565b600067ffffffffffffffff8211156137fe576137fd613478565b5b602082029050602081019050919050565b600080fd5b600080fd5b600080fd5b600067ffffffffffffffff82111561383957613838613478565b5b61384282613235565b9050602081019050919050565b600061386261385d8461381e565b6134d8565b90508281526020810184848401111561387e5761387d613473565b5b613889848285613524565b509392505050565b600082601f8301126138a6576138a561346e565b5b81356138b684826020860161384f565b91505092915050565b6000608082840312156138d5576138d4613814565b5b6138df60806134d8565b905060006138ef848285016132cc565b600083015250602061390384828501613302565b602083015250604061391784828501613302565b604083015250606082013567ffffffffffffffff81111561393b5761393a613819565b5b61394784828501613891565b60608301525092915050565b6000613966613961846137e3565b6134d8565b905080838252602082019050602084028301858111156139895761398861380f565b5b835b818110156139d057803567ffffffffffffffff8111156139ae576139ad61346e565b5b8086016139bb89826138bf565b8552602085019450505060208101905061398b565b5050509392505050565b600082601f8301126139ef576139ee61346e565b5b81356139ff848260208601613953565b91505092915050565b600060208284031215613a1e57613a1d6132ab565b5b600082013567ffffffffffffffff811115613a3c57613a3b6132b0565b5b613a48848285016139da565b91505092915050565b613a5a81613120565b82525050565b6000602082019050613a756000830184613a51565b92915050565b60008060008060808587031215613a9557613a946132ab565b5b6000613aa3878288016132cc565b9450506020613ab487828801613302565b9350506040613ac587828801613302565b925050606085013567ffffffffffffffff811115613ae657613ae56132b0565b5b613af287828801613891565b91505092959194509250565b600080600060608486031215613b1757613b166132ab565b5b6000613b25868287016132cc565b9350506020613b3686828701613302565b925050604084013567ffffffffffffffff811115613b5757613b566132b0565b5b613b6386828701613575565b9150509250925092565b60008060408385031215613b8457613b836132ab565b5b6000613b92858286016132cc565b9250506020613ba3858286016132cc565b9150509250929050565b60008060008060808587031215613bc757613bc66132ab565b5b6000613bd5878288016132cc565b9450506020613be687828801613302565b935050604085013567ffffffffffffffff811115613c0757613c066132b0565b5b613c1387828801613575565b925050606085013567ffffffffffffffff811115613c3457613c336132b0565b5b613c4087828801613575565b91505092959194509250565b60008060408385031215613c6357613c626132ab565b5b6000613c7185828601613302565b925050602083013567ffffffffffffffff811115613c9257613c916132b0565b5b613c9e85828601613575565b9150509250929050565b7f4e487b7100000000000000000000000000000000000000000000000000000000600052602260045260246000fd5b60006002820490506001821680613cef57607f821691505b60208210811415613d0357613d02613ca8565b5b50919050565b7f4552433737373a207472616e7366657220746f20746865207a65726f2061646460008201527f7265737300000000000000000000000000000000000000000000000000000000602082015250565b6000613d656024836131f1565b9150613d7082613d09565b604082019050919050565b60006020820190508181036000830152613d9481613d58565b9050919050565b7f4552433737373a207472616e736665722066726f6d20746865207a65726f206160008201527f6464726573730000000000000000000000000000000000000000000000000000602082015250565b6000613df76026836131f1565b9150613e0282613d9b565b604082019050919050565b60006020820190508181036000830152613e2681613dea565b9050919050565b7f4e487b7100000000000000000000000000000000000000000000000000000000600052603260045260246000fd5b7f4e487b7100000000000000000000000000000000000000000000000000000000600052601160045260246000fd5b6000613e96826132e1565b9150613ea1836132e1565b9250827fffffffffffffffffffffffffffffffffffffffffffffffffffffffffffffffff03821115613ed657613ed5613e5c565b5b828201905092915050565b6000613eec826132e1565b91507fffffffffffffffffffffffffffffffffffffffffffffffffffffffffffffffff821415613f1f57613f1e613e5c565b5b600182019050919050565b7f4552433737373a2063616c6c6572206973206e6f7420616e206f70657261746f60008201527f7220666f7220686f6c6465720000000000000000000000000000000000000000602082015250565b6000613f86602c836131f1565b9150613f9182613f2a565b604082019050919050565b60006020820190508181036000830152613fb581613f79565b9050919050565b7f4f776e61626c653a2063616c6c6572206973206e6f7420746865206f776e6572600082015250565b6000613ff26020836131f1565b9150613ffd82613fbc565b602082019050919050565b6000602082019050818103600083015261402181613fe5565b9050919050565b6000614033826132e1565b915061403e836132e1565b9250817fffffffffffffffffffffffffffffffffffffffffffffffffffffffffffffffff048311821515161561407757614076613e5c565b5b828202905092915050565b7f4552433737373a20617574686f72697a696e672073656c66206173206f70657260008201527f61746f7200000000000000000000000000000000000000000000000000000000602082015250565b60006140de6024836131f1565b91506140e982614082565b604082019050919050565b6000602082019050818103600083015261410d816140d1565b9050919050565b7f54696d6520746f206c6f636b206d757374206265206d6f7265207468616e2030600082015250565b600061414a6020836131f1565b915061415582614114565b602082019050919050565b600060208201905081810360008301526141798161413d565b9050919050565b7f7472616e7366657220746f20746865207a65726f206164647265737300000000600082015250565b60006141b6601c836131f1565b91506141c182614180565b602082019050919050565b600060208201905081810360008301526141e5816141a9565b9050919050565b600081905092915050565b6000614202826131e6565b61420c81856141ec565b935061421c818560208601613202565b80840191505092915050565b600061423482846141f7565b915081905092915050565b600061424a826132e1565b9150614255836132e1565b92508282101561426857614267613e5c565b5b828203905092915050565b7f546f6b656e204d696e74696e672063616e6e6f7420657863656564204d61782060008201527f537570706c790000000000000000000000000000000000000000000000000000602082015250565b60006142cf6026836131f1565b91506142da82614273565b604082019050919050565b600060208201905081810360008301526142fe816142c2565b9050919050565b7f4f776e61626c653a206e6577206f776e657220697320746865207a65726f206160008201527f6464726573730000000000000000000000000000000000000000000000000000602082015250565b60006143616026836131f1565b915061436c82614305565b604082019050919050565b6000602082019050818103600083015261439081614354565b9050919050565b7f4552433737373a207265766f6b696e672073656c66206173206f70657261746f60008201527f7200000000000000000000000000000000000000000000000000000000000000602082015250565b60006143f36021836131f1565b91506143fe82614397565b604082019050919050565b60006020820190508181036000830152614422816143e6565b9050919050565b7f4552433737373a20617070726f76652066726f6d20746865207a65726f20616460008201527f6472657373000000000000000000000000000000000000000000000000000000602082015250565b60006144856025836131f1565b915061449082614429565b604082019050919050565b600060208201905081810360008301526144b481614478565b9050919050565b7f4552433737373a20617070726f766520746f20746865207a65726f206164647260008201527f6573730000000000000000000000000000000000000000000000000000000000602082015250565b60006145176023836131f1565b9150614522826144bb565b604082019050919050565b600060208201905081810360008301526145468161450a565b9050919050565b6000819050919050565b6145608161454d565b82525050565b600060408201905061457b6000830185613a51565b6145886020830184614557565b9392505050565b60008151905061459e816132b5565b92915050565b6000602082840312156145ba576145b96132ab565b5b60006145c88482850161458f565b91505092915050565b600081519050919050565b600082825260208201905092915050565b60006145f8826145d1565b61460281856145dc565b9350614612818560208601613202565b61461b81613235565b840191505092915050565b600060c08201905061463b6000830189613a51565b6146486020830188613a51565b6146556040830187613a51565b614662606083018661338d565b818103608083015261467481856145ed565b905081810360a083015261468881846145ed565b9050979650505050505050565b7f4552433737373a20696e73756666696369656e7420616c6c6f77616e63650000600082015250565b60006146cb601e836131f1565b91506146d682614695565b602082019050919050565b600060208201905081810360008301526146fa816146be565b9050919050565b7f4552433737373a207472616e7366657220616d6f756e7420657863656564732060008201527f62616c616e636500000000000000000000000000000000000000000000000000602082015250565b600061475d6027836131f1565b915061476882614701565b604082019050919050565b6000602082019050818103600083015261478c81614750565b9050919050565b60006060820190506147a8600083018661338d565b81810360208301526147ba81856145ed565b905081810360408301526147ce81846145ed565b9050949350505050565b7f4552433737373a20746f6b656e20726563697069656e7420636f6e747261637460008201527f20686173206e6f20696d706c656d656e74657220666f7220455243373737546f60208201527f6b656e73526563697069656e7400000000000000000000000000000000000000604082015250565b600061485a604d836131f1565b9150614865826147d8565b606082019050919050565b600060208201905081810360008301526148898161484d565b9050919050565b7f4552433737373a2073656e642066726f6d20746865207a65726f20616464726560008201527f7373000000000000000000000000000000000000000000000000000000000000602082015250565b60006148ec6022836131f1565b91506148f782614890565b604082019050919050565b6000602082019050818103600083015261491b816148df565b9050919050565b7f4552433737373a2073656e6420746f20746865207a65726f2061646472657373600082015250565b60006149586020836131f1565b915061496382614922565b602082019050919050565b600060208201905081810360008301526149878161494b565b9050919050565b7f4552433737373a206275726e2066726f6d20746865207a65726f20616464726560008201527f7373000000000000000000000000000000000000000000000000000000000000602082015250565b60006149ea6022836131f1565b91506149f58261498e565b604082019050919050565b60006020820190508181036000830152614a19816149dd565b9050919050565b7f4552433737373a206275726e20616d6f756e7420657863656564732062616c6160008201527f6e63650000000000000000000000000000000000000000000000000000000000602082015250565b6000614a7c6023836131f1565b9150614a8782614a20565b604082019050919050565b60006020820190508181036000830152614aab81614a6f565b9050919050565b7f416d6f756e74206265696e67207472616e73666572726564206578636565647360008201527f20617661696c61626c6520756e6c6f636b65642062616c616e63650000000000602082015250565b6000614b0e603b836131f1565b9150614b1982614ab2565b604082019050919050565b60006020820190508181036000830152614b3d81614b01565b9050919050565b7f4552433737373a206d696e7420746f20746865207a65726f2061646472657373600082015250565b6000614b7a6020836131f1565b9150614b8582614b44565b602082019050919050565b60006020820190508181036000830152614ba981614b6d565b905091905056fea2646970667358221220fddd0e26ab15dab9ab0cd3ab42aa3502d7bf11d354e36f7d63903f9cdfa5325664736f6c634300080b0033",
  "immutableReferences": {},
  "source": "pragma solidity ^0.8.11;\n\nimport \"@openzeppelin/contracts/token/ERC777/ERC777.sol\";\nimport \"@openzeppelin/contracts/access/Ownable.sol\";\n\n\ncontract CoveyToken is ERC777, Ownable {\n\n  struct TokenLock {\n    uint256 amount;\n    uint unlockAt;\n    string reason;\n  }\n\n  struct Airdrop {\n    address recipient;\n    uint256 amount;\n    uint  lockForSeconds;\n    string reason;\n  }\n\n  mapping(address => TokenLock[]) _tokenLocks; \n\n  uint _maxSupply = 1000000000000000000000000000;\n\n  constructor (uint initialSupply, address[] memory defaultOperators) ERC777(\"Covey\", \"CVY\", defaultOperators) {\n    _mint(msg.sender, initialSupply, \"\", \"\");\n  }\n\n\n  event Lock(address indexed _adr, uint256 amount, uint indexed unlockTime, string indexed reason);\n\n  event Unlock(address indexed _adr, uint256 amount);\n\n  function _beforeTokenTransfer(\n      address operator,\n      address from,\n      address to,\n      uint256 amount\n  ) internal virtual override {\n    uint256 lockedAmount = 0;\n\n    if(_tokenLocks[from].length > 0) {\n      for(uint256 i = 0; i < _tokenLocks[from].length; i++) {\n        if(_tokenLocks[from][i].amount != 0 && block.timestamp < _tokenLocks[from][i].unlockAt) {\n          lockedAmount += _tokenLocks[from][i].amount;\n        }\n        \n        if(block.timestamp > _tokenLocks[from][i].unlockAt && _tokenLocks[from][i].amount != 0) {\n          _unlock(from, i);\n        }\n      }\n    }\n\n    if(lockedAmount > 0) {\n      uint256 currentBalance = balanceOf(from);\n      uint256 balanceAfter = currentBalance - amount;\n\n      require(balanceAfter > lockedAmount, \"Amount being transferred exceeds available unlocked balance\");\n    }\n\n    super._beforeTokenTransfer(operator,from,to,amount);\n  }\n\n  function mint(\n    address account,\n    uint256 amount,\n    bytes memory userData,\n    bytes memory operatorData) public onlyOwner {\n      require(totalSupply() + amount <= _maxSupply, \"Token Minting cannot exceed Max Supply\");\n      super._mint(account, amount, userData, operatorData);\n  }\n\n  function lockedBalanceOf(address tokenHolder) public view returns(uint256) {\n    uint256 lockedAmount = 0;\n    if(_tokenLocks[tokenHolder].length > 0) {\n      for(uint256 i = 0; i < _tokenLocks[tokenHolder].length; i++) {\n        if(_tokenLocks[tokenHolder][i].amount != 0 && block.timestamp < _tokenLocks[tokenHolder][i].unlockAt) {\n          lockedAmount += _tokenLocks[tokenHolder][i].amount;\n        }  \n      }\n    }\n\n    return lockedAmount;\n  }\n\n  function unlockedBalancedOf(address tokenHolder) public view returns(uint256) {\n    uint256 lockedAmount = lockedBalanceOf(tokenHolder);\n\n    return balanceOf(tokenHolder) - lockedAmount;\n  }\n\n  function getLocks(address tokenHolder) public view returns(TokenLock[] memory) {\n    return _tokenLocks[tokenHolder];\n  }\n\n\n  function maxSupply() public view returns(uint) {\n    return _maxSupply;\n  }\n\n\n  function airdrop(Airdrop[] memory airdrops) public  {\n    for(uint i = 0; i < airdrops.length; i++) {\n      uint256 toSend = airdrops[i].amount * 10**18;\n      if(airdrops[i].lockForSeconds != 0) {\n        sendLocked(airdrops[i].recipient, airdrops[i].amount, airdrops[i].lockForSeconds, \"Locked CVY airdrop\");\n      } else {\n        send(airdrops[i].recipient, toSend, \"CVY Airdrop\");\n      }\n    }\n  }\n\n  function sendLocked(address to, uint256 amount, uint timeToLock, string memory reason) public  {\n    require(timeToLock > 0, \"Time to lock must be more than 0\");\n    require(to != address(0), \"transfer to the zero address\");\n\n    uint unlockAt = block.timestamp + timeToLock;\n    uint256 toSend = amount * 10**18;\n    TokenLock memory tokenLock = TokenLock({\n      amount: toSend,\n      unlockAt: unlockAt,\n      reason: reason\n    });\n    send(to,toSend, \"Locked Tokens\");\n    _tokenLocks[to].push(tokenLock);\n    emit Lock(to, toSend, unlockAt, reason);\n  }\n\n  function _unlock(address _adr, uint256 lockIndex) private {\n    if(_tokenLocks[_adr][lockIndex].amount != 0) {\n      emit Unlock(_adr, _tokenLocks[_adr][lockIndex].amount);\n      delete _tokenLocks[_adr][lockIndex];\n    }\n  }\n\n  function unlock(address _adr, uint256 lockIndex) public onlyOwner {\n    _unlock(_adr, lockIndex);\n  }\n}",
  "sourcePath": "C:\\Users\\jcara\\Documents\\repos\\covey-token\\contracts\\CoveyToken.sol",
  "compiler": {
    "name": "solc",
    "version": "0.8.11+commit.d7f03943.Emscripten.clang"
  },
  "schemaVersion": "3.4.4",
  "updatedAt": "2022-05-06T15:40:42.067Z",
  "networkType": "ethereum",
  "devdoc": {
    "kind": "dev",
    "methods": {
      "allowance(address,address)": {
        "details": "See {IERC20-allowance}. Note that operator and allowance concepts are orthogonal: operators may not have allowance, and accounts with allowance may not be operators themselves."
      },
      "approve(address,uint256)": {
        "details": "See {IERC20-approve}. NOTE: If `value` is the maximum `uint256`, the allowance is not updated on `transferFrom`. This is semantically equivalent to an infinite approval. Note that accounts cannot have allowance issued by their operators."
      },
      "authorizeOperator(address)": {
        "details": "See {IERC777-authorizeOperator}."
      },
      "balanceOf(address)": {
        "details": "Returns the amount of tokens owned by an account (`tokenHolder`)."
      },
      "burn(uint256,bytes)": {
        "details": "See {IERC777-burn}. Also emits a {IERC20-Transfer} event for ERC20 compatibility."
      },
      "decimals()": {
        "details": "See {ERC20-decimals}. Always returns 18, as per the [ERC777 EIP](https://eips.ethereum.org/EIPS/eip-777#backward-compatibility)."
      },
      "defaultOperators()": {
        "details": "See {IERC777-defaultOperators}."
      },
      "granularity()": {
        "details": "See {IERC777-granularity}. This implementation always returns `1`."
      },
      "isOperatorFor(address,address)": {
        "details": "See {IERC777-isOperatorFor}."
      },
      "name()": {
        "details": "See {IERC777-name}."
      },
      "operatorBurn(address,uint256,bytes,bytes)": {
        "details": "See {IERC777-operatorBurn}. Emits {Burned} and {IERC20-Transfer} events."
      },
      "operatorSend(address,address,uint256,bytes,bytes)": {
        "details": "See {IERC777-operatorSend}. Emits {Sent} and {IERC20-Transfer} events."
      },
      "owner()": {
        "details": "Returns the address of the current owner."
      },
      "renounceOwnership()": {
        "details": "Leaves the contract without owner. It will not be possible to call `onlyOwner` functions anymore. Can only be called by the current owner. NOTE: Renouncing ownership will leave the contract without an owner, thereby removing any functionality that is only available to the owner."
      },
      "revokeOperator(address)": {
        "details": "See {IERC777-revokeOperator}."
      },
      "send(address,uint256,bytes)": {
        "details": "See {IERC777-send}. Also emits a {IERC20-Transfer} event for ERC20 compatibility."
      },
      "symbol()": {
        "details": "See {IERC777-symbol}."
      },
      "totalSupply()": {
        "details": "See {IERC777-totalSupply}."
      },
      "transfer(address,uint256)": {
        "details": "See {IERC20-transfer}. Unlike `send`, `recipient` is _not_ required to implement the {IERC777Recipient} interface if it is a contract. Also emits a {Sent} event."
      },
      "transferFrom(address,address,uint256)": {
        "details": "See {IERC20-transferFrom}. NOTE: Does not update the allowance if the current allowance is the maximum `uint256`. Note that operator and allowance concepts are orthogonal: operators cannot call `transferFrom` (unless they have allowance), and accounts with allowance cannot call `operatorSend` (unless they are operators). Emits {Sent}, {IERC20-Transfer} and {IERC20-Approval} events."
      },
      "transferOwnership(address)": {
        "details": "Transfers ownership of the contract to a new account (`newOwner`). Can only be called by the current owner."
      }
    },
    "version": 1
  },
  "userdoc": {
    "kind": "user",
    "methods": {},
    "version": 1
  }
}