{
  "contractName": "CoveyStaking",
  "abi": [
    {
      "anonymous": false,
      "inputs": [
        {
          "indexed": true,
          "internalType": "address",
          "name": "_adr",
          "type": "address"
        },
        {
          "indexed": false,
          "internalType": "uint256",
          "name": "amountLost",
          "type": "uint256"
        }
      ],
      "name": "Bankrupt",
      "type": "event"
    },
    {
      "anonymous": false,
      "inputs": [
        {
          "indexed": true,
          "internalType": "address",
          "name": "_adr",
          "type": "address"
        }
      ],
      "name": "CancelledUnstake",
      "type": "event"
    },
    {
      "anonymous": false,
      "inputs": [
        {
          "indexed": false,
          "internalType": "uint8",
          "name": "version",
          "type": "uint8"
        }
      ],
      "name": "Initialized",
      "type": "event"
    },
    {
      "anonymous": false,
      "inputs": [
        {
          "indexed": true,
          "internalType": "bytes32",
          "name": "role",
          "type": "bytes32"
        },
        {
          "indexed": true,
          "internalType": "bytes32",
          "name": "previousAdminRole",
          "type": "bytes32"
        },
        {
          "indexed": true,
          "internalType": "bytes32",
          "name": "newAdminRole",
          "type": "bytes32"
        }
      ],
      "name": "RoleAdminChanged",
      "type": "event"
    },
    {
      "anonymous": false,
      "inputs": [
        {
          "indexed": true,
          "internalType": "bytes32",
          "name": "role",
          "type": "bytes32"
        },
        {
          "indexed": true,
          "internalType": "address",
          "name": "account",
          "type": "address"
        },
        {
          "indexed": true,
          "internalType": "address",
          "name": "sender",
          "type": "address"
        }
      ],
      "name": "RoleGranted",
      "type": "event"
    },
    {
      "anonymous": false,
      "inputs": [
        {
          "indexed": true,
          "internalType": "bytes32",
          "name": "role",
          "type": "bytes32"
        },
        {
          "indexed": true,
          "internalType": "address",
          "name": "account",
          "type": "address"
        },
        {
          "indexed": true,
          "internalType": "address",
          "name": "sender",
          "type": "address"
        }
      ],
      "name": "RoleRevoked",
      "type": "event"
    },
    {
      "anonymous": false,
      "inputs": [
        {
          "indexed": true,
          "internalType": "address",
          "name": "_adr",
          "type": "address"
        },
        {
          "indexed": false,
          "internalType": "uint256",
          "name": "amountDispensed",
          "type": "uint256"
        }
      ],
      "name": "StakeDispensed",
      "type": "event"
    },
    {
      "anonymous": false,
      "inputs": [
        {
          "indexed": true,
          "internalType": "address",
          "name": "_adr",
          "type": "address"
        },
        {
          "indexed": false,
          "internalType": "uint256",
          "name": "amount",
          "type": "uint256"
        }
      ],
      "name": "Staked",
      "type": "event"
    },
    {
      "anonymous": false,
      "inputs": [
        {
          "indexed": true,
          "internalType": "address",
          "name": "_adr",
          "type": "address"
        },
        {
          "indexed": false,
          "internalType": "uint256",
          "name": "amount",
          "type": "uint256"
        }
      ],
      "name": "TotalStaked",
      "type": "event"
    },
    {
      "anonymous": false,
      "inputs": [
        {
          "indexed": true,
          "internalType": "address",
          "name": "_adr",
          "type": "address"
        },
        {
          "indexed": false,
          "internalType": "uint256",
          "name": "amount",
          "type": "uint256"
        }
      ],
      "name": "TotalUnstaked",
      "type": "event"
    },
    {
      "anonymous": false,
      "inputs": [
        {
          "indexed": true,
          "internalType": "address",
          "name": "_adr",
          "type": "address"
        },
        {
          "indexed": false,
          "internalType": "uint256",
          "name": "amount",
          "type": "uint256"
        }
      ],
      "name": "Unstaked",
      "type": "event"
    },
    {
      "inputs": [],
      "name": "DEFAULT_ADMIN_ROLE",
      "outputs": [
        {
          "internalType": "bytes32",
          "name": "",
          "type": "bytes32"
        }
      ],
      "stateMutability": "view",
      "type": "function",
      "constant": true
    },
    {
      "inputs": [],
      "name": "STAKE_DISPENSER",
      "outputs": [
        {
          "internalType": "bytes32",
          "name": "",
          "type": "bytes32"
        }
      ],
      "stateMutability": "view",
      "type": "function",
      "constant": true
    },
    {
      "inputs": [
        {
          "internalType": "bytes32",
          "name": "role",
          "type": "bytes32"
        }
      ],
      "name": "getRoleAdmin",
      "outputs": [
        {
          "internalType": "bytes32",
          "name": "",
          "type": "bytes32"
        }
      ],
      "stateMutability": "view",
      "type": "function",
      "constant": true
    },
    {
      "inputs": [
        {
          "internalType": "bytes32",
          "name": "role",
          "type": "bytes32"
        },
        {
          "internalType": "address",
          "name": "account",
          "type": "address"
        }
      ],
      "name": "grantRole",
      "outputs": [],
      "stateMutability": "nonpayable",
      "type": "function"
    },
    {
      "inputs": [
        {
          "internalType": "bytes32",
          "name": "role",
          "type": "bytes32"
        },
        {
          "internalType": "address",
          "name": "account",
          "type": "address"
        }
      ],
      "name": "hasRole",
      "outputs": [
        {
          "internalType": "bool",
          "name": "",
          "type": "bool"
        }
      ],
      "stateMutability": "view",
      "type": "function",
      "constant": true
    },
    {
      "inputs": [
        {
          "internalType": "bytes32",
          "name": "role",
          "type": "bytes32"
        },
        {
          "internalType": "address",
          "name": "account",
          "type": "address"
        }
      ],
      "name": "renounceRole",
      "outputs": [],
      "stateMutability": "nonpayable",
      "type": "function"
    },
    {
      "inputs": [
        {
          "internalType": "bytes32",
          "name": "role",
          "type": "bytes32"
        },
        {
          "internalType": "address",
          "name": "account",
          "type": "address"
        }
      ],
      "name": "revokeRole",
      "outputs": [],
      "stateMutability": "nonpayable",
      "type": "function"
    },
    {
      "inputs": [
        {
          "internalType": "uint256",
          "name": "",
          "type": "uint256"
        }
      ],
      "name": "stakers",
      "outputs": [
        {
          "internalType": "address",
          "name": "",
          "type": "address"
        }
      ],
      "stateMutability": "view",
      "type": "function",
      "constant": true
    },
    {
      "inputs": [],
      "name": "stakingToken",
      "outputs": [
        {
          "internalType": "contract IERC20",
          "name": "",
          "type": "address"
        }
      ],
      "stateMutability": "view",
      "type": "function",
      "constant": true
    },
    {
      "inputs": [
        {
          "internalType": "bytes4",
          "name": "interfaceId",
          "type": "bytes4"
        }
      ],
      "name": "supportsInterface",
      "outputs": [
        {
          "internalType": "bool",
          "name": "",
          "type": "bool"
        }
      ],
      "stateMutability": "view",
      "type": "function",
      "constant": true
    },
    {
      "inputs": [
        {
          "internalType": "contract IERC20",
          "name": "_stakingToken",
          "type": "address"
        }
      ],
      "name": "initialize",
      "outputs": [],
      "stateMutability": "nonpayable",
      "type": "function"
    },
    {
      "inputs": [
        {
          "internalType": "uint256",
          "name": "amount",
          "type": "uint256"
        }
      ],
      "name": "stake",
      "outputs": [],
      "stateMutability": "nonpayable",
      "type": "function"
    },
    {
      "inputs": [
        {
          "internalType": "uint256",
          "name": "amount",
          "type": "uint256"
        }
      ],
      "name": "unstake",
      "outputs": [],
      "stateMutability": "nonpayable",
      "type": "function"
    },
    {
      "inputs": [],
      "name": "cancelUnstake",
      "outputs": [],
      "stateMutability": "nonpayable",
      "type": "function"
    },
    {
      "inputs": [
        {
          "internalType": "address",
          "name": "_adr",
          "type": "address"
        }
      ],
      "name": "getTotalStaked",
      "outputs": [
        {
          "internalType": "uint256",
          "name": "",
          "type": "uint256"
        }
      ],
      "stateMutability": "view",
      "type": "function",
      "constant": true
    },
    {
      "inputs": [
        {
          "internalType": "address",
          "name": "_adr",
          "type": "address"
        }
      ],
      "name": "getTotalUnstaked",
      "outputs": [
        {
          "internalType": "uint256",
          "name": "",
          "type": "uint256"
        }
      ],
      "stateMutability": "view",
      "type": "function",
      "constant": true
    },
    {
      "inputs": [
        {
          "internalType": "address",
          "name": "bankruptciesReceiver",
          "type": "address"
        },
        {
          "internalType": "address[]",
          "name": "bankruptAddresses",
          "type": "address[]"
        }
      ],
      "name": "dispenseStakes",
      "outputs": [],
      "stateMutability": "nonpayable",
      "type": "function"
    },
    {
      "inputs": [
        {
          "internalType": "address",
          "name": "staker",
          "type": "address"
        }
      ],
      "name": "getNetStaked",
      "outputs": [
        {
          "internalType": "uint256",
          "name": "",
          "type": "uint256"
        }
      ],
      "stateMutability": "view",
      "type": "function",
      "constant": true
    },
    {
      "inputs": [],
      "name": "getAllNetStaked",
      "outputs": [
        {
          "components": [
            {
              "internalType": "address",
              "name": "staker",
              "type": "address"
            },
            {
              "internalType": "uint256",
              "name": "stakedAmount",
              "type": "uint256"
            }
          ],
          "internalType": "struct CoveyStaking.StakeInfo[]",
          "name": "",
          "type": "tuple[]"
        }
      ],
      "stateMutability": "view",
      "type": "function",
      "constant": true
    }
  ],
  "bytecode": "0x608060405234801561001057600080fd5b50613061806100206000396000f3fe608060405234801561001057600080fd5b50600436106101215760003560e01c8063a694fc3a116100ad578063ded2e7da11610071578063ded2e7da146102f0578063e14cf1e414610320578063e15e38bb1461033e578063ea6451e71461035c578063fd5e6dd11461038c57610121565b8063a694fc3a14610250578063bee193be1461026c578063c4d66de814610288578063d547741f146102a4578063dd2a8b11146102c057610121565b806336568abe116100f457806336568abe146101be5780634ab17969146101da57806372f702f3146101e457806391d1485414610202578063a217fddf1461023257610121565b806301ffc9a714610126578063248a9ca3146101565780632e17de78146101865780632f2ff15d146101a2575b600080fd5b610140600480360381019061013b9190612225565b6103bc565b60405161014d919061226d565b60405180910390f35b610170600480360381019061016b91906122be565b610436565b60405161017d91906122fa565b60405180910390f35b6101a0600480360381019061019b919061234b565b610456565b005b6101bc60048036038101906101b791906123d6565b6106e5565b005b6101d860048036038101906101d391906123d6565b61070e565b005b6101e2610791565b005b6101ec61089b565b6040516101f99190612475565b60405180910390f35b61021c600480360381019061021791906123d6565b6108c1565b604051610229919061226d565b60405180910390f35b61023a61092c565b60405161024791906122fa565b60405180910390f35b61026a6004803603810190610265919061234b565b610933565b005b610286600480360381019061028191906124f5565b610cb9565b005b6102a2600480360381019061029d9190612593565b611779565b005b6102be60048036038101906102b991906123d6565b611888565b005b6102da60048036038101906102d591906125c0565b6118b1565b6040516102e791906125fc565b60405180910390f35b61030a600480360381019061030591906125c0565b6118fa565b60405161031791906125fc565b60405180910390f35b6103286119fc565b6040516103359190612713565b60405180910390f35b610346611af7565b60405161035391906122fa565b60405180910390f35b610376600480360381019061037191906125c0565b611b1b565b60405161038391906125fc565b60405180910390f35b6103a660048036038101906103a1919061234b565b611b64565b6040516103b39190612744565b60405180910390f35b60007f7965db0b000000000000000000000000000000000000000000000000000000007bffffffffffffffffffffffffffffffffffffffffffffffffffffffff1916827bffffffffffffffffffffffffffffffffffffffffffffffffffffffff1916148061042f575061042e82611ba3565b5b9050919050565b600060016000838152602001908152602001600020600101549050919050565b6000600460003373ffffffffffffffffffffffffffffffffffffffff1673ffffffffffffffffffffffffffffffffffffffff1681526020019081526020016000205414156104d9576040517f08c379a00000000000000000000000000000000000000000000000000000000081526004016104d0906127bc565b60405180910390fd5b600081600560003373ffffffffffffffffffffffffffffffffffffffff1673ffffffffffffffffffffffffffffffffffffffff16815260200190815260200160002054610526919061280b565b600460003373ffffffffffffffffffffffffffffffffffffffff1673ffffffffffffffffffffffffffffffffffffffff168152602001908152602001600020546105709190612861565b10156105b1576040517f08c379a00000000000000000000000000000000000000000000000000000000081526004016105a890612907565b60405180910390fd5b80600560003373ffffffffffffffffffffffffffffffffffffffff1673ffffffffffffffffffffffffffffffffffffffff1681526020019081526020016000206000828254610600919061280b565b925050819055503373ffffffffffffffffffffffffffffffffffffffff167f0f5bb82176feb1b5e747e28471aa92156a04d9f3ab9f45f28e2d704232b93f758260405161064d91906125fc565b60405180910390a23373ffffffffffffffffffffffffffffffffffffffff167f45a61950ae80a9a1d9a6c03683ce65096a7db8ca520632bed3072f40963c8804600560003373ffffffffffffffffffffffffffffffffffffffff1673ffffffffffffffffffffffffffffffffffffffff168152602001908152602001600020546040516106da91906125fc565b60405180910390a250565b6106ee82610436565b6106ff816106fa611c0d565b611c15565b6107098383611cb2565b505050565b610716611c0d565b73ffffffffffffffffffffffffffffffffffffffff168173ffffffffffffffffffffffffffffffffffffffff1614610783576040517f08c379a000000000000000000000000000000000000000000000000000000000815260040161077a90612999565b60405180910390fd5b61078d8282611d92565b5050565b6000600560003373ffffffffffffffffffffffffffffffffffffffff1673ffffffffffffffffffffffffffffffffffffffff1681526020019081526020016000205411610813576040517f08c379a000000000000000000000000000000000000000000000000000000000815260040161080a90612a05565b60405180910390fd5b600560003373ffffffffffffffffffffffffffffffffffffffff1673ffffffffffffffffffffffffffffffffffffffff168152602001908152602001600020600090553373ffffffffffffffffffffffffffffffffffffffff167f450cc0f663f8ded0053aeca240ef53a2f4b93c5c3aa067e8e45155e823ceaa7a60405160405180910390a2565b600260009054906101000a900473ffffffffffffffffffffffffffffffffffffffff1681565b60006001600084815260200190815260200160002060000160008373ffffffffffffffffffffffffffffffffffffffff1673ffffffffffffffffffffffffffffffffffffffff16815260200190815260200160002060009054906101000a900460ff16905092915050565b6000801b81565b600073ffffffffffffffffffffffffffffffffffffffff163373ffffffffffffffffffffffffffffffffffffffff1614156109a3576040517f08c379a000000000000000000000000000000000000000000000000000000000815260040161099a90612a71565b60405180910390fd5b600260009054906101000a900473ffffffffffffffffffffffffffffffffffffffff1673ffffffffffffffffffffffffffffffffffffffff166370a08231336040518263ffffffff1660e01b81526004016109fe9190612744565b602060405180830381865afa158015610a1b573d6000803e3d6000fd5b505050506040513d601f19601f82011682018060405250810190610a3f9190612aa6565b811115610a81576040517f08c379a0000000000000000000000000000000000000000000000000000000008152600401610a7890612b45565b60405180910390fd5b600260009054906101000a900473ffffffffffffffffffffffffffffffffffffffff1673ffffffffffffffffffffffffffffffffffffffff1663a9059cbb30836040518363ffffffff1660e01b8152600401610ade929190612b65565b6020604051808303816000875af1158015610afd573d6000803e3d6000fd5b505050506040513d601f19601f82011682018060405250810190610b219190612bba565b5080600460003373ffffffffffffffffffffffffffffffffffffffff1673ffffffffffffffffffffffffffffffffffffffff1681526020019081526020016000206000828254610b71919061280b565b925050819055506006339080600181540180825580915050600190039060005260206000200160009091909190916101000a81548173ffffffffffffffffffffffffffffffffffffffff021916908373ffffffffffffffffffffffffffffffffffffffff1602179055503373ffffffffffffffffffffffffffffffffffffffff167f9e71bc8eea02a63969f509818f2dafb9254532904319f9dbda79b67bd34a5f3d82604051610c2191906125fc565b60405180910390a23373ffffffffffffffffffffffffffffffffffffffff167f62be4aaebfea1375247e22afe02276e2d8d1b765bff167beda8066a0012c7b5f600460003373ffffffffffffffffffffffffffffffffffffffff1673ffffffffffffffffffffffffffffffffffffffff16815260200190815260200160002054604051610cae91906125fc565b60405180910390a250565b600360009054906101000a900473ffffffffffffffffffffffffffffffffffffffff1673ffffffffffffffffffffffffffffffffffffffff163373ffffffffffffffffffffffffffffffffffffffff161480610d3b5750610d3a7f3ce72fac846f3d6667cfc7665d915020539f7bb54925b82c5fec5505f02a575f336108c1565b5b610d4457600080fd5b60005b600680549050811015611773576000805b84849050811015610e145760068381548110610d7757610d76612be7565b5b9060005260206000200160009054906101000a900473ffffffffffffffffffffffffffffffffffffffff1673ffffffffffffffffffffffffffffffffffffffff16858583818110610dcb57610dca612be7565b5b9050602002016020810190610de091906125c0565b73ffffffffffffffffffffffffffffffffffffffff161415610e0157600191505b8080610e0c90612c16565b915050610d58565b5060011515811515141561119157600260009054906101000a900473ffffffffffffffffffffffffffffffffffffffff1673ffffffffffffffffffffffffffffffffffffffff1663a9059cbb866004600060068781548110610e7957610e78612be7565b5b9060005260206000200160009054906101000a900473ffffffffffffffffffffffffffffffffffffffff1673ffffffffffffffffffffffffffffffffffffffff1673ffffffffffffffffffffffffffffffffffffffff168152602001908152602001600020546040518363ffffffff1660e01b8152600401610efc929190612b65565b6020604051808303816000875af1158015610f1b573d6000803e3d6000fd5b505050506040513d601f19601f82011682018060405250810190610f3f9190612bba565b5060068281548110610f5457610f53612be7565b5b9060005260206000200160009054906101000a900473ffffffffffffffffffffffffffffffffffffffff1673ffffffffffffffffffffffffffffffffffffffff167f7fe451685bab7a17da665cc038b4635412b8d788bb692963f88e35eba15ae1756004600060068681548110610fce57610fcd612be7565b5b9060005260206000200160009054906101000a900473ffffffffffffffffffffffffffffffffffffffff1673ffffffffffffffffffffffffffffffffffffffff1673ffffffffffffffffffffffffffffffffffffffff1681526020019081526020016000205460405161104191906125fc565b60405180910390a2600560006006848154811061106157611060612be7565b5b9060005260206000200160009054906101000a900473ffffffffffffffffffffffffffffffffffffffff1673ffffffffffffffffffffffffffffffffffffffff1673ffffffffffffffffffffffffffffffffffffffff1681526020019081526020016000206000905560046000600684815481106110e2576110e1612be7565b5b9060005260206000200160009054906101000a900473ffffffffffffffffffffffffffffffffffffffff1673ffffffffffffffffffffffffffffffffffffffff1673ffffffffffffffffffffffffffffffffffffffff168152602001908152602001600020600090556006828154811061115f5761115e612be7565b5b9060005260206000200160006101000a81549073ffffffffffffffffffffffffffffffffffffffff021916905561175f565b600060056000600685815481106111ab576111aa612be7565b5b9060005260206000200160009054906101000a900473ffffffffffffffffffffffffffffffffffffffff1673ffffffffffffffffffffffffffffffffffffffff1673ffffffffffffffffffffffffffffffffffffffff16815260200190815260200160002054118015611222575060001515811515145b1561175e57600260009054906101000a900473ffffffffffffffffffffffffffffffffffffffff1673ffffffffffffffffffffffffffffffffffffffff1663a9059cbb6006848154811061127957611278612be7565b5b9060005260206000200160009054906101000a900473ffffffffffffffffffffffffffffffffffffffff1660056000600687815481106112bc576112bb612be7565b5b9060005260206000200160009054906101000a900473ffffffffffffffffffffffffffffffffffffffff1673ffffffffffffffffffffffffffffffffffffffff1673ffffffffffffffffffffffffffffffffffffffff168152602001908152602001600020546040518363ffffffff1660e01b815260040161133f929190612b65565b6020604051808303816000875af115801561135e573d6000803e3d6000fd5b505050506040513d601f19601f820116820180604052508101906113829190612bba565b506006828154811061139757611396612be7565b5b9060005260206000200160009054906101000a900473ffffffffffffffffffffffffffffffffffffffff1673ffffffffffffffffffffffffffffffffffffffff167f9b4c90d41aa819dadecbb2e126e6dc2e01be4402acc99ec60248131a3f59576c600560006006868154811061141157611410612be7565b5b9060005260206000200160009054906101000a900473ffffffffffffffffffffffffffffffffffffffff1673ffffffffffffffffffffffffffffffffffffffff1673ffffffffffffffffffffffffffffffffffffffff1681526020019081526020016000205460405161148491906125fc565b60405180910390a260056000600684815481106114a4576114a3612be7565b5b9060005260206000200160009054906101000a900473ffffffffffffffffffffffffffffffffffffffff1673ffffffffffffffffffffffffffffffffffffffff1673ffffffffffffffffffffffffffffffffffffffff16815260200190815260200160002054600460006006858154811061152257611521612be7565b5b9060005260206000200160009054906101000a900473ffffffffffffffffffffffffffffffffffffffff1673ffffffffffffffffffffffffffffffffffffffff1673ffffffffffffffffffffffffffffffffffffffff168152602001908152602001600020546115929190612861565b60046000600685815481106115aa576115a9612be7565b5b9060005260206000200160009054906101000a900473ffffffffffffffffffffffffffffffffffffffff1673ffffffffffffffffffffffffffffffffffffffff1673ffffffffffffffffffffffffffffffffffffffff168152602001908152602001600020819055506000600560006006858154811061162d5761162c612be7565b5b9060005260206000200160009054906101000a900473ffffffffffffffffffffffffffffffffffffffff1673ffffffffffffffffffffffffffffffffffffffff1673ffffffffffffffffffffffffffffffffffffffff16815260200190815260200160002081905550600060046000600685815481106116b0576116af612be7565b5b9060005260206000200160009054906101000a900473ffffffffffffffffffffffffffffffffffffffff1673ffffffffffffffffffffffffffffffffffffffff1673ffffffffffffffffffffffffffffffffffffffff168152602001908152602001600020541161175d576006828154811061172f5761172e612be7565b5b9060005260206000200160006101000a81549073ffffffffffffffffffffffffffffffffffffffff02191690555b5b5b50808061176b90612c16565b915050610d47565b50505050565b60006117856001611e74565b905080156117a9576001600060016101000a81548160ff0219169083151502179055505b33600360006101000a81548173ffffffffffffffffffffffffffffffffffffffff021916908373ffffffffffffffffffffffffffffffffffffffff16021790555081600260006101000a81548173ffffffffffffffffffffffffffffffffffffffff021916908373ffffffffffffffffffffffffffffffffffffffff16021790555080156118845760008060016101000a81548160ff0219169083151502179055507f7f26b83ff96e1f2b6a682f133852f6798a09c465da95921460cefb3847402498600160405161187b9190612ca7565b60405180910390a15b5050565b61189182610436565b6118a28161189d611c0d565b611c15565b6118ac8383611d92565b505050565b6000600460008373ffffffffffffffffffffffffffffffffffffffff1673ffffffffffffffffffffffffffffffffffffffff168152602001908152602001600020549050919050565b60008073ffffffffffffffffffffffffffffffffffffffff168273ffffffffffffffffffffffffffffffffffffffff16141561196b576040517f08c379a000000000000000000000000000000000000000000000000000000000815260040161196290612a71565b60405180910390fd5b600560008373ffffffffffffffffffffffffffffffffffffffff1673ffffffffffffffffffffffffffffffffffffffff16815260200190815260200160002054600460008473ffffffffffffffffffffffffffffffffffffffff1673ffffffffffffffffffffffffffffffffffffffff168152602001908152602001600020546119f59190612861565b9050919050565b60608060005b600680549050811015611aef57604051806040016040528060068381548110611a2e57611a2d612be7565b5b9060005260206000200160009054906101000a900473ffffffffffffffffffffffffffffffffffffffff1673ffffffffffffffffffffffffffffffffffffffff168152602001611abb60068481548110611a8b57611a8a612be7565b5b9060005260206000200160009054906101000a900473ffffffffffffffffffffffffffffffffffffffff166118fa565b815250828281518110611ad157611ad0612be7565b5b60200260200101819052508080611ae790612c16565b915050611a02565b508091505090565b7f3ce72fac846f3d6667cfc7665d915020539f7bb54925b82c5fec5505f02a575f81565b6000600560008373ffffffffffffffffffffffffffffffffffffffff1673ffffffffffffffffffffffffffffffffffffffff168152602001908152602001600020549050919050565b60068181548110611b7457600080fd5b906000526020600020016000915054906101000a900473ffffffffffffffffffffffffffffffffffffffff1681565b60007f01ffc9a7000000000000000000000000000000000000000000000000000000007bffffffffffffffffffffffffffffffffffffffffffffffffffffffff1916827bffffffffffffffffffffffffffffffffffffffffffffffffffffffff1916149050919050565b600033905090565b611c1f82826108c1565b611cae57611c448173ffffffffffffffffffffffffffffffffffffffff166014611f64565b611c528360001c6020611f64565b604051602001611c63929190612dd4565b6040516020818303038152906040526040517f08c379a0000000000000000000000000000000000000000000000000000000008152600401611ca59190612e58565b60405180910390fd5b5050565b611cbc82826108c1565b611d8e57600180600084815260200190815260200160002060000160008373ffffffffffffffffffffffffffffffffffffffff1673ffffffffffffffffffffffffffffffffffffffff16815260200190815260200160002060006101000a81548160ff021916908315150217905550611d33611c0d565b73ffffffffffffffffffffffffffffffffffffffff168173ffffffffffffffffffffffffffffffffffffffff16837f2f8788117e7eff1d82e926ec794901d17c78024a50270940304540a733656f0d60405160405180910390a45b5050565b611d9c82826108c1565b15611e705760006001600084815260200190815260200160002060000160008373ffffffffffffffffffffffffffffffffffffffff1673ffffffffffffffffffffffffffffffffffffffff16815260200190815260200160002060006101000a81548160ff021916908315150217905550611e15611c0d565b73ffffffffffffffffffffffffffffffffffffffff168173ffffffffffffffffffffffffffffffffffffffff16837ff6391f5c32d9c69d2a47ea670b442974b53935d1edc7fd64eb21e047a839171b60405160405180910390a45b5050565b60008060019054906101000a900460ff1615611eeb5760018260ff16148015611ea35750611ea1306121a0565b155b611ee2576040517f08c379a0000000000000000000000000000000000000000000000000000000008152600401611ed990612eec565b60405180910390fd5b60009050611f5f565b8160ff1660008054906101000a900460ff1660ff1610611f40576040517f08c379a0000000000000000000000000000000000000000000000000000000008152600401611f3790612eec565b60405180910390fd5b816000806101000a81548160ff021916908360ff160217905550600190505b919050565b606060006002836002611f779190612f0c565b611f81919061280b565b67ffffffffffffffff811115611f9a57611f99612f66565b5b6040519080825280601f01601f191660200182016040528015611fcc5781602001600182028036833780820191505090505b5090507f30000000000000000000000000000000000000000000000000000000000000008160008151811061200457612003612be7565b5b60200101907effffffffffffffffffffffffffffffffffffffffffffffffffffffffffffff1916908160001a9053507f78000000000000000000000000000000000000000000000000000000000000008160018151811061206857612067612be7565b5b60200101907effffffffffffffffffffffffffffffffffffffffffffffffffffffffffffff1916908160001a905350600060018460026120a89190612f0c565b6120b2919061280b565b90505b6001811115612152577f3031323334353637383961626364656600000000000000000000000000000000600f8616601081106120f4576120f3612be7565b5b1a60f81b82828151811061210b5761210a612be7565b5b60200101907effffffffffffffffffffffffffffffffffffffffffffffffffffffffffffff1916908160001a905350600485901c94508061214b90612f95565b90506120b5565b5060008414612196576040517f08c379a000000000000000000000000000000000000000000000000000000000815260040161218d9061300b565b60405180910390fd5b8091505092915050565b6000808273ffffffffffffffffffffffffffffffffffffffff163b119050919050565b600080fd5b600080fd5b60007fffffffff0000000000000000000000000000000000000000000000000000000082169050919050565b612202816121cd565b811461220d57600080fd5b50565b60008135905061221f816121f9565b92915050565b60006020828403121561223b5761223a6121c3565b5b600061224984828501612210565b91505092915050565b60008115159050919050565b61226781612252565b82525050565b6000602082019050612282600083018461225e565b92915050565b6000819050919050565b61229b81612288565b81146122a657600080fd5b50565b6000813590506122b881612292565b92915050565b6000602082840312156122d4576122d36121c3565b5b60006122e2848285016122a9565b91505092915050565b6122f481612288565b82525050565b600060208201905061230f60008301846122eb565b92915050565b6000819050919050565b61232881612315565b811461233357600080fd5b50565b6000813590506123458161231f565b92915050565b600060208284031215612361576123606121c3565b5b600061236f84828501612336565b91505092915050565b600073ffffffffffffffffffffffffffffffffffffffff82169050919050565b60006123a382612378565b9050919050565b6123b381612398565b81146123be57600080fd5b50565b6000813590506123d0816123aa565b92915050565b600080604083850312156123ed576123ec6121c3565b5b60006123fb858286016122a9565b925050602061240c858286016123c1565b9150509250929050565b6000819050919050565b600061243b61243661243184612378565b612416565b612378565b9050919050565b600061244d82612420565b9050919050565b600061245f82612442565b9050919050565b61246f81612454565b82525050565b600060208201905061248a6000830184612466565b92915050565b600080fd5b600080fd5b600080fd5b60008083601f8401126124b5576124b4612490565b5b8235905067ffffffffffffffff8111156124d2576124d1612495565b5b6020830191508360208202830111156124ee576124ed61249a565b5b9250929050565b60008060006040848603121561250e5761250d6121c3565b5b600061251c868287016123c1565b935050602084013567ffffffffffffffff81111561253d5761253c6121c8565b5b6125498682870161249f565b92509250509250925092565b600061256082612398565b9050919050565b61257081612555565b811461257b57600080fd5b50565b60008135905061258d81612567565b92915050565b6000602082840312156125a9576125a86121c3565b5b60006125b78482850161257e565b91505092915050565b6000602082840312156125d6576125d56121c3565b5b60006125e4848285016123c1565b91505092915050565b6125f681612315565b82525050565b600060208201905061261160008301846125ed565b92915050565b600081519050919050565b600082825260208201905092915050565b6000819050602082019050919050565b61264c81612398565b82525050565b61265b81612315565b82525050565b6040820160008201516126776000850182612643565b50602082015161268a6020850182612652565b50505050565b600061269c8383612661565b60408301905092915050565b6000602082019050919050565b60006126c082612617565b6126ca8185612622565b93506126d583612633565b8060005b838110156127065781516126ed8882612690565b97506126f8836126a8565b9250506001810190506126d9565b5085935050505092915050565b6000602082019050818103600083015261272d81846126b5565b905092915050565b61273e81612398565b82525050565b60006020820190506127596000830184612735565b92915050565b600082825260208201905092915050565b7f486173206e6f74207374616b6564000000000000000000000000000000000000600082015250565b60006127a6600e8361275f565b91506127b182612770565b602082019050919050565b600060208201905081810360008301526127d581612799565b9050919050565b7f4e487b7100000000000000000000000000000000000000000000000000000000600052601160045260246000fd5b600061281682612315565b915061282183612315565b9250827fffffffffffffffffffffffffffffffffffffffffffffffffffffffffffffffff03821115612856576128556127dc565b5b828201905092915050565b600061286c82612315565b915061287783612315565b92508282101561288a576128896127dc565b5b828203905092915050565b7f43616e6e6f7420756e7374616b65206d6f7265207468616e20746f74616c207360008201527f74616b656420616d6f756e740000000000000000000000000000000000000000602082015250565b60006128f1602c8361275f565b91506128fc82612895565b604082019050919050565b60006020820190508181036000830152612920816128e4565b9050919050565b7f416363657373436f6e74726f6c3a2063616e206f6e6c792072656e6f756e636560008201527f20726f6c657320666f722073656c660000000000000000000000000000000000602082015250565b6000612983602f8361275f565b915061298e82612927565b604082019050919050565b600060208201905081810360008301526129b281612976565b9050919050565b7f4e6f20756e7374616b6520746f2063616e63656c000000000000000000000000600082015250565b60006129ef60148361275f565b91506129fa826129b9565b602082019050919050565b60006020820190508181036000830152612a1e816129e2565b9050919050565b7f53656e6465722069732030206164647265737300000000000000000000000000600082015250565b6000612a5b60138361275f565b9150612a6682612a25565b602082019050919050565b60006020820190508181036000830152612a8a81612a4e565b9050919050565b600081519050612aa08161231f565b92915050565b600060208284031215612abc57612abb6121c3565b5b6000612aca84828501612a91565b91505092915050565b7f416d6f756e74206578636565647320617661696c61626c65204356592062616c60008201527f616e636500000000000000000000000000000000000000000000000000000000602082015250565b6000612b2f60248361275f565b9150612b3a82612ad3565b604082019050919050565b60006020820190508181036000830152612b5e81612b22565b9050919050565b6000604082019050612b7a6000830185612735565b612b8760208301846125ed565b9392505050565b612b9781612252565b8114612ba257600080fd5b50565b600081519050612bb481612b8e565b92915050565b600060208284031215612bd057612bcf6121c3565b5b6000612bde84828501612ba5565b91505092915050565b7f4e487b7100000000000000000000000000000000000000000000000000000000600052603260045260246000fd5b6000612c2182612315565b91507fffffffffffffffffffffffffffffffffffffffffffffffffffffffffffffffff821415612c5457612c536127dc565b5b600182019050919050565b6000819050919050565b600060ff82169050919050565b6000612c91612c8c612c8784612c5f565b612416565b612c69565b9050919050565b612ca181612c76565b82525050565b6000602082019050612cbc6000830184612c98565b92915050565b600081905092915050565b7f416363657373436f6e74726f6c3a206163636f756e7420000000000000000000600082015250565b6000612d03601783612cc2565b9150612d0e82612ccd565b601782019050919050565b600081519050919050565b60005b83811015612d42578082015181840152602081019050612d27565b83811115612d51576000848401525b50505050565b6000612d6282612d19565b612d6c8185612cc2565b9350612d7c818560208601612d24565b80840191505092915050565b7f206973206d697373696e6720726f6c6520000000000000000000000000000000600082015250565b6000612dbe601183612cc2565b9150612dc982612d88565b601182019050919050565b6000612ddf82612cf6565b9150612deb8285612d57565b9150612df682612db1565b9150612e028284612d57565b91508190509392505050565b6000601f19601f8301169050919050565b6000612e2a82612d19565b612e34818561275f565b9350612e44818560208601612d24565b612e4d81612e0e565b840191505092915050565b60006020820190508181036000830152612e728184612e1f565b905092915050565b7f496e697469616c697a61626c653a20636f6e747261637420697320616c72656160008201527f647920696e697469616c697a6564000000000000000000000000000000000000602082015250565b6000612ed6602e8361275f565b9150612ee182612e7a565b604082019050919050565b60006020820190508181036000830152612f0581612ec9565b9050919050565b6000612f1782612315565b9150612f2283612315565b9250817fffffffffffffffffffffffffffffffffffffffffffffffffffffffffffffffff0483118215151615612f5b57612f5a6127dc565b5b828202905092915050565b7f4e487b7100000000000000000000000000000000000000000000000000000000600052604160045260246000fd5b6000612fa082612315565b91506000821415612fb457612fb36127dc565b5b600182039050919050565b7f537472696e67733a20686578206c656e67746820696e73756666696369656e74600082015250565b6000612ff560208361275f565b915061300082612fbf565b602082019050919050565b6000602082019050818103600083015261302481612fe8565b905091905056fea2646970667358221220bbd170784da25b1ae16947930f37cef23cf2070f33105e87156b9281c492bd3564736f6c634300080b0033",
  "immutableReferences": {},
  "source": "// contracts/CoveyStaking.sol\r\n// SPDX-License-Identifier: MIT\r\npragma solidity ^0.8.11;\r\n\r\nimport \"@openzeppelin/contracts/access/Ownable.sol\";\r\nimport '@openzeppelin/contracts-upgradeable/proxy/utils/Initializable.sol';\r\nimport '@openzeppelin/contracts/token/ERC20/IERC20.sol';\r\nimport \"@openzeppelin/contracts/access/AccessControl.sol\";\r\n\r\n\r\ncontract CoveyStaking is Initializable, AccessControl {\r\n  IERC20 public stakingToken;\r\n\r\n  struct StakeInfo {\r\n      address staker;\r\n      uint stakedAmount;\r\n  }\r\n\r\n  address owner;\r\n\r\n\r\n  mapping(address => uint) private _stakedAmounts;\r\n\r\n  mapping(address => uint) private _unstakedAmounts;\r\n\r\n  address[] public stakers;\r\n\r\n  bytes32 public constant STAKE_DISPENSER = keccak256(\"STAKE_DISPENSER\");\r\n\r\n  event Staked(address indexed _adr, uint amount);\r\n  \r\n  event Unstaked(address indexed _adr, uint amount);\r\n\r\n  event TotalStaked(address indexed _adr, uint amount);\r\n  \r\n  event TotalUnstaked(address indexed _adr, uint amount);\r\n\r\n  event CancelledUnstake(address indexed _adr);\r\n\r\n  event Bankrupt(address indexed _adr, uint amountLost);\r\n\r\n  event StakeDispensed(address indexed _adr, uint amountDispensed);\r\n\r\n  modifier onlyOwner {\r\n      require(msg.sender == owner);\r\n      _;\r\n  }\r\n\r\n  modifier onlyOwnerOrDispenser {\r\n    require(msg.sender == owner || hasRole(STAKE_DISPENSER, msg.sender));\r\n    _;\r\n  }\r\n\r\n  function initialize(IERC20 _stakingToken) public initializer {\r\n        owner = msg.sender;\r\n        stakingToken = _stakingToken;\r\n    }\r\n\r\n   \r\n\r\n  function stake(uint amount) public {\r\n      require(msg.sender != address(0), \"Sender is 0 address\");\r\n      require(amount <= stakingToken.balanceOf(msg.sender), \"Amount exceeds available CVY balance\");\r\n\r\n      stakingToken.transfer(address(this), amount);\r\n      _stakedAmounts[msg.sender] +=  amount;\r\n      stakers.push(msg.sender);\r\n      emit Staked(msg.sender, amount);\r\n      emit TotalStaked(msg.sender, _stakedAmounts[msg.sender]);\r\n  }\r\n\r\n  function unstake(uint amount) public {\r\n      require(_stakedAmounts[msg.sender] != 0, \"Has not staked\");\r\n      require(_stakedAmounts[msg.sender] - (_unstakedAmounts[msg.sender] + amount) >= 0, \"Cannot unstake more than total staked amount\");\r\n      _unstakedAmounts[msg.sender] += amount;\r\n      emit Unstaked(msg.sender, amount);\r\n      emit TotalUnstaked(msg.sender, _unstakedAmounts[msg.sender]);\r\n  }\r\n\r\n  function cancelUnstake() public {\r\n      require(_unstakedAmounts[msg.sender] > 0, \"No unstake to cancel\");\r\n      delete _unstakedAmounts[msg.sender];\r\n      emit CancelledUnstake(msg.sender);\r\n  }\r\n\r\n  function getTotalStaked(address _adr) public view returns(uint) {\r\n      return _stakedAmounts[_adr];\r\n  }\r\n\r\n  function getTotalUnstaked(address _adr) public view returns(uint) {\r\n      return _unstakedAmounts[_adr];\r\n  }\r\n\r\n  function dispenseStakes(address bankruptciesReceiver, address[] calldata bankruptAddresses) public onlyOwnerOrDispenser {\r\n      for(uint i = 0; i < stakers.length; i++) {\r\n          bool isBankrupt = false;\r\n          for(uint j = 0; j < bankruptAddresses.length; j++) {\r\n                if(bankruptAddresses[j] == stakers[i]) {\r\n                    isBankrupt = true;\r\n                }\r\n            }\r\n\r\n          if(isBankrupt == true) {\r\n              stakingToken.transfer(bankruptciesReceiver, _stakedAmounts[stakers[i]]);\r\n              emit Bankrupt(stakers[i], _stakedAmounts[stakers[i]]);\r\n              delete _unstakedAmounts[stakers[i]];\r\n              delete _stakedAmounts[stakers[i]];\r\n              delete stakers[i]; \r\n          } else if( _unstakedAmounts[stakers[i]] > 0 && isBankrupt == false) {\r\n              stakingToken.transfer(stakers[i], _unstakedAmounts[stakers[i]]);\r\n              emit StakeDispensed(stakers[i], _unstakedAmounts[stakers[i]]);\r\n              _stakedAmounts[stakers[i]] = _stakedAmounts[stakers[i]] - _unstakedAmounts[stakers[i]];\r\n              _unstakedAmounts[stakers[i]] = 0;\r\n\r\n              if(_stakedAmounts[stakers[i]] <= 0) {\r\n                  delete stakers[i];\r\n              }\r\n          }\r\n      }\r\n  }\r\n\r\n  function getNetStaked(address staker) public view returns (uint) {\r\n      require(staker != address(0), \"Sender is 0 address\");\r\n      \r\n      return _stakedAmounts[staker] - _unstakedAmounts[staker];\r\n  }\r\n\r\n  function getAllNetStaked() public view returns (StakeInfo[] memory) {\r\n      StakeInfo[] memory stakeInformation;\r\n\r\n      for(uint i = 0; i < stakers.length; i++) {\r\n          stakeInformation[i] = StakeInfo({\r\n              staker: stakers[i],\r\n              stakedAmount: getNetStaked(stakers[i])\r\n          });\r\n      }\r\n\r\n      return stakeInformation;\r\n  }\r\n}",
  "sourcePath": "C:\\Users\\jcara\\Documents\\repos\\smart-contract-token\\contracts\\CoveyStaking.sol",
  "compiler": {
    "name": "solc",
    "version": "0.8.11+commit.d7f03943.Emscripten.clang"
  },
  "schemaVersion": "3.4.8",
  "updatedAt": "2022-08-10T14:46:30.784Z",
  "networkType": "ethereum",
  "devdoc": {
    "kind": "dev",
    "methods": {
      "getRoleAdmin(bytes32)": {
        "details": "Returns the admin role that controls `role`. See {grantRole} and {revokeRole}. To change a role's admin, use {_setRoleAdmin}."
      },
      "grantRole(bytes32,address)": {
        "details": "Grants `role` to `account`. If `account` had not been already granted `role`, emits a {RoleGranted} event. Requirements: - the caller must have ``role``'s admin role."
      },
      "hasRole(bytes32,address)": {
        "details": "Returns `true` if `account` has been granted `role`."
      },
      "renounceRole(bytes32,address)": {
        "details": "Revokes `role` from the calling account. Roles are often managed via {grantRole} and {revokeRole}: this function's purpose is to provide a mechanism for accounts to lose their privileges if they are compromised (such as when a trusted device is misplaced). If the calling account had been revoked `role`, emits a {RoleRevoked} event. Requirements: - the caller must be `account`."
      },
      "revokeRole(bytes32,address)": {
        "details": "Revokes `role` from `account`. If `account` had been granted `role`, emits a {RoleRevoked} event. Requirements: - the caller must have ``role``'s admin role."
      },
      "supportsInterface(bytes4)": {
        "details": "See {IERC165-supportsInterface}."
      }
    },
    "version": 1
  },
  "userdoc": {
    "kind": "user",
    "methods": {},
    "version": 1
  }
}