{
  "contractName": "CoveyToken",
  "abi": [
    {
      "inputs": [
        {
          "internalType": "uint256",
          "name": "initialSupply",
          "type": "uint256"
        },
        {
          "internalType": "address[]",
          "name": "defaultOperators",
          "type": "address[]"
        }
      ],
      "stateMutability": "nonpayable",
      "type": "constructor"
    },
    {
      "anonymous": false,
      "inputs": [
        {
          "indexed": true,
          "internalType": "address",
          "name": "_adr",
          "type": "address"
        },
        {
          "indexed": false,
          "internalType": "uint256",
          "name": "amount",
          "type": "uint256"
        }
      ],
      "name": "Airdrop",
      "type": "event"
    },
    {
      "anonymous": false,
      "inputs": [
        {
          "indexed": true,
          "internalType": "address",
          "name": "owner",
          "type": "address"
        },
        {
          "indexed": true,
          "internalType": "address",
          "name": "spender",
          "type": "address"
        },
        {
          "indexed": false,
          "internalType": "uint256",
          "name": "value",
          "type": "uint256"
        }
      ],
      "name": "Approval",
      "type": "event"
    },
    {
      "anonymous": false,
      "inputs": [
        {
          "indexed": true,
          "internalType": "address",
          "name": "operator",
          "type": "address"
        },
        {
          "indexed": true,
          "internalType": "address",
          "name": "tokenHolder",
          "type": "address"
        }
      ],
      "name": "AuthorizedOperator",
      "type": "event"
    },
    {
      "anonymous": false,
      "inputs": [
        {
          "indexed": true,
          "internalType": "address",
          "name": "operator",
          "type": "address"
        },
        {
          "indexed": true,
          "internalType": "address",
          "name": "from",
          "type": "address"
        },
        {
          "indexed": false,
          "internalType": "uint256",
          "name": "amount",
          "type": "uint256"
        },
        {
          "indexed": false,
          "internalType": "bytes",
          "name": "data",
          "type": "bytes"
        },
        {
          "indexed": false,
          "internalType": "bytes",
          "name": "operatorData",
          "type": "bytes"
        }
      ],
      "name": "Burned",
      "type": "event"
    },
    {
      "anonymous": false,
      "inputs": [
        {
          "indexed": true,
          "internalType": "address",
          "name": "_adr",
          "type": "address"
        },
        {
          "indexed": false,
          "internalType": "uint256",
          "name": "amount",
          "type": "uint256"
        },
        {
          "indexed": true,
          "internalType": "uint256",
          "name": "unlockTime",
          "type": "uint256"
        },
        {
          "indexed": true,
          "internalType": "string",
          "name": "reason",
          "type": "string"
        }
      ],
      "name": "Lock",
      "type": "event"
    },
    {
      "anonymous": false,
      "inputs": [
        {
          "indexed": true,
          "internalType": "address",
          "name": "operator",
          "type": "address"
        },
        {
          "indexed": true,
          "internalType": "address",
          "name": "to",
          "type": "address"
        },
        {
          "indexed": false,
          "internalType": "uint256",
          "name": "amount",
          "type": "uint256"
        },
        {
          "indexed": false,
          "internalType": "bytes",
          "name": "data",
          "type": "bytes"
        },
        {
          "indexed": false,
          "internalType": "bytes",
          "name": "operatorData",
          "type": "bytes"
        }
      ],
      "name": "Minted",
      "type": "event"
    },
    {
      "anonymous": false,
      "inputs": [
        {
          "indexed": true,
          "internalType": "address",
          "name": "previousOwner",
          "type": "address"
        },
        {
          "indexed": true,
          "internalType": "address",
          "name": "newOwner",
          "type": "address"
        }
      ],
      "name": "OwnershipTransferred",
      "type": "event"
    },
    {
      "anonymous": false,
      "inputs": [
        {
          "indexed": true,
          "internalType": "address",
          "name": "operator",
          "type": "address"
        },
        {
          "indexed": true,
          "internalType": "address",
          "name": "tokenHolder",
          "type": "address"
        }
      ],
      "name": "RevokedOperator",
      "type": "event"
    },
    {
      "anonymous": false,
      "inputs": [
        {
          "indexed": true,
          "internalType": "address",
          "name": "operator",
          "type": "address"
        },
        {
          "indexed": true,
          "internalType": "address",
          "name": "from",
          "type": "address"
        },
        {
          "indexed": true,
          "internalType": "address",
          "name": "to",
          "type": "address"
        },
        {
          "indexed": false,
          "internalType": "uint256",
          "name": "amount",
          "type": "uint256"
        },
        {
          "indexed": false,
          "internalType": "bytes",
          "name": "data",
          "type": "bytes"
        },
        {
          "indexed": false,
          "internalType": "bytes",
          "name": "operatorData",
          "type": "bytes"
        }
      ],
      "name": "Sent",
      "type": "event"
    },
    {
      "anonymous": false,
      "inputs": [
        {
          "indexed": true,
          "internalType": "address",
          "name": "from",
          "type": "address"
        },
        {
          "indexed": true,
          "internalType": "address",
          "name": "to",
          "type": "address"
        },
        {
          "indexed": false,
          "internalType": "uint256",
          "name": "value",
          "type": "uint256"
        }
      ],
      "name": "Transfer",
      "type": "event"
    },
    {
      "anonymous": false,
      "inputs": [
        {
          "indexed": true,
          "internalType": "address",
          "name": "_adr",
          "type": "address"
        },
        {
          "indexed": false,
          "internalType": "uint256",
          "name": "amount",
          "type": "uint256"
        }
      ],
      "name": "Unlock",
      "type": "event"
    },
    {
      "inputs": [
        {
          "internalType": "address",
          "name": "holder",
          "type": "address"
        },
        {
          "internalType": "address",
          "name": "spender",
          "type": "address"
        }
      ],
      "name": "allowance",
      "outputs": [
        {
          "internalType": "uint256",
          "name": "",
          "type": "uint256"
        }
      ],
      "stateMutability": "view",
      "type": "function",
      "constant": true
    },
    {
      "inputs": [
        {
          "internalType": "address",
          "name": "spender",
          "type": "address"
        },
        {
          "internalType": "uint256",
          "name": "value",
          "type": "uint256"
        }
      ],
      "name": "approve",
      "outputs": [
        {
          "internalType": "bool",
          "name": "",
          "type": "bool"
        }
      ],
      "stateMutability": "nonpayable",
      "type": "function"
    },
    {
      "inputs": [
        {
          "internalType": "address",
          "name": "operator",
          "type": "address"
        }
      ],
      "name": "authorizeOperator",
      "outputs": [],
      "stateMutability": "nonpayable",
      "type": "function"
    },
    {
      "inputs": [
        {
          "internalType": "address",
          "name": "tokenHolder",
          "type": "address"
        }
      ],
      "name": "balanceOf",
      "outputs": [
        {
          "internalType": "uint256",
          "name": "",
          "type": "uint256"
        }
      ],
      "stateMutability": "view",
      "type": "function",
      "constant": true
    },
    {
      "inputs": [
        {
          "internalType": "uint256",
          "name": "amount",
          "type": "uint256"
        },
        {
          "internalType": "bytes",
          "name": "data",
          "type": "bytes"
        }
      ],
      "name": "burn",
      "outputs": [],
      "stateMutability": "nonpayable",
      "type": "function"
    },
    {
      "inputs": [],
      "name": "decimals",
      "outputs": [
        {
          "internalType": "uint8",
          "name": "",
          "type": "uint8"
        }
      ],
      "stateMutability": "pure",
      "type": "function",
      "constant": true
    },
    {
      "inputs": [],
      "name": "defaultOperators",
      "outputs": [
        {
          "internalType": "address[]",
          "name": "",
          "type": "address[]"
        }
      ],
      "stateMutability": "view",
      "type": "function",
      "constant": true
    },
    {
      "inputs": [],
      "name": "granularity",
      "outputs": [
        {
          "internalType": "uint256",
          "name": "",
          "type": "uint256"
        }
      ],
      "stateMutability": "view",
      "type": "function",
      "constant": true
    },
    {
      "inputs": [
        {
          "internalType": "address",
          "name": "operator",
          "type": "address"
        },
        {
          "internalType": "address",
          "name": "tokenHolder",
          "type": "address"
        }
      ],
      "name": "isOperatorFor",
      "outputs": [
        {
          "internalType": "bool",
          "name": "",
          "type": "bool"
        }
      ],
      "stateMutability": "view",
      "type": "function",
      "constant": true
    },
    {
      "inputs": [],
      "name": "name",
      "outputs": [
        {
          "internalType": "string",
          "name": "",
          "type": "string"
        }
      ],
      "stateMutability": "view",
      "type": "function",
      "constant": true
    },
    {
      "inputs": [
        {
          "internalType": "address",
          "name": "account",
          "type": "address"
        },
        {
          "internalType": "uint256",
          "name": "amount",
          "type": "uint256"
        },
        {
          "internalType": "bytes",
          "name": "data",
          "type": "bytes"
        },
        {
          "internalType": "bytes",
          "name": "operatorData",
          "type": "bytes"
        }
      ],
      "name": "operatorBurn",
      "outputs": [],
      "stateMutability": "nonpayable",
      "type": "function"
    },
    {
      "inputs": [
        {
          "internalType": "address",
          "name": "sender",
          "type": "address"
        },
        {
          "internalType": "address",
          "name": "recipient",
          "type": "address"
        },
        {
          "internalType": "uint256",
          "name": "amount",
          "type": "uint256"
        },
        {
          "internalType": "bytes",
          "name": "data",
          "type": "bytes"
        },
        {
          "internalType": "bytes",
          "name": "operatorData",
          "type": "bytes"
        }
      ],
      "name": "operatorSend",
      "outputs": [],
      "stateMutability": "nonpayable",
      "type": "function"
    },
    {
      "inputs": [],
      "name": "owner",
      "outputs": [
        {
          "internalType": "address",
          "name": "",
          "type": "address"
        }
      ],
      "stateMutability": "view",
      "type": "function",
      "constant": true
    },
    {
      "inputs": [],
      "name": "renounceOwnership",
      "outputs": [],
      "stateMutability": "nonpayable",
      "type": "function"
    },
    {
      "inputs": [
        {
          "internalType": "address",
          "name": "operator",
          "type": "address"
        }
      ],
      "name": "revokeOperator",
      "outputs": [],
      "stateMutability": "nonpayable",
      "type": "function"
    },
    {
      "inputs": [
        {
          "internalType": "address",
          "name": "recipient",
          "type": "address"
        },
        {
          "internalType": "uint256",
          "name": "amount",
          "type": "uint256"
        },
        {
          "internalType": "bytes",
          "name": "data",
          "type": "bytes"
        }
      ],
      "name": "send",
      "outputs": [],
      "stateMutability": "nonpayable",
      "type": "function"
    },
    {
      "inputs": [],
      "name": "symbol",
      "outputs": [
        {
          "internalType": "string",
          "name": "",
          "type": "string"
        }
      ],
      "stateMutability": "view",
      "type": "function",
      "constant": true
    },
    {
      "inputs": [],
      "name": "totalSupply",
      "outputs": [
        {
          "internalType": "uint256",
          "name": "",
          "type": "uint256"
        }
      ],
      "stateMutability": "view",
      "type": "function",
      "constant": true
    },
    {
      "inputs": [
        {
          "internalType": "address",
          "name": "recipient",
          "type": "address"
        },
        {
          "internalType": "uint256",
          "name": "amount",
          "type": "uint256"
        }
      ],
      "name": "transfer",
      "outputs": [
        {
          "internalType": "bool",
          "name": "",
          "type": "bool"
        }
      ],
      "stateMutability": "nonpayable",
      "type": "function"
    },
    {
      "inputs": [
        {
          "internalType": "address",
          "name": "holder",
          "type": "address"
        },
        {
          "internalType": "address",
          "name": "recipient",
          "type": "address"
        },
        {
          "internalType": "uint256",
          "name": "amount",
          "type": "uint256"
        }
      ],
      "name": "transferFrom",
      "outputs": [
        {
          "internalType": "bool",
          "name": "",
          "type": "bool"
        }
      ],
      "stateMutability": "nonpayable",
      "type": "function"
    },
    {
      "inputs": [
        {
          "internalType": "address",
          "name": "newOwner",
          "type": "address"
        }
      ],
      "name": "transferOwnership",
      "outputs": [],
      "stateMutability": "nonpayable",
      "type": "function"
    },
    {
      "inputs": [
        {
          "internalType": "address",
          "name": "account",
          "type": "address"
        },
        {
          "internalType": "uint256",
          "name": "amount",
          "type": "uint256"
        },
        {
          "internalType": "bytes",
          "name": "userData",
          "type": "bytes"
        },
        {
          "internalType": "bytes",
          "name": "operatorData",
          "type": "bytes"
        }
      ],
      "name": "mint",
      "outputs": [],
      "stateMutability": "nonpayable",
      "type": "function"
    },
    {
      "inputs": [
        {
          "internalType": "address",
          "name": "tokenHolder",
          "type": "address"
        }
      ],
      "name": "lockedBalanceOf",
      "outputs": [
        {
          "internalType": "uint256",
          "name": "",
          "type": "uint256"
        }
      ],
      "stateMutability": "view",
      "type": "function",
      "constant": true
    },
    {
      "inputs": [
        {
          "internalType": "address",
          "name": "tokenHolder",
          "type": "address"
        }
      ],
      "name": "unlockedBalancedOf",
      "outputs": [
        {
          "internalType": "uint256",
          "name": "",
          "type": "uint256"
        }
      ],
      "stateMutability": "view",
      "type": "function",
      "constant": true
    },
    {
      "inputs": [
        {
          "internalType": "address",
          "name": "tokenHolder",
          "type": "address"
        }
      ],
      "name": "getLocks",
      "outputs": [
        {
          "components": [
            {
              "internalType": "uint256",
              "name": "amount",
              "type": "uint256"
            },
            {
              "internalType": "uint256",
              "name": "unlockAt",
              "type": "uint256"
            },
            {
              "internalType": "string",
              "name": "reason",
              "type": "string"
            }
          ],
          "internalType": "struct CoveyToken.TokenLock[]",
          "name": "",
          "type": "tuple[]"
        }
      ],
      "stateMutability": "view",
      "type": "function",
      "constant": true
    },
    {
      "inputs": [],
      "name": "maxSupply",
      "outputs": [
        {
          "internalType": "uint256",
          "name": "",
          "type": "uint256"
        }
      ],
      "stateMutability": "view",
      "type": "function",
      "constant": true
    },
    {
      "inputs": [
        {
          "components": [
            {
              "internalType": "address",
              "name": "recipient",
              "type": "address"
            },
            {
              "internalType": "uint256",
              "name": "amount",
              "type": "uint256"
            },
            {
              "internalType": "uint256",
              "name": "lockForSeconds",
              "type": "uint256"
            },
            {
              "internalType": "string",
              "name": "reason",
              "type": "string"
            }
          ],
          "internalType": "struct CoveyToken._Airdrop[]",
          "name": "airdrops",
          "type": "tuple[]"
        }
      ],
      "name": "airdrop",
      "outputs": [],
      "stateMutability": "nonpayable",
      "type": "function"
    },
    {
      "inputs": [
        {
          "internalType": "address",
          "name": "to",
          "type": "address"
        },
        {
          "internalType": "uint256",
          "name": "amount",
          "type": "uint256"
        },
        {
          "internalType": "uint256",
          "name": "timeToLock",
          "type": "uint256"
        },
        {
          "internalType": "string",
          "name": "reason",
          "type": "string"
        }
      ],
      "name": "sendLocked",
      "outputs": [],
      "stateMutability": "nonpayable",
      "type": "function"
    },
    {
      "inputs": [
        {
          "internalType": "address",
          "name": "_adr",
          "type": "address"
        },
        {
          "internalType": "uint256",
          "name": "lockIndex",
          "type": "uint256"
        }
      ],
      "name": "unlock",
      "outputs": [],
      "stateMutability": "nonpayable",
      "type": "function"
    }
  ],
  "bytecode": "0x608060405269d3c21bcecceda1000000600b553480156200001f57600080fd5b50604051620063923803806200639283398181016040528101906200004591906200117f565b6040518060400160405280600581526020017f436f7665790000000000000000000000000000000000000000000000000000008152506040518060400160405280600381526020017f4356590000000000000000000000000000000000000000000000000000000000815250828260029080519060200190620000ca92919062000dd1565b508160039080519060200190620000e392919062000dd1565b508060049080519060200190620000fc92919062000e62565b5060005b81518110156200019557600160056000848481518110620001265762000125620011e5565b5b602002602001015173ffffffffffffffffffffffffffffffffffffffff1673ffffffffffffffffffffffffffffffffffffffff16815260200190815260200160002060006101000a81548160ff02191690831515021790555080806200018c9062001243565b91505062000100565b50731820a4b7618bde71dce8cdc73aab6c95905fad2473ffffffffffffffffffffffffffffffffffffffff166329965a1d307fac7fbab5f54a3ca8194167523c6753bfeb96a445279294b6125b68cce2177054306040518463ffffffff1660e01b81526004016200020993929190620012bd565b600060405180830381600087803b1580156200022457600080fd5b505af115801562000239573d6000803e3d6000fd5b50505050731820a4b7618bde71dce8cdc73aab6c95905fad2473ffffffffffffffffffffffffffffffffffffffff166329965a1d307faea199e31a596269b42cdafd93407f14436db6e4cad65417994c2eb37381e05a306040518463ffffffff1660e01b8152600401620002b093929190620012bd565b600060405180830381600087803b158015620002cb57600080fd5b505af1158015620002e0573d6000803e3d6000fd5b5050505050505062000307620002fb6200034160201b60201c565b6200034960201b60201c565b62000339338360405180602001604052806000815250604051806020016040528060008152506200040f60201b60201c565b5050620017b6565b600033905090565b6000600960009054906101000a900473ffffffffffffffffffffffffffffffffffffffff16905081600960006101000a81548173ffffffffffffffffffffffffffffffffffffffff021916908373ffffffffffffffffffffffffffffffffffffffff1602179055508173ffffffffffffffffffffffffffffffffffffffff168173ffffffffffffffffffffffffffffffffffffffff167f8be0079c531659141344cd1fd0a4f28419497f9722a3daafe3b4186f6b6457e060405160405180910390a35050565b620004258484848460016200042b60201b60201c565b50505050565b600073ffffffffffffffffffffffffffffffffffffffff168573ffffffffffffffffffffffffffffffffffffffff1614156200049e576040517f08c379a000000000000000000000000000000000000000000000000000000000815260040162000495906200135b565b60405180910390fd5b6000620004b06200034160201b60201c565b9050620004c781600088886200062c60201b60201c565b8460016000828254620004db91906200137d565b92505081905550846000808873ffffffffffffffffffffffffffffffffffffffff1673ffffffffffffffffffffffffffffffffffffffff16815260200190815260200160002060008282546200053291906200137d565b92505081905550620005518160008888888888620009c360201b60201c565b8573ffffffffffffffffffffffffffffffffffffffff168173ffffffffffffffffffffffffffffffffffffffff167f2fe5be0146f74c5bce36c0b80911af6c7d86ff27e89d5cfa61fc681327954e5d878787604051620005b4939291906200147e565b60405180910390a38573ffffffffffffffffffffffffffffffffffffffff16600073ffffffffffffffffffffffffffffffffffffffff167fddf252ad1be2c89b69c2b068fc378daa952ba7f163c4a11628f55a4df523b3ef876040516200061c9190620014c9565b60405180910390a3505050505050565b600080600a60008673ffffffffffffffffffffffffffffffffffffffff1673ffffffffffffffffffffffffffffffffffffffff1681526020019081526020016000208054905011156200092a5760005b600a60008673ffffffffffffffffffffffffffffffffffffffff1673ffffffffffffffffffffffffffffffffffffffff1681526020019081526020016000208054905081101562000928576000600a60008773ffffffffffffffffffffffffffffffffffffffff1673ffffffffffffffffffffffffffffffffffffffff16815260200190815260200160002082815481106200071d576200071c620011e5565b5b90600052602060002090600302016000015414158015620007a25750600a60008673ffffffffffffffffffffffffffffffffffffffff1673ffffffffffffffffffffffffffffffffffffffff16815260200190815260200160002081815481106200078d576200078c620011e5565b5b90600052602060002090600302016001015442105b156200081e57600a60008673ffffffffffffffffffffffffffffffffffffffff1673ffffffffffffffffffffffffffffffffffffffff1681526020019081526020016000208181548110620007fc57620007fb620011e5565b5b906000526020600020906003020160000154826200081b91906200137d565b91505b600a60008673ffffffffffffffffffffffffffffffffffffffff1673ffffffffffffffffffffffffffffffffffffffff1681526020019081526020016000208181548110620008725762000871620011e5565b5b90600052602060002090600302016001015442118015620008f957506000600a60008773ffffffffffffffffffffffffffffffffffffffff1673ffffffffffffffffffffffffffffffffffffffff1681526020019081526020016000208281548110620008e457620008e3620011e5565b5b90600052602060002090600302016000015414155b15620009125762000911858262000bb160201b60201c565b5b80806200091f9062001243565b9150506200067c565b505b6000811115620009a3576000620009478562000d6060201b60201c565b905060008382620009599190620014e6565b9050828111620009a0576040517f08c379a0000000000000000000000000000000000000000000000000000000008152600401620009979062001597565b60405180910390fd5b50505b620009bc8585858562000da860201b62001d301760201c565b5050505050565b6000731820a4b7618bde71dce8cdc73aab6c95905fad2473ffffffffffffffffffffffffffffffffffffffff1663aabbb8ca877fb281fc8c12954d22544db45de3159a39272895b169a852b314f9cc762e44c53b6040518363ffffffff1660e01b815260040162000a36929190620015b9565b602060405180830381865afa15801562000a54573d6000803e3d6000fd5b505050506040513d601f19601f8201168201806040525081019062000a7a9190620015e6565b9050600073ffffffffffffffffffffffffffffffffffffffff168173ffffffffffffffffffffffffffffffffffffffff161462000b2f578073ffffffffffffffffffffffffffffffffffffffff166223de298989898989896040518763ffffffff1660e01b815260040162000af59695949392919062001618565b600060405180830381600087803b15801562000b1057600080fd5b505af115801562000b25573d6000803e3d6000fd5b5050505062000ba7565b811562000ba65762000b628673ffffffffffffffffffffffffffffffffffffffff1662000dae60201b62001d361760201c565b1562000ba5576040517f08c379a000000000000000000000000000000000000000000000000000000000815260040162000b9c906200172f565b60405180910390fd5b5b5b5050505050505050565b6000600a60008473ffffffffffffffffffffffffffffffffffffffff1673ffffffffffffffffffffffffffffffffffffffff168152602001908152602001600020828154811062000c075762000c06620011e5565b5b9060005260206000209060030201600001541462000d5c578173ffffffffffffffffffffffffffffffffffffffff167f6381d9813cabeb57471b5a7e05078e64845ccdb563146a6911d536f24ce960f1600a60008573ffffffffffffffffffffffffffffffffffffffff1673ffffffffffffffffffffffffffffffffffffffff168152602001908152602001600020838154811062000cab5762000caa620011e5565b5b90600052602060002090600302016000015460405162000ccc9190620014c9565b60405180910390a2600a60008373ffffffffffffffffffffffffffffffffffffffff1673ffffffffffffffffffffffffffffffffffffffff168152602001908152602001600020818154811062000d285762000d27620011e5565b5b9060005260206000209060030201600080820160009055600182016000905560028201600062000d59919062000ef1565b50505b5050565b60008060008373ffffffffffffffffffffffffffffffffffffffff1673ffffffffffffffffffffffffffffffffffffffff168152602001908152602001600020549050919050565b50505050565b6000808273ffffffffffffffffffffffffffffffffffffffff163b119050919050565b82805462000ddf9062001780565b90600052602060002090601f01602090048101928262000e03576000855562000e4f565b82601f1062000e1e57805160ff191683800117855562000e4f565b8280016001018555821562000e4f579182015b8281111562000e4e57825182559160200191906001019062000e31565b5b50905062000e5e919062000f37565b5090565b82805482825590600052602060002090810192821562000ede579160200282015b8281111562000edd5782518260006101000a81548173ffffffffffffffffffffffffffffffffffffffff021916908373ffffffffffffffffffffffffffffffffffffffff1602179055509160200191906001019062000e83565b5b50905062000eed919062000f37565b5090565b50805462000eff9062001780565b6000825580601f1062000f13575062000f34565b601f01602090049060005260206000209081019062000f33919062000f37565b5b50565b5b8082111562000f5257600081600090555060010162000f38565b5090565b6000604051905090565b600080fd5b600080fd5b6000819050919050565b62000f7f8162000f6a565b811462000f8b57600080fd5b50565b60008151905062000f9f8162000f74565b92915050565b600080fd5b6000601f19601f8301169050919050565b7f4e487b7100000000000000000000000000000000000000000000000000000000600052604160045260246000fd5b62000ff58262000faa565b810181811067ffffffffffffffff8211171562001017576200101662000fbb565b5b80604052505050565b60006200102c62000f56565b90506200103a828262000fea565b919050565b600067ffffffffffffffff8211156200105d576200105c62000fbb565b5b602082029050602081019050919050565b600080fd5b600073ffffffffffffffffffffffffffffffffffffffff82169050919050565b6000620010a08262001073565b9050919050565b620010b28162001093565b8114620010be57600080fd5b50565b600081519050620010d281620010a7565b92915050565b6000620010ef620010e9846200103f565b62001020565b905080838252602082019050602084028301858111156200111557620011146200106e565b5b835b818110156200114257806200112d8882620010c1565b84526020840193505060208101905062001117565b5050509392505050565b600082601f83011262001164576200116362000fa5565b5b815162001176848260208601620010d8565b91505092915050565b6000806040838503121562001199576200119862000f60565b5b6000620011a98582860162000f8e565b925050602083015167ffffffffffffffff811115620011cd57620011cc62000f65565b5b620011db858286016200114c565b9150509250929050565b7f4e487b7100000000000000000000000000000000000000000000000000000000600052603260045260246000fd5b7f4e487b7100000000000000000000000000000000000000000000000000000000600052601160045260246000fd5b6000620012508262000f6a565b91507fffffffffffffffffffffffffffffffffffffffffffffffffffffffffffffffff82141562001286576200128562001214565b5b600182019050919050565b6200129c8162001093565b82525050565b6000819050919050565b620012b781620012a2565b82525050565b6000606082019050620012d4600083018662001291565b620012e36020830185620012ac565b620012f2604083018462001291565b949350505050565b600082825260208201905092915050565b7f4552433737373a206d696e7420746f20746865207a65726f2061646472657373600082015250565b600062001343602083620012fa565b915062001350826200130b565b602082019050919050565b60006020820190508181036000830152620013768162001334565b9050919050565b60006200138a8262000f6a565b9150620013978362000f6a565b9250827fffffffffffffffffffffffffffffffffffffffffffffffffffffffffffffffff03821115620013cf57620013ce62001214565b5b828201905092915050565b620013e58162000f6a565b82525050565b600081519050919050565b600082825260208201905092915050565b60005b83811015620014275780820151818401526020810190506200140a565b8381111562001437576000848401525b50505050565b60006200144a82620013eb565b620014568185620013f6565b93506200146881856020860162001407565b620014738162000faa565b840191505092915050565b6000606082019050620014956000830186620013da565b8181036020830152620014a981856200143d565b90508181036040830152620014bf81846200143d565b9050949350505050565b6000602082019050620014e06000830184620013da565b92915050565b6000620014f38262000f6a565b9150620015008362000f6a565b92508282101562001516576200151562001214565b5b828203905092915050565b7f416d6f756e74206265696e67207472616e73666572726564206578636565647360008201527f20617661696c61626c6520756e6c6f636b65642062616c616e63650000000000602082015250565b60006200157f603b83620012fa565b91506200158c8262001521565b604082019050919050565b60006020820190508181036000830152620015b28162001570565b9050919050565b6000604082019050620015d0600083018562001291565b620015df6020830184620012ac565b9392505050565b600060208284031215620015ff57620015fe62000f60565b5b60006200160f84828501620010c1565b91505092915050565b600060c0820190506200162f600083018962001291565b6200163e602083018862001291565b6200164d604083018762001291565b6200165c6060830186620013da565b81810360808301526200167081856200143d565b905081810360a08301526200168681846200143d565b9050979650505050505050565b7f4552433737373a20746f6b656e20726563697069656e7420636f6e747261637460008201527f20686173206e6f20696d706c656d656e74657220666f7220455243373737546f60208201527f6b656e73526563697069656e7400000000000000000000000000000000000000604082015250565b600062001717604d83620012fa565b9150620017248262001693565b606082019050919050565b600060208201905081810360008301526200174a8162001708565b9050919050565b7f4e487b7100000000000000000000000000000000000000000000000000000000600052602260045260246000fd5b600060028204905060018216806200179957607f821691505b60208210811415620017b057620017af62001751565b5b50919050565b614bcc80620017c66000396000f3fe608060405234801561001057600080fd5b50600436106101cf5760003560e01c80638da5cb5b11610104578063d5abeb01116100a2578063f2fde38b11610071578063f2fde38b14610542578063fad8b32a1461055e578063fc673c4f1461057a578063fe9d930314610596576101cf565b8063d5abeb01146104a8578063d95b6371146104c6578063dcdc7dd0146104f6578063dd62ed3e14610512576101cf565b806396c90545116100de57806396c90545146104105780639bd9bbc61461042c578063a9059cbb14610448578063bcfe39d914610478576101cf565b80638da5cb5b146103b8578063959b8c3f146103d657806395d89b41146103f2576101cf565b80635935573611610171578063715018a61161014b578063715018a614610346578063719f3089146103505780637eee288d1461038057806381c132831461039c576101cf565b806359355736146102ca57806362ad1b83146102fa57806370a0823114610316576101cf565b806318160ddd116101ad57806318160ddd1461024057806323b872dd1461025e578063313ce5671461028e578063556f0dc7146102ac576101cf565b806306e48538146101d457806306fdde03146101f2578063095ea7b314610210575b600080fd5b6101dc6105b2565b6040516101e99190613204565b60405180910390f35b6101fa610640565b60405161020791906132bf565b60405180910390f35b61022a60048036038101906102259190613357565b6106d2565b60405161023791906133b2565b60405180910390f35b6102486106f5565b60405161025591906133dc565b60405180910390f35b610278600480360381019061027391906133f7565b6106ff565b60405161028591906133b2565b60405180910390f35b610296610889565b6040516102a39190613466565b60405180910390f35b6102b4610892565b6040516102c191906133dc565b60405180910390f35b6102e460048036038101906102df9190613481565b61089b565b6040516102f191906133dc565b60405180910390f35b610314600480360381019061030f91906135e3565b610aa2565b005b610330600480360381019061032b9190613481565b610b08565b60405161033d91906133dc565b60405180910390f35b61034e610b50565b005b61036a60048036038101906103659190613481565b610bd8565b6040516103779190613801565b60405180910390f35b61039a60048036038101906103959190613357565b610d1c565b005b6103b660048036038101906103b19190613a48565b610da6565b005b6103c0610f7e565b6040516103cd9190613aa0565b60405180910390f35b6103f060048036038101906103eb9190613481565b610fa8565b005b6103fa611209565b60405161040791906132bf565b60405180910390f35b61042a60048036038101906104259190613abb565b61129b565b005b61044660048036038101906104419190613b3e565b6114c6565b005b610462600480360381019061045d9190613357565b6114f0565b60405161046f91906133b2565b60405180910390f35b610492600480360381019061048d9190613481565b6115fe565b60405161049f91906133dc565b60405180910390f35b6104b0611628565b6040516104bd91906133dc565b60405180910390f35b6104e060048036038101906104db9190613bad565b611632565b6040516104ed91906133b2565b60405180910390f35b610510600480360381019061050b9190613bed565b6117e3565b005b61052c60048036038101906105279190613bad565b6118c8565b60405161053991906133dc565b60405180910390f35b61055c60048036038101906105579190613481565b61194f565b005b61057860048036038101906105739190613481565b611a47565b005b610594600480360381019061058f9190613bed565b611ca8565b005b6105b060048036038101906105ab9190613c8c565b611d0a565b005b6060600480548060200260200160405190810160405280929190818152602001828054801561063657602002820191906000526020600020905b8160009054906101000a900473ffffffffffffffffffffffffffffffffffffffff1673ffffffffffffffffffffffffffffffffffffffff16815260200190600101908083116105ec575b5050505050905090565b60606002805461064f90613d17565b80601f016020809104026020016040519081016040528092919081815260200182805461067b90613d17565b80156106c85780601f1061069d576101008083540402835291602001916106c8565b820191906000526020600020905b8154815290600101906020018083116106ab57829003601f168201915b5050505050905090565b6000806106dd611d59565b90506106ea818585611d61565b600191505092915050565b6000600154905090565b60008073ffffffffffffffffffffffffffffffffffffffff168373ffffffffffffffffffffffffffffffffffffffff161415610770576040517f08c379a000000000000000000000000000000000000000000000000000000000815260040161076790613dbb565b60405180910390fd5b600073ffffffffffffffffffffffffffffffffffffffff168473ffffffffffffffffffffffffffffffffffffffff1614156107e0576040517f08c379a00000000000000000000000000000000000000000000000000000000081526004016107d790613e4d565b60405180910390fd5b60006107ea611d59565b9050610818818686866040518060200160405280600081525060405180602001604052806000815250611f2c565b610823858285612093565b61084f81868686604051806020016040528060008152506040518060200160405280600081525061211f565b61087d8186868660405180602001604052806000815250604051806020016040528060008152506000612339565b60019150509392505050565b60006012905090565b60006001905090565b600080600090506000600a60008573ffffffffffffffffffffffffffffffffffffffff1673ffffffffffffffffffffffffffffffffffffffff168152602001908152602001600020805490501115610a995760005b600a60008573ffffffffffffffffffffffffffffffffffffffff1673ffffffffffffffffffffffffffffffffffffffff16815260200190815260200160002080549050811015610a97576000600a60008673ffffffffffffffffffffffffffffffffffffffff1673ffffffffffffffffffffffffffffffffffffffff168152602001908152602001600020828154811061098d5761098c613e6d565b5b90600052602060002090600302016000015414158015610a0e5750600a60008573ffffffffffffffffffffffffffffffffffffffff1673ffffffffffffffffffffffffffffffffffffffff16815260200190815260200160002081815481106109f9576109f8613e6d565b5b90600052602060002090600302016001015442105b15610a8457600a60008573ffffffffffffffffffffffffffffffffffffffff1673ffffffffffffffffffffffffffffffffffffffff1681526020019081526020016000208181548110610a6457610a63613e6d565b5b90600052602060002090600302016000015482610a819190613ecb565b91505b8080610a8f90613f21565b9150506108f0565b505b80915050919050565b610ab3610aad611d59565b86611632565b610af2576040517f08c379a0000000000000000000000000000000000000000000000000000000008152600401610ae990613fdc565b60405180910390fd5b610b018585858585600161250b565b5050505050565b60008060008373ffffffffffffffffffffffffffffffffffffffff1673ffffffffffffffffffffffffffffffffffffffff168152602001908152602001600020549050919050565b610b58611d59565b73ffffffffffffffffffffffffffffffffffffffff16610b76610f7e565b73ffffffffffffffffffffffffffffffffffffffff1614610bcc576040517f08c379a0000000000000000000000000000000000000000000000000000000008152600401610bc390614048565b60405180910390fd5b610bd6600061262b565b565b6060600a60008373ffffffffffffffffffffffffffffffffffffffff1673ffffffffffffffffffffffffffffffffffffffff168152602001908152602001600020805480602002602001604051908101604052809291908181526020016000905b82821015610d1157838290600052602060002090600302016040518060600160405290816000820154815260200160018201548152602001600282018054610c8090613d17565b80601f0160208091040260200160405190810160405280929190818152602001828054610cac90613d17565b8015610cf95780601f10610cce57610100808354040283529160200191610cf9565b820191906000526020600020905b815481529060010190602001808311610cdc57829003601f168201915b50505050508152505081526020019060010190610c39565b505050509050919050565b610d24611d59565b73ffffffffffffffffffffffffffffffffffffffff16610d42610f7e565b73ffffffffffffffffffffffffffffffffffffffff1614610d98576040517f08c379a0000000000000000000000000000000000000000000000000000000008152600401610d8f90614048565b60405180910390fd5b610da282826126f1565b5050565b60005b8151811015610f7a576000828281518110610dc757610dc6613e6d565b5b60200260200101516020015190506000838381518110610dea57610de9613e6d565b5b60200260200101516040015114610e9b57610e96838381518110610e1157610e10613e6d565b5b602002602001015160000151848481518110610e3057610e2f613e6d565b5b602002602001015160200151858581518110610e4f57610e4e613e6d565b5b6020026020010151604001516040518060400160405280601281526020017f4c6f636b6564204356592061697264726f70000000000000000000000000000081525061129b565b610f66565b610ef9838381518110610eb157610eb0613e6d565b5b602002602001015160000151826040518060400160405280600b81526020017f4356592041697264726f700000000000000000000000000000000000000000008152506114c6565b828281518110610f0c57610f0b613e6d565b5b60200260200101516000015173ffffffffffffffffffffffffffffffffffffffff167f8c32c568416fcf97be35ce5b27844cfddcd63a67a1a602c3595ba5dac38f303a82604051610f5d91906133dc565b60405180910390a25b508080610f7290613f21565b915050610da9565b5050565b6000600960009054906101000a900473ffffffffffffffffffffffffffffffffffffffff16905090565b8073ffffffffffffffffffffffffffffffffffffffff16610fc7611d59565b73ffffffffffffffffffffffffffffffffffffffff16141561101e576040517f08c379a0000000000000000000000000000000000000000000000000000000008152600401611015906140da565b60405180910390fd5b600560008273ffffffffffffffffffffffffffffffffffffffff1673ffffffffffffffffffffffffffffffffffffffff16815260200190815260200160002060009054906101000a900460ff1615611108576007600061107c611d59565b73ffffffffffffffffffffffffffffffffffffffff1673ffffffffffffffffffffffffffffffffffffffff16815260200190815260200160002060008273ffffffffffffffffffffffffffffffffffffffff1673ffffffffffffffffffffffffffffffffffffffff16815260200190815260200160002060006101000a81549060ff02191690556111a5565b600160066000611116611d59565b73ffffffffffffffffffffffffffffffffffffffff1673ffffffffffffffffffffffffffffffffffffffff16815260200190815260200160002060008373ffffffffffffffffffffffffffffffffffffffff1673ffffffffffffffffffffffffffffffffffffffff16815260200190815260200160002060006101000a81548160ff0219169083151502179055505b6111ad611d59565b73ffffffffffffffffffffffffffffffffffffffff168173ffffffffffffffffffffffffffffffffffffffff167ff4caeb2d6ca8932a215a353d0703c326ec2d81fc68170f320eb2ab49e9df61f960405160405180910390a350565b60606003805461121890613d17565b80601f016020809104026020016040519081016040528092919081815260200182805461124490613d17565b80156112915780601f1061126657610100808354040283529160200191611291565b820191906000526020600020905b81548152906001019060200180831161127457829003601f168201915b5050505050905090565b600082116112de576040517f08c379a00000000000000000000000000000000000000000000000000000000081526004016112d590614146565b60405180910390fd5b600073ffffffffffffffffffffffffffffffffffffffff168473ffffffffffffffffffffffffffffffffffffffff16141561134e576040517f08c379a0000000000000000000000000000000000000000000000000000000008152600401611345906141b2565b60405180910390fd5b6000824261135c9190613ecb565b9050600060405180606001604052808681526020018381526020018481525090506113bd86866040518060400160405280600d81526020017f4c6f636b656420546f6b656e73000000000000000000000000000000000000008152506114c6565b600a60008773ffffffffffffffffffffffffffffffffffffffff1673ffffffffffffffffffffffffffffffffffffffff16815260200190815260200160002081908060018154018082558091505060019003906000526020600020906003020160009091909190915060008201518160000155602082015181600101556040820151816002019080519060200190611456929190613031565b50505082604051611467919061420e565b6040518091039020828773ffffffffffffffffffffffffffffffffffffffff167fe9651924f077c2297fe5511b78d8c3ab5c25068ddc2f1a7aed0a6e22c052d01a886040516114b691906133dc565b60405180910390a4505050505050565b6114eb6114d1611d59565b84848460405180602001604052806000815250600161250b565b505050565b60008073ffffffffffffffffffffffffffffffffffffffff168373ffffffffffffffffffffffffffffffffffffffff161415611561576040517f08c379a000000000000000000000000000000000000000000000000000000000815260040161155890613dbb565b60405180910390fd5b600061156b611d59565b9050611599818286866040518060200160405280600081525060405180602001604052806000815250611f2c565b6115c581828686604051806020016040528060008152506040518060200160405280600081525061211f565b6115f38182868660405180602001604052806000815250604051806020016040528060008152506000612339565b600191505092915050565b60008061160a8361089b565b90508061161684610b08565b6116209190614225565b915050919050565b6000600b54905090565b60008173ffffffffffffffffffffffffffffffffffffffff168373ffffffffffffffffffffffffffffffffffffffff16148061174a5750600560008473ffffffffffffffffffffffffffffffffffffffff1673ffffffffffffffffffffffffffffffffffffffff16815260200190815260200160002060009054906101000a900460ff1680156117495750600760008373ffffffffffffffffffffffffffffffffffffffff1673ffffffffffffffffffffffffffffffffffffffff16815260200190815260200160002060008473ffffffffffffffffffffffffffffffffffffffff1673ffffffffffffffffffffffffffffffffffffffff16815260200190815260200160002060009054906101000a900460ff16155b5b806117db5750600660008373ffffffffffffffffffffffffffffffffffffffff1673ffffffffffffffffffffffffffffffffffffffff16815260200190815260200160002060008473ffffffffffffffffffffffffffffffffffffffff1673ffffffffffffffffffffffffffffffffffffffff16815260200190815260200160002060009054906101000a900460ff165b905092915050565b6117eb611d59565b73ffffffffffffffffffffffffffffffffffffffff16611809610f7e565b73ffffffffffffffffffffffffffffffffffffffff161461185f576040517f08c379a000000000000000000000000000000000000000000000000000000000815260040161185690614048565b60405180910390fd5b600b548361186b6106f5565b6118759190613ecb565b11156118b6576040517f08c379a00000000000000000000000000000000000000000000000000000000081526004016118ad906142cb565b60405180910390fd5b6118c284848484612892565b50505050565b6000600860008473ffffffffffffffffffffffffffffffffffffffff1673ffffffffffffffffffffffffffffffffffffffff16815260200190815260200160002060008373ffffffffffffffffffffffffffffffffffffffff1673ffffffffffffffffffffffffffffffffffffffff16815260200190815260200160002054905092915050565b611957611d59565b73ffffffffffffffffffffffffffffffffffffffff16611975610f7e565b73ffffffffffffffffffffffffffffffffffffffff16146119cb576040517f08c379a00000000000000000000000000000000000000000000000000000000081526004016119c290614048565b60405180910390fd5b600073ffffffffffffffffffffffffffffffffffffffff168173ffffffffffffffffffffffffffffffffffffffff161415611a3b576040517f08c379a0000000000000000000000000000000000000000000000000000000008152600401611a329061435d565b60405180910390fd5b611a448161262b565b50565b611a4f611d59565b73ffffffffffffffffffffffffffffffffffffffff168173ffffffffffffffffffffffffffffffffffffffff161415611abd576040517f08c379a0000000000000000000000000000000000000000000000000000000008152600401611ab4906143ef565b60405180910390fd5b600560008273ffffffffffffffffffffffffffffffffffffffff1673ffffffffffffffffffffffffffffffffffffffff16815260200190815260200160002060009054906101000a900460ff1615611bb057600160076000611b1d611d59565b73ffffffffffffffffffffffffffffffffffffffff1673ffffffffffffffffffffffffffffffffffffffff16815260200190815260200160002060008373ffffffffffffffffffffffffffffffffffffffff1673ffffffffffffffffffffffffffffffffffffffff16815260200190815260200160002060006101000a81548160ff021916908315150217905550611c44565b60066000611bbc611d59565b73ffffffffffffffffffffffffffffffffffffffff1673ffffffffffffffffffffffffffffffffffffffff16815260200190815260200160002060008273ffffffffffffffffffffffffffffffffffffffff1673ffffffffffffffffffffffffffffffffffffffff16815260200190815260200160002060006101000a81549060ff02191690555b611c4c611d59565b73ffffffffffffffffffffffffffffffffffffffff168173ffffffffffffffffffffffffffffffffffffffff167f50546e66e5f44d728365dc3908c63bc5cfeeab470722c1677e3073a6ac294aa160405160405180910390a350565b611cb9611cb3611d59565b85611632565b611cf8576040517f08c379a0000000000000000000000000000000000000000000000000000000008152600401611cef90613fdc565b60405180910390fd5b611d04848484846128a6565b50505050565b611d2c611d15611d59565b8383604051806020016040528060008152506128a6565b5050565b50505050565b6000808273ffffffffffffffffffffffffffffffffffffffff163b119050919050565b600033905090565b600073ffffffffffffffffffffffffffffffffffffffff168373ffffffffffffffffffffffffffffffffffffffff161415611dd1576040517f08c379a0000000000000000000000000000000000000000000000000000000008152600401611dc890614481565b60405180910390fd5b600073ffffffffffffffffffffffffffffffffffffffff168273ffffffffffffffffffffffffffffffffffffffff161415611e41576040517f08c379a0000000000000000000000000000000000000000000000000000000008152600401611e3890614513565b60405180910390fd5b80600860008573ffffffffffffffffffffffffffffffffffffffff1673ffffffffffffffffffffffffffffffffffffffff16815260200190815260200160002060008473ffffffffffffffffffffffffffffffffffffffff1673ffffffffffffffffffffffffffffffffffffffff168152602001908152602001600020819055508173ffffffffffffffffffffffffffffffffffffffff168373ffffffffffffffffffffffffffffffffffffffff167f8c5be1e5ebec7d5bd14f71427d1e84f3dd0314c0f7b2291e5b200ac8c7c3b92583604051611f1f91906133dc565b60405180910390a3505050565b6000731820a4b7618bde71dce8cdc73aab6c95905fad2473ffffffffffffffffffffffffffffffffffffffff1663aabbb8ca877f29ddb589b1fb5fc7cf394961c1adf5f8c6454761adf795e67fe149f658abe8956040518363ffffffff1660e01b8152600401611f9d92919061454c565b602060405180830381865afa158015611fba573d6000803e3d6000fd5b505050506040513d601f19601f82011682018060405250810190611fde919061458a565b9050600073ffffffffffffffffffffffffffffffffffffffff168173ffffffffffffffffffffffffffffffffffffffff161461208a578073ffffffffffffffffffffffffffffffffffffffff166375ab97828888888888886040518763ffffffff1660e01b81526004016120579695949392919061460c565b600060405180830381600087803b15801561207157600080fd5b505af1158015612085573d6000803e3d6000fd5b505050505b50505050505050565b600061209f84846118c8565b90507fffffffffffffffffffffffffffffffffffffffffffffffffffffffffffffffff8114612119578181101561210b576040517f08c379a0000000000000000000000000000000000000000000000000000000008152600401612102906146c7565b60405180910390fd5b6121188484848403611d61565b5b50505050565b61212b86868686612af9565b60008060008773ffffffffffffffffffffffffffffffffffffffff1673ffffffffffffffffffffffffffffffffffffffff168152602001908152602001600020549050838110156121b1576040517f08c379a00000000000000000000000000000000000000000000000000000000081526004016121a890614759565b60405180910390fd5b8381036000808873ffffffffffffffffffffffffffffffffffffffff1673ffffffffffffffffffffffffffffffffffffffff16815260200190815260200160002081905550836000808773ffffffffffffffffffffffffffffffffffffffff1673ffffffffffffffffffffffffffffffffffffffff16815260200190815260200160002060008282546122449190613ecb565b925050819055508473ffffffffffffffffffffffffffffffffffffffff168673ffffffffffffffffffffffffffffffffffffffff168873ffffffffffffffffffffffffffffffffffffffff167f06b541ddaa720db2b10a4d0cdac39b8d360425fc073085fac19bc826146779878787876040516122c393929190614779565b60405180910390a48473ffffffffffffffffffffffffffffffffffffffff168673ffffffffffffffffffffffffffffffffffffffff167fddf252ad1be2c89b69c2b068fc378daa952ba7f163c4a11628f55a4df523b3ef8660405161232891906133dc565b60405180910390a350505050505050565b6000731820a4b7618bde71dce8cdc73aab6c95905fad2473ffffffffffffffffffffffffffffffffffffffff1663aabbb8ca877fb281fc8c12954d22544db45de3159a39272895b169a852b314f9cc762e44c53b6040518363ffffffff1660e01b81526004016123aa92919061454c565b602060405180830381865afa1580156123c7573d6000803e3d6000fd5b505050506040513d601f19601f820116820180604052508101906123eb919061458a565b9050600073ffffffffffffffffffffffffffffffffffffffff168173ffffffffffffffffffffffffffffffffffffffff161461249a578073ffffffffffffffffffffffffffffffffffffffff166223de298989898989896040518763ffffffff1660e01b81526004016124639695949392919061460c565b600060405180830381600087803b15801561247d57600080fd5b505af1158015612491573d6000803e3d6000fd5b50505050612501565b8115612500576124bf8673ffffffffffffffffffffffffffffffffffffffff16611d36565b156124ff576040517f08c379a00000000000000000000000000000000000000000000000000000000081526004016124f690614856565b60405180910390fd5b5b5b5050505050505050565b600073ffffffffffffffffffffffffffffffffffffffff168673ffffffffffffffffffffffffffffffffffffffff16141561257b576040517f08c379a0000000000000000000000000000000000000000000000000000000008152600401612572906148e8565b60405180910390fd5b600073ffffffffffffffffffffffffffffffffffffffff168573ffffffffffffffffffffffffffffffffffffffff1614156125eb576040517f08c379a00000000000000000000000000000000000000000000000000000000081526004016125e290614954565b60405180910390fd5b60006125f5611d59565b9050612605818888888888611f2c565b61261381888888888861211f565b61262281888888888888612339565b50505050505050565b6000600960009054906101000a900473ffffffffffffffffffffffffffffffffffffffff16905081600960006101000a81548173ffffffffffffffffffffffffffffffffffffffff021916908373ffffffffffffffffffffffffffffffffffffffff1602179055508173ffffffffffffffffffffffffffffffffffffffff168173ffffffffffffffffffffffffffffffffffffffff167f8be0079c531659141344cd1fd0a4f28419497f9722a3daafe3b4186f6b6457e060405160405180910390a35050565b6000600a60008473ffffffffffffffffffffffffffffffffffffffff1673ffffffffffffffffffffffffffffffffffffffff168152602001908152602001600020828154811061274457612743613e6d565b5b9060005260206000209060030201600001541461288e578173ffffffffffffffffffffffffffffffffffffffff167f6381d9813cabeb57471b5a7e05078e64845ccdb563146a6911d536f24ce960f1600a60008573ffffffffffffffffffffffffffffffffffffffff1673ffffffffffffffffffffffffffffffffffffffff16815260200190815260200160002083815481106127e4576127e3613e6d565b5b90600052602060002090600302016000015460405161280391906133dc565b60405180910390a2600a60008373ffffffffffffffffffffffffffffffffffffffff1673ffffffffffffffffffffffffffffffffffffffff168152602001908152602001600020818154811061285c5761285b613e6d565b5b9060005260206000209060030201600080820160009055600182016000905560028201600061288b91906130b7565b50505b5050565b6128a0848484846001612e53565b50505050565b600073ffffffffffffffffffffffffffffffffffffffff168473ffffffffffffffffffffffffffffffffffffffff161415612916576040517f08c379a000000000000000000000000000000000000000000000000000000000815260040161290d906149e6565b60405180910390fd5b6000612920611d59565b905061293181866000878787611f2c565b61293e8186600087612af9565b60008060008773ffffffffffffffffffffffffffffffffffffffff1673ffffffffffffffffffffffffffffffffffffffff168152602001908152602001600020549050848110156129c4576040517f08c379a00000000000000000000000000000000000000000000000000000000081526004016129bb90614a78565b60405180910390fd5b8481036000808873ffffffffffffffffffffffffffffffffffffffff1673ffffffffffffffffffffffffffffffffffffffff168152602001908152602001600020819055508460016000828254612a1b9190614225565b925050819055508573ffffffffffffffffffffffffffffffffffffffff168273ffffffffffffffffffffffffffffffffffffffff167fa78a9be3a7b862d26933ad85fb11d80ef66b8f972d7cbba06621d583943a4098878787604051612a8393929190614779565b60405180910390a3600073ffffffffffffffffffffffffffffffffffffffff168673ffffffffffffffffffffffffffffffffffffffff167fddf252ad1be2c89b69c2b068fc378daa952ba7f163c4a11628f55a4df523b3ef87604051612ae991906133dc565b60405180910390a3505050505050565b600080600a60008673ffffffffffffffffffffffffffffffffffffffff1673ffffffffffffffffffffffffffffffffffffffff168152602001908152602001600020805490501115612dd55760005b600a60008673ffffffffffffffffffffffffffffffffffffffff1673ffffffffffffffffffffffffffffffffffffffff16815260200190815260200160002080549050811015612dd3576000600a60008773ffffffffffffffffffffffffffffffffffffffff1673ffffffffffffffffffffffffffffffffffffffff1681526020019081526020016000208281548110612be557612be4613e6d565b5b90600052602060002090600302016000015414158015612c665750600a60008673ffffffffffffffffffffffffffffffffffffffff1673ffffffffffffffffffffffffffffffffffffffff1681526020019081526020016000208181548110612c5157612c50613e6d565b5b90600052602060002090600302016001015442105b15612cdc57600a60008673ffffffffffffffffffffffffffffffffffffffff1673ffffffffffffffffffffffffffffffffffffffff1681526020019081526020016000208181548110612cbc57612cbb613e6d565b5b90600052602060002090600302016000015482612cd99190613ecb565b91505b600a60008673ffffffffffffffffffffffffffffffffffffffff1673ffffffffffffffffffffffffffffffffffffffff1681526020019081526020016000208181548110612d2d57612d2c613e6d565b5b90600052602060002090600302016001015442118015612db057506000600a60008773ffffffffffffffffffffffffffffffffffffffff1673ffffffffffffffffffffffffffffffffffffffff1681526020019081526020016000208281548110612d9b57612d9a613e6d565b5b90600052602060002090600302016000015414155b15612dc057612dbf85826126f1565b5b8080612dcb90613f21565b915050612b48565b505b6000811115612e40576000612de985610b08565b905060008382612df99190614225565b9050828111612e3d576040517f08c379a0000000000000000000000000000000000000000000000000000000008152600401612e3490614b0a565b60405180910390fd5b50505b612e4c85858585611d30565b5050505050565b600073ffffffffffffffffffffffffffffffffffffffff168573ffffffffffffffffffffffffffffffffffffffff161415612ec3576040517f08c379a0000000000000000000000000000000000000000000000000000000008152600401612eba90614b76565b60405180910390fd5b6000612ecd611d59565b9050612edc8160008888612af9565b8460016000828254612eee9190613ecb565b92505081905550846000808873ffffffffffffffffffffffffffffffffffffffff1673ffffffffffffffffffffffffffffffffffffffff1681526020019081526020016000206000828254612f439190613ecb565b92505081905550612f5a8160008888888888612339565b8573ffffffffffffffffffffffffffffffffffffffff168173ffffffffffffffffffffffffffffffffffffffff167f2fe5be0146f74c5bce36c0b80911af6c7d86ff27e89d5cfa61fc681327954e5d878787604051612fbb93929190614779565b60405180910390a38573ffffffffffffffffffffffffffffffffffffffff16600073ffffffffffffffffffffffffffffffffffffffff167fddf252ad1be2c89b69c2b068fc378daa952ba7f163c4a11628f55a4df523b3ef8760405161302191906133dc565b60405180910390a3505050505050565b82805461303d90613d17565b90600052602060002090601f01602090048101928261305f57600085556130a6565b82601f1061307857805160ff19168380011785556130a6565b828001600101855582156130a6579182015b828111156130a557825182559160200191906001019061308a565b5b5090506130b391906130f7565b5090565b5080546130c390613d17565b6000825580601f106130d557506130f4565b601f0160209004906000526020600020908101906130f391906130f7565b5b50565b5b808211156131105760008160009055506001016130f8565b5090565b600081519050919050565b600082825260208201905092915050565b6000819050602082019050919050565b600073ffffffffffffffffffffffffffffffffffffffff82169050919050565b600061316b82613140565b9050919050565b61317b81613160565b82525050565b600061318d8383613172565b60208301905092915050565b6000602082019050919050565b60006131b182613114565b6131bb818561311f565b93506131c683613130565b8060005b838110156131f75781516131de8882613181565b97506131e983613199565b9250506001810190506131ca565b5085935050505092915050565b6000602082019050818103600083015261321e81846131a6565b905092915050565b600081519050919050565b600082825260208201905092915050565b60005b83811015613260578082015181840152602081019050613245565b8381111561326f576000848401525b50505050565b6000601f19601f8301169050919050565b600061329182613226565b61329b8185613231565b93506132ab818560208601613242565b6132b481613275565b840191505092915050565b600060208201905081810360008301526132d98184613286565b905092915050565b6000604051905090565b600080fd5b600080fd5b6132fe81613160565b811461330957600080fd5b50565b60008135905061331b816132f5565b92915050565b6000819050919050565b61333481613321565b811461333f57600080fd5b50565b6000813590506133518161332b565b92915050565b6000806040838503121561336e5761336d6132eb565b5b600061337c8582860161330c565b925050602061338d85828601613342565b9150509250929050565b60008115159050919050565b6133ac81613397565b82525050565b60006020820190506133c760008301846133a3565b92915050565b6133d681613321565b82525050565b60006020820190506133f160008301846133cd565b92915050565b6000806000606084860312156134105761340f6132eb565b5b600061341e8682870161330c565b935050602061342f8682870161330c565b925050604061344086828701613342565b9150509250925092565b600060ff82169050919050565b6134608161344a565b82525050565b600060208201905061347b6000830184613457565b92915050565b600060208284031215613497576134966132eb565b5b60006134a58482850161330c565b91505092915050565b600080fd5b600080fd5b7f4e487b7100000000000000000000000000000000000000000000000000000000600052604160045260246000fd5b6134f082613275565b810181811067ffffffffffffffff8211171561350f5761350e6134b8565b5b80604052505050565b60006135226132e1565b905061352e82826134e7565b919050565b600067ffffffffffffffff82111561354e5761354d6134b8565b5b61355782613275565b9050602081019050919050565b82818337600083830152505050565b600061358661358184613533565b613518565b9050828152602081018484840111156135a2576135a16134b3565b5b6135ad848285613564565b509392505050565b600082601f8301126135ca576135c96134ae565b5b81356135da848260208601613573565b91505092915050565b600080600080600060a086880312156135ff576135fe6132eb565b5b600061360d8882890161330c565b955050602061361e8882890161330c565b945050604061362f88828901613342565b935050606086013567ffffffffffffffff8111156136505761364f6132f0565b5b61365c888289016135b5565b925050608086013567ffffffffffffffff81111561367d5761367c6132f0565b5b613689888289016135b5565b9150509295509295909350565b600081519050919050565b600082825260208201905092915050565b6000819050602082019050919050565b6136cb81613321565b82525050565b600082825260208201905092915050565b60006136ed82613226565b6136f781856136d1565b9350613707818560208601613242565b61371081613275565b840191505092915050565b600060608301600083015161373360008601826136c2565b50602083015161374660208601826136c2565b506040830151848203604086015261375e82826136e2565b9150508091505092915050565b6000613777838361371b565b905092915050565b6000602082019050919050565b600061379782613696565b6137a181856136a1565b9350836020820285016137b3856136b2565b8060005b858110156137ef57848403895281516137d0858261376b565b94506137db8361377f565b925060208a019950506001810190506137b7565b50829750879550505050505092915050565b6000602082019050818103600083015261381b818461378c565b905092915050565b600067ffffffffffffffff82111561383e5761383d6134b8565b5b602082029050602081019050919050565b600080fd5b600080fd5b600080fd5b600067ffffffffffffffff821115613879576138786134b8565b5b61388282613275565b9050602081019050919050565b60006138a261389d8461385e565b613518565b9050828152602081018484840111156138be576138bd6134b3565b5b6138c9848285613564565b509392505050565b600082601f8301126138e6576138e56134ae565b5b81356138f684826020860161388f565b91505092915050565b60006080828403121561391557613914613854565b5b61391f6080613518565b9050600061392f8482850161330c565b600083015250602061394384828501613342565b602083015250604061395784828501613342565b604083015250606082013567ffffffffffffffff81111561397b5761397a613859565b5b613987848285016138d1565b60608301525092915050565b60006139a66139a184613823565b613518565b905080838252602082019050602084028301858111156139c9576139c861384f565b5b835b81811015613a1057803567ffffffffffffffff8111156139ee576139ed6134ae565b5b8086016139fb89826138ff565b855260208501945050506020810190506139cb565b5050509392505050565b600082601f830112613a2f57613a2e6134ae565b5b8135613a3f848260208601613993565b91505092915050565b600060208284031215613a5e57613a5d6132eb565b5b600082013567ffffffffffffffff811115613a7c57613a7b6132f0565b5b613a8884828501613a1a565b91505092915050565b613a9a81613160565b82525050565b6000602082019050613ab56000830184613a91565b92915050565b60008060008060808587031215613ad557613ad46132eb565b5b6000613ae38782880161330c565b9450506020613af487828801613342565b9350506040613b0587828801613342565b925050606085013567ffffffffffffffff811115613b2657613b256132f0565b5b613b32878288016138d1565b91505092959194509250565b600080600060608486031215613b5757613b566132eb565b5b6000613b658682870161330c565b9350506020613b7686828701613342565b925050604084013567ffffffffffffffff811115613b9757613b966132f0565b5b613ba3868287016135b5565b9150509250925092565b60008060408385031215613bc457613bc36132eb565b5b6000613bd28582860161330c565b9250506020613be38582860161330c565b9150509250929050565b60008060008060808587031215613c0757613c066132eb565b5b6000613c158782880161330c565b9450506020613c2687828801613342565b935050604085013567ffffffffffffffff811115613c4757613c466132f0565b5b613c53878288016135b5565b925050606085013567ffffffffffffffff811115613c7457613c736132f0565b5b613c80878288016135b5565b91505092959194509250565b60008060408385031215613ca357613ca26132eb565b5b6000613cb185828601613342565b925050602083013567ffffffffffffffff811115613cd257613cd16132f0565b5b613cde858286016135b5565b9150509250929050565b7f4e487b7100000000000000000000000000000000000000000000000000000000600052602260045260246000fd5b60006002820490506001821680613d2f57607f821691505b60208210811415613d4357613d42613ce8565b5b50919050565b7f4552433737373a207472616e7366657220746f20746865207a65726f2061646460008201527f7265737300000000000000000000000000000000000000000000000000000000602082015250565b6000613da5602483613231565b9150613db082613d49565b604082019050919050565b60006020820190508181036000830152613dd481613d98565b9050919050565b7f4552433737373a207472616e736665722066726f6d20746865207a65726f206160008201527f6464726573730000000000000000000000000000000000000000000000000000602082015250565b6000613e37602683613231565b9150613e4282613ddb565b604082019050919050565b60006020820190508181036000830152613e6681613e2a565b9050919050565b7f4e487b7100000000000000000000000000000000000000000000000000000000600052603260045260246000fd5b7f4e487b7100000000000000000000000000000000000000000000000000000000600052601160045260246000fd5b6000613ed682613321565b9150613ee183613321565b9250827fffffffffffffffffffffffffffffffffffffffffffffffffffffffffffffffff03821115613f1657613f15613e9c565b5b828201905092915050565b6000613f2c82613321565b91507fffffffffffffffffffffffffffffffffffffffffffffffffffffffffffffffff821415613f5f57613f5e613e9c565b5b600182019050919050565b7f4552433737373a2063616c6c6572206973206e6f7420616e206f70657261746f60008201527f7220666f7220686f6c6465720000000000000000000000000000000000000000602082015250565b6000613fc6602c83613231565b9150613fd182613f6a565b604082019050919050565b60006020820190508181036000830152613ff581613fb9565b9050919050565b7f4f776e61626c653a2063616c6c6572206973206e6f7420746865206f776e6572600082015250565b6000614032602083613231565b915061403d82613ffc565b602082019050919050565b6000602082019050818103600083015261406181614025565b9050919050565b7f4552433737373a20617574686f72697a696e672073656c66206173206f70657260008201527f61746f7200000000000000000000000000000000000000000000000000000000602082015250565b60006140c4602483613231565b91506140cf82614068565b604082019050919050565b600060208201905081810360008301526140f3816140b7565b9050919050565b7f54696d6520746f206c6f636b206d757374206265206d6f7265207468616e2030600082015250565b6000614130602083613231565b915061413b826140fa565b602082019050919050565b6000602082019050818103600083015261415f81614123565b9050919050565b7f7472616e7366657220746f20746865207a65726f206164647265737300000000600082015250565b600061419c601c83613231565b91506141a782614166565b602082019050919050565b600060208201905081810360008301526141cb8161418f565b9050919050565b600081905092915050565b60006141e882613226565b6141f281856141d2565b9350614202818560208601613242565b80840191505092915050565b600061421a82846141dd565b915081905092915050565b600061423082613321565b915061423b83613321565b92508282101561424e5761424d613e9c565b5b828203905092915050565b7f546f6b656e204d696e74696e672063616e6e6f7420657863656564204d61782060008201527f537570706c790000000000000000000000000000000000000000000000000000602082015250565b60006142b5602683613231565b91506142c082614259565b604082019050919050565b600060208201905081810360008301526142e4816142a8565b9050919050565b7f4f776e61626c653a206e6577206f776e657220697320746865207a65726f206160008201527f6464726573730000000000000000000000000000000000000000000000000000602082015250565b6000614347602683613231565b9150614352826142eb565b604082019050919050565b600060208201905081810360008301526143768161433a565b9050919050565b7f4552433737373a207265766f6b696e672073656c66206173206f70657261746f60008201527f7200000000000000000000000000000000000000000000000000000000000000602082015250565b60006143d9602183613231565b91506143e48261437d565b604082019050919050565b60006020820190508181036000830152614408816143cc565b9050919050565b7f4552433737373a20617070726f76652066726f6d20746865207a65726f20616460008201527f6472657373000000000000000000000000000000000000000000000000000000602082015250565b600061446b602583613231565b91506144768261440f565b604082019050919050565b6000602082019050818103600083015261449a8161445e565b9050919050565b7f4552433737373a20617070726f766520746f20746865207a65726f206164647260008201527f6573730000000000000000000000000000000000000000000000000000000000602082015250565b60006144fd602383613231565b9150614508826144a1565b604082019050919050565b6000602082019050818103600083015261452c816144f0565b9050919050565b6000819050919050565b61454681614533565b82525050565b60006040820190506145616000830185613a91565b61456e602083018461453d565b9392505050565b600081519050614584816132f5565b92915050565b6000602082840312156145a05761459f6132eb565b5b60006145ae84828501614575565b91505092915050565b600081519050919050565b600082825260208201905092915050565b60006145de826145b7565b6145e881856145c2565b93506145f8818560208601613242565b61460181613275565b840191505092915050565b600060c0820190506146216000830189613a91565b61462e6020830188613a91565b61463b6040830187613a91565b61464860608301866133cd565b818103608083015261465a81856145d3565b905081810360a083015261466e81846145d3565b9050979650505050505050565b7f4552433737373a20696e73756666696369656e7420616c6c6f77616e63650000600082015250565b60006146b1601e83613231565b91506146bc8261467b565b602082019050919050565b600060208201905081810360008301526146e0816146a4565b9050919050565b7f4552433737373a207472616e7366657220616d6f756e7420657863656564732060008201527f62616c616e636500000000000000000000000000000000000000000000000000602082015250565b6000614743602783613231565b915061474e826146e7565b604082019050919050565b6000602082019050818103600083015261477281614736565b9050919050565b600060608201905061478e60008301866133cd565b81810360208301526147a081856145d3565b905081810360408301526147b481846145d3565b9050949350505050565b7f4552433737373a20746f6b656e20726563697069656e7420636f6e747261637460008201527f20686173206e6f20696d706c656d656e74657220666f7220455243373737546f60208201527f6b656e73526563697069656e7400000000000000000000000000000000000000604082015250565b6000614840604d83613231565b915061484b826147be565b606082019050919050565b6000602082019050818103600083015261486f81614833565b9050919050565b7f4552433737373a2073656e642066726f6d20746865207a65726f20616464726560008201527f7373000000000000000000000000000000000000000000000000000000000000602082015250565b60006148d2602283613231565b91506148dd82614876565b604082019050919050565b60006020820190508181036000830152614901816148c5565b9050919050565b7f4552433737373a2073656e6420746f20746865207a65726f2061646472657373600082015250565b600061493e602083613231565b915061494982614908565b602082019050919050565b6000602082019050818103600083015261496d81614931565b9050919050565b7f4552433737373a206275726e2066726f6d20746865207a65726f20616464726560008201527f7373000000000000000000000000000000000000000000000000000000000000602082015250565b60006149d0602283613231565b91506149db82614974565b604082019050919050565b600060208201905081810360008301526149ff816149c3565b9050919050565b7f4552433737373a206275726e20616d6f756e7420657863656564732062616c6160008201527f6e63650000000000000000000000000000000000000000000000000000000000602082015250565b6000614a62602383613231565b9150614a6d82614a06565b604082019050919050565b60006020820190508181036000830152614a9181614a55565b9050919050565b7f416d6f756e74206265696e67207472616e73666572726564206578636565647360008201527f20617661696c61626c6520756e6c6f636b65642062616c616e63650000000000602082015250565b6000614af4603b83613231565b9150614aff82614a98565b604082019050919050565b60006020820190508181036000830152614b2381614ae7565b9050919050565b7f4552433737373a206d696e7420746f20746865207a65726f2061646472657373600082015250565b6000614b60602083613231565b9150614b6b82614b2a565b602082019050919050565b60006020820190508181036000830152614b8f81614b53565b905091905056fea2646970667358221220cd4a1f15a8b3a731b2c9a5cb9edd8abca9ab287fecc8dbcb6ddca2900991780e64736f6c634300080b0033",
  "immutableReferences": {},
  "source": "pragma solidity ^0.8.11;\r\n\r\nimport \"@openzeppelin/contracts/token/ERC777/ERC777.sol\";\r\nimport \"@openzeppelin/contracts/access/Ownable.sol\";\r\n\r\n\r\ncontract CoveyToken is ERC777, Ownable {\r\n\r\n  struct TokenLock {\r\n    uint256 amount;\r\n    uint unlockAt;\r\n    string reason;\r\n  }\r\n\r\n  struct _Airdrop {\r\n    address recipient;\r\n    uint256 amount;\r\n    uint  lockForSeconds;\r\n    string reason;\r\n  }\r\n\r\n  mapping(address => TokenLock[]) _tokenLocks; \r\n\r\n  uint _maxSupply = 1000000000000000000000000;\r\n\r\n  constructor (uint initialSupply, address[] memory defaultOperators) ERC777(\"Covey\", \"CVY\", defaultOperators) {\r\n    _mint(msg.sender, initialSupply, \"\", \"\");\r\n  }\r\n\r\n\r\n  event Lock(address indexed _adr, uint256 amount, uint indexed unlockTime, string indexed reason);\r\n\r\n  event Unlock(address indexed _adr, uint256 amount);\r\n\r\n  event Airdrop(address indexed _adr, uint256 amount);\r\n\r\n  function _beforeTokenTransfer(\r\n      address operator,\r\n      address from,\r\n      address to,\r\n      uint256 amount\r\n  ) internal virtual override {\r\n    uint256 lockedAmount = 0;\r\n\r\n    if(_tokenLocks[from].length > 0) {\r\n      for(uint256 i = 0; i < _tokenLocks[from].length; i++) {\r\n        if(_tokenLocks[from][i].amount != 0 && block.timestamp < _tokenLocks[from][i].unlockAt) {\r\n          lockedAmount += _tokenLocks[from][i].amount;\r\n        }\r\n        \r\n        if(block.timestamp > _tokenLocks[from][i].unlockAt && _tokenLocks[from][i].amount != 0) {\r\n          _unlock(from, i);\r\n        }\r\n      }\r\n    }\r\n\r\n    if(lockedAmount > 0) {\r\n      uint256 currentBalance = balanceOf(from);\r\n      uint256 balanceAfter = currentBalance - amount;\r\n\r\n      require(balanceAfter > lockedAmount, \"Amount being transferred exceeds available unlocked balance\");\r\n    }\r\n\r\n    super._beforeTokenTransfer(operator,from,to,amount);\r\n  }\r\n\r\n  function mint(\r\n    address account,\r\n    uint256 amount,\r\n    bytes memory userData,\r\n    bytes memory operatorData) public onlyOwner {\r\n      require(totalSupply() + amount <= _maxSupply, \"Token Minting cannot exceed Max Supply\");\r\n      super._mint(account, amount, userData, operatorData);\r\n  }\r\n\r\n  function lockedBalanceOf(address tokenHolder) public view returns(uint256) {\r\n    uint256 lockedAmount = 0;\r\n    if(_tokenLocks[tokenHolder].length > 0) {\r\n      for(uint256 i = 0; i < _tokenLocks[tokenHolder].length; i++) {\r\n        if(_tokenLocks[tokenHolder][i].amount != 0 && block.timestamp < _tokenLocks[tokenHolder][i].unlockAt) {\r\n          lockedAmount += _tokenLocks[tokenHolder][i].amount;\r\n        }  \r\n      }\r\n    }\r\n\r\n    return lockedAmount;\r\n  }\r\n\r\n  function unlockedBalancedOf(address tokenHolder) public view returns(uint256) {\r\n    uint256 lockedAmount = lockedBalanceOf(tokenHolder);\r\n\r\n    return balanceOf(tokenHolder) - lockedAmount;\r\n  }\r\n\r\n  function getLocks(address tokenHolder) public view returns(TokenLock[] memory) {\r\n    return _tokenLocks[tokenHolder];\r\n  }\r\n\r\n\r\n  function maxSupply() public view returns(uint) {\r\n    return _maxSupply;\r\n  }\r\n\r\n\r\n  function airdrop(_Airdrop[] memory airdrops) public  {\r\n    for(uint i = 0; i < airdrops.length; i++) {\r\n      uint256 toSend = airdrops[i].amount;\r\n      if(airdrops[i].lockForSeconds != 0) {\r\n        sendLocked(airdrops[i].recipient, airdrops[i].amount, airdrops[i].lockForSeconds, \"Locked CVY airdrop\");\r\n      } else {\r\n        send(airdrops[i].recipient, toSend, \"CVY Airdrop\");\r\n        emit Airdrop(airdrops[i].recipient, toSend);\r\n      }\r\n    }\r\n  }\r\n\r\n  function sendLocked(address to, uint256 amount, uint timeToLock, string memory reason) public  {\r\n    require(timeToLock > 0, \"Time to lock must be more than 0\");\r\n    require(to != address(0), \"transfer to the zero address\");\r\n\r\n    uint unlockAt = block.timestamp + timeToLock;\r\n    TokenLock memory tokenLock = TokenLock({\r\n      amount: amount,\r\n      unlockAt: unlockAt,\r\n      reason: reason\r\n    });\r\n    send(to,amount, \"Locked Tokens\");\r\n    _tokenLocks[to].push(tokenLock);\r\n    emit Lock(to, amount, unlockAt, reason);\r\n  }\r\n\r\n  function _unlock(address _adr, uint256 lockIndex) private {\r\n    if(_tokenLocks[_adr][lockIndex].amount != 0) {\r\n      emit Unlock(_adr, _tokenLocks[_adr][lockIndex].amount);\r\n      delete _tokenLocks[_adr][lockIndex];\r\n    }\r\n  }\r\n\r\n  function unlock(address _adr, uint256 lockIndex) public onlyOwner {\r\n    _unlock(_adr, lockIndex);\r\n  }\r\n}",
  "sourcePath": "c:\\Users\\jcara\\Documents\\repos\\smart-contract-token\\contracts\\CoveyToken.sol",
  "compiler": {
    "name": "solc",
    "version": "0.8.11+commit.d7f03943.Emscripten.clang"
  },
  "schemaVersion": "3.4.7",
  "updatedAt": "2022-08-04T13:48:00.364Z",
  "networkType": "ethereum",
  "devdoc": {
    "kind": "dev",
    "methods": {
      "allowance(address,address)": {
        "details": "See {IERC20-allowance}. Note that operator and allowance concepts are orthogonal: operators may not have allowance, and accounts with allowance may not be operators themselves."
      },
      "approve(address,uint256)": {
        "details": "See {IERC20-approve}. NOTE: If `value` is the maximum `uint256`, the allowance is not updated on `transferFrom`. This is semantically equivalent to an infinite approval. Note that accounts cannot have allowance issued by their operators."
      },
      "authorizeOperator(address)": {
        "details": "See {IERC777-authorizeOperator}."
      },
      "balanceOf(address)": {
        "details": "Returns the amount of tokens owned by an account (`tokenHolder`)."
      },
      "burn(uint256,bytes)": {
        "details": "See {IERC777-burn}. Also emits a {IERC20-Transfer} event for ERC20 compatibility."
      },
      "decimals()": {
        "details": "See {ERC20-decimals}. Always returns 18, as per the [ERC777 EIP](https://eips.ethereum.org/EIPS/eip-777#backward-compatibility)."
      },
      "defaultOperators()": {
        "details": "See {IERC777-defaultOperators}."
      },
      "granularity()": {
        "details": "See {IERC777-granularity}. This implementation always returns `1`."
      },
      "isOperatorFor(address,address)": {
        "details": "See {IERC777-isOperatorFor}."
      },
      "name()": {
        "details": "See {IERC777-name}."
      },
      "operatorBurn(address,uint256,bytes,bytes)": {
        "details": "See {IERC777-operatorBurn}. Emits {Burned} and {IERC20-Transfer} events."
      },
      "operatorSend(address,address,uint256,bytes,bytes)": {
        "details": "See {IERC777-operatorSend}. Emits {Sent} and {IERC20-Transfer} events."
      },
      "owner()": {
        "details": "Returns the address of the current owner."
      },
      "renounceOwnership()": {
        "details": "Leaves the contract without owner. It will not be possible to call `onlyOwner` functions anymore. Can only be called by the current owner. NOTE: Renouncing ownership will leave the contract without an owner, thereby removing any functionality that is only available to the owner."
      },
      "revokeOperator(address)": {
        "details": "See {IERC777-revokeOperator}."
      },
      "send(address,uint256,bytes)": {
        "details": "See {IERC777-send}. Also emits a {IERC20-Transfer} event for ERC20 compatibility."
      },
      "symbol()": {
        "details": "See {IERC777-symbol}."
      },
      "totalSupply()": {
        "details": "See {IERC777-totalSupply}."
      },
      "transfer(address,uint256)": {
        "details": "See {IERC20-transfer}. Unlike `send`, `recipient` is _not_ required to implement the {IERC777Recipient} interface if it is a contract. Also emits a {Sent} event."
      },
      "transferFrom(address,address,uint256)": {
        "details": "See {IERC20-transferFrom}. NOTE: Does not update the allowance if the current allowance is the maximum `uint256`. Note that operator and allowance concepts are orthogonal: operators cannot call `transferFrom` (unless they have allowance), and accounts with allowance cannot call `operatorSend` (unless they are operators). Emits {Sent}, {IERC20-Transfer} and {IERC20-Approval} events."
      },
      "transferOwnership(address)": {
        "details": "Transfers ownership of the contract to a new account (`newOwner`). Can only be called by the current owner."
      }
    },
    "version": 1
  },
  "userdoc": {
    "kind": "user",
    "methods": {},
    "version": 1
  }
}